Component: Arm Compiler for Embedded 6.21 Tool: armlink [5ec1fa00]

==============================================================================

Section Cross References

    hmi_app.o(.text.HmiTask) refers to key_drv.o(.text.GetKeyValue) for GetKeyValue
    hmi_app.o(.text.HmiTask) refers to led_drv.o(.text.TurnOffLed) for TurnOffLed
    hmi_app.o(.text.HmiTask) refers to led_drv.o(.text.TurnOnLed) for TurnOnLed
    hmi_app.o(.text.HmiTask) refers to printf1.o(i.__0printf$1) for __2printf
    hmi_app.o(.ARM.exidx.text.HmiTask) refers to hmi_app.o(.text.HmiTask) for [Anonymous Symbol]
    main.o(.text.main) refers to systick.o(.text.SystickInit) for SystickInit
    main.o(.text.main) refers to led_drv.o(.text.LedDrvInit) for LedDrvInit
    main.o(.text.main) refers to key_drv.o(.text.KeyDrvInit) for KeyDrvInit
    main.o(.text.main) refers to usb2com_drv.o(.text.Usb2ComDrvInit) for Usb2ComDrvInit
    main.o(.text.main) refers to fwdgt_drv.o(.text.FwdgtDrvInit) for FwdgtDrvInit
    main.o(.text.main) refers to main.o(.text.TaskSchedule) for TaskSchedule
    main.o(.text.main) refers to systick.o(.text.TaskScheduleCbReg) for TaskScheduleCbReg
    main.o(.text.main) refers to printf1.o(i.__0printf$1) for __2printf
    main.o(.text.main) refers to puts.o(i.puts) for puts
    main.o(.text.main) refers to main.o(.data.g_taskComps) for g_taskComps
    main.o(.ARM.exidx.text.main) refers to main.o(.text.main) for [Anonymous Symbol]
    main.o(.text.TaskSchedule) refers to main.o(.data.g_taskComps) for g_taskComps
    main.o(.ARM.exidx.text.TaskSchedule) refers to main.o(.text.TaskSchedule) for [Anonymous Symbol]
==============================================================================

Removing Unused input sections from the image.

    Removing hmi_app.o(.text), (0 bytes).
    Removing hmi_app.o(.ARM.exidx.text.HmiTask), (8 bytes).
    Removing main.o(.text), (0 bytes).
    Removing main.o(.ARM.exidx.text.main), (8 bytes).
    Removing main.o(.ARM.exidx.text.TaskSchedule), (8 bytes).
    Removing main.o(.ARM.use_no_argv), (4 bytes).
    Removing fwdgt_app.o(.text), (0 bytes).
    Removing fwdgt_app.o(.ARM.exidx.text.FwdgtTask), (8 bytes).
    Removing key_drv.o(.text), (0 bytes).
    Removing key_drv.o(.ARM.exidx.text.KeyDrvInit), (8 bytes).
    Removing key_drv.o(.ARM.exidx.text.GetKeyValue), (8 bytes).
    Removing systick.o(.text), (0 bytes).
    Removing systick.o(.ARM.exidx.text.TaskScheduleCbReg), (8 bytes).
    Removing systick.o(.ARM.exidx.text.SystickInit), (8 bytes).
    Removing systick.o(.ARM.exidx.text.SysTick_Handler), (8 bytes).
    Removing systick.o(.ARM.exidx.text.GetSystemRunTime), (8 bytes).
    Removing usb2com_drv.o(.text), (0 bytes).
    Removing usb2com_drv.o(.ARM.exidx.text.Usb2ComDrvInit), (8 bytes).
==============================================================================

Image Symbol Table

    Local Symbols

    Symbol Name                              Value     Ov Type        Size  Object(Section)

    ../clib/division.s                       0x00000000   Number         0  aeabi_sdiv.o ABSOLUTE
    ../clib/microlib/division.c              0x00000000   Number         0  uidiv.o ABSOLUTE
    ../clib/microlib/division.c              0x00000000   Number         0  uldiv.o ABSOLUTE
    ../clib/microlib/init/entry.s            0x00000000   Number         0  entry.o ABSOLUTE
    ../clib/microlib/init/entry.s            0x00000000   Number         0  entry2.o ABSOLUTE
    ../clib/microlib/init/entry.s            0x00000000   Number         0  entry5.o ABSOLUTE
    ../clib/microlib/init/entry.s            0x00000000   Number         0  entry7a.o ABSOLUTE
    ../clib/microlib/init/entry.s            0x00000000   Number         0  entry7b.o ABSOLUTE
    ../clib/microlib/init/entry.s            0x00000000   Number         0  entry8a.o ABSOLUTE
    ../clib/microlib/init/entry.s            0x00000000   Number         0  entry8b.o ABSOLUTE
    ../clib/microlib/init/entry.s            0x00000000   Number         0  entry9a.o ABSOLUTE
    ../clib/microlib/init/entry.s            0x00000000   Number         0  entry9b.o ABSOLUTE
    ../clib/microlib/init/entry.s            0x00000000   Number         0  entry10a.o ABSOLUTE
    ../clib/microlib/init/entry.s            0x00000000   Number         0  entry10b.o ABSOLUTE
    ../clib/microlib/init/entry.s            0x00000000   Number         0  entry11a.o ABSOLUTE
    ../clib/microlib/init/entry.s            0x00000000   Number         0  entry11b.o ABSOLUTE
    ../clib/microlib/longlong.c              0x00000000   Number         0  llshl.o ABSOLUTE
    ../clib/microlib/longlong.c              0x00000000   Number         0  llushr.o ABSOLUTE
    ../clib/microlib/longlong.c              0x00000000   Number         0  llsshr.o ABSOLUTE
    ../clib/microlib/printf/printf.c         0x00000000   Number         0  printfb.o ABSOLUTE
    ../clib/microlib/printf/printf.c         0x00000000   Number         0  printf0.o ABSOLUTE
    ../clib/microlib/printf/printf.c         0x00000000   Number         0  printf1.o ABSOLUTE
    ../clib/microlib/printf/printf.c         0x00000000   Number         0  printf2.o ABSOLUTE
    ../clib/microlib/printf/printf.c         0x00000000   Number         0  printf3.o ABSOLUTE
    ../clib/microlib/printf/printf.c         0x00000000   Number         0  printf4.o ABSOLUTE
    ../clib/microlib/printf/printf.c         0x00000000   Number         0  printf5.o ABSOLUTE
    ../clib/microlib/printf/printf.c         0x00000000   Number         0  printf6.o ABSOLUTE
    ../clib/microlib/printf/printf.c         0x00000000   Number         0  printf7.o ABSOLUTE
    ../clib/microlib/printf/printf.c         0x00000000   Number         0  printf8.o ABSOLUTE
    ../clib/microlib/printf/printf.c         0x00000000   Number         0  printfa.o ABSOLUTE
    ../clib/microlib/printf/stubs.s          0x00000000   Number         0  printfstubs.o ABSOLUTE
    ../clib/microlib/stdio/puts.c            0x00000000   Number         0  puts.o ABSOLUTE
    ../clib/microlib/stdio/puts.c            0x00000000   Number         0  puts_e.o ABSOLUTE
    ../clib/microlib/stdio/streams.c         0x00000000   Number         0  stdout.o ABSOLUTE
    ../clib/microlib/stubs.s                 0x00000000   Number         0  iusefp.o ABSOLUTE
    ../fplib/microlib/fpadd.c                0x00000000   Number         0  dadd.o ABSOLUTE
    ../fplib/microlib/fpdiv.c                0x00000000   Number         0  ddiv.o ABSOLUTE
    ../fplib/microlib/fpepilogue.c           0x00000000   Number         0  depilogue.o ABSOLUTE
    ../fplib/microlib/fpfix.c                0x00000000   Number         0  dfixul.o ABSOLUTE
    ../fplib/microlib/fpmul.c                0x00000000   Number         0  dmul.o ABSOLUTE
    Arm/startup_gd32f30x_hd.s                0x00000000   Number         0  startup_gd32f30x_hd.o ABSOLUTE
    cdrcmple.s                               0x00000000   Number         0  cdrcmple.o ABSOLUTE
    dc.s                                     0x00000000   Number         0  dc.o ABSOLUTE
    fwdgt_app.c                              0x00000000   Number         0  fwdgt_app.o ABSOLUTE
    fwdgt_drv.c                              0x00000000   Number         0  fwdgt_drv.o ABSOLUTE
    gd32f30x_fwdgt.c                         0x00000000   Number         0  gd32f30x_fwdgt.o ABSOLUTE
    gd32f30x_gpio.c                          0x00000000   Number         0  gd32f30x_gpio.o ABSOLUTE
    gd32f30x_misc.c                          0x00000000   Number         0  gd32f30x_misc.o ABSOLUTE
    gd32f30x_pmu.c                           0x00000000   Number         0  gd32f30x_pmu.o ABSOLUTE
    gd32f30x_rcu.c                           0x00000000   Number         0  gd32f30x_rcu.o ABSOLUTE
    gd32f30x_usart.c                         0x00000000   Number         0  gd32f30x_usart.o ABSOLUTE
    handlers.s                               0x00000000   Number         0  handlers.o ABSOLUTE
    hmi_app.c                                0x00000000   Number         0  hmi_app.o ABSOLUTE
    init.s                                   0x00000000   Number         0  init.o ABSOLUTE
    key_drv.c                                0x00000000   Number         0  key_drv.o ABSOLUTE
    led_drv.c                                0x00000000   Number         0  led_drv.o ABSOLUTE
    main.c                                   0x00000000   Number         0  main.o ABSOLUTE
    system_gd32f30x.c                        0x00000000   Number         0  system_gd32f30x.o ABSOLUTE
    systick.c                                0x00000000   Number         0  systick.o ABSOLUTE
    usb2com_drv.c                            0x00000000   Number         0  usb2com_drv.o ABSOLUTE
    RESET                                    0x08000000   Section      304  startup_gd32f30x_hd.o(RESET)
    .ARM.Collect$$$$00000000                 0x08000130   Section        0  entry.o(.ARM.Collect$$$$00000000)
    .ARM.Collect$$$$00000001                 0x08000130   Section        4  entry2.o(.ARM.Collect$$$$00000001)
    .ARM.Collect$$$$00000004                 0x08000134   Section        4  entry5.o(.ARM.Collect$$$$00000004)
    .ARM.Collect$$$$00000008                 0x08000138   Section        0  entry7b.o(.ARM.Collect$$$$00000008)
    .ARM.Collect$$$$0000000A                 0x08000138   Section        0  entry8b.o(.ARM.Collect$$$$0000000A)
    .ARM.Collect$$$$0000000B                 0x08000138   Section        8  entry9a.o(.ARM.Collect$$$$0000000B)
    __lit__00000000                          0x08000140   Data           4  entry2.o(.ARM.Collect$$$$00002712)
    .ARM.Collect$$$$0000000D                 0x08000140   Section        0  entry10a.o(.ARM.Collect$$$$0000000D)
    .ARM.Collect$$$$0000000F                 0x08000140   Section        0  entry11a.o(.ARM.Collect$$$$0000000F)
    .ARM.Collect$$$$00002712                 0x08000140   Section        4  entry2.o(.ARM.Collect$$$$00002712)
    $v0                                      0x08000144   Number         0  startup_gd32f30x_hd.o(.text)
    .text                                    0x08000144   Section       36  startup_gd32f30x_hd.o(.text)
    .text                                    0x08000168   Section        0  uidiv.o(.text)
    .text                                    0x08000194   Section       48  init.o(.text)
    [Anonymous Symbol]                       0x080001c4   Section        0  fwdgt_drv.o(.text.FeedDog)
    [Anonymous Symbol]                       0x080001c8   Section        0  fwdgt_drv.o(.text.FwdgtDrvInit)
    [Anonymous Symbol]                       0x080001dc   Section        0  fwdgt_app.o(.text.FwdgtTask)
    [Anonymous Symbol]                       0x08000204   Section        0  key_drv.o(.text.GetKeyValue)
    [Anonymous Symbol]                       0x080002e8   Section        0  systick.o(.text.GetSystemRunTime)
    [Anonymous Symbol]                       0x080002f8   Section        0  hmi_app.o(.text.HmiTask)
    [Anonymous Symbol]                       0x08000394   Section        0  key_drv.o(.text.KeyDrvInit)
    [Anonymous Symbol]                       0x080003c0   Section        0  led_drv.o(.text.LedDrvInit)
    [Anonymous Symbol]                       0x080003fc   Section        0  systick.o(.text.SysTick_Handler)
    [Anonymous Symbol]                       0x08000420   Section        0  system_gd32f30x.o(.text.SystemInit)
    [Anonymous Symbol]                       0x080005c8   Section        0  systick.o(.text.SystickInit)
    TaskSchedule                             0x08000611   Thumb Code    56  main.o(.text.TaskSchedule)
    [Anonymous Symbol]                       0x08000610   Section        0  main.o(.text.TaskSchedule)
    [Anonymous Symbol]                       0x08000648   Section        0  systick.o(.text.TaskScheduleCbReg)
    [Anonymous Symbol]                       0x08000654   Section        0  led_drv.o(.text.TurnOffLed)
    [Anonymous Symbol]                       0x08000674   Section        0  led_drv.o(.text.TurnOnLed)
    [Anonymous Symbol]                       0x08000694   Section        0  usb2com_drv.o(.text.USART0_IRQHandler)
    [Anonymous Symbol]                       0x080006d4   Section        0  usb2com_drv.o(.text.Usb2ComDrvInit)
    [Anonymous Symbol]                       0x08000758   Section        0  usb2com_drv.o(.text.fputc)
    [Anonymous Symbol]                       0x0800077c   Section        0  gd32f30x_fwdgt.o(.text.fwdgt_config)
    [Anonymous Symbol]                       0x080007e0   Section        0  gd32f30x_fwdgt.o(.text.fwdgt_counter_reload)
    [Anonymous Symbol]                       0x080007f0   Section        0  gd32f30x_fwdgt.o(.text.fwdgt_enable)
    [Anonymous Symbol]                       0x08000800   Section        0  gd32f30x_gpio.o(.text.gpio_bit_reset)
    [Anonymous Symbol]                       0x08000804   Section        0  gd32f30x_gpio.o(.text.gpio_bit_set)
    [Anonymous Symbol]                       0x08000808   Section        0  gd32f30x_gpio.o(.text.gpio_init)
    [Anonymous Symbol]                       0x080008c0   Section        0  gd32f30x_gpio.o(.text.gpio_input_bit_get)
    [Anonymous Symbol]                       0x080008cc   Section        0  main.o(.text.main)
    [Anonymous Symbol]                       0x08000964   Section        0  gd32f30x_misc.o(.text.nvic_irq_enable)
    [Anonymous Symbol]                       0x08000a08   Section        0  gd32f30x_rcu.o(.text.rcu_clock_freq_get)
    [Anonymous Symbol]                       0x08000ad8   Section        0  gd32f30x_rcu.o(.text.rcu_periph_clock_enable)
    [Anonymous Symbol]                       0x08000af8   Section        0  gd32f30x_rcu.o(.text.rcu_periph_reset_disable)
    [Anonymous Symbol]                       0x08000b18   Section        0  gd32f30x_rcu.o(.text.rcu_periph_reset_enable)
    [Anonymous Symbol]                       0x08000b38   Section        0  gd32f30x_usart.o(.text.usart_baudrate_set)
    [Anonymous Symbol]                       0x08000ba4   Section        0  gd32f30x_usart.o(.text.usart_data_receive)
    [Anonymous Symbol]                       0x08000bac   Section        0  gd32f30x_usart.o(.text.usart_data_transmit)
    [Anonymous Symbol]                       0x08000bb4   Section        0  gd32f30x_usart.o(.text.usart_deinit)
    [Anonymous Symbol]                       0x08000c30   Section        0  gd32f30x_usart.o(.text.usart_enable)
    [Anonymous Symbol]                       0x08000c3c   Section        0  gd32f30x_usart.o(.text.usart_flag_get)
    [Anonymous Symbol]                       0x08000c4c   Section        0  gd32f30x_usart.o(.text.usart_interrupt_enable)
    [Anonymous Symbol]                       0x08000c64   Section        0  gd32f30x_usart.o(.text.usart_interrupt_flag_clear)
    [Anonymous Symbol]                       0x08000c78   Section        0  gd32f30x_usart.o(.text.usart_interrupt_flag_get)
    [Anonymous Symbol]                       0x08000c9c   Section        0  gd32f30x_usart.o(.text.usart_parity_config)
    [Anonymous Symbol]                       0x08000cac   Section        0  gd32f30x_usart.o(.text.usart_receive_config)
    [Anonymous Symbol]                       0x08000cc0   Section        0  gd32f30x_usart.o(.text.usart_stop_bit_set)
    [Anonymous Symbol]                       0x08000cd0   Section        0  gd32f30x_usart.o(.text.usart_transmit_config)
    [Anonymous Symbol]                       0x08000ce4   Section        0  gd32f30x_usart.o(.text.usart_word_length_set)
    i.__0printf$1                            0x08000cf4   Section        0  printf1.o(i.__0printf$1)
    i.__scatterload_copy                     0x08000d14   Section       14  handlers.o(i.__scatterload_copy)
    i.__scatterload_null                     0x08000d22   Section        2  handlers.o(i.__scatterload_null)
    i.__scatterload_zeroinit                 0x08000d24   Section       14  handlers.o(i.__scatterload_zeroinit)
    _printf_core                             0x08000d35   Thumb Code   336  printf1.o(i._printf_core)
    i._printf_core                           0x08000d34   Section        0  printf1.o(i._printf_core)
    i.puts                                   0x08000e88   Section        0  puts.o(i.puts)
    .L__const.rcu_clock_freq_get.apb2_exp    0x08000eac   Data           8  gd32f30x_rcu.o(.rodata.cst8)
    g_GpioList                               0x08000eb4   Data          48  key_drv.o(.rodata.g_GpioList)
    [Anonymous Symbol]                       0x08000eb4   Section        0  key_drv.o(.rodata.g_GpioList)
    g_ledList                                0x08000ee4   Data          36  led_drv.o(.rodata.g_ledList)
    [Anonymous Symbol]                       0x08000ee4   Section        0  led_drv.o(.rodata.g_ledList)
    .data                                    0x20000000   Section        4  stdout.o(.data)
    g_taskComps                              0x20000020   Data          24  main.o(.data.g_taskComps)
    [Anonymous Symbol]                       0x20000020   Section        0  main.o(.data.g_taskComps)
    g_keyInfoList                            0x20000038   Data          64  key_drv.o(.bss.g_keyInfoList)
    [Anonymous Symbol]                       0x20000038   Section        0  key_drv.o(.bss.g_keyInfoList)
    g_pTaskScheduleFunc                      0x20000078   Data           4  systick.o(.bss.g_pTaskScheduleFunc)
    [Anonymous Symbol]                       0x20000078   Section        0  systick.o(.bss.g_pTaskScheduleFunc)
    g_systemRunTime                          0x20000080   Data           8  systick.o(.bss.g_systemRunTime)
    [Anonymous Symbol]                       0x20000080   Section        0  systick.o(.bss.g_systemRunTime)
    pProcUartData                            0x20000088   Data           4  usb2com_drv.o(.bss.pProcUartData)
    [Anonymous Symbol]                       0x20000088   Section        0  usb2com_drv.o(.bss.pProcUartData)
    STACK                                    0x20000090   Section     1024  startup_gd32f30x_hd.o(STACK)

    Global Symbols

    Symbol Name                              Value     Ov Type        Size  Object(Section)

    BuildAttributes$$THM_ISAv4$E$P$D$K$B$S$7EM$VFPi3$EXTD16$VFPS$VFMA$PE$A:L22UL41UL21$X:L11$S22US41US21$IEEE1$IW$~IW$USESV6$~STKCKD$USESV7$~SHL$OTIME$ROPI$EBA8$MICROLIB$REQ8$PRES8$EABIv2 0x00000000   Number         0  anon$$obj.o ABSOLUTE
    _printf_a                                0x00000000   Number         0  printfstubs.o ABSOLUTE
    _printf_c                                0x00000000   Number         0  printfstubs.o ABSOLUTE
    _printf_charcount                        0x00000000   Number         0  printfstubs.o ABSOLUTE
    _printf_d                                0x00000000   Number         0  printfstubs.o ABSOLUTE
    _printf_e                                0x00000000   Number         0  printfstubs.o ABSOLUTE
    _printf_f                                0x00000000   Number         0  printfstubs.o ABSOLUTE
    _printf_flags                            0x00000000   Number         0  printfstubs.o ABSOLUTE
    _printf_fp_dec                           0x00000000   Number         0  printfstubs.o ABSOLUTE
    _printf_fp_hex                           0x00000000   Number         0  printfstubs.o ABSOLUTE
    _printf_g                                0x00000000   Number         0  printfstubs.o ABSOLUTE
    _printf_i                                0x00000000   Number         0  printfstubs.o ABSOLUTE
    _printf_int_dec                          0x00000000   Number         0  printfstubs.o ABSOLUTE
    _printf_l                                0x00000000   Number         0  printfstubs.o ABSOLUTE
    _printf_lc                               0x00000000   Number         0  printfstubs.o ABSOLUTE
    _printf_ll                               0x00000000   Number         0  printfstubs.o ABSOLUTE
    _printf_lld                              0x00000000   Number         0  printfstubs.o ABSOLUTE
    _printf_lli                              0x00000000   Number         0  printfstubs.o ABSOLUTE
    _printf_llo                              0x00000000   Number         0  printfstubs.o ABSOLUTE
    _printf_llu                              0x00000000   Number         0  printfstubs.o ABSOLUTE
    _printf_llx                              0x00000000   Number         0  printfstubs.o ABSOLUTE
    _printf_longlong_dec                     0x00000000   Number         0  printfstubs.o ABSOLUTE
    _printf_longlong_hex                     0x00000000   Number         0  printfstubs.o ABSOLUTE
    _printf_longlong_oct                     0x00000000   Number         0  printfstubs.o ABSOLUTE
    _printf_ls                               0x00000000   Number         0  printfstubs.o ABSOLUTE
    _printf_mbtowc                           0x00000000   Number         0  printfstubs.o ABSOLUTE
    _printf_n                                0x00000000   Number         0  printfstubs.o ABSOLUTE
    _printf_o                                0x00000000   Number         0  printfstubs.o ABSOLUTE
    _printf_p                                0x00000000   Number         0  printfstubs.o ABSOLUTE
    _printf_percent                          0x00000000   Number         0  printfstubs.o ABSOLUTE
    _printf_pre_padding                      0x00000000   Number         0  printfstubs.o ABSOLUTE
    _printf_return_value                     0x00000000   Number         0  printfstubs.o ABSOLUTE
    _printf_s                                0x00000000   Number         0  printfstubs.o ABSOLUTE
    _printf_sizespec                         0x00000000   Number         0  printfstubs.o ABSOLUTE
    _printf_str                              0x00000000   Number         0  printfstubs.o ABSOLUTE
    _printf_truncate_signed                  0x00000000   Number         0  printfstubs.o ABSOLUTE
    _printf_truncate_unsigned                0x00000000   Number         0  printfstubs.o ABSOLUTE
    _printf_u                                0x00000000   Number         0  printfstubs.o ABSOLUTE
    _printf_wc                               0x00000000   Number         0  printfstubs.o ABSOLUTE
    _printf_wctomb                           0x00000000   Number         0  printfstubs.o ABSOLUTE
    _printf_widthprec                        0x00000000   Number         0  printfstubs.o ABSOLUTE
    _printf_x                                0x00000000   Number         0  printfstubs.o ABSOLUTE
    __cpp_initialize__aeabi_                  - Undefined Weak Reference
    __cxa_finalize                            - Undefined Weak Reference
    __decompress                              - Undefined Weak Reference
    _clock_init                               - Undefined Weak Reference
    _microlib_exit                            - Undefined Weak Reference
    __Vectors_Size                           0x00000130   Number         0  startup_gd32f30x_hd.o ABSOLUTE
    __Vectors                                0x08000000   Data           4  startup_gd32f30x_hd.o(RESET)
    __Vectors_End                            0x08000130   Data           0  startup_gd32f30x_hd.o(RESET)
    __main                                   0x08000131   Thumb Code     0  entry.o(.ARM.Collect$$$$00000000)
    _main_stk                                0x08000131   Thumb Code     0  entry2.o(.ARM.Collect$$$$00000001)
    _main_scatterload                        0x08000135   Thumb Code     0  entry5.o(.ARM.Collect$$$$00000004)
    __main_after_scatterload                 0x08000139   Thumb Code     0  entry5.o(.ARM.Collect$$$$00000004)
    _main_clock                              0x08000139   Thumb Code     0  entry7b.o(.ARM.Collect$$$$00000008)
    _main_cpp_init                           0x08000139   Thumb Code     0  entry8b.o(.ARM.Collect$$$$0000000A)
    _main_init                               0x08000139   Thumb Code     0  entry9a.o(.ARM.Collect$$$$0000000B)
    __rt_final_cpp                           0x08000141   Thumb Code     0  entry10a.o(.ARM.Collect$$$$0000000D)
    __rt_final_exit                          0x08000141   Thumb Code     0  entry11a.o(.ARM.Collect$$$$0000000F)
    Reset_Handler                            0x08000145   Thumb Code     8  startup_gd32f30x_hd.o(.text)
    NMI_Handler                              0x0800014d   Thumb Code     2  startup_gd32f30x_hd.o(.text)
    HardFault_Handler                        0x0800014f   Thumb Code     2  startup_gd32f30x_hd.o(.text)
    MemManage_Handler                        0x08000151   Thumb Code     2  startup_gd32f30x_hd.o(.text)
    BusFault_Handler                         0x08000153   Thumb Code     2  startup_gd32f30x_hd.o(.text)
    UsageFault_Handler                       0x08000155   Thumb Code     2  startup_gd32f30x_hd.o(.text)
    SVC_Handler                              0x08000157   Thumb Code     2  startup_gd32f30x_hd.o(.text)
    DebugMon_Handler                         0x08000159   Thumb Code     2  startup_gd32f30x_hd.o(.text)
    PendSV_Handler                           0x0800015b   Thumb Code     2  startup_gd32f30x_hd.o(.text)
    ADC0_1_IRQHandler                        0x0800015f   Thumb Code     0  startup_gd32f30x_hd.o(.text)
    ADC2_IRQHandler                          0x0800015f   Thumb Code     0  startup_gd32f30x_hd.o(.text)
    CAN0_EWMC_IRQHandler                     0x0800015f   Thumb Code     0  startup_gd32f30x_hd.o(.text)
    CAN0_RX1_IRQHandler                      0x0800015f   Thumb Code     0  startup_gd32f30x_hd.o(.text)
    DMA0_Channel0_IRQHandler                 0x0800015f   Thumb Code     0  startup_gd32f30x_hd.o(.text)
    DMA0_Channel1_IRQHandler                 0x0800015f   Thumb Code     0  startup_gd32f30x_hd.o(.text)
    DMA0_Channel2_IRQHandler                 0x0800015f   Thumb Code     0  startup_gd32f30x_hd.o(.text)
    DMA0_Channel3_IRQHandler                 0x0800015f   Thumb Code     0  startup_gd32f30x_hd.o(.text)
    DMA0_Channel4_IRQHandler                 0x0800015f   Thumb Code     0  startup_gd32f30x_hd.o(.text)
    DMA0_Channel5_IRQHandler                 0x0800015f   Thumb Code     0  startup_gd32f30x_hd.o(.text)
    DMA0_Channel6_IRQHandler                 0x0800015f   Thumb Code     0  startup_gd32f30x_hd.o(.text)
    DMA1_Channel0_IRQHandler                 0x0800015f   Thumb Code     0  startup_gd32f30x_hd.o(.text)
    DMA1_Channel1_IRQHandler                 0x0800015f   Thumb Code     0  startup_gd32f30x_hd.o(.text)
    DMA1_Channel2_IRQHandler                 0x0800015f   Thumb Code     0  startup_gd32f30x_hd.o(.text)
    DMA1_Channel3_4_IRQHandler               0x0800015f   Thumb Code     0  startup_gd32f30x_hd.o(.text)
    EXMC_IRQHandler                          0x0800015f   Thumb Code     0  startup_gd32f30x_hd.o(.text)
    EXTI0_IRQHandler                         0x0800015f   Thumb Code     0  startup_gd32f30x_hd.o(.text)
    EXTI10_15_IRQHandler                     0x0800015f   Thumb Code     0  startup_gd32f30x_hd.o(.text)
    EXTI1_IRQHandler                         0x0800015f   Thumb Code     0  startup_gd32f30x_hd.o(.text)
    EXTI2_IRQHandler                         0x0800015f   Thumb Code     0  startup_gd32f30x_hd.o(.text)
    EXTI3_IRQHandler                         0x0800015f   Thumb Code     0  startup_gd32f30x_hd.o(.text)
    EXTI4_IRQHandler                         0x0800015f   Thumb Code     0  startup_gd32f30x_hd.o(.text)
    EXTI5_9_IRQHandler                       0x0800015f   Thumb Code     0  startup_gd32f30x_hd.o(.text)
    FMC_IRQHandler                           0x0800015f   Thumb Code     0  startup_gd32f30x_hd.o(.text)
    I2C0_ER_IRQHandler                       0x0800015f   Thumb Code     0  startup_gd32f30x_hd.o(.text)
    I2C0_EV_IRQHandler                       0x0800015f   Thumb Code     0  startup_gd32f30x_hd.o(.text)
    I2C1_ER_IRQHandler                       0x0800015f   Thumb Code     0  startup_gd32f30x_hd.o(.text)
    I2C1_EV_IRQHandler                       0x0800015f   Thumb Code     0  startup_gd32f30x_hd.o(.text)
    LVD_IRQHandler                           0x0800015f   Thumb Code     0  startup_gd32f30x_hd.o(.text)
    RCU_CTC_IRQHandler                       0x0800015f   Thumb Code     0  startup_gd32f30x_hd.o(.text)
    RTC_Alarm_IRQHandler                     0x0800015f   Thumb Code     0  startup_gd32f30x_hd.o(.text)
    RTC_IRQHandler                           0x0800015f   Thumb Code     0  startup_gd32f30x_hd.o(.text)
    SDIO_IRQHandler                          0x0800015f   Thumb Code     0  startup_gd32f30x_hd.o(.text)
    SPI0_IRQHandler                          0x0800015f   Thumb Code     0  startup_gd32f30x_hd.o(.text)
    SPI1_IRQHandler                          0x0800015f   Thumb Code     0  startup_gd32f30x_hd.o(.text)
    SPI2_IRQHandler                          0x0800015f   Thumb Code     0  startup_gd32f30x_hd.o(.text)
    TAMPER_IRQHandler                        0x0800015f   Thumb Code     0  startup_gd32f30x_hd.o(.text)
    TIMER0_BRK_IRQHandler                    0x0800015f   Thumb Code     0  startup_gd32f30x_hd.o(.text)
    TIMER0_Channel_IRQHandler                0x0800015f   Thumb Code     0  startup_gd32f30x_hd.o(.text)
    TIMER0_TRG_CMT_IRQHandler                0x0800015f   Thumb Code     0  startup_gd32f30x_hd.o(.text)
    TIMER0_UP_IRQHandler                     0x0800015f   Thumb Code     0  startup_gd32f30x_hd.o(.text)
    TIMER1_IRQHandler                        0x0800015f   Thumb Code     0  startup_gd32f30x_hd.o(.text)
    TIMER2_IRQHandler                        0x0800015f   Thumb Code     0  startup_gd32f30x_hd.o(.text)
    TIMER3_IRQHandler                        0x0800015f   Thumb Code     0  startup_gd32f30x_hd.o(.text)
    TIMER4_IRQHandler                        0x0800015f   Thumb Code     0  startup_gd32f30x_hd.o(.text)
    TIMER5_IRQHandler                        0x0800015f   Thumb Code     0  startup_gd32f30x_hd.o(.text)
    TIMER6_IRQHandler                        0x0800015f   Thumb Code     0  startup_gd32f30x_hd.o(.text)
    TIMER7_BRK_IRQHandler                    0x0800015f   Thumb Code     0  startup_gd32f30x_hd.o(.text)
    TIMER7_Channel_IRQHandler                0x0800015f   Thumb Code     0  startup_gd32f30x_hd.o(.text)
    TIMER7_TRG_CMT_IRQHandler                0x0800015f   Thumb Code     0  startup_gd32f30x_hd.o(.text)
    TIMER7_UP_IRQHandler                     0x0800015f   Thumb Code     0  startup_gd32f30x_hd.o(.text)
    UART3_IRQHandler                         0x0800015f   Thumb Code     0  startup_gd32f30x_hd.o(.text)
    UART4_IRQHandler                         0x0800015f   Thumb Code     0  startup_gd32f30x_hd.o(.text)
    USART1_IRQHandler                        0x0800015f   Thumb Code     0  startup_gd32f30x_hd.o(.text)
    USART2_IRQHandler                        0x0800015f   Thumb Code     0  startup_gd32f30x_hd.o(.text)
    USBD_HP_CAN0_TX_IRQHandler               0x0800015f   Thumb Code     0  startup_gd32f30x_hd.o(.text)
    USBD_LP_CAN0_RX0_IRQHandler              0x0800015f   Thumb Code     0  startup_gd32f30x_hd.o(.text)
    USBD_WKUP_IRQHandler                     0x0800015f   Thumb Code     0  startup_gd32f30x_hd.o(.text)
    WWDGT_IRQHandler                         0x0800015f   Thumb Code     0  startup_gd32f30x_hd.o(.text)
    __aeabi_uidiv                            0x08000169   Thumb Code     0  uidiv.o(.text)
    __aeabi_uidivmod                         0x08000169   Thumb Code    44  uidiv.o(.text)
    __scatterload                            0x08000195   Thumb Code    38  init.o(.text)
    __scatterload_rt2                        0x08000195   Thumb Code     0  init.o(.text)
    FeedDog                                  0x080001c5   Thumb Code     4  fwdgt_drv.o(.text.FeedDog)
    FwdgtDrvInit                             0x080001c9   Thumb Code    20  fwdgt_drv.o(.text.FwdgtDrvInit)
    FwdgtTask                                0x080001dd   Thumb Code    16  fwdgt_app.o(.text.FwdgtTask)
    GetKeyValue                              0x08000205   Thumb Code   228  key_drv.o(.text.GetKeyValue)
    GetSystemRunTime                         0x080002e9   Thumb Code    14  systick.o(.text.GetSystemRunTime)
    HmiTask                                  0x080002f9   Thumb Code   128  hmi_app.o(.text.HmiTask)
    KeyDrvInit                               0x08000395   Thumb Code    44  key_drv.o(.text.KeyDrvInit)
    LedDrvInit                               0x080003c1   Thumb Code    58  led_drv.o(.text.LedDrvInit)
    SysTick_Handler                          0x080003fd   Thumb Code    34  systick.o(.text.SysTick_Handler)
    SystemInit                               0x08000421   Thumb Code   424  system_gd32f30x.o(.text.SystemInit)
    SystickInit                              0x080005c9   Thumb Code    70  systick.o(.text.SystickInit)
    TaskScheduleCbReg                        0x08000649   Thumb Code    12  systick.o(.text.TaskScheduleCbReg)
    TurnOffLed                               0x08000655   Thumb Code    30  led_drv.o(.text.TurnOffLed)
    TurnOnLed                                0x08000675   Thumb Code    30  led_drv.o(.text.TurnOnLed)
    USART0_IRQHandler                        0x08000695   Thumb Code    64  usb2com_drv.o(.text.USART0_IRQHandler)
    Usb2ComDrvInit                           0x080006d5   Thumb Code   132  usb2com_drv.o(.text.Usb2ComDrvInit)
    fputc                                    0x08000759   Thumb Code    36  usb2com_drv.o(.text.fputc)
    fwdgt_config                             0x0800077d   Thumb Code   100  gd32f30x_fwdgt.o(.text.fwdgt_config)
    fwdgt_counter_reload                     0x080007e1   Thumb Code    16  gd32f30x_fwdgt.o(.text.fwdgt_counter_reload)
    fwdgt_enable                             0x080007f1   Thumb Code    16  gd32f30x_fwdgt.o(.text.fwdgt_enable)
    gpio_bit_reset                           0x08000801   Thumb Code     4  gd32f30x_gpio.o(.text.gpio_bit_reset)
    gpio_bit_set                             0x08000805   Thumb Code     4  gd32f30x_gpio.o(.text.gpio_bit_set)
    gpio_init                                0x08000809   Thumb Code   182  gd32f30x_gpio.o(.text.gpio_init)
    gpio_input_bit_get                       0x080008c1   Thumb Code    10  gd32f30x_gpio.o(.text.gpio_input_bit_get)
    main                                     0x080008cd   Thumb Code    92  main.o(.text.main)
    nvic_irq_enable                          0x08000965   Thumb Code   164  gd32f30x_misc.o(.text.nvic_irq_enable)
    rcu_clock_freq_get                       0x08000a09   Thumb Code   192  gd32f30x_rcu.o(.text.rcu_clock_freq_get)
    rcu_periph_clock_enable                  0x08000ad9   Thumb Code    30  gd32f30x_rcu.o(.text.rcu_periph_clock_enable)
    rcu_periph_reset_disable                 0x08000af9   Thumb Code    32  gd32f30x_rcu.o(.text.rcu_periph_reset_disable)
    rcu_periph_reset_enable                  0x08000b19   Thumb Code    30  gd32f30x_rcu.o(.text.rcu_periph_reset_enable)
    usart_baudrate_set                       0x08000b39   Thumb Code   106  gd32f30x_usart.o(.text.usart_baudrate_set)
    usart_data_receive                       0x08000ba5   Thumb Code     8  gd32f30x_usart.o(.text.usart_data_receive)
    usart_data_transmit                      0x08000bad   Thumb Code     8  gd32f30x_usart.o(.text.usart_data_transmit)
    usart_deinit                             0x08000bb5   Thumb Code   122  gd32f30x_usart.o(.text.usart_deinit)
    usart_enable                             0x08000c31   Thumb Code    10  gd32f30x_usart.o(.text.usart_enable)
    usart_flag_get                           0x08000c3d   Thumb Code    16  gd32f30x_usart.o(.text.usart_flag_get)
    usart_interrupt_enable                   0x08000c4d   Thumb Code    22  gd32f30x_usart.o(.text.usart_interrupt_enable)
    usart_interrupt_flag_clear               0x08000c65   Thumb Code    18  gd32f30x_usart.o(.text.usart_interrupt_flag_clear)
    usart_interrupt_flag_get                 0x08000c79   Thumb Code    34  gd32f30x_usart.o(.text.usart_interrupt_flag_get)
    usart_parity_config                      0x08000c9d   Thumb Code    16  gd32f30x_usart.o(.text.usart_parity_config)
    usart_receive_config                     0x08000cad   Thumb Code    20  gd32f30x_usart.o(.text.usart_receive_config)
    usart_stop_bit_set                       0x08000cc1   Thumb Code    16  gd32f30x_usart.o(.text.usart_stop_bit_set)
    usart_transmit_config                    0x08000cd1   Thumb Code    20  gd32f30x_usart.o(.text.usart_transmit_config)
    usart_word_length_set                    0x08000ce5   Thumb Code    16  gd32f30x_usart.o(.text.usart_word_length_set)
    __0printf$1                              0x08000cf5   Thumb Code    22  printf1.o(i.__0printf$1)
    __1printf$1                              0x08000cf5   Thumb Code     0  printf1.o(i.__0printf$1)
    __2printf                                0x08000cf5   Thumb Code     0  printf1.o(i.__0printf$1)
    __scatterload_copy                       0x08000d15   Thumb Code    14  handlers.o(i.__scatterload_copy)
    __scatterload_null                       0x08000d23   Thumb Code     2  handlers.o(i.__scatterload_null)
    __scatterload_zeroinit                   0x08000d25   Thumb Code    14  handlers.o(i.__scatterload_zeroinit)
    puts                                     0x08000e89   Thumb Code    30  puts.o(i.puts)
    Region$$Table$$Base                      0x08000f08   Number         0  anon$$obj.o(Region$$Table)
    Region$$Table$$Limit                     0x08000f28   Number         0  anon$$obj.o(Region$$Table)
    __stdout                                 0x20000000   Data           4  stdout.o(.data)
    g_Usb2ComInfo                            0x20000004   Data          28  usb2com_drv.o(.data.g_Usb2ComInfo)
    __initial_sp                             0x20000490   Data           0  startup_gd32f30x_hd.o(STACK)



==============================================================================

Memory Map of the image

  Image Entry point : 0x08000131

  Load Region LR_IROM1 (Base: 0x08000000, Size: 0x00000f60, Max: 0x00080000, ABSOLUTE)

    Execution Region ER_IROM1 (Exec base: 0x08000000, Load base: 0x08000000, Size: 0x00000f28, Max: 0x00080000, ABSOLUTE)

    Exec Addr    Load Addr    Size         Type   Attr      Idx    E Section Name        Object

    0x08000000   0x08000000   0x00000130   Data   RO          449    RESET               startup_gd32f30x_hd.o
    0x08000130   0x08000130   0x00000000   Code   RO          469  * .ARM.Collect$$$$00000000  mc_w.l(entry.o)
    0x08000130   0x08000130   0x00000004   Code   RO          737    .ARM.Collect$$$$00000001  mc_w.l(entry2.o)
    0x08000134   0x08000134   0x00000004   Code   RO          740    .ARM.Collect$$$$00000004  mc_w.l(entry5.o)
    0x08000138   0x08000138   0x00000000   Code   RO          742    .ARM.Collect$$$$00000008  mc_w.l(entry7b.o)
    0x08000138   0x08000138   0x00000000   Code   RO          744    .ARM.Collect$$$$0000000A  mc_w.l(entry8b.o)
    0x08000138   0x08000138   0x00000008   Code   RO          745    .ARM.Collect$$$$0000000B  mc_w.l(entry9a.o)
    0x08000140   0x08000140   0x00000000   Code   RO          747    .ARM.Collect$$$$0000000D  mc_w.l(entry10a.o)
    0x08000140   0x08000140   0x00000000   Code   RO          749    .ARM.Collect$$$$0000000F  mc_w.l(entry11a.o)
    0x08000140   0x08000140   0x00000004   Code   RO          738    .ARM.Collect$$$$00002712  mc_w.l(entry2.o)
    0x08000144   0x08000144   0x00000024   Code   RO          450    .text               startup_gd32f30x_hd.o
    0x08000168   0x08000168   0x0000002c   Code   RO          761    .text               mc_w.l(uidiv.o)
    0x08000194   0x08000194   0x00000030   Code   RO          776    .text               mc_w.l(init.o)
    0x080001c4   0x080001c4   0x00000004   Code   RO           83    .text.FeedDog       fwdgt_drv.o
    0x080001c8   0x080001c8   0x00000014   Code   RO           81    .text.FwdgtDrvInit  fwdgt_drv.o
    0x080001dc   0x080001dc   0x00000028   Code   RO           24    .text.FwdgtTask     fwdgt_app.o
    0x08000204   0x08000204   0x000000e4   Code   RO           34    .text.GetKeyValue   key_drv.o
    0x080002e8   0x080002e8   0x0000000e   Code   RO           52    .text.GetSystemRunTime  systick.o
    0x080002f6   0x080002f6   0x00000002   PAD
    0x080002f8   0x080002f8   0x0000009c   Code   RO            2    .text.HmiTask       hmi_app.o
    0x08000394   0x08000394   0x0000002c   Code   RO           32    .text.KeyDrvInit    key_drv.o
    0x080003c0   0x080003c0   0x0000003a   Code   RO           92    .text.LedDrvInit    led_drv.o
    0x080003fa   0x080003fa   0x00000002   PAD
    0x080003fc   0x080003fc   0x00000022   Code   RO           50    .text.SysTick_Handler  systick.o
    0x0800041e   0x0800041e   0x00000002   PAD
    0x08000420   0x08000420   0x000001a8   Code   RO          457    .text.SystemInit    system_gd32f30x.o
    0x080005c8   0x080005c8   0x00000046   Code   RO           48    .text.SystickInit   systick.o
    0x0800060e   0x0800060e   0x00000002   PAD
    0x08000610   0x08000610   0x00000038   Code   RO           12    .text.TaskSchedule  main.o
    0x08000648   0x08000648   0x0000000c   Code   RO           46    .text.TaskScheduleCbReg  systick.o
    0x08000654   0x08000654   0x0000001e   Code   RO           96    .text.TurnOffLed    led_drv.o
    0x08000672   0x08000672   0x00000002   PAD
    0x08000674   0x08000674   0x0000001e   Code   RO           94    .text.TurnOnLed     led_drv.o
    0x08000692   0x08000692   0x00000002   PAD
    0x08000694   0x08000694   0x00000040   Code   RO           69    .text.USART0_IRQHandler  usb2com_drv.o
    0x080006d4   0x080006d4   0x00000084   Code   RO           63    .text.Usb2ComDrvInit  usb2com_drv.o
    0x08000758   0x08000758   0x00000024   Code   RO           65    .text.fputc         usb2com_drv.o
    0x0800077c   0x0800077c   0x00000064   Code   RO          121    .text.fwdgt_config  gd32f30x_fwdgt.o
    0x080007e0   0x080007e0   0x00000010   Code   RO          119    .text.fwdgt_counter_reload  gd32f30x_fwdgt.o
    0x080007f0   0x080007f0   0x00000010   Code   RO          113    .text.fwdgt_enable  gd32f30x_fwdgt.o
    0x08000800   0x08000800   0x00000004   Code   RO          141    .text.gpio_bit_reset  gd32f30x_gpio.o
    0x08000804   0x08000804   0x00000004   Code   RO          139    .text.gpio_bit_set  gd32f30x_gpio.o
    0x08000808   0x08000808   0x000000b6   Code   RO          137    .text.gpio_init     gd32f30x_gpio.o
    0x080008be   0x080008be   0x00000002   PAD
    0x080008c0   0x080008c0   0x0000000a   Code   RO          147    .text.gpio_input_bit_get  gd32f30x_gpio.o
    0x080008ca   0x080008ca   0x00000002   PAD
    0x080008cc   0x080008cc   0x00000098   Code   RO           10    .text.main          main.o
    0x08000964   0x08000964   0x000000a4   Code   RO          181    .text.nvic_irq_enable  gd32f30x_misc.o
    0x08000a08   0x08000a08   0x000000d0   Code   RO          319    .text.rcu_clock_freq_get  gd32f30x_rcu.o
    0x08000ad8   0x08000ad8   0x0000001e   Code   RO          257    .text.rcu_periph_clock_enable  gd32f30x_rcu.o
    0x08000af6   0x08000af6   0x00000002   PAD
    0x08000af8   0x08000af8   0x00000020   Code   RO          267    .text.rcu_periph_reset_disable  gd32f30x_rcu.o
    0x08000b18   0x08000b18   0x0000001e   Code   RO          265    .text.rcu_periph_reset_enable  gd32f30x_rcu.o
    0x08000b36   0x08000b36   0x00000002   PAD
    0x08000b38   0x08000b38   0x0000006a   Code   RO          342    .text.usart_baudrate_set  gd32f30x_usart.o
    0x08000ba2   0x08000ba2   0x00000002   PAD
    0x08000ba4   0x08000ba4   0x00000008   Code   RO          370    .text.usart_data_receive  gd32f30x_usart.o
    0x08000bac   0x08000bac   0x00000008   Code   RO          368    .text.usart_data_transmit  gd32f30x_usart.o
    0x08000bb4   0x08000bb4   0x0000007a   Code   RO          340    .text.usart_deinit  gd32f30x_usart.o
    0x08000c2e   0x08000c2e   0x00000002   PAD
    0x08000c30   0x08000c30   0x0000000a   Code   RO          350    .text.usart_enable  gd32f30x_usart.o
    0x08000c3a   0x08000c3a   0x00000002   PAD
    0x08000c3c   0x08000c3c   0x00000010   Code   RO          428    .text.usart_flag_get  gd32f30x_usart.o
    0x08000c4c   0x08000c4c   0x00000016   Code   RO          432    .text.usart_interrupt_enable  gd32f30x_usart.o
    0x08000c62   0x08000c62   0x00000002   PAD
    0x08000c64   0x08000c64   0x00000012   Code   RO          438    .text.usart_interrupt_flag_clear  gd32f30x_usart.o
    0x08000c76   0x08000c76   0x00000002   PAD
    0x08000c78   0x08000c78   0x00000022   Code   RO          436    .text.usart_interrupt_flag_get  gd32f30x_usart.o
    0x08000c9a   0x08000c9a   0x00000002   PAD
    0x08000c9c   0x08000c9c   0x00000010   Code   RO          344    .text.usart_parity_config  gd32f30x_usart.o
    0x08000cac   0x08000cac   0x00000014   Code   RO          356    .text.usart_receive_config  gd32f30x_usart.o
    0x08000cc0   0x08000cc0   0x00000010   Code   RO          348    .text.usart_stop_bit_set  gd32f30x_usart.o
    0x08000cd0   0x08000cd0   0x00000014   Code   RO          354    .text.usart_transmit_config  gd32f30x_usart.o
    0x08000ce4   0x08000ce4   0x00000010   Code   RO          346    .text.usart_word_length_set  gd32f30x_usart.o
    0x08000cf4   0x08000cf4   0x00000020   Code   RO          521    i.__0printf$1       mc_w.l(printf1.o)
    0x08000d14   0x08000d14   0x0000000e   Code   RO          788    i.__scatterload_copy  mc_w.l(handlers.o)
    0x08000d22   0x08000d22   0x00000002   Code   RO          789    i.__scatterload_null  mc_w.l(handlers.o)
    0x08000d24   0x08000d24   0x0000000e   Code   RO          790    i.__scatterload_zeroinit  mc_w.l(handlers.o)
    0x08000d32   0x08000d32   0x00000002   PAD
    0x08000d34   0x08000d34   0x00000154   Code   RO          528    i._printf_core      mc_w.l(printf1.o)
    0x08000e88   0x08000e88   0x00000024   Code   RO          472    i.puts              mc_w.l(puts.o)
    0x08000eac   0x08000eac   0x00000008   Data   RO          331    .rodata.cst8        gd32f30x_rcu.o
    0x08000eb4   0x08000eb4   0x00000030   Data   RO           36    .rodata.g_GpioList  key_drv.o
    0x08000ee4   0x08000ee4   0x00000024   Data   RO          100    .rodata.g_ledList   led_drv.o
    0x08000f08   0x08000f08   0x00000020   Data   RO          787    Region$$Table       anon$$obj.o


    Execution Region RW_IRAM1 (Exec base: 0x20000000, Load base: 0x08000f28, Size: 0x00000490, Max: 0x00010000, ABSOLUTE)

    Exec Addr    Load Addr    Size         Type   Attr      Idx    E Section Name        Object

    0x20000000   0x08000f28   0x00000004   Data   RW          751    .data               mc_w.l(stdout.o)
    0x20000004   0x08000f2c   0x0000001c   Data   RW           71    .data.g_Usb2ComInfo  usb2com_drv.o
    0x20000020   0x08000f48   0x00000018   Data   RW           14    .data.g_taskComps   main.o
    0x20000038        -       0x00000040   Zero   RW           37    .bss.g_keyInfoList  key_drv.o
    0x20000078        -       0x00000004   Zero   RW           54    .bss.g_pTaskScheduleFunc  systick.o
    0x2000007c   0x08000f60   0x00000004   PAD
    0x20000080        -       0x00000008   Zero   RW           55    .bss.g_systemRunTime  systick.o
    0x20000088        -       0x00000004   Zero   RW           72    .bss.pProcUartData  usb2com_drv.o
    0x2000008c   0x08000f60   0x00000004   PAD
    0x20000090        -       0x00000400   Zero   RW          447    STACK               startup_gd32f30x_hd.o


==============================================================================

Image component sizes


      Code (inc. data)   RO Data    RW Data    ZI Data      Debug   Object Name

        40         24          0          0          0        571   fwdgt_app.o
        24          0          0          0          0        859   fwdgt_drv.o
       132          0          0          0          0       2504   gd32f30x_fwdgt.o
       200          0          0          0          0       5784   gd32f30x_gpio.o
       164          0          0          0          0       3548   gd32f30x_misc.o
       300         20          8          0          0      13870   gd32f30x_rcu.o
       432          0          0          0          0      11447   gd32f30x_usart.o
       156         36          0          0          0        861   hmi_app.o
       272          4         48          0         64       3110   key_drv.o
       118          0         36          0          0       2552   led_drv.o
       208         60          0         24          0       1514   main.o
        36          8        304          0       1024        864   startup_gd32f30x_hd.o
       424          0          0          0          0       2510   system_gd32f30x.o
       130          0          0          0         12       4091   systick.o
       232          0          0         28          4       3969   usb2com_drv.o

    ----------------------------------------------------------------------
      2900        152        428         52       1112      58054   Object Totals
         0          0         32          0          0          0   (incl. Generated)
        32          0          0          0          8          0   (incl. Padding)

    ----------------------------------------------------------------------

      Code (inc. data)   RO Data    RW Data    ZI Data      Debug   Library Member Name

         0          0          0          0          0          0   entry.o
         0          0          0          0          0          0   entry10a.o
         0          0          0          0          0          0   entry11a.o
         8          4          0          0          0          0   entry2.o
         4          0          0          0          0          0   entry5.o
         0          0          0          0          0          0   entry7b.o
         0          0          0          0          0          0   entry8b.o
         8          4          0          0          0          0   entry9a.o
        30          0          0          0          0          0   handlers.o
        48         10          0          0          0         68   init.o
       372         14          0          0          0        184   printf1.o
        36          6          0          0          0         80   puts.o
         0          0          0          4          0          0   stdout.o
        44          0          0          0          0         80   uidiv.o

    ----------------------------------------------------------------------
       552         38          0          4          0        412   Library Totals
         2          0          0          0          0          0   (incl. Padding)

    ----------------------------------------------------------------------

      Code (inc. data)   RO Data    RW Data    ZI Data      Debug   Library Name

       550         38          0          4          0        412   mc_w.l

    ----------------------------------------------------------------------
       552         38          0          4          0        412   Library Totals

    ----------------------------------------------------------------------

==============================================================================


      Code (inc. data)   RO Data    RW Data    ZI Data      Debug   

      3452        190        428         56       1112      58306   Grand Totals
      3452        190        428         56       1112      58306   ELF Image Totals
      3452        190        428         56          0          0   ROM Totals

==============================================================================

    Total RO  Size (Code + RO Data)                 3880 (   3.79kB)
    Total RW  Size (RW Data + ZI Data)              1168 (   1.14kB)
    Total ROM Size (Code + RO Data + RW Data)       3936 (   3.84kB)

==============================================================================

