:020000040800F2
:1000000050040020450100084D0100084F01000880
:1000100051010008530100085501000800000000CC
:100020000000000000000000000000005701000870
:1000300059010008000000005B0100087902000877
:100040005F0100085F0100085F0100085F01000810
:100050005F0100085F0100085F0100085F01000800
:100060005F0100085F0100085F0100085F010008F0
:100070005F0100085F0100085F0100085F010008E0
:100080005F0100085F0100085F0100085F010008D0
:100090005F0100085F0100085F0100085F010008C0
:1000A0005F0100085F0100085F0100085F010008B0
:1000B0005F0100085F0100085F0100085F010008A0
:1000C0005F0100085F0100085F0100085F01000890
:1000D0005F010008790400085F0100085F01000863
:1000E0005F0100085F0100085F0100085F01000870
:1000F0005F0100085F0100085F0100085F01000860
:100100005F0100085F0100085F0100085F0100084F
:100110005F0100085F0100085F0100085F0100083F
:100120005F0100085F0100085F0100085F0100082F
:10013000DFF80CD000F04AF80048004755090008E5
:10014000500400200648804706480047FEE7FEE7C7
:10015000FEE7FEE7FEE7FEE7FEE7FEE7FEE7FEE777
:1001600091020008310100082DE9F05F05460020EA
:1001700092469B4688460646814640241BE0284618
:1001800041464746224600F048F853465A46C01AB0
:10019000914110D311461846224600F02FF82D1A2F
:1001A00067EB01084F4622460120002100F026F8A7
:1001B00017EB00094E41201EA4F10104DFDC484684
:1001C00031462A464346BDE8F09F00001CB5094869
:1001D0000090094801900546009C06E0E06840F068
:1001E000010394E8070098471034AC42F6D3FFF7B8
:1001F000A3FF0000E411000804120008202A04DB19
:10020000203A00FA02F1002070479140C2F1200329
:1002100020FA03F3194390407047202A04DB203A68
:1002200021FA02F00021704721FA02F3D040C2F116
:10023000200291400843194670470000F0B581B094
:1002400041F2C0176FF00B06C0F60007BC19A08979
:1002500000F042FCD4E904451021204602222B463E
:1002600000F01CFB2046294600F014FB0C36182E2B
:10027000ECD101B0F0BD000040F23000C2F200004D
:10028000D0E90012013142F10002C0E900127047CA
:1002900081B04EF68851CEF200010A6841F2040C9A
:1002A00042F47002C4F2020C0A605CF8041C41F0D3
:1002B00001014CF8041C00BF5CF8041C8907FBD545
:1002C000DCF8001041F08001CCF800100021009112
:1002D000009A4F2A06D800BF009A01320092009A75
:1002E000502AF9D3DCF8002042F09002CCF800202C
:1002F000009100994F2905D800990131009100998A
:100300005029F9D3DCF800104FF6FF7221F00301F9
:10031000CCF800105CF8041CCFF6F66211404CF8E3
:10032000041C4FF41F01CCF804105CF8041C21F4E9
:1003300080214CF8041C0021CCF80010CCF82810C7
:100340005CF8042C42F480324CF8042C4FF6FE7218
:100350005CF8040C013A41F10003800301D4002B46
:10036000F6D15CF8040C800301D400BFFEE7DCF892
:10037000180047F2000140F08050C4F20001CCF8B0
:10038000180008684FF6FF7240F440400860DCF83F
:100390000000CBF2C372CCF80000DCF80000CCF80F
:1003A0000000DCF8000040F48060CCF80000DCF8CD
:1003B000000020F44030CCF80000DCF8000040F4ED
:1003C0004030CCF80000DCF800001040CCF8000011
:1003D000DCF8000040F0006040F45010CCF8000061
:1003E0005CF8040C40F080704CF8040C5CF8040CD1
:1003F0008001FBD5086840F4803008604868C0037D
:10040000FCD5086840F40030086000BF48688003ED
:10041000FCD5DCF8000020F00300CCF80000DCF88C
:10042000000040F00200CCF8000000BFDCF8000043
:100430000007FBD501B07047032888BF704741F221
:10044000C01100EB4000C0F6000101EB8000D0E9D4
:10045000010100F01FBA0000032888BF704741F275
:10046000C01100EB4000C0F6000101EB8000D0E9B4
:10047000010100F011BA0000B0B540F20405C2F26B
:10048000000540F204342868C0F20404214600F05C
:10049000FDFB002808BFB0BD2868214600F0ECFB3A
:1004A000286800F07FFBE86995F8221000F0D0F989
:1004B0000D2805D140F22800C2F200000121017090
:1004C000E86995F8221000F0DBF8E86995F8221049
:1004D000142200F0ADF9E86995F82210BDE8B040AB
:1004E00000F0E0B810B540F20404C2F20004A089A4
:1004F00000F0F2FAA06823691821012200F0CEF979
:10050000A06863694821012200F0C8F9A08800F0C2
:10051000E3FA206800F04EFB2068002100F0ECFBBD
:100520002068002100F0C4FB2068002100F0D2FB0D
:1005300020684FF4E13100F0FFFA2068082100F054
:10054000D1FB2068042100F0BBFB20684FF441710F
:1005500000F086FB207E0021002200F003FA2068D4
:1005600000F070FB208C00F0B7FAE06994F82210DC
:1005700000F0AAF8E06994F82210002200F042F995
:10058000E06994F8221043F60402C4F2010200F07C
:10059000EFF8E06994F8221000F0FAF8E06994F8B6
:1005A0002210002200F006F9E06994F8221040F2CF
:1005B0003802C2F2000200F0A5F8E06994F82210B7
:1005C00000F0B0F8E06994F82210002200F0BCF8C6
:1005D000E06994F82210142200F02AF9E06994F8F6
:1005E00022104FF4005200F0F9F82068402100F08A
:1005F0001FFBE06994F82210BDE8104000F052B8EB
:1006000070B540F22801C2F200010878012822D119
:1006100040F23800C2F2000002780023552A0B7025
:1006200019D14178AA2916D1451E002106222B4650
:1006300013F8016F013A81EA0601F9D182799142FA
:1006400018BF70BDC178062908D14179007919B168
:10065000FFF702FF02E070BDFFF7EEFE072606A4DB
:1006600015F8011F204600F04FFB013EF8D10A208B
:10067000BDE8704000F09ABD2530327820000000BF
:1006800040F20042C4F20202904202D1052900D396
:10069000FEE701EB810100EB8100816821F001019F
:1006A0008160704740F20042C4F20202904202D1DF
:1006B000052900D3FEE701EB810100EB8100816891
:1006C00041F001018160704740F20042C4F2020231
:1006D000904202D1052900D3FEE701EB810200EB35
:1006E00082029368890023F00103936000239360E2
:1006F000D360136153610F22436802FA01F1194379
:100700004160704740F20043C4F20203984202D1B4
:10071000052900D3FEE701EB810100EB8100426176
:100720007047000040F20042C4F20202904202D13F
:10073000052900D3FEE701EB810100EB8100816810
:1007400041F080018160704740F20043C4F202032F
:10075000984202D1052900D3FEE701EB810100EBAD
:100760008100816821F4406111438160704700007D
:1007700040F20043C4F20203984202D1052900D39B
:10078000FEE701EB810100EB810002617047000090
:1007900040F20042C4F20202904202D1052900D385
:1007A000FEE701EB810100EB8100816821F040014F
:1007B0008160704740F20043C4F20203984202D1C4
:1007C000052900D3FEE701EB810100EB8100816880
:1007D00021F44071114381607047000040F20043F2
:1007E000C4F20203984202D1052900D3FEE701EBCF
:1007F000810100EB8100816821F440511143816047
:100800007047000040F20043C4F20203984202D154
:10081000052900D3FEE701EB810100EB810081682F
:10082000002A21F0100118BF1031816070470000CC
:1008300040F20043C4F20203984202D1052900D3DA
:10084000FEE701EB810192B200EB8100C2607047CC
:1008500040F20042C4F20202904202D1052900D3C4
:10086000FEE701EB810100EB8100C06870470000EA
:10087000B0B540F20405C2F2000504462868E1B2B2
:1008800000F094F92868072100F0E2F90028F9D077
:100890002046B0BD41617047016170472DE9F047C6
:1008A000CF0601F00F0C09D5042A05D1C26B4CF01C
:1008B000030C1A43C26301E04CEA020C00F1100E73
:1008C00000F1140A00244FF001094FF00F0800272F
:1008D0000EE000BF166008FA04F225EA02020CFAE4
:1008E00004F52A4302600137082F04F104040CD0F8
:1008F00009FA07F212EA0306F5D0056828295246DC
:10090000E8D04829E7D17246E4E7082400254FF0F3
:1009100001094FF00F080FE0176008FA05F226EA08
:1009200002020CFA05F6324342600134102C05F144
:10093000040508BFBDE8F08709FA04F212EA0307CC
:10094000F3D0466828295246E6D04829E5D17246B8
:10095000E2E70000FFF772FCFFF7C4FDFFF750FE6F
:10096000FCE700004EF60C5CCEF2000CDCF8003028
:1009700003F4E063B3F5E06F01D1042328E0DCF871
:10098000003003F4E063B3F5C06F01D103231FE02F
:10099000DCF8003003F4E063B3F5A06F17D0DCF8A7
:1009A000003003F4E063B3F5806F01D101230FE061
:1009B000DCF8003003F4E063B3F5407F01D100239D
:1009C00006E040F20053C0F2FA53CCF800300223A4
:1009D00001FA03FCC3F104030F21D94011404EF288
:1009E000001241EA0C01CEF20002090140EA0203C2
:1009F00083F8001300F01F01012303FA01F11C2307
:100A000003EAD0008150704710B541F20404C4F2EB
:100A10000204216801F00C01082941F20021C0F212
:100A20007A012BD12368DB0304D440F6001CC0F20A
:100A30003D0C0DE0A36AD4F800C05B0046F600430D
:100A4000C0F2DC2358BF0B46CCF3404123FA01FC33
:100A500023682168C3F3834E102303EAD15123682E
:100A60008E44202101EA536171440B463F2918BF8F
:100A700001330F2938BF8B1C03FB0CF1236812A232
:100A8000C3F30313D35C226841F2B81CC2F3022201
:100A9000C0F6000C1CF802E02268032807D821FAEF
:100AA00003F3DFE800F00F020609184610BD00202E
:100AB00010BD23FA0EF010BDC2F3C2201CF80000D6
:100AC00023FA00F1084610BD0000000000000000FD
:100AD000010203040607080941F2000300F01F01A8
:100AE0008009C4F202034FF0010CC2580CFA01F164
:100AF0001143C1507047000041F2000300F01F0194
:100B00008009C4F202034FF0010CC2580CFA01F143
:100B100022EA0101C150704741F2000300F01F01B9
:100B20008009C4F202034FF0010CC2580CFA01F123
:100B30001143C15070470000B0B5044644F6FF3081
:100B4000C4F200000D4684424FF0000013DD44F66D
:100B50000041C4F200018C4219D045F20001C4F2F8
:100B600000018C4213D043F60001C4F201018C4213
:100B700010D103200CE044F20041C4F200018C4289
:100B800005D044F60001C4F200018C4202D10220DB
:100B9000FFF73AFF00EB5500B0FBF5F080B2A06024
:100BA000B0BD000040686FF35F2070476FF35F21B6
:100BB0004160704710B544F6FF31C4F2000188422D
:100BC00015DD44F60041C4F2000188421ED045F212
:100BD0000001C4F2000188421BD043F60001C4F2B8
:100BE0000101884218BF10BD40F20E3416E044F2F5
:100BF0000041C4F2000188420ED044F60001C4F264
:100C00000001884212D140F2124407E040F213443E
:100C100004E040F2144401E040F211442046FFF7A2
:100C20007BFF2046BDE81040FFF766BF10BD000007
:100C3000426901F0400122F04002426142691143E1
:100C400041617047C16841F40051C16070470000C4
:100C50008A09105801F01F01C84000F001007047D8
:100C600001F01F0289094FF0010C0B580CFA02F237
:100C70001A430A5070470000C1F30442012303FAEB
:100C800002F2D243890D0A5070470000C1F3891265
:100C900052F800C08A0D105801F01F03C1F304413F
:100CA000C8402CFA03F1084000F001007047000032
:100CB000C26822F4C062C260C2681143C16070475A
:100CC000C26801F0040122F00402C260C26811434C
:100CD000C1607047026922F4405202610269114307
:100CE00001617047C26801F0080122F00802C26089
:100CF000C2681143C1607047C26822F48052C2606A
:100D0000C2681143C16070470FB4054B10B503A909
:100D1000044A029800F018F810BC5DF814FB0000BB
:100D2000710800080000002002E008C8121F08C176
:100D3000002AFAD170477047002001E001C1121F5C
:100D4000002AFBD1704700002DE9FF4F8DB00F4600
:100D50000546002606E025280BD0DDE90F12904756
:100D60006D1C761C28780028F5D111B03046BDE8FE
:100D7000F08F0024A246A1460122EC4900E0044382
:100D800015F8013F203B02FA03F00842F7D128781A
:100D90002A2810D06FF02F022878A0F130010929FD
:100DA00014D80AEB8A0102EB410144F0020400EB83
:100DB000010A6D1CF0E701CF5FEA000A03D544F495
:100DC0000054CAF1000A44F002046D1C28782E2851
:100DD00017D115F8010F44F004042A280ED06FF043
:100DE0002F022878A0F1300109290AD809EB8901DE
:100DF00002EB410100EB01096D1CF2E757F8049B7F
:100E00006D1C28786C280FD006DC4C2817D0682879
:100E10000DD06A2814D104E0742810D07A280FD19C
:100E20000DE044F400140AE044F4801401E044F4BA
:100E300040146978814202D104F580146D1C6D1C48
:100E40002A786E2A1FD00CDC632A31D004DC002AF9
:100E50008BD0582A11D1A3E0642A68D0692A0CD11A
:100E600065E0732A2ED004DC6F2A73D0702A04D177
:100E70009BE0752A6FD0782A6ED01046DDE90F12FC
:100E80009047761C50E1C4F30250022806D0032894
:100E900009D0042801CF09D0066045E101CFF11740
:100EA000C0E9006140E101CF06803DE106703BE111
:100EB00017F8040B8DF8000000208DF80100EB46B8
:100EC000012003E057F804BB4FF0FF3061074FF0FB
:100ED000000102D40DE008F10101884649450FDA0E
:100EE0008045F8DB1BF808100029F4D108E008F170
:100EF000010188468142FADB1BF808100029F6D16F
:100F0000DDE90F23AAEB08008146214600F036F9FF
:100F1000304400EB080604E0DDE90F121BF8010B7A
:100F20009047B8F10108F7D221464846F7E00A2178
:100F3000C4F302534FF0000B0891022B04D001CFF1
:100F4000C117032B09D00AE0FF1D27F00707F7E8B8
:100F5000020108E032E01FE020E000B2C117042BDC
:100F600001D140B2C117031E71F1000307DA4FF03F
:100F7000000CD0EB0C006CEB01012D2302E02305EB
:100F800004D52B238DF82430012303E0E30701D09F
:100F90002023F7E7984658E00A2110E010210EE0E0
:100FA00010204FF0000B08900CE010214FF0000BC8
:100FB00044F004044FF00809089103E008214FF0C1
:100FC000000B0891C4F30253022B04D001CF00217F
:100FD000032B06D006E0FF1D27F00707F7E8020104
:100FE00003E080B2042B00D1C0B24FF00008230709
:100FF0002BD5702A07D0DDF820C08CF0100C5CEAED
:101000000B0C05D00EE040238DF82430012308E0BE
:1010100050EA010306D030238DF824308DF82520C6
:1010200002239846DDF820C08CF0080C5CEA0B0C1B
:101030000BD150EA010301D1630706D530238DF8A7
:1010400024304FF00108A9F10109582A04D038A230
:101050000B9208AA0A920BE03AA2F9E75B46089ABB
:10106000FFF782F80B9B9B5C0A9A521E0A92137040
:1010700050EA0102F2D10A98ADEB000000F1200B1A
:10108000600702D524F4803401E04FF00109D9450E
:1010900002DDA9EB0B0000E0002000EB0B01414456
:1010A0000890AAEB010AE00306D4DDE90F232146EC
:1010B000504600F063F806444FF0000908E009A923
:1010C00011F80900DDE90F12904709F10109761CBA
:1010D000C145F4DBE0030CD5DDE90F232146504682
:1010E00000F04CF8064404E0DDE90F123020904790
:1010F000761C0899481E08900029F5DC08E00A983B
:101100000A990078491C0A91DDE90F129047761C74
:10111000BBF10001ABF1010BF1DC21465046DDE9EA
:101120000F2300F019F806446D1C1BE60928010086
:10113000303132333435363738396162636465664D
:10114000000000003031323334353637383941420F
:1011500043444546000000002DE9F04104460025C7
:101160001E461746880404D405E039462020B047BF
:101170006D1C641EF9D52846BDE8F0812DE9F041CB
:10118000044600251E469046C80301D5302700E0DE
:101190002027880404D505E041463846B0476D1C39
:1011A000641EF9D52846BDE8F08100000149FFF72B
:1011B0005FBB0000000000200000000001020304EB
:1011C00002060000000801400001000006060000C1
:1011D000001801404000000007060000001C01400C
:1011E0004000000008120008000000202800000055
:1011F000280D0008301200082800002028040000F4
:10120000380D000800000000000000000038014018
:101210000E06000000080140020600000002000067
:10122000000400002500000000000240000504004A
:0400000508000131BD
:00000001FF
