:020000040800F2
:100000009008002049010008510100085301000830
:1000100055010008570100085901000800000000C0
:100020000000000000000000000000005B0100086C
:100030005D010008000000005F010008090D0008D4
:100040006301000863010008630100086301000800
:1000500063010008630100086301000863010008F0
:1000600063010008630100086301000863010008E0
:1000700063010008630100086301000863010008D0
:1000800063010008630100086301000863010008C0
:1000900063010008630100086301000863010008B0
:1000A00063010008630100086301000863010008A0
:1000B0006301000863010008630100086301000890
:1000C0006301000863010008630100086301000880
:1000D000630100087D0F0008630100086301000848
:1000E0006301000863010008630100086301000860
:1000F0006301000863010008630100086301000850
:100100006301000863010008ED0D000863010008A9
:10011000630100086301000863010008630100082F
:10012000630100086301000863010008630100081F
:10013000DFF810D000F09EFA00480047FB1C0008D2
:10014000AFF300809008002006488047064800472B
:10015000FEE7FEE7FEE7FEE7FEE7FEE7FEE7FEE777
:10016000FEE7FEE7290D0008310100082DE9FE43F6
:10017000994615468846074601AC022942D3002D10
:1001800040D000200290A8F101004FF0FF3600900F
:1001900022E000FB057201FB057011464A469047BC
:1001A000002805DC54F82600304444F8260013E00B
:1001B00060682A4600FB057154F8040C00FB0570CA
:1001C00007E00B7890F800C001F801CB00F8013B84
:1001D000521E002AF5D1764254F8040C6168884218
:1001E000D7DC4B462A463846FFF7C0FF54F8040CCC
:1001F0004B46A8EB0001401C00FB05702A46491E37
:10020000FFF7B4FFBDE8FE8340EA01039B0703D07C
:1002100009E008C9121F08C0042AFAD203E011F845
:10022000013B00F8013B521EF9D27047D2B201E007
:1002300000F8012B491EFBD270470022F6E710B5EB
:1002400013460A4604461946FFF7F0FF204610BD44
:1002500000F0004230F000400AD0C10D01F560719D
:10026000C0F3160042EA0151C2084007114370472B
:1002700000200146704730B50B4601460020202281
:10028000012409E021FA02F59D4205D303FA02F5A3
:10029000491B04FA02F52844151EA2F10102F1DC03
:1002A00030BD2DE9F05F0546002092469B4688460A
:1002B0000646814640241BE02846414647462246E2
:1002C00000F0F9F953465A46C01A914110D311462D
:1002D0001846224600F0E0F92D1A67EB01084F4658
:1002E00022460120002100F0D7F917EB00094E410A
:1002F000201EA4F10104DFDC484631462A4643466D
:10030000BDE8F09F2DE9FE4F804681EA0300C00F53
:100310000C46009021F0004123F00045B8EB0200AC
:10032000A94105D24046214690461C460B4602464E
:1003300023F00040104347D0270DC7F30A00C3F352
:100340000A510290401A019040286BDAC3F313005F
:1003500040F4801B0098924620B10023D2EB030AA0
:1003600063EB0B0B01985946C0F14002504600F078
:1003700093F906460D4650465946019A00F0ABF9EE
:1003800010EB08006141002487EA115284EAE77308
:100390001A4340D0009A62B3019A012A4FEA0752E9
:1003A00015DC001B61EB02014FF0004202EA07522C
:1003B000CDE90042001C41F5801132462B4600F089
:1003C000ABF903B0BDE8F08F40462146F9E7001BCA
:1003D00061EB0201001C41F5801300185B412018FD
:1003E000A2F5001747EB030140EAD570B6196D413D
:1003F00011E06D084FEA360645EAC0754FEA07522C
:10040000001B61EB0201001C41F5801149084FEA15
:1004100030000019514132462B4603B0BDE8F04F81
:1004200000F06BB90098012240000023D0EB0202DB
:1004300063EBE073009821464FEAE074B8EB0000EC
:1004400061EB0401E9E783F000435BE781F00041E1
:1004500058E72DE9FE4F81EA030404F0004421F03F
:10046000004100944FF0000B23F0004350EA0104D8
:100470005ED052EA03045BD0C3F30A54C1F30A55B9
:100480002C44A4F2F3340194A0FB0254C1F31301F1
:1004900041F48011C3F3130343F4801301FB0244BE
:1004A00000FB034E840A970A44EA815447EA8357C3
:1004B000A4FB076802958D0A05FB07854FEA932C7C
:1004C00004FB0C542705029D4FEA065847EA1637ED
:1004D000B5EB08056EEB070C870E920E47EA811705
:1004E00042EA8312A7FB0201B6EB0B0164EB0004A6
:1004F0002B0D43EA0C335E1844EB1C50DA46514690
:10050000E7FB0201C5F313044FEA0B3343EA14532C
:100510004FEA0432019C43EA0603A4F10C0402945E
:10052000009CCDE900B400F0F7F803B0BDE8F08F0F
:1005300000200146F9E72DE9F04D81EA030404F0BB
:10054000004B21F0004514464FF0000A23F0004113
:1005500050EA050220D054EA01021DD0C5F30A5723
:100560000246C5F31303C1F31300C1F30A5640F466
:10057000801543F48013A7EB0608101BD64608F23B
:10058000FD3873EB050002D308F1010801E0921871
:100590005B41B8F1000F03DA00200146BDE8F08DA1
:1005A00000204FF48011064684460EE0171B73EBC3
:1005B000050705D3121B63EB050306434CEA010C48
:1005C00049084FEA300092185B4150EA0107EDD12B
:1005D00052EA030012D082EA040083EA05010843CC
:1005E00005D0101BAB4106D20122002306E00022F9
:1005F0004FF0004302E06FF0010253101AEB0600C7
:100600004CEB085110EB0A0041EB0B01BDE8F04D3B
:1006100000F073B8C1F30A52C1F3130140F2FF3383
:1006200041F480119A4202DA00200146704740F2FC
:1006300033439A42A2F2334202DC524200F03BB80A
:1006400000F02AB830B5041E71F1000404DB4FF04D
:100650000044404264EB0101141E73F1000405DB09
:100660001C464FF00043524263EB0403994208BF1B
:10067000904230BD064C074D06E0E06840F00103B3
:1006800094E8070098471034AC42F6D3FFF754FDC6
:10069000BC260008DC260008202A04DB203A00FAE9
:1006A00002F1002070479140C2F1200320FA03F3C9
:1006B000194390407047202A04DB203A21FA02F0C7
:1006C0000021704721FA02F3D040C2F1200291408C
:1006D000084319467047202A06DBCB17203A41FA17
:1006E00002F043EAE07306E041FA02F3D040C2F1BF
:1006F0002002914008431946704710B5141E73F14B
:10070000000408DA401C41F1000192185B411A43D1
:1007100001D120F0010010BD2DE9F04D92469B461D
:1007200011B1B1FA81F202E0B0FA80F220329046C3
:10073000FFF7B2FF04460F4640EA0A0041EA0B0108
:1007400053465A46084313D0114653EA010019D0C4
:10075000C8F140025046FFF7AEFF05460E46504630
:1007600059464246FFF798FF084305D0012004E0B0
:1007700020463946BDE8F08D0020054346EAE07684
:100780002C4337430A986305E40AA0EB08000022D3
:10079000FD0A44EA47540A3002D500200146E9E741
:1007A000010510196941DDE9084500196941BDE8F5
:1007B000F04DA2E770B504460D462A4612212046A8
:1007C00000F0C4F880B134F81010401E34F8103036
:1007D00000EB8000CA1AE91A01EB810191FBF2F1EA
:1007E00008440A30C0B270BD0A2070BD10B504467E
:1007F000224664210B4800F0DBF888B1094A411E0B
:1008000032F8113032F8100001EB81011A1A181B6E
:1008100000EB8000400090FBF2F000EB410010BDC7
:10082000002010BD2024000810B540F2096001F03E
:10083000A1FB022001F0F6FA204C204601F0AAF8B4
:100840000021204601F082F9002001F011F9012277
:100850000221204601F090F90021204601F08DF898
:1008600001221146204601F06BF807230D220021DA
:10087000204601F029F94FF460220121204601F0C1
:10088000D9F801221146204601F0B8F80C23802245
:100890000021204601F0F8F8204601F00FF920462B
:1008A00001F0A4F8142000F06FF8204601F039F8A8
:1008B0002046BDE81040012101F051B9002401405B
:1008C00010B540F20A6001F055FB022001F0AAFACF
:1008D0001A4C204601F05EF80021204601F036F95E
:1008E000002001F0C5F800220221204601F044F961
:1008F0000021204601F041F801221146204601F076
:100900001FF806230E220021204601F0DDF84FF4E7
:1009100060220121204601F08DF801221146204677
:1009200001F06CF8204601F061F8142000F02CF87A
:100930002046BDE8104000F0F4BF00000028014050
:10094000014800F0AFBA0000710E000870B506460D
:100950000023491E4CB200200FE0E51A05EBD571CB
:1009600003EB610149B236F81150954202D2491C9D
:100970004BB202E0481E44B20846A342EDDD70BD12
:1009800000880988401A704770B50646064C6568AD
:10099000012001F071FA0549B0FBF1F17143606883
:1009A000401B8842FBD370BD001000E040420F00A6
:1009B00070B506460023491E4CB200200FE0E51A30
:1009C00005EBD57103EB610149B236F81150954240
:1009D00002D9491C4BB202E0481E44B20846A34269
:1009E000EDDD70BD10B500F009F800F0DFF900F0A2
:1009F000E1FABDE8104000F071B900000A48016852
:100A000021F080710160016841F080710160074848
:100A1000016821F001010160016841F001010160FC
:100A20000021416070470000FCED00E0001000E094
:100A300010B50D4C0121204601F058F980B100227B
:100A40000121204601F0FAF80221204601F04EF97A
:100A500040B100222046BDE81040022101F0EEB86E
:100A60000122EDE70122F5E7000C0140F0B4052377
:100A7000B1FBF3F4B1FBF3F203FB1212154E002AA3
:100A800020D00022651C05EBC50504EBC40406EB71
:100A9000850506EB8407B1FBF3F403FB141635F868
:100AA00012C037F81240ACEB040C06FB0CF696FBB8
:100AB000F3F6344420F81240521CD2B2122AEAD380
:100AC000F0BC704704EBC40106EB8101F0BC2422AA
:100AD000FFF79ABBE824000870B5084C02212046B5
:100AE00000F0BFFF0028F9D0204601F02CF80546A1
:100AF0000221204600F0B2FF284670BD00240140CC
:100B000070B5084C0221204600F0ABFF0028F9D058
:100B1000204601F018F805460221204600F09EFF0D
:100B2000284670BD00280140014800787047000049
:100B30005000002010B5044600F006F884ED010ACC
:100B4000FFF7F2FF207010BD014890ED010A7047D9
:100B50004800002010B540F2046001F00BFA0823B1
:100B60000122BDE810400021014801F06DB80000ED
:100B70000010014010B540F2046001F0FBF91023B1
:100B8000012200210F4801F05FF840F2036001F0FC
:100B9000F1F90D4C01231A461021204601F054F8BA
:100BA000022301221021204601F04EF801221146B5
:100BB000204601F043F820460022BDE81040022103
:100BC00001F03CB800100140000C014038B508208D
:100BD00001F09AF804462046FFF7ACFF6068FFF783
:100BE00037FB41EC100B2078009053EC102B04A045
:100BF00000F032FA2046BDE8384000F0F7BF0000B0
:100C000074656D7065726174757265203D20252E66
:100C1000316620A1E62C2068756D696469747920BD
:100C20003D20256425252E0A0000000010B5FFF7A1
:100C3000A1FFFFF745FEBDE810404FF47A7000F0C9
:100C400073B9000010B58AB004463C2C00D93C248E
:100C5000242101A8FFF7F1FA214601A8FFF706FFBA
:100C6000034C01A8A188FFF7A5FD20700AB010BDB4
:100C70005000002010B50023002204E050F822406C
:100C80002344521CD2B28A42F8D393FBF1F010BD38
:100C900070B505460C46064B042221462846FFF750
:100CA00065FAA41EE1B2281DBDE87040FFF7E2BF5F
:100CB00081090008074A064B117843F82100491CB6
:100CC000C8B20A21B0FBF1F301FB130010707047AA
:100CD000640000204800002000F007B810B500F0C4
:100CE000E7F8BDE81040FFF7A1BF10B500F0E8F845
:100CF000FFF72AFFBCEEC00ABDE8104010EE100A54
:100D0000C0B2FFF79FBF000006488168C268491C57
:100D100042F100028160C2600068002800D00047F4
:100D2000704700001800002082B01D48016841F49F
:100D3000700101601B48016841F001010160016818
:100D40008907FCD5416841F0800141600022019291
:100D500002E00199491C019101995029F9D3416898
:100D600041F090014160019202E00199491C01911A
:100D700001995029F9D3416821F0030141600168CC
:100D8000094B194001604FF41F018160016821F493
:100D9000802101604260C26202B001F073B90000BC
:100DA00088ED00E000100240FFFFF6FE10B50120C4
:100DB00001F062F84FF47A71B0FBF1F0401EB0F12F
:100DC000807F01D301200AE04FF0E0214861064A0C
:100DD000F0201070002088610720086100200028A2
:100DE00000D0FEE710BD000023ED00E010B5124C6E
:100DF0000121204601F00DFA00281BD001212046D8
:100E000001F004FA0D4C6088401C6080C00701D1DD
:100E1000FFF70EFE60884FF4C871B0FBF1F201FBE2
:100E20001200012806D10121054800F098FEFFF7C5
:100E300067FEA08010BD0000000C004050000020A4
:100E40000028014070B50024084D002604EB440042
:100E500015F8201029B105F8206005EB80008068A6
:100E60008047641CE4B2022CF0D370BD0000002067
:100E700010B500200A4C00EB400304EB83014A88C4
:100E800042B1521E92B24A8022B9012204F82320B4
:100E90008A884A80401CC0B20228ECD310BD0000F2
:100EA0000000002001490860704700001800002081
:100EB00010B5FFF74FFEBDE81040FFF7B5BC0000CE
:100EC00010B52DED028BFFF707FEFFF78FFC00B288
:100ED000FFF7F0FE124C6078401CC0B26070B2EEBA
:100EE000048A03280BD20F4890ED000AB8EEC00A1E
:100EF000C0EE080AC4ED010ABDEC028B10BD0A2841
:100F000001D90A20607061780648FFF7C1FE00EE43
:100F1000100AB8EEC00AC0EE080AC4ED010AEBE7F9
:100F200048000020640000207FB5044640F20370B2
:100F300001F020F8104D284601F0A6F8684601F0AF
:100F400072F97720ADF800000020ADF80200ADF88E
:100F50000400641E02946946284601F009F9012143
:100F6000284601F04FF900221146322000F002FF1E
:100F7000284601F0F7F87FBD000C004070B50B4C1F
:100F80000B4D2946206801F006FA00280CD02946AE
:100F9000206801F0F7F9206801F088F9C0B2211F3C
:100FA0000968BDE87040084770BD00002C000020B3
:100FB0000503050010B500F007F8BDE810404FF438
:100FC000E13000F017B8000010B5094CA08900F01E
:100FD000D1FF012218212369A06800F035FE636962
:100FE000A0680122BDE81040482100F02DBE00009D
:100FF0002C00002070B50546164CA08800F0BAFF02
:10100000206801F05BF90021206801F001FA00215D
:10101000206801F0D9F90021206801F0E7F929469C
:10102000206801F00BF90821206801F0E7F904219C
:10103000206801F0D1F940F20531206801F098F9FB
:101040000022207E114600F095FE2068BDE8704029
:1010500001F07CB92C0000200FB4054B10B503A99A
:10106000044A029800F0DAF810BC5DF814FB0000A6
:10107000C91B00085800002002E008C8121F08C160
:10108000002AFAD170477047002001E001C1121F09
:10109000002AFBD1704700002DE9FF5F82B00021DC
:1010A000DDE90430020DDDF840B0034318D044F60A
:1010B0001050A2F2FF3242431514119801281FD09C
:1010C000A5EB0B00401C5FEA000A4FF000064E4FF4
:1010D000DFF83891B046504615D5CAF1000413E048
:1010E000119801244AA3012801D16FEA0B0102984B
:1010F000119AC0E90031C0E9024206B0BDE8F09F94
:10110000CBF10000DFE704460021404A491842EBDA
:101110000450CDE9001012E0E00707D032463B460C
:1011200040464946FFF795F98046894632463B4698
:1011300010461946FFF78DF906460F466410002C3D
:10114000EAD1DDE90401DDE90023BAF1000F06DA96
:10115000FFF77FF942464B46FFF77BF905E0FFF7C3
:10116000EAF942464B46FFF7E6F904460E460022EE
:10117000284BFFF767FA03D84FF0FF30014607E02E
:101180000022254B20463146FFF7BCF8FFF742FA14
:10119000102409E0002C0ADB0A220023FFF781F863
:1011A000039B30321A55641E50EA0102F2D1641CCE
:1011B000039AC4F111031444119A012A03D00122A5
:1011C00008430DD10AE0084304D000204FF0110B72
:1011D000119072E7A3EB0B056D1E0DE05B4504DD7E
:1011E0004FF0000205F1010504E003DA4FF00002C0
:1011F000A5F10105002AECD002981199C0E902314D
:10120000C0E9004579E70000000014400000F03F0D
:10121000300000000000F0430000E03F2DE9FF4FE8
:1012200095B09A46884606460025EEE1252877D1F6
:1012300000242746F94A0121039400E0044316F8EC
:10124000013F203B01FA03F01042F7D130782A2801
:1012500011D06FF02F033078A0F13002092A16D890
:10126000039A44F0020402EB820203EB42021044B0
:10127000761C0390EFE758F8042B0392002A03DA58
:10128000504244F40054039044F00204761C307839
:101290002E2816D116F8010F44F004042A280DD088
:1012A0006FF02F023078A0F13003092B09D807EB3B
:1012B000870302EB4303C718761CF3E758F8047B57
:1012C000761C30786C280FD006DC4C2817D06828A4
:1012D0000DD06A2814D104E0742810D07A280FD1D8
:1012E0000DE044F400140AE044F4801401E044F4F6
:1012F00040147278824202D104F58014761C761C68
:10130000307866280BD013DC582877D009DC002809
:1013100075D04528F6D04628F4D047281AD193E155
:1013200018E0632835D0642879D0652812D18BE184
:10133000702873D008DC6728F1D069286FD06E2838
:101340000DD06F2806D1ACE073282CD0752874D04E
:10135000782853D05246179990476D1C54E1C4F336
:101360000250022809D003280DD0D8F80010042814
:101370000DD00D6008F1040846E1D8F80010EA1716
:10138000C1E90052F6E7D8F800100D80F2E70D70C1
:10139000F0E718F8041B8DF8001000208DF801000C
:1013A000EB46012003E058F804BB4FF0FF30610723
:1013B0004FF0000102D40DE009F101018946B94264
:1013C0000FDA8145F8DB1BF809100029F4D108E099
:1013D00009F1010189468142FADB1BF80910002955
:1013E000F6D103985346A0EB090721463846179AD1
:1013F00000F080FA284400EB090507E044E008E12A
:101400000DE01BF8010B524617999047B9F10109FD
:10141000F7D2534621463846179AF2E039E00A21BE
:10142000C4F302524FF0000B0091022A06D058F884
:10143000040BC117032A09D00AE023E008F10700D2
:1014400020F00702F2E80201904605E000B2C11761
:10145000042A01D140B2C117002906DA0A46002148
:10146000404261EB02012D2202E0220504D52B222D
:101470008DF80420012203E0E20701D02022F7E7E3
:10148000914657E00A2100E010214FF0000B009137
:101490000BE010214FF0000B44F0040408270091EA
:1014A00003E008204FF0000B0090C4F30252022A20
:1014B00005D058F8040B0021032A08D008E008F1F1
:1014C000070020F00702F2E80201904603E080B234
:1014D000042A00D1C0B24FF0000922072AD5327881
:1014E000702A07D0DDF800C08CF0100C5CEA0B0C01
:1014F00005D00EE040228DF80420012208E050EAD9
:10150000010306D030238DF804308DF80520022227
:101510009146009B83F0080353EA0B030AD150EA7B
:10152000010201D1620705D530228DF804204FF069
:1015300001097F1E3278582A04D039A20C920CAAD5
:1015400002920BE03BA2F9E75B46009AFEF7A9FE88
:101550000C9B9B5C029A521E0292137050EA01028D
:10156000F2D1029804A9081A00F1200B600702D5F5
:1015700024F4803400E001275F4502DDA7EB0B0077
:1015800000E0002000EB0B01009003984944401A52
:101590000390E00306D453462146179A039800F0BF
:1015A000A9F90544002706E001A85246C05D179935
:1015B00090476D1C7F1C4F45F6DBE0030CD553466E
:1015C0002146179A039800F095F9054404E030206D
:1015D0005246179990476D1C0099481E00900029AB
:1015E000F5DC08E00298029952460078491C029105
:1015F000179990476D1CBBF10001ABF1010BF1DCB9
:101600005BE100F065F90544761C307800287FF432
:101610000DAE19B02846BDE8F08F00000928010082
:101620003031323334353637383961626364656658
:10163000000000003031323334353637383941421A
:101640004344454600000000600700D4062708F127
:10165000070020F00700F0E80223804603F0004C6A
:101660005FEA0C0001D097A009E0200501D596A003
:1016700005E0E00701D095A001E0AFF24C00139027
:10168000307823F0004365280CD006DC452809D0CB
:1016900046281DD047287FD13BE0662818D0672810
:1016A0007AD136E00021112F01DB112000E0781CF7
:1016B000CDE9000104A90CA8FFF7EEFCDDE90D015E
:1016C0000C9A4FF0000B07F10109109200914EE0C7
:1016D0004FF000400097CDE9011004A90CA8FFF7D6
:1016E000DBFCDDE90D020C9B0F994FF0000B9146DE
:1016F0001093009211B9791C00EB0109B7EB0900B6
:1017000003D4C0F1FF3B07F10109A9EB07000190E9
:1017100042E0012F00DA01270021112F01DD112005
:1017200000E03846CDE9000104A90CA8FFF7B4FC9D
:10173000DDE90D010C9A00914FF0000BB9461092B3
:1017400021070FD4009A4A4503DA914601E0A9F136
:101750000109B9F1010F05DD109AA9F10101515CF0
:101760003029F4D0B84202DA10F1040F03DA012173
:10177000CDE9011010E0002803DC8344A9EB00014F
:1017800002E0411C494500DD8946A0EB0B00401CEE
:1017900001904FF000400290200705D40198484581
:1017A00002DB4FF0FF30019000208DF84B000298D3
:1017B0000DF14B07B0F1004F25D002200C902B20EB
:1017C0000D90029800280CDA404202902D200D90D6
:1017D00007E00A210298FEF74EFD3031029007F82B
:1017E000011D0C99481E0C900029F2DC029800287B
:1017F000EFD1791E0D980870307800F0200040F08D
:10180000450007F8020D11A8C01BC01D02901398D7
:10181000007800B1012000EB0901019801EBE071B3
:10182000029801440398401A401E0390E00306D436
:1018300053462146179A039800F05CF80544139824
:10184000007818B15246179990476D1CE00323D5D4
:1018500053462146179A039800F04CF805441BE0C4
:10186000BBF1000F07DB0098584504DD109817996D
:1018700010F80B0001E0179930205246904701986C
:101880000BF1010B401E05F10105019004D12E2042
:101890005246179990476D1CB9F10001A9F1010951
:1018A000DEDC05E017F8010B5246179990476D1CD6
:1018B0000299481E02900029F4DC53462146179AEB
:1018C00003989EE62D0000002B0000002000000081
:1018D0002DE9F041044600251E461746880404D42D
:1018E00005E039462020B0476D1C641EF9D5284616
:1018F000BDE8F0812DE9F041044600251E469046E2
:10190000C80301D5302700E02027880404D505E06E
:1019100041463846B0476D1C641EF9D52846BDE8DF
:10192000F081816841F00801816081680907FCD479
:10193000816841F00401816081684907FCD47047E7
:10194000521E01290DD002290AD1816B21F44011C8
:101950008163816B4FF4401303EA025211438163A8
:101960007047C16A21F47001C162C16A4FF470030B
:1019700003EA02521143C1627047002904D0816812
:1019800041F4006181607047816821F400618160E9
:101990007047000010B5144940180FD0B0F5806FA3
:1019A00016D0B0F5C05F1DD140F20F34204600F0D4
:1019B000FDFA2046BDE8104000F0EABA40F20934D2
:1019C000204600F0F3FA2046BDE8104000F0E0BAEF
:1019D00040F20A34204600F0E9FA2046BDE8104003
:1019E00000F0D6BA10BD000000DCFEBF8168C90758
:1019F00003D1816841F0010181607047002A0CD059
:101A0000CA0703D0826842F480128260890703D536
:101A1000816841F4004181607047CA0703D0826841
:101A200022F4801282608907F6D5816821F4004192
:101A300081607047012909D0022906D1816821F40B
:101A4000E04181608168114381607047816821F4C1
:101A5000602181608168114381607047C9430160E2
:101A600070470246002012680A4200D001207047E9
:101A700004490A6822F470220A600A6802430A6074
:101A80007047000004240140B1F5007F0FD0D0F86A
:101A9000801021F40071C0F8801050F8801F21F4EC
:101AA000FE71016001681A43114301607047D0F86C
:101AB000801041F40071C0F88010EEE750F8801FEC
:101AC00041F001010160704730B51F24062909D299
:101AD000456B01EB81018C40A54302FA01F42C43D4
:101AE000446318E00C290AD2056B891F01EB8101C0
:101AF0008C40A54302FA01F42C4304630BE0102947
:101B000009D2C56A0C3901EB81018C40A54302FA68
:101B100001F42C43C46207250A2A08D2046902EBA7
:101B200042018D40AC438B402343036130BD122AF8
:101B3000FCD2C4680A3A02EB42018D40AC438B40B0
:101B40002343C36030BDC06C80B2704750F8802F13
:101B500022F44052026002680A4302607047CA07DA
:101B600003D0826842F480028260890703D58168CD
:101B700041F4001181607047002A12D0CA0503D5D4
:101B8000426842F4807242604A0503D5426842F4DA
:101B900080624260890703D5816841F0020181605B
:101BA0007047CA0503D5426822F4807242604A0534
:101BB00003D5426822F4806242608907F0D58168CB
:101BC00021F002018160704770B50546064CE9B20C
:101BD000206800F06FFB0721206800F0BCFB0028A4
:101BE000F9D0284670BD00002C00002010B5002858
:101BF00021D0114B0022001F196803E0814203D855
:101C00000A4649680029F9D152B11368841A9C42E6
:101C100004D1006818441060104602E0506000E0F3
:101C2000186039B102680B1A934203D10B681A4449
:101C300002604968416010BD5C000020002A01D0AC
:101C400001617047416170472DE9F04301F00F04D5
:101C5000CD0602D5042A18D0144300224FF00F0CF1
:101C6000012707FA02F51D401AD0D0F8009096001F
:101C70000CFA06F829EA080904FA06F848EA0908FD
:101C8000282908D0482908D008E044F00304C26B92
:101C90001A43C263E1E7456100E00561C0F80080D6
:101CA000521C92B2082ADCD3082207FA02F51D4022
:101CB00016D0D0F80490A2F10806B6000CFA06F887
:101CC00029EA080904FA06F848EA0908282902D08E
:101CD000482902D002E0456100E00561C0F80480B7
:101CE000521C92B2102AE0D3BDE8F083C0680842CB
:101CF00001D00120704700207047FEF773FEFEF709
:101D00001FFEFFF79FF8FCE7F0B50B30154D20F0F4
:101D100007010024144A0FE003688B420BD38B4267
:101D200005D95E1A43184768C3E9006700E04368B5
:101D3000136002C004E0021D10680028ECD12046A8
:101D4000002802D1286808B10020F0BD064A0748E3
:101D50001060074A121A22F00702C0E9002401208D
:101D60002860D7E7600000205C000020940000207D
:101D70009004002070B505460E4600230024234839
:101D80000168C1F30221072932D00168C1F30221A1
:101D900006292FD00168C1F3022105292DD0016841
:101DA000C1F3022104292BD00068C0F302200328CC
:101DB00029D04FF4A06000F02BF802230224C3F1D5
:101DC00004008640C4F104010F20C8401040304395
:101DD000000105F1E02181F8000405F01F01012058
:101DE00088406909890001F1E021C1F8000170BD56
:101DF0000424E4E701230324E1E702230224DEE7CD
:101E000003230124DBE70423D9E700000CED00E005
:101E10000249084302490860704700000000FA05C3
:101E20000CED00E010B5124B5968124A1140DA6A05
:101E300022F000520C2817D2DFE800F00606060652
:101E4000160916091010101041EA80310CE020F03C
:101E5000040041EA803040F0805105E020F00C00A1
:101E600041EA803142F000525960DA6210BD000050
:101E700000100240FF3FFFEF70B588B0034600201E
:101E800035A104AE91E83400C96834C6079133A186
:101E900006C9CDE9021231A106C9CDE90012324CC2
:101EA0006168C1F38101314A002930D001292ED067
:101EB00002292CD1616801F48031B1F5803F11D045
:101EC00052106168C1F3834165682D0101D541F06D
:101ED000100165686D0001D541F020010F290ED277
:101EE000891C13E0E16A01F0804101B1204A616878
:101EF00001F40031B1F5003FE3D15208E1E7A1F16F
:101F00000F052F2D01D8491C00E03F214A4361688D
:101F1000C1F3031104AD695C22FA01F16568C5F3F0
:101F2000022502AE755D21FA05F56468C4F3C2248A
:101F30001DF8044021FA04F443B1012B08D0022B10
:101F400008D0032B00D1204608B070BD1046FBE737
:101F50000846F9E72846F7E7000000000000000007
:101F600001020304060708090010024000127A006B
:101F7000006CDC02054901EB90110A6800F01F03B8
:101F80000120984002430A607047000000100240A0
:101F9000054901EB90110A6800F01F0301209840E9
:101FA00082430A607047000000100240054901EBBF
:101FB00090110A6800F01F030120984002430A6054
:101FC000704700000010024000212A48026842F4D5
:101FD000803202604FF6FF73491C026802F400323F
:101FE0000AB99942F8D10168890300D4FEE7C169B2
:101FF00041F08051C16120490A6842F440420A60C0
:102000004268426042684260426842F480624260D4
:10201000426822F440324260426842F440324260F8
:102020004268164B1A4042604268154B1A434260A0
:10203000026842F08072026002689201FCD50A6870
:1020400042F480320A604A68D203FCD50A6842F43E
:1020500000320A604A689203FCD5416821F003010E
:102060004160416841F00201416041680907FCD5C7
:10207000704700000010024000700040FFFFC3B72F
:1020800000003408FFF7A0BF10B5344A811A1415B8
:1020900090424DD014DCB0F1804F2DD03049401823
:1020A00032D0A0423AD0B0F5006F55D140F203448F
:1020B0002046FFF77BFF2046BDE81040FFF768BFD2
:1020C000A1423FD0B1F58E3F0CD0B1F5923F43D144
:1020D00040F20D342046FFF769FF2046BDE810406E
:1020E000FFF756BF40F20B342046FFF75FFF204654
:1020F000BDE81040FFF74CBF2046FFF757FF2046D2
:10210000BDE81040FFF744BF40F201442046FFF70E
:102110004DFF2046BDE81040FFF73ABF40F20244B1
:102120002046FFF743FF2046BDE81040FFF730BFD1
:1021300040F204442046FFF739FF2046BDE8104036
:10214000FFF726BF40F205442046FFF72FFF204649
:10215000BDE81040FFF71CBF10BD0000001000409C
:1021600000FCFFBF016841F0010101607047000001
:1021700030B50A8882621C4B1C4A98420DD0B0F1DF
:10218000804F0AD01A4CA04207D01A4CA04204D06B
:10219000194CA04201D090420BD1046824F0700485
:1021A000046004684D882C43046004688D882C43C7
:1021B00004608C68C462114CA0420AD0104CA0424A
:1021C00007D0046824F4407404600468CD882C436C
:1021D0000460984201D0904201D1097B01634169BA
:1021E00041F00101416130BD002C0140003401404B
:1021F0000004004000080040000C004000100040B7
:1022000000140040C2680A43C2607047C9430161BC
:102210007047C2680A400069084202D00AB1012032
:1022200070470020704700210180418081804FF677
:10223000FF728260C18001737047000070B5044670
:102240000D460020174BE21A1E159C4216D008DCE2
:10225000154962180ED0B24217D10220FFF70CFECA
:1022600013E0B2420ED0B2F56C4F0ED10320FFF74F
:1022700003FE0AE00220FFF7FFFD06E00220FFF761
:10228000FBFD02E00220FFF7F7FD00EB5500B0FB7D
:10229000F5F04FF6F071014000F00F021143A1601C
:1022A00070BD0000004C004000BCFFBF4068C0F3A0
:1022B00008007047C1F308014160704710B5214A1A
:1022C000811A1315904228D00EDC1F4940181AD0ED
:1022D000984236D140F212442046FFF767FE20466E
:1022E000BDE81040FFF754BE994220D0B1F56C4FC5
:1022F00027D140F20E342046FFF758FE2046BDE8B5
:102300001040FFF745BE40F211442046FFF74EFE55
:102310002046BDE81040FFF73BBE40F21344204684
:10232000FFF744FE2046BDE81040FFF731BE40F203
:1023300014442046FFF73AFE2046BDE81040FFF760
:1023400027BE10BD004C004000BCFFBFC16841F477
:102350000051C160704700EB9110006801F01F024E
:1023600001219140084201D00120704700207047B0
:1023700000EB9110026801F01F03012199400A430C
:1023800002607047C1F3044301229A4000EB915070
:10239000D2430260704730B5C1F38912825801F010
:1023A0001F04012505FA04F31A4000EB9150006860
:1023B000C1F3044105FA01F31840002802D00AB124
:1023C000012030BD002030BDC26822F4C062C2606E
:1023D000C2680A43C2607047C26822F00402C26049
:1023E000C26801F004010A43C2607047026922F426
:1023F0004052026102690A4302617047C26822F0DA
:102400000802C260C26801F008010A43C260704756
:10241000C26822F48052C260C2680A43C260704738
:10242000330C110CEB0BC50B9D0B750B4D0B240BDB
:10243000FA0ACF0AA00A790A4D0A210AF409C70943
:102440009A096C093F091109E308B60888085A0877
:102450002D080008D207A60779074D072107F606C1
:10246000CB06A10677064E062506FD05D605AF0567
:10247000890564053F051B05F804D504B3049204DF
:102480007204520439041504F803DB03BF03A403E8
:1024900089036F0356033D0326030E03F802E2028D
:1024A000CC02B802A30290027D026A0258024702DF
:1024B0003602260216020602F701E901DB01CD0110
:1024C000C001B301A6019A018E01830178016D015B
:1024D000630159014F0146013C0134012B012201E6
:1024E0001B0112010B0103019B009D009F00A50031
:1024F000B100CC000101620104022303A4046106BF
:102500003408130A670B840C6A0D150E9C009D009D
:10251000A100A800BA00DF002801AD018A02D9039A
:102520007F0552071909EB0A280C1B0DF20D7B0ED3
:102530009C009F00A400AF00C700FA005501FC01F9
:102540000703810461064E08EC09810BA30C800D82
:10255000220E9E0E9D00A100A800B700D9001C010C
:102560009A016B02AD03E2062B071909BD0A280C7C
:10257000290DE20D5C0EC90E9F00A500B000C5003C
:10258000EC004001DD01EE02610444061B08EC0989
:10259000670BA30C710D1A0E970EF40EA100A80084
:1025A000B700D200080177014302850339053E07D1
:1025B000FA08A60AEE0B0E0DD30D5C0EC30E130F18
:1025C000A300AD00BF00E6002C01C301B802250442
:1025D00000061B08C6094D0B840C620D0A0E860E00
:1025E000DE0E260FA600B200CA00FA005801FC0158
:1025F0002303CA04BF06BD08900AEE0BE50CAC0D20
:10260000430EA90EF90E3A0FA900B800D6001C011E
:102610008D016B02D903950590077E09030B460CCB
:10262000290DDA0D640EC30E0C0F470FAF00C40066
:10263000EC003B01DD01EE02810444063408EC09A4
:10264000810BA30C710D120E8F0EE70E1E0F540F8F
:10265000B300CC00FD0062012102610330052B07AD
:10266000FA08A60AEE0B000DBC0D4B0EB10E020FC0
:10267000360F640FBA00D900160191017A02AD033A
:10268000F305EA07C6091B0B650C460DEA0D6C0E37
:10269000CC0E150F440F6E0FBF00E5002C01C901D1
:1026A000E2020A04AF06A008650AB60BCA0C800D48
:1026B0001A0E8F0EDE0E1E0F4E0F750FDC26000851
:1026C0000000002064000000781000084027000887
:1026D000640000202C080000881000080000F401AD
:1026E000F4010000CD0B00080000E803E80300003F
:1026F000D90C0008000000000000000000000000ED
:102700000000000000000000003801400E0600003C
:102710000008014002060000000200000004000062
:102720002500000000000000000000000000000084
:102730000000000000000000000000000000000099
:0400000508000131BD
:00000001FF
