:020000040800F2
:1000000050040020450100084D0100084F01000880
:1000100051010008530100085501000800000000CC
:100020000000000000000000000000005701000870
:1000300059010008000000005B0100089D0600084F
:100040005F0100085F0100085F0100085F01000810
:100050005F0100085F0100085F0100085F01000800
:100060005F0100085F0100085F0100085F010008F0
:100070005F0100085F0100085F0100085F010008E0
:100080005F0100085F0100085F0100085F010008D0
:100090005F0100085F0100085F0100085F010008C0
:1000A0005F0100085F0100085F0100085F010008B0
:1000B0005F0100085F0100085F0100085F010008A0
:1000C0005F0100085F0100085F0100085F01000890
:1000D0005F010008F90800085F0100085F010008DF
:1000E0005F0100085F0100085F0100085F01000870
:1000F0005F0100085F0100085F0100085F01000860
:100100005F0100085F0100085F0100085F0100084F
:100110005F0100085F0100085F0100085F0100083F
:100120005F0100085F0100085F0100085F0100082F
:10013000DFF80CD000F04AF800480047BD0B00087B
:10014000500400200648804706480047FEE7FEE7C7
:10015000FEE7FEE7FEE7FEE7FEE7FEE7FEE7FEE777
:10016000C5060008310100082DE9F05F05460020B2
:1001700092469B4688460646814640241BE0284618
:1001800041464746224600F048F853465A46C01AB0
:10019000914110D311461846224600F02FF82D1A2F
:1001A00067EB01084F4622460120002100F026F8A7
:1001B00017EB00094E41201EA4F10104DFDC484684
:1001C00031462A464346BDE8F09F00001CB5094869
:1001D0000090094801900546009C06E0E06840F068
:1001E000010394E8070098471034AC42F6D3FFF7B8
:1001F000A3FF000088140008A8140008202A04DBCC
:10020000203A00FA02F1002070479140C2F1200329
:1002100020FA03F3194390407047202A04DB203A68
:1002200021FA02F00021704721FA02F3D040C2F116
:1002300020029140084319467047000070B541F212
:100240000405CEF200052E680446012000F030FDC2
:100250004DF68361C4F21B31A0FB0101880C6043A1
:100260002968891B8142FBD370BD00004EF6FC500B
:10027000CEF20000016821F080710160016841F058
:100280008071016041F20000CEF20000016821F0AF
:1002900001010160016841F001010160002141603C
:1002A0007047000080B540F2036000F069FD40F641
:1002B0000040C4F2010014210122C023BDE88040A7
:1002C00000F01ABC2DE9F04FADF5017D2AA001F038
:1002D000B7F841F26C4400254FF0FF3641AFC0F64D
:1002E000000400BFB81901354570E9B2204600F09E
:1002F00055FE0136FF2EF5D125A001F0A1F80DF530
:100300008279002049464FF4807200F057FB38B3E1
:1003100029A001F095F80DF1040B002059464FF487
:10032000807200F009F9F0B141F26C4741F2744A71
:100330000024C0F600070FF2B008C0F6000A00BFA4
:100340001BF8045019F804603846294600F026FED0
:10035000B5420AD1FF2C04F10104F1D3D04604E0E8
:100360000FF2380801E00FF26408404601F068F827
:100370000DF5017DBDE8F08F415432344330322019
:1003800077726974696E672064617461A3BA000052
:100390000ABFAACABCD0B4C8EB0000004154323432
:1003A000433032D0B4CAFDBEDDB9CAD5CFA3ACC785
:1003B000EBC5C5B2E9A3A100415432344330322029
:1003C00072656164696E672E2E2E000041543234CE
:1003D000433032B6C1CAFDBEDDB9CAD5CFA3ACC762
:1003E000EBC5C5B2E9A3A10041543234433032B267
:1003F000E2CAD4B9CAD5CFA3ACC7EBC5C5B2E9A38D
:10040000A10000007047000070B540F60044C4F23F
:1004100001042046802100F06DFB0420FFF70EFF51
:10042000002500262046402100F064FB0420FFF751
:1004300005FF2046802100F0BBFB40EA460620462F
:10044000402100F055FB0420FFF7F8FE072D05F1D1
:100450000105E7D3F0B270BD70B540F60044C4F2B8
:1004600001042046802100F045FB0420FFF7E6FE52
:100470002046402100F03EFB0420FFF7DFFE40F263
:100480003806C2F2000600BF2046802100F090FB33
:100490000546D0B130780130C1B2C9293070F3D3EC
:1004A000002030702046802100F022FB0420FFF75E
:1004B000C5FE2046402100F01DFB0420FFF7BEFED4
:1004C0002046802100F016FB06E02046402100F087
:1004D0000FFB0420FFF7B2FEB5FA85F0400970BDAE
:1004E00070B540F6004504460026C4F201051AE046
:1004F0002846802100F0FCFA04206400FFF79EFEED
:100500002846402100F0F6FA0420FFF797FE28461F
:10051000402100F0EDFA0420FFF790FE072E06F1CF
:10052000010628BF70BD60B2B0F1FF3FE0DC284695
:10053000802100F0DFFADFE7F0B581B029B107468E
:1005400010441646B0F5807F01D90025A0E040F6A2
:100550000044C4F201040D462046802100F0CAFA8E
:100560002046402100F0C6FA0420FFF767FE20462F
:10057000802100F0BDFA0420FFF760FE20464021F4
:1005800000F0B6FA0420FFF759FEA020FFF7A8FFFD
:10059000FFF762FF002868D03846FFF7A1FFFFF79A
:1005A0005BFF002861D02046802100F0A3FA20469E
:1005B000402100F09FFA0420FFF740FE20468021F2
:1005C00000F096FA0420FFF739FE2046402100F0A3
:1005D0008FFA0420FFF732FEA120FFF781FFFFF71B
:1005E0003BFF002841D0022E21D300BFFFF70CFFB4
:1005F00005F8010B2046802100F07AFA0420FFF76D
:100600001DFE2046402100F075FA0420FFF716FE7B
:100610002046402100F06CFA0420FFF70FFE204630
:10062000802100F067FA013EB0B20128DED8FFF762
:10063000EBFE28702046802100F05CFA0420FFF7D2
:10064000FDFD2046402100F055FA0420FFF7F6FD9D
:100650002046402100F04CFA0420FFF7EFFD204631
:10066000802100F047FA012500E000252046802186
:1006700000F03EFA0420FFF7E1FD2046402100F0A3
:1006800039FA0420FFF7DAFD2046802100F032FA23
:10069000284601B0F0BD00007047000040F2400065
:1006A000C2F20000D0E90012013142F10002C0E9BB
:1006B000001240F23C00C2F200000068002808BFAF
:1006C0007047004781B04EF68851CEF200010A68AB
:1006D00041F2040C42F47002C4F2020C0A605CF8AD
:1006E000041C41F001014CF8041C00BF5CF8041C20
:1006F0008907FBD5DCF8001041F08001CCF8001030
:1007000000210091009A4F2A06D800BF009A0132BA
:100710000092009A502AF9D3DCF8002042F09002AF
:10072000CCF80020009100994F2905D8009901319B
:10073000009100995029F9D3DCF800104FF6FF72B0
:1007400021F00301CCF800105CF8041CCFF6F6622F
:1007500011404CF8041C4FF41F01CCF804105CF855
:10076000041C21F480214CF8041C0021CCF800105A
:10077000CCF828105CF8042C42F480324CF8042C9D
:100780004FF6FE725CF8040C013A41F1000380035D
:1007900001D4002BF6D15CF8040C800301D400BF17
:1007A000FEE7DCF8180047F2000140F08050C4F288
:1007B0000001CCF8180008684FF6FF7240F4404082
:1007C0000860DCF80000CBF2C372CCF80000DCF863
:1007D0000000CCF80000DCF8000040F48060CCF8A9
:1007E0000000DCF8000020F44030CCF80000DCF819
:1007F000000040F44030CCF80000DCF8000010406D
:10080000CCF80000DCF8000040F0006040F450102C
:10081000CCF800005CF8040C40F080704CF8040C3C
:100820005CF8040C8001FBD5086840F48030086057
:100830004868C003FCD5086840F40030086000BF79
:1008400048688003FCD5DCF8000020F00300CCF8F9
:100850000000DCF8000040F00200CCF8000000BF0F
:10086000DCF800000007FBD501B0704780B501201F
:1008700000F01EFA44F6D351C1F26201A0FB01015F
:100880004FF0FF3000EB9110B0F1807F10D24EF2AC
:100890001001CEF2000148604EF62350CEF2000067
:1008A000F0220270002088600720086080BD00BF31
:1008B000FEE7000080B540F2200E0020C2F2000EDC
:1008C0004FF0010C04E000BF0C30182808BF80BDB9
:1008D0000EEB00035A88002AF6D0013A11045A8020
:1008E000F2D199880EF800C05980EDE740F23C0142
:1008F000C2F2000108607047B0B540F20405C2F2D0
:10090000000540F205342868C0F20504214600F0D5
:1009100007FB002808BFB0BD2868214600F0F6FAA2
:10092000286800F093FA40F24801C2F20001096819
:10093000C0B2BDE8B040084710B540F20404C2F2AE
:100940000004A08900F01CFAA06823691821012284
:1009500000F0D2F8A06863694821012200F0CCF8C9
:10096000A08800F00DFA206800F078FA20680021D5
:1009700000F00CFB2068002100F0E4FA2068002160
:1009800000F0F2FA20684FF4E13100F029FA206813
:10099000082100F0F1FA2068042100F0DBFA206859
:1009A00040F2053100F0A6FA207E0021002200F07E
:1009B0002DF92068BDE8104000F08EBA2DE9F04313
:1009C00081B029B1074610449046B0F5807F01D927
:1009D000002576E040F60044B8F1000FC4F20104AF
:1009E00052D08946002500BF002D18BF17F0070020
:1009F0003ED12046802100F07BF80420FFF71EFC4A
:100A00002046402100F076F80420FFF717FC20462E
:100A1000802100F06FF800262046802100F06AF85F
:100A20002046402100F066F80420FFF707FC20462E
:100A3000802100F05DF80420FFF700FC20464021F3
:100A400000F056F80420FFF7F9FBA020FFF748FD5F
:100A5000FFF702FD20B9632E06F10106DCD3642600
:100A6000642E18D0F8B2FFF73BFDFFF7F5FC90B10C
:100A700019F80500FFF734FDFFF7EEFC58B101351A
:100A8000454507F10107AFD10220022806D008280A
:100A900017D1002503E008200228F8D101252046BF
:100AA000802100F025F80420FFF7C8FB20464021F4
:100AB00000F020F80420FFF7C1FB2046802100F061
:100AC00019F805F0010001B0BDE8F083B0B540F2BF
:100AD0000405C2F2000504462868E1B200F0BAF944
:100AE0002868072100F0FEF90028F9D02046B0BDA3
:100AF00041617047016170472DE9F047CF0601F071
:100B00000F0C09D5042A05D1C26B4CF0030C1A4313
:100B1000C26301E04CEA020C00F1100E00F1140A6D
:100B200000244FF001094FF00F0800270EE000BF2E
:100B3000166008FA04F225EA02020CFA04F52A43C8
:100B400002600137082F04F104040CD009FA07F2FF
:100B500012EA0306F5D0056828295246E8D048294C
:100B6000E7D17246E4E7082400254FF001094FF071
:100B70000F080FE0176008FA05F226EA02020CFAE5
:100B800005F6324342600134102C05F1040508BF1C
:100B9000BDE8F08709FA04F212EA0307F3D04668C9
:100BA00028295246E6D04829E5D17246E2E70000FE
:100BB0008068084018BF012070470000FFF756FB0F
:100BC000FFF754FEFFF7B8FEFFF76CFB40F6B500E9
:100BD000C0F60000FFF78AFEFFF774FB40F2200525
:100BE0000024C2F20005002604E000BF701C861E2F
:100BF00018BF064606EB460015F820100029F5D070
:100C000005EB8000816804708847EFE74EF60C5CC6
:100C1000CEF2000CDCF8003003F4E063B3F5E06FD3
:100C200001D1042328E0DCF8003003F4E063B3F5DD
:100C3000C06F01D103231FE0DCF8003003F4E06350
:100C4000B3F5A06F17D0DCF8003003F4E063B3F520
:100C5000806F01D101230FE0DCF8003003F4E06382
:100C6000B3F5407F01D1002306E040F20053C0F20B
:100C7000FA53CCF80030022301FA03FCC3F1040359
:100C80000F21D94011404EF2001241EA0C01CEF280
:100C90000002090140EA020383F8001300F01F017B
:100CA000012303FA01F11C2303EAD00081507047AD
:100CB00010B541F20404C4F20204216801F00C01F1
:100CC000082941F20021C0F27A012BD12368DB030D
:100CD00004D440F6001CC0F23D0C0DE0A36AD4F829
:100CE00000C05B0046F60043C0F2DC2358BF0B4651
:100CF000CCF3404123FA01FC23682168C3F3834EFF
:100D0000102303EAD15123688E44202101EA536164
:100D100071440B463F2918BF01330F2938BF8B1C84
:100D200003FB0CF1236812A2C3F30313D35C226804
:100D300041F2644CC2F30222C0F6000C1CF802E03F
:100D40002268032807D821FA03F3DFE800F00F0236
:100D50000609184610BD002010BD23FA0EF010BD84
:100D6000C2F3C2201CF8000023FA00F1084610BDAF
:100D7000000000000000000001020304060708094B
:100D800041F2000300F01F018009C4F202034FF09A
:100D9000010CC2580CFA01F11143C1507047000018
:100DA00041F2000300F01F018009C4F202034FF07A
:100DB000010CC2580CFA01F122EA0101C15070473E
:100DC00041F2000300F01F018009C4F202034FF05A
:100DD000010CC2580CFA01F11143C15070470000D8
:100DE000B0B5044644F6FF30C4F200000D4684421C
:100DF0004FF0000013DD44F60041C4F200018C42C4
:100E000019D045F20001C4F200018C4213D043F620
:100E10000001C4F201018C4210D103200CE044F225
:100E20000041C4F200018C4205D044F60001C4F236
:100E300000018C4202D10220FFF73AFF00EB55007F
:100E4000B0FBF5F080B2A060B0BD000040686FF369
:100E50005F2070476FF35F214160704710B544F623
:100E6000FF31C4F20001884215DD44F60041C4F2AE
:100E7000000188421ED045F20001C4F20001884200
:100E80001BD043F60001C4F20101884218BF10BD17
:100E900040F20E3416E044F20041C4F200018842F0
:100EA0000ED044F60001C4F20001884212D140F293
:100EB000124407E040F2134404E040F2144401E01D
:100EC00040F211442046FFF77BFF2046BDE810406A
:100ED000FFF766BF10BD0000C16841F40051C1605A
:100EE000704700008A09105801F01F01C84000F047
:100EF0000100704701F01F0289094FF0010C0B58E7
:100F00000CFA02F21A430A5070470000C1F304427F
:100F1000012303FA02F2D243890D0A507047000000
:100F2000C1F3891252F800C08A0D105801F01F0356
:100F3000C1F30441C8402CFA03F1084000F001005D
:100F400070470000C26822F4C062C260C2681143E8
:100F5000C1607047C26801F0040122F00402C2605F
:100F6000C2681143C1607047026922F440520261B5
:100F70000269114301617047C26801F0080122F063
:100F80000802C260C2681143C1607047C26822F49F
:100F90008052C260C2681143C16070470FB4054BF4
:100FA00010B503A9044A029800F018F810BC5DF8C7
:100FB00014FB0000CD0A00080000002002E008C871
:100FC000121F08C1002AFAD170477047002001E0C3
:100FD00001C1121F002AFBD1704700002DE9FF4F0D
:100FE0008DB00F460546002606E025280BD0DDE92A
:100FF0000F1290476D1C761C28780028F5D111B08F
:101000003046BDE8F08F0024A246A1460122EC49FB
:1010100000E0044315F8013F203B02FA03F00842C8
:10102000F7D128782A2810D06FF02F022878A0F165
:101030003001092914D80AEB8A0102EB410144F07E
:10104000020400EB010A6D1CF0E701CF5FEA000A21
:1010500003D544F40054CAF1000A44F002046D1CA4
:1010600028782E2817D115F8010F44F004042A28F7
:101070000ED06FF02F022878A0F1300109290AD88C
:1010800009EB890102EB410100EB01096D1CF2E75C
:1010900057F8049B6D1C28786C280FD006DC4C2870
:1010A00017D068280DD06A2814D104E0742810D015
:1010B0007A280FD10DE044F400140AE044F48014BF
:1010C00001E044F440146978814202D104F58014AF
:1010D0006D1C6D1C2A786E2A1FD00CDC632A31D05F
:1010E00004DC002A8BD0582A11D1A3E0642A68D0EE
:1010F000692A0CD165E0732A2ED004DC6F2A73D0E4
:10110000702A04D19BE0752A6FD0782A6ED01046E1
:10111000DDE90F129047761C50E1C4F3025002281B
:1011200006D0032809D0042801CF09D0066045E184
:1011300001CFF117C0E9006140E101CF06803DE138
:1011400006703BE117F8040B8DF8000000208DF8C5
:101150000100EB46012003E057F804BB4FF0FF30DD
:1011600061074FF0000102D40DE008F1010188464B
:1011700049450FDA8045F8DB1BF808100029F4D147
:1011800008E008F1010188468142FADB1BF80810EB
:101190000029F6D1DDE90F23AAEB0800814621469C
:1011A00000F036F9304400EB080604E0DDE90F12E8
:1011B0001BF8010B9047B8F10108F7D221464846C9
:1011C000F7E00A21C4F302534FF0000B0891022B01
:1011D00004D001CFC117032B09D00AE0FF1D27F06F
:1011E0000707F7E8020108E032E01FE020E000B264
:1011F000C117042B01D140B2C117031E71F10003C6
:1012000007DA4FF0000CD0EB0C006CEB01012D2342
:1012100002E0230504D52B238DF82430012303E0BD
:10122000E30701D02023F7E7984658E00A2110E0B1
:1012300010210EE010204FF0000B08900CE0102160
:101240004FF0000B44F004044FF00809089103E04C
:1012500008214FF0000B0891C4F30253022B04D075
:1012600001CF0021032B06D006E0FF1D27F0070762
:10127000F7E8020103E080B2042B00D1C0B24FF0C6
:10128000000823072BD5702A07D0DDF820C08CF08A
:10129000100C5CEA0B0C05D00EE040238DF82430D6
:1012A000012308E050EA010306D030238DF82430F2
:1012B0008DF8252002239846DDF820C08CF0080C1C
:1012C0005CEA0B0C0BD150EA010301D1630706D590
:1012D00030238DF824304FF00108A9F10109582A74
:1012E00004D038A20B9208AA0A920BE03AA2F9E7BE
:1012F0005B46089AFEF738FF0B9B9B5C0A9A521ECE
:101300000A92137050EA0102F2D10A98ADEB000084
:1013100000F1200B600702D524F4803401E04FF087
:101320000109D94502DDA9EB0B0000E0002000EB2C
:101330000B0141440890AAEB010AE00306D4DDE961
:101340000F232146504600F063F806444FF0000991
:1013500008E009A911F80900DDE90F12904709F129
:101360000109761CC145F4DBE0030CD5DDE90F2350
:101370002146504600F04CF8064404E0DDE90F1227
:1013800030209047761C0899481E08900029F5DC0B
:1013900008E00A980A990078491C0A91DDE90F12C1
:1013A0009047761CBBF10001ABF1010BF1DC21464B
:1013B0005046DDE90F2300F019F806446D1C1BE6CA
:1013C000092801003031323334353637383961621B
:1013D00063646566000000003031323334353637DF
:1013E0003839414243444546000000002DE9F041B0
:1013F000044600251E461746880404D405E03946F5
:101400002020B0476D1C641EF9D52846BDE8F08148
:101410002DE9F041044600251E469046C80301D53B
:10142000302700E02027880404D505E041463846EF
:10143000B0476D1C641EF9D52846BDE8F081000058
:1014400010B5044601E0FFF741FB14F8010B044915
:101450000028F8D1BDE810400A20FFF737BB000094
:101460000000002000000000010203043078253055
:10147000325820000A3234433032B2E2CAD4CDA806
:10148000B9FDA3A100000000A8140008000000207E
:1014900038000000BC0F0008E014000838000020ED
:1014A00018040000CC0F00080000000000380140C4
:1014B0000E060000000801400206000000020000C5
:1014C00000040000250000000000F401F401000009
:1014D000050400080000E803E8030000990600087E
:0400000508000131BD
:00000001FF
