Component: ARM Compiler 5.06 update 7 (build 960) Tool: armlink [4d3601]

==============================================================================

Section Cross References

    main.o(i.AppInit) refers to usb2com_app.o(i.Usb2ComAppInit) for Usb2ComAppInit
    main.o(i.DriverInit) refers to led_drv.o(i.LedDrvInit) for LedDrvInit
    main.o(i.DriverInit) refers to usb2com_drv.o(i.Usb2ComDrvInit) for Usb2ComDrvInit
    main.o(i.DriverInit) refers to delay.o(i.DwtDelayInit) for DwtDelayInit
    main.o(i.main) refers to main.o(i.DriverInit) for DriverInit
    main.o(i.main) refers to main.o(i.AppInit) for AppInit
    main.o(i.main) refers to usb2com_app.o(i.Usb2ComTask) for Usb2ComTask
    main.o(i.main) refers to delay.o(i.DelayNms) for DelayNms
    usb2com_app.o(i.CtrlLed) refers to led_drv.o(i.TurnOnLed) for TurnOnLed
    usb2com_app.o(i.CtrlLed) refers to led_drv.o(i.TurnOffLed) for TurnOffLed
    usb2com_app.o(i.ProcUartData) refers to usb2com_app.o(.data) for .data
    usb2com_app.o(i.ProcUartData) refers to usb2com_app.o(.bss) for .bss
    usb2com_app.o(i.Usb2ComAppInit) refers to usb2com_drv.o(i.RegUsb2ComCb) for RegUsb2ComCb
    usb2com_app.o(i.Usb2ComAppInit) refers to usb2com_app.o(i.ProcUartData) for ProcUartData
    usb2com_app.o(i.Usb2ComTask) refers to usb2com_app.o(i.CalXorSum) for CalXorSum
    usb2com_app.o(i.Usb2ComTask) refers to usb2com_app.o(i.CtrlLed) for CtrlLed
    usb2com_app.o(i.Usb2ComTask) refers to usb2com_app.o(.data) for .data
    usb2com_app.o(i.Usb2ComTask) refers to usb2com_app.o(.bss) for .bss
==============================================================================

Removing Unused input sections from the image.

    Removing delay.o(.rev16_text), (4 bytes).
    Removing delay.o(.revsh_text), (4 bytes).
    Removing key_drv.o(.rev16_text), (4 bytes).
    Removing key_drv.o(.revsh_text), (4 bytes).
    Removing key_drv.o(i.GetKeyValue), (24 bytes).
    Removing key_drv.o(i.KeyDrvInit), (48 bytes).
    Removing key_drv.o(i.KeyScan), (164 bytes).
    Removing key_drv.o(.bss), (64 bytes).
    Removing key_drv.o(.data), (48 bytes).
    Removing led_drv.o(.rev16_text), (4 bytes).
    Removing led_drv.o(.revsh_text), (4 bytes).
    Removing led_drv.o(i.ToggleLed), (52 bytes).
    Removing systick.o(.rev16_text), (4 bytes).
    Removing systick.o(.revsh_text), (4 bytes).
    Removing systick.o(i.GetSystemRunTime), (12 bytes).
    Removing systick.o(i.SystickInit), (64 bytes).
    Removing usb2com_drv.o(.rev16_text), (4 bytes).
    Removing usb2com_drv.o(.revsh_text), (4 bytes).
==============================================================================

Image Symbol Table

    Local Symbols

    Symbol Name                              Value     Ov Type        Size  Object(Section)

    ../clib/microlib/init/entry.s            0x00000000   Number         0  entry8a.o ABSOLUTE
    ../clib/microlib/init/entry.s            0x00000000   Number         0  entry11a.o ABSOLUTE
    ../clib/microlib/init/entry.s            0x00000000   Number         0  entry5.o ABSOLUTE
    ../clib/microlib/init/entry.s            0x00000000   Number         0  entry11b.o ABSOLUTE
    ../clib/microlib/init/entry.s            0x00000000   Number         0  entry8b.o ABSOLUTE
    ../clib/microlib/init/entry.s            0x00000000   Number         0  entry10a.o ABSOLUTE
    ../clib/microlib/init/entry.s            0x00000000   Number         0  entry12a.o ABSOLUTE
    ../clib/microlib/init/entry.s            0x00000000   Number         0  entry12b.o ABSOLUTE
    ../clib/microlib/init/entry.s            0x00000000   Number         0  entry.o ABSOLUTE
    ../clib/microlib/init/entry.s            0x00000000   Number         0  entry9b.o ABSOLUTE
    ../clib/microlib/init/entry.s            0x00000000   Number         0  entry2.o ABSOLUTE
    ../clib/microlib/init/entry.s            0x00000000   Number         0  entry10b.o ABSOLUTE
    ../clib/microlib/init/entry.s            0x00000000   Number         0  entry7b.o ABSOLUTE
    ../clib/microlib/init/entry.s            0x00000000   Number         0  entry7a.o ABSOLUTE
    ../clib/microlib/init/entry.s            0x00000000   Number         0  entry9a.o ABSOLUTE
    App\main.c                               0x00000000   Number         0  main.o ABSOLUTE
    App\usb2com_app.c                        0x00000000   Number         0  usb2com_app.o ABSOLUTE
    Arm\\system_gd32f30x.c                   0x00000000   Number         0  system_gd32f30x.o ABSOLUTE
    Arm\startup_gd32f30x_hd.s                0x00000000   Number         0  startup_gd32f30x_hd.o ABSOLUTE
    Arm\system_gd32f30x.c                    0x00000000   Number         0  system_gd32f30x.o ABSOLUTE
    Driver\\delay.c                          0x00000000   Number         0  delay.o ABSOLUTE
    Driver\\key_drv.c                        0x00000000   Number         0  key_drv.o ABSOLUTE
    Driver\\led_drv.c                        0x00000000   Number         0  led_drv.o ABSOLUTE
    Driver\\systick.c                        0x00000000   Number         0  systick.o ABSOLUTE
    Driver\\usb2com_drv.c                    0x00000000   Number         0  usb2com_drv.o ABSOLUTE
    Driver\delay.c                           0x00000000   Number         0  delay.o ABSOLUTE
    Driver\key_drv.c                         0x00000000   Number         0  key_drv.o ABSOLUTE
    Driver\led_drv.c                         0x00000000   Number         0  led_drv.o ABSOLUTE
    Driver\systick.c                         0x00000000   Number         0  systick.o ABSOLUTE
    Driver\usb2com_drv.c                     0x00000000   Number         0  usb2com_drv.o ABSOLUTE
    GD32_Hal\Source\gd32f30x_gpio.c          0x00000000   Number         0  gd32f30x_gpio.o ABSOLUTE
    GD32_Hal\Source\gd32f30x_misc.c          0x00000000   Number         0  gd32f30x_misc.o ABSOLUTE
    GD32_Hal\Source\gd32f30x_rcu.c           0x00000000   Number         0  gd32f30x_rcu.o ABSOLUTE
    GD32_Hal\Source\gd32f30x_usart.c         0x00000000   Number         0  gd32f30x_usart.o ABSOLUTE
    GD32_Hal\\Source\\gd32f30x_gpio.c        0x00000000   Number         0  gd32f30x_gpio.o ABSOLUTE
    GD32_Hal\\Source\\gd32f30x_misc.c        0x00000000   Number         0  gd32f30x_misc.o ABSOLUTE
    GD32_Hal\\Source\\gd32f30x_rcu.c         0x00000000   Number         0  gd32f30x_rcu.o ABSOLUTE
    GD32_Hal\\Source\\gd32f30x_usart.c       0x00000000   Number         0  gd32f30x_usart.o ABSOLUTE
    dc.s                                     0x00000000   Number         0  dc.o ABSOLUTE
    handlers.s                               0x00000000   Number         0  handlers.o ABSOLUTE
    init.s                                   0x00000000   Number         0  init.o ABSOLUTE
    RESET                                    0x08000000   Section      304  startup_gd32f30x_hd.o(RESET)
    .ARM.Collect$$$$00000000                 0x08000130   Section        0  entry.o(.ARM.Collect$$$$00000000)
    .ARM.Collect$$$$00000001                 0x08000130   Section        4  entry2.o(.ARM.Collect$$$$00000001)
    .ARM.Collect$$$$00000004                 0x08000134   Section        4  entry5.o(.ARM.Collect$$$$00000004)
    .ARM.Collect$$$$00000008                 0x08000138   Section        0  entry7b.o(.ARM.Collect$$$$00000008)
    .ARM.Collect$$$$0000000A                 0x08000138   Section        0  entry8b.o(.ARM.Collect$$$$0000000A)
    .ARM.Collect$$$$0000000B                 0x08000138   Section        8  entry9a.o(.ARM.Collect$$$$0000000B)
    .ARM.Collect$$$$0000000E                 0x08000140   Section        4  entry12b.o(.ARM.Collect$$$$0000000E)
    .ARM.Collect$$$$0000000F                 0x08000144   Section        0  entry10a.o(.ARM.Collect$$$$0000000F)
    .ARM.Collect$$$$00000011                 0x08000144   Section        0  entry11a.o(.ARM.Collect$$$$00000011)
    .ARM.Collect$$$$00002712                 0x08000144   Section        4  entry2.o(.ARM.Collect$$$$00002712)
    __lit__00000000                          0x08000144   Data           4  entry2.o(.ARM.Collect$$$$00002712)
    .text                                    0x08000148   Section       36  startup_gd32f30x_hd.o(.text)
    $v0                                      0x08000148   Number         0  startup_gd32f30x_hd.o(.text)
    .text                                    0x0800016c   Section       36  init.o(.text)
    i.AppInit                                0x08000190   Section        0  main.o(i.AppInit)
    AppInit                                  0x08000191   Thumb Code     4  main.o(i.AppInit)
    i.CalXorSum                              0x08000194   Section        0  usb2com_app.o(i.CalXorSum)
    CalXorSum                                0x08000195   Thumb Code    24  usb2com_app.o(i.CalXorSum)
    i.CtrlLed                                0x080001ac   Section        0  usb2com_app.o(i.CtrlLed)
    CtrlLed                                  0x080001ad   Thumb Code    16  usb2com_app.o(i.CtrlLed)
    i.DelayNms                               0x080001bc   Section        0  delay.o(i.DelayNms)
    i.DelayNus                               0x080001d8   Section        0  delay.o(i.DelayNus)
    i.DriverInit                             0x08000200   Section        0  main.o(i.DriverInit)
    DriverInit                               0x08000201   Thumb Code    18  main.o(i.DriverInit)
    i.DwtDelayInit                           0x08000214   Section        0  delay.o(i.DwtDelayInit)
    i.LedDrvInit                             0x08000248   Section        0  led_drv.o(i.LedDrvInit)
    i.ProcUartData                           0x08000280   Section        0  usb2com_app.o(i.ProcUartData)
    ProcUartData                             0x08000281   Thumb Code    58  usb2com_app.o(i.ProcUartData)
    i.RegUsb2ComCb                           0x080002c4   Section        0  usb2com_drv.o(i.RegUsb2ComCb)
    i.SysTick_Handler                        0x080002d0   Section        0  systick.o(i.SysTick_Handler)
    i.SystemInit                             0x080002e8   Section        0  system_gd32f30x.o(i.SystemInit)
    i.TurnOffLed                             0x0800036c   Section        0  led_drv.o(i.TurnOffLed)
    i.TurnOnLed                              0x08000388   Section        0  led_drv.o(i.TurnOnLed)
    i.USART0_IRQHandler                      0x080003a4   Section        0  usb2com_drv.o(i.USART0_IRQHandler)
    i.Usb2ComAppInit                         0x080003dc   Section        0  usb2com_app.o(i.Usb2ComAppInit)
    i.Usb2ComDrvInit                         0x080003e8   Section        0  usb2com_drv.o(i.Usb2ComDrvInit)
    i.Usb2ComGpioInit                        0x080003fc   Section        0  usb2com_drv.o(i.Usb2ComGpioInit)
    Usb2ComGpioInit                          0x080003fd   Thumb Code    38  usb2com_drv.o(i.Usb2ComGpioInit)
    i.Usb2ComTask                            0x08000428   Section        0  usb2com_app.o(i.Usb2ComTask)
    i.Usb2ComUartInit                        0x08000464   Section        0  usb2com_drv.o(i.Usb2ComUartInit)
    Usb2ComUartInit                          0x08000465   Thumb Code    96  usb2com_drv.o(i.Usb2ComUartInit)
    i.__scatterload_copy                     0x080004c8   Section       14  handlers.o(i.__scatterload_copy)
    i.__scatterload_null                     0x080004d6   Section        2  handlers.o(i.__scatterload_null)
    i.__scatterload_zeroinit                 0x080004d8   Section       14  handlers.o(i.__scatterload_zeroinit)
    i.gpio_bit_reset                         0x080004e6   Section        0  gd32f30x_gpio.o(i.gpio_bit_reset)
    i.gpio_bit_set                           0x080004ea   Section        0  gd32f30x_gpio.o(i.gpio_bit_set)
    i.gpio_init                              0x080004ee   Section        0  gd32f30x_gpio.o(i.gpio_init)
    i.main                                   0x08000592   Section        0  main.o(i.main)
    i.nvic_irq_enable                        0x080005ac   Section        0  gd32f30x_misc.o(i.nvic_irq_enable)
    i.nvic_priority_group_set                0x08000648   Section        0  gd32f30x_misc.o(i.nvic_priority_group_set)
    i.rcu_clock_freq_get                     0x0800065c   Section        0  gd32f30x_rcu.o(i.rcu_clock_freq_get)
    i.rcu_periph_clock_enable                0x08000758   Section        0  gd32f30x_rcu.o(i.rcu_periph_clock_enable)
    i.rcu_periph_reset_disable               0x08000774   Section        0  gd32f30x_rcu.o(i.rcu_periph_reset_disable)
    i.rcu_periph_reset_enable                0x08000790   Section        0  gd32f30x_rcu.o(i.rcu_periph_reset_enable)
    i.system_clock_120m_hxtal                0x080007ac   Section        0  system_gd32f30x.o(i.system_clock_120m_hxtal)
    system_clock_120m_hxtal                  0x080007ad   Thumb Code   170  system_gd32f30x.o(i.system_clock_120m_hxtal)
    i.system_clock_config                    0x08000868   Section        0  system_gd32f30x.o(i.system_clock_config)
    system_clock_config                      0x08000869   Thumb Code     4  system_gd32f30x.o(i.system_clock_config)
    i.usart_baudrate_set                     0x0800086c   Section        0  gd32f30x_usart.o(i.usart_baudrate_set)
    i.usart_data_receive                     0x080008dc   Section        0  gd32f30x_usart.o(i.usart_data_receive)
    i.usart_deinit                           0x080008e4   Section        0  gd32f30x_usart.o(i.usart_deinit)
    i.usart_enable                           0x08000974   Section        0  gd32f30x_usart.o(i.usart_enable)
    i.usart_interrupt_enable                 0x0800097e   Section        0  gd32f30x_usart.o(i.usart_interrupt_enable)
    i.usart_interrupt_flag_clear             0x08000992   Section        0  gd32f30x_usart.o(i.usart_interrupt_flag_clear)
    i.usart_interrupt_flag_get               0x080009a4   Section        0  gd32f30x_usart.o(i.usart_interrupt_flag_get)
    i.usart_parity_config                    0x080009d6   Section        0  gd32f30x_usart.o(i.usart_parity_config)
    i.usart_receive_config                   0x080009e6   Section        0  gd32f30x_usart.o(i.usart_receive_config)
    i.usart_stop_bit_set                     0x080009fa   Section        0  gd32f30x_usart.o(i.usart_stop_bit_set)
    i.usart_transmit_config                  0x08000a0a   Section        0  gd32f30x_usart.o(i.usart_transmit_config)
    i.usart_word_length_set                  0x08000a1e   Section        0  gd32f30x_usart.o(i.usart_word_length_set)
    .data                                    0x20000000   Section        2  usb2com_app.o(.data)
    g_rcvFlag                                0x20000000   Data           1  usb2com_app.o(.data)
    index                                    0x20000001   Data           1  usb2com_app.o(.data)
    .data                                    0x20000004   Section       36  led_drv.o(.data)
    g_ledList                                0x20000004   Data          36  led_drv.o(.data)
    .data                                    0x20000028   Section        8  systick.o(.data)
    g_systemRunTime                          0x20000028   Data           8  systick.o(.data)
    .data                                    0x20000030   Section       32  usb2com_drv.o(.data)
    pProcUartData                            0x20000030   Data           4  usb2com_drv.o(.data)
    .bss                                     0x20000050   Section       20  usb2com_app.o(.bss)
    g_uartBuf                                0x20000050   Data          20  usb2com_app.o(.bss)
    STACK                                    0x20000068   Section     1024  startup_gd32f30x_hd.o(STACK)

    Global Symbols

    Symbol Name                              Value     Ov Type        Size  Object(Section)

    BuildAttributes$$THM_ISAv4$E$P$D$K$B$S$7EM$VFPi3$EXTD16$VFPS$VFMA$PE$A:L22UL41UL21$X:L11$S22US41US21$IEEE1$IW$USESV6$~STKCKD$USESV7$~SHL$OSPACE$EBA8$MICROLIB$REQ8$PRES8$EABIv2 0x00000000   Number         0  anon$$obj.o ABSOLUTE
    __ARM_use_no_argv                        0x00000000   Number         0  main.o ABSOLUTE
    __arm_fini_                               - Undefined Weak Reference
    __cpp_initialize__aeabi_                  - Undefined Weak Reference
    __cxa_finalize                            - Undefined Weak Reference
    __decompress                              - Undefined Weak Reference
    _clock_init                               - Undefined Weak Reference
    _microlib_exit                            - Undefined Weak Reference
    __Vectors_Size                           0x00000130   Number         0  startup_gd32f30x_hd.o ABSOLUTE
    __Vectors                                0x08000000   Data           4  startup_gd32f30x_hd.o(RESET)
    __Vectors_End                            0x08000130   Data           0  startup_gd32f30x_hd.o(RESET)
    __main                                   0x08000131   Thumb Code     0  entry.o(.ARM.Collect$$$$00000000)
    _main_stk                                0x08000131   Thumb Code     0  entry2.o(.ARM.Collect$$$$00000001)
    _main_scatterload                        0x08000135   Thumb Code     0  entry5.o(.ARM.Collect$$$$00000004)
    __main_after_scatterload                 0x08000139   Thumb Code     0  entry5.o(.ARM.Collect$$$$00000004)
    _main_clock                              0x08000139   Thumb Code     0  entry7b.o(.ARM.Collect$$$$00000008)
    _main_cpp_init                           0x08000139   Thumb Code     0  entry8b.o(.ARM.Collect$$$$0000000A)
    _main_init                               0x08000139   Thumb Code     0  entry9a.o(.ARM.Collect$$$$0000000B)
    __rt_lib_shutdown_fini                   0x08000141   Thumb Code     0  entry12b.o(.ARM.Collect$$$$0000000E)
    __rt_final_cpp                           0x08000145   Thumb Code     0  entry10a.o(.ARM.Collect$$$$0000000F)
    __rt_final_exit                          0x08000145   Thumb Code     0  entry11a.o(.ARM.Collect$$$$00000011)
    Reset_Handler                            0x08000149   Thumb Code     8  startup_gd32f30x_hd.o(.text)
    NMI_Handler                              0x08000151   Thumb Code     2  startup_gd32f30x_hd.o(.text)
    HardFault_Handler                        0x08000153   Thumb Code     2  startup_gd32f30x_hd.o(.text)
    MemManage_Handler                        0x08000155   Thumb Code     2  startup_gd32f30x_hd.o(.text)
    BusFault_Handler                         0x08000157   Thumb Code     2  startup_gd32f30x_hd.o(.text)
    UsageFault_Handler                       0x08000159   Thumb Code     2  startup_gd32f30x_hd.o(.text)
    SVC_Handler                              0x0800015b   Thumb Code     2  startup_gd32f30x_hd.o(.text)
    DebugMon_Handler                         0x0800015d   Thumb Code     2  startup_gd32f30x_hd.o(.text)
    PendSV_Handler                           0x0800015f   Thumb Code     2  startup_gd32f30x_hd.o(.text)
    ADC0_1_IRQHandler                        0x08000163   Thumb Code     0  startup_gd32f30x_hd.o(.text)
    ADC2_IRQHandler                          0x08000163   Thumb Code     0  startup_gd32f30x_hd.o(.text)
    CAN0_EWMC_IRQHandler                     0x08000163   Thumb Code     0  startup_gd32f30x_hd.o(.text)
    CAN0_RX1_IRQHandler                      0x08000163   Thumb Code     0  startup_gd32f30x_hd.o(.text)
    DMA0_Channel0_IRQHandler                 0x08000163   Thumb Code     0  startup_gd32f30x_hd.o(.text)
    DMA0_Channel1_IRQHandler                 0x08000163   Thumb Code     0  startup_gd32f30x_hd.o(.text)
    DMA0_Channel2_IRQHandler                 0x08000163   Thumb Code     0  startup_gd32f30x_hd.o(.text)
    DMA0_Channel3_IRQHandler                 0x08000163   Thumb Code     0  startup_gd32f30x_hd.o(.text)
    DMA0_Channel4_IRQHandler                 0x08000163   Thumb Code     0  startup_gd32f30x_hd.o(.text)
    DMA0_Channel5_IRQHandler                 0x08000163   Thumb Code     0  startup_gd32f30x_hd.o(.text)
    DMA0_Channel6_IRQHandler                 0x08000163   Thumb Code     0  startup_gd32f30x_hd.o(.text)
    DMA1_Channel0_IRQHandler                 0x08000163   Thumb Code     0  startup_gd32f30x_hd.o(.text)
    DMA1_Channel1_IRQHandler                 0x08000163   Thumb Code     0  startup_gd32f30x_hd.o(.text)
    DMA1_Channel2_IRQHandler                 0x08000163   Thumb Code     0  startup_gd32f30x_hd.o(.text)
    DMA1_Channel3_4_IRQHandler               0x08000163   Thumb Code     0  startup_gd32f30x_hd.o(.text)
    EXMC_IRQHandler                          0x08000163   Thumb Code     0  startup_gd32f30x_hd.o(.text)
    EXTI0_IRQHandler                         0x08000163   Thumb Code     0  startup_gd32f30x_hd.o(.text)
    EXTI10_15_IRQHandler                     0x08000163   Thumb Code     0  startup_gd32f30x_hd.o(.text)
    EXTI1_IRQHandler                         0x08000163   Thumb Code     0  startup_gd32f30x_hd.o(.text)
    EXTI2_IRQHandler                         0x08000163   Thumb Code     0  startup_gd32f30x_hd.o(.text)
    EXTI3_IRQHandler                         0x08000163   Thumb Code     0  startup_gd32f30x_hd.o(.text)
    EXTI4_IRQHandler                         0x08000163   Thumb Code     0  startup_gd32f30x_hd.o(.text)
    EXTI5_9_IRQHandler                       0x08000163   Thumb Code     0  startup_gd32f30x_hd.o(.text)
    FMC_IRQHandler                           0x08000163   Thumb Code     0  startup_gd32f30x_hd.o(.text)
    I2C0_ER_IRQHandler                       0x08000163   Thumb Code     0  startup_gd32f30x_hd.o(.text)
    I2C0_EV_IRQHandler                       0x08000163   Thumb Code     0  startup_gd32f30x_hd.o(.text)
    I2C1_ER_IRQHandler                       0x08000163   Thumb Code     0  startup_gd32f30x_hd.o(.text)
    I2C1_EV_IRQHandler                       0x08000163   Thumb Code     0  startup_gd32f30x_hd.o(.text)
    LVD_IRQHandler                           0x08000163   Thumb Code     0  startup_gd32f30x_hd.o(.text)
    RCU_CTC_IRQHandler                       0x08000163   Thumb Code     0  startup_gd32f30x_hd.o(.text)
    RTC_Alarm_IRQHandler                     0x08000163   Thumb Code     0  startup_gd32f30x_hd.o(.text)
    RTC_IRQHandler                           0x08000163   Thumb Code     0  startup_gd32f30x_hd.o(.text)
    SDIO_IRQHandler                          0x08000163   Thumb Code     0  startup_gd32f30x_hd.o(.text)
    SPI0_IRQHandler                          0x08000163   Thumb Code     0  startup_gd32f30x_hd.o(.text)
    SPI1_IRQHandler                          0x08000163   Thumb Code     0  startup_gd32f30x_hd.o(.text)
    SPI2_IRQHandler                          0x08000163   Thumb Code     0  startup_gd32f30x_hd.o(.text)
    TAMPER_IRQHandler                        0x08000163   Thumb Code     0  startup_gd32f30x_hd.o(.text)
    TIMER0_BRK_IRQHandler                    0x08000163   Thumb Code     0  startup_gd32f30x_hd.o(.text)
    TIMER0_Channel_IRQHandler                0x08000163   Thumb Code     0  startup_gd32f30x_hd.o(.text)
    TIMER0_TRG_CMT_IRQHandler                0x08000163   Thumb Code     0  startup_gd32f30x_hd.o(.text)
    TIMER0_UP_IRQHandler                     0x08000163   Thumb Code     0  startup_gd32f30x_hd.o(.text)
    TIMER1_IRQHandler                        0x08000163   Thumb Code     0  startup_gd32f30x_hd.o(.text)
    TIMER2_IRQHandler                        0x08000163   Thumb Code     0  startup_gd32f30x_hd.o(.text)
    TIMER3_IRQHandler                        0x08000163   Thumb Code     0  startup_gd32f30x_hd.o(.text)
    TIMER4_IRQHandler                        0x08000163   Thumb Code     0  startup_gd32f30x_hd.o(.text)
    TIMER5_IRQHandler                        0x08000163   Thumb Code     0  startup_gd32f30x_hd.o(.text)
    TIMER6_IRQHandler                        0x08000163   Thumb Code     0  startup_gd32f30x_hd.o(.text)
    TIMER7_BRK_IRQHandler                    0x08000163   Thumb Code     0  startup_gd32f30x_hd.o(.text)
    TIMER7_Channel_IRQHandler                0x08000163   Thumb Code     0  startup_gd32f30x_hd.o(.text)
    TIMER7_TRG_CMT_IRQHandler                0x08000163   Thumb Code     0  startup_gd32f30x_hd.o(.text)
    TIMER7_UP_IRQHandler                     0x08000163   Thumb Code     0  startup_gd32f30x_hd.o(.text)
    UART3_IRQHandler                         0x08000163   Thumb Code     0  startup_gd32f30x_hd.o(.text)
    UART4_IRQHandler                         0x08000163   Thumb Code     0  startup_gd32f30x_hd.o(.text)
    USART1_IRQHandler                        0x08000163   Thumb Code     0  startup_gd32f30x_hd.o(.text)
    USART2_IRQHandler                        0x08000163   Thumb Code     0  startup_gd32f30x_hd.o(.text)
    USBD_HP_CAN0_TX_IRQHandler               0x08000163   Thumb Code     0  startup_gd32f30x_hd.o(.text)
    USBD_LP_CAN0_RX0_IRQHandler              0x08000163   Thumb Code     0  startup_gd32f30x_hd.o(.text)
    USBD_WKUP_IRQHandler                     0x08000163   Thumb Code     0  startup_gd32f30x_hd.o(.text)
    WWDGT_IRQHandler                         0x08000163   Thumb Code     0  startup_gd32f30x_hd.o(.text)
    __scatterload                            0x0800016d   Thumb Code    28  init.o(.text)
    __scatterload_rt2                        0x0800016d   Thumb Code     0  init.o(.text)
    DelayNms                                 0x080001bd   Thumb Code    26  delay.o(i.DelayNms)
    DelayNus                                 0x080001d9   Thumb Code    32  delay.o(i.DelayNus)
    DwtDelayInit                             0x08000215   Thumb Code    42  delay.o(i.DwtDelayInit)
    LedDrvInit                               0x08000249   Thumb Code    52  led_drv.o(i.LedDrvInit)
    RegUsb2ComCb                             0x080002c5   Thumb Code     6  usb2com_drv.o(i.RegUsb2ComCb)
    SysTick_Handler                          0x080002d1   Thumb Code    18  systick.o(i.SysTick_Handler)
    SystemInit                               0x080002e9   Thumb Code   118  system_gd32f30x.o(i.SystemInit)
    TurnOffLed                               0x0800036d   Thumb Code    24  led_drv.o(i.TurnOffLed)
    TurnOnLed                                0x08000389   Thumb Code    24  led_drv.o(i.TurnOnLed)
    USART0_IRQHandler                        0x080003a5   Thumb Code    46  usb2com_drv.o(i.USART0_IRQHandler)
    Usb2ComAppInit                           0x080003dd   Thumb Code     6  usb2com_app.o(i.Usb2ComAppInit)
    Usb2ComDrvInit                           0x080003e9   Thumb Code    18  usb2com_drv.o(i.Usb2ComDrvInit)
    Usb2ComTask                              0x08000429   Thumb Code    50  usb2com_app.o(i.Usb2ComTask)
    __scatterload_copy                       0x080004c9   Thumb Code    14  handlers.o(i.__scatterload_copy)
    __scatterload_null                       0x080004d7   Thumb Code     2  handlers.o(i.__scatterload_null)
    __scatterload_zeroinit                   0x080004d9   Thumb Code    14  handlers.o(i.__scatterload_zeroinit)
    gpio_bit_reset                           0x080004e7   Thumb Code     4  gd32f30x_gpio.o(i.gpio_bit_reset)
    gpio_bit_set                             0x080004eb   Thumb Code     4  gd32f30x_gpio.o(i.gpio_bit_set)
    gpio_init                                0x080004ef   Thumb Code   164  gd32f30x_gpio.o(i.gpio_init)
    main                                     0x08000593   Thumb Code    24  main.o(i.main)
    nvic_irq_enable                          0x080005ad   Thumb Code   150  gd32f30x_misc.o(i.nvic_irq_enable)
    nvic_priority_group_set                  0x08000649   Thumb Code    10  gd32f30x_misc.o(i.nvic_priority_group_set)
    rcu_clock_freq_get                       0x0800065d   Thumb Code   224  gd32f30x_rcu.o(i.rcu_clock_freq_get)
    rcu_periph_clock_enable                  0x08000759   Thumb Code    22  gd32f30x_rcu.o(i.rcu_periph_clock_enable)
    rcu_periph_reset_disable                 0x08000775   Thumb Code    22  gd32f30x_rcu.o(i.rcu_periph_reset_disable)
    rcu_periph_reset_enable                  0x08000791   Thumb Code    22  gd32f30x_rcu.o(i.rcu_periph_reset_enable)
    usart_baudrate_set                       0x0800086d   Thumb Code   102  gd32f30x_usart.o(i.usart_baudrate_set)
    usart_data_receive                       0x080008dd   Thumb Code     8  gd32f30x_usart.o(i.usart_data_receive)
    usart_deinit                             0x080008e5   Thumb Code   136  gd32f30x_usart.o(i.usart_deinit)
    usart_enable                             0x08000975   Thumb Code    10  gd32f30x_usart.o(i.usart_enable)
    usart_interrupt_enable                   0x0800097f   Thumb Code    20  gd32f30x_usart.o(i.usart_interrupt_enable)
    usart_interrupt_flag_clear               0x08000993   Thumb Code    18  gd32f30x_usart.o(i.usart_interrupt_flag_clear)
    usart_interrupt_flag_get                 0x080009a5   Thumb Code    50  gd32f30x_usart.o(i.usart_interrupt_flag_get)
    usart_parity_config                      0x080009d7   Thumb Code    16  gd32f30x_usart.o(i.usart_parity_config)
    usart_receive_config                     0x080009e7   Thumb Code    20  gd32f30x_usart.o(i.usart_receive_config)
    usart_stop_bit_set                       0x080009fb   Thumb Code    16  gd32f30x_usart.o(i.usart_stop_bit_set)
    usart_transmit_config                    0x08000a0b   Thumb Code    20  gd32f30x_usart.o(i.usart_transmit_config)
    usart_word_length_set                    0x08000a1f   Thumb Code    16  gd32f30x_usart.o(i.usart_word_length_set)
    Region$$Table$$Base                      0x08000a30   Number         0  anon$$obj.o(Region$$Table)
    Region$$Table$$Limit                     0x08000a50   Number         0  anon$$obj.o(Region$$Table)
    g_Usb2ComInfo                            0x20000034   Data          28  usb2com_drv.o(.data)
    __initial_sp                             0x20000468   Data           0  startup_gd32f30x_hd.o(STACK)



==============================================================================

Memory Map of the image

  Image Entry point : 0x08000131

  Load Region LR_IROM1 (Base: 0x08000000, Size: 0x00000aa0, Max: 0x00080000, ABSOLUTE)

    Execution Region ER_IROM1 (Exec base: 0x08000000, Load base: 0x08000000, Size: 0x00000a50, Max: 0x00080000, ABSOLUTE)

    Exec Addr    Load Addr    Size         Type   Attr      Idx    E Section Name        Object

    0x08000000   0x08000000   0x00000130   Data   RO         1095    RESET               startup_gd32f30x_hd.o
    0x08000130   0x08000130   0x00000000   Code   RO         1152  * .ARM.Collect$$$$00000000  mc_w.l(entry.o)
    0x08000130   0x08000130   0x00000004   Code   RO         1155    .ARM.Collect$$$$00000001  mc_w.l(entry2.o)
    0x08000134   0x08000134   0x00000004   Code   RO         1158    .ARM.Collect$$$$00000004  mc_w.l(entry5.o)
    0x08000138   0x08000138   0x00000000   Code   RO         1160    .ARM.Collect$$$$00000008  mc_w.l(entry7b.o)
    0x08000138   0x08000138   0x00000000   Code   RO         1162    .ARM.Collect$$$$0000000A  mc_w.l(entry8b.o)
    0x08000138   0x08000138   0x00000008   Code   RO         1163    .ARM.Collect$$$$0000000B  mc_w.l(entry9a.o)
    0x08000140   0x08000140   0x00000004   Code   RO         1170    .ARM.Collect$$$$0000000E  mc_w.l(entry12b.o)
    0x08000144   0x08000144   0x00000000   Code   RO         1165    .ARM.Collect$$$$0000000F  mc_w.l(entry10a.o)
    0x08000144   0x08000144   0x00000000   Code   RO         1167    .ARM.Collect$$$$00000011  mc_w.l(entry11a.o)
    0x08000144   0x08000144   0x00000004   Code   RO         1156    .ARM.Collect$$$$00002712  mc_w.l(entry2.o)
    0x08000148   0x08000148   0x00000024   Code   RO         1096    .text               startup_gd32f30x_hd.o
    0x0800016c   0x0800016c   0x00000024   Code   RO         1171    .text               mc_w.l(init.o)
    0x08000190   0x08000190   0x00000004   Code   RO            1    i.AppInit           main.o
    0x08000194   0x08000194   0x00000018   Code   RO           40    i.CalXorSum         usb2com_app.o
    0x080001ac   0x080001ac   0x00000010   Code   RO           41    i.CtrlLed           usb2com_app.o
    0x080001bc   0x080001bc   0x0000001a   Code   RO           81    i.DelayNms          delay.o
    0x080001d6   0x080001d6   0x00000002   PAD
    0x080001d8   0x080001d8   0x00000028   Code   RO           82    i.DelayNus          delay.o
    0x08000200   0x08000200   0x00000012   Code   RO            2    i.DriverInit        main.o
    0x08000212   0x08000212   0x00000002   PAD
    0x08000214   0x08000214   0x00000034   Code   RO           83    i.DwtDelayInit      delay.o
    0x08000248   0x08000248   0x00000038   Code   RO          189    i.LedDrvInit        led_drv.o
    0x08000280   0x08000280   0x00000044   Code   RO           42    i.ProcUartData      usb2com_app.o
    0x080002c4   0x080002c4   0x0000000c   Code   RO          270    i.RegUsb2ComCb      usb2com_drv.o
    0x080002d0   0x080002d0   0x00000018   Code   RO          233    i.SysTick_Handler   systick.o
    0x080002e8   0x080002e8   0x00000084   Code   RO         1103    i.SystemInit        system_gd32f30x.o
    0x0800036c   0x0800036c   0x0000001c   Code   RO          191    i.TurnOffLed        led_drv.o
    0x08000388   0x08000388   0x0000001c   Code   RO          192    i.TurnOnLed         led_drv.o
    0x080003a4   0x080003a4   0x00000038   Code   RO          271    i.USART0_IRQHandler  usb2com_drv.o
    0x080003dc   0x080003dc   0x0000000c   Code   RO           43    i.Usb2ComAppInit    usb2com_app.o
    0x080003e8   0x080003e8   0x00000012   Code   RO          272    i.Usb2ComDrvInit    usb2com_drv.o
    0x080003fa   0x080003fa   0x00000002   PAD
    0x080003fc   0x080003fc   0x0000002c   Code   RO          273    i.Usb2ComGpioInit   usb2com_drv.o
    0x08000428   0x08000428   0x0000003c   Code   RO           44    i.Usb2ComTask       usb2com_app.o
    0x08000464   0x08000464   0x00000064   Code   RO          274    i.Usb2ComUartInit   usb2com_drv.o
    0x080004c8   0x080004c8   0x0000000e   Code   RO         1175    i.__scatterload_copy  mc_w.l(handlers.o)
    0x080004d6   0x080004d6   0x00000002   Code   RO         1176    i.__scatterload_null  mc_w.l(handlers.o)
    0x080004d8   0x080004d8   0x0000000e   Code   RO         1177    i.__scatterload_zeroinit  mc_w.l(handlers.o)
    0x080004e6   0x080004e6   0x00000004   Code   RO          326    i.gpio_bit_reset    gd32f30x_gpio.o
    0x080004ea   0x080004ea   0x00000004   Code   RO          327    i.gpio_bit_set      gd32f30x_gpio.o
    0x080004ee   0x080004ee   0x000000a4   Code   RO          336    i.gpio_init         gd32f30x_gpio.o
    0x08000592   0x08000592   0x00000018   Code   RO            3    i.main              main.o
    0x080005aa   0x080005aa   0x00000002   PAD
    0x080005ac   0x080005ac   0x0000009c   Code   RO         1040    i.nvic_irq_enable   gd32f30x_misc.o
    0x08000648   0x08000648   0x00000014   Code   RO         1041    i.nvic_priority_group_set  gd32f30x_misc.o
    0x0800065c   0x0800065c   0x000000fc   Code   RO          477    i.rcu_clock_freq_get  gd32f30x_rcu.o
    0x08000758   0x08000758   0x0000001c   Code   RO          495    i.rcu_periph_clock_enable  gd32f30x_rcu.o
    0x08000774   0x08000774   0x0000001c   Code   RO          498    i.rcu_periph_reset_disable  gd32f30x_rcu.o
    0x08000790   0x08000790   0x0000001c   Code   RO          499    i.rcu_periph_reset_enable  gd32f30x_rcu.o
    0x080007ac   0x080007ac   0x000000bc   Code   RO         1104    i.system_clock_120m_hxtal  system_gd32f30x.o
    0x08000868   0x08000868   0x00000004   Code   RO         1105    i.system_clock_config  system_gd32f30x.o
    0x0800086c   0x0800086c   0x00000070   Code   RO          723    i.usart_baudrate_set  gd32f30x_usart.o
    0x080008dc   0x080008dc   0x00000008   Code   RO          726    i.usart_data_receive  gd32f30x_usart.o
    0x080008e4   0x080008e4   0x00000090   Code   RO          728    i.usart_deinit      gd32f30x_usart.o
    0x08000974   0x08000974   0x0000000a   Code   RO          732    i.usart_enable      gd32f30x_usart.o
    0x0800097e   0x0800097e   0x00000014   Code   RO          741    i.usart_interrupt_enable  gd32f30x_usart.o
    0x08000992   0x08000992   0x00000012   Code   RO          742    i.usart_interrupt_flag_clear  gd32f30x_usart.o
    0x080009a4   0x080009a4   0x00000032   Code   RO          743    i.usart_interrupt_flag_get  gd32f30x_usart.o
    0x080009d6   0x080009d6   0x00000010   Code   RO          754    i.usart_parity_config  gd32f30x_usart.o
    0x080009e6   0x080009e6   0x00000014   Code   RO          756    i.usart_receive_config  gd32f30x_usart.o
    0x080009fa   0x080009fa   0x00000010   Code   RO          766    i.usart_stop_bit_set  gd32f30x_usart.o
    0x08000a0a   0x08000a0a   0x00000014   Code   RO          770    i.usart_transmit_config  gd32f30x_usart.o
    0x08000a1e   0x08000a1e   0x00000010   Code   RO          771    i.usart_word_length_set  gd32f30x_usart.o
    0x08000a2e   0x08000a2e   0x00000002   PAD
    0x08000a30   0x08000a30   0x00000020   Data   RO         1173    Region$$Table       anon$$obj.o


    Execution Region RW_IRAM1 (Exec base: 0x20000000, Load base: 0x08000a50, Size: 0x00000468, Max: 0x00010000, ABSOLUTE)

    Exec Addr    Load Addr    Size         Type   Attr      Idx    E Section Name        Object

    0x20000000   0x08000a50   0x00000002   Data   RW           46    .data               usb2com_app.o
    0x20000002   0x08000a52   0x00000002   PAD
    0x20000004   0x08000a54   0x00000024   Data   RW          193    .data               led_drv.o
    0x20000028   0x08000a78   0x00000008   Data   RW          235    .data               systick.o
    0x20000030   0x08000a80   0x00000020   Data   RW          276    .data               usb2com_drv.o
    0x20000050        -       0x00000014   Zero   RW           45    .bss                usb2com_app.o
    0x20000064   0x08000aa0   0x00000004   PAD
    0x20000068        -       0x00000400   Zero   RW         1093    STACK               startup_gd32f30x_hd.o


==============================================================================

Image component sizes


      Code (inc. data)   RO Data    RW Data    ZI Data      Debug   Object Name

       118         18          0          0          0      22897   delay.o
       172          0          0          0          0       2156   gd32f30x_gpio.o
       176         16          0          0          0       1448   gd32f30x_misc.o
       336         46          0          0          0      20248   gd32f30x_rcu.o
       450         18          0          0          0      14363   gd32f30x_usart.o
       112         12          0         36          0       2430   led_drv.o
        46          0          0          0          0       5919   main.o
        36          8        304          0       1024        844   startup_gd32f30x_hd.o
       324         32          0          0          0       2501   system_gd32f30x.o
        24          6          0          8          0       1090   systick.o
       180         26          0          2         20       3711   usb2com_app.o
       230         26          0         32          0       3632   usb2com_drv.o

    ----------------------------------------------------------------------
      2214        208        336         80       1048      81239   Object Totals
         0          0         32          0          0          0   (incl. Generated)
        10          0          0          2          4          0   (incl. Padding)

    ----------------------------------------------------------------------

      Code (inc. data)   RO Data    RW Data    ZI Data      Debug   Library Member Name

         0          0          0          0          0          0   entry.o
         0          0          0          0          0          0   entry10a.o
         0          0          0          0          0          0   entry11a.o
         4          0          0          0          0          0   entry12b.o
         8          4          0          0          0          0   entry2.o
         4          0          0          0          0          0   entry5.o
         0          0          0          0          0          0   entry7b.o
         0          0          0          0          0          0   entry8b.o
         8          4          0          0          0          0   entry9a.o
        30          0          0          0          0          0   handlers.o
        36          8          0          0          0         68   init.o

    ----------------------------------------------------------------------
        90         16          0          0          0         68   Library Totals
         0          0          0          0          0          0   (incl. Padding)

    ----------------------------------------------------------------------

      Code (inc. data)   RO Data    RW Data    ZI Data      Debug   Library Name

        90         16          0          0          0         68   mc_w.l

    ----------------------------------------------------------------------
        90         16          0          0          0         68   Library Totals

    ----------------------------------------------------------------------

==============================================================================


      Code (inc. data)   RO Data    RW Data    ZI Data      Debug   

      2304        224        336         80       1048      77611   Grand Totals
      2304        224        336         80       1048      77611   ELF Image Totals
      2304        224        336         80          0          0   ROM Totals

==============================================================================

    Total RO  Size (Code + RO Data)                 2640 (   2.58kB)
    Total RW  Size (RW Data + ZI Data)              1128 (   1.10kB)
    Total ROM Size (Code + RO Data + RW Data)       2720 (   2.66kB)

==============================================================================

