:020000040800F2
:100000001047002049010008510100085301000871
:1000100055010008570100085901000800000000C0
:100020000000000000000000000000005B0100086C
:100030005D010008000000005F0100085112000887
:100040006301000863010008630100086301000800
:1000500063010008630100086301000863010008F0
:1000600063010008630100086301000863010008E0
:1000700063010008630100086301000863010008D0
:1000800063010008630100086301000863010008C0
:1000900063010008630100086301000863010008B0
:1000A00063010008630100086301000863010008A0
:1000B00063010008630100088D1300086301000854
:1000C0006301000863010008630100086301000880
:1000D0006301000825160008611600086301000886
:1000E0006301000863010008630100086301000860
:1000F0006301000863010008630100086301000850
:100100006301000863010008B913000863010008D7
:10011000630100086301000863010008630100082F
:10012000630100086301000863010008630100081F
:10013000DFF810D000F09EFA004800471B2F00089F
:10014000AFF300801047002006488047064800476C
:10015000FEE7FEE7FEE7FEE7FEE7FEE7FEE7FEE777
:10016000FEE7FEE781120008310100082DE9FE4399
:10017000994615468846074601AC022942D3002D10
:1001800040D000200290A8F101004FF0FF3600900F
:1001900022E000FB057201FB057011464A469047BC
:1001A000002805DC54F82600304444F8260013E00B
:1001B00060682A4600FB057154F8040C00FB0570CA
:1001C00007E00B7890F800C001F801CB00F8013B84
:1001D000521E002AF5D1764254F8040C6168884218
:1001E000D7DC4B462A463846FFF7C0FF54F8040CCC
:1001F0004B46A8EB0001401C00FB05702A46491E37
:10020000FFF7B4FFBDE8FE8340EA01039B0703D07C
:1002100009E008C9121F08C0042AFAD203E011F845
:10022000013B00F8013B521EF9D27047D2B201E007
:1002300000F8012B491EFBD270470022F6E710B5EB
:1002400013460A4604461946FFF7F0FF204610BD44
:1002500000F0004230F000400AD0C10D01F560719D
:10026000C0F3160042EA0151C2084007114370472B
:1002700000200146704730B50B4601460020202281
:10028000012409E021FA02F59D4205D303FA02F5A3
:10029000491B04FA02F52844151EA2F10102F1DC03
:1002A00030BD2DE9F05F0546002092469B4688460A
:1002B0000646814640241BE02846414647462246E2
:1002C00000F0F9F953465A46C01A914110D311462D
:1002D0001846224600F0E0F92D1A67EB01084F4658
:1002E00022460120002100F0D7F917EB00094E410A
:1002F000201EA4F10104DFDC484631462A4643466D
:10030000BDE8F09F2DE9FE4F804681EA0300C00F53
:100310000C46009021F0004123F00045B8EB0200AC
:10032000A94105D24046214690461C460B4602464E
:1003300023F00040104347D0270DC7F30A00C3F352
:100340000A510290401A019040286BDAC3F313005F
:1003500040F4801B0098924620B10023D2EB030AA0
:1003600063EB0B0B01985946C0F14002504600F078
:1003700093F906460D4650465946019A00F0ABF9EE
:1003800010EB08006141002487EA115284EAE77308
:100390001A4340D0009A62B3019A012A4FEA0752E9
:1003A00015DC001B61EB02014FF0004202EA07522C
:1003B000CDE90042001C41F5801132462B4600F089
:1003C000ABF903B0BDE8F08F40462146F9E7001BCA
:1003D00061EB0201001C41F5801300185B412018FD
:1003E000A2F5001747EB030140EAD570B6196D413D
:1003F00011E06D084FEA360645EAC0754FEA07522C
:10040000001B61EB0201001C41F5801149084FEA15
:1004100030000019514132462B4603B0BDE8F04F81
:1004200000F06BB90098012240000023D0EB0202DB
:1004300063EBE073009821464FEAE074B8EB0000EC
:1004400061EB0401E9E783F000435BE781F00041E1
:1004500058E72DE9FE4F81EA030404F0004421F03F
:10046000004100944FF0000B23F0004350EA0104D8
:100470005ED052EA03045BD0C3F30A54C1F30A55B9
:100480002C44A4F2F3340194A0FB0254C1F31301F1
:1004900041F48011C3F3130343F4801301FB0244BE
:1004A00000FB034E840A970A44EA815447EA8357C3
:1004B000A4FB076802958D0A05FB07854FEA932C7C
:1004C00004FB0C542705029D4FEA065847EA1637ED
:1004D000B5EB08056EEB070C870E920E47EA811705
:1004E00042EA8312A7FB0201B6EB0B0164EB0004A6
:1004F0002B0D43EA0C335E1844EB1C50DA46514690
:10050000E7FB0201C5F313044FEA0B3343EA14532C
:100510004FEA0432019C43EA0603A4F10C0402945E
:10052000009CCDE900B400F0F7F803B0BDE8F08F0F
:1005300000200146F9E72DE9F04D81EA030404F0BB
:10054000004B21F0004514464FF0000A23F0004113
:1005500050EA050220D054EA01021DD0C5F30A5723
:100560000246C5F31303C1F31300C1F30A5640F466
:10057000801543F48013A7EB0608101BD64608F23B
:10058000FD3873EB050002D308F1010801E0921871
:100590005B41B8F1000F03DA00200146BDE8F08DA1
:1005A00000204FF48011064684460EE0171B73EBC3
:1005B000050705D3121B63EB050306434CEA010C48
:1005C00049084FEA300092185B4150EA0107EDD12B
:1005D00052EA030012D082EA040083EA05010843CC
:1005E00005D0101BAB4106D20122002306E00022F9
:1005F0004FF0004302E06FF0010253101AEB0600C7
:100600004CEB085110EB0A0041EB0B01BDE8F04D3B
:1006100000F073B8C1F30A52C1F3130140F2FF3383
:1006200041F480119A4202DA00200146704740F2FC
:1006300033439A42A2F2334202DC524200F03BB80A
:1006400000F02AB830B5041E71F1000404DB4FF04D
:100650000044404264EB0101141E73F1000405DB09
:100660001C464FF00043524263EB0403994208BF1B
:10067000904230BD064C074D06E0E06840F00103B3
:1006800094E8070098471034AC42F6D3FFF754FDC6
:10069000F840000818410008202A04DB203A00FA3C
:1006A00002F1002070479140C2F1200320FA03F3C9
:1006B000194390407047202A04DB203A21FA02F0C7
:1006C0000021704721FA02F3D040C2F1200291408C
:1006D000084319467047202A06DBCB17203A41FA17
:1006E00002F043EAE07306E041FA02F3D040C2F1BF
:1006F0002002914008431946704710B5141E73F14B
:10070000000408DA401C41F1000192185B411A43D1
:1007100001D120F0010010BD2DE9F04D92469B461D
:1007200011B1B1FA81F202E0B0FA80F220329046C3
:10073000FFF7B2FF04460F4640EA0A0041EA0B0108
:1007400053465A46084313D0114653EA010019D0C4
:10075000C8F140025046FFF7AEFF05460E46504630
:1007600059464246FFF798FF084305D0012004E0B0
:1007700020463946BDE8F08D0020054346EAE07684
:100780002C4337430A986305E40AA0EB08000022D3
:10079000FD0A44EA47540A3002D500200146E9E741
:1007A000010510196941DDE9084500196941BDE8F5
:1007B000F04DA2E770B58C1810F8015B15F0070337
:1007C00001D110F8013B2A1106D110F8012B03E0EA
:1007D00010F8016B01F8016B5B1EF9D12B0705D4F2
:1007E0000023521E0DD401F8013BFAE710F8013B3B
:1007F000CB1A921C03E013F8015B01F8015B521E57
:10080000F9D5A142D8D3002070BD2DE9F0410546AD
:100810000E4632461221284600F0D4F8044614B998
:100820000A20BDE8F08135F81410601E35F810007C
:10083000091A601E35F81000301A00EB800090FB9A
:10084000F1F1601E00EB80000A300844C7B2384660
:10085000E7E7000070B505462A4664210F4800F01E
:10086000EBF804460CB9002070BD601E0B4931F84E
:10087000100031F81410411A601E084A32F81000B6
:10088000401B00EB8000400090FBF1F1601E00EB8C
:10089000800001EB40063046E6E70000D03F00084C
:1008A00010B540F20A6002F0EFFC022002F00AFCF0
:1008B000194801F011FD0021174801F00FFE00203A
:1008C00001F080FD00220221134801F020FE0021EA
:1008D000114801F0F6FC012211460F4801F0CEFC50
:1008E00006230E2200210C4801F09EFD4FF46022E9
:1008F0000121094801F044FD01221146064801F09A
:1009000020FD054801F014FD142000F07FF8024896
:1009100001F09FFC10BD00000028014010B540F21E
:10092000096002F0B1FC022002F0CCFB1F4801F08C
:10093000D3FC00211D4801F0D1FD002001F042FD53
:1009400001220221194801F0E2FD0021174801F0BF
:10095000B8FC01221146154801F090FC07230D2236
:100960000021124801F060FD4FF4602201210F4880
:1009700001F006FD012211460C4801F0E2FC0C23B7
:1009800080220021094801F02BFD084801F045FDB7
:10099000064801F0CDFC142000F038F8034801F0BF
:1009A00058FC0121014801F0A3FD10BD00240140C5
:1009B00010B500F04BFB024800F066FD10BD0000D2
:1009C00021140008F0B503460C4615460022671EA8
:1009D0007EB20021002010E0B71A07EBD77C02EBB3
:1009E0006C0C4FFA8CF133F81170AF4202D24F1CED
:1009F0007AB202E04F1E7EB20846B242ECDDF0BD94
:100A0000024610880B88C01A7047000070B5044673
:100A100007484568012002F08BFB0649B0FBF1F066
:100A2000444300BF02484068401BA042FAD370BD57
:100A3000001000E040420F00F0B503460C4615469A
:100A40000022671E7EB20021002010E0B71A07EBDB
:100A5000D77C02EB6C0C4FFA8CF133F81170AF427B
:100A600002DD4F1C7AB202E04F1E7EB20846B2424F
:100A7000ECDDF0BD10B500F009F800F055FC00F019
:100A80004BFE00F0C1FB00F091FA10BD0C4800686D
:100A900020F080700A4908600846006840F08070C5
:100AA00008600848006820F0010006490860084610
:100AB000006840F0010008600020486070470000B6
:100AC000FCED00E0001000E02DE9F04105460C4689
:100AD0001CB128192B49884202D90020BDE8F081B9
:100AE0004FF00008C5F30A07002602F03DF9C7F5EC
:100AF0000060A04234D240F2073002F041F82846AC
:100B000002F0C0F8064606B138E0C7F500600544BB
:100B1000C7F50060241AC4F3C7280DE040F207307F
:100B200002F02EF8284602F0ADF8064606B125E0A0
:100B300005F50065A4F50064B8F10000A8F1010115
:100B400001F0FF08EAD1C4F30A0098B140F207307F
:100B500002F016F8284602F095F8064656B10DE068
:100B600040F2073002F00CF8284602F08BF80646F7
:100B700006B103E002F070F80120AFE702F06CF874
:100B80000020ABE7FFFF070810B501210D4802F078
:100B9000BCF908B9012000E00020044622460121EA
:100BA000084802F04FF90221064802F0AEF908B9F0
:100BB000012000E00020044622460221014802F004
:100BC00041F910BD000C01402DE9F04106460C46EC
:100BD000052094FBF0F0C5B2052094FBF0F100FB7A
:100BE000114050B905EBC500194A02EB80012422DF
:100BF0003046FFF709FBBDE8F081002024E0052125
:100C000094FBF1F201FB12416A1C02EBC202104B91
:100C100003EB820232F8102005EBC5030C4F07EB03
:100C2000830333F81030D21A5143052291FBF2F1BD
:100C300005EBC5023B4603EB820232F8102011445B
:100C400026F81010411CC8B21228D8DB00BFD2E72A
:100C5000FC3D000810B500BF0221074801F0ABFBC6
:100C60000028F9D0044801F035FC0446022102486E
:100C700001F09EFB204610BD0028014010B500BFCA
:100C80000221074801F097FB0028F9D0044801F041
:100C900021FC04460221024801F08AFB204610BDD7
:100CA00000240140014800787047000064010020E2
:100CB00010B5044604B910BD00F008F884ED010A2F
:100CC000FFF7F0FF207000BFF5E70000014890ED4E
:100CD000000A7047A001002010B540F2046002F045
:100CE000D3FA1023012200210E4802F0B0F840F29E
:100CF000036002F0C9FA01231A4610210A4802F0E3
:100D0000A6F8022301221021074802F0A0F80122D0
:100D10001146054802F096F800220221024802F02E
:100D200091F810BD00100140000C014010B540F2D8
:100D3000046002F0A9FA082301220021014802F010
:100D400086F810BD0010014010B50949088802F06E
:100D50009BFA07498B6801224868042102F077F862
:100D60000349CB6801224868182102F070F810BDD1
:100D7000A801002000B52DED028B83B001A8FFF77C
:100D800097FF9DED020A10EE101A0846FFF760FA71
:100D900041EC180B9DF8040053EC182B009003A0B5
:100DA00000F0A2FD03B0BDEC028B00BD74656D7058
:100DB00065726174757265203D20252E316620A113
:100DC000E62C2068756D6964697479203D2025647E
:100DD00025252E0A0000000010B5FFF77DFFFFF764
:100DE0005FFD4FF47A7000F09BFB10BD10B58AB028
:100DF00004463C2C00DD3C24242101A8FFF71DFA09
:100E0000214601A8FFF7E0FE0448018801A8FFF78A
:100E1000FCFC034908700AB010BD00006601002008
:100E20006401002010B5ADF5825D002004E00DF6F0
:100E30003C021054411C88B2B0F5006FF7DD00246D
:100E400007E00DF63C00015D27A000F04DFD601CA1
:100E500084B2B4F5006FF4DD25A000F045FD40F646
:100E600001012748FFF730FE10B926A000F03CFD35
:100E70000DF63C0240F60101214800F0EFFC10B9EC
:100E800028A000F031FD2FA000F02EFD0EAA40F6A4
:100E900001011B4800F09EF910B92EA000F024FDBE
:100EA000002418E00EA8005D0DF63C01095D8842A3
:100EB0000AD00EA8015D2FA000F016FD2FA000F0B3
:100EC00013FD0DF5825D10BD0EA8015D29A000F097
:100ED0000BFD601C84B2B4F5006FE3DD2EA000F0C2
:100EE00003FD00BFEDE700003078253032782000A8
:100EF0000ABFAACABCD0B4C8EB2E2E2E0A0000002E
:100F000000F007080A496E666C617368B2C1B3FDF0
:100F1000CAA7B0DCA3ACC7EBC5C5B2E9B4EDCEF34C
:100F20000A0000000A496E666C617368D0B4B2D9D9
:100F3000D7F7CAA7B0DCA3ACC7EBC5C5B2E9B4ED1F
:100F4000CEF30A000ABFAACABCB6C1C8A12E2E2E73
:100F50000A0000000A496E666C617368B6C1B2D9B6
:100F6000D7F7CAA7B0DCA3ACC7EBC5C5B2E9B4EDEF
:100F7000CEF30A003078253032582000466C617379
:100F800068B2E2CAD4B9CAD5CFA3ACC7EBC5C5B263
:100F9000E9A3A10A000000000A466C617368B2E28E
:100FA000CAD4CDA8B9FDA3A10A00000010B5002441
:100FB00024E004EB4401134A32F8210002F064F902
:100FC00004EB44010F4A02EB81018B6804EB4401FE
:100FD00002EB810102224868102101F038FF04EB86
:100FE0004402084B03EB8202916804EB440203EBDA
:100FF0008202506801F022FF601CC4B2032CD8D3D7
:1010000010BD00004001002010B502460023002062
:1010100004E052F820402344441CE0B28842F8DB4C
:1010200093FBF1F010BD000070B504460D46064B71
:10103000042229462046FFF799F8A81EC1B2201DB8
:10104000FFF7E2FF70BD0000010A00081FB5044B66
:101050000FCB8DE80F00684600F04EF81FBD000072
:10106000EC3B000810B501F09BFB10BD70B50446C9
:10107000082001F05BFF05462846FFF719FE287897
:1010800000EB800040002080284601F0AFFE00BF4A
:1010900070BD1CB504466846FFF70AFE9DED010AC7
:1010A000F2EE040A20EE200ABCEEC00A10EE100A8E
:1010B00020801CBD10B504461CB9002000F086FA43
:1010C00002E0002000F098FA10BD10B504461CB9EB
:1010D000012000F07BFA02E0012000F08DFA10BD43
:1010E00010B504461CB9022000F070FA02E002209C
:1010F00000F082FA10BD000038B5044600200090D0
:1011000021780246636801F0DBFA0348D4E9021251
:1011100006C001F029FA38BD2C01002009490A4A0D
:10112000127841F8220008490978491C064A1170D2
:10113000114609780A2291FBF2F302FB1311024ACD
:1011400011707047E4020020A40100202DE9F0474F
:1011500005468846914615B90220BDE8F08700246F
:1011600031E00026002727E0194800EB07104088EF
:1011700008EB0401884200D01CE0154800EB07167C
:10118000307800F0010008B90220E6E7B06880B1CD
:10119000022202FB0450B168884715F814A06000D1
:1011A000401C285C05F814006000401C05F800A0F5
:1011B00000BF00BF781CC7B2052FD5D30EB90120E0
:1011C000CBE7601C84B24C45CBDB0020C5E70000B8
:1011D0002400002030B5034614465818074DA84295
:1011E00001D9002030BD1A46002003E015782554AF
:1011F000521C401C8842F9D30120F3E7FFFF070887
:1012000010B500F007F810BD10B500F043F9FFF776
:10121000E3FD10BD10B500F043F9FFF757FDBCEE3C
:10122000C00A10EE100AC4B22046FFF7DFFD10BD61
:1012300010B50649488B02F027F804490B6A0322CF
:10124000C869102101F003FE10BD0000A8010020B4
:1012500010B5094802684068521C40F10000064978
:101260000A6048600548006800B910BD034800687E
:10127000804700BFF9E700007801002070010020DE
:1012800008B52648006840F47000244908602448E6
:10129000006840F001002249086000BF2048006853
:1012A00000F002000028F9D000BF1D48406840F05F
:1012B00080001B4948600020009002E00098401C1C
:1012C000009000985028F9D31548406840F09000ED
:1012D000134948600020009002E00098401C0090F4
:1012E00000985028F9D300BF0D48406820F0030053
:1012F0000B494860084600680A49084008490860E8
:101300004FF41F0088600846006820F480200860C1
:1013100000204860C86202F071F808BD88ED00E066
:1013200000100240FFFFF6FE70B5012001F000FF43
:101330004FF47A71B0FBF1F4601EB0F1807F01D3FD
:1013400001201BE0601E4FF0E021486148170F218B
:10135000002807DA0A07150E0A4A00F00F031B1FC0
:10136000D55403E00A07130E074A135400BF0020A8
:101370004FF0E021886107200861002008B100BF1C
:10138000FEE770BD18ED00E000E400E010B509498B
:101390004868012102F007F958B10649486801215F
:1013A00002F0FEF803494868002102F02BF801F032
:1013B00071FE10BDCC01002010B50121144802F0CF
:1013C000F2F818B30121124802F0EAF81148008837
:1013D000401C10490880088800EBD0714910A0EB30
:1013E000410109B9FFF7D0FB0A4800884FF4C871E2
:1013F00090FBF1F201FB1200012807D10121064800
:1014000001F076F8FFF726FC0449088010BD0000C3
:10141000000C004068010020002801406601002007
:1014200000202BE000EB4001164A02EB81014988C5
:1014300011B300EB400102EB81014988491E00EB2A
:101440004002104B03EB8202518000EB40011A4630
:1014500002EB8101498879B9012100EB400203F8D0
:10146000221000EB40011A4602EB8101898800EB53
:10147000400203EB82025180411CC8B20328D1D341
:10148000704700000000002001490860704700001C
:101490007001002010B5FFF749FCFFF73FFA10BDBF
:1014A00070B5FFF7EBFB05462846FFF7D3F9044676
:1014B00020B2FFF733FE17480078401C154908702A
:1014C0000846007803280CDA134890ED000AB8EEBD
:1014D000C00AF2EE040A80EE201A104880ED001ACD
:1014E00070BD0C4800780A2802DD0A2009490870FE
:1014F000084801780848FFF797FD00EE100AB8EE9B
:10150000C00AF2EE040A80EE201A044880ED001AA8
:1015100000BFE5E7A5010020E4020020A0010020B3
:101520001FB5044640F2037001F0AEFE104801F012
:101530006BFF684602F043F87720ADF8000000200A
:10154000ADF80200ADF80400601E0290694608483C
:1015500001F0D2FF0121064802F01EF800221146D8
:10156000322001F019FD024801F0C1FF1FBD00004B
:10157000000C00401FB504461349488801F084FE62
:101580001149486801F040FF684602F018F841F23E
:101590006F70ADF800000020ADF80200ADF8040057
:1015A000601E029008494868694601F0A5FF064997
:1015B0004868012101F0F0FF034908780022114634
:1015C00001F0EAFC1FBD0000CC01002010B504466C
:1015D000032C00D910BD04EB4402064B03EB82023E
:1015E000916804EB440203EB8202506801F026FC90
:1015F00000BFEFE74001002010B50446032C00D9DE
:1016000010BD04EB4402064B03EB8202916804EB2D
:10161000440203EB8202506801F012FC00BFEFE7C6
:101620004001002010B50B4908680B4902F0C9F8C9
:1016300070B108490868084902F0BAF80549086815
:1016400002F036F8C4B2204604490968884700BF52
:1016500010BD000080010020050305009C01002052
:1016600010B50D4948690D4902F0ABF830B10A498F
:1016700048690A4902F09CF801F01CFD06494869D6
:10168000074902F09EF830B103494869044902F065
:101690008FF801F007FD10BDA80100200603060029
:1016A0000503050010B504461A49088A01F0ECFD4F
:1016B0001849486902F006F816494869002102F005
:1016C000C0F814494869002102F097F811494869A7
:1016D000002102F0A4F80F494869214601F096FF65
:1016E0000C494869002101F0D9FF0A4948690821DD
:1016F00002F09DF807494869042102F086F805497F
:10170000087E0022114601F047FC0249486902F0B8
:1017100021F810BDA801002010B500F005F84FF425
:10172000E13000F017F810BD10B50949888901F0C3
:10173000ABFD07490B6901228868182101F087FB7E
:1017400003494B6901228868482101F080FB10BDE4
:101750008001002010B504461B49888801F094FDE3
:101760001949086801F0AEFF17490868002102F026
:1017700068F815490868002102F03FF81249086826
:10178000002102F04CF810490868214601F03EFFA4
:101790000D490868082102F04AF80B49086804213D
:1017A00002F033F80849086840F2053101F0F3FF10
:1017B0000549087E0022114601F0EEFB0249086847
:1017C00001F0C8FF10BD0000800100202DE9F047A6
:1017D00006468946924616B90220BDE8F0870025E4
:1017E00036E0002400272CE01B4800EB071040885F
:1017F00009EB0501884200D021E0174800EB0714EF
:10180000207800F0020008B90220E6E716F815007B
:101810004FF47F4101EA00206900491C715C40EAF5
:101820000108A088404502DCE088404501DA02203A
:10183000D3E7E06810B14046E168884700BF781CF4
:10184000C7B2052FD0D30CB90120C6E7681C85B2FA
:101850005545C6DB0020C0E7240000202DE9F041FB
:1018600006460C46154625B130191E49884200D857
:1018700014B90020BDE8F08106F0010008B1002095
:10188000F8E7002701F070FAB84610E040F20730A0
:1018900001F076F92988304601F082F9074607B150
:1018A0001CE0B61CAD1C08F101001FFA80F8B8EB73
:1018B000540FEBD304F0010060B140F2073001F0A7
:1018C0005FF9288840F47F41304601F069F9074606
:1018D00007B103E001F0C0F90120CBE701F0BCF94A
:1018E0000020C7E7FFFF07080FB4054B10B503A999
:1018F000044A029800F028F910BC5DF814FB0000BF
:10190000AD2D0008D80100200EB507460E4614463E
:1019100019491AA001F05EFA1749384601F05AFA3F
:1019200015491CA001F056FA1349304601F052FA4D
:1019300011491AA001F04EFA03AD0021681E0546B8
:1019400001700A21681E054601700CE00A2094FB14
:10195000F0F100FB11403030C1B2681E0546017045
:101960000A2094FBF0F4002CF0DC0349284601F037
:1019700031FA00F06CFC0000D40100202A2A2A2051
:10198000617373657274696F6E206661696C6564FA
:101990003A2000002C2066696C6520002C206C69C0
:1019A0006E65200002E008C8121F08C1002AFAD1A3
:1019B00070477047002001E001C1121F002AFBD1CF
:1019C000704700002DE9FF5F82B00021DDE904309F
:1019D000020DDDF840B0034318D044F61050A2F2D7
:1019E000FF3242431514119801281FD0A5EB0B00BC
:1019F000401C5FEA000A4FF000064E4FDFF83891B6
:101A0000B046504615D5CAF1000413E011980124E0
:101A10004AA3012801D16FEA0B010298119AC0E98B
:101A20000031C0E9024206B0BDE8F09FCBF10000F2
:101A3000DFE704460021404A491842EB0450CDE953
:101A4000001012E0E00707D032463B4640464946C8
:101A5000FEF7FFFC8046894632463B461046194653
:101A6000FEF7F7FC06460F466410002CEAD1DDE9CC
:101A70000401DDE90023BAF1000F06DAFEF7E9FC04
:101A800042464B46FEF7E5FC05E0FEF754FD4246B4
:101A90004B46FEF750FD04460E460022284BFEF74B
:101AA000D1FD03D84FF0FF30014607E00022254B5F
:101AB00020463146FEF726FCFEF7ACFD102409E077
:101AC000002C0ADB0A220023FEF7EBFB039B3032DB
:101AD0001A55641E50EA0102F2D1641C039AC4F143
:101AE00011031444119A012A03D0012208430DD195
:101AF0000AE0084304D000204FF0110B119072E768
:101B0000A3EB0B056D1E0DE05B4504DD4FF00002FD
:101B100005F1010504E003DA4FF00002A5F101052B
:101B2000002AECD002981199C0E90231C0E90045C1
:101B300079E70000000014400000F03F3000000092
:101B40000000F0430000E03F2DE9FF4F95B09A46BA
:101B5000884606460025EEE1252877D10024274651
:101B6000F94A0121039400E0044316F8013F203BA9
:101B700001FA03F01042F7D130782A2811D06FF023
:101B80002F033078A0F13002092A16D8039A44F0C6
:101B9000020402EB820203EB42021044761C039023
:101BA000EFE758F8042B0392002A03DA504244F47A
:101BB0000054039044F00204761C30782E2816D18D
:101BC00016F8010F44F004042A280DD06FF02F02FC
:101BD0003078A0F13003092B09D807EB870302EB1B
:101BE0004303C718761CF3E758F8047B761C30785B
:101BF0006C280FD006DC4C2817D068280DD06A2836
:101C000014D104E0742810D07A280FD10DE044F4E8
:101C100000140AE044F4801401E044F440147278A3
:101C2000824202D104F58014761C761C3078662836
:101C30000BD013DC582877D009DC002875D0452854
:101C4000F6D04628F4D047281AD193E118E063284B
:101C500035D0642879D0652812D18BE1702873D0F3
:101C600008DC6728F1D069286FD06E280DD06F2866
:101C700006D1ACE073282CD0752874D0782853D0C6
:101C80005246179990476D1C54E1C4F30250022844
:101C900009D003280DD0D8F8001004280DD00D600D
:101CA00008F1040846E1D8F80010EA17C1E900522B
:101CB000F6E7D8F800100D80F2E70D70F0E718F89D
:101CC000041B8DF8001000208DF80100EB46012068
:101CD00003E058F804BB4FF0FF3061074FF00001FC
:101CE00002D40DE009F101018946B9420FDA8145BC
:101CF000F8DB1BF809100029F4D108E009F1010113
:101D000089468142FADB1BF809100029F6D10398B5
:101D10005346A0EB090721463846179A00F080FA8F
:101D2000284400EB090507E044E008E10DE01BF85A
:101D3000010B524617999047B9F10109F7D2534662
:101D400021463846179AF2E039E00A21C4F30252DC
:101D50004FF0000B0091022A06D058F8040BC1176F
:101D6000032A09D00AE023E008F1070020F0070267
:101D7000F2E80201904605E000B2C117042A01D141
:101D800040B2C117002906DA0A460021404261EB41
:101D900002012D2202E0220504D52B228DF8042019
:101DA000012203E0E20701D02022F7E7914657E045
:101DB0000A2100E010214FF0000B00910BE01021F0
:101DC0004FF0000B44F004040827009103E00820C2
:101DD0004FF0000B0090C4F30252022A05D058F8CD
:101DE000040B0021032A08D008E008F1070020F0C6
:101DF0000702F2E80201904603E080B2042A00D113
:101E0000C0B24FF0000922072AD53278702A07D0D5
:101E1000DDF800C08CF0100C5CEA0B0C05D00EE075
:101E200040228DF80420012208E050EA010306D088
:101E300030238DF804308DF8052002229146009B56
:101E400083F0080353EA0B030AD150EA010201D1DF
:101E5000620705D530228DF804204FF001097F1E5E
:101E60003278582A04D039A20C920CAA02920BE0C4
:101E70003BA2F9E75B46009AFEF713FA0C9B9B5CCA
:101E8000029A521E0292137050EA0102F2D1029895
:101E900004A9081A00F1200B600702D524F480344D
:101EA00000E001275F4502DDA7EB0B0000E000200A
:101EB00000EB0B01009003984944401A0390E003A3
:101EC00006D453462146179A039800F0A9F9054411
:101ED000002706E001A85246C05D179990476D1C87
:101EE0007F1C4F45F6DBE0030CD553462146179A7D
:101EF000039800F095F9054404E030205246179904
:101F000090476D1C0099481E00900029F5DC08E000
:101F10000298029952460078491C029117999047FD
:101F20006D1CBBF10001ABF1010BF1DC5BE100F0DA
:101F300065F90544761C307800287FF40DAE19B0A1
:101F40002846BDE8F08F0000092801003031323307
:101F500034353637383961626364656600000000E5
:101F600030313233343536373839414243444546CF
:101F700000000000600700D4062708F1070020F0E9
:101F80000700F0E80223804603F0004C5FEA0C00F3
:101F900001D097A009E0200501D596A005E0E00753
:101FA00001D095A001E0AFF24C001390307823F0FF
:101FB000004365280CD006DC452809D046281DD0F2
:101FC00047287FD13BE0662818D067287AD136E0D1
:101FD0000021112F01DB112000E0781CCDE9000168
:101FE00004A90CA8FFF7EEFCDDE90D010C9A4FF0F7
:101FF000000B07F10109109200914EE04FF00040F4
:102000000097CDE9011004A90CA8FFF7DBFCDDE97E
:102010000D020C9B0F994FF0000B9146109300920C
:1020200011B9791C00EB0109B7EB090003D4C0F129
:10203000FF3B07F10109A9EB0700019042E0012FE6
:1020400000DA01270021112F01DD112000E03846C0
:10205000CDE9000104A90CA8FFF7B4FCDDE90D01EE
:102060000C9A00914FF0000BB946109221070FD443
:10207000009A4A4503DA914601E0A9F10109B9F154
:10208000010F05DD109AA9F10101515C3029F4D04E
:10209000B84202DA10F1040F03DA0121CDE9011090
:1020A00010E0002803DC8344A9EB000102E0411C9E
:1020B000494500DD8946A0EB0B00401C01904FF024
:1020C00000400290200705D40198484502DB4FF0FC
:1020D000FF30019000208DF84B0002980DF14B0766
:1020E000B0F1004F25D002200C902B200D900298CB
:1020F00000280CDA404202902D200D9007E00A21C2
:102100000298FEF7B8F83031029007F8011D0C99DB
:10211000481E0C900029F2DC02980028EFD1791EAD
:102120000D980870307800F0200040F0450007F866
:10213000020D11A8C01BC01D02901398007800B1B9
:10214000012000EB0901019801EBE07102980144C4
:102150000398401A401E0390E00306D453462146DC
:10216000179A039800F05CF805441398007818B1AA
:102170005246179990476D1CE00323D553462146DC
:10218000179A039800F04CF805441BE0BBF1000FD0
:1021900007DB0098584504DD1098179910F80B00DC
:1021A00001E0179930205246904701980BF1010B3E
:1021B000401E05F10105019004D12E2052461799C9
:1021C00090476D1CB9F10001A9F10109DEDC05E0C1
:1021D00017F8010B5246179990476D1C0299481E3B
:1021E00002900029F4DC53462146179A03989EE694
:1021F0002D0000002B000000200000002DE9F04120
:10220000044600251E461746880404D405E03946D6
:102210002020B0476D1C641EF9D52846BDE8F0812A
:102220002DE9F041044600251E469046C80301D51D
:10223000302700E02027880404D505E041463846D1
:10224000B0476D1C641EF9D52846BDE8F08100BF7B
:10225000FEE7816841F00801816000BF816801F0FC
:1022600008010029FAD1816841F00401816000BFB2
:10227000816801F004010029FAD1704730B50129C5
:1022800002D002291AD10CE0C36A23F47003C3629E
:10229000C36A541E4FF4700505EA04542343C36215
:1022A0000DE0836B23F440138363836B541E4FF460
:1022B000401505EA04542343836300E000BF00BFD8
:1022C00030BD21B1826842F40062826003E082681E
:1022D00022F400628260704710B50446134820441F
:1022E00030B1B0F5806F0CD0B0F5C05F1BD111E0FC
:1022F00040F2093000F0E8FF40F2093000F0D4FF6E
:1023000012E040F20A3000F0DFFF40F20A3000F045
:10231000CBFF09E040F20F3000F0D6FF40F20F3063
:1023200000F0C2FF00E000BF00BF10BD00DCFEBF38
:10233000816801F0010119B9816841F001018160F2
:10234000704772B101F001031BB1836843F480133D
:10235000836001F0020393B1836843F40043836018
:102360000DE001F001031BB1836823F48013836047
:1023700001F002031BB1836823F4004383607047BC
:10238000012902D0022910D107E0836823F46023D9
:10239000836083681343836008E0836823F4E04329
:1023A000836083681343836000E000BF00BF704711
:1023B000CA43026070470246002013680B4003B115
:1023C000012070470549096821F47021034A116012
:1023D0001146096801431160704700000424014060
:1023E00030B5B1F5007F06D1D0F8804044F40074D8
:1023F000C0F8804005E0D0F8804024F40074C0F8B4
:10240000804050F8804F24F4FE740460046842EA6F
:1024100003052C4340F8804930BDD0F8801041F0CE
:102420000101C0F880107047F0B51D4606290CD296
:10243000436B01EB81071F26BE40B34301EB8106CE
:1024400002FA06F63343436322E00C290ED2036BF3
:102450008E1F06EB86071F26BE40B3438E1F06EB7A
:10246000860602FA06F63343036311E010290FD201
:10247000C36AA1F10C0606EB86071F26BE40B343D4
:10248000A1F10C0606EB860602FA06F63343C36298
:102490000A2A0CD2046902EB42070726BE40B44365
:1024A00002EB420605FA06F63443046111E0122AF3
:1024B0000FD2C468A2F10A0606EB46070726BE4003
:1024C000B443A2F10A0606EB460605FA06F63443C3
:1024D000C460F0BD0146C86C80B2704750F8802FD0
:1024E00022F44052026002680A4340F88029704793
:1024F00001F001021AB1826842F48002826001F0A8
:1025000002021AB1826842F4001282607047AAB1D6
:1025100001F480731BB1436843F48073436001F49A
:1025200080631BB1436843F48063436001F002039E
:10253000CBB1836843F00203836014E001F480733D
:102540001BB1436823F48073436001F480631BB1C3
:10255000436823F48063436001F002031BB1836886
:1025600023F002038360704710B50024064800780A
:10257000012806D1054800688047002002490870FC
:1025800000E00624204610BD760000207C000020DC
:102590002DE9F04705460C464FF0000A2088052833
:1025A00034D168784FEA0029A87840EA0909E87828
:1025B000060228790643012E25DB7D2E23DC2F46DB
:1025C00000202080032007F8010B2088401C208079
:1025D0007006000E07F8010B2088401C20800023A5
:1025E00032464946384600F05BFA8046B8F1000FA3
:1025F00004D0404600F03CFD824609E0208800EB14
:102600004600208004E04FF0030A01E04FF0030A87
:102610005046BDE8F0872DE9F04104460E464FF0E4
:1026200000083088052810D160780702A078074399
:1026300001231A463946E01C00F032FA054635B14E
:10264000284600F015FD804601E04FF003084046A3
:10265000BDE8F0812DE9F04704460E464FF0000A30
:102660003088062826DB60784FEA0028A07840EA08
:102670000808E07805022079054394F80590012DBB
:1026800015DB782D13DC6806000E48450FD10123B9
:102690002A464146A01D00F003FA074627B13846F6
:1026A00000F0E6FC824607E00520308004E04FF0B1
:1026B000030A01E04FF0030A5046BDE8F08700002E
:1026C0002DE9F04705460C4616461F46DDF82090DA
:1026D0004FF000081CB1012C01DBF72C02DD4FF09C
:1026E000020835E01C48047005BB1C481C49086002
:1026F0001C481D4908601D481D4908601D481E49A9
:10270000086000201D4908601D481E4908601E48D9
:102710001E4908601E481F4908604B463A4631462C
:102720000D48007800F0D8F8804602E04FF002082B
:1027300000BF00BFB8F1000F0AD101F003F910B9D2
:102740004FF0030804E01448057001201349087095
:102750004046BDE8F087000074000020752A00089C
:102760007C000020912A000880000020CD2900086C
:10277000780000202929000884000020880000201B
:10278000CD3900088C0000202D3B0008900000206F
:10279000A53A000894000020750000207600002073
:1027A00038B500254148007808B1062038BD684694
:1027B00001F0B6F8012877D19DF8000030B101286A
:1027C00005D0022818D003286DD16BE06BE0384AA1
:1027D00038493948394B1B68984705465DB9364832
:1027E000007837490978884202D03348007810B918
:1027F000022001F0AFF856E02E4800680078314919
:102800000870012030490870002417E02F4810F8A4
:10281000340000B914E02D4810F834002949097833
:1028200088420AD1294800EBC40021494268214866
:10283000006890472449087002E0641C102CE5DB16
:1028400000BF1D48007858B31F480078C8B1002069
:10285000174908801B48007840F08001144802881E
:102860000088401C124B188012480068815416489A
:102870000278184601880088401C18800D480068BE
:10288000425413480078012800D100BF084802884C
:10289000084801680A4800780E4B1B6898470546AF
:1028A00001E001E000BF00BF00207FE776000020CC
:1028B00026010020200100202401002084000020A7
:1028C000740000202501002028010020A000002025
:1028D00075000020780000202DE9F04781460E4663
:1028E00014461F464FF000083B460822214630465A
:1028F00001F048F8012802D04FF003080FE0B4F5CA
:10290000964F01D9232503E060000649B1FBF0F59D
:10291000A8B201F053F8012801D04FF00308404657
:10292000BDE8F087A07F17002DE9F04104460D4671
:102930001646002711480088FF2800DC04E09B228F
:102940000FA117A0FEF7E0FF0C480088042810DB59
:102950000A4801881C4800F03DFE50B91A4800782A
:10296000207006480088C01E30801748401C286030
:1029700000E005273846BDE8F08100003E01002058
:102980004D6964646C65776172655F4D6F646275F3
:10299000735C7274755C6D627274752E63000000F6
:1029A0007573526376427566666572506F73203C2C
:1029B000204D425F5345525F5044555F53495A453D
:1029C0005F4D415800000000E40100202DE9F04176
:1029D00005460E4617464FF00008214800780128AA
:1029E00038D1701E1F49086001201F4908801D480A
:1029F0000068057008460088384408800846018849
:102A00001848006800F0E6FD044617490888411C94
:102A1000154B198015490C54221219460888411C7F
:102A2000198012490A540120114908700D4909689A
:102A3000087800F0B7FF0B480068401C094908609F
:102A400009480088401E084908800121002000F044
:102A500001FF01E04FF005084046BDE8F0810000AD
:102A600035010020380100203C010020E401002055
:102A70003401002010B50020044908700021012015
:102A800000F0E8FE00F034FF10BD0000350100202A
:102A900010B50021084600F0DDFE00F011FF10BD6A
:102AA0002DE9F04106460F4690461D46012D07D1FF
:102AB000084842463946036830469847044606E0CF
:102AC0000448424639464368304698470446204603
:102AD000BDE8F0812C01002000B50346012200BFB3
:102AE00000F00CF802465B1E012A01D1002BF7D141
:102AF000012A00D10422104600BD000000200A492E
:102B0000C96801F0010109B101200CE00649C9685A
:102B100001F0100109B1032005E00349C96801F083
:102B2000040101B1022070470020024000B50346B5
:102B3000012200BF00F00CF802465B1E012A01D101
:102B4000002BF7D1012A00D10422104600BD00005D
:102B500000200A49C96C01F0010109B101200CE013
:102B60000649C96C01F0100109B1032005E00349D1
:102B7000C96C01F0040101B102207047002002403D
:102B8000064A02EB9011096800F01F0301229A40E7
:102B90001143024B03EB901211607047002002407A
:102BA00070B504460D46002627480088B0F5007F22
:102BB00031D92648844217D22548FFF78DFF0646B3
:102BC000002E3ED12348006940F0010021490861F0
:102BD00025801F48FFF780FF06461E48006920F049
:102BE00001001C4908612CE01948FFF79FFF0646C9
:102BF0003EBB1848006D40F001001649086525806D
:102C00001348FFF793FF06461248006D20F00100BD
:102C10001049086515E00E48FFF75EFF064686B9C5
:102C20000C48006940F001000A4908612580084805
:102C3000FFF752FF06460748006920F001000549EA
:102C40000861304670BD0000E0F7FF1FFFFF070876
:102C50000000FF0F002002400848006940F080009B
:102C60000649086106480088B0F5007F04D9084687
:102C7000006D40F0800008657047000000200240B1
:102C8000E0F7FF1F30B5054633480088B0F5007FF8
:102C900044D9324885421CD23148FFF71DFF044613
:102CA000002C56D12F48006940F002002D490861E0
:102CB00008464561006940F0400008612848FFF778
:102CC0000BFF04462748006920F0020025490861EF
:102CD0003FE02348FFF72AFF0446002C39D1214862
:102CE000006D40F002001F49086508464565C0694F
:102CF00000F0020008B1084645611A48006D40F036
:102D00004000184908651648FFF710FF04461548AB
:102D1000006D20F00200134908651AE01048FFF723
:102D2000DBFE0446ACB90F48006940F002000D49D3
:102D3000086108464561006940F0400008610848A4
:102D4000FFF7CAFE04460748006920F00200054963
:102D50000861204630BD0000E0F7FF1FFFFF0708B5
:102D60000000FF0F002002400C48006900F08000C6
:102D700020B10B48094948600A4848600A48008861
:102D8000B0F5007F09D90548006D00F0800020B142
:102D900003480249486403484864704700200240E1
:102DA00023016745AB89EFCDE0F7FF1F70B50446FF
:102DB0000D46E1B2064A106800F07FFC00BF0449EE
:102DC0000868072100F0CBFC0028F8D0204670BD31
:102DD0008001002070B50D46044602E02946FFF749
:102DE000E5FF14F8010B0028F8D170BD10B50028DC
:102DF00021D0114B0022001F196803E0814203D843
:102E00000A4649680029F9D152B11368841A9C42D4
:102E100004D1006818441060104602E0506000E0E1
:102E2000186039B102680B1A934203D10B681A4437
:102E300002604968416010BDDC01002041617047BB
:102E4000016170470AB1016100E041617047F0B56E
:102E5000044616460025002201F00F0501F0100778
:102E600047B1042E05D145F00305E76B1F43E76327
:102E700000E0354300201EE0012787401F40C7B116
:102E800022684FEA800C0F2707FA0CF7BA43870035
:102E900005FA07F73A43282904D1012787401F4044
:102EA000676105E0482903D1012787401F4027615A
:102EB0002260471CB8B20828DED3082022E0012790
:102EC00087401F40E7B16268A0F108074FEA870C0E
:102ED0000F2707FA0CF7BA43A0F10807BF0005FA5D
:102EE00007F73A43282904D1012787401F4067612B
:102EF00005E0482903D1012787401F402761626010
:102F0000471CB8B21028DAD3F0BD0246D06808409A
:102F100008B1012070470020FCE7FDF7ABFDFDF78D
:102F200047FDFDF77FFF00BFFEE70000F0B50B3067
:102F3000154D20F007010024144A0FE003688B426E
:102F40000BD38B4205D95E1A43184768C3E9006763
:102F500000E04368136002C004E0021D106800280E
:102F6000ECD12046002802D1286808B10020F0BD2D
:102F7000064A07481060074A121A22F00702C0E901
:102F8000002401202860D7E7E0010020DC010020B8
:102F900014030020100700202DE9F04103460D46E0
:102FA000164600240027A0462A48006800F4E06086
:102FB000B0F5E06F03D100BF4FF0040830E02548C2
:102FC000006800F4E060B0F5C06F03D101274FF056
:102FD000030825E01F48006800F4E060B0F5A06F2A
:102FE00002D10227B8461BE01A48006800F4E060EE
:102FF000B0F5806F03D103274FF0010810E01548AA
:10300000006800F4E060B0F5407F03D104274FF082
:10301000000805E04FF4A06000F020F80227B84651
:10302000C7F1040005FA00F4C8F104010F20C840FC
:103030003040044324010848C45403F01F01012018
:1030400088405911890001F1E021C1F80001BDE873
:10305000F08100000CED00E000E400E002490143D3
:10306000024A1160704700000000FA050CED00E014
:10307000014621B1012904D0072906D103E000202F
:1030800005E0022003E0062001E0042000BF00BFAD
:103090007047000010B502480068804710BD00006E
:1030A0009400002010B502480068804710BD000061
:1030B0008C00002010B502480068804710BD000059
:1030C00090000020184B5968184B1940164BDA6ACB
:1030D00022F000520C2820D2DFE800F00607080991
:1030E0001F0C1F0D1516171800BF00BF00BF41EAC7
:1030F000803113E000BF20F004004FF0805343EA1A
:10310000803319430AE000BF00BF00BF20F00C006D
:1031100041EA803142F0005200E000BF00BF024BA4
:103120005960DA627047000000100240FF3FFFEF75
:103130002DE9F04F8CB0074600200A904AA090E895
:10314000004CC068CDE905BECDF810A007900FF285
:103150001C1ADAE9000ACDE9020A0FF2101ADAE9BC
:10316000000ACDE9000A44484068C0F381000B9092
:103170000B9820B1012804D002283FD103E03F4A38
:103180003EE03E4A3CE03C48406800F4803CBCF5F0
:10319000803F12D13848C06A00F08048B8F1000F73
:1031A00001D1364B00E0364B3348406800F400391B
:1031B000B9F5003F02D15B0800E0324B2E48406871
:1031C000C0F383412C48406800F0006008B141F032
:1031D00010012948406800F0804008B141F020010A
:1031E0000F2901D2891C06E00F2903D33E2901D8FB
:1031F000491C00E03F2103FB01F201E01F4A00BF30
:1032000000BF1D484068C0F3031504A8465D22FABC
:1032100006F419484068C0F3022502A8465D24FA66
:1032200006F0099014484068C0F3C2251DF80560F7
:1032300024FA06F0089037B1012F06D0022F06D0ED
:10324000032F0AD106E00A9208E00A9406E00998E2
:103250000A9003E008980A9000E000BF00BF0A98B7
:103260000CB0BDE8F08F000000000000000000007E
:1032700001020304060708090010024000127A0048
:10328000006CDC0200093D00064A02EB901109685F
:1032900000F01F0301229A401143024B03EB9012EE
:1032A0001160704700100240064A02EB9011096855
:1032B00000F01F0301229A409143024B03EB90124E
:1032C0001160704700100240064A02EB9011096835
:1032D00000F01F0301229A401143024B03EB9012AE
:1032E0001160704700100240002000213F4A126820
:1032F00042F480323D4B1A6000BF401C3B4A1268CA
:1033000002F4003119B94FF6FF729042F5D1374AF5
:10331000126802F400320AB900BFFEE7334AD269EC
:1033200042F08052314BDA61314A126842F4404235
:103330002F4B1A602D4A52682C4B5A601A4652681D
:103340005A601A46526842F480625A601A465268BD
:1033500022F440325A601A46526842F440325A60AF
:103360001A465268234B1A40204B5A601A4652683C
:10337000214B1A431D4B5A601A46126842F0807264
:103380001A6000BF194A126802F00072002AF9D0D0
:10339000174A126842F48032154B1A6000BF144A73
:1033A000526802F48032002AF9D0114A126842F4BD
:1033B00000320F4B1A6000BF0D4A526802F400320F
:1033C000002AF9D0094A526822F00302074B5A60DA
:1033D0001A46526842F002025A6000BF034A52681D
:1033E00002F00802002AF9D07047000000100240E5
:1033F00000700040FFFFC3B70000340810B5FFF7AE
:1034000073FF10BD4162704710B504463349601A1E
:103410008C4244D00CDCB4F1804F1CD030482044A6
:1034200010B3B0F5806F28D0B0F5006F52D12DE009
:10343000B0F5806F3CD0B0F58E3F03D0B0F5923F31
:1034400048D13EE040F20B30FFF73EFF40F20B3038
:10345000FFF72AFF3FE04FF48060FFF735FF4FF49E
:103460008060FFF721FF36E040F20140FFF72CFFBC
:1034700040F20140FFF718FF2DE040F20240FFF755
:1034800023FF40F20240FFF70FFF24E040F2034029
:10349000FFF71AFF40F20340FFF706FF1BE040F280
:1034A0000440FFF711FF40F20440FFF7FDFE12E079
:1034B00040F20540FFF708FF40F20540FFF7F4FE39
:1034C00009E040F20D30FFF7FFFE40F20D30FFF74C
:1034D000EBFE00E000BF00BF10BD00000010004088
:1034E00000FCFFBF016821F0010101607047016825
:1034F00041F00101016070470A8882621D4A9042D2
:103500000ED0B0F1804F0BD01B4A904208D01B4A1E
:10351000904205D01A4A904202D01A4A90420BD1EA
:10352000026822F07002026002684B881A4302604F
:1035300002688B881A4302608A68C262124A90420B
:103540000AD0124A904207D0026822F44072026008
:103550000268CB881A430260064A904202D0094AA8
:10356000904201D10A7B0263426942F0010242614A
:1035700070470000002C014000040040000800409B
:10358000000C0040003401400010004000140040D6
:10359000C2688A43C2607047C2680A43C26070470B
:1035A000CA43026170470246D06800EA010310690D
:1035B000084010B10BB1012070470020FCE700214A
:1035C0000180418081804FF6FF7181600021C180C0
:1035D0000173704770B502460C46FF25FF2309E0D2
:1035E00012F8010B80EA03010648405C80EA0503FB
:1035F0000548455C201EA4F10106B4B2F0D143EAAF
:10360000052070BDFC3B0008FC3C00082DE9F0479C
:1036100004460D460027B846B94600261D49601AE3
:103620008C421CD006DC1C48204470B1B0F5806F81
:103630001FD10FE0B0F5806F16D0B0F56C4F18D1E8
:103640000320FFF775FD074614E00220FFF770FD29
:1036500007460FE00220FFF76BFD07460AE0022055
:10366000FFF766FD074605E00220FFF761FD07460C
:1036700000E000BF00BF07EB5500B0FBF5F64FF6CA
:10368000F07006EA000806F00F0948EA0900A06099
:10369000BDE8F087004C004000BCFFBF50F8802F11
:1036A00022F40062026002680A4340F880297047F1
:1036B00001464868C0F308007047C1F30802426041
:1036C0007047000010B504462049601A8C4228D08B
:1036D00006DC1F48204490B1B0F5806F33D117E06D
:1036E000B0F5806F26D0B0F56C4F2CD140F20E3083
:1036F000FFF7EAFD40F20E30FFF7D6FD24E040F27E
:103700001140FFF7E1FD40F21140FFF7CDFD1BE056
:1037100040F21240FFF7D8FD40F21240FFF7C4FD1F
:1037200012E040F21340FFF7CFFD40F21340FFF7E5
:10373000BBFD09E040F21440FFF7C6FD40F2144023
:10374000FFF7B2FD00E000BF00BF10BD004C00401D
:1037500000BCFFBFC16841F40051C160704710B5A3
:10376000024602EB9110006801F01F040123A34000
:10377000184008B1012010BD0020FCE710B500EB97
:103780009112126801F01F040123A3409A4300EB39
:1037900091131A6010BD10B500EB9112126801F080
:1037A0001F040123A3401A4300EB91131A6010BDBC
:1037B000C1F3044301229A40D24300EB91531A60B3
:1037C000704770B5024600230024C1F389101058D9
:1037D00001F01F060125B54000EA050302EB9150F8
:1037E0000068C1F304460125B54000EA050414B1A0
:1037F0000BB1012070BD0020FCE7C26822F4C0625A
:10380000C260C2680A43C2607047C26822F0040204
:10381000C260C26801F004031A43C26070470269C3
:1038200022F44052026102690A4302617047C26891
:1038300022F00802C260C26801F008031A43C260A5
:103840007047C26822F48052C260C2680A43C260F4
:103850007047000070B504460D465CB117494869D1
:1038600040F20531FFF797FF144A116AD069FFF75C
:10387000E5FA0AE01149486940F20531FFF77EFF99
:103880000E4A116AD069FFF7DBFA5DB10B4948694E
:1038900040F20631FFF77FFF084A116AD069FFF74F
:1038A000CFFA0AE00549486940F20631FFF766FFA2
:1038B000024A116AD069FFF7C1FA70BDA801002061
:1038C00010B50A4948680021FFF79CFD0749486880
:1038D0000121FFF765FE054948680121FFF758FE01
:1038E00002494868FFF7FEFD10BD0000CC01002032
:1038F00010B50A4948680021FFF784FD0749486868
:103900000121FFF74DFE054948680121FFF744FEFC
:1039100002494868FFF7EBFD10BD0000CC01002014
:1039200001460020054A127832B1054A12780A7021
:103930000022024B1A70012070470000A7010020EE
:10394000A6010020002002490870012070470000F5
:10395000A701002001460120024A107002480170B0
:1039600001207047A7010020A601002010B50446E1
:1039700003494869FFF79CFE2070012010BD00003C
:10398000A80100202DE9F04105460C4616461F46C9
:10399000FDF7DAF92046FDF785FEFDF749FC012029
:1039A000BDE8F08110B50446034948692146FFF798
:1039B00084FE012010BD0000A801002010B50446BF
:1039C0002046FDF7D7FD012010BD000038B50024CA
:1039D0002148007800B904E0E92220A127A0FDF7E2
:1039E00093FF6846FFF7C2FF2B48007830B10128EB
:1039F0000AD0022819D003282BD102E0FFF778FF64
:103A000027E0FFF775FF24E00020244908809DF897
:103A100000200888411C214B198021490A540220AA
:103A20001D490870FFF764FF13E01C480088FF2859
:103A300009DC9DF8002019490888411C174B1980A2
:103A400017490A5402E0032013490870FFF750FF9A
:103A500000BF00BF204638BD340100204D696464BA
:103A60006C65776172655F4D6F646275735C7274CB
:103A7000755C6D627274752E6300000065536E6430
:103A80005374617465203D3D2053544154455F5447
:103A9000585F49444C450000350100203E0100209C
:103AA000E401002010B500241648007820B1022857
:103AB00007D003280BD109E00020FFF74BFF044695
:103AC00018E00120FFF746FF044613E012E00D481E
:103AD000007838B10B480078022803D009480078F4
:103AE000032800D105E040F25B1207A10E48FDF764
:103AF0000BFF00BF00BFFFF7E3FE01200149087084
:103B0000204610BD350100204D6964646C65776105
:103B100072655F4D6F646275735C7274755C6D6223
:103B20007274752E630000009840000810B50024E0
:103B30001B480078012800D105E040F2231219A1AA
:103B400020A0FDF7E1FE2648007810B1012824D11D
:103B500004E000210120FFF77DFE1EE021480088DF
:103B600078B1214909680878FFF71CFF1E480068F2
:103B7000401C1D4908601B480088401E19490880E8
:103B80000AE00320FFF7E6FE044600210120FFF7CC
:103B900061FE00201249087000BF00BF204610BD22
:103BA000350100204D6964646C65776172655F4D15
:103BB0006F646275735C7274755C6D627274752E7D
:103BC00063000000655263765374617465203D3D67
:103BD0002053544154455F52585F49444C450000BE
:103BE000340100203C0100203801002001000000C9
:103BF00080250000CD1700084D11000800C181404C
:103C000001C0804101C0804100C1814001C08041AC
:103C100000C1814000C1814001C0804101C080419C
:103C200000C1814000C1814001C0804100C181408C
:103C300001C0804101C0804100C1814001C080417C
:103C400000C1814000C1814001C0804100C181406C
:103C500001C0804101C0804100C1814000C181405C
:103C600001C0804101C0804100C1814001C080414C
:103C700000C1814000C1814001C0804101C080413C
:103C800000C1814000C1814001C0804100C181402C
:103C900001C0804101C0804100C1814000C181401C
:103CA00001C0804101C0804100C1814001C080410C
:103CB00000C1814000C1814001C0804100C18140FC
:103CC00001C0804101C0804100C1814001C08041EC
:103CD00000C1814000C1814001C0804101C08041DC
:103CE00000C1814000C1814001C0804100C18140CC
:103CF00001C0804101C0804100C1814000C0C101BC
:103D0000C30302C2C60607C705C5C404CC0C0DCD4B
:103D10000FCFCE0E0ACACB0BC90908C8D81819D9BB
:103D20001BDBDA1A1EDEDF1FDD1D1CDC14D4D515EB
:103D3000D71716D6D21213D311D1D010F03031F1DB
:103D400033F3F23236F6F737F53534F43CFCFD3D0B
:103D5000FF3F3EFEFA3A3BFB39F9F83828E8E929FB
:103D6000EB2B2AEAEE2E2FEF2DEDEC2CE42425E5AB
:103D700027E7E62622E2E323E12120E0A06061A11B
:103D800063A3A26266A6A767A56564A46CACAD6DCB
:103D9000AF6F6EAEAA6A6BAB69A9A86878B8B9793B
:103DA000BB7B7ABABE7E7FBF7DBDBC7CB47475B56B
:103DB00077B7B67672B2B373B17170B0509091515B
:103DC0009353529296565797559594549C5C5D9D8B
:103DD0005F9F9E5E5A9A9B5B99595898884849897B
:103DE0004B8B8A4A4E8E8F4F8D4D4C8C448485452B
:103DF0008747468682424383418180409B009D00E5
:103E00009F00A500B100CC00010162010402230360
:103E1000A40461063408130A670B840C6A0D150E9E
:103E20009C009D00A100A800BA00DF002801AD01A0
:103E30008A02D9037F0552071909EB0A280C1B0DCA
:103E4000F20D7B0E9C009F00A400AF00C700FA009B
:103E50005501FC010703810461064E08EC09810B42
:103E6000A30C800D220E9E0E9D00A100A800B7009D
:103E7000D9001C019A016B02AD03E2062B07190958
:103E8000BD0A280C290DE20D5C0EC90E9F00A5008D
:103E9000B000C500EC004001DD01EE026104440603
:103EA0001B08EC09670BA30C710D1A0E970EF40E8C
:103EB000A100A800B700D2000801770143028503E2
:103EC00039053E07FA08A60AEE0B0E0DD30D5C0E5F
:103ED000C30E130FA300AD00BF00E6002C01C30109
:103EE000B802250400061B08C6094D0B840C620DA0
:103EF0000A0E860EDE0E260FA600B200CA00FA00D9
:103F00005801FC012303CA04BF06BD08900AEE0B4A
:103F1000E50CAC0D430EA90EF90E3A0FA900B8003E
:103F2000D6001C018D016B02D903950590077E090F
:103F3000030B460C290DDA0D640EC30E0C0F470F50
:103F4000AF00C400EC003B01DD01EE028104440639
:103F50003408EC09810BA30C710D120E8F0EE70EC5
:103F60001E0F540FB300CC00FD006201210261035B
:103F700030052B07FA08A60AEE0B000DBC0D4B0E00
:103F8000B10E020F360F640FBA00D900160191016D
:103F90007A02AD03F305EA07C6091B0B650C460D53
:103FA000EA0D6C0ECC0E150F440F6E0FBF00E5002E
:103FB0002C01C901E2020A04AF06A008650AB60B8B
:103FC000CA0C800D1A0E8F0EDE0E1E0F4E0F750FCF
:103FD000330C110CEB0BC50B9D0B750B4D0B240B10
:103FE000FA0ACF0AA00A790A4D0A210AF409C70978
:103FF0009A096C093F091109E308B60888085A08AC
:104000002D080008D207A60779074D072107F606F5
:10401000CB06A10677064E062506FD05D605AF059B
:10402000890564053F051B05F804D504B304920413
:104030007204520439041504F803DB03BF03A4031C
:1040400089036F0356033D0326030E03F802E202C1
:10405000CC02B802A30290027D026A025802470213
:104060003602260216020602F701E901DB01CD0144
:10407000C001B301A6019A018E01830178016D018F
:10408000630159014F0146013C0134012B0122011A
:104090001B0112010B010301286552637653746101
:1040A0007465203D3D2053544154455F52585F494B
:1040B0004E495429207C7C202865526376537461D4
:1040C0007465203D3D2053544154455F52585F5222
:1040D000435629207C7C2028655263765374617492
:1040E00065203D3D2053544154455F52585F455231
:1040F000524F522900000000184100080000002023
:10410000E4010000B4070008B8410008E401002001
:104110002C450000B41900082125DC05DC051375C9
:104120000D220825E803E8032B01120C1A010221D5
:104130001365102A0808411A930C41491A215A6D37
:104140001012033A0216411AB5141A031269103AF2
:10415000CB107A04103AE13429300126294A139110
:10416000253308101355263308061A170801882A24
:1041700002912C080140DF2A060C35180140402A24
:10418000070C4A1C0C011D5D3801400E44394C32AD
:104190000222040A15256829F9191F113311071283
:1041A000441340261304063510014020121E13024A
:0841B000071208F9730000007A
:0400000508000131BD
:00000001FF
