Component: ARM Compiler 5.06 update 7 (build 960) Tool: armlink [4d3601]

==============================================================================

Section Cross References

    main.o(i.main) refers to led_drv.o(i.LedDrvInit) for LedDrvInit
    main.o(i.main) refers to usb2com_drv.o(i.Usb2ComDrvInit) for Usb2ComDrvInit
    main.o(i.main) refers to usb2com_drv.o(i.Usb2ComTask) for Usb2ComTask
    delay.o(i.DelayNms) refers to delay.o(i.DelayNus) for DelayNus
    delay.o(i.DelayNus) refers to gd32f30x_rcu.o(i.rcu_clock_freq_get) for rcu_clock_freq_get
    key_drv.o(i.GetKeyValue) refers to key_drv.o(i.KeyScan) for KeyScan
    key_drv.o(i.KeyDrvInit) refers to gd32f30x_rcu.o(i.rcu_periph_clock_enable) for rcu_periph_clock_enable
    key_drv.o(i.KeyDrvInit) refers to gd32f30x_gpio.o(i.gpio_init) for gpio_init
    key_drv.o(i.KeyDrvInit) refers to key_drv.o(.data) for .data
    key_drv.o(i.KeyScan) refers to gd32f30x_gpio.o(i.gpio_input_bit_get) for gpio_input_bit_get
    key_drv.o(i.KeyScan) refers to systick.o(i.GetSystemRunTime) for GetSystemRunTime
    key_drv.o(i.KeyScan) refers to key_drv.o(.data) for .data
    key_drv.o(i.KeyScan) refers to key_drv.o(.bss) for .bss
    led_drv.o(i.LedDrvInit) refers to gd32f30x_rcu.o(i.rcu_periph_clock_enable) for rcu_periph_clock_enable
    led_drv.o(i.LedDrvInit) refers to gd32f30x_gpio.o(i.gpio_init) for gpio_init
    led_drv.o(i.LedDrvInit) refers to gd32f30x_gpio.o(i.gpio_bit_reset) for gpio_bit_reset
    led_drv.o(i.LedDrvInit) refers to led_drv.o(.data) for .data
    led_drv.o(i.ToggleLed) refers to gd32f30x_gpio.o(i.gpio_input_bit_get) for gpio_input_bit_get
==============================================================================

Removing Unused input sections from the image.

    Removing main.o(.rev16_text), (4 bytes).
    Removing main.o(.revsh_text), (4 bytes).
    Removing delay.o(.rev16_text), (4 bytes).
    Removing delay.o(.revsh_text), (4 bytes).
    Removing delay.o(i.DelayNms), (26 bytes).
    Removing delay.o(i.DelayNus), (40 bytes).
    Removing delay.o(i.DwtDelayInit), (52 bytes).
    Removing key_drv.o(.rev16_text), (4 bytes).
    Removing key_drv.o(.revsh_text), (4 bytes).
    Removing key_drv.o(i.GetKeyValue), (24 bytes).
    Removing key_drv.o(i.KeyDrvInit), (48 bytes).
    Removing key_drv.o(i.KeyScan), (164 bytes).
    Removing key_drv.o(.bss), (64 bytes).
    Removing key_drv.o(.data), (48 bytes).
    Removing led_drv.o(.rev16_text), (4 bytes).
    Removing led_drv.o(.revsh_text), (4 bytes).
    Removing led_drv.o(i.ToggleLed), (52 bytes).
    Removing systick.o(.rev16_text), (4 bytes).
==============================================================================

Image Symbol Table

    Local Symbols

    Symbol Name                              Value     Ov Type        Size  Object(Section)

    ../clib/microlib/init/entry.s            0x00000000   Number         0  entry2.o ABSOLUTE
    ../clib/microlib/init/entry.s            0x00000000   Number         0  entry12b.o ABSOLUTE
    ../clib/microlib/init/entry.s            0x00000000   Number         0  entry7a.o ABSOLUTE
    ../clib/microlib/init/entry.s            0x00000000   Number         0  entry10a.o ABSOLUTE
    ../clib/microlib/init/entry.s            0x00000000   Number         0  entry5.o ABSOLUTE
    ../clib/microlib/init/entry.s            0x00000000   Number         0  entry7b.o ABSOLUTE
    ../clib/microlib/init/entry.s            0x00000000   Number         0  entry8a.o ABSOLUTE
    ../clib/microlib/init/entry.s            0x00000000   Number         0  entry8b.o ABSOLUTE
    ../clib/microlib/init/entry.s            0x00000000   Number         0  entry9a.o ABSOLUTE
    ../clib/microlib/init/entry.s            0x00000000   Number         0  entry9b.o ABSOLUTE
    ../clib/microlib/init/entry.s            0x00000000   Number         0  entry.o ABSOLUTE
    ../clib/microlib/init/entry.s            0x00000000   Number         0  entry10b.o ABSOLUTE
    ../clib/microlib/init/entry.s            0x00000000   Number         0  entry11a.o ABSOLUTE
    ../clib/microlib/init/entry.s            0x00000000   Number         0  entry11b.o ABSOLUTE
    ../clib/microlib/init/entry.s            0x00000000   Number         0  entry12a.o ABSOLUTE
    App\\main.c                              0x00000000   Number         0  main.o ABSOLUTE
    App\main.c                               0x00000000   Number         0  main.o ABSOLUTE
    Arm\\system_gd32f30x.c                   0x00000000   Number         0  system_gd32f30x.o ABSOLUTE
    Arm\startup_gd32f30x_hd.s                0x00000000   Number         0  startup_gd32f30x_hd.o ABSOLUTE
    Arm\system_gd32f30x.c                    0x00000000   Number         0  system_gd32f30x.o ABSOLUTE
    Driver\\delay.c                          0x00000000   Number         0  delay.o ABSOLUTE
    Driver\\key_drv.c                        0x00000000   Number         0  key_drv.o ABSOLUTE
    Driver\\led_drv.c                        0x00000000   Number         0  led_drv.o ABSOLUTE
    Driver\\systick.c                        0x00000000   Number         0  systick.o ABSOLUTE
    Driver\\usb2com_drv.c                    0x00000000   Number         0  usb2com_drv.o ABSOLUTE
    Driver\delay.c                           0x00000000   Number         0  delay.o ABSOLUTE
    Driver\key_drv.c                         0x00000000   Number         0  key_drv.o ABSOLUTE
    Driver\led_drv.c                         0x00000000   Number         0  led_drv.o ABSOLUTE
    Driver\systick.c                         0x00000000   Number         0  systick.o ABSOLUTE
    Driver\usb2com_drv.c                     0x00000000   Number         0  usb2com_drv.o ABSOLUTE
    GD32_Hal\Source\gd32f30x_gpio.c          0x00000000   Number         0  gd32f30x_gpio.o ABSOLUTE
    GD32_Hal\Source\gd32f30x_misc.c          0x00000000   Number         0  gd32f30x_misc.o ABSOLUTE
    GD32_Hal\Source\gd32f30x_rcu.c           0x00000000   Number         0  gd32f30x_rcu.o ABSOLUTE
    GD32_Hal\Source\gd32f30x_usart.c         0x00000000   Number         0  gd32f30x_usart.o ABSOLUTE
    GD32_Hal\\Source\\gd32f30x_gpio.c        0x00000000   Number         0  gd32f30x_gpio.o ABSOLUTE
    GD32_Hal\\Source\\gd32f30x_misc.c        0x00000000   Number         0  gd32f30x_misc.o ABSOLUTE
    GD32_Hal\\Source\\gd32f30x_rcu.c         0x00000000   Number         0  gd32f30x_rcu.o ABSOLUTE
    GD32_Hal\\Source\\gd32f30x_usart.c       0x00000000   Number         0  gd32f30x_usart.o ABSOLUTE
    dc.s                                     0x00000000   Number         0  dc.o ABSOLUTE
    handlers.s                               0x00000000   Number         0  handlers.o ABSOLUTE
    init.s                                   0x00000000   Number         0  init.o ABSOLUTE
    RESET                                    0x08000000   Section      304  startup_gd32f30x_hd.o(RESET)
    .ARM.Collect$$$$00000000                 0x08000130   Section        0  entry.o(.ARM.Collect$$$$00000000)
    .ARM.Collect$$$$00000001                 0x08000130   Section        4  entry2.o(.ARM.Collect$$$$00000001)
    .ARM.Collect$$$$00000004                 0x08000134   Section        4  entry5.o(.ARM.Collect$$$$00000004)
    .ARM.Collect$$$$00000008                 0x08000138   Section        0  entry7b.o(.ARM.Collect$$$$00000008)
    .ARM.Collect$$$$0000000A                 0x08000138   Section        0  entry8b.o(.ARM.Collect$$$$0000000A)
    .ARM.Collect$$$$0000000B                 0x08000138   Section        8  entry9a.o(.ARM.Collect$$$$0000000B)
    .ARM.Collect$$$$0000000E                 0x08000140   Section        4  entry12b.o(.ARM.Collect$$$$0000000E)
    .ARM.Collect$$$$0000000F                 0x08000144   Section        0  entry10a.o(.ARM.Collect$$$$0000000F)
    .ARM.Collect$$$$00000011                 0x08000144   Section        0  entry11a.o(.ARM.Collect$$$$00000011)
    .ARM.Collect$$$$00002712                 0x08000144   Section        4  entry2.o(.ARM.Collect$$$$00002712)
    __lit__00000000                          0x08000144   Data           4  entry2.o(.ARM.Collect$$$$00002712)
    .text                                    0x08000148   Section       36  startup_gd32f30x_hd.o(.text)
    $v0                                      0x08000148   Number         0  startup_gd32f30x_hd.o(.text)
    .text                                    0x0800016c   Section       36  init.o(.text)
    i.CalXorSum                              0x08000190   Section        0  usb2com_drv.o(i.CalXorSum)
    CalXorSum                                0x08000191   Thumb Code    24  usb2com_drv.o(i.CalXorSum)
    i.CtrlLed                                0x080001a8   Section        0  usb2com_drv.o(i.CtrlLed)
    CtrlLed                                  0x080001a9   Thumb Code    16  usb2com_drv.o(i.CtrlLed)
    i.LedDrvInit                             0x080001b8   Section        0  led_drv.o(i.LedDrvInit)
    i.ProcUartData                           0x080001f0   Section        0  usb2com_drv.o(i.ProcUartData)
    ProcUartData                             0x080001f1   Thumb Code    58  usb2com_drv.o(i.ProcUartData)
    i.SysTick_Handler                        0x08000234   Section        0  systick.o(i.SysTick_Handler)
    i.SystemInit                             0x0800024c   Section        0  system_gd32f30x.o(i.SystemInit)
    i.TurnOffLed                             0x080002d0   Section        0  led_drv.o(i.TurnOffLed)
    i.TurnOnLed                              0x080002ec   Section        0  led_drv.o(i.TurnOnLed)
    i.USART0_IRQHandler                      0x08000308   Section        0  usb2com_drv.o(i.USART0_IRQHandler)
    i.Usb2ComDrvInit                         0x0800033c   Section        0  usb2com_drv.o(i.Usb2ComDrvInit)
    i.Usb2ComGpioInit                        0x08000350   Section        0  usb2com_drv.o(i.Usb2ComGpioInit)
    Usb2ComGpioInit                          0x08000351   Thumb Code    38  usb2com_drv.o(i.Usb2ComGpioInit)
    i.Usb2ComTask                            0x0800037c   Section        0  usb2com_drv.o(i.Usb2ComTask)
    i.Usb2ComUartInit                        0x080003b8   Section        0  usb2com_drv.o(i.Usb2ComUartInit)
    Usb2ComUartInit                          0x080003b9   Thumb Code    96  usb2com_drv.o(i.Usb2ComUartInit)
    i.__scatterload_copy                     0x0800041c   Section       14  handlers.o(i.__scatterload_copy)
    i.__scatterload_null                     0x0800042a   Section        2  handlers.o(i.__scatterload_null)
    i.__scatterload_zeroinit                 0x0800042c   Section       14  handlers.o(i.__scatterload_zeroinit)
    i.gpio_bit_reset                         0x0800043a   Section        0  gd32f30x_gpio.o(i.gpio_bit_reset)
    i.gpio_bit_set                           0x0800043e   Section        0  gd32f30x_gpio.o(i.gpio_bit_set)
    i.gpio_init                              0x08000442   Section        0  gd32f30x_gpio.o(i.gpio_init)
    i.main                                   0x080004e6   Section        0  main.o(i.main)
    i.nvic_irq_enable                        0x080004f4   Section        0  gd32f30x_misc.o(i.nvic_irq_enable)
    i.nvic_priority_group_set                0x08000590   Section        0  gd32f30x_misc.o(i.nvic_priority_group_set)
    i.rcu_clock_freq_get                     0x080005a4   Section        0  gd32f30x_rcu.o(i.rcu_clock_freq_get)
    i.rcu_periph_clock_enable                0x080006a0   Section        0  gd32f30x_rcu.o(i.rcu_periph_clock_enable)
    i.rcu_periph_reset_disable               0x080006bc   Section        0  gd32f30x_rcu.o(i.rcu_periph_reset_disable)
    i.rcu_periph_reset_enable                0x080006d8   Section        0  gd32f30x_rcu.o(i.rcu_periph_reset_enable)
    i.system_clock_120m_hxtal                0x080006f4   Section        0  system_gd32f30x.o(i.system_clock_120m_hxtal)
    system_clock_120m_hxtal                  0x080006f5   Thumb Code   170  system_gd32f30x.o(i.system_clock_120m_hxtal)
    i.system_clock_config                    0x080007b0   Section        0  system_gd32f30x.o(i.system_clock_config)
    system_clock_config                      0x080007b1   Thumb Code     4  system_gd32f30x.o(i.system_clock_config)
    i.usart_baudrate_set                     0x080007b4   Section        0  gd32f30x_usart.o(i.usart_baudrate_set)
    i.usart_data_receive                     0x08000824   Section        0  gd32f30x_usart.o(i.usart_data_receive)
    i.usart_deinit                           0x0800082c   Section        0  gd32f30x_usart.o(i.usart_deinit)
    i.usart_enable                           0x080008bc   Section        0  gd32f30x_usart.o(i.usart_enable)
    i.usart_interrupt_enable                 0x080008c6   Section        0  gd32f30x_usart.o(i.usart_interrupt_enable)
    i.usart_interrupt_flag_clear             0x080008da   Section        0  gd32f30x_usart.o(i.usart_interrupt_flag_clear)
    i.usart_interrupt_flag_get               0x080008ec   Section        0  gd32f30x_usart.o(i.usart_interrupt_flag_get)
    i.usart_parity_config                    0x0800091e   Section        0  gd32f30x_usart.o(i.usart_parity_config)
    i.usart_receive_config                   0x0800092e   Section        0  gd32f30x_usart.o(i.usart_receive_config)
    i.usart_stop_bit_set                     0x08000942   Section        0  gd32f30x_usart.o(i.usart_stop_bit_set)
    i.usart_transmit_config                  0x08000952   Section        0  gd32f30x_usart.o(i.usart_transmit_config)
    i.usart_word_length_set                  0x08000966   Section        0  gd32f30x_usart.o(i.usart_word_length_set)
    .data                                    0x20000000   Section       36  led_drv.o(.data)
    g_ledList                                0x20000000   Data          36  led_drv.o(.data)
    .data                                    0x20000028   Section        8  systick.o(.data)
    g_systemRunTime                          0x20000028   Data           8  systick.o(.data)
    .data                                    0x20000030   Section       32  usb2com_drv.o(.data)
    g_rcvFlag                                0x20000030   Data           1  usb2com_drv.o(.data)
    index                                    0x20000031   Data           1  usb2com_drv.o(.data)
    .bss                                     0x20000050   Section       20  usb2com_drv.o(.bss)
    g_uartBuf                                0x20000050   Data          20  usb2com_drv.o(.bss)
    STACK                                    0x20000068   Section     1024  startup_gd32f30x_hd.o(STACK)

    Global Symbols

    Symbol Name                              Value     Ov Type        Size  Object(Section)

    BuildAttributes$$THM_ISAv4$E$P$D$K$B$S$7EM$VFPi3$EXTD16$VFPS$VFMA$PE$A:L22UL41UL21$X:L11$S22US41US21$IEEE1$IW$USESV6$~STKCKD$USESV7$~SHL$OSPACE$EBA8$MICROLIB$REQ8$PRES8$EABIv2 0x00000000   Number         0  anon$$obj.o ABSOLUTE
    __ARM_use_no_argv                        0x00000000   Number         0  main.o ABSOLUTE
    __arm_fini_                               - Undefined Weak Reference
    __cpp_initialize__aeabi_                  - Undefined Weak Reference
    __cxa_finalize                            - Undefined Weak Reference
    __decompress                              - Undefined Weak Reference
    _clock_init                               - Undefined Weak Reference
    _microlib_exit                            - Undefined Weak Reference
    __Vectors_Size                           0x00000130   Number         0  startup_gd32f30x_hd.o ABSOLUTE
    __Vectors                                0x08000000   Data           4  startup_gd32f30x_hd.o(RESET)
    __Vectors_End                            0x08000130   Data           0  startup_gd32f30x_hd.o(RESET)
    __main                                   0x08000131   Thumb Code     0  entry.o(.ARM.Collect$$$$00000000)
    _main_stk                                0x08000131   Thumb Code     0  entry2.o(.ARM.Collect$$$$00000001)
    _main_scatterload                        0x08000135   Thumb Code     0  entry5.o(.ARM.Collect$$$$00000004)
    __main_after_scatterload                 0x08000139   Thumb Code     0  entry5.o(.ARM.Collect$$$$00000004)
    _main_clock                              0x08000139   Thumb Code     0  entry7b.o(.ARM.Collect$$$$00000008)
    _main_cpp_init                           0x08000139   Thumb Code     0  entry8b.o(.ARM.Collect$$$$0000000A)
    _main_init                               0x08000139   Thumb Code     0  entry9a.o(.ARM.Collect$$$$0000000B)
    __rt_lib_shutdown_fini                   0x08000141   Thumb Code     0  entry12b.o(.ARM.Collect$$$$0000000E)
    __rt_final_cpp                           0x08000145   Thumb Code     0  entry10a.o(.ARM.Collect$$$$0000000F)
    __rt_final_exit                          0x08000145   Thumb Code     0  entry11a.o(.ARM.Collect$$$$00000011)
    Reset_Handler                            0x08000149   Thumb Code     8  startup_gd32f30x_hd.o(.text)
    NMI_Handler                              0x08000151   Thumb Code     2  startup_gd32f30x_hd.o(.text)
    HardFault_Handler                        0x08000153   Thumb Code     2  startup_gd32f30x_hd.o(.text)
    MemManage_Handler                        0x08000155   Thumb Code     2  startup_gd32f30x_hd.o(.text)
    BusFault_Handler                         0x08000157   Thumb Code     2  startup_gd32f30x_hd.o(.text)
    UsageFault_Handler                       0x08000159   Thumb Code     2  startup_gd32f30x_hd.o(.text)
    SVC_Handler                              0x0800015b   Thumb Code     2  startup_gd32f30x_hd.o(.text)
    DebugMon_Handler                         0x0800015d   Thumb Code     2  startup_gd32f30x_hd.o(.text)
    PendSV_Handler                           0x0800015f   Thumb Code     2  startup_gd32f30x_hd.o(.text)
    ADC0_1_IRQHandler                        0x08000163   Thumb Code     0  startup_gd32f30x_hd.o(.text)
    ADC2_IRQHandler                          0x08000163   Thumb Code     0  startup_gd32f30x_hd.o(.text)
    CAN0_EWMC_IRQHandler                     0x08000163   Thumb Code     0  startup_gd32f30x_hd.o(.text)
    CAN0_RX1_IRQHandler                      0x08000163   Thumb Code     0  startup_gd32f30x_hd.o(.text)
    DMA0_Channel0_IRQHandler                 0x08000163   Thumb Code     0  startup_gd32f30x_hd.o(.text)
    DMA0_Channel1_IRQHandler                 0x08000163   Thumb Code     0  startup_gd32f30x_hd.o(.text)
    DMA0_Channel2_IRQHandler                 0x08000163   Thumb Code     0  startup_gd32f30x_hd.o(.text)
    DMA0_Channel3_IRQHandler                 0x08000163   Thumb Code     0  startup_gd32f30x_hd.o(.text)
    DMA0_Channel4_IRQHandler                 0x08000163   Thumb Code     0  startup_gd32f30x_hd.o(.text)
    DMA0_Channel5_IRQHandler                 0x08000163   Thumb Code     0  startup_gd32f30x_hd.o(.text)
    DMA0_Channel6_IRQHandler                 0x08000163   Thumb Code     0  startup_gd32f30x_hd.o(.text)
    DMA1_Channel0_IRQHandler                 0x08000163   Thumb Code     0  startup_gd32f30x_hd.o(.text)
    DMA1_Channel1_IRQHandler                 0x08000163   Thumb Code     0  startup_gd32f30x_hd.o(.text)
    DMA1_Channel2_IRQHandler                 0x08000163   Thumb Code     0  startup_gd32f30x_hd.o(.text)
    DMA1_Channel3_4_IRQHandler               0x08000163   Thumb Code     0  startup_gd32f30x_hd.o(.text)
    EXMC_IRQHandler                          0x08000163   Thumb Code     0  startup_gd32f30x_hd.o(.text)
    EXTI0_IRQHandler                         0x08000163   Thumb Code     0  startup_gd32f30x_hd.o(.text)
    EXTI10_15_IRQHandler                     0x08000163   Thumb Code     0  startup_gd32f30x_hd.o(.text)
    EXTI1_IRQHandler                         0x08000163   Thumb Code     0  startup_gd32f30x_hd.o(.text)
    EXTI2_IRQHandler                         0x08000163   Thumb Code     0  startup_gd32f30x_hd.o(.text)
    EXTI3_IRQHandler                         0x08000163   Thumb Code     0  startup_gd32f30x_hd.o(.text)
    EXTI4_IRQHandler                         0x08000163   Thumb Code     0  startup_gd32f30x_hd.o(.text)
    EXTI5_9_IRQHandler                       0x08000163   Thumb Code     0  startup_gd32f30x_hd.o(.text)
    FMC_IRQHandler                           0x08000163   Thumb Code     0  startup_gd32f30x_hd.o(.text)
    I2C0_ER_IRQHandler                       0x08000163   Thumb Code     0  startup_gd32f30x_hd.o(.text)
    I2C0_EV_IRQHandler                       0x08000163   Thumb Code     0  startup_gd32f30x_hd.o(.text)
    I2C1_ER_IRQHandler                       0x08000163   Thumb Code     0  startup_gd32f30x_hd.o(.text)
    I2C1_EV_IRQHandler                       0x08000163   Thumb Code     0  startup_gd32f30x_hd.o(.text)
    LVD_IRQHandler                           0x08000163   Thumb Code     0  startup_gd32f30x_hd.o(.text)
    RCU_CTC_IRQHandler                       0x08000163   Thumb Code     0  startup_gd32f30x_hd.o(.text)
    RTC_Alarm_IRQHandler                     0x08000163   Thumb Code     0  startup_gd32f30x_hd.o(.text)
    RTC_IRQHandler                           0x08000163   Thumb Code     0  startup_gd32f30x_hd.o(.text)
    SDIO_IRQHandler                          0x08000163   Thumb Code     0  startup_gd32f30x_hd.o(.text)
    SPI0_IRQHandler                          0x08000163   Thumb Code     0  startup_gd32f30x_hd.o(.text)
    SPI1_IRQHandler                          0x08000163   Thumb Code     0  startup_gd32f30x_hd.o(.text)
    SPI2_IRQHandler                          0x08000163   Thumb Code     0  startup_gd32f30x_hd.o(.text)
    TAMPER_IRQHandler                        0x08000163   Thumb Code     0  startup_gd32f30x_hd.o(.text)
    TIMER0_BRK_IRQHandler                    0x08000163   Thumb Code     0  startup_gd32f30x_hd.o(.text)
    TIMER0_Channel_IRQHandler                0x08000163   Thumb Code     0  startup_gd32f30x_hd.o(.text)
    TIMER0_TRG_CMT_IRQHandler                0x08000163   Thumb Code     0  startup_gd32f30x_hd.o(.text)
    TIMER0_UP_IRQHandler                     0x08000163   Thumb Code     0  startup_gd32f30x_hd.o(.text)
    TIMER1_IRQHandler                        0x08000163   Thumb Code     0  startup_gd32f30x_hd.o(.text)
    TIMER2_IRQHandler                        0x08000163   Thumb Code     0  startup_gd32f30x_hd.o(.text)
    TIMER3_IRQHandler                        0x08000163   Thumb Code     0  startup_gd32f30x_hd.o(.text)
    TIMER4_IRQHandler                        0x08000163   Thumb Code     0  startup_gd32f30x_hd.o(.text)
    TIMER5_IRQHandler                        0x08000163   Thumb Code     0  startup_gd32f30x_hd.o(.text)
    TIMER6_IRQHandler                        0x08000163   Thumb Code     0  startup_gd32f30x_hd.o(.text)
    TIMER7_BRK_IRQHandler                    0x08000163   Thumb Code     0  startup_gd32f30x_hd.o(.text)
    TIMER7_Channel_IRQHandler                0x08000163   Thumb Code     0  startup_gd32f30x_hd.o(.text)
    TIMER7_TRG_CMT_IRQHandler                0x08000163   Thumb Code     0  startup_gd32f30x_hd.o(.text)
    TIMER7_UP_IRQHandler                     0x08000163   Thumb Code     0  startup_gd32f30x_hd.o(.text)
    UART3_IRQHandler                         0x08000163   Thumb Code     0  startup_gd32f30x_hd.o(.text)
    UART4_IRQHandler                         0x08000163   Thumb Code     0  startup_gd32f30x_hd.o(.text)
    USART1_IRQHandler                        0x08000163   Thumb Code     0  startup_gd32f30x_hd.o(.text)
    USART2_IRQHandler                        0x08000163   Thumb Code     0  startup_gd32f30x_hd.o(.text)
    USBD_HP_CAN0_TX_IRQHandler               0x08000163   Thumb Code     0  startup_gd32f30x_hd.o(.text)
    USBD_LP_CAN0_RX0_IRQHandler              0x08000163   Thumb Code     0  startup_gd32f30x_hd.o(.text)
    USBD_WKUP_IRQHandler                     0x08000163   Thumb Code     0  startup_gd32f30x_hd.o(.text)
    WWDGT_IRQHandler                         0x08000163   Thumb Code     0  startup_gd32f30x_hd.o(.text)
    __scatterload                            0x0800016d   Thumb Code    28  init.o(.text)
    __scatterload_rt2                        0x0800016d   Thumb Code     0  init.o(.text)
    LedDrvInit                               0x080001b9   Thumb Code    52  led_drv.o(i.LedDrvInit)
    SysTick_Handler                          0x08000235   Thumb Code    18  systick.o(i.SysTick_Handler)
    SystemInit                               0x0800024d   Thumb Code   118  system_gd32f30x.o(i.SystemInit)
    TurnOffLed                               0x080002d1   Thumb Code    24  led_drv.o(i.TurnOffLed)
    TurnOnLed                                0x080002ed   Thumb Code    24  led_drv.o(i.TurnOnLed)
    USART0_IRQHandler                        0x08000309   Thumb Code    44  usb2com_drv.o(i.USART0_IRQHandler)
    Usb2ComDrvInit                           0x0800033d   Thumb Code    18  usb2com_drv.o(i.Usb2ComDrvInit)
    Usb2ComTask                              0x0800037d   Thumb Code    50  usb2com_drv.o(i.Usb2ComTask)
    __scatterload_copy                       0x0800041d   Thumb Code    14  handlers.o(i.__scatterload_copy)
    __scatterload_null                       0x0800042b   Thumb Code     2  handlers.o(i.__scatterload_null)
    __scatterload_zeroinit                   0x0800042d   Thumb Code    14  handlers.o(i.__scatterload_zeroinit)
    gpio_bit_reset                           0x0800043b   Thumb Code     4  gd32f30x_gpio.o(i.gpio_bit_reset)
    gpio_bit_set                             0x0800043f   Thumb Code     4  gd32f30x_gpio.o(i.gpio_bit_set)
    gpio_init                                0x08000443   Thumb Code   164  gd32f30x_gpio.o(i.gpio_init)
    main                                     0x080004e7   Thumb Code    14  main.o(i.main)
    nvic_irq_enable                          0x080004f5   Thumb Code   150  gd32f30x_misc.o(i.nvic_irq_enable)
    nvic_priority_group_set                  0x08000591   Thumb Code    10  gd32f30x_misc.o(i.nvic_priority_group_set)
    rcu_clock_freq_get                       0x080005a5   Thumb Code   224  gd32f30x_rcu.o(i.rcu_clock_freq_get)
    rcu_periph_clock_enable                  0x080006a1   Thumb Code    22  gd32f30x_rcu.o(i.rcu_periph_clock_enable)
    rcu_periph_reset_disable                 0x080006bd   Thumb Code    22  gd32f30x_rcu.o(i.rcu_periph_reset_disable)
    rcu_periph_reset_enable                  0x080006d9   Thumb Code    22  gd32f30x_rcu.o(i.rcu_periph_reset_enable)
    usart_baudrate_set                       0x080007b5   Thumb Code   102  gd32f30x_usart.o(i.usart_baudrate_set)
    usart_data_receive                       0x08000825   Thumb Code     8  gd32f30x_usart.o(i.usart_data_receive)
    usart_deinit                             0x0800082d   Thumb Code   136  gd32f30x_usart.o(i.usart_deinit)
    usart_enable                             0x080008bd   Thumb Code    10  gd32f30x_usart.o(i.usart_enable)
    usart_interrupt_enable                   0x080008c7   Thumb Code    20  gd32f30x_usart.o(i.usart_interrupt_enable)
    usart_interrupt_flag_clear               0x080008db   Thumb Code    18  gd32f30x_usart.o(i.usart_interrupt_flag_clear)
    usart_interrupt_flag_get                 0x080008ed   Thumb Code    50  gd32f30x_usart.o(i.usart_interrupt_flag_get)
    usart_parity_config                      0x0800091f   Thumb Code    16  gd32f30x_usart.o(i.usart_parity_config)
    usart_receive_config                     0x0800092f   Thumb Code    20  gd32f30x_usart.o(i.usart_receive_config)
    usart_stop_bit_set                       0x08000943   Thumb Code    16  gd32f30x_usart.o(i.usart_stop_bit_set)
    usart_transmit_config                    0x08000953   Thumb Code    20  gd32f30x_usart.o(i.usart_transmit_config)
    usart_word_length_set                    0x08000967   Thumb Code    16  gd32f30x_usart.o(i.usart_word_length_set)
    Region$$Table$$Base                      0x08000978   Number         0  anon$$obj.o(Region$$Table)
    Region$$Table$$Limit                     0x08000998   Number         0  anon$$obj.o(Region$$Table)
    g_Usb2ComInfo                            0x20000034   Data          28  usb2com_drv.o(.data)
    __initial_sp                             0x20000468   Data           0  startup_gd32f30x_hd.o(STACK)



==============================================================================

Memory Map of the image

  Image Entry point : 0x08000131

  Load Region LR_IROM1 (Base: 0x08000000, Size: 0x000009e8, Max: 0x00080000, ABSOLUTE)

    Execution Region ER_IROM1 (Exec base: 0x08000000, Load base: 0x08000000, Size: 0x00000998, Max: 0x00080000, ABSOLUTE)

    Exec Addr    Load Addr    Size         Type   Attr      Idx    E Section Name        Object

    0x08000000   0x08000000   0x00000130   Data   RO         1077    RESET               startup_gd32f30x_hd.o
    0x08000130   0x08000130   0x00000000   Code   RO         1134  * .ARM.Collect$$$$00000000  mc_w.l(entry.o)
    0x08000130   0x08000130   0x00000004   Code   RO         1137    .ARM.Collect$$$$00000001  mc_w.l(entry2.o)
    0x08000134   0x08000134   0x00000004   Code   RO         1140    .ARM.Collect$$$$00000004  mc_w.l(entry5.o)
    0x08000138   0x08000138   0x00000000   Code   RO         1142    .ARM.Collect$$$$00000008  mc_w.l(entry7b.o)
    0x08000138   0x08000138   0x00000000   Code   RO         1144    .ARM.Collect$$$$0000000A  mc_w.l(entry8b.o)
    0x08000138   0x08000138   0x00000008   Code   RO         1145    .ARM.Collect$$$$0000000B  mc_w.l(entry9a.o)
    0x08000140   0x08000140   0x00000004   Code   RO         1152    .ARM.Collect$$$$0000000E  mc_w.l(entry12b.o)
    0x08000144   0x08000144   0x00000000   Code   RO         1147    .ARM.Collect$$$$0000000F  mc_w.l(entry10a.o)
    0x08000144   0x08000144   0x00000000   Code   RO         1149    .ARM.Collect$$$$00000011  mc_w.l(entry11a.o)
    0x08000144   0x08000144   0x00000004   Code   RO         1138    .ARM.Collect$$$$00002712  mc_w.l(entry2.o)
    0x08000148   0x08000148   0x00000024   Code   RO         1078    .text               startup_gd32f30x_hd.o
    0x0800016c   0x0800016c   0x00000024   Code   RO         1153    .text               mc_w.l(init.o)
    0x08000190   0x08000190   0x00000018   Code   RO          227    i.CalXorSum         usb2com_drv.o
    0x080001a8   0x080001a8   0x00000010   Code   RO          228    i.CtrlLed           usb2com_drv.o
    0x080001b8   0x080001b8   0x00000038   Code   RO          146    i.LedDrvInit        led_drv.o
    0x080001f0   0x080001f0   0x00000044   Code   RO          229    i.ProcUartData      usb2com_drv.o
    0x08000234   0x08000234   0x00000018   Code   RO          190    i.SysTick_Handler   systick.o
    0x0800024c   0x0800024c   0x00000084   Code   RO         1085    i.SystemInit        system_gd32f30x.o
    0x080002d0   0x080002d0   0x0000001c   Code   RO          148    i.TurnOffLed        led_drv.o
    0x080002ec   0x080002ec   0x0000001c   Code   RO          149    i.TurnOnLed         led_drv.o
    0x08000308   0x08000308   0x00000034   Code   RO          230    i.USART0_IRQHandler  usb2com_drv.o
    0x0800033c   0x0800033c   0x00000012   Code   RO          231    i.Usb2ComDrvInit    usb2com_drv.o
    0x0800034e   0x0800034e   0x00000002   PAD
    0x08000350   0x08000350   0x0000002c   Code   RO          232    i.Usb2ComGpioInit   usb2com_drv.o
    0x0800037c   0x0800037c   0x0000003c   Code   RO          233    i.Usb2ComTask       usb2com_drv.o
    0x080003b8   0x080003b8   0x00000064   Code   RO          235    i.Usb2ComUartInit   usb2com_drv.o
    0x0800041c   0x0800041c   0x0000000e   Code   RO         1157    i.__scatterload_copy  mc_w.l(handlers.o)
    0x0800042a   0x0800042a   0x00000002   Code   RO         1158    i.__scatterload_null  mc_w.l(handlers.o)
    0x0800042c   0x0800042c   0x0000000e   Code   RO         1159    i.__scatterload_zeroinit  mc_w.l(handlers.o)
    0x0800043a   0x0800043a   0x00000004   Code   RO          308    i.gpio_bit_reset    gd32f30x_gpio.o
    0x0800043e   0x0800043e   0x00000004   Code   RO          309    i.gpio_bit_set      gd32f30x_gpio.o
    0x08000442   0x08000442   0x000000a4   Code   RO          318    i.gpio_init         gd32f30x_gpio.o
    0x080004e6   0x080004e6   0x0000000e   Code   RO            3    i.main              main.o
    0x080004f4   0x080004f4   0x0000009c   Code   RO         1022    i.nvic_irq_enable   gd32f30x_misc.o
    0x08000590   0x08000590   0x00000014   Code   RO         1023    i.nvic_priority_group_set  gd32f30x_misc.o
    0x080005a4   0x080005a4   0x000000fc   Code   RO          459    i.rcu_clock_freq_get  gd32f30x_rcu.o
    0x080006a0   0x080006a0   0x0000001c   Code   RO          477    i.rcu_periph_clock_enable  gd32f30x_rcu.o
    0x080006bc   0x080006bc   0x0000001c   Code   RO          480    i.rcu_periph_reset_disable  gd32f30x_rcu.o
    0x080006d8   0x080006d8   0x0000001c   Code   RO          481    i.rcu_periph_reset_enable  gd32f30x_rcu.o
    0x080006f4   0x080006f4   0x000000bc   Code   RO         1086    i.system_clock_120m_hxtal  system_gd32f30x.o
    0x080007b0   0x080007b0   0x00000004   Code   RO         1087    i.system_clock_config  system_gd32f30x.o
    0x080007b4   0x080007b4   0x00000070   Code   RO          705    i.usart_baudrate_set  gd32f30x_usart.o
    0x08000824   0x08000824   0x00000008   Code   RO          708    i.usart_data_receive  gd32f30x_usart.o
    0x0800082c   0x0800082c   0x00000090   Code   RO          710    i.usart_deinit      gd32f30x_usart.o
    0x080008bc   0x080008bc   0x0000000a   Code   RO          714    i.usart_enable      gd32f30x_usart.o
    0x080008c6   0x080008c6   0x00000014   Code   RO          723    i.usart_interrupt_enable  gd32f30x_usart.o
    0x080008da   0x080008da   0x00000012   Code   RO          724    i.usart_interrupt_flag_clear  gd32f30x_usart.o
    0x080008ec   0x080008ec   0x00000032   Code   RO          725    i.usart_interrupt_flag_get  gd32f30x_usart.o
    0x0800091e   0x0800091e   0x00000010   Code   RO          736    i.usart_parity_config  gd32f30x_usart.o
    0x0800092e   0x0800092e   0x00000014   Code   RO          738    i.usart_receive_config  gd32f30x_usart.o
    0x08000942   0x08000942   0x00000010   Code   RO          748    i.usart_stop_bit_set  gd32f30x_usart.o
    0x08000952   0x08000952   0x00000014   Code   RO          752    i.usart_transmit_config  gd32f30x_usart.o
    0x08000966   0x08000966   0x00000010   Code   RO          753    i.usart_word_length_set  gd32f30x_usart.o
    0x08000976   0x08000976   0x00000002   PAD
    0x08000978   0x08000978   0x00000020   Data   RO         1155    Region$$Table       anon$$obj.o


    Execution Region RW_IRAM1 (Exec base: 0x20000000, Load base: 0x08000998, Size: 0x00000468, Max: 0x00010000, ABSOLUTE)

    Exec Addr    Load Addr    Size         Type   Attr      Idx    E Section Name        Object

    0x20000000   0x08000998   0x00000024   Data   RW          150    .data               led_drv.o
    0x20000024   0x080009bc   0x00000004   PAD
    0x20000028   0x080009c0   0x00000008   Data   RW          192    .data               systick.o
    0x20000030   0x080009c8   0x00000020   Data   RW          238    .data               usb2com_drv.o
    0x20000050        -       0x00000014   Zero   RW          237    .bss                usb2com_drv.o
    0x20000064   0x080009e8   0x00000004   PAD
    0x20000068        -       0x00000400   Zero   RW         1075    STACK               startup_gd32f30x_hd.o


==============================================================================

Image component sizes


      Code (inc. data)   RO Data    RW Data    ZI Data      Debug   Object Name

       172          0          0          0          0       2108   gd32f30x_gpio.o
       176         16          0          0          0       1416   gd32f30x_misc.o
       336         46          0          0          0      20168   gd32f30x_rcu.o
       450         18          0          0          0      14155   gd32f30x_usart.o
       112         12          0         36          0       2350   led_drv.o
        14          0          0          0          0      26223   main.o
        36          8        304          0       1024        828   startup_gd32f30x_hd.o
       324         32          0          0          0       2437   system_gd32f30x.o
        24          6          0          8          0       1042   systick.o
       382         38          0         32         20       5547   usb2com_drv.o

    ----------------------------------------------------------------------
      2030        176        336         80       1048      76274   Object Totals
         0          0         32          0          0          0   (incl. Generated)
         4          0          0          4          4          0   (incl. Padding)

    ----------------------------------------------------------------------

      Code (inc. data)   RO Data    RW Data    ZI Data      Debug   Library Member Name

         0          0          0          0          0          0   entry.o
         0          0          0          0          0          0   entry10a.o
         0          0          0          0          0          0   entry11a.o
         4          0          0          0          0          0   entry12b.o
         8          4          0          0          0          0   entry2.o
         4          0          0          0          0          0   entry5.o
         0          0          0          0          0          0   entry7b.o
         0          0          0          0          0          0   entry8b.o
         8          4          0          0          0          0   entry9a.o
        30          0          0          0          0          0   handlers.o
        36          8          0          0          0         68   init.o

    ----------------------------------------------------------------------
        90         16          0          0          0         68   Library Totals
         0          0          0          0          0          0   (incl. Padding)

    ----------------------------------------------------------------------

      Code (inc. data)   RO Data    RW Data    ZI Data      Debug   Library Name

        90         16          0          0          0         68   mc_w.l

    ----------------------------------------------------------------------
        90         16          0          0          0         68   Library Totals

    ----------------------------------------------------------------------

==============================================================================


      Code (inc. data)   RO Data    RW Data    ZI Data      Debug   

      2120        192        336         80       1048      73346   Grand Totals
      2120        192        336         80       1048      73346   ELF Image Totals
      2120        192        336         80          0          0   ROM Totals

==============================================================================

    Total RO  Size (Code + RO Data)                 2456 (   2.40kB)
    Total RW  Size (RW Data + ZI Data)              1128 (   1.10kB)
    Total ROM Size (Code + RO Data + RW Data)       2536 (   2.48kB)

==============================================================================

