:020000040800F2
:1000000050460020450100084D0100084F0100083E
:1000100051010008530100085501000800000000CC
:100020000000000000000000000000005701000870
:1000300059010008000000005B010008E90C0008FD
:100040005F0100085F0100085F0100085F01000810
:100050005F0100085F0100085F0100085F01000800
:100060005F0100085F0100085F0100085F010008F0
:100070005F0100085F0100085F0100085F010008E0
:100080005F0100085F0100085F0100085F010008D0
:100090005F0100085F0100085F0100085F010008C0
:1000A0005F0100085F0100085F0100085F010008B0
:1000B0005F0100085F010008010F00085F010008F0
:1000C0005F0100085F0100085F0100085F01000890
:1000D0005F01000859120008991200085F0100082A
:1000E0005F0100085F0100085F0100085F01000870
:1000F0005F0100085F0100085F0100085F01000860
:100100005F0100085F010008390F00085F01000867
:100110005F0100085F0100085F0100085F0100083F
:100120005F0100085F0100085F0100085F0100082F
:10013000DFF80CD000F09CFA00480047DD1C0008F6
:10014000504600200648804706480047FEE7FEE785
:10015000FEE7FEE7FEE7FEE7FEE7FEE7FEE7FEE777
:10016000110D0008310100082DE9FE43994615469E
:100170008846074601AC022942D3002D40D000201A
:100180000290A8F101004FF0FF36009022E000FB42
:10019000057201FB057011464A469047002805DCB0
:1001A00054F82600304444F8260013E060682A46DC
:1001B00000FB057154F8040C00FB057007E00B7898
:1001C00090F800C001F801CB00F8013B521E002A54
:1001D000F5D1764254F8040C61688842D7DC4B466E
:1001E0002A463846FFF7C0FF54F8040C4B46A8EBEC
:1001F0000001401C00FB05702A46491EFFF7B4FFB2
:10020000BDE8FE8340EA01039B0703D009E008C96B
:10021000121F08C0042AFAD203E011F8013B00F8CB
:10022000013B521EF9D27047D2B201E000F8012B17
:10023000491EFBD270470022F6E710B513460A4666
:1002400004461946FFF7F0FF204610BD00F00042BB
:1002500030F000400AD0C10D01F56071C0F3160006
:1002600042EA0151C208400711437047002001468D
:10027000704730B50B46014600202022012409E0DA
:1002800021FA02F59D4205D303FA02F5491B04FA4F
:1002900002F52844151EA2F10102F1DC30BD2DE962
:1002A000F05F0546002092469B46884606468146FA
:1002B00040241BE0284641464746224600F0FFF90D
:1002C00053465A46C01A914110D311461846224649
:1002D00000F0E6F92D1A67EB01084F46224601208F
:1002E000002100F0DDF917EB00094E41201EA4F1BA
:1002F0000104DFDC484631462A464346BDE8F09F0C
:100300002DE9FE4F804681EA0300C00F0C460090A5
:1003100021F0004123F00045B8EB0200A94105D2CD
:100320004046214690461C460B46024623F00040BC
:10033000104347D0270DC7F30A00C3F30A510290B8
:10034000401A019040286BDAC3F3130040F4801B7D
:100350000098924620B10023D2EB030A63EB0B0B0B
:1003600001985946C0F14002504600F099F90646FE
:100370000D4650465946019A00F0B1F910EB0800BD
:100380006141002487EA115284EAE7731A4340D09E
:10039000009A62B3019A012A4FEA075215DC001B4A
:1003A00061EB02014FF0004202EA0752CDE9004240
:1003B000001C41F5801132462B4600F0B1F903B024
:1003C000BDE8F08F40462146F9E7001B61EB0201D2
:1003D000001C41F5801300185B412018A2F500179E
:1003E00047EB030140EAD570B6196D4111E06D0885
:1003F0004FEA360645EAC0754FEA0752001B61EB2B
:100400000201001C41F5801149084FEA3000001933
:10041000514132462B4603B0BDE8F04F00F071B9B0
:100420000098012240000023D0EB020263EBE0734E
:10043000009821464FEAE074B8EB000061EB04013C
:10044000E9E783F000435BE781F0004158E72DE9DD
:10045000FE4F81EA030404F0004421F000410094BF
:100460004FF0000B23F0004350EA01045ED052EA43
:1004700003045BD0C3F30A54C1F30A552C44A4F21D
:10048000F3340194A0FB0254C1F3130141F4801131
:10049000C3F3130343F4801301FB024400FB034E38
:1004A000840A970A44EA815447EA8357A4FB076801
:1004B00002958D0A05FB07854FEA932C04FB0C542B
:1004C0002705029D4FEA065847EA1637B5EB08059F
:1004D0006EEB070C870E920E47EA811742EA8312F1
:1004E000A7FB0201B6EB0B0164EB00042B0D43EA02
:1004F0000C335E1844EB1C50DA465146E7FB020110
:10050000C5F313044FEA0B3343EA14534FEA0432A2
:10051000019C43EA0603A4F10C040294009CCDE97B
:1005200000B400F0FDF803B0BDE8F08F00200146F4
:10053000F9E72DE9F04D81EA030404F0004B21F0C6
:10054000004514464FF0000A23F0004150EA05022E
:1005500020D054EA01021DD0C5F30A570246C5F364
:100560001303C1F31300C1F30A5640F4801543F49A
:100570008013A7EB0608101BD64608F2FD3873EB74
:10058000050002D308F1010801E092185B41B8F1BF
:10059000000F03DA00200146BDE8F08D00204FF483
:1005A0008011064684460EE0171B73EB050705D342
:1005B000121B63EB050306434CEA010C49084FEAA2
:1005C000300092185B4150EA0107EDD152EA030076
:1005D00012D082EA040083EA0501084305D0101B0B
:1005E000AB4106D20122002306E000224FF0004377
:1005F00002E06FF0010253101AEB06004CEB0851B9
:1006000010EB0A0041EB0B01BDE8F04D00F079B8AA
:10061000C1F30A52C1F3130140F2FF3341F48011D8
:100620009A4202DA00200146704740F233439A4270
:10063000A2F2334202DC524200F041B800F030B87E
:1006400030B5041E71F1000404DB4FF00044404259
:1006500064EB0101141E73F1000405DB1C464FF02E
:100660000043524263EB0403994208BF904230BDFD
:100670001CB509480090094801900546009C06E019
:10068000E06840F0010394E8070098471034AC425A
:10069000F6D3FFF751FD00000037000820370008AF
:1006A000202A04DB203A00FA02F100207047914032
:1006B000C2F1200320FA03F3194390407047202A27
:1006C00004DB203A21FA02F00021704721FA02F3FC
:1006D000D040C2F120029140084319467047202AB9
:1006E00006DBCB17203A41FA02F043EAE07306E05A
:1006F00041FA02F3D040C2F120029140084319466A
:10070000704710B5141E73F1000408DA401C41F163
:10071000000192185B411A4301D120F0010010BD85
:100720002DE9F04D92469B4611B1B1FA81F202E0FB
:10073000B0FA80F220329046FFF7B2FF04460F462F
:1007400040EA0A0041EA0B0153465A46084313D0D7
:10075000114653EA010019D0C8F140025046FFF794
:10076000AEFF05460E46504659464246FFF798FFF3
:10077000084305D0012004E020463946BDE8F08D4D
:100780000020054346EAE0762C4337430A98630588
:10079000E40AA0EB08000022FD0A44EA47540A30AC
:1007A00002D500200146E9E7010510196941DDE99C
:1007B000084500196941BDE8F04DA2E700880988A5
:1007C000401A704770B541F20405CEF200052E685C
:1007D0000446012001F046FB4DF68361C4F21B3153
:1007E000A0FB0101880C60432968891B8142FBD36F
:1007F00070BD00004EF6FC50CEF20000016821F002
:1008000080710160016841F08071016041F2000077
:10081000CEF20000016821F001010160016841F0A1
:1008200001010160002141607047000040F2EE00CC
:10083000C2F2000000787047002808BF704710B56A
:10084000044600F009F884ED010AFFF7EFFF20707D
:10085000BDE810407047000040F20810C2F20000EE
:1008600090ED000A7047000080B584B002A8FFF741
:10087000E3FF0398FFF7EAFC9DF808C0024604A0D6
:100880000B46CDF800C001F079FF04B080BD00BF79
:1008900074656D7065726174757265203D20252EDA
:1008A000316620A1E62C2068756D69646974792031
:1008B0003D20256425252E0A0000000070B584B077
:1008C00040F2046001F036FB42F60004C4F2010479
:1008D000A4F5C050002101221023002601F09CF94C
:1008E00040F2036001F026FBA4F5E05528461021F4
:1008F0000122012301F090F9284610210122022350
:1009000001F08AF928460121012201F07FF92846E9
:100910000221002201F07AF940F20A6001F00AFB9C
:10092000022001F065FA204600F02EFE204600214C
:1009300000F0FEFE002000F091FE20460221002281
:1009400000F010FF2046002100F014FE2046012197
:10095000012200F0F1FD204600210E22062300F0C6
:10096000A9FE204601214FF4602200F05BFE2046E4
:100970000121012200F036FE204600F029FE14205D
:10098000FFF720FF204600F0C7FD40F2037001F0A2
:10099000D1FAA4F58E34204601F0FEFA6D462846C1
:1009A00001F0DCFB7720009040F2E7300290204617
:1009B0002946ADF8046001F05DFB2046012101F0FD
:1009C000B9FB32200021002201F0B2F9204601F0EB
:1009D0004BFB04B070BD00002DE9F0418AB00DF171
:1009E000040805463C2840464FF0240128BF3C251A
:1009F000FFF721FC34206843020A02EB8200281A28
:100A0000C0B218B343F2B04302EBC202C0F6000317
:100A100003EB820246F26765A8F10201223212233B
:100A2000C6F2666532F8024F013B32F8246CA4EB43
:100A3000060400FB04F454FB05F44FEA540707EBEB
:100A4000D477374421F8027FECD10BE043F2B04178
:100A500002EBC200C0F6000101EB800101A82422D4
:100A6000FFF7D0FB40F2EC00C2F200000088112238
:100A70000021002357B25EB2BF1B07EBD77703EB11
:100A800057077EB238F81660864238BF7B1C28BFF5
:100A90007A1E5BB252B2864228BF39469342E9DDE4
:100AA0000A0610D049B24A1E38F8123038F8111030
:100AB000C01A00EB8000C91A90FBF1F002EB820132
:100AC00008440A3000E00A2040F2EE01C2F20001C0
:100AD00008700AB0BDE8F081F0B581B043F2743718
:100AE0006FF00B06C0F60007BC19A08901F022FACE
:100AF000D4E904451021204602222B4601F08CF84F
:100B00002046294601F07EF80C36182EECD101B0B3
:100B1000F0BD000080B584B00648009005A0C26812
:100B2000D0E901100392CDE90110684600F04AF8BF
:100B300004B080BD0100000080250000791300088A
:100B4000F90B000800F006BFB0B50446082002F01B
:100B5000D7FA0546FFF770FE287800EB80004100C9
:100B600028462180BDE8B04002F08EBA10B582B0B0
:100B700004466846FFF760FE9DED010AB2EE041AD6
:100B800020EE010ABDEEC00A10EE100A208002B06D
:100B900010BD000010B1002000F04EBB002000F09E
:100BA0003BBB000010B1012000F046BB012000F06B
:100BB00033BB000010B1022000F03EBB022000F069
:100BC0002BBB000010B582B00178436804464FF09B
:100BD000000C00200022CDF800C000F075FED4E922
:100BE000020140F2F002C2F20002C2E9000102B0CA
:100BF000BDE8104000F0E4BD2DE9F04F83B00028BF
:100C0000029151D0002A4FF0000B4FD0054600242E
:100C1000019200BF029843F2604604EB00096000B5
:100C200005EB440700F101084FF0000AC0F600068A
:100C3000002000210CE000BFBAF1030F0AF1010A05
:100C40004FF0000088BF01201036BAF1050F15D013
:100C500072889145F0D13178C90711D0BAF1010FEE
:100C60003146E9D8B16838468847397815F8080020
:100C700005F8081031463870DEE700BF0E4601E087
:100C80004FF0020B00F00100002E594608BF012171
:100C900000281CBF8B46002E08D0019A01349442D4
:100CA000B8D14FF0000B01E04FF0020B5FFA8BF070
:100CB00003B0BDE8F08F000000F008B880B500F088
:100CC000B7F9BDE88040FFF7F9BD000080B500F03E
:100CD00007FAFFF7C1FDBDEEC00A10EE100ABDE82D
:100CE0008040FFF779BE000040F20010C2F2000021
:100CF000D0E90012013142F10002C0E9001240F2D5
:100D0000FC00C2F200000068002808BF70470047DE
:100D100081B04EF68851CEF200010A6841F2040C0F
:100D200042F47002C4F2020C0A605CF8041C41F048
:100D300001014CF8041C00BF5CF8041C8907FBD5BA
:100D4000DCF8001041F08001CCF800100021009187
:100D5000009A4F2A06D800BF009A01320092009AEA
:100D6000502AF9D3DCF8002042F09002CCF80020A1
:100D7000009100994F2905D80099013100910099FF
:100D80005029F9D3DCF800104FF6FF7221F003016F
:100D9000CCF800105CF8041CCFF6F66211404CF859
:100DA000041C4FF41F01CCF804105CF8041C21F45F
:100DB00080214CF8041C0021CCF80010CCF828103D
:100DC0005CF8042C42F480324CF8042C4FF6FE728E
:100DD0005CF8040C013A41F10003800301D4002BBC
:100DE000F6D15CF8040C800301D400BFFEE7DCF808
:100DF000180047F2000140F08050C4F20001CCF826
:100E0000180008684FF6FF7240F440400860DCF8B4
:100E10000000CBF2C372CCF80000DCF80000CCF884
:100E20000000DCF8000040F48060CCF80000DCF842
:100E3000000020F44030CCF80000DCF8000040F462
:100E40004030CCF80000DCF800001040CCF8000086
:100E5000DCF8000040F0006040F45010CCF80000D6
:100E60005CF8040C40F080704CF8040C5CF8040C46
:100E70008001FBD5086840F4803008604868C003F2
:100E8000FCD5086840F40030086000BF4868800363
:100E9000FCD5DCF8000020F00300CCF80000DCF802
:100EA000000040F00200CCF8000000BFDCF80000B9
:100EB0000007FBD501B0704780B5012000F0D2FFDC
:100EC00044F6D351C1F26201A0FB01014FF0FF30A3
:100ED00000EB9110B0F1807F10D24EF21001CEF2F3
:100EE000000148604EF62350CEF20000F02202705E
:100EF000002088600720086080BD00BFFEE700007A
:100F000010B540F60004C4F200042046012101F0AF
:100F100019F9002808BF10BD2046012101F00EF983
:100F20002046002101F036F840F24010C2F20000E5
:100F30000068BDE810400047B0B540F60044C4F278
:100F40000104A4F580352846012101F0FBF80028B2
:100F50004BD02846012101F0F1F840F2DA05C2F247
:100F6000000528880130C107288015D120460121BD
:100F700000F0AEFEB0FA80F042092046012100F0F8
:100F800045FE2046022100F0A3FEB0FA80F042099F
:100F90002046022100F03AFE288845F62941013812
:100FA000CCF28F2148434DF20A714FEA3010C0F263
:100FB000A301884288BFB0BD04F5E054204601215A
:100FC00000F0C2FB2046022100F042FB0028F9D0CD
:100FD000204600F0A9FB05462046022100F034FB24
:100FE00040F2EC00C2F200000580B0BD80B540F2D6
:100FF000300E0020C2F2000E4FF0010C04E000BFE2
:101000000C30242808BF80BD0EEB00035A88002A4C
:10101000F6D0013A11045A80F2D199880EF800C036
:101020005980EDE740F2FC01C2F200010860704710
:1010300010B540F2046000F07DFF42F20044C4F2BB
:101040000104A4F5A05000210122082300F0E4FDD2
:1010500040F2096000F06EFF022000F0C9FE204659
:1010600000F092FA2046002100F062FB002000F020
:10107000F5FA20460221012200F074FB20460021EF
:1010800000F078FA20460121012200F055FA2046AE
:1010900000210D22072300F00DFB204601214FF413
:1010A000602200F0BFFA20460121012200F09AFAE6
:1010B0002046002180220C2300F0DCFA204600F0BC
:1010C000F1FA204600F084FA1420FFF77BFB20465B
:1010D00000F022FA20460121BDE8104000F034BBA8
:1010E000B0B542F20045C4F2010500BF2846022116
:1010F00000F0AEFA0028F9D0284600F015FB0446AF
:101100002846022100F0A0FA43F2983C6322002115
:10111000C0F6000C002300BF55B258B2281A00EBED
:10112000D07003EB500045B23CF81550A54288BF83
:10113000431C98BF421E5BB252B2A54298BF014603
:101140009342E9DD080612D048B2411E3CF8112056
:101150003CF81000131B03EB83035B00101A93FB96
:10116000F0F001EB810100EB410001B200E0002151
:1011700040F2D802C2F20002137840F20C10C2F220
:10118000000040F82310591CCBB2CD256B43DB0A7D
:1011900003EB8303A1EB430340F2DC01C2F2000145
:1011A0000D7813706B1CDAB2022A0B7001D800683C
:1011B00023E00B2A24BF0A2008700D7840F20C149B
:1011C000C2F2000440F2BD73C0F600032046294677
:1011D0000422FEF7C9FFA81E01060AD0221FC3B2CF
:1011E000002100BF9568013B294402F10402F9D1B6
:1011F00000E00021C0B291FBF0F000EE100AB8EE62
:10120000C00AB2EE041A80EE010A40F20810C2F2DF
:10121000000080ED000AB0BD032888BF704743F28C
:10122000743100EB4000C0F6000101EB8000D0E912
:10123000010100F0E7BC0000032888BF704743F2BB
:10124000743100EB4000C0F6000101EB8000D0E9F2
:10125000010100F0D9BC0000B0B540F21405C2F2A3
:10126000000540F205342868C0F20504214601F06B
:1012700059F8002808BFB0BD2868214601F048F899
:10128000286800F0D9FF40F2F801C2F200010968B5
:10129000C0B2BDE8B040084770B540F2053544F231
:1012A0000044C0F20505C4F2000405F10116204611
:1012B000314601F037F848B12046314601F028F8B0
:1012C00040F23C10C2F200000068804720462946E8
:1012D00001F028F8002808BF70BD2046294601F01B
:1012E00017F840F23810C2F200000068BDE8704004
:1012F0000047000010B540F21404C2F20004A089B7
:1013000000F018FEA06823691821012200F084FC77
:10131000A06863694821012200F07EFCA08800F0EB
:1013200009FE206800F090FF2068002101F030F8ED
:101330002068002101F008F82068002101F016F86B
:1013400020684FF4E13100F035FF2068082101F0FA
:1013500015F82068042100F0FFFF206840F20531F5
:1013600000F0CAFF207E0021002200F0E1FC20688E
:10137000BDE8104000F0A6BF2DE9F04F85B0002871
:10138000029169D0002A4FF0000166D043F2604319
:101390000546C0F600030026019200BF02987200C5
:1013A0003718039602F101084FF000094FF0000BC7
:1013B0004FF0000A0E46002004E000BF0226002085
:1013C00008BB35E003EB090461888F421CD120780B
:1013D000800729D5A85C15F8081041EA0020A188EB
:1013E00080B28842EAD3E1888842E7D8BBF1020F95
:1013F00007D3E16804928847049A43F26043C0F639
:1014000000030120A0B12046BBF1030F4FF0000AFA
:1014100009F110090BF1010B88BF4FF0010AB9F176
:10142000500FCFD106E000BF0226204602E000BFE9
:1014300003EB0B100AF001070028314608BF012119
:10144000002F0CBF3146002807D0039E019A0136B9
:101450009642A3D1002100E00221C8B205B0BDE848
:10146000F08F000084B040F20005C2F2000514467F
:101470000E4607461DA0162101222B4601F02CFE28
:101480003846294601F0F3FD1EA0072101222B4614
:1014900001F022FE3046294601F0E9FD1BA007219C
:1014A00001222B4601F018FE01A80A300A21012C66
:1014B000ADF80E1012DB4CF6CD41CCF6CC4100BF9E
:1014C000A4FB0123DA0802EB8203A4EB430343F0FD
:1014D000300300F8013D092C1446F1D840F2000118
:1014E000C2F2000101F0C3FD00F014F82A2A2A20FC
:1014F000617373657274696F6E206661696C65648F
:101500003A2000002C2066696C6520002C206C6954
:101510006E652000FEE70000816841F008018160EF
:1015200081680907FCD4816841F00401816000BF33
:1015300081684907FCD4704780B5012908D0022989
:1015400018BF80BD4FF4401E6FF4401C382304E0E8
:101550004FF4700E6FF4700C2C23195801EA0C0133
:1015600019500EEB02511A5801EA0E01114319509D
:1015700080BD00008268002922F4006218BF02F5D5
:10158000006282607047000010B542F20041C4F270
:10159000010188420FD043F60041C4F201018842A4
:1015A0000CD042F60001C4F20101884218BF10BD00
:1015B00040F20A3404E040F2093401E040F20F3412
:1015C000204600F0D7FC2046BDE8104000F0C2BC29
:1015D0008168C90718BF7047816841F001018160C7
:1015E0007047000022B1CA0710D1890714D4704790
:1015F000CA0703D0826822F480128260890758BF2C
:101600007047816821F4004181607047826842F42C
:10161000801282608907EAD5816841F400418160C7
:1016200070470000012905D0022918BF70476FF4E8
:10163000E04101E06FF460218368194081608168B6
:101640001143816070470000C9430160704700008A
:101650000068084018BF01207047000042F20441B2
:10166000C4F201010A6822F470220A600A68104379
:1016700008607047D0F880C0B1F5007F2CF4007C82
:1016800008BF0CF5007CC0F880C0D0F880101A4369
:1016900021F4FE71C0F88010D0F880101143C0F81A
:1016A00080107047D0F8801041F00101C0F8801020
:1016B0007047000010B5052904D800F1340C01EB87
:1016C000810E10E00B2906D801EB810100F1300CEE
:1016D000A1F11E0E07E00F2910D801EB810100F1E6
:1016E0002C0CA1F13C0EDCF800101F2404FA0EF4BF
:1016F000A14302FA0EF42143CCF80010092A03D8C2
:10170000103002EB420106E0112A88BF10BD02EB47
:1017100042010C301E39026807248C40A24303FAB0
:1017200001F11143016010BDC06C80B27047000030
:10173000D0F8802022F44052C0F88020D0F88020D9
:101740001143C0F880107047CA0703D0826842F482
:1017500080028260890758BF7047816841F4001198
:101760008160704732B1CA0518D44A051CD4890774
:1017700020D47047CA0503D5426822F480724260C3
:101780004A0503D5426822F480624260890758BF47
:101790007047816821F0020181607047426842F41D
:1017A000807242604A05E2D5426842F4806242603B
:1017B0008907DED5816841F0020181607047000031
:1017C00010B540F21004C2F20004207801281CBFBA
:1017D000062010BD00F0EAF90020207010BD0000C6
:1017E00070B50C46098805291CBF032070BDB0F8F0
:1017F00003100ABA4FF0FF3101EB124189B27C2984
:101800004FF003011DD80025B0F80130258000F805
:10181000021B2188120C01315600218000F8016C56
:1018200025881BBA190C6B1C2380002300F0CCF90F
:1018300018B1BDE8704000F0CDBA208800213044D6
:101840002080084670BD0000098805291CBF0320C0
:10185000704780B5B0F80110033009BA090C0122B5
:10186000012300F0B1F90028BDE8804004BF00204A
:10187000704700F0AFBA000010B50C460988062981
:101880001BD3C278017941EA0222531E9BB2772B07
:1018900013D8437901F07F01B3EB410F0DD1B0F8BC
:1018A0000110063009BA090C92B2012300F08CF93C
:1018B00028B1BDE8104000F08DBA032010BD05200E
:1018C0002080002010BD000010B501F10804E4B232
:1018D000092C3CBF022010BD40F24414C2F20004A7
:1018E000217018B102243CB3204610BD40F23810DC
:1018F00042F2CD54C2F20000C0F60004046040F28F
:101900003C1042F2DD64C2F20000C0F60004DDF8D3
:1019100008C0046040F2401042F28564C2F2000048
:10192000C0F600040460084611461A46634600F0FB
:1019300097F80446002CD7D100F0A2FD38B140F250
:101940001000C2F2000001210170204610BD0320EA
:1019500010BD000040F21000C2F200000078002824
:101960001CBF06207047F0B581B00DF1030000F0F8
:1019700073FD012871D19DF8030002281FD00128B2
:101980006BD140F2E404C2F2000440F2E00140F204
:10199000E602C2F20001C2F20002204600F080F826
:1019A00000285AD1207830B140F24411C2F200012F
:1019B0000978884251D1022000F06AFD4DE040F2E2
:1019C000E004C2F20004206840F2DD06017840F233
:1019D000DE07C2F20006012240F25403C2F2000701
:1019E00032700022C2F20003397000BF13F8325087
:1019F00075B18D4203D00132102AF7D108E003EB14
:101A0000C2014A6840F2E601C2F20001904730701C
:101A100040F2E400C2F200000078F0B1307878B112
:101A2000397840F2E6022368C2F2000241F08001F8
:101A3000012717801970118823684F1C178058548C
:101A400040F2441040F2E602C2F20000C2F200028C
:101A500000782168128800F067F8002001B0F0BD1E
:101A600010B5144608461146082200F02BFD012847
:101A700004D1B4F5964F04D9232009E00320C0B265
:101A800010BD47F6A0716000C0F21701B1FBF0F085
:101A900080B200F071FD013818BF0320C0B210BD44
:101AA0002DE9F04140F24624C2F20004904622881B
:101AB000B2F5807F1BD206462088042809D340F265
:101AC00045170D462188C2F20007384600F04EFB4C
:101AD00010B10520BDE8F08117F8010B30702088A7
:101AE0002F600338A8F800000020BDE8F08143F221
:101AF000E16103A0C0F600019B22FFF7B3FC00BF29
:101B00007573526376427566666572506F73203CDA
:101B1000204D425F5345525F5044555F53495A45EB
:101B20005F4D41580000000070B540F2E903C2F279
:101B300000031B78012B1CBF052070BD40F234153B
:101B400040F248244B1EC2F20005C2F200040126F6
:101B50002B60268001F8010C208810442080218809
:101B6000184600F003FB21884A1C228040F24512EF
:101B7000C2F2000250542188000A4B1C23805054AA
:101B800040F2EA00C2F2000006702868007800F017
:101B9000E9FC286801210130286020880138208074
:101BA0000020002400F0FCFB204670BD80B540F210
:101BB000E900C2F2000000210170012000F0F0FBFA
:101BC000BDE8804000F032BC40F2F00CC2F2000CE4
:101BD000012B18BF0CF1040CDCF800301847000092
:101BE000B0B540F21405C2F2000504462868E1B21F
:101BF00000F026FB2868072100F06AFB0028F9D0D6
:101C00002046B0BD41617047016170471023002A32
:101C100008BF1423195070472DE9F047CF0601F093
:101C20000F0C09D5042A05D1C26B4CF0030C1A43E2
:101C3000C26301E04CEA020C00F1100E00F1140A3C
:101C400000244FF001094FF00F0800270EE000BFFD
:101C5000166008FA04F225EA02020CFA04F52A4397
:101C600002600137082F04F104040CD009FA07F2CE
:101C700012EA0306F5D0056828295246E8D048291B
:101C8000E7D17246E4E7082400254FF001094FF040
:101C90000F080FE0176008FA05F226EA02020CFAB4
:101CA00005F6324342600134102C05F1040508BFEB
:101CB000BDE8F08709FA04F212EA0307F3D0466898
:101CC00028295246E6D04829E5D17246E2E70000CD
:101CD000C068084018BF012070470000FEF78AFD69
:101CE000FFF7EAF8FFF706FBFEF7E8FFFEF7F4FE62
:101CF000FEF710FF40F6ED70C0F60000FFF792F916
:101D000040F230050024C2F20005002604E000BFC6
:101D1000701CC61E18BF064606EB460015F82010BC
:101D20000029F5D005EB8000816804708847EFE753
:101D30004EF60C5CCEF2000CDCF8003003F4E063ED
:101D4000B3F5E06F01D1042328E0DCF8003003F4A0
:101D5000E063B3F5C06F01D103231FE0DCF800306E
:101D600003F4E063B3F5A06F17D0DCF8003003F4A0
:101D7000E063B3F5806F01D101230FE0DCF80030A0
:101D800003F4E063B3F5407F01D1002306E040F2A5
:101D90000053C0F2FA53CCF80030022301FA03FCDE
:101DA000C3F104030F21D94011404EF2001241EA61
:101DB0000C01CEF20002090140EA020383F800138D
:101DC00000F01F01012303FA01F11C2303EAD000F4
:101DD00081507047002808BF7047072804BF0620BD
:101DE0007047012804BF022070470420704700009C
:101DF00010B541F2040CC4F2020CDCF8001043F6FA
:101E0000FF72CEF6FF720A40DCF828100B2821F092
:101E1000005E21D8012383401C070CD113F4706F9E
:101E20000CD04CF20003CFF6FC7303EA803002437F
:101E300041F0005E10E042EA80320DE00121814075
:101E400011F0A00F08D04CF20001CEF6FE7101EAAD
:101E50008030104340F08052CCF80020CCF828E0CD
:101E600010BD000010B541F20404C4F20204216860
:101E700001F00C01082941F20021C0F27A012BD1B6
:101E80002368DB0304D440F6001CC0F23D0C0DE0D7
:101E9000A36AD4F800C05B0046F60043C0F2DC231E
:101EA00058BF0B46CCF3404123FA01FC236821685C
:101EB000C3F3834E102303EAD15123688E442021BB
:101EC00001EA536171440B463F2918BF01330F29C2
:101ED00038BF8B1C03FB0CF1236812A2C3F303135E
:101EE000D35C226843F26C3CC2F30222C0F6000CC1
:101EF0001CF802E02268032807D821FA03F3DFE880
:101F000000F00F020609184610BD002010BD23FA8C
:101F10000EF010BDC2F3C2201CF8000023FA00F13D
:101F2000084610BD0000000000000000010203048C
:101F30000607080941F2000300F01F018009C4F2FE
:101F400002034FF0010CC2580CFA01F11143C150C9
:101F50007047000041F2000300F01F018009C4F245
:101F600002034FF0010CC2580CFA01F122EA010100
:101F7000C150704741F2000300F01F018009C4F214
:101F800002034FF0010CC2580CFA01F11143C15089
:101F9000704700004162704710B540F6FF71C4F20F
:101FA0000001884211DC40F2FF71C4F20001884256
:101FB00021DCB0F1804F3CD040F20041C4F200017E
:101FC000884249D140F201443EE042F6FF31C4F27A
:101FD000010188421EDC41F20001C4F20001884286
:101FE0002AD041F20041C4F20001884218BF10BD5E
:101FF00040F2054428E040F60001C4F200018842A6
:102000001DD040F60041C4F20001884224D140F2C4
:10201000034419E042F60041C4F20101884211D0A4
:1020200043F20041C4F20101884215D140F20D345F
:102030000AE04FF4806407E040F2044404E040F218
:10204000024401E040F20B342046FFF793FF2046A4
:10205000BDE81040FFF77EBF10BD0000016821F011
:102060000101016070470000016841F00101016059
:10207000704700000A8843F2004C826240F6FF324B
:10208000C4F200029042C4F2010C0FDCB0F1804FA8
:102090001AD040F20043C4F20003984214D040F634
:1020A0000003C4F2000398420ED019E040F600434A
:1020B000C4F20003984207D0604505D042F60043C1
:1020C000C4F2010398420BD1036823F0700303604C
:1020D0004B8802681A4302608A8803681A430260C8
:1020E00080B541F20002D1F808E020F48063C4F228
:1020F00000029342C0F82CE007D0026822F440723C
:102100000260CA8803681A430260604505D042F63F
:102110000042C4F20102904201D1097B016341698E
:1021200041F00101416180BDC26822EA0101C16044
:1021300070470000C2681143C1607047C943016124
:1021400070470000C26800690A40084018BF0120BB
:10215000002A18BF012210407047000000214FF6EE
:10216000FF72C0E90011826001737047D9B110B5E8
:1021700043F26C1C43F26C2E421EFF20C0F6000C92
:10218000C0F6000EFF2300BF12F8014FC0B244405A
:102190001CF80400013958401EF804300C04F3D137
:1021A000BDE8104001E0FF23FF20C0B240EA032059
:1021B00070470000B0B5044644F6FF30C4F200009A
:1021C0000D4684424FF0000013DD44F60041C4F296
:1021D00000018C4219D045F20001C4F200018C428A
:1021E00013D043F60001C4F201018C4210D1032048
:1021F0000CE044F20041C4F200018C4205D044F6E8
:102200000001C4F200018C4202D10220FFF72AFE35
:1022100000EB5500B0FBF5F080B2A060B0BD00004F
:10222000D0F8802022F40062C0F88020D0F880200E
:102230001143C0F88010704740686FF35F2070470B
:102240006FF35F214160704710B544F6FF31C4F26F
:102250000001884215DD44F60041C4F200018842C5
:102260001ED045F20001C4F2000188421BD043F6A3
:102270000001C4F20101884218BF10BD40F20E34C3
:1022800016E044F20041C4F2000188420ED044F648
:102290000001C4F20001884212D140F2124407E06A
:1022A00040F2134404E040F2144401E040F21144CF
:1022B0002046FFF75FFE2046BDE81040FFF74ABE0C
:1022C00010BD0000C16841F40051C16070470000BA
:1022D0008A09105801F01F01C84000F00100704742
:1022E00001F01F0289094FF0010C0B580CFA02F2A1
:1022F00023EA02020A50704701F01F0289094FF0D9
:10230000010C0B580CFA02F21A430A5070470000F5
:10231000C1F30442012303FA02F2D243890D0A50A9
:1023200070470000C1F3891252F800C08A0D10589E
:1023300001F01F03C1F30441C8402CFA03F1084027
:1023400000F0010070470000C26822F4C062C26061
:10235000C2681143C1607047C26801F0040122F0F5
:102360000402C260C2681143C1607047026922F46E
:10237000405202610269114301617047C26801F075
:10238000080122F00802C260C2681143C1607047B0
:10239000C26822F48052C260C2681143C1607047B3
:1023A000B0B544F20044C4F200040D4600282046B3
:1023B00040F2053107D0FFF79FFF04F54C40202184
:1023C000FFF720FC06E0FFF78BFF04F54C402021CF
:1023D000FFF71AFC204640F2063145B1FFF78CFFAB
:1023E00004F54C402021BDE8B040FFF70DBCFFF7DD
:1023F00077FF04F54C402021BDE8B040FFF702BC58
:1024000010B540F60004C4F2000420460021FFF796
:10241000C1FD20460121FFF791FE20460121FFF773
:1024200083FE2046BDE81040FFF718BE10B540F609
:102430000004C4F2000420460021FFF7ABFD204653
:102440000121FFF77BFE20460121FFF773FE2046A6
:10245000BDE81040FFF708BE40F24A22C2F2000277
:1024600013780146012B4FF0000018BF704740F26F
:10247000E803C2F200031B780B7010700120704754
:1024800040F24A21C2F20001002201200A70704786
:10249000014640F24A20C2F200000122027040F2DE
:1024A000E802C2F2000201201170704710B5044624
:1024B00044F20040C4F20000FFF7BEFE01460120D6
:1024C000217010BD70B540F202600D46FFF732FD7D
:1024D00044F20044C4F2000404F5444630460421AA
:1024E00001220823FFF798FB30461821012204231C
:1024F000FFF792FB40F21170FFF71CFD2046FFF73B
:10250000A3FE20460021FFF743FF20460021FFF7EE
:102510001BFF20460021FFF729FF20462946FFF731
:1025200049FE20460021FFF77BFE20460821FFF7E9
:1025300025FF20460421FFF70FFF2620002100225F
:10254000FFF7F6FB2046FFF7BDFE40F20460FFF701
:10255000F1FC04F54C40102103222023FFF75CFB23
:10256000012070BD80B5014644F20040C4F2000075
:10257000FFF766FE012080BD70B584B0044640F2CE
:102580000270FFF7D7FC40F60005C4F200052846AC
:10259000FFF702FD6E463046FFF7E0FD41F26F7037
:1025A00000900020ADF80400601E029028463146DD
:1025B000FFF760FD28460121FFF7BCFD1E2000212A
:1025C0000022FFF7B5FB012004B070BD80B582B0DA
:1025D00040F2EA00C2F20000007800283CD10DF180
:1025E0000700FFF763FF40F2E900C2F20000017844
:1025F00003292ED8DFE801F02B02172B40F2462CDE
:10260000C2F2000C0022ACF800209DF80720BCF8B4
:102610000030591CACF8001040F24511C2F2000124
:10262000CA54022112E040F24621C2F200010A8897
:10263000FF2A0AD89DF807000A88531C0B8040F235
:102640004511C2F20001885401E003210170FFF737
:10265000EDFE002002B080BD43F2E16102A0C0F6B1
:102660000001E922FEF7FEFE65536E645374617447
:1026700065203D3D2053544154455F54585F4944C3
:102680004C450000B0B540F2E905C2F200052878DB
:1026900020B103280ED0022804D10120FFF7F8FE54
:1026A000044608E0287828B12878022802D0287843
:1026B000032806D10024FFF7A3FE0121204629703C
:1026C000B0BD43F2846043F2E161C0F60000C0F6A1
:1026D00000014FF4AE72FEF7C5FE000070B540F287
:1026E000E900C2F20000007801282FD140F2EA058B
:1026F000C2F200052878012806D0C8B901200021BF
:10270000FFF74EFE002070BD40F24824C2F20004E4
:10271000208878B140F23415C2F2000528680078AC
:10272000FFF720FF286801302860208801382080CA
:10273000002070BD0320FFF7ABFE044601200021FE
:102740000026FFF72DFE20462E7070BD43F2E1619A
:1027500003A0C0F6000140F22312FEF783FE00BF83
:10276000655263765374617465203D3D2053544136
:1027700054455F52585F49444C4500000FB4054B27
:1027800010B503A9044A029800F0DAF810BC5DF80D
:1027900014FB0000E11B00080400002002E008C850
:1027A000121F08C1002AFAD170477047002001E0CB
:1027B00001C1121F002AFBD1704700002DE9FF5F05
:1027C00082B00021DDE90430020DDDF840B00343A2
:1027D00018D044F61050A2F2FF324243151411985B
:1027E00001281FD0A5EB0B00401C5FEA000A4FF048
:1027F00000064E4FDFF83891B046504615D5CAF165
:10280000000413E0119801244AA3012801D16FEAC2
:102810000B010298119AC0E90031C0E9024206B0EA
:10282000BDE8F09FCBF10000DFE704460021404AFD
:10283000491842EB0450CDE9001012E0E00707D040
:1028400032463B4640464946FDF701FE80468946F2
:1028500032463B4610461946FDF7F9FD06460F463F
:102860006410002CEAD1DDE90401DDE90023BAF1AE
:10287000000F06DAFDF7EBFD42464B46FDF7E7FD9C
:1028800005E0FDF756FE42464B46FDF752FE044674
:102890000E460022284BFDF7D3FE03D84FF0FF3041
:1028A000014607E00022254B20463146FDF728FD72
:1028B000FDF7AEFE102409E0002C0ADB0A220023FB
:1028C000FDF7EDFC039B30321A55641E50EA0102FD
:1028D000F2D1641C039AC4F111031444119A012A21
:1028E00003D0012208430DD10AE0084304D00020A0
:1028F0004FF0110B119072E7A3EB0B056D1E0DE06D
:102900005B4504DD4FF0000205F1010504E003DA48
:102910004FF00002A5F10105002AECD002981199B0
:10292000C0E90231C0E9004579E700000000144029
:102930000000F03F300000000000F0430000E03FE6
:102940002DE9FF4F95B09B468946064600250FE2CC
:10295000252877D100242746F84A0121059400E074
:10296000044316F8013F203B01FA03F01042F7D16F
:1029700030782A2811D06FF02F033078A0F1300280
:10298000092A16D8059A44F0020402EB820203EBEE
:1029900042021044761C0590EFE759F8042B05928B
:1029A000002A03DA504244F40054059044F0020433
:1029B000761C30782E2816D116F8010F44F0040446
:1029C0002A280DD06FF02F023078A0F13003092BA8
:1029D00009D807EB870302EB4303C718761CF3E71C
:1029E00059F8047B761C30786C280FD006DC4C2814
:1029F00017D068280DD06A2814D104E0742810D0AC
:102A00007A280FD10DE044F400140AE044F4801455
:102A100001E044F440147278824202D104F580143B
:102A2000761C761C307866280BD013DC582877D0BB
:102A300009DC002875D04528F6D04628F4D0472870
:102A40001AD19DE118E0632835D0642879D0652833
:102A500012D195E1702873D008DC6728F1D069287D
:102A60006FD06E280DD06F2806D1B5E073282CD01A
:102A7000752875D0782874D05A46179990476D1CE0
:102A800075E1C4F30250022809D003280DD0D9F80B
:102A9000001004280DD00D6009F1040967E1D9F890
:102AA0000010EA17C1E90052F6E7D9F800100D80CE
:102AB000F2E70D70F0E719F8041B8DF80010002004
:102AC0008DF80100EA46012003E059F804AB4FF00D
:102AD000FF3061074FF0000102D40DE008F1010161
:102AE0008846B9420FDA8045F8DB1AF80810002949
:102AF000F4D108E008F1010188468142FADB1AF8B6
:102B000008100029F6D105985B46A0EB080721467E
:102B10003846179A00F094FA284400EB080507E0BD
:102B20004DE029E10DE01AF8010B5A46179990473C
:102B3000B8F10108F7D25B4621463846179A13E1EF
:102B400042E00A220092C4F302524FF0000A022A25
:102B500008D059F804CB032A4FEAEC710AD00DE0F3
:102B600029E02AE009F1070121F00702F2E802C199
:102B7000914609E00FFA8CFC4FEAEC71042A03D16C
:102B80004FFA8CFC4FEAEC71002907DA0A46002163
:102B9000DCF1000C61EB02012D2202E0220504D5DC
:102BA0002B228DF80420012203E0E20701D020222D
:102BB000F7E7904659E00A2102E010220DE01021CB
:102BC0004FF0000A00910BE010224FF0000A44F091
:102BD00004040827009203E008224FF0000A009244
:102BE000C4F30252022A05D059F804CB0021032A6B
:102BF00008D009E009F1070121F00702F2E802C15B
:102C0000914605E01FFA8CFC042A01D10CF0FF0C60
:102C10004FF00008220728D5702806D0009B83F0CB
:102C2000100353EA0A0305D00EE040228DF8042079
:102C3000012208E05CEA010206D030228DF804206F
:102C40008DF8050002229046009B83F0080353EAAA
:102C50000A030AD15CEA010201D1620705D53022DC
:102C60008DF804204FF001087F1E582804D034A0AE
:102C700003900EA802900DE036A0F9E75346604697
:102C8000009AFDF70CFB84460398825C0298401E74
:102C9000029002705CEA0100F0D1029806A9081ABD
:102CA00000F1200A600702D524F4803400E00127F7
:102CB000574502DDA7EB0A0000E0002000EB0A0107
:102CC000009005984144401A0590E00306D45B4605
:102CD0002146179A059800F0B3F90544002706E04D
:102CE00001A85A46C05D179990476D1C7F1C474547
:102CF000F6DBE0030CD55B462146179A059800F0F9
:102D00009FF9054404E030205A46179990476D1CFE
:102D10000099481E00900029F5DC08E0029802990D
:102D20005A460078491C0291179990476D1CBAF1D8
:102D30000001AAF1010AF1DC65E1000009280100A7
:102D40003031323334353637383961626364656621
:102D500000000000303132333435363738394142E3
:102D6000434445460000000000F058F90544761C35
:102D7000307800287FF4ECAD19B02846BDE8F08F1C
:102D8000620700D4062709F1070222F0070CFCE8CD
:102D90000223E14603F000485FEA080C02D00FF27C
:102DA000702C0DE05FEA045C02D50FF2682C07E09E
:102DB0005FEAC47C02D00FF2602C01E0AFF2700C2D
:102DC0004FF0FF3823F00043CDF850C065280CD0F9
:102DD00006DC452809D046281DD047283DD13DE0D6
:102DE000662818D067287ED138E00021112F01DB3A
:102DF000112000E0781CCDE9000106A90EA8FFF71C
:102E0000DDFCDDE90F010E9A03910021009207F12C
:102E1000010A04914DE04FF000400097CDE9011008
:102E200006A90EA8FFF7CAFCDDE90F0203920E9B6C
:102E300011990022DDF80CA00093049211B9791CBD
:102E400000EB010AB7EB0A0004D4C0F1FF3007F130
:102E5000010A0490AAEB0700019044E0012F00DA78
:102E600001270021112F01DD112000E03846CDE9B6
:102E7000000106A90EA8FFF7A1FCDDE90F010E9ADB
:102E80000391002104910092BA4621070CD40399C2
:102E9000514500DA8A46BAF1010F05DD009AAAF120
:102EA0000101515C302908D0B84202DA10F1040F58
:102EB00006DA0121CDE9011015E0AAF10101E9E7E7
:102EC000002805DC049901440491AAEB000102E00A
:102ED000411C514500DD8A460499401A401C01906E
:102EE0004FF000400290200704D40198504501DBC8
:102EF000CDF8048000208DF84F0002980DF14F07A7
:102F0000B0F1004F25D02B200E9002984FF0020810
:102F100000280CDA404202902D200E9007E00A2192
:102F20000298FDF7A6F93031029007F8011DB8F1BB
:102F30000001A8F10108F2DC02980028EFD1791E07
:102F40000E980870307800F0200040F0450007F837
:102F5000020D12A8C01B00F107081498007800B1F8
:102F6000012000EB0A01019801EBE0710598414452
:102F7000401A401E0590E00306D45B462146179A8E
:102F8000059800F05DF805441498007818B15A4689
:102F9000179990476D1CE00324D55B462146179A8C
:102FA000059800F04DF805441CE00498002807DB64
:102FB000DDE90301884203DD0098405C179901E0D8
:102FC000179930205A469047049805F10105401C96
:102FD00004900198401E019004D12E205A46179962
:102FE00090476D1CBAF10001AAF1010ADDDC05E091
:102FF00017F8010B5A46179990476D1CB8F100015C
:10300000A8F10108F4DC5B462146179A0598ABE667
:103010002D0000002B000000200000002DE9F041F1
:10302000044600251E461746880404D405E03946A8
:103030002020B0476D1C641EF9D52846BDE8F081FC
:103040002DE9F041044600251E469046C80301D5EF
:10305000302700E02027880404D505E041463846A3
:10306000B0476D1C641EF9D52846BDE8F08170B5E7
:103070000D46044602E02946FEF7B2FD14F8010BA6
:103080000028F8D170BD000010B5002821D0114BE8
:103090000022001F196803E0814203D80A464968EC
:1030A0000029F9D152B11368841A9C4204D10068F6
:1030B00018441060104602E0506000E0186039B11A
:1030C00002680B1A934203D10B681A4402604968E4
:1030D000416010BD080000202DE9F041044602FBCC
:1030E00001F01F461646251838B104E0207839460D
:1030F000FEF776FD641CAC42F8D33046BDE8F081A3
:10310000F0B50B30154D20F007010024144A0FE0F4
:1031100003688B420BD38B4205D95E1A431847686C
:10312000C3E9006700E04368136002C004E0021DC9
:1031300010680028ECD12046002802D1286808B188
:103140000020F0BD064A07481060074A121A22F014
:103150000702C0E9002401202860D7E70C00002006
:1031600008000020540200205006002000C18140C9
:1031700001C0804101C0804100C1814001C0804147
:1031800000C1814000C1814001C0804101C0804137
:1031900000C1814000C1814001C0804100C1814027
:1031A00001C0804101C0804100C1814001C0804117
:1031B00000C1814000C1814001C0804100C1814007
:1031C00001C0804101C0804100C1814000C18140F7
:1031D00001C0804101C0804100C1814001C08041E7
:1031E00000C1814000C1814001C0804101C08041D7
:1031F00000C1814000C1814001C0804100C18140C7
:1032000001C0804101C0804100C1814000C18140B6
:1032100001C0804101C0804100C1814001C08041A6
:1032200000C1814000C1814001C0804100C1814096
:1032300001C0804101C0804100C1814001C0804186
:1032400000C1814000C1814001C0804101C0804176
:1032500000C1814000C1814001C0804100C1814066
:1032600001C0804101C0804100C1814000C0C10156
:10327000C30302C2C60607C705C5C404CC0C0DCDE6
:103280000FCFCE0E0ACACB0BC90908C8D81819D956
:103290001BDBDA1A1EDEDF1FDD1D1CDC14D4D51586
:1032A000D71716D6D21213D311D1D010F03031F176
:1032B00033F3F23236F6F737F53534F43CFCFD3DA6
:1032C000FF3F3EFEFA3A3BFB39F9F83828E8E92996
:1032D000EB2B2AEAEE2E2FEF2DEDEC2CE42425E546
:1032E00027E7E62622E2E323E12120E0A06061A1B6
:1032F00063A3A26266A6A767A56564A46CACAD6D66
:10330000AF6F6EAEAA6A6BAB69A9A86878B8B979D5
:10331000BB7B7ABABE7E7FBF7DBDBC7CB47475B505
:1033200077B7B67672B2B373B17170B050909151F5
:103330009353529296565797559594549C5C5D9D25
:103340005F9F9E5E5A9A9B5B995958988848498915
:103350004B8B8A4A4E8E8F4F8D4D4C8C44848545C5
:1033600087474686824243834181804000000000B7
:1033700001020304020600000008014000010000F1
:10338000060600000018014040000000070600008B
:10339000001C014040000000330C110CEB0BC50B6E
:1033A0009D0B750B4D0B240BFA0ACF0AA00A790A64
:1033B0004D0A210AF409C7099A096C093F09110944
:1033C000E308B60888085A082D080008D207A6079F
:1033D00079074D072107F606CB06A10677064E06AC
:1033E0002506FD05D605AF05890564053F051B05C6
:1033F000F804D504B3049204720452043904150489
:10340000F803DB03BF03A40389036F0356033D03E3
:1034100026030E03F802E202CC02B802A3029002D5
:103420007D026A025802470236022602160206028E
:10343000F701E901DB01CD01C001B301A6019A0149
:103440008E01830178016D01630159014F0146012D
:103450003C0134012B0122011B0112010B0103016C
:1034600001000000000000006D0B000800000000DB
:103470000100010000000000490B000800000000EE
:10348000030002000000010000000000950B00088E
:10349000030003000000010000000000A50B00086D
:1034A000030004000000010000000000B50B00084C
:1034B0009B009D009F00A500B100CC0001016201AE
:1034C00004022303A40461063408130A670B840C66
:1034D0006A0D150E9C009D00A100A800BA00DF0037
:1034E0002801AD018A02D9037F0552071909EB0AA9
:1034F000280C1B0DF20D7B0E9C009F00A400AF005A
:10350000C700FA005501FC010703810461064E085B
:10351000EC09810BA30C800D220E9E0E9D00A100D4
:10352000A800B700D9001C019A016B02AD03E206A6
:103530002B071909BD0A280C290DE20D5C0EC90ED6
:103540009F00A500B000C500EC004001DD01EE02C7
:10355000610444061B08EC09670BA30C710D1A0EDD
:10356000970EF40EA100A800B700D2000801770161
:103570004302850339053E07FA08A60AEE0B0E0D35
:10358000D30D5C0EC30E130FA300AD00BF00E60009
:103590002C01C301B802250400061B08C6094D0B07
:1035A000840C620D0A0E860EDE0E260FA600B200F7
:1035B000CA00FA005801FC012303CA04BF06BD0873
:1035C000900AEE0BE50CAC0D430EA90EF90E3A0F66
:1035D000A900B800D6001C018D016B02D903950526
:1035E00090077E09030B460C290DDA0D640EC30EFD
:1035F0000C0F470FAF00C400EC003B01DD01EE02F1
:10360000810444063408EC09810BA30C710D120EE1
:103610008F0EE70E1E0F540FB300CC00FD006201A9
:103620002102610330052B07FA08A60AEE0B000DF4
:10363000BC0D4B0EB10E020F360F640FBA00D9004D
:10364000160191017A02AD03F305EA07C6091B0BC7
:10365000650C460DEA0D6C0ECC0E150F440F6E0F67
:10366000BF00E5002C01C901E2020A04AF06A00870
:10367000650AB60BCA0C800D1A0E8F0EDE0E1E0FD9
:103680004E0F750F28655263765374617465203D43
:103690003D2053544154455F52585F494E49542987
:1036A000207C7C2028655263765374617465203DCC
:1036B0003D2053544154455F52585F524356292090
:1036C0007C7C2028655263765374617465203D3D8F
:1036D0002053544154455F52585F4552524F52292E
:1036E000004D6964646C65776172655F4D6F6462FB
:1036F00075732F7274752F6D627274752E6300006E
:103700002037000800000020D80000009C27000897
:10371000F8370008D800002078450000AC270008E2
:103720000000000000000000000000000000000099
:1037300002000000003801400E06000000080140B1
:103740000206000000020000000400002500000046
:103750000000DC05DC050000690800080000E80343
:10376000E8030000B90C000800000100010000009F
:10377000450B000803000000E117000810000000DE
:103780007918000806000000491800080000000031
:103790000000000000000000000000000000000029
:1037A0000000000000000000000000000000000019
:1037B0000000000000000000000000000000000009
:1037C00000000000000000000000000000000000F9
:1037D00000000000000000000000000000000000E9
:1037E00000000000000000000000000000000000D9
:0837F0000000000000000000D1
:0400000508000131BD
:00000001FF
