Component: Arm Compiler for Embedded 6.21 Tool: armlink [5ec1fa00]

==============================================================================

Section Cross References

    main.o(.text.main) refers to systick.o(.text.SystickInit) for SystickInit
    main.o(.text.main) refers to led_drv.o(.text.LedDrvInit) for LedDrvInit
    main.o(.text.main) refers to key_drv.o(.text.KeyDrvInit) for KeyDrvInit
    main.o(.text.main) refers to key_drv.o(.text.GetKeyValue) for GetKeyValue
    main.o(.text.main) refers to led_drv.o(.text.TurnOffLed) for TurnOffLed
    main.o(.text.main) refers to led_drv.o(.text.TurnOnLed) for TurnOnLed
    main.o(.ARM.exidx.text.main) refers to main.o(.text.main) for [Anonymous Symbol]
    key_drv.o(.text.KeyDrvInit) refers to gd32f30x_rcu.o(.text.rcu_periph_clock_enable) for rcu_periph_clock_enable
    key_drv.o(.text.KeyDrvInit) refers to gd32f30x_gpio.o(.text.gpio_init) for gpio_init
    key_drv.o(.ARM.exidx.text.KeyDrvInit) refers to key_drv.o(.text.KeyDrvInit) for [Anonymous Symbol]
    key_drv.o(.text.GetKeyValue) refers to gd32f30x_gpio.o(.text.gpio_input_bit_get) for gpio_input_bit_get
    key_drv.o(.text.GetKeyValue) refers to key_drv.o(.bss.g_keyInfoList) for g_keyInfoList
    key_drv.o(.text.GetKeyValue) refers to systick.o(.text.GetSystemRunTime) for GetSystemRunTime
    key_drv.o(.ARM.exidx.text.GetKeyValue) refers to key_drv.o(.text.GetKeyValue) for [Anonymous Symbol]
    led_drv.o(.text.LedDrvInit) refers to gd32f30x_rcu.o(.text.rcu_periph_clock_enable) for rcu_periph_clock_enable
    led_drv.o(.text.LedDrvInit) refers to gd32f30x_gpio.o(.text.gpio_init) for gpio_init
    led_drv.o(.text.LedDrvInit) refers to gd32f30x_gpio.o(.text.gpio_bit_reset) for gpio_bit_reset
    led_drv.o(.ARM.exidx.text.LedDrvInit) refers to led_drv.o(.text.LedDrvInit) for [Anonymous Symbol]
==============================================================================

Removing Unused input sections from the image.

    Removing main.o(.text), (0 bytes).
    Removing main.o(.ARM.exidx.text.main), (8 bytes).
    Removing main.o(.ARM.use_no_argv), (4 bytes).
    Removing key_drv.o(.text), (0 bytes).
    Removing key_drv.o(.ARM.exidx.text.KeyDrvInit), (8 bytes).
    Removing key_drv.o(.ARM.exidx.text.GetKeyValue), (8 bytes).
    Removing led_drv.o(.text), (0 bytes).
    Removing led_drv.o(.ARM.exidx.text.LedDrvInit), (8 bytes).
    Removing led_drv.o(.ARM.exidx.text.TurnOnLed), (8 bytes).
    Removing led_drv.o(.ARM.exidx.text.TurnOffLed), (8 bytes).
    Removing led_drv.o(.text.ToggleLed), (54 bytes).
    Removing led_drv.o(.ARM.exidx.text.ToggleLed), (8 bytes).
    Removing systick.o(.text), (0 bytes).
    Removing systick.o(.ARM.exidx.text.SystickInit), (8 bytes).
    Removing systick.o(.ARM.exidx.text.SysTick_Handler), (8 bytes).
    Removing systick.o(.ARM.exidx.text.GetSystemRunTime), (8 bytes).
    Removing gd32f30x_gpio.o(.text), (0 bytes).
    Removing gd32f30x_gpio.o(.text.gpio_deinit), (44 bytes).
==============================================================================

Image Symbol Table

    Local Symbols

    Symbol Name                              Value     Ov Type        Size  Object(Section)

    ../clib/microlib/init/entry.s            0x00000000   Number         0  entry.o ABSOLUTE
    ../clib/microlib/init/entry.s            0x00000000   Number         0  entry2.o ABSOLUTE
    ../clib/microlib/init/entry.s            0x00000000   Number         0  entry5.o ABSOLUTE
    ../clib/microlib/init/entry.s            0x00000000   Number         0  entry7a.o ABSOLUTE
    ../clib/microlib/init/entry.s            0x00000000   Number         0  entry7b.o ABSOLUTE
    ../clib/microlib/init/entry.s            0x00000000   Number         0  entry8a.o ABSOLUTE
    ../clib/microlib/init/entry.s            0x00000000   Number         0  entry8b.o ABSOLUTE
    ../clib/microlib/init/entry.s            0x00000000   Number         0  entry9a.o ABSOLUTE
    ../clib/microlib/init/entry.s            0x00000000   Number         0  entry9b.o ABSOLUTE
    ../clib/microlib/init/entry.s            0x00000000   Number         0  entry10a.o ABSOLUTE
    ../clib/microlib/init/entry.s            0x00000000   Number         0  entry10b.o ABSOLUTE
    ../clib/microlib/init/entry.s            0x00000000   Number         0  entry11a.o ABSOLUTE
    ../clib/microlib/init/entry.s            0x00000000   Number         0  entry11b.o ABSOLUTE
    Arm/startup_gd32f30x_hd.s                0x00000000   Number         0  startup_gd32f30x_hd.o ABSOLUTE
    dc.s                                     0x00000000   Number         0  dc.o ABSOLUTE
    gd32f30x_gpio.c                          0x00000000   Number         0  gd32f30x_gpio.o ABSOLUTE
    gd32f30x_rcu.c                           0x00000000   Number         0  gd32f30x_rcu.o ABSOLUTE
    handlers.s                               0x00000000   Number         0  handlers.o ABSOLUTE
    init.s                                   0x00000000   Number         0  init.o ABSOLUTE
    key_drv.c                                0x00000000   Number         0  key_drv.o ABSOLUTE
    led_drv.c                                0x00000000   Number         0  led_drv.o ABSOLUTE
    main.c                                   0x00000000   Number         0  main.o ABSOLUTE
    system_gd32f30x.c                        0x00000000   Number         0  system_gd32f30x.o ABSOLUTE
    systick.c                                0x00000000   Number         0  systick.o ABSOLUTE
    RESET                                    0x08000000   Section      304  startup_gd32f30x_hd.o(RESET)
    .ARM.Collect$$$$00000000                 0x08000130   Section        0  entry.o(.ARM.Collect$$$$00000000)
    .ARM.Collect$$$$00000001                 0x08000130   Section        4  entry2.o(.ARM.Collect$$$$00000001)
    .ARM.Collect$$$$00000004                 0x08000134   Section        4  entry5.o(.ARM.Collect$$$$00000004)
    .ARM.Collect$$$$00000008                 0x08000138   Section        0  entry7b.o(.ARM.Collect$$$$00000008)
    .ARM.Collect$$$$0000000A                 0x08000138   Section        0  entry8b.o(.ARM.Collect$$$$0000000A)
    .ARM.Collect$$$$0000000B                 0x08000138   Section        8  entry9a.o(.ARM.Collect$$$$0000000B)
    __lit__00000000                          0x08000140   Data           4  entry2.o(.ARM.Collect$$$$00002712)
    .ARM.Collect$$$$0000000D                 0x08000140   Section        0  entry10a.o(.ARM.Collect$$$$0000000D)
    .ARM.Collect$$$$0000000F                 0x08000140   Section        0  entry11a.o(.ARM.Collect$$$$0000000F)
    .ARM.Collect$$$$00002712                 0x08000140   Section        4  entry2.o(.ARM.Collect$$$$00002712)
    $v0                                      0x08000144   Number         0  startup_gd32f30x_hd.o(.text)
    .text                                    0x08000144   Section       36  startup_gd32f30x_hd.o(.text)
    .text                                    0x08000168   Section       48  init.o(.text)
    [Anonymous Symbol]                       0x08000198   Section        0  key_drv.o(.text.GetKeyValue)
    [Anonymous Symbol]                       0x08000400   Section        0  systick.o(.text.GetSystemRunTime)
    [Anonymous Symbol]                       0x08000410   Section        0  key_drv.o(.text.KeyDrvInit)
    [Anonymous Symbol]                       0x08000478   Section        0  led_drv.o(.text.LedDrvInit)
    [Anonymous Symbol]                       0x080004e8   Section        0  systick.o(.text.SysTick_Handler)
    [Anonymous Symbol]                       0x08000500   Section        0  system_gd32f30x.o(.text.SystemInit)
    [Anonymous Symbol]                       0x08000740   Section        0  systick.o(.text.SystickInit)
    [Anonymous Symbol]                       0x08000788   Section        0  led_drv.o(.text.TurnOffLed)
    [Anonymous Symbol]                       0x080007a8   Section        0  led_drv.o(.text.TurnOnLed)
    [Anonymous Symbol]                       0x080007c8   Section        0  gd32f30x_gpio.o(.text.gpio_bit_reset)
    [Anonymous Symbol]                       0x080007cc   Section        0  gd32f30x_gpio.o(.text.gpio_bit_set)
    [Anonymous Symbol]                       0x080007d0   Section        0  gd32f30x_gpio.o(.text.gpio_init)
    [Anonymous Symbol]                       0x08000bc0   Section        0  gd32f30x_gpio.o(.text.gpio_input_bit_get)
    [Anonymous Symbol]                       0x08000bcc   Section        0  main.o(.text.main)
    [Anonymous Symbol]                       0x08000c40   Section        0  gd32f30x_rcu.o(.text.rcu_clock_freq_get)
    [Anonymous Symbol]                       0x08000d14   Section        0  gd32f30x_rcu.o(.text.rcu_periph_clock_enable)
    i.__scatterload_copy                     0x08000d32   Section       14  handlers.o(i.__scatterload_copy)
    i.__scatterload_null                     0x08000d40   Section        2  handlers.o(i.__scatterload_null)
    i.__scatterload_zeroinit                 0x08000d42   Section       14  handlers.o(i.__scatterload_zeroinit)
    .L__const.rcu_clock_freq_get.apb2_exp    0x08000d50   Data           8  gd32f30x_rcu.o(.rodata.cst8)
    g_ledList                                0x08000d58   Data          36  led_drv.o(.rodata.g_ledList)
    [Anonymous Symbol]                       0x08000d58   Section        0  led_drv.o(.rodata.g_ledList)
    g_keyInfoList                            0x20000000   Data          64  key_drv.o(.bss.g_keyInfoList)
    [Anonymous Symbol]                       0x20000000   Section        0  key_drv.o(.bss.g_keyInfoList)
    g_systemRunTime                          0x20000040   Data           8  systick.o(.bss.g_systemRunTime)
    [Anonymous Symbol]                       0x20000040   Section        0  systick.o(.bss.g_systemRunTime)
    STACK                                    0x20000048   Section     1024  startup_gd32f30x_hd.o(STACK)

    Global Symbols

    Symbol Name                              Value     Ov Type        Size  Object(Section)

    BuildAttributes$$THM_ISAv4$E$P$D$K$B$S$7EM$VFPi3$EXTD16$VFPS$VFMA$PE$A:L22UL41UL21$X:L11$S22US41US21$IEEE1$IW$~IW$USESV6$~STKCKD$USESV7$~SHL$OTIME$EBA8$MICROLIB$REQ8$PRES8$EABIv2 0x00000000   Number         0  anon$$obj.o ABSOLUTE
    __cpp_initialize__aeabi_                  - Undefined Weak Reference
    __cxa_finalize                            - Undefined Weak Reference
    __decompress                              - Undefined Weak Reference
    _clock_init                               - Undefined Weak Reference
    _microlib_exit                            - Undefined Weak Reference
    __Vectors_Size                           0x00000130   Number         0  startup_gd32f30x_hd.o ABSOLUTE
    __Vectors                                0x08000000   Data           4  startup_gd32f30x_hd.o(RESET)
    __Vectors_End                            0x08000130   Data           0  startup_gd32f30x_hd.o(RESET)
    __main                                   0x08000131   Thumb Code     0  entry.o(.ARM.Collect$$$$00000000)
    _main_stk                                0x08000131   Thumb Code     0  entry2.o(.ARM.Collect$$$$00000001)
    _main_scatterload                        0x08000135   Thumb Code     0  entry5.o(.ARM.Collect$$$$00000004)
    __main_after_scatterload                 0x08000139   Thumb Code     0  entry5.o(.ARM.Collect$$$$00000004)
    _main_clock                              0x08000139   Thumb Code     0  entry7b.o(.ARM.Collect$$$$00000008)
    _main_cpp_init                           0x08000139   Thumb Code     0  entry8b.o(.ARM.Collect$$$$0000000A)
    _main_init                               0x08000139   Thumb Code     0  entry9a.o(.ARM.Collect$$$$0000000B)
    __rt_final_cpp                           0x08000141   Thumb Code     0  entry10a.o(.ARM.Collect$$$$0000000D)
    __rt_final_exit                          0x08000141   Thumb Code     0  entry11a.o(.ARM.Collect$$$$0000000F)
    Reset_Handler                            0x08000145   Thumb Code     8  startup_gd32f30x_hd.o(.text)
    NMI_Handler                              0x0800014d   Thumb Code     2  startup_gd32f30x_hd.o(.text)
    HardFault_Handler                        0x0800014f   Thumb Code     2  startup_gd32f30x_hd.o(.text)
    MemManage_Handler                        0x08000151   Thumb Code     2  startup_gd32f30x_hd.o(.text)
    BusFault_Handler                         0x08000153   Thumb Code     2  startup_gd32f30x_hd.o(.text)
    UsageFault_Handler                       0x08000155   Thumb Code     2  startup_gd32f30x_hd.o(.text)
    SVC_Handler                              0x08000157   Thumb Code     2  startup_gd32f30x_hd.o(.text)
    DebugMon_Handler                         0x08000159   Thumb Code     2  startup_gd32f30x_hd.o(.text)
    PendSV_Handler                           0x0800015b   Thumb Code     2  startup_gd32f30x_hd.o(.text)
    ADC0_1_IRQHandler                        0x0800015f   Thumb Code     0  startup_gd32f30x_hd.o(.text)
    ADC2_IRQHandler                          0x0800015f   Thumb Code     0  startup_gd32f30x_hd.o(.text)
    CAN0_EWMC_IRQHandler                     0x0800015f   Thumb Code     0  startup_gd32f30x_hd.o(.text)
    CAN0_RX1_IRQHandler                      0x0800015f   Thumb Code     0  startup_gd32f30x_hd.o(.text)
    DMA0_Channel0_IRQHandler                 0x0800015f   Thumb Code     0  startup_gd32f30x_hd.o(.text)
    DMA0_Channel1_IRQHandler                 0x0800015f   Thumb Code     0  startup_gd32f30x_hd.o(.text)
    DMA0_Channel2_IRQHandler                 0x0800015f   Thumb Code     0  startup_gd32f30x_hd.o(.text)
    DMA0_Channel3_IRQHandler                 0x0800015f   Thumb Code     0  startup_gd32f30x_hd.o(.text)
    DMA0_Channel4_IRQHandler                 0x0800015f   Thumb Code     0  startup_gd32f30x_hd.o(.text)
    DMA0_Channel5_IRQHandler                 0x0800015f   Thumb Code     0  startup_gd32f30x_hd.o(.text)
    DMA0_Channel6_IRQHandler                 0x0800015f   Thumb Code     0  startup_gd32f30x_hd.o(.text)
    DMA1_Channel0_IRQHandler                 0x0800015f   Thumb Code     0  startup_gd32f30x_hd.o(.text)
    DMA1_Channel1_IRQHandler                 0x0800015f   Thumb Code     0  startup_gd32f30x_hd.o(.text)
    DMA1_Channel2_IRQHandler                 0x0800015f   Thumb Code     0  startup_gd32f30x_hd.o(.text)
    DMA1_Channel3_4_IRQHandler               0x0800015f   Thumb Code     0  startup_gd32f30x_hd.o(.text)
    EXMC_IRQHandler                          0x0800015f   Thumb Code     0  startup_gd32f30x_hd.o(.text)
    EXTI0_IRQHandler                         0x0800015f   Thumb Code     0  startup_gd32f30x_hd.o(.text)
    EXTI10_15_IRQHandler                     0x0800015f   Thumb Code     0  startup_gd32f30x_hd.o(.text)
    EXTI1_IRQHandler                         0x0800015f   Thumb Code     0  startup_gd32f30x_hd.o(.text)
    EXTI2_IRQHandler                         0x0800015f   Thumb Code     0  startup_gd32f30x_hd.o(.text)
    EXTI3_IRQHandler                         0x0800015f   Thumb Code     0  startup_gd32f30x_hd.o(.text)
    EXTI4_IRQHandler                         0x0800015f   Thumb Code     0  startup_gd32f30x_hd.o(.text)
    EXTI5_9_IRQHandler                       0x0800015f   Thumb Code     0  startup_gd32f30x_hd.o(.text)
    FMC_IRQHandler                           0x0800015f   Thumb Code     0  startup_gd32f30x_hd.o(.text)
    I2C0_ER_IRQHandler                       0x0800015f   Thumb Code     0  startup_gd32f30x_hd.o(.text)
    I2C0_EV_IRQHandler                       0x0800015f   Thumb Code     0  startup_gd32f30x_hd.o(.text)
    I2C1_ER_IRQHandler                       0x0800015f   Thumb Code     0  startup_gd32f30x_hd.o(.text)
    I2C1_EV_IRQHandler                       0x0800015f   Thumb Code     0  startup_gd32f30x_hd.o(.text)
    LVD_IRQHandler                           0x0800015f   Thumb Code     0  startup_gd32f30x_hd.o(.text)
    RCU_CTC_IRQHandler                       0x0800015f   Thumb Code     0  startup_gd32f30x_hd.o(.text)
    RTC_Alarm_IRQHandler                     0x0800015f   Thumb Code     0  startup_gd32f30x_hd.o(.text)
    RTC_IRQHandler                           0x0800015f   Thumb Code     0  startup_gd32f30x_hd.o(.text)
    SDIO_IRQHandler                          0x0800015f   Thumb Code     0  startup_gd32f30x_hd.o(.text)
    SPI0_IRQHandler                          0x0800015f   Thumb Code     0  startup_gd32f30x_hd.o(.text)
    SPI1_IRQHandler                          0x0800015f   Thumb Code     0  startup_gd32f30x_hd.o(.text)
    SPI2_IRQHandler                          0x0800015f   Thumb Code     0  startup_gd32f30x_hd.o(.text)
    TAMPER_IRQHandler                        0x0800015f   Thumb Code     0  startup_gd32f30x_hd.o(.text)
    TIMER0_BRK_IRQHandler                    0x0800015f   Thumb Code     0  startup_gd32f30x_hd.o(.text)
    TIMER0_Channel_IRQHandler                0x0800015f   Thumb Code     0  startup_gd32f30x_hd.o(.text)
    TIMER0_TRG_CMT_IRQHandler                0x0800015f   Thumb Code     0  startup_gd32f30x_hd.o(.text)
    TIMER0_UP_IRQHandler                     0x0800015f   Thumb Code     0  startup_gd32f30x_hd.o(.text)
    TIMER1_IRQHandler                        0x0800015f   Thumb Code     0  startup_gd32f30x_hd.o(.text)
    TIMER2_IRQHandler                        0x0800015f   Thumb Code     0  startup_gd32f30x_hd.o(.text)
    TIMER3_IRQHandler                        0x0800015f   Thumb Code     0  startup_gd32f30x_hd.o(.text)
    TIMER4_IRQHandler                        0x0800015f   Thumb Code     0  startup_gd32f30x_hd.o(.text)
    TIMER5_IRQHandler                        0x0800015f   Thumb Code     0  startup_gd32f30x_hd.o(.text)
    TIMER6_IRQHandler                        0x0800015f   Thumb Code     0  startup_gd32f30x_hd.o(.text)
    TIMER7_BRK_IRQHandler                    0x0800015f   Thumb Code     0  startup_gd32f30x_hd.o(.text)
    TIMER7_Channel_IRQHandler                0x0800015f   Thumb Code     0  startup_gd32f30x_hd.o(.text)
    TIMER7_TRG_CMT_IRQHandler                0x0800015f   Thumb Code     0  startup_gd32f30x_hd.o(.text)
    TIMER7_UP_IRQHandler                     0x0800015f   Thumb Code     0  startup_gd32f30x_hd.o(.text)
    UART3_IRQHandler                         0x0800015f   Thumb Code     0  startup_gd32f30x_hd.o(.text)
    UART4_IRQHandler                         0x0800015f   Thumb Code     0  startup_gd32f30x_hd.o(.text)
    USART0_IRQHandler                        0x0800015f   Thumb Code     0  startup_gd32f30x_hd.o(.text)
    USART1_IRQHandler                        0x0800015f   Thumb Code     0  startup_gd32f30x_hd.o(.text)
    USART2_IRQHandler                        0x0800015f   Thumb Code     0  startup_gd32f30x_hd.o(.text)
    USBD_HP_CAN0_TX_IRQHandler               0x0800015f   Thumb Code     0  startup_gd32f30x_hd.o(.text)
    USBD_LP_CAN0_RX0_IRQHandler              0x0800015f   Thumb Code     0  startup_gd32f30x_hd.o(.text)
    USBD_WKUP_IRQHandler                     0x0800015f   Thumb Code     0  startup_gd32f30x_hd.o(.text)
    WWDGT_IRQHandler                         0x0800015f   Thumb Code     0  startup_gd32f30x_hd.o(.text)
    __scatterload                            0x08000169   Thumb Code    38  init.o(.text)
    __scatterload_rt2                        0x08000169   Thumb Code     0  init.o(.text)
    GetKeyValue                              0x08000199   Thumb Code   614  key_drv.o(.text.GetKeyValue)
    GetSystemRunTime                         0x08000401   Thumb Code    14  systick.o(.text.GetSystemRunTime)
    KeyDrvInit                               0x08000411   Thumb Code   102  key_drv.o(.text.KeyDrvInit)
    LedDrvInit                               0x08000479   Thumb Code   110  led_drv.o(.text.LedDrvInit)
    SysTick_Handler                          0x080004e9   Thumb Code    24  systick.o(.text.SysTick_Handler)
    SystemInit                               0x08000501   Thumb Code   574  system_gd32f30x.o(.text.SystemInit)
    SystickInit                              0x08000741   Thumb Code    72  systick.o(.text.SystickInit)
    TurnOffLed                               0x08000789   Thumb Code    30  led_drv.o(.text.TurnOffLed)
    TurnOnLed                                0x080007a9   Thumb Code    30  led_drv.o(.text.TurnOnLed)
    gpio_bit_reset                           0x080007c9   Thumb Code     4  gd32f30x_gpio.o(.text.gpio_bit_reset)
    gpio_bit_set                             0x080007cd   Thumb Code     4  gd32f30x_gpio.o(.text.gpio_bit_set)
    gpio_init                                0x080007d1   Thumb Code  1008  gd32f30x_gpio.o(.text.gpio_init)
    gpio_input_bit_get                       0x08000bc1   Thumb Code    10  gd32f30x_gpio.o(.text.gpio_input_bit_get)
    main                                     0x08000bcd   Thumb Code   116  main.o(.text.main)
    rcu_clock_freq_get                       0x08000c41   Thumb Code   196  gd32f30x_rcu.o(.text.rcu_clock_freq_get)
    rcu_periph_clock_enable                  0x08000d15   Thumb Code    30  gd32f30x_rcu.o(.text.rcu_periph_clock_enable)
    __scatterload_copy                       0x08000d33   Thumb Code    14  handlers.o(i.__scatterload_copy)
    __scatterload_null                       0x08000d41   Thumb Code     2  handlers.o(i.__scatterload_null)
    __scatterload_zeroinit                   0x08000d43   Thumb Code    14  handlers.o(i.__scatterload_zeroinit)
    Region$$Table$$Base                      0x08000d7c   Number         0  anon$$obj.o(Region$$Table)
    Region$$Table$$Limit                     0x08000d8c   Number         0  anon$$obj.o(Region$$Table)
    __initial_sp                             0x20000448   Data           0  startup_gd32f30x_hd.o(STACK)



==============================================================================

Memory Map of the image

  Image Entry point : 0x08000131

  Load Region LR_IROM1 (Base: 0x08000000, Size: 0x00000d8c, Max: 0x00080000, ABSOLUTE)

    Execution Region ER_IROM1 (Exec base: 0x08000000, Load base: 0x08000000, Size: 0x00000d8c, Max: 0x00080000, ABSOLUTE)

    Exec Addr    Load Addr    Size         Type   Attr      Idx    E Section Name        Object

    0x08000000   0x08000000   0x00000130   Data   RO          190    RESET               startup_gd32f30x_hd.o
    0x08000130   0x08000130   0x00000000   Code   RO          210  * .ARM.Collect$$$$00000000  mc_w.l(entry.o)
    0x08000130   0x08000130   0x00000004   Code   RO          213    .ARM.Collect$$$$00000001  mc_w.l(entry2.o)
    0x08000134   0x08000134   0x00000004   Code   RO          216    .ARM.Collect$$$$00000004  mc_w.l(entry5.o)
    0x08000138   0x08000138   0x00000000   Code   RO          218    .ARM.Collect$$$$00000008  mc_w.l(entry7b.o)
    0x08000138   0x08000138   0x00000000   Code   RO          220    .ARM.Collect$$$$0000000A  mc_w.l(entry8b.o)
    0x08000138   0x08000138   0x00000008   Code   RO          221    .ARM.Collect$$$$0000000B  mc_w.l(entry9a.o)
    0x08000140   0x08000140   0x00000000   Code   RO          223    .ARM.Collect$$$$0000000D  mc_w.l(entry10a.o)
    0x08000140   0x08000140   0x00000000   Code   RO          225    .ARM.Collect$$$$0000000F  mc_w.l(entry11a.o)
    0x08000140   0x08000140   0x00000004   Code   RO          214    .ARM.Collect$$$$00002712  mc_w.l(entry2.o)
    0x08000144   0x08000144   0x00000024   Code   RO          191    .text               startup_gd32f30x_hd.o
    0x08000168   0x08000168   0x00000030   Code   RO          227    .text               mc_w.l(init.o)
    0x08000198   0x08000198   0x00000266   Code   RO           14    .text.GetKeyValue   key_drv.o
    0x080003fe   0x080003fe   0x00000002   PAD
    0x08000400   0x08000400   0x0000000e   Code   RO           46    .text.GetSystemRunTime  systick.o
    0x0800040e   0x0800040e   0x00000002   PAD
    0x08000410   0x08000410   0x00000066   Code   RO           12    .text.KeyDrvInit    key_drv.o
    0x08000476   0x08000476   0x00000002   PAD
    0x08000478   0x08000478   0x0000006e   Code   RO           25    .text.LedDrvInit    led_drv.o
    0x080004e6   0x080004e6   0x00000002   PAD
    0x080004e8   0x080004e8   0x00000018   Code   RO           44    .text.SysTick_Handler  systick.o
    0x08000500   0x08000500   0x0000023e   Code   RO          198    .text.SystemInit    system_gd32f30x.o
    0x0800073e   0x0800073e   0x00000002   PAD
    0x08000740   0x08000740   0x00000048   Code   RO           42    .text.SystickInit   systick.o
    0x08000788   0x08000788   0x0000001e   Code   RO           29    .text.TurnOffLed    led_drv.o
    0x080007a6   0x080007a6   0x00000002   PAD
    0x080007a8   0x080007a8   0x0000001e   Code   RO           27    .text.TurnOnLed     led_drv.o
    0x080007c6   0x080007c6   0x00000002   PAD
    0x080007c8   0x080007c8   0x00000004   Code   RO           64    .text.gpio_bit_reset  gd32f30x_gpio.o
    0x080007cc   0x080007cc   0x00000004   Code   RO           62    .text.gpio_bit_set  gd32f30x_gpio.o
    0x080007d0   0x080007d0   0x000003f0   Code   RO           60    .text.gpio_init     gd32f30x_gpio.o
    0x08000bc0   0x08000bc0   0x0000000a   Code   RO           70    .text.gpio_input_bit_get  gd32f30x_gpio.o
    0x08000bca   0x08000bca   0x00000002   PAD
    0x08000bcc   0x08000bcc   0x00000074   Code   RO            2    .text.main          main.o
    0x08000c40   0x08000c40   0x000000d4   Code   RO          168    .text.rcu_clock_freq_get  gd32f30x_rcu.o
    0x08000d14   0x08000d14   0x0000001e   Code   RO          106    .text.rcu_periph_clock_enable  gd32f30x_rcu.o
    0x08000d32   0x08000d32   0x0000000e   Code   RO          231    i.__scatterload_copy  mc_w.l(handlers.o)
    0x08000d40   0x08000d40   0x00000002   Code   RO          232    i.__scatterload_null  mc_w.l(handlers.o)
    0x08000d42   0x08000d42   0x0000000e   Code   RO          233    i.__scatterload_zeroinit  mc_w.l(handlers.o)
    0x08000d50   0x08000d50   0x00000008   Data   RO          180    .rodata.cst8        gd32f30x_rcu.o
    0x08000d58   0x08000d58   0x00000024   Data   RO           33    .rodata.g_ledList   led_drv.o
    0x08000d7c   0x08000d7c   0x00000010   Data   RO          230    Region$$Table       anon$$obj.o


    Execution Region RW_IRAM1 (Exec base: 0x20000000, Load base: 0x08000d8c, Size: 0x00000448, Max: 0x00010000, ABSOLUTE)

    Exec Addr    Load Addr    Size         Type   Attr      Idx    E Section Name        Object

    0x20000000        -       0x00000040   Zero   RW           16    .bss.g_keyInfoList  key_drv.o
    0x20000040        -       0x00000008   Zero   RW           48    .bss.g_systemRunTime  systick.o
    0x20000048        -       0x00000400   Zero   RW          188    STACK               startup_gd32f30x_hd.o


==============================================================================

Image component sizes


      Code (inc. data)   RO Data    RW Data    ZI Data      Debug   Object Name

      1026          0          0          0          0       7811   gd32f30x_gpio.o
       242         22          8          0          0      15380   gd32f30x_rcu.o
       716         20          0          0         64       4558   key_drv.o
       170          0         36          0          0       2537   led_drv.o
       116          8          0          0          0        621   main.o
        36          8        304          0       1024        856   startup_gd32f30x_hd.o
       574          0          0          0          0       2878   system_gd32f30x.o
       110          0          0          0          8       3950   systick.o

    ----------------------------------------------------------------------
      3006         58        364          0       1096      38591   Object Totals
         0          0         16          0          0          0   (incl. Generated)
        16          0          0          0          0          0   (incl. Padding)

    ----------------------------------------------------------------------

      Code (inc. data)   RO Data    RW Data    ZI Data      Debug   Library Member Name

         0          0          0          0          0          0   entry.o
         0          0          0          0          0          0   entry10a.o
         0          0          0          0          0          0   entry11a.o
         8          4          0          0          0          0   entry2.o
         4          0          0          0          0          0   entry5.o
         0          0          0          0          0          0   entry7b.o
         0          0          0          0          0          0   entry8b.o
         8          4          0          0          0          0   entry9a.o
        30          0          0          0          0          0   handlers.o
        48         10          0          0          0         68   init.o

    ----------------------------------------------------------------------
        98         18          0          0          0         68   Library Totals
         0          0          0          0          0          0   (incl. Padding)

    ----------------------------------------------------------------------

      Code (inc. data)   RO Data    RW Data    ZI Data      Debug   Library Name

        98         18          0          0          0         68   mc_w.l

    ----------------------------------------------------------------------
        98         18          0          0          0         68   Library Totals

    ----------------------------------------------------------------------

==============================================================================


      Code (inc. data)   RO Data    RW Data    ZI Data      Debug   

      3104         76        364          0       1096      38743   Grand Totals
      3104         76        364          0       1096      38743   ELF Image Totals
      3104         76        364          0          0          0   ROM Totals

==============================================================================

    Total RO  Size (Code + RO Data)                 3468 (   3.39kB)
    Total RW  Size (RW Data + ZI Data)              1096 (   1.07kB)
    Total ROM Size (Code + RO Data + RW Data)       3468 (   3.39kB)

==============================================================================

