:020000040800F2
:100000000004002045010008490100084B010008D8
:100010004D0100084F0100085101000800000000D8
:100020000000000000000000000000005301000874
:1000300055010008000000005701000859010008A0
:100040005B0100085B0100085B0100085B01000820
:100050005B0100085B0100085B0100085B01000810
:100060005B0100085B0100085B0100085B01000800
:100070005B0100085B0100085B0100085B010008F0
:100080005B0100085B0100085B0100085B010008E0
:100090005B0100085B0100085B0100085B010008D0
:1000A0005B0100085B0100085B0100085B010008C0
:1000B0005B0100085B0100085B0100085B010008B0
:1000C0005B0100085B0100085B0100085B010008A0
:1000D0005B0100085B0100085B0100085B01000890
:1000E0005B0100085B0100085B0100085B01000880
:1000F0005B0100085B0100085B0100085B01000870
:100100005B0100085B0100085B0100085B0100085F
:100110005B0100085B0100085B0100085B0100084F
:100120005B0100085B0100085B0100085B0100083F
:10013000DFF80CD000F014F8004800476103000815
:100140000004002005480047FEE7FEE7FEE7FEE763
:10015000FEE7FEE7FEE7FEE7FEE7FEE73101000807
:100160001CB509480090094801900546009C06E02E
:10017000E06840F0010394E8070098471034AC426F
:10018000F6D3FFF7D9FF0000180400082804000880
:1001900082B00190009100980199486102B07047C7
:1001A00082B00190009100980199086102B07047F7
:1001B00087B006900591049203930020019000906F
:1001C000059800F00F0001909DF81400C00600286B
:1001D00014D5FFE7049804280AD1FFE7019840F0FE
:1001E00003000190039A0699C86B1043C86304E0AA
:1001F0000499019808430190FFE7FFE70020ADF85C
:100200000A00FFE7BDF80A00072842D8FFE7BDF85B
:100210000A100398C840C007A0B3FFE7069800681B
:100220000090BDF80A0081000F2000FA01F100984B
:10023000884300900198BDF80A10890000FA01F186
:100240000098084300900598282809D1FFE7BDF8D9
:100250000A100120884003990840069948610DE082
:100260000598482809D1FFE7BDF80A100120884009
:100270000399084006990861FFE7FFE7009806998F
:100280000860FFE7FFE7BDF80A000130ADF80A009B
:10029000B8E70820ADF80A00FFE7BDF80A000F280C
:1002A00046D8FFE7BDF80A100398C840C007C0B39E
:1002B000FFE7069840680090BDF80A006FF01F0144
:1002C00001EB80020F2000FA02F2009890430090A8
:1002D0000198BDF80A2001EB820100FA01F10098B3
:1002E000084300900598282809D1FFE7BDF80A10B7
:1002F0000120884003990840069948610DE005985F
:10030000482809D1FFE7BDF80A1001208840039969
:10031000084006990861FFE7FFE7009806994860E2
:10032000FFE7FFE7BDF80A000130ADF80A00B4E7C7
:1003300007B0704783B001900091019880680099E0
:10034000084204D0FFE701208DF80B0003E00020F5
:100350008DF80B00FFE79DF80B0003B0704700001D
:1003600080B584B00020039040F2026000F030F8C5
:1003700040F60000C4F20100019010210222029216
:100380004FF48073FFF714FF0198029A04210123B0
:10039000FFF70EFFFFE7FFE740F60000C4F20100A1
:1003A0000121FFF7C7FF48B9FFE740F60000C4F29C
:1003B00001004FF48071FFF7F3FEEDE740F6000017
:1003C000C4F201004FF48071FFF7E2FEE3E70000A2
:1003D00081B0ADF80200BDF8020000F01F0201215B
:1003E00001FA02F3810941F20002C4F202028858C4
:1003F0001843885001B0704702E008C8121F08C1B6
:10040000002AFAD170477047002001E001C1121F95
:10041000002AFBD1704700002804000800000020DB
:080420000004000008040008BC
:0400000508000131BD
:00000001FF
