:020000040800F2
:100000000004002045010008490100084B010008D8
:100010004D0100084F0100085101000800000000D8
:100020000000000000000000000000005301000874
:1000300055010008000000005701000859010008A0
:100040005B0100085B0100085B0100085B01000820
:100050005B0100085B0100085B0100085B01000810
:100060005B0100085B0100085B0100085B01000800
:100070005B0100085B0100085B0100085B010008F0
:100080005B0100085B0100085B0100085B010008E0
:100090005B0100085B0100085B0100085B010008D0
:1000A0005B0100085B0100085B0100085B010008C0
:1000B0005B0100085B0100085B0100085B010008B0
:1000C0005B0100085B0100085B0100085B010008A0
:1000D0005B0100085B0100085B0100085B01000890
:1000E0005B0100085B0100085B0100085B01000880
:1000F0005B0100085B0100085B0100085B01000870
:100100005B0100085B0100085B0100085B0100085F
:100110005B0100085B0100085B0100085B0100084F
:100120005B0100085B0100085B0100085B0100083F
:10013000DFF80CD000F014F800480047A9010008CF
:100140000004002005480047FEE7FEE7FEE7FEE763
:10015000FEE7FEE7FEE7FEE7FEE7FEE73101000807
:100160001CB509480090094801900546009C06E02E
:10017000E06840F0010394E8070098471034AC426F
:10018000F6D3FFF7D9FF000024020008340200086C
:1001900081B00090FFE70098411E009108B1FFE791
:1001A000F9E701B07047000080B584B000200390EB
:1001B00041F21801C4F20201086840F0040008602E
:1001C00040F60401C4F2010144F24240C4F244404A
:1001D0000860FFE740F60C01C4F2010101910868D4
:1001E00040F48070086044F24020C0F20F0002909A
:1001F000FFF7CEFF019A0298116821F48071116017
:10020000FFF7C6FFE6E702E008C8121F08C1002A90
:10021000FAD170477047002001E001C1121F002A87
:10022000FBD17047340200080000002000040000E9
:0402300016020008AA
:0400000508000131BD
:00000001FF
