:020000040800F2
:10000000B8040020450100084D0100084F01000818
:1000100051010008530100085501000800000000CC
:100020000000000000000000000000005701000870
:1000300059010008000000005B010008910400085D
:100040005F0100085F0100085F0100085F01000810
:100050005F0100085F0100085F0100085F01000800
:100060005F0100085F0100085F0100085F010008F0
:100070005F0100085F0100085F0100085F010008E0
:100080005F0100085F0100085F0100085F010008D0
:100090005F0100085F0100085F0100085F010008C0
:1000A0005F0100085F0100085F0100085F010008B0
:1000B0005F0100085F0100085F0100085F010008A0
:1000C0005F0100085F0100085F0100085F01000890
:1000D0005F010008050800085F0100085F010008D3
:1000E0005F0100085F0100085F0100085F01000870
:1000F0005F0100085F010008A50600085F01000815
:100100005F0100085F0100085F0100085F0100084F
:100110005F0100085F0100085F0100085F0100083F
:100120005F0100085F0100085F0100085F0100082F
:10013000DFF80CD000F04AF800480047D50A000864
:10014000B80400200648804706480047FEE7FEE75F
:10015000FEE7FEE7FEE7FEE7FEE7FEE7FEE7FEE777
:10016000B5040008310100082DE9F05F05460020C4
:1001700092469B4688460646814640241BE0284618
:1001800041464746224600F048F853465A46C01AB0
:10019000914110D311461846224600F02FF82D1A2F
:1001A00067EB01084F4622460120002100F026F8A7
:1001B00017EB00094E41201EA4F10104DFDC484684
:1001C00031462A464346BDE8F09F00001CB5094869
:1001D0000090094801900546009C06E0E06840F068
:1001E000010394E8070098471034AC42F6D3FFF7B8
:1001F000A3FF0000C4160008E4160008202A04DB50
:10020000203A00FA02F1002070479140C2F1200329
:1002100020FA03F3194390407047202A04DB203A68
:1002200021FA02F00021704721FA02F3D040C2F116
:1002300020029140084319467047000040F23E02F8
:10024000C2F200021178012907D140F23A03C2F24A
:1002500000039B7803700020107008467047000070
:1002600080B582B00DF10700FFF7E8FF002800F02D
:100270003E809DF807101FA000F0B6FF9DF8070014
:100280000738402800F23380DFE800F025313131B3
:100290003131313131313131313127313131313158
:1002A000313131313131313131313131313131313E
:1002B000313131313131313131313131313131312E
:1002C00031313131312331312121292E23000120D7
:1002D0000BE0012004E0022002E0022005E0002003
:1002E00000F080FA02B080BD002000F06BFA02B08E
:1002F00080BD00BF54686520696E66726172656476
:1003000020726563656976656420636F6465206942
:10031000732025233032782E0A000000B0B586B055
:1003200040F2046000F0B8FC43F20044C4F201045F
:10033000A4F5105048210122402300F06FFB40F249
:100340000D6000F0A9FC204600F0E6FC02AD284656
:1003500000F064FE7720ADF808002046294600F042
:1003600043FD6D46284600F0CFFC0220ADF80000AA
:10037000204600212A4600F091FD2046022100F08F
:1003800039FE2E200021002200F0CCFB204600F098
:1003900025FD06B0B0BD0000F0B581B041F2A06708
:1003A0006FF00B06C0F60007BC19A08900F074FCC2
:1003B000D4E904451021204602222B4600F02EFBF2
:1003C0002046294600F026FB0C36182EECD101B051
:1003D000F0BD0000014640F24400C2F2000000F00F
:1003E0003DB800000023C0E90033C0E90221704796
:1003F000D0E900239A4204BF03207047C3689A5C87
:100400000A70016882680131B1FBF2F303FB12113B
:100410000160002070470000002A04BF00207047E0
:10042000B0B58446002000BFDCE900E39E4508BF6C
:10043000B0BDDCF80C3013F80E300B54DCF800E0E3
:10044000DCF808500EF10103B3FBF5F4013004FBB6
:1004500015338242CCF80030E6D1B0BD10B5D0E9FA
:1004600001C304680CF10102B2FBF3FE0EFB13237F
:10047000A34204BF022010BDC26802F80C10436002
:10048000002010BD40F2B001C2F2000108607047C8
:1004900040F2A800C2F20000D0E90012013142F19E
:1004A0000002C0E9001240F24000C2F20000006801
:1004B0000047000081B04EF68851CEF200010A6874
:1004C00041F2040C42F47002C4F2020C0A605CF8BF
:1004D000041C41F001014CF8041C00BF5CF8041C32
:1004E0008907FBD5DCF8001041F08001CCF8001042
:1004F00000210091009A4F2A06D800BF009A0132CD
:100500000092009A502AF9D3DCF8002042F09002C1
:10051000CCF80020009100994F2905D800990131AD
:10052000009100995029F9D3DCF800104FF6FF72C2
:1005300021F00301CCF800105CF8041CCFF6F66241
:1005400011404CF8041C4FF41F01CCF804105CF867
:10055000041C21F480214CF8041C0021CCF800106C
:10056000CCF828105CF8042C42F480324CF8042CAF
:100570004FF6FE725CF8040C013A41F1000380036F
:1005800001D4002BF6D15CF8040C800301D400BF29
:10059000FEE7DCF8180047F2000140F08050C4F29A
:1005A0000001CCF8180008684FF6FF7240F4404094
:1005B0000860DCF80000CBF2C372CCF80000DCF875
:1005C0000000CCF80000DCF8000040F48060CCF8BB
:1005D0000000DCF8000020F44030CCF80000DCF82B
:1005E000000040F44030CCF80000DCF8000010407F
:1005F000CCF80000DCF8000040F0006040F450103F
:10060000CCF800005CF8040C40F080704CF8040C4E
:100610005CF8040C8001FBD5086840F48030086069
:100620004868C003FCD5086840F40030086000BF8B
:1006300048688003FCD5DCF8000020F00300CCF80B
:100640000000DCF8000040F00200CCF8000000BF21
:10065000DCF800000007FBD501B0704780B5012031
:1006600000F0B2FA44F6D351C1F26201A0FB0101DD
:100670004FF0FF3000EB9110B0F1807F10D24EF2BE
:100680001001CEF2000148604EF62350CEF2000079
:10069000F0220270002088600720086080BD00BF43
:1006A000FEE7000070B543F20044C4F201042046A6
:1006B000022100F0A7FC012861D12046022100F0B0
:1006C0009DFC2046002100F017FB05462046002136
:1006D00000F020FB4DF6EF00CFF6FF7010FA85F02A
:1006E00042F20E71884206D840F23800C2F2000091
:1006F0000121017070BD40F2380CC2F2000C9CF870
:10070000001001293BD1ABB2A3F2097140F282354E
:1007100040F2390E40F23A02A942C2F2000EC2F291
:1007200000020AD89EF800408026E008115C46EAE4
:1007300051011154601C8EF80000A3F28530A842CC
:1007400008D89EF80000C108535C01305B08535480
:100750008EF800009EF80000202818BF70BD907829
:10076000D1780840B0FA80F040F23E014009C2F270
:100770000001087000208CF800008EF8000070BDA9
:1007800080B540F2200E0020C2F2000E4FF0010CA6
:1007900004E000BF0C30182808BF80BD0EEB00033A
:1007A0005A88002AF6D0013A11045A80F2D1998869
:1007B0000EF800C05980EDE740F24001C2F200019E
:1007C00008607047032888BF704741F2A06100EBC2
:1007D0004000C0F6000101EB8000D0E9010100F00B
:1007E00019B90000032888BF704741F2A06100EBEF
:1007F0004000C0F6000101EB8000D0E9010100F0EB
:100800000BB90000B0B540F20405C2F2000540F299
:1008100005342868C0F20504214600F0A7FC002832
:1008200008BFB0BD2868214600F096FC286800F09B
:1008300033FC40F2B001C2F200010968C0B2BDE869
:10084000B040084780B540F2D530C0F60000FFF751
:1008500019FE40F2440040F25401C2F20000C2F21C
:1008600000014D22BDE88040FFF7BCBD10B540F24D
:100870000404C2F20004A08900F00EFAA068236903
:100880001821012200F0CAF8A068636948210122FA
:1008900000F0C4F8A08800F0FFF9206800F004FC24
:1008A0002068002100F098FC2068002100F070FC16
:1008B0002068002100F07EFC20684FF4E13100F058
:1008C000B5FB2068082100F07DFC2068042100F0C1
:1008D00067FC206840F2053100F032FC207E0021E8
:1008E000002200F01FF92068BDE8104000F01ABC9B
:1008F0002DE9F04F83B00020CDF80700CDE90000CE
:1009000040F244006C46C2F200002146FFF770FD41
:1009100010B103B0BDE8F08F40F2440704F1010BC1
:1009200004F1020904F10308A4F1010AC2F200076C
:100930002DA605E038462146FFF75AFD0028E8D1EC
:100940009DF800005528F5D138465946FFF750FD6F
:100950000028EFD19DF80100AA28EBD1384649467E
:10096000FFF746FD0028E5D19DF802000B28E1D8ED
:100970000130C2B238464146FFF74EFD9DF80210E5
:100980004A1C9042D6D1C81C02060AD0C2B200202E
:10099000534600BF13F8015F013A80EA0500F9D120
:1009A00000E000202144C9788842C3D19DF80300AB
:1009B000062809D19DF805109DF8040011B1FFF734
:1009C00011FF01E0FFF7FEFE002500BF615D30462C
:1009D00000F00AFC9DF80200013504308542F5D391
:1009E0000A2000F053FEA5E72530327820000000F1
:1009F000B0B540F20405C2F2000504462868E1B231
:100A000000F04EFB2868072100F092FB0028F9D087
:100A10002046B0BD41617047016170472DE9F04744
:100A2000CF0601F00F0C09D5042A05D1C26B4CF09A
:100A3000030C1A43C26301E04CEA020C00F1100EF1
:100A400000F1140A00244FF001094FF00F080027AD
:100A50000EE000BF166008FA04F225EA02020CFA62
:100A600004F52A4302600137082F04F104040CD076
:100A700009FA07F212EA0306F5D00568282952465A
:100A8000E8D04829E7D17246E4E7082400254FF072
:100A900001094FF00F080FE0176008FA05F226EA87
:100AA00002020CFA05F6324342600134102C05F1C3
:100AB000040508BFBDE8F08709FA04F212EA03074B
:100AC000F3D0466828295246E6D04829E5D1724637
:100AD000E2E70000FFF7C2FDFFF75EFCFFF7C6FE8E
:100AE000FFF71CFCFFF7AEFE40F28170C0F600007D
:100AF000FFF762FE40F220050024C2F20005002646
:100B000004E000BF701C861E18BF064606EB4600B8
:100B100015F820100029F5D005EB800081680470DD
:100B20008847EFE74EF60C5CCEF2000CDCF80030A4
:100B300003F4E063B3F5E06F01D1042328E0DCF8AF
:100B4000003003F4E063B3F5C06F01D103231FE06D
:100B5000DCF8003003F4E063B3F5A06F17D0DCF8E5
:100B6000003003F4E063B3F5806F01D101230FE09F
:100B7000DCF8003003F4E063B3F5407F01D10023DB
:100B800006E040F20053C0F2FA53CCF800300223E2
:100B900001FA03FCC3F104030F21D94011404EF2C6
:100BA000001241EA0C01CEF20002090140EA020300
:100BB00083F8001300F01F01012303FA01F11C2345
:100BC00003EAD0008150704710B541F20404C4F22A
:100BD0000204216801F00C01082941F20021C0F251
:100BE0007A012BD12368DB0304D440F6001CC0F249
:100BF0003D0C0DE0A36AD4F800C05B0046F600434C
:100C0000C0F2DC2358BF0B46CCF3404123FA01FC71
:100C100023682168C3F3834E102303EAD15123686C
:100C20008E44202101EA536171440B463F2918BFCD
:100C300001330F2938BF8B1C03FB0CF1236812A270
:100C4000C3F30313D35C226841F2986CC2F302220F
:100C5000C0F6000C1CF802E02268032807D821FA2D
:100C600003F3DFE800F00F020609184610BD00206C
:100C700010BD23FA0EF010BDC2F3C2201CF8000014
:100C800023FA00F1084610BD00000000000000003B
:100C9000010203040607080941F2000300F01F01E6
:100CA0008009C4F202034FF0010CC2580CFA01F1A2
:100CB0001143C1507047000041F2000300F01F01D2
:100CC0008009C4F202034FF0010CC2580CFA01F182
:100CD00022EA0101C150704741F2000300F01F01F8
:100CE0008009C4F202034FF0010CC2580CFA01F162
:100CF0001143C1507047000003298EBF002000EB54
:100D00008100406B704700004FF48031016000218A
:100D1000416070474162704710B540F6FF71C4F200
:100D20000001884211DC40F2FF71C4F200018842E8
:100D300021DCB0F1804F3CD040F20041C4F2000110
:100D4000884249D140F201443EE042F6FF31C4F20C
:100D5000010188421EDC41F20001C4F20001884218
:100D60002AD041F20041C4F20001884218BF10BDF0
:100D700040F2054428E040F60001C4F20001884238
:100D80001DD040F60041C4F20001884224D140F257
:100D9000034419E042F60041C4F20101884211D037
:100DA00043F20041C4F20101884215D140F20D34F2
:100DB0000AE04FF4806407E040F2044404E040F2AB
:100DC000024401E040F20B342046FFF785FF204645
:100DD000BDE81040FFF770BF10BD0000016841F092
:100DE00001010160704700000A8843F2004C8262F2
:100DF00040F6FF32C4F200029042C4F2010C0FDC54
:100E0000B0F1804F1AD040F20043C4F20003984280
:100E100014D040F60003C4F2000398420ED019E04B
:100E200040F60043C4F20003984207D0604505D065
:100E300042F60043C4F2010398420BD1036823F049
:100E4000700303604B8802681A4302608A88036853
:100E50001A43026080B541F20002D1F808E020F4A4
:100E60008063C4F200029342C0F82CE007D002680D
:100E700022F440720260CA8803681A430260604527
:100E800005D042F60042C4F20102904201D1097B32
:100E90000163416941F00101416180BDF0B5032961
:100EA00000F28B80DFE801F0021B355784465CF8C6
:100EB000203F4FF0010E23F00103CCF80030DCF8A6
:100EC000003023F00A03CCF800301388DCF80070FF
:100ED0003B43CCF80030034653F8187F32E0844699
:100EE0005CF8203F4FF0100E23F01003CCF80030D8
:100EF000DCF8003023F0A003CCF800301388DCF8D5
:100F0000007047EA0313CCF80030034653F8187F0B
:100F10003AE084465CF8203F4FF4807E23F48073EF
:100F2000CCF80030DCF8003023F42063CCF800303B
:100F30001388DCF8007047EA0323CCF8003003463E
:100F400053F81C7F27F003071F6054881D68042690
:100F50006FF0F00721E084465CF8203F4FF4805E9C
:100F600023F48053CCF80030DCF8003023F4005335
:100F7000CCF800301388DCF8007047EA0333CCF873
:100F80000030034653F81C7F27F440771F605788D2
:100F90001C683D020C266FF470472C431C601C68D3
:100FA0003C401C60D4881D68B4402C431C60DCF8B5
:100FB000003043EA0E03CCF80030032988BFF0BDAF
:100FC0009288DFE801F00205080D50F8181F04E0D0
:100FD00050F8181F06E050F81C1F21F00C0104E027
:100FE00050F81C1F21F44061120201600168114396
:100FF0000160F0BDC2681143C1607047C94301611F
:1010000070470000C26800690A40084018BF01200C
:10101000002A18BF012210407047000000214FF63F
:10102000FF72C0E90011826001737047B0B50446D9
:1010300044F6FF30C4F200000D4684424FF0000039
:1010400013DD44F60041C4F200018C4219D045F290
:101050000001C4F200018C4213D043F60001C4F237
:1010600001018C4210D103200CE044F20041C4F293
:1010700000018C4205D044F60001C4F200018C420C
:1010800002D10220FFF7A0FD00EB5500B0FBF5F008
:1010900080B2A060B0BD000040686FF35F20704771
:1010A0006FF35F214160704710B544F6FF31C4F221
:1010B0000001884215DD44F60041C4F20001884277
:1010C0001ED045F20001C4F2000188421BD043F655
:1010D0000001C4F20101884218BF10BD40F20E3475
:1010E00016E044F20041C4F2000188420ED044F6FA
:1010F0000001C4F20001884212D140F2124407E01C
:1011000040F2134404E040F2144401E040F2114480
:101110002046FFF7E1FD2046BDE81040FFF7CCBDBB
:1011200010BD0000C16841F40051C160704700006B
:101130008A09105801F01F01C84000F001007047F3
:1011400001F01F0289094FF0010C0B580CFA02F252
:101150001A430A5070470000C1F30442012303FA06
:1011600002F2D243890D0A5070470000C1F3891280
:1011700052F800C08A0D105801F01F03C1F304415A
:10118000C8402CFA03F1084000F00100704700004D
:10119000C26822F4C062C260C2681143C160704775
:1011A000C26801F0040122F00402C260C268114367
:1011B000C1607047026922F4405202610269114322
:1011C00001617047C26801F0080122F00802C260A4
:1011D000C2681143C1607047C26822F48052C26085
:1011E000C2681143C16070470FB4054B10B503A925
:1011F000044A029800F018F810BC5DF814FB0000D7
:10120000F10900080000002002E008C8121F08C110
:10121000002AFAD170477047002001E001C1121F77
:10122000002AFBD1704700002DE9FF4F8DB00F461B
:101230000546002606E025280BD0DDE90F12904771
:101240006D1C761C28780028F5D111B03046BDE819
:10125000F08F0024A246A1460122EC4900E004439D
:1012600015F8013F203B02FA03F00842F7D1287835
:101270002A2810D06FF02F022878A0F13001092918
:1012800014D80AEB8A0102EB410144F0020400EB9E
:10129000010A6D1CF0E701CF5FEA000A03D544F4B0
:1012A0000054CAF1000A44F002046D1C28782E286C
:1012B00017D115F8010F44F004042A280ED06FF05E
:1012C0002F022878A0F1300109290AD809EB8901F9
:1012D00002EB410100EB01096D1CF2E757F8049B9A
:1012E0006D1C28786C280FD006DC4C2817D0682895
:1012F0000DD06A2814D104E0742810D07A280FD1B8
:101300000DE044F400140AE044F4801401E044F4D5
:1013100040146978814202D104F580146D1C6D1C63
:101320002A786E2A1FD00CDC632A31D004DC002A14
:101330008BD0582A11D1A3E0642A68D0692A0CD135
:1013400065E0732A2ED004DC6F2A73D0702A04D192
:101350009BE0752A6FD0782A6ED01046DDE90F1217
:101360009047761C50E1C4F30250022806D00328AF
:1013700009D0042801CF09D0066045E101CFF1175B
:10138000C0E9006140E101CF06803DE106703BE12C
:1013900017F8040B8DF8000000208DF80100EB46D3
:1013A000012003E057F804BB4FF0FF3061074FF016
:1013B000000102D40DE008F10101884649450FDA29
:1013C0008045F8DB1BF808100029F4D108E008F18B
:1013D000010188468142FADB1BF808100029F6D18A
:1013E000DDE90F23AAEB08008146214600F036F91B
:1013F000304400EB080604E0DDE90F121BF8010B96
:101400009047B8F10108F7D221464846F7E00A2193
:10141000C4F302534FF0000B0891022B04D001CF0C
:10142000C117032B09D00AE0FF1D27F00707F7E8D3
:10143000020108E032E01FE020E000B2C117042BF7
:1014400001D140B2C117031E71F1000307DA4FF05A
:10145000000CD0EB0C006CEB01012D2302E0230506
:1014600004D52B238DF82430012303E0E30701D0BA
:101470002023F7E7984658E00A2110E010210EE0FB
:1014800010204FF0000B08900CE010214FF0000BE3
:1014900044F004044FF00809089103E008214FF0DC
:1014A000000B0891C4F30253022B04D001CF00219A
:1014B000032B06D006E0FF1D27F00707F7E802011F
:1014C00003E080B2042B00D1C0B24FF00008230724
:1014D0002BD5702A07D0DDF820C08CF0100C5CEA08
:1014E0000B0C05D00EE040238DF82430012308E0DA
:1014F00050EA010306D030238DF824308DF82520E2
:1015000002239846DDF820C08CF0080C5CEA0B0C36
:101510000BD150EA010301D1630706D530238DF8C2
:1015200024304FF00108A9F10109582A04D038A24B
:101530000B9208AA0A920BE03AA2F9E75B46089AD6
:10154000FEF712FE0B9B9B5C0A9A521E0A921370C6
:1015500050EA0102F2D10A98ADEB000000F1200B35
:10156000600702D524F4803401E04FF00109D94529
:1015700002DDA9EB0B0000E0002000EB0B01414471
:101580000890AAEB010AE00306D4DDE90F23214607
:10159000504600F063F806444FF0000908E009A93E
:1015A00011F80900DDE90F12904709F10109761CD5
:1015B000C145F4DBE0030CD5DDE90F23214650469D
:1015C00000F04CF8064404E0DDE90F1230209047AB
:1015D000761C0899481E08900029F5DC08E00A9856
:1015E0000A990078491C0A91DDE90F129047761C90
:1015F000BBF10001ABF1010BF1DC21465046DDE906
:101600000F2300F019F806446D1C1BE609280100A1
:101610003031323334353637383961626364656668
:10162000000000003031323334353637383941422A
:1016300043444546000000002DE9F04104460025E2
:101640001E461746880404D405E039462020B047DA
:101650006D1C641EF9D52846BDE8F0812DE9F041E6
:10166000044600251E469046C80301D5302700E0F9
:101670002027880404D505E041463846B0476D1C54
:10168000641EF9D52846BDE8F08100000149FFF746
:10169000AFB90000000000200000000001020304B8
:1016A00002060000000801400001000006060000DC
:1016B000001801404000000007060000001C014027
:1016C00040000000E816000800000020380000007C
:1016D00008120008201700083800002080040000CD
:1016E000181200080000000000000000003801404F
:1016F0000E06000000080140020600000002000083
:1017000000040000250000000000050005000000A6
:10171000610200080000F401F4010000F108000873
:0400000508000131BD
:00000001FF
