Component: Arm Compiler for Embedded 6.21 Tool: armlink [5ec1fa00]

==============================================================================

Section Cross References

    main.o(.text.main) refers to led_drv.o(.text.LedDrvInit) for LedDrvInit
    main.o(.text.main) refers to usb2com_drv.o(.text.Usb2ComDrvInit) for Usb2ComDrvInit
    main.o(.text.main) refers to usb2com_drv.o(.text.Usb2ComTask) for Usb2ComTask
    main.o(.ARM.exidx.text.main) refers to main.o(.text.main) for [Anonymous Symbol]
    delay.o(.ARM.exidx.text.DwtDelayInit) refers to delay.o(.text.DwtDelayInit) for [Anonymous Symbol]
    delay.o(.text.DelayNus) refers to gd32f30x_rcu.o(.text.rcu_clock_freq_get) for rcu_clock_freq_get
    delay.o(.ARM.exidx.text.DelayNus) refers to delay.o(.text.DelayNus) for [Anonymous Symbol]
    delay.o(.text.DelayNms) refers to gd32f30x_rcu.o(.text.rcu_clock_freq_get) for rcu_clock_freq_get
    delay.o(.ARM.exidx.text.DelayNms) refers to delay.o(.text.DelayNms) for [Anonymous Symbol]
    key_drv.o(.text.KeyDrvInit) refers to key_drv.o(.rodata.g_GpioList) for g_GpioList
    key_drv.o(.text.KeyDrvInit) refers to gd32f30x_rcu.o(.text.rcu_periph_clock_enable) for rcu_periph_clock_enable
    key_drv.o(.text.KeyDrvInit) refers to gd32f30x_gpio.o(.text.gpio_init) for gpio_init
    key_drv.o(.ARM.exidx.text.KeyDrvInit) refers to key_drv.o(.text.KeyDrvInit) for [Anonymous Symbol]
    key_drv.o(.text.GetKeyValue) refers to key_drv.o(.rodata.g_GpioList) for g_GpioList
    key_drv.o(.text.GetKeyValue) refers to key_drv.o(.bss.g_keyInfoList) for g_keyInfoList
    key_drv.o(.text.GetKeyValue) refers to systick.o(.text.GetSystemRunTime) for GetSystemRunTime
    key_drv.o(.text.GetKeyValue) refers to gd32f30x_gpio.o(.text.gpio_input_bit_get) for gpio_input_bit_get
    key_drv.o(.ARM.exidx.text.GetKeyValue) refers to key_drv.o(.text.GetKeyValue) for [Anonymous Symbol]
==============================================================================

Removing Unused input sections from the image.

    Removing main.o(.text), (0 bytes).
    Removing main.o(.ARM.exidx.text.main), (8 bytes).
    Removing main.o(.ARM.use_no_argv), (4 bytes).
    Removing delay.o(.text), (0 bytes).
    Removing delay.o(.text.DwtDelayInit), (54 bytes).
    Removing delay.o(.ARM.exidx.text.DwtDelayInit), (8 bytes).
    Removing delay.o(.text.DelayNus), (46 bytes).
    Removing delay.o(.ARM.exidx.text.DelayNus), (8 bytes).
    Removing delay.o(.text.DelayNms), (78 bytes).
    Removing delay.o(.ARM.exidx.text.DelayNms), (8 bytes).
    Removing key_drv.o(.text), (0 bytes).
    Removing key_drv.o(.text.KeyDrvInit), (44 bytes).
    Removing key_drv.o(.ARM.exidx.text.KeyDrvInit), (8 bytes).
    Removing key_drv.o(.text.GetKeyValue), (228 bytes).
    Removing key_drv.o(.ARM.exidx.text.GetKeyValue), (8 bytes).
    Removing key_drv.o(.rodata.g_GpioList), (48 bytes).
    Removing key_drv.o(.bss.g_keyInfoList), (64 bytes).
    Removing led_drv.o(.text), (0 bytes).
==============================================================================

Image Symbol Table

    Local Symbols

    Symbol Name                              Value     Ov Type        Size  Object(Section)

    ../clib/division.s                       0x00000000   Number         0  aeabi_sdiv.o ABSOLUTE
    ../clib/microlib/division.c              0x00000000   Number         0  uidiv.o ABSOLUTE
    ../clib/microlib/division.c              0x00000000   Number         0  uldiv.o ABSOLUTE
    ../clib/microlib/init/entry.s            0x00000000   Number         0  entry.o ABSOLUTE
    ../clib/microlib/init/entry.s            0x00000000   Number         0  entry2.o ABSOLUTE
    ../clib/microlib/init/entry.s            0x00000000   Number         0  entry5.o ABSOLUTE
    ../clib/microlib/init/entry.s            0x00000000   Number         0  entry7a.o ABSOLUTE
    ../clib/microlib/init/entry.s            0x00000000   Number         0  entry7b.o ABSOLUTE
    ../clib/microlib/init/entry.s            0x00000000   Number         0  entry8a.o ABSOLUTE
    ../clib/microlib/init/entry.s            0x00000000   Number         0  entry8b.o ABSOLUTE
    ../clib/microlib/init/entry.s            0x00000000   Number         0  entry9a.o ABSOLUTE
    ../clib/microlib/init/entry.s            0x00000000   Number         0  entry9b.o ABSOLUTE
    ../clib/microlib/init/entry.s            0x00000000   Number         0  entry10a.o ABSOLUTE
    ../clib/microlib/init/entry.s            0x00000000   Number         0  entry10b.o ABSOLUTE
    ../clib/microlib/init/entry.s            0x00000000   Number         0  entry11a.o ABSOLUTE
    ../clib/microlib/init/entry.s            0x00000000   Number         0  entry11b.o ABSOLUTE
    ../clib/microlib/longlong.c              0x00000000   Number         0  llshl.o ABSOLUTE
    ../clib/microlib/longlong.c              0x00000000   Number         0  llushr.o ABSOLUTE
    ../clib/microlib/longlong.c              0x00000000   Number         0  llsshr.o ABSOLUTE
    ../clib/microlib/printf/printf.c         0x00000000   Number         0  printfb.o ABSOLUTE
    ../clib/microlib/printf/printf.c         0x00000000   Number         0  printf0.o ABSOLUTE
    ../clib/microlib/printf/printf.c         0x00000000   Number         0  printf1.o ABSOLUTE
    ../clib/microlib/printf/printf.c         0x00000000   Number         0  printf2.o ABSOLUTE
    ../clib/microlib/printf/printf.c         0x00000000   Number         0  printf3.o ABSOLUTE
    ../clib/microlib/printf/printf.c         0x00000000   Number         0  printf4.o ABSOLUTE
    ../clib/microlib/printf/printf.c         0x00000000   Number         0  printf5.o ABSOLUTE
    ../clib/microlib/printf/printf.c         0x00000000   Number         0  printf6.o ABSOLUTE
    ../clib/microlib/printf/printf.c         0x00000000   Number         0  printf7.o ABSOLUTE
    ../clib/microlib/printf/printf.c         0x00000000   Number         0  printf8.o ABSOLUTE
    ../clib/microlib/printf/printf.c         0x00000000   Number         0  printfa.o ABSOLUTE
    ../clib/microlib/printf/stubs.s          0x00000000   Number         0  printfstubs.o ABSOLUTE
    ../clib/microlib/stdio/putchar.c         0x00000000   Number         0  putchar.o ABSOLUTE
    ../clib/microlib/stdio/streams.c         0x00000000   Number         0  stdout.o ABSOLUTE
    ../clib/microlib/stubs.s                 0x00000000   Number         0  iusefp.o ABSOLUTE
    ../fplib/microlib/fpadd.c                0x00000000   Number         0  dadd.o ABSOLUTE
    ../fplib/microlib/fpdiv.c                0x00000000   Number         0  ddiv.o ABSOLUTE
    ../fplib/microlib/fpepilogue.c           0x00000000   Number         0  depilogue.o ABSOLUTE
    ../fplib/microlib/fpfix.c                0x00000000   Number         0  dfixul.o ABSOLUTE
    ../fplib/microlib/fpmul.c                0x00000000   Number         0  dmul.o ABSOLUTE
    Arm/startup_gd32f30x_hd.s                0x00000000   Number         0  startup_gd32f30x_hd.o ABSOLUTE
    cdrcmple.s                               0x00000000   Number         0  cdrcmple.o ABSOLUTE
    dc.s                                     0x00000000   Number         0  dc.o ABSOLUTE
    delay.c                                  0x00000000   Number         0  delay.o ABSOLUTE
    gd32f30x_dma.c                           0x00000000   Number         0  gd32f30x_dma.o ABSOLUTE
    gd32f30x_gpio.c                          0x00000000   Number         0  gd32f30x_gpio.o ABSOLUTE
    gd32f30x_misc.c                          0x00000000   Number         0  gd32f30x_misc.o ABSOLUTE
    gd32f30x_rcu.c                           0x00000000   Number         0  gd32f30x_rcu.o ABSOLUTE
    gd32f30x_usart.c                         0x00000000   Number         0  gd32f30x_usart.o ABSOLUTE
    handlers.s                               0x00000000   Number         0  handlers.o ABSOLUTE
    init.s                                   0x00000000   Number         0  init.o ABSOLUTE
    key_drv.c                                0x00000000   Number         0  key_drv.o ABSOLUTE
    led_drv.c                                0x00000000   Number         0  led_drv.o ABSOLUTE
    main.c                                   0x00000000   Number         0  main.o ABSOLUTE
    system_gd32f30x.c                        0x00000000   Number         0  system_gd32f30x.o ABSOLUTE
    systick.c                                0x00000000   Number         0  systick.o ABSOLUTE
    usb2com_drv.c                            0x00000000   Number         0  usb2com_drv.o ABSOLUTE
    RESET                                    0x08000000   Section      304  startup_gd32f30x_hd.o(RESET)
    .ARM.Collect$$$$00000000                 0x08000130   Section        0  entry.o(.ARM.Collect$$$$00000000)
    .ARM.Collect$$$$00000001                 0x08000130   Section        4  entry2.o(.ARM.Collect$$$$00000001)
    .ARM.Collect$$$$00000004                 0x08000134   Section        4  entry5.o(.ARM.Collect$$$$00000004)
    .ARM.Collect$$$$00000008                 0x08000138   Section        0  entry7b.o(.ARM.Collect$$$$00000008)
    .ARM.Collect$$$$0000000A                 0x08000138   Section        0  entry8b.o(.ARM.Collect$$$$0000000A)
    .ARM.Collect$$$$0000000B                 0x08000138   Section        8  entry9a.o(.ARM.Collect$$$$0000000B)
    __lit__00000000                          0x08000140   Data           4  entry2.o(.ARM.Collect$$$$00002712)
    .ARM.Collect$$$$0000000D                 0x08000140   Section        0  entry10a.o(.ARM.Collect$$$$0000000D)
    .ARM.Collect$$$$0000000F                 0x08000140   Section        0  entry11a.o(.ARM.Collect$$$$0000000F)
    .ARM.Collect$$$$00002712                 0x08000140   Section        4  entry2.o(.ARM.Collect$$$$00002712)
    $v0                                      0x08000144   Number         0  startup_gd32f30x_hd.o(.text)
    .text                                    0x08000144   Section       36  startup_gd32f30x_hd.o(.text)
    .text                                    0x08000168   Section        0  uldiv.o(.text)
    .text                                    0x080001cc   Section       48  init.o(.text)
    .text                                    0x080001fc   Section        0  llshl.o(.text)
    .text                                    0x0800021a   Section        0  llushr.o(.text)
    [Anonymous Symbol]                       0x0800023c   Section        0  led_drv.o(.text.LedDrvInit)
    [Anonymous Symbol]                       0x08000278   Section        0  systick.o(.text.SysTick_Handler)
    [Anonymous Symbol]                       0x08000290   Section        0  system_gd32f30x.o(.text.SystemInit)
    [Anonymous Symbol]                       0x08000438   Section        0  led_drv.o(.text.TurnOffLed)
    [Anonymous Symbol]                       0x08000458   Section        0  led_drv.o(.text.TurnOnLed)
    [Anonymous Symbol]                       0x08000478   Section        0  usb2com_drv.o(.text.USART0_IRQHandler)
    [Anonymous Symbol]                       0x080004e4   Section        0  usb2com_drv.o(.text.Usb2ComDrvInit)
    [Anonymous Symbol]                       0x08000600   Section        0  usb2com_drv.o(.text.Usb2ComTask)
    [Anonymous Symbol]                       0x08000680   Section        0  gd32f30x_dma.o(.text.dma_channel_disable)
    [Anonymous Symbol]                       0x080006a4   Section        0  gd32f30x_dma.o(.text.dma_channel_enable)
    [Anonymous Symbol]                       0x080006c8   Section        0  gd32f30x_dma.o(.text.dma_deinit)
    [Anonymous Symbol]                       0x08000704   Section        0  gd32f30x_dma.o(.text.dma_memory_address_config)
    [Anonymous Symbol]                       0x08000724   Section        0  gd32f30x_dma.o(.text.dma_memory_increase_enable)
    [Anonymous Symbol]                       0x08000748   Section        0  gd32f30x_dma.o(.text.dma_memory_width_config)
    [Anonymous Symbol]                       0x08000770   Section        0  gd32f30x_dma.o(.text.dma_periph_address_config)
    [Anonymous Symbol]                       0x08000790   Section        0  gd32f30x_dma.o(.text.dma_periph_increase_disable)
    [Anonymous Symbol]                       0x080007b4   Section        0  gd32f30x_dma.o(.text.dma_periph_width_config)
    [Anonymous Symbol]                       0x080007dc   Section        0  gd32f30x_dma.o(.text.dma_priority_config)
    [Anonymous Symbol]                       0x08000804   Section        0  gd32f30x_dma.o(.text.dma_transfer_direction_config)
    [Anonymous Symbol]                       0x08000830   Section        0  gd32f30x_dma.o(.text.dma_transfer_number_config)
    [Anonymous Symbol]                       0x08000850   Section        0  gd32f30x_dma.o(.text.dma_transfer_number_get)
    [Anonymous Symbol]                       0x08000870   Section        0  usb2com_drv.o(.text.fputc)
    [Anonymous Symbol]                       0x08000894   Section        0  gd32f30x_gpio.o(.text.gpio_bit_reset)
    [Anonymous Symbol]                       0x08000898   Section        0  gd32f30x_gpio.o(.text.gpio_bit_set)
    [Anonymous Symbol]                       0x0800089c   Section        0  gd32f30x_gpio.o(.text.gpio_init)
    [Anonymous Symbol]                       0x08000954   Section        0  main.o(.text.main)
    [Anonymous Symbol]                       0x08000964   Section        0  gd32f30x_misc.o(.text.nvic_irq_enable)
    [Anonymous Symbol]                       0x08000a08   Section        0  gd32f30x_rcu.o(.text.rcu_clock_freq_get)
    [Anonymous Symbol]                       0x08000ad8   Section        0  gd32f30x_rcu.o(.text.rcu_periph_clock_enable)
    [Anonymous Symbol]                       0x08000af8   Section        0  gd32f30x_rcu.o(.text.rcu_periph_reset_disable)
    [Anonymous Symbol]                       0x08000b18   Section        0  gd32f30x_rcu.o(.text.rcu_periph_reset_enable)
    [Anonymous Symbol]                       0x08000b38   Section        0  gd32f30x_usart.o(.text.usart_baudrate_set)
    [Anonymous Symbol]                       0x08000ba4   Section        0  gd32f30x_usart.o(.text.usart_data_receive)
    [Anonymous Symbol]                       0x08000bac   Section        0  gd32f30x_usart.o(.text.usart_data_transmit)
    [Anonymous Symbol]                       0x08000bb4   Section        0  gd32f30x_usart.o(.text.usart_deinit)
    [Anonymous Symbol]                       0x08000c30   Section        0  gd32f30x_usart.o(.text.usart_dma_receive_config)
    [Anonymous Symbol]                       0x08000c44   Section        0  gd32f30x_usart.o(.text.usart_enable)
    [Anonymous Symbol]                       0x08000c50   Section        0  gd32f30x_usart.o(.text.usart_flag_get)
    [Anonymous Symbol]                       0x08000c60   Section        0  gd32f30x_usart.o(.text.usart_interrupt_enable)
    [Anonymous Symbol]                       0x08000c78   Section        0  gd32f30x_usart.o(.text.usart_interrupt_flag_clear)
    [Anonymous Symbol]                       0x08000c8c   Section        0  gd32f30x_usart.o(.text.usart_interrupt_flag_get)
    [Anonymous Symbol]                       0x08000cb0   Section        0  gd32f30x_usart.o(.text.usart_parity_config)
    [Anonymous Symbol]                       0x08000cc0   Section        0  gd32f30x_usart.o(.text.usart_receive_config)
    [Anonymous Symbol]                       0x08000cd4   Section        0  gd32f30x_usart.o(.text.usart_stop_bit_set)
    [Anonymous Symbol]                       0x08000ce4   Section        0  gd32f30x_usart.o(.text.usart_transmit_config)
    [Anonymous Symbol]                       0x08000cf8   Section        0  gd32f30x_usart.o(.text.usart_word_length_set)
    i.__0printf$8                            0x08000d08   Section        0  printf8.o(i.__0printf$8)
    i.__scatterload_copy                     0x08000d28   Section       14  handlers.o(i.__scatterload_copy)
    i.__scatterload_null                     0x08000d36   Section        2  handlers.o(i.__scatterload_null)
    i.__scatterload_zeroinit                 0x08000d38   Section       14  handlers.o(i.__scatterload_zeroinit)
    _printf_core                             0x08000d49   Thumb Code   996  printf8.o(i._printf_core)
    i._printf_core                           0x08000d48   Section        0  printf8.o(i._printf_core)
    _printf_post_padding                     0x08001159   Thumb Code    36  printf8.o(i._printf_post_padding)
    i._printf_post_padding                   0x08001158   Section        0  printf8.o(i._printf_post_padding)
    _printf_pre_padding                      0x0800117d   Thumb Code    46  printf8.o(i._printf_pre_padding)
    i._printf_pre_padding                    0x0800117c   Section        0  printf8.o(i._printf_pre_padding)
    i.putchar                                0x080011ac   Section        0  putchar.o(i.putchar)
    .L__const.rcu_clock_freq_get.apb2_exp    0x080011b8   Data           8  gd32f30x_rcu.o(.rodata.cst8)
    g_ledList                                0x080011c0   Data          36  led_drv.o(.rodata.g_ledList)
    [Anonymous Symbol]                       0x080011c0   Section        0  led_drv.o(.rodata.g_ledList)
    .data                                    0x20000000   Section        4  stdout.o(.data)
    g_rcvFlag                                0x20000028   Data           1  usb2com_drv.o(.bss.g_rcvFlag)
    [Anonymous Symbol]                       0x20000028   Section        0  usb2com_drv.o(.bss.g_rcvFlag)
    g_systemRunTime                          0x20000030   Data           8  systick.o(.bss.g_systemRunTime)
    [Anonymous Symbol]                       0x20000030   Section        0  systick.o(.bss.g_systemRunTime)
    g_uartBuf                                0x20000038   Data          20  usb2com_drv.o(.bss.g_uartBuf)
    [Anonymous Symbol]                       0x20000038   Section        0  usb2com_drv.o(.bss.g_uartBuf)
    STACK                                    0x20000050   Section     1024  startup_gd32f30x_hd.o(STACK)

    Global Symbols

    Symbol Name                              Value     Ov Type        Size  Object(Section)

    BuildAttributes$$THM_ISAv4$E$P$D$K$B$S$7EM$VFPi3$EXTD16$VFPS$VFMA$PE$A:L22UL41UL21$X:L11$S22US41US21$IEEE1$IW$~IW$USESV6$~STKCKD$USESV7$~SHL$OTIME$ROPI$EBA8$MICROLIB$REQ8$PRES8$EABIv2 0x00000000   Number         0  anon$$obj.o ABSOLUTE
    _printf_a                                0x00000000   Number         0  printfstubs.o ABSOLUTE
    _printf_c                                0x00000000   Number         0  printfstubs.o ABSOLUTE
    _printf_charcount                        0x00000000   Number         0  printfstubs.o ABSOLUTE
    _printf_d                                0x00000000   Number         0  printfstubs.o ABSOLUTE
    _printf_e                                0x00000000   Number         0  printfstubs.o ABSOLUTE
    _printf_f                                0x00000000   Number         0  printfstubs.o ABSOLUTE
    _printf_flags                            0x00000000   Number         0  printfstubs.o ABSOLUTE
    _printf_fp_dec                           0x00000000   Number         0  printfstubs.o ABSOLUTE
    _printf_fp_hex                           0x00000000   Number         0  printfstubs.o ABSOLUTE
    _printf_g                                0x00000000   Number         0  printfstubs.o ABSOLUTE
    _printf_i                                0x00000000   Number         0  printfstubs.o ABSOLUTE
    _printf_int_dec                          0x00000000   Number         0  printfstubs.o ABSOLUTE
    _printf_l                                0x00000000   Number         0  printfstubs.o ABSOLUTE
    _printf_lc                               0x00000000   Number         0  printfstubs.o ABSOLUTE
    _printf_ll                               0x00000000   Number         0  printfstubs.o ABSOLUTE
    _printf_lld                              0x00000000   Number         0  printfstubs.o ABSOLUTE
    _printf_lli                              0x00000000   Number         0  printfstubs.o ABSOLUTE
    _printf_llo                              0x00000000   Number         0  printfstubs.o ABSOLUTE
    _printf_llu                              0x00000000   Number         0  printfstubs.o ABSOLUTE
    _printf_llx                              0x00000000   Number         0  printfstubs.o ABSOLUTE
    _printf_longlong_dec                     0x00000000   Number         0  printfstubs.o ABSOLUTE
    _printf_longlong_hex                     0x00000000   Number         0  printfstubs.o ABSOLUTE
    _printf_longlong_oct                     0x00000000   Number         0  printfstubs.o ABSOLUTE
    _printf_ls                               0x00000000   Number         0  printfstubs.o ABSOLUTE
    _printf_mbtowc                           0x00000000   Number         0  printfstubs.o ABSOLUTE
    _printf_n                                0x00000000   Number         0  printfstubs.o ABSOLUTE
    _printf_o                                0x00000000   Number         0  printfstubs.o ABSOLUTE
    _printf_p                                0x00000000   Number         0  printfstubs.o ABSOLUTE
    _printf_percent                          0x00000000   Number         0  printfstubs.o ABSOLUTE
    _printf_pre_padding                      0x00000000   Number         0  printfstubs.o ABSOLUTE
    _printf_return_value                     0x00000000   Number         0  printfstubs.o ABSOLUTE
    _printf_s                                0x00000000   Number         0  printfstubs.o ABSOLUTE
    _printf_sizespec                         0x00000000   Number         0  printfstubs.o ABSOLUTE
    _printf_str                              0x00000000   Number         0  printfstubs.o ABSOLUTE
    _printf_truncate_signed                  0x00000000   Number         0  printfstubs.o ABSOLUTE
    _printf_truncate_unsigned                0x00000000   Number         0  printfstubs.o ABSOLUTE
    _printf_u                                0x00000000   Number         0  printfstubs.o ABSOLUTE
    _printf_wc                               0x00000000   Number         0  printfstubs.o ABSOLUTE
    _printf_wctomb                           0x00000000   Number         0  printfstubs.o ABSOLUTE
    _printf_widthprec                        0x00000000   Number         0  printfstubs.o ABSOLUTE
    _printf_x                                0x00000000   Number         0  printfstubs.o ABSOLUTE
    __cpp_initialize__aeabi_                  - Undefined Weak Reference
    __cxa_finalize                            - Undefined Weak Reference
    __decompress                              - Undefined Weak Reference
    _clock_init                               - Undefined Weak Reference
    _microlib_exit                            - Undefined Weak Reference
    __Vectors_Size                           0x00000130   Number         0  startup_gd32f30x_hd.o ABSOLUTE
    __Vectors                                0x08000000   Data           4  startup_gd32f30x_hd.o(RESET)
    __Vectors_End                            0x08000130   Data           0  startup_gd32f30x_hd.o(RESET)
    __main                                   0x08000131   Thumb Code     0  entry.o(.ARM.Collect$$$$00000000)
    _main_stk                                0x08000131   Thumb Code     0  entry2.o(.ARM.Collect$$$$00000001)
    _main_scatterload                        0x08000135   Thumb Code     0  entry5.o(.ARM.Collect$$$$00000004)
    __main_after_scatterload                 0x08000139   Thumb Code     0  entry5.o(.ARM.Collect$$$$00000004)
    _main_clock                              0x08000139   Thumb Code     0  entry7b.o(.ARM.Collect$$$$00000008)
    _main_cpp_init                           0x08000139   Thumb Code     0  entry8b.o(.ARM.Collect$$$$0000000A)
    _main_init                               0x08000139   Thumb Code     0  entry9a.o(.ARM.Collect$$$$0000000B)
    __rt_final_cpp                           0x08000141   Thumb Code     0  entry10a.o(.ARM.Collect$$$$0000000D)
    __rt_final_exit                          0x08000141   Thumb Code     0  entry11a.o(.ARM.Collect$$$$0000000F)
    Reset_Handler                            0x08000145   Thumb Code     8  startup_gd32f30x_hd.o(.text)
    NMI_Handler                              0x0800014d   Thumb Code     2  startup_gd32f30x_hd.o(.text)
    HardFault_Handler                        0x0800014f   Thumb Code     2  startup_gd32f30x_hd.o(.text)
    MemManage_Handler                        0x08000151   Thumb Code     2  startup_gd32f30x_hd.o(.text)
    BusFault_Handler                         0x08000153   Thumb Code     2  startup_gd32f30x_hd.o(.text)
    UsageFault_Handler                       0x08000155   Thumb Code     2  startup_gd32f30x_hd.o(.text)
    SVC_Handler                              0x08000157   Thumb Code     2  startup_gd32f30x_hd.o(.text)
    DebugMon_Handler                         0x08000159   Thumb Code     2  startup_gd32f30x_hd.o(.text)
    PendSV_Handler                           0x0800015b   Thumb Code     2  startup_gd32f30x_hd.o(.text)
    ADC0_1_IRQHandler                        0x0800015f   Thumb Code     0  startup_gd32f30x_hd.o(.text)
    ADC2_IRQHandler                          0x0800015f   Thumb Code     0  startup_gd32f30x_hd.o(.text)
    CAN0_EWMC_IRQHandler                     0x0800015f   Thumb Code     0  startup_gd32f30x_hd.o(.text)
    CAN0_RX1_IRQHandler                      0x0800015f   Thumb Code     0  startup_gd32f30x_hd.o(.text)
    DMA0_Channel0_IRQHandler                 0x0800015f   Thumb Code     0  startup_gd32f30x_hd.o(.text)
    DMA0_Channel1_IRQHandler                 0x0800015f   Thumb Code     0  startup_gd32f30x_hd.o(.text)
    DMA0_Channel2_IRQHandler                 0x0800015f   Thumb Code     0  startup_gd32f30x_hd.o(.text)
    DMA0_Channel3_IRQHandler                 0x0800015f   Thumb Code     0  startup_gd32f30x_hd.o(.text)
    DMA0_Channel4_IRQHandler                 0x0800015f   Thumb Code     0  startup_gd32f30x_hd.o(.text)
    DMA0_Channel5_IRQHandler                 0x0800015f   Thumb Code     0  startup_gd32f30x_hd.o(.text)
    DMA0_Channel6_IRQHandler                 0x0800015f   Thumb Code     0  startup_gd32f30x_hd.o(.text)
    DMA1_Channel0_IRQHandler                 0x0800015f   Thumb Code     0  startup_gd32f30x_hd.o(.text)
    DMA1_Channel1_IRQHandler                 0x0800015f   Thumb Code     0  startup_gd32f30x_hd.o(.text)
    DMA1_Channel2_IRQHandler                 0x0800015f   Thumb Code     0  startup_gd32f30x_hd.o(.text)
    DMA1_Channel3_4_IRQHandler               0x0800015f   Thumb Code     0  startup_gd32f30x_hd.o(.text)
    EXMC_IRQHandler                          0x0800015f   Thumb Code     0  startup_gd32f30x_hd.o(.text)
    EXTI0_IRQHandler                         0x0800015f   Thumb Code     0  startup_gd32f30x_hd.o(.text)
    EXTI10_15_IRQHandler                     0x0800015f   Thumb Code     0  startup_gd32f30x_hd.o(.text)
    EXTI1_IRQHandler                         0x0800015f   Thumb Code     0  startup_gd32f30x_hd.o(.text)
    EXTI2_IRQHandler                         0x0800015f   Thumb Code     0  startup_gd32f30x_hd.o(.text)
    EXTI3_IRQHandler                         0x0800015f   Thumb Code     0  startup_gd32f30x_hd.o(.text)
    EXTI4_IRQHandler                         0x0800015f   Thumb Code     0  startup_gd32f30x_hd.o(.text)
    EXTI5_9_IRQHandler                       0x0800015f   Thumb Code     0  startup_gd32f30x_hd.o(.text)
    FMC_IRQHandler                           0x0800015f   Thumb Code     0  startup_gd32f30x_hd.o(.text)
    I2C0_ER_IRQHandler                       0x0800015f   Thumb Code     0  startup_gd32f30x_hd.o(.text)
    I2C0_EV_IRQHandler                       0x0800015f   Thumb Code     0  startup_gd32f30x_hd.o(.text)
    I2C1_ER_IRQHandler                       0x0800015f   Thumb Code     0  startup_gd32f30x_hd.o(.text)
    I2C1_EV_IRQHandler                       0x0800015f   Thumb Code     0  startup_gd32f30x_hd.o(.text)
    LVD_IRQHandler                           0x0800015f   Thumb Code     0  startup_gd32f30x_hd.o(.text)
    RCU_CTC_IRQHandler                       0x0800015f   Thumb Code     0  startup_gd32f30x_hd.o(.text)
    RTC_Alarm_IRQHandler                     0x0800015f   Thumb Code     0  startup_gd32f30x_hd.o(.text)
    RTC_IRQHandler                           0x0800015f   Thumb Code     0  startup_gd32f30x_hd.o(.text)
    SDIO_IRQHandler                          0x0800015f   Thumb Code     0  startup_gd32f30x_hd.o(.text)
    SPI0_IRQHandler                          0x0800015f   Thumb Code     0  startup_gd32f30x_hd.o(.text)
    SPI1_IRQHandler                          0x0800015f   Thumb Code     0  startup_gd32f30x_hd.o(.text)
    SPI2_IRQHandler                          0x0800015f   Thumb Code     0  startup_gd32f30x_hd.o(.text)
    TAMPER_IRQHandler                        0x0800015f   Thumb Code     0  startup_gd32f30x_hd.o(.text)
    TIMER0_BRK_IRQHandler                    0x0800015f   Thumb Code     0  startup_gd32f30x_hd.o(.text)
    TIMER0_Channel_IRQHandler                0x0800015f   Thumb Code     0  startup_gd32f30x_hd.o(.text)
    TIMER0_TRG_CMT_IRQHandler                0x0800015f   Thumb Code     0  startup_gd32f30x_hd.o(.text)
    TIMER0_UP_IRQHandler                     0x0800015f   Thumb Code     0  startup_gd32f30x_hd.o(.text)
    TIMER1_IRQHandler                        0x0800015f   Thumb Code     0  startup_gd32f30x_hd.o(.text)
    TIMER2_IRQHandler                        0x0800015f   Thumb Code     0  startup_gd32f30x_hd.o(.text)
    TIMER3_IRQHandler                        0x0800015f   Thumb Code     0  startup_gd32f30x_hd.o(.text)
    TIMER4_IRQHandler                        0x0800015f   Thumb Code     0  startup_gd32f30x_hd.o(.text)
    TIMER5_IRQHandler                        0x0800015f   Thumb Code     0  startup_gd32f30x_hd.o(.text)
    TIMER6_IRQHandler                        0x0800015f   Thumb Code     0  startup_gd32f30x_hd.o(.text)
    TIMER7_BRK_IRQHandler                    0x0800015f   Thumb Code     0  startup_gd32f30x_hd.o(.text)
    TIMER7_Channel_IRQHandler                0x0800015f   Thumb Code     0  startup_gd32f30x_hd.o(.text)
    TIMER7_TRG_CMT_IRQHandler                0x0800015f   Thumb Code     0  startup_gd32f30x_hd.o(.text)
    TIMER7_UP_IRQHandler                     0x0800015f   Thumb Code     0  startup_gd32f30x_hd.o(.text)
    UART3_IRQHandler                         0x0800015f   Thumb Code     0  startup_gd32f30x_hd.o(.text)
    UART4_IRQHandler                         0x0800015f   Thumb Code     0  startup_gd32f30x_hd.o(.text)
    USART1_IRQHandler                        0x0800015f   Thumb Code     0  startup_gd32f30x_hd.o(.text)
    USART2_IRQHandler                        0x0800015f   Thumb Code     0  startup_gd32f30x_hd.o(.text)
    USBD_HP_CAN0_TX_IRQHandler               0x0800015f   Thumb Code     0  startup_gd32f30x_hd.o(.text)
    USBD_LP_CAN0_RX0_IRQHandler              0x0800015f   Thumb Code     0  startup_gd32f30x_hd.o(.text)
    USBD_WKUP_IRQHandler                     0x0800015f   Thumb Code     0  startup_gd32f30x_hd.o(.text)
    WWDGT_IRQHandler                         0x0800015f   Thumb Code     0  startup_gd32f30x_hd.o(.text)
    __aeabi_uldivmod                         0x08000169   Thumb Code    98  uldiv.o(.text)
    __scatterload                            0x080001cd   Thumb Code    38  init.o(.text)
    __scatterload_rt2                        0x080001cd   Thumb Code     0  init.o(.text)
    __aeabi_llsl                             0x080001fd   Thumb Code    30  llshl.o(.text)
    _ll_shift_l                              0x080001fd   Thumb Code     0  llshl.o(.text)
    __aeabi_llsr                             0x0800021b   Thumb Code    32  llushr.o(.text)
    _ll_ushift_r                             0x0800021b   Thumb Code     0  llushr.o(.text)
    LedDrvInit                               0x0800023d   Thumb Code    58  led_drv.o(.text.LedDrvInit)
    SysTick_Handler                          0x08000279   Thumb Code    24  systick.o(.text.SysTick_Handler)
    SystemInit                               0x08000291   Thumb Code   424  system_gd32f30x.o(.text.SystemInit)
    TurnOffLed                               0x08000439   Thumb Code    30  led_drv.o(.text.TurnOffLed)
    TurnOnLed                                0x08000459   Thumb Code    30  led_drv.o(.text.TurnOnLed)
    USART0_IRQHandler                        0x08000479   Thumb Code   108  usb2com_drv.o(.text.USART0_IRQHandler)
    Usb2ComDrvInit                           0x080004e5   Thumb Code   284  usb2com_drv.o(.text.Usb2ComDrvInit)
    Usb2ComTask                              0x08000601   Thumb Code   120  usb2com_drv.o(.text.Usb2ComTask)
    dma_channel_disable                      0x08000681   Thumb Code    36  gd32f30x_dma.o(.text.dma_channel_disable)
    dma_channel_enable                       0x080006a5   Thumb Code    36  gd32f30x_dma.o(.text.dma_channel_enable)
    dma_deinit                               0x080006c9   Thumb Code    60  gd32f30x_dma.o(.text.dma_deinit)
    dma_memory_address_config                0x08000705   Thumb Code    30  gd32f30x_dma.o(.text.dma_memory_address_config)
    dma_memory_increase_enable               0x08000725   Thumb Code    36  gd32f30x_dma.o(.text.dma_memory_increase_enable)
    dma_memory_width_config                  0x08000749   Thumb Code    38  gd32f30x_dma.o(.text.dma_memory_width_config)
    dma_periph_address_config                0x08000771   Thumb Code    30  gd32f30x_dma.o(.text.dma_periph_address_config)
    dma_periph_increase_disable              0x08000791   Thumb Code    36  gd32f30x_dma.o(.text.dma_periph_increase_disable)
    dma_periph_width_config                  0x080007b5   Thumb Code    38  gd32f30x_dma.o(.text.dma_periph_width_config)
    dma_priority_config                      0x080007dd   Thumb Code    38  gd32f30x_dma.o(.text.dma_priority_config)
    dma_transfer_direction_config            0x08000805   Thumb Code    42  gd32f30x_dma.o(.text.dma_transfer_direction_config)
    dma_transfer_number_config               0x08000831   Thumb Code    32  gd32f30x_dma.o(.text.dma_transfer_number_config)
    dma_transfer_number_get                  0x08000851   Thumb Code    30  gd32f30x_dma.o(.text.dma_transfer_number_get)
    fputc                                    0x08000871   Thumb Code    36  usb2com_drv.o(.text.fputc)
    gpio_bit_reset                           0x08000895   Thumb Code     4  gd32f30x_gpio.o(.text.gpio_bit_reset)
    gpio_bit_set                             0x08000899   Thumb Code     4  gd32f30x_gpio.o(.text.gpio_bit_set)
    gpio_init                                0x0800089d   Thumb Code   182  gd32f30x_gpio.o(.text.gpio_init)
    main                                     0x08000955   Thumb Code    14  main.o(.text.main)
    nvic_irq_enable                          0x08000965   Thumb Code   164  gd32f30x_misc.o(.text.nvic_irq_enable)
    rcu_clock_freq_get                       0x08000a09   Thumb Code   192  gd32f30x_rcu.o(.text.rcu_clock_freq_get)
    rcu_periph_clock_enable                  0x08000ad9   Thumb Code    30  gd32f30x_rcu.o(.text.rcu_periph_clock_enable)
    rcu_periph_reset_disable                 0x08000af9   Thumb Code    32  gd32f30x_rcu.o(.text.rcu_periph_reset_disable)
    rcu_periph_reset_enable                  0x08000b19   Thumb Code    30  gd32f30x_rcu.o(.text.rcu_periph_reset_enable)
    usart_baudrate_set                       0x08000b39   Thumb Code   106  gd32f30x_usart.o(.text.usart_baudrate_set)
    usart_data_receive                       0x08000ba5   Thumb Code     8  gd32f30x_usart.o(.text.usart_data_receive)
    usart_data_transmit                      0x08000bad   Thumb Code     8  gd32f30x_usart.o(.text.usart_data_transmit)
    usart_deinit                             0x08000bb5   Thumb Code   122  gd32f30x_usart.o(.text.usart_deinit)
    usart_dma_receive_config                 0x08000c31   Thumb Code    20  gd32f30x_usart.o(.text.usart_dma_receive_config)
    usart_enable                             0x08000c45   Thumb Code    10  gd32f30x_usart.o(.text.usart_enable)
    usart_flag_get                           0x08000c51   Thumb Code    16  gd32f30x_usart.o(.text.usart_flag_get)
    usart_interrupt_enable                   0x08000c61   Thumb Code    22  gd32f30x_usart.o(.text.usart_interrupt_enable)
    usart_interrupt_flag_clear               0x08000c79   Thumb Code    18  gd32f30x_usart.o(.text.usart_interrupt_flag_clear)
    usart_interrupt_flag_get                 0x08000c8d   Thumb Code    34  gd32f30x_usart.o(.text.usart_interrupt_flag_get)
    usart_parity_config                      0x08000cb1   Thumb Code    16  gd32f30x_usart.o(.text.usart_parity_config)
    usart_receive_config                     0x08000cc1   Thumb Code    20  gd32f30x_usart.o(.text.usart_receive_config)
    usart_stop_bit_set                       0x08000cd5   Thumb Code    16  gd32f30x_usart.o(.text.usart_stop_bit_set)
    usart_transmit_config                    0x08000ce5   Thumb Code    20  gd32f30x_usart.o(.text.usart_transmit_config)
    usart_word_length_set                    0x08000cf9   Thumb Code    16  gd32f30x_usart.o(.text.usart_word_length_set)
    __0printf$8                              0x08000d09   Thumb Code    22  printf8.o(i.__0printf$8)
    __1printf$8                              0x08000d09   Thumb Code     0  printf8.o(i.__0printf$8)
    __2printf                                0x08000d09   Thumb Code     0  printf8.o(i.__0printf$8)
    __scatterload_copy                       0x08000d29   Thumb Code    14  handlers.o(i.__scatterload_copy)
    __scatterload_null                       0x08000d37   Thumb Code     2  handlers.o(i.__scatterload_null)
    __scatterload_zeroinit                   0x08000d39   Thumb Code    14  handlers.o(i.__scatterload_zeroinit)
    putchar                                  0x080011ad   Thumb Code     6  putchar.o(i.putchar)
    Region$$Table$$Base                      0x080011e4   Number         0  anon$$obj.o(Region$$Table)
    Region$$Table$$Limit                     0x08001204   Number         0  anon$$obj.o(Region$$Table)
    __stdout                                 0x20000000   Data           4  stdout.o(.data)
    g_Usb2ComInfo                            0x20000004   Data          36  usb2com_drv.o(.data.g_Usb2ComInfo)
    __initial_sp                             0x20000450   Data           0  startup_gd32f30x_hd.o(STACK)



==============================================================================

Memory Map of the image

  Image Entry point : 0x08000131

  Load Region LR_IROM1 (Base: 0x08000000, Size: 0x00001230, Max: 0x00080000, ABSOLUTE)

    Execution Region ER_IROM1 (Exec base: 0x08000000, Load base: 0x08000000, Size: 0x00001204, Max: 0x00080000, ABSOLUTE)

    Exec Addr    Load Addr    Size         Type   Attr      Idx    E Section Name        Object

    0x08000000   0x08000000   0x00000130   Data   RO          415    RESET               startup_gd32f30x_hd.o
    0x08000130   0x08000130   0x00000000   Code   RO          435  * .ARM.Collect$$$$00000000  mc_w.l(entry.o)
    0x08000130   0x08000130   0x00000004   Code   RO          701    .ARM.Collect$$$$00000001  mc_w.l(entry2.o)
    0x08000134   0x08000134   0x00000004   Code   RO          704    .ARM.Collect$$$$00000004  mc_w.l(entry5.o)
    0x08000138   0x08000138   0x00000000   Code   RO          706    .ARM.Collect$$$$00000008  mc_w.l(entry7b.o)
    0x08000138   0x08000138   0x00000000   Code   RO          708    .ARM.Collect$$$$0000000A  mc_w.l(entry8b.o)
    0x08000138   0x08000138   0x00000008   Code   RO          709    .ARM.Collect$$$$0000000B  mc_w.l(entry9a.o)
    0x08000140   0x08000140   0x00000000   Code   RO          711    .ARM.Collect$$$$0000000D  mc_w.l(entry10a.o)
    0x08000140   0x08000140   0x00000000   Code   RO          713    .ARM.Collect$$$$0000000F  mc_w.l(entry11a.o)
    0x08000140   0x08000140   0x00000004   Code   RO          702    .ARM.Collect$$$$00002712  mc_w.l(entry2.o)
    0x08000144   0x08000144   0x00000024   Code   RO          416    .text               startup_gd32f30x_hd.o
    0x08000168   0x08000168   0x00000062   Code   RO          727    .text               mc_w.l(uldiv.o)
    0x080001ca   0x080001ca   0x00000002   PAD
    0x080001cc   0x080001cc   0x00000030   Code   RO          740    .text               mc_w.l(init.o)
    0x080001fc   0x080001fc   0x0000001e   Code   RO          742    .text               mc_w.l(llshl.o)
    0x0800021a   0x0800021a   0x00000020   Code   RO          744    .text               mc_w.l(llushr.o)
    0x0800023a   0x0800023a   0x00000002   PAD
    0x0800023c   0x0800023c   0x0000003a   Code   RO           39    .text.LedDrvInit    led_drv.o
    0x08000276   0x08000276   0x00000002   PAD
    0x08000278   0x08000278   0x00000018   Code   RO           58    .text.SysTick_Handler  systick.o
    0x08000290   0x08000290   0x000001a8   Code   RO          423    .text.SystemInit    system_gd32f30x.o
    0x08000438   0x08000438   0x0000001e   Code   RO           43    .text.TurnOffLed    led_drv.o
    0x08000456   0x08000456   0x00000002   PAD
    0x08000458   0x08000458   0x0000001e   Code   RO           41    .text.TurnOnLed     led_drv.o
    0x08000476   0x08000476   0x00000002   PAD
    0x08000478   0x08000478   0x0000006c   Code   RO           74    .text.USART0_IRQHandler  usb2com_drv.o
    0x080004e4   0x080004e4   0x0000011c   Code   RO           70    .text.Usb2ComDrvInit  usb2com_drv.o
    0x08000600   0x08000600   0x00000080   Code   RO           76    .text.Usb2ComTask   usb2com_drv.o
    0x08000680   0x08000680   0x00000024   Code   RO          368    .text.dma_channel_disable  gd32f30x_dma.o
    0x080006a4   0x080006a4   0x00000024   Code   RO          366    .text.dma_channel_enable  gd32f30x_dma.o
    0x080006c8   0x080006c8   0x0000003c   Code   RO          352    .text.dma_deinit    gd32f30x_dma.o
    0x08000704   0x08000704   0x0000001e   Code   RO          372    .text.dma_memory_address_config  gd32f30x_dma.o
    0x08000722   0x08000722   0x00000002   PAD
    0x08000724   0x08000724   0x00000024   Code   RO          384    .text.dma_memory_increase_enable  gd32f30x_dma.o
    0x08000748   0x08000748   0x00000026   Code   RO          380    .text.dma_memory_width_config  gd32f30x_dma.o
    0x0800076e   0x0800076e   0x00000002   PAD
    0x08000770   0x08000770   0x0000001e   Code   RO          370    .text.dma_periph_address_config  gd32f30x_dma.o
    0x0800078e   0x0800078e   0x00000002   PAD
    0x08000790   0x08000790   0x00000024   Code   RO          390    .text.dma_periph_increase_disable  gd32f30x_dma.o
    0x080007b4   0x080007b4   0x00000026   Code   RO          382    .text.dma_periph_width_config  gd32f30x_dma.o
    0x080007da   0x080007da   0x00000002   PAD
    0x080007dc   0x080007dc   0x00000026   Code   RO          378    .text.dma_priority_config  gd32f30x_dma.o
    0x08000802   0x08000802   0x00000002   PAD
    0x08000804   0x08000804   0x0000002a   Code   RO          392    .text.dma_transfer_direction_config  gd32f30x_dma.o
    0x0800082e   0x0800082e   0x00000002   PAD
    0x08000830   0x08000830   0x00000020   Code   RO          374    .text.dma_transfer_number_config  gd32f30x_dma.o
    0x08000850   0x08000850   0x0000001e   Code   RO          376    .text.dma_transfer_number_get  gd32f30x_dma.o
    0x0800086e   0x0800086e   0x00000002   PAD
    0x08000870   0x08000870   0x00000024   Code   RO           72    .text.fputc         usb2com_drv.o
    0x08000894   0x08000894   0x00000004   Code   RO           97    .text.gpio_bit_reset  gd32f30x_gpio.o
    0x08000898   0x08000898   0x00000004   Code   RO           95    .text.gpio_bit_set  gd32f30x_gpio.o
    0x0800089c   0x0800089c   0x000000b6   Code   RO           93    .text.gpio_init     gd32f30x_gpio.o
    0x08000952   0x08000952   0x00000002   PAD
    0x08000954   0x08000954   0x0000000e   Code   RO            2    .text.main          main.o
    0x08000962   0x08000962   0x00000002   PAD
    0x08000964   0x08000964   0x000000a4   Code   RO          332    .text.nvic_irq_enable  gd32f30x_misc.o
    0x08000a08   0x08000a08   0x000000d0   Code   RO          201    .text.rcu_clock_freq_get  gd32f30x_rcu.o
    0x08000ad8   0x08000ad8   0x0000001e   Code   RO          139    .text.rcu_periph_clock_enable  gd32f30x_rcu.o
    0x08000af6   0x08000af6   0x00000002   PAD
    0x08000af8   0x08000af8   0x00000020   Code   RO          149    .text.rcu_periph_reset_disable  gd32f30x_rcu.o
    0x08000b18   0x08000b18   0x0000001e   Code   RO          147    .text.rcu_periph_reset_enable  gd32f30x_rcu.o
    0x08000b36   0x08000b36   0x00000002   PAD
    0x08000b38   0x08000b38   0x0000006a   Code   RO          224    .text.usart_baudrate_set  gd32f30x_usart.o
    0x08000ba2   0x08000ba2   0x00000002   PAD
    0x08000ba4   0x08000ba4   0x00000008   Code   RO          252    .text.usart_data_receive  gd32f30x_usart.o
    0x08000bac   0x08000bac   0x00000008   Code   RO          250    .text.usart_data_transmit  gd32f30x_usart.o
    0x08000bb4   0x08000bb4   0x0000007a   Code   RO          222    .text.usart_deinit  gd32f30x_usart.o
    0x08000c2e   0x08000c2e   0x00000002   PAD
    0x08000c30   0x08000c30   0x00000014   Code   RO          306    .text.usart_dma_receive_config  gd32f30x_usart.o
    0x08000c44   0x08000c44   0x0000000a   Code   RO          232    .text.usart_enable  gd32f30x_usart.o
    0x08000c4e   0x08000c4e   0x00000002   PAD
    0x08000c50   0x08000c50   0x00000010   Code   RO          310    .text.usart_flag_get  gd32f30x_usart.o
    0x08000c60   0x08000c60   0x00000016   Code   RO          314    .text.usart_interrupt_enable  gd32f30x_usart.o
    0x08000c76   0x08000c76   0x00000002   PAD
    0x08000c78   0x08000c78   0x00000012   Code   RO          320    .text.usart_interrupt_flag_clear  gd32f30x_usart.o
    0x08000c8a   0x08000c8a   0x00000002   PAD
    0x08000c8c   0x08000c8c   0x00000022   Code   RO          318    .text.usart_interrupt_flag_get  gd32f30x_usart.o
    0x08000cae   0x08000cae   0x00000002   PAD
    0x08000cb0   0x08000cb0   0x00000010   Code   RO          226    .text.usart_parity_config  gd32f30x_usart.o
    0x08000cc0   0x08000cc0   0x00000014   Code   RO          238    .text.usart_receive_config  gd32f30x_usart.o
    0x08000cd4   0x08000cd4   0x00000010   Code   RO          230    .text.usart_stop_bit_set  gd32f30x_usart.o
    0x08000ce4   0x08000ce4   0x00000014   Code   RO          236    .text.usart_transmit_config  gd32f30x_usart.o
    0x08000cf8   0x08000cf8   0x00000010   Code   RO          228    .text.usart_word_length_set  gd32f30x_usart.o
    0x08000d08   0x08000d08   0x00000020   Code   RO          647    i.__0printf$8       mc_w.l(printf8.o)
    0x08000d28   0x08000d28   0x0000000e   Code   RO          752    i.__scatterload_copy  mc_w.l(handlers.o)
    0x08000d36   0x08000d36   0x00000002   Code   RO          753    i.__scatterload_null  mc_w.l(handlers.o)
    0x08000d38   0x08000d38   0x0000000e   Code   RO          754    i.__scatterload_zeroinit  mc_w.l(handlers.o)
    0x08000d46   0x08000d46   0x00000002   PAD
    0x08000d48   0x08000d48   0x00000410   Code   RO          654    i._printf_core      mc_w.l(printf8.o)
    0x08001158   0x08001158   0x00000024   Code   RO          655    i._printf_post_padding  mc_w.l(printf8.o)
    0x0800117c   0x0800117c   0x0000002e   Code   RO          656    i._printf_pre_padding  mc_w.l(printf8.o)
    0x080011aa   0x080011aa   0x00000002   PAD
    0x080011ac   0x080011ac   0x0000000c   Code   RO          438    i.putchar           mc_w.l(putchar.o)
    0x080011b8   0x080011b8   0x00000008   Data   RO          213    .rodata.cst8        gd32f30x_rcu.o
    0x080011c0   0x080011c0   0x00000024   Data   RO           47    .rodata.g_ledList   led_drv.o
    0x080011e4   0x080011e4   0x00000020   Data   RO          751    Region$$Table       anon$$obj.o


    Execution Region RW_IRAM1 (Exec base: 0x20000000, Load base: 0x08001208, Size: 0x00000450, Max: 0x00010000, ABSOLUTE)

    Exec Addr    Load Addr    Size         Type   Attr      Idx    E Section Name        Object

    0x20000000   0x08001208   0x00000004   Data   RW          715    .data               mc_w.l(stdout.o)
    0x20000004   0x0800120c   0x00000024   Data   RW           78    .data.g_Usb2ComInfo  usb2com_drv.o
    0x20000028        -       0x00000001   Zero   RW           79    .bss.g_rcvFlag      usb2com_drv.o
    0x20000029   0x08001230   0x00000007   PAD
    0x20000030        -       0x00000008   Zero   RW           62    .bss.g_systemRunTime  systick.o
    0x20000038        -       0x00000014   Zero   RW           80    .bss.g_uartBuf      usb2com_drv.o
    0x2000004c   0x08001230   0x00000004   PAD
    0x20000050        -       0x00000400   Zero   RW          413    STACK               startup_gd32f30x_hd.o


==============================================================================

Image component sizes


      Code (inc. data)   RO Data    RW Data    ZI Data      Debug   Object Name

       482          0          0          0          0       7841   gd32f30x_dma.o
       190          0          0          0          0       5790   gd32f30x_gpio.o
       164          0          0          0          0       3554   gd32f30x_misc.o
       300         20          8          0          0      13876   gd32f30x_rcu.o
       452          0          0          0          0      11453   gd32f30x_usart.o
       118          0         36          0          0       2558   led_drv.o
        14          0          0          0          0        389   main.o
        36          8        304          0       1024        872   startup_gd32f30x_hd.o
       424          0          0          0          0       2516   system_gd32f30x.o
        24          0          0          0          8       3937   systick.o
       556          8          0         36         21       5107   usb2com_drv.o

    ----------------------------------------------------------------------
      2800         36        380         36       1064      57893   Object Totals
         0          0         32          0          0          0   (incl. Generated)
        40          0          0          0         11          0   (incl. Padding)

    ----------------------------------------------------------------------

      Code (inc. data)   RO Data    RW Data    ZI Data      Debug   Library Member Name

         0          0          0          0          0          0   entry.o
         0          0          0          0          0          0   entry10a.o
         0          0          0          0          0          0   entry11a.o
         8          4          0          0          0          0   entry2.o
         4          0          0          0          0          0   entry5.o
         0          0          0          0          0          0   entry7b.o
         0          0          0          0          0          0   entry8b.o
         8          4          0          0          0          0   entry9a.o
        30          0          0          0          0          0   handlers.o
        48         10          0          0          0         68   init.o
        30          0          0          0          0         68   llshl.o
        32          0          0          0          0         68   llushr.o
      1154         54          0          0          0        352   printf8.o
        12          6          0          0          0         68   putchar.o
         0          0          0          4          0          0   stdout.o
        98          0          0          0          0         92   uldiv.o

    ----------------------------------------------------------------------
      1432         78          0          4          0        716   Library Totals
         8          0          0          0          0          0   (incl. Padding)

    ----------------------------------------------------------------------

      Code (inc. data)   RO Data    RW Data    ZI Data      Debug   Library Name

      1424         78          0          4          0        716   mc_w.l

    ----------------------------------------------------------------------
      1432         78          0          4          0        716   Library Totals

    ----------------------------------------------------------------------

==============================================================================


      Code (inc. data)   RO Data    RW Data    ZI Data      Debug   

      4232        114        380         40       1064      58321   Grand Totals
      4232        114        380         40       1064      58321   ELF Image Totals
      4232        114        380         40          0          0   ROM Totals

==============================================================================

    Total RO  Size (Code + RO Data)                 4612 (   4.50kB)
    Total RW  Size (RW Data + ZI Data)              1104 (   1.08kB)
    Total ROM Size (Code + RO Data + RW Data)       4652 (   4.54kB)

==============================================================================

