:020000040800F2
:10000000680400204901000851010008530100085C
:1000100055010008570100085901000800000000C0
:100020000000000000000000000000005B0100086C
:100030005D010008000000005F010008D102000817
:100040006301000863010008630100086301000800
:1000500063010008630100086301000863010008F0
:1000600063010008630100086301000863010008E0
:1000700063010008630100086301000863010008D0
:1000800063010008630100086301000863010008C0
:1000900063010008630100086301000863010008B0
:1000A00063010008630100086301000863010008A0
:1000B0006301000863010008630100086301000890
:1000C0006301000863010008630100086301000880
:1000D00063010008A503000863010008630100082C
:1000E0006301000863010008630100086301000860
:1000F0006301000863010008630100086301000850
:10010000630100086301000863010008630100083F
:10011000630100086301000863010008630100082F
:10012000630100086301000863010008630100081F
:10013000DFF810D000F01AF80048004793050008D7
:10014000AFF3008068040020064880470648004757
:10015000FEE7FEE7FEE7FEE7FEE7FEE7FEE7FEE777
:10016000FEE7FEE7E902000831010008064C074DF2
:1001700006E0E06840F0010394E807009847103477
:10018000AC42F6D3FFF7D8FF300A0008500A000847
:1001900000F024B910B503460020002203E09C5C67
:1001A0006040521CD2B28A42F9D310BD4178007827
:1001B000002901D000F0E8B800F0D8B870B50546C5
:1001C00000244FF47A7603E0304600F005F8641C12
:1001D000AC42F9D370BD000070B50646064C6568A8
:1001E000012000F03BFA0549B0FBF1F17143606872
:1001F000401B8842FBD370BD001000E040420F005E
:1002000010B500F021F800F0EFF8BDE8104000F064
:1002100001B800000A48016821F08071016001689E
:1002200041F0807101600748016821F0010101601F
:10023000016841F001010160002141607047000048
:10024000FCED00E0001000E070B500240B4E04EB64
:10025000440536F8250000F07FFA06EB85050222FA
:10026000D5E90103102100F042F9D5E9010100F0C0
:100270003AF9641CE4B2032CE9D370BD04000020F9
:1002800010B50E4B0E4C5A78511CC9B25970A0547F
:100290000020012907D002290AD0072902D1012113
:1002A0001970587010BD21785529FBD0587010BDB9
:1002B0006178AA29FBD0587010BD00000000002012
:1002C0005000002001490860704700003000002005
:1002D000044801684268491C42F100020160426022
:1002E000704700002800002082B01D48016841F4DA
:1002F000700101601B48016841F001010160016863
:100300008907FCD5416841F08001416000220192DB
:1003100002E00199491C019101995029F9D34168E2
:1003200041F090014160019202E00199491C019164
:1003300001995029F9D3416821F003014160016816
:10034000094B194001604FF41F018160016821F4DD
:10035000802101604260C26202B000F085BA0000F4
:1003600088ED00E000100240FFFFF6FE032808D8E9
:1003700000EB4001034800EB81008168406800F019
:10038000B2B8704704000020032808D800EB4001F1
:10039000034800EB81008168406800F0A6B8704710
:1003A0000400002070B50B4C0B4D2946206800F06E
:1003B000F9FA00280CD02946206800F0EAFA2068F3
:1003C00000F08CFAC0B2211F0968BDE870400847F0
:1003D00070BD000034000020050305000148FFF750
:1003E00071BF00008102000810B500F007F8BDE8F9
:1003F00010404FF4E13000F035B8000010B5094C62
:10040000A08900F0A9F9012218212369A06800F051
:100410006EF86369A0680122BDE81040482100F031
:1004200066B800003400002010B50C48017800299F
:1004300012D00021017006210948FFF7ABFE0146EA
:1004400007488279914207D1C178062904D1BDE8D5
:100450001040001DFFF7AABE10BD000000000020E4
:100460005000002070B50546164CA08800F074F9C5
:10047000206800F037FA0021206800F0D0FA00214F
:10048000206800F0A8FA0021206800F0B6FA29469A
:10049000206800F0EBF90821206800F0B6FA04218A
:1004A000206800F0A0FA40F20531206800F067FAF9
:1004B0000022207E114600F079F82068BDE87040E7
:1004C00000F058BA3400002002E008C8121F08C12A
:1004D000002AFAD170477047002001E001C1121FC5
:1004E000002AFBD1704741617047016170472DE9D7
:1004F000F04301F00F04CD0602D5042A18D01443AE
:1005000000224FF00F0C012707FA02F51D401AD008
:10051000D0F8009096000CFA06F829EA080904FAC7
:1005200006F848EA0908282908D0482908D008E030
:1005300044F00304C26B1A43C263E1E7456100E083
:100540000561C0F80080521C92B2082ADCD3082250
:1005500007FA02F51D4016D0D0F80490A2F1080663
:10056000B6000CFA06F829EA080904FA06F848EA7F
:100570000908282902D0482902D002E0456100E09C
:100580000561C0F80480521C92B2102AE0D3BDE885
:10059000F083FFF735FEFFF7FBFD4FF4FA74FFF72A
:1005A00043FF2046FFF70AFEF9E7000070B5054655
:1005B0000E460023002423480168C1F302210729C5
:1005C00032D00168C1F3022106292FD00168C1F39E
:1005D000022105292DD00168C1F3022104292BD065
:1005E0000068C0F30220032829D04FF4A06000F077
:1005F0002BF802230224C3F104008640C4F1040155
:100600000F20C84010403043000105F1E02181F87F
:10061000000405F01F01012088406909890001F1EB
:10062000E021C1F8000170BD0424E4E701230324A4
:10063000E1E702230224DEE703230124DBE70423AE
:10064000D9E700000CED00E00249084302490860C8
:10065000704700000000FA050CED00E070B588B0AE
:100660000346002035A104AE91E83400C96834C6C1
:10067000079133A106C9CDE9021231A106C9CDE91E
:100680000012324C6168C1F38101314A002930D037
:1006900001292ED002292CD1616801F48031B1F5F5
:1006A000803F11D052106168C1F3834165682D010C
:1006B00001D541F0100165686D0001D541F02001C0
:1006C0000F290ED2891C13E0E16A01F0804101B1CB
:1006D000204A616801F40031B1F5003FE3D15208CE
:1006E000E1E7A1F10F052F2D01D8491C00E03F21C2
:1006F0004A436168C1F3031104AD695C22FA01F158
:100700006568C5F3022502AE755D21FA05F56468DA
:10071000C4F3C2241DF8044021FA04F443B1012BB0
:1007200008D0022B08D0032B00D1204608B070BDA2
:100730001046FBE70846F9E72846F7E70000000007
:10074000000000000102030406070809001002402F
:1007500000127A00006CDC02054901EB90110A6876
:1007600000F01F030120984002430A607047000018
:1007700000100240054901EB90110A6800F01F03C8
:100780000120984082430A60704700000010024038
:10079000054901EB90110A6800F01F030120984001
:1007A00002430A60704700000010024000212A48FE
:1007B000026842F4803202604FF6FF73491C0268FF
:1007C00002F400320AB99942F8D10168890300D4D1
:1007D000FEE7C16941F08051C16120490A6842F4D5
:1007E00040420A604268426042684260426842F4A5
:1007F00080624260426822F440324260426842F4C1
:10080000403242604268164B1A4042604268154BC3
:100810001A434260026842F08072026002689201EC
:10082000FCD50A6842F480320A604A68D203FCD5DB
:100830000A6842F400320A604A689203FCD54168B3
:1008400021F003014160416841F0020141604168CB
:100850000907FCD5704700000010024000700040FE
:10086000FFFFC3B700003408FFF7A0BF70B5044610
:100870000D460020174BE21A1E159C4216D008DCCC
:10088000154962180ED0B24217D10220FFF7E6FEDA
:1008900013E0B2420ED0B2F56C4F0ED10320FFF739
:1008A000DDFE0AE00220FFF7D9FE06E00220FFF796
:1008B000D5FE02E00220FFF7D1FE00EB5500B0FBB1
:1008C000F5F04FF6F071014000F00F021143A16006
:1008D00070BD0000004C004000BCFFBF4068C0F38A
:1008E0000800704710B5214A811A1315904228D08C
:1008F0000EDC1F4940181AD0984236D140F21244FB
:100900002046FFF745FF2046BDE81040FFF732BF05
:10091000994220D0B1F56C4F27D140F20E342046D9
:10092000FFF736FF2046BDE81040FFF723BF40F237
:1009300011442046FFF72CFF2046BDE81040FFF78A
:1009400019BF40F213442046FFF722FF2046BDE8BE
:100950001040FFF70FBF40F214442046FFF718FF86
:100960002046BDE81040FFF705BF10BD004C004019
:1009700000BCFFBFC16841F40051C160704700EB8B
:100980009110026801F01F03012199400A4302609F
:100990007047C1F3044301229A4000EB9150D243C7
:1009A0000260704730B5C1F38912825801F01F040C
:1009B000012505FA04F31A4000EB91500068C1F3D9
:1009C000044105FA01F31840002802D00AB10120C1
:1009D00030BD002030BDC26822F4C062C260C2686F
:1009E0000A43C2607047C26822F00402C260C26853
:1009F00001F004010A43C2607047026922F44052C8
:100A0000026102690A4302617047C26822F008026B
:100A1000C260C26801F008010A43C2607047C26840
:100A200022F48052C260C2680A43C260704700006C
:100A3000500A00080000002050000000C804000810
:100A4000A00A00085000002018040000D804000884
:100A50000000000002060000000801400001000044
:100A600006060000001801404000000007060000D4
:100A7000001C0140400000000000000000000000D9
:100A800000000000003801400E0600000008014090
:100A90000206000000020000000400002500000023
:0400000508000131BD
:00000001FF
