Component: Arm Compiler for Embedded 6.21 Tool: armlink [5ec1fa00]

==============================================================================

Section Cross References

    hmi_app.o(.text.HmiTask) refers to ir_drv.o(.text.GetIrCode) for GetIrCode
    hmi_app.o(.text.HmiTask) refers to printf8.o(i.__0printf$8) for __2printf
    hmi_app.o(.text.HmiTask) refers to led_drv.o(.text.TurnOnLed) for TurnOnLed
    hmi_app.o(.text.HmiTask) refers to led_drv.o(.text.TurnOffLed) for TurnOffLed
    hmi_app.o(.ARM.exidx.text.HmiTask) refers to hmi_app.o(.text.HmiTask) for [Anonymous Symbol]
    main.o(.text.main) refers to systick.o(.text.SystickInit) for SystickInit
    main.o(.text.main) refers to led_drv.o(.text.LedDrvInit) for LedDrvInit
    main.o(.text.main) refers to usb2com_drv.o(.text.Usb2ComDrvInit) for Usb2ComDrvInit
    main.o(.text.main) refers to ir_drv.o(.text.IrDrvInit) for IrDrvInit
    main.o(.text.main) refers to usb2com_app.o(.text.Usb2ComAppInit) for Usb2ComAppInit
    main.o(.text.main) refers to main.o(.text.TaskSchedule) for TaskSchedule
    main.o(.text.main) refers to systick.o(.text.TaskScheduleCbReg) for TaskScheduleCbReg
    main.o(.text.main) refers to main.o(.data.g_taskComps) for g_taskComps
    main.o(.ARM.exidx.text.main) refers to main.o(.text.main) for [Anonymous Symbol]
    main.o(.text.TaskSchedule) refers to main.o(.data.g_taskComps) for g_taskComps
    main.o(.ARM.exidx.text.TaskSchedule) refers to main.o(.text.TaskSchedule) for [Anonymous Symbol]
    main.o(.data.g_taskComps) refers to hmi_app.o(.text.HmiTask) for HmiTask
    main.o(.data.g_taskComps) refers to usb2com_app.o(.text.Usb2ComTask) for Usb2ComTask
==============================================================================

Removing Unused input sections from the image.

    Removing hmi_app.o(.text), (0 bytes).
    Removing hmi_app.o(.ARM.exidx.text.HmiTask), (8 bytes).
    Removing main.o(.text), (0 bytes).
    Removing main.o(.ARM.exidx.text.main), (8 bytes).
    Removing main.o(.ARM.exidx.text.TaskSchedule), (8 bytes).
    Removing main.o(.ARM.use_no_argv), (4 bytes).
    Removing usb2com_app.o(.text), (0 bytes).
    Removing usb2com_app.o(.ARM.exidx.text.Usb2ComTask), (8 bytes).
    Removing usb2com_app.o(.ARM.exidx.text.Usb2ComAppInit), (8 bytes).
    Removing usb2com_app.o(.ARM.exidx.text.ProcUartData), (8 bytes).
    Removing delay.o(.text), (0 bytes).
    Removing delay.o(.text.DwtDelayInit), (54 bytes).
    Removing delay.o(.ARM.exidx.text.DwtDelayInit), (8 bytes).
    Removing delay.o(.text.DelayNus), (46 bytes).
    Removing delay.o(.ARM.exidx.text.DelayNus), (8 bytes).
    Removing delay.o(.text.DelayNms), (78 bytes).
    Removing delay.o(.ARM.exidx.text.DelayNms), (8 bytes).
    Removing led_drv.o(.text), (0 bytes).
==============================================================================

Image Symbol Table

    Local Symbols

    Symbol Name                              Value     Ov Type        Size  Object(Section)

    ../clib/division.s                       0x00000000   Number         0  aeabi_sdiv.o ABSOLUTE
    ../clib/microlib/division.c              0x00000000   Number         0  uidiv.o ABSOLUTE
    ../clib/microlib/division.c              0x00000000   Number         0  uldiv.o ABSOLUTE
    ../clib/microlib/init/entry.s            0x00000000   Number         0  entry.o ABSOLUTE
    ../clib/microlib/init/entry.s            0x00000000   Number         0  entry2.o ABSOLUTE
    ../clib/microlib/init/entry.s            0x00000000   Number         0  entry5.o ABSOLUTE
    ../clib/microlib/init/entry.s            0x00000000   Number         0  entry7a.o ABSOLUTE
    ../clib/microlib/init/entry.s            0x00000000   Number         0  entry7b.o ABSOLUTE
    ../clib/microlib/init/entry.s            0x00000000   Number         0  entry8a.o ABSOLUTE
    ../clib/microlib/init/entry.s            0x00000000   Number         0  entry8b.o ABSOLUTE
    ../clib/microlib/init/entry.s            0x00000000   Number         0  entry9a.o ABSOLUTE
    ../clib/microlib/init/entry.s            0x00000000   Number         0  entry9b.o ABSOLUTE
    ../clib/microlib/init/entry.s            0x00000000   Number         0  entry10a.o ABSOLUTE
    ../clib/microlib/init/entry.s            0x00000000   Number         0  entry10b.o ABSOLUTE
    ../clib/microlib/init/entry.s            0x00000000   Number         0  entry11a.o ABSOLUTE
    ../clib/microlib/init/entry.s            0x00000000   Number         0  entry11b.o ABSOLUTE
    ../clib/microlib/longlong.c              0x00000000   Number         0  llshl.o ABSOLUTE
    ../clib/microlib/longlong.c              0x00000000   Number         0  llushr.o ABSOLUTE
    ../clib/microlib/longlong.c              0x00000000   Number         0  llsshr.o ABSOLUTE
    ../clib/microlib/printf/printf.c         0x00000000   Number         0  printfb.o ABSOLUTE
    ../clib/microlib/printf/printf.c         0x00000000   Number         0  printf0.o ABSOLUTE
    ../clib/microlib/printf/printf.c         0x00000000   Number         0  printf1.o ABSOLUTE
    ../clib/microlib/printf/printf.c         0x00000000   Number         0  printf2.o ABSOLUTE
    ../clib/microlib/printf/printf.c         0x00000000   Number         0  printf3.o ABSOLUTE
    ../clib/microlib/printf/printf.c         0x00000000   Number         0  printf4.o ABSOLUTE
    ../clib/microlib/printf/printf.c         0x00000000   Number         0  printf5.o ABSOLUTE
    ../clib/microlib/printf/printf.c         0x00000000   Number         0  printf6.o ABSOLUTE
    ../clib/microlib/printf/printf.c         0x00000000   Number         0  printf7.o ABSOLUTE
    ../clib/microlib/printf/printf.c         0x00000000   Number         0  printf8.o ABSOLUTE
    ../clib/microlib/printf/printf.c         0x00000000   Number         0  printfa.o ABSOLUTE
    ../clib/microlib/printf/stubs.s          0x00000000   Number         0  printfstubs.o ABSOLUTE
    ../clib/microlib/stdio/putchar.c         0x00000000   Number         0  putchar.o ABSOLUTE
    ../clib/microlib/stdio/streams.c         0x00000000   Number         0  stdout.o ABSOLUTE
    ../clib/microlib/stubs.s                 0x00000000   Number         0  iusefp.o ABSOLUTE
    ../fplib/microlib/fpadd.c                0x00000000   Number         0  dadd.o ABSOLUTE
    ../fplib/microlib/fpdiv.c                0x00000000   Number         0  ddiv.o ABSOLUTE
    ../fplib/microlib/fpepilogue.c           0x00000000   Number         0  depilogue.o ABSOLUTE
    ../fplib/microlib/fpfix.c                0x00000000   Number         0  dfixul.o ABSOLUTE
    ../fplib/microlib/fpmul.c                0x00000000   Number         0  dmul.o ABSOLUTE
    Arm/startup_gd32f30x_hd.s                0x00000000   Number         0  startup_gd32f30x_hd.o ABSOLUTE
    cdrcmple.s                               0x00000000   Number         0  cdrcmple.o ABSOLUTE
    dc.s                                     0x00000000   Number         0  dc.o ABSOLUTE
    delay.c                                  0x00000000   Number         0  delay.o ABSOLUTE
    gd32f30x_gpio.c                          0x00000000   Number         0  gd32f30x_gpio.o ABSOLUTE
    gd32f30x_misc.c                          0x00000000   Number         0  gd32f30x_misc.o ABSOLUTE
    gd32f30x_rcu.c                           0x00000000   Number         0  gd32f30x_rcu.o ABSOLUTE
    gd32f30x_timer.c                         0x00000000   Number         0  gd32f30x_timer.o ABSOLUTE
    gd32f30x_usart.c                         0x00000000   Number         0  gd32f30x_usart.o ABSOLUTE
    handlers.s                               0x00000000   Number         0  handlers.o ABSOLUTE
    hmi_app.c                                0x00000000   Number         0  hmi_app.o ABSOLUTE
    init.s                                   0x00000000   Number         0  init.o ABSOLUTE
    ir_drv.c                                 0x00000000   Number         0  ir_drv.o ABSOLUTE
    led_drv.c                                0x00000000   Number         0  led_drv.o ABSOLUTE
    main.c                                   0x00000000   Number         0  main.o ABSOLUTE
    queue.c                                  0x00000000   Number         0  queue.o ABSOLUTE
    system_gd32f30x.c                        0x00000000   Number         0  system_gd32f30x.o ABSOLUTE
    systick.c                                0x00000000   Number         0  systick.o ABSOLUTE
    usb2com_app.c                            0x00000000   Number         0  usb2com_app.o ABSOLUTE
    usb2com_drv.c                            0x00000000   Number         0  usb2com_drv.o ABSOLUTE
    RESET                                    0x08000000   Section      304  startup_gd32f30x_hd.o(RESET)
    .ARM.Collect$$$$00000000                 0x08000130   Section        0  entry.o(.ARM.Collect$$$$00000000)
    .ARM.Collect$$$$00000001                 0x08000130   Section        4  entry2.o(.ARM.Collect$$$$00000001)
    .ARM.Collect$$$$00000004                 0x08000134   Section        4  entry5.o(.ARM.Collect$$$$00000004)
    .ARM.Collect$$$$00000008                 0x08000138   Section        0  entry7b.o(.ARM.Collect$$$$00000008)
    .ARM.Collect$$$$0000000A                 0x08000138   Section        0  entry8b.o(.ARM.Collect$$$$0000000A)
    .ARM.Collect$$$$0000000B                 0x08000138   Section        8  entry9a.o(.ARM.Collect$$$$0000000B)
    __lit__00000000                          0x08000140   Data           4  entry2.o(.ARM.Collect$$$$00002712)
    .ARM.Collect$$$$0000000D                 0x08000140   Section        0  entry10a.o(.ARM.Collect$$$$0000000D)
    .ARM.Collect$$$$0000000F                 0x08000140   Section        0  entry11a.o(.ARM.Collect$$$$0000000F)
    .ARM.Collect$$$$00002712                 0x08000140   Section        4  entry2.o(.ARM.Collect$$$$00002712)
    $v0                                      0x08000144   Number         0  startup_gd32f30x_hd.o(.text)
    .text                                    0x08000144   Section       36  startup_gd32f30x_hd.o(.text)
    .text                                    0x08000168   Section        0  uldiv.o(.text)
    .text                                    0x080001cc   Section       48  init.o(.text)
    .text                                    0x080001fc   Section        0  llshl.o(.text)
    .text                                    0x0800021a   Section        0  llushr.o(.text)
    [Anonymous Symbol]                       0x0800023c   Section        0  ir_drv.o(.text.GetIrCode)
    [Anonymous Symbol]                       0x08000260   Section        0  hmi_app.o(.text.HmiTask)
    [Anonymous Symbol]                       0x0800031c   Section        0  ir_drv.o(.text.IrDrvInit)
    [Anonymous Symbol]                       0x08000398   Section        0  led_drv.o(.text.LedDrvInit)
    ProcUartData                             0x080003d5   Thumb Code    14  usb2com_app.o(.text.ProcUartData)
    [Anonymous Symbol]                       0x080003d4   Section        0  usb2com_app.o(.text.ProcUartData)
    [Anonymous Symbol]                       0x080003e4   Section        0  queue.o(.text.QueueInit)
    [Anonymous Symbol]                       0x080003f0   Section        0  queue.o(.text.QueuePop)
    [Anonymous Symbol]                       0x08000418   Section        0  queue.o(.text.QueuePopArray)
    [Anonymous Symbol]                       0x0800045c   Section        0  queue.o(.text.QueuePush)
    [Anonymous Symbol]                       0x08000484   Section        0  usb2com_drv.o(.text.RegUsb2ComCb)
    [Anonymous Symbol]                       0x08000490   Section        0  systick.o(.text.SysTick_Handler)
    [Anonymous Symbol]                       0x080004b4   Section        0  system_gd32f30x.o(.text.SystemInit)
    [Anonymous Symbol]                       0x0800065c   Section        0  systick.o(.text.SystickInit)
    [Anonymous Symbol]                       0x080006a4   Section        0  ir_drv.o(.text.TIMER7_Channel_IRQHandler)
    TaskSchedule                             0x08000781   Thumb Code    56  main.o(.text.TaskSchedule)
    [Anonymous Symbol]                       0x08000780   Section        0  main.o(.text.TaskSchedule)
    [Anonymous Symbol]                       0x080007b8   Section        0  systick.o(.text.TaskScheduleCbReg)
    [Anonymous Symbol]                       0x080007c4   Section        0  led_drv.o(.text.TurnOffLed)
    [Anonymous Symbol]                       0x080007e4   Section        0  led_drv.o(.text.TurnOnLed)
    [Anonymous Symbol]                       0x08000804   Section        0  usb2com_drv.o(.text.USART0_IRQHandler)
    [Anonymous Symbol]                       0x08000844   Section        0  usb2com_app.o(.text.Usb2ComAppInit)
    [Anonymous Symbol]                       0x0800086c   Section        0  usb2com_drv.o(.text.Usb2ComDrvInit)
    [Anonymous Symbol]                       0x080008f0   Section        0  usb2com_app.o(.text.Usb2ComTask)
    [Anonymous Symbol]                       0x080009f0   Section        0  usb2com_drv.o(.text.fputc)
    [Anonymous Symbol]                       0x08000a14   Section        0  gd32f30x_gpio.o(.text.gpio_bit_reset)
    [Anonymous Symbol]                       0x08000a18   Section        0  gd32f30x_gpio.o(.text.gpio_bit_set)
    [Anonymous Symbol]                       0x08000a1c   Section        0  gd32f30x_gpio.o(.text.gpio_init)
    [Anonymous Symbol]                       0x08000ad4   Section        0  main.o(.text.main)
    [Anonymous Symbol]                       0x08000b24   Section        0  gd32f30x_misc.o(.text.nvic_irq_enable)
    [Anonymous Symbol]                       0x08000bc8   Section        0  gd32f30x_rcu.o(.text.rcu_clock_freq_get)
    [Anonymous Symbol]                       0x08000c98   Section        0  gd32f30x_rcu.o(.text.rcu_periph_clock_enable)
    [Anonymous Symbol]                       0x08000cb8   Section        0  gd32f30x_rcu.o(.text.rcu_periph_reset_disable)
    [Anonymous Symbol]                       0x08000cd8   Section        0  gd32f30x_rcu.o(.text.rcu_periph_reset_enable)
    [Anonymous Symbol]                       0x08000cf8   Section        0  gd32f30x_timer.o(.text.timer_channel_capture_value_register_read)
    [Anonymous Symbol]                       0x08000d08   Section        0  gd32f30x_timer.o(.text.timer_channel_input_struct_para_init)
    [Anonymous Symbol]                       0x08000d14   Section        0  gd32f30x_timer.o(.text.timer_counter_value_config)
    [Anonymous Symbol]                       0x08000d18   Section        0  gd32f30x_timer.o(.text.timer_deinit)
    [Anonymous Symbol]                       0x08000ddc   Section        0  gd32f30x_timer.o(.text.timer_enable)
    [Anonymous Symbol]                       0x08000de8   Section        0  gd32f30x_timer.o(.text.timer_init)
    [Anonymous Symbol]                       0x08000e9c   Section        0  gd32f30x_timer.o(.text.timer_input_capture_config)
    [Anonymous Symbol]                       0x08000ff4   Section        0  gd32f30x_timer.o(.text.timer_interrupt_enable)
    [Anonymous Symbol]                       0x08000ffc   Section        0  gd32f30x_timer.o(.text.timer_interrupt_flag_clear)
    [Anonymous Symbol]                       0x08001004   Section        0  gd32f30x_timer.o(.text.timer_interrupt_flag_get)
    [Anonymous Symbol]                       0x0800101c   Section        0  gd32f30x_timer.o(.text.timer_struct_para_init)
    [Anonymous Symbol]                       0x0800102c   Section        0  gd32f30x_usart.o(.text.usart_baudrate_set)
    [Anonymous Symbol]                       0x08001098   Section        0  gd32f30x_usart.o(.text.usart_data_receive)
    [Anonymous Symbol]                       0x080010a0   Section        0  gd32f30x_usart.o(.text.usart_data_transmit)
    [Anonymous Symbol]                       0x080010a8   Section        0  gd32f30x_usart.o(.text.usart_deinit)
    [Anonymous Symbol]                       0x08001124   Section        0  gd32f30x_usart.o(.text.usart_enable)
    [Anonymous Symbol]                       0x08001130   Section        0  gd32f30x_usart.o(.text.usart_flag_get)
    [Anonymous Symbol]                       0x08001140   Section        0  gd32f30x_usart.o(.text.usart_interrupt_enable)
    [Anonymous Symbol]                       0x08001158   Section        0  gd32f30x_usart.o(.text.usart_interrupt_flag_clear)
    [Anonymous Symbol]                       0x0800116c   Section        0  gd32f30x_usart.o(.text.usart_interrupt_flag_get)
    [Anonymous Symbol]                       0x08001190   Section        0  gd32f30x_usart.o(.text.usart_parity_config)
    [Anonymous Symbol]                       0x080011a0   Section        0  gd32f30x_usart.o(.text.usart_receive_config)
    [Anonymous Symbol]                       0x080011b4   Section        0  gd32f30x_usart.o(.text.usart_stop_bit_set)
    [Anonymous Symbol]                       0x080011c4   Section        0  gd32f30x_usart.o(.text.usart_transmit_config)
    [Anonymous Symbol]                       0x080011d8   Section        0  gd32f30x_usart.o(.text.usart_word_length_set)
    i.__0printf$8                            0x080011e8   Section        0  printf8.o(i.__0printf$8)
    i.__scatterload_copy                     0x08001208   Section       14  handlers.o(i.__scatterload_copy)
    i.__scatterload_null                     0x08001216   Section        2  handlers.o(i.__scatterload_null)
    i.__scatterload_zeroinit                 0x08001218   Section       14  handlers.o(i.__scatterload_zeroinit)
    _printf_core                             0x08001229   Thumb Code   996  printf8.o(i._printf_core)
    i._printf_core                           0x08001228   Section        0  printf8.o(i._printf_core)
    _printf_post_padding                     0x08001639   Thumb Code    36  printf8.o(i._printf_post_padding)
    i._printf_post_padding                   0x08001638   Section        0  printf8.o(i._printf_post_padding)
    _printf_pre_padding                      0x0800165d   Thumb Code    46  printf8.o(i._printf_pre_padding)
    i._printf_pre_padding                    0x0800165c   Section        0  printf8.o(i._printf_pre_padding)
    i.putchar                                0x0800168c   Section        0  putchar.o(i.putchar)
    .L__const.rcu_clock_freq_get.apb2_exp    0x08001698   Data           8  gd32f30x_rcu.o(.rodata.cst8)
    g_ledList                                0x080016a0   Data          36  led_drv.o(.rodata.g_ledList)
    [Anonymous Symbol]                       0x080016a0   Section        0  led_drv.o(.rodata.g_ledList)
    .data                                    0x20000000   Section        4  stdout.o(.data)
    g_taskComps                              0x20000020   Data          24  main.o(.data.g_taskComps)
    [Anonymous Symbol]                       0x20000020   Section        0  main.o(.data.g_taskComps)
    ParseIrFrame.s_headFlag                  0x20000038   Data           1  ir_drv.o(.bss.ParseIrFrame.s_headFlag)
    [Anonymous Symbol]                       0x20000038   Section        0  ir_drv.o(.bss.ParseIrFrame.s_headFlag)
    ParseIrFrame.s_index                     0x20000039   Data           1  ir_drv.o(.bss.ParseIrFrame.s_index)
    [Anonymous Symbol]                       0x20000039   Section        0  ir_drv.o(.bss.ParseIrFrame.s_index)
    g_irCode                                 0x2000003a   Data           4  ir_drv.o(.bss.g_irCode)
    [Anonymous Symbol]                       0x2000003a   Section        0  ir_drv.o(.bss.g_irCode)
    g_irCodeFlag                             0x2000003e   Data           1  ir_drv.o(.bss.g_irCodeFlag)
    [Anonymous Symbol]                       0x2000003e   Section        0  ir_drv.o(.bss.g_irCodeFlag)
    g_pTaskScheduleFunc                      0x20000040   Data           4  systick.o(.bss.g_pTaskScheduleFunc)
    [Anonymous Symbol]                       0x20000040   Section        0  systick.o(.bss.g_pTaskScheduleFunc)
    g_rcvQueue                               0x20000044   Data          16  usb2com_app.o(.bss.g_rcvQueue)
    [Anonymous Symbol]                       0x20000044   Section        0  usb2com_app.o(.bss.g_rcvQueue)
    g_rcvUartDataBuf                         0x20000054   Data          77  usb2com_app.o(.bss.g_rcvUartDataBuf)
    [Anonymous Symbol]                       0x20000054   Section        0  usb2com_app.o(.bss.g_rcvUartDataBuf)
    g_systemRunTime                          0x200000a8   Data           8  systick.o(.bss.g_systemRunTime)
    [Anonymous Symbol]                       0x200000a8   Section        0  systick.o(.bss.g_systemRunTime)
    pProcUartData                            0x200000b0   Data           4  usb2com_drv.o(.bss.pProcUartData)
    [Anonymous Symbol]                       0x200000b0   Section        0  usb2com_drv.o(.bss.pProcUartData)
    STACK                                    0x200000b8   Section     1024  startup_gd32f30x_hd.o(STACK)

    Global Symbols

    Symbol Name                              Value     Ov Type        Size  Object(Section)

    BuildAttributes$$THM_ISAv4$E$P$D$K$B$S$7EM$VFPi3$EXTD16$VFPS$VFMA$PE$A:L22UL41UL21$X:L11$S22US41US21$IEEE1$IW$~IW$USESV6$~STKCKD$USESV7$~SHL$OTIME$ROPI$EBA8$MICROLIB$REQ8$PRES8$EABIv2 0x00000000   Number         0  anon$$obj.o ABSOLUTE
    _printf_a                                0x00000000   Number         0  printfstubs.o ABSOLUTE
    _printf_c                                0x00000000   Number         0  printfstubs.o ABSOLUTE
    _printf_charcount                        0x00000000   Number         0  printfstubs.o ABSOLUTE
    _printf_d                                0x00000000   Number         0  printfstubs.o ABSOLUTE
    _printf_e                                0x00000000   Number         0  printfstubs.o ABSOLUTE
    _printf_f                                0x00000000   Number         0  printfstubs.o ABSOLUTE
    _printf_flags                            0x00000000   Number         0  printfstubs.o ABSOLUTE
    _printf_fp_dec                           0x00000000   Number         0  printfstubs.o ABSOLUTE
    _printf_fp_hex                           0x00000000   Number         0  printfstubs.o ABSOLUTE
    _printf_g                                0x00000000   Number         0  printfstubs.o ABSOLUTE
    _printf_i                                0x00000000   Number         0  printfstubs.o ABSOLUTE
    _printf_int_dec                          0x00000000   Number         0  printfstubs.o ABSOLUTE
    _printf_l                                0x00000000   Number         0  printfstubs.o ABSOLUTE
    _printf_lc                               0x00000000   Number         0  printfstubs.o ABSOLUTE
    _printf_ll                               0x00000000   Number         0  printfstubs.o ABSOLUTE
    _printf_lld                              0x00000000   Number         0  printfstubs.o ABSOLUTE
    _printf_lli                              0x00000000   Number         0  printfstubs.o ABSOLUTE
    _printf_llo                              0x00000000   Number         0  printfstubs.o ABSOLUTE
    _printf_llu                              0x00000000   Number         0  printfstubs.o ABSOLUTE
    _printf_llx                              0x00000000   Number         0  printfstubs.o ABSOLUTE
    _printf_longlong_dec                     0x00000000   Number         0  printfstubs.o ABSOLUTE
    _printf_longlong_hex                     0x00000000   Number         0  printfstubs.o ABSOLUTE
    _printf_longlong_oct                     0x00000000   Number         0  printfstubs.o ABSOLUTE
    _printf_ls                               0x00000000   Number         0  printfstubs.o ABSOLUTE
    _printf_mbtowc                           0x00000000   Number         0  printfstubs.o ABSOLUTE
    _printf_n                                0x00000000   Number         0  printfstubs.o ABSOLUTE
    _printf_o                                0x00000000   Number         0  printfstubs.o ABSOLUTE
    _printf_p                                0x00000000   Number         0  printfstubs.o ABSOLUTE
    _printf_percent                          0x00000000   Number         0  printfstubs.o ABSOLUTE
    _printf_pre_padding                      0x00000000   Number         0  printfstubs.o ABSOLUTE
    _printf_return_value                     0x00000000   Number         0  printfstubs.o ABSOLUTE
    _printf_s                                0x00000000   Number         0  printfstubs.o ABSOLUTE
    _printf_sizespec                         0x00000000   Number         0  printfstubs.o ABSOLUTE
    _printf_str                              0x00000000   Number         0  printfstubs.o ABSOLUTE
    _printf_truncate_signed                  0x00000000   Number         0  printfstubs.o ABSOLUTE
    _printf_truncate_unsigned                0x00000000   Number         0  printfstubs.o ABSOLUTE
    _printf_u                                0x00000000   Number         0  printfstubs.o ABSOLUTE
    _printf_wc                               0x00000000   Number         0  printfstubs.o ABSOLUTE
    _printf_wctomb                           0x00000000   Number         0  printfstubs.o ABSOLUTE
    _printf_widthprec                        0x00000000   Number         0  printfstubs.o ABSOLUTE
    _printf_x                                0x00000000   Number         0  printfstubs.o ABSOLUTE
    __cpp_initialize__aeabi_                  - Undefined Weak Reference
    __cxa_finalize                            - Undefined Weak Reference
    __decompress                              - Undefined Weak Reference
    _clock_init                               - Undefined Weak Reference
    _microlib_exit                            - Undefined Weak Reference
    __Vectors_Size                           0x00000130   Number         0  startup_gd32f30x_hd.o ABSOLUTE
    __Vectors                                0x08000000   Data           4  startup_gd32f30x_hd.o(RESET)
    __Vectors_End                            0x08000130   Data           0  startup_gd32f30x_hd.o(RESET)
    __main                                   0x08000131   Thumb Code     0  entry.o(.ARM.Collect$$$$00000000)
    _main_stk                                0x08000131   Thumb Code     0  entry2.o(.ARM.Collect$$$$00000001)
    _main_scatterload                        0x08000135   Thumb Code     0  entry5.o(.ARM.Collect$$$$00000004)
    __main_after_scatterload                 0x08000139   Thumb Code     0  entry5.o(.ARM.Collect$$$$00000004)
    _main_clock                              0x08000139   Thumb Code     0  entry7b.o(.ARM.Collect$$$$00000008)
    _main_cpp_init                           0x08000139   Thumb Code     0  entry8b.o(.ARM.Collect$$$$0000000A)
    _main_init                               0x08000139   Thumb Code     0  entry9a.o(.ARM.Collect$$$$0000000B)
    __rt_final_cpp                           0x08000141   Thumb Code     0  entry10a.o(.ARM.Collect$$$$0000000D)
    __rt_final_exit                          0x08000141   Thumb Code     0  entry11a.o(.ARM.Collect$$$$0000000F)
    Reset_Handler                            0x08000145   Thumb Code     8  startup_gd32f30x_hd.o(.text)
    NMI_Handler                              0x0800014d   Thumb Code     2  startup_gd32f30x_hd.o(.text)
    HardFault_Handler                        0x0800014f   Thumb Code     2  startup_gd32f30x_hd.o(.text)
    MemManage_Handler                        0x08000151   Thumb Code     2  startup_gd32f30x_hd.o(.text)
    BusFault_Handler                         0x08000153   Thumb Code     2  startup_gd32f30x_hd.o(.text)
    UsageFault_Handler                       0x08000155   Thumb Code     2  startup_gd32f30x_hd.o(.text)
    SVC_Handler                              0x08000157   Thumb Code     2  startup_gd32f30x_hd.o(.text)
    DebugMon_Handler                         0x08000159   Thumb Code     2  startup_gd32f30x_hd.o(.text)
    PendSV_Handler                           0x0800015b   Thumb Code     2  startup_gd32f30x_hd.o(.text)
    ADC0_1_IRQHandler                        0x0800015f   Thumb Code     0  startup_gd32f30x_hd.o(.text)
    ADC2_IRQHandler                          0x0800015f   Thumb Code     0  startup_gd32f30x_hd.o(.text)
    CAN0_EWMC_IRQHandler                     0x0800015f   Thumb Code     0  startup_gd32f30x_hd.o(.text)
    CAN0_RX1_IRQHandler                      0x0800015f   Thumb Code     0  startup_gd32f30x_hd.o(.text)
    DMA0_Channel0_IRQHandler                 0x0800015f   Thumb Code     0  startup_gd32f30x_hd.o(.text)
    DMA0_Channel1_IRQHandler                 0x0800015f   Thumb Code     0  startup_gd32f30x_hd.o(.text)
    DMA0_Channel2_IRQHandler                 0x0800015f   Thumb Code     0  startup_gd32f30x_hd.o(.text)
    DMA0_Channel3_IRQHandler                 0x0800015f   Thumb Code     0  startup_gd32f30x_hd.o(.text)
    DMA0_Channel4_IRQHandler                 0x0800015f   Thumb Code     0  startup_gd32f30x_hd.o(.text)
    DMA0_Channel5_IRQHandler                 0x0800015f   Thumb Code     0  startup_gd32f30x_hd.o(.text)
    DMA0_Channel6_IRQHandler                 0x0800015f   Thumb Code     0  startup_gd32f30x_hd.o(.text)
    DMA1_Channel0_IRQHandler                 0x0800015f   Thumb Code     0  startup_gd32f30x_hd.o(.text)
    DMA1_Channel1_IRQHandler                 0x0800015f   Thumb Code     0  startup_gd32f30x_hd.o(.text)
    DMA1_Channel2_IRQHandler                 0x0800015f   Thumb Code     0  startup_gd32f30x_hd.o(.text)
    DMA1_Channel3_4_IRQHandler               0x0800015f   Thumb Code     0  startup_gd32f30x_hd.o(.text)
    EXMC_IRQHandler                          0x0800015f   Thumb Code     0  startup_gd32f30x_hd.o(.text)
    EXTI0_IRQHandler                         0x0800015f   Thumb Code     0  startup_gd32f30x_hd.o(.text)
    EXTI10_15_IRQHandler                     0x0800015f   Thumb Code     0  startup_gd32f30x_hd.o(.text)
    EXTI1_IRQHandler                         0x0800015f   Thumb Code     0  startup_gd32f30x_hd.o(.text)
    EXTI2_IRQHandler                         0x0800015f   Thumb Code     0  startup_gd32f30x_hd.o(.text)
    EXTI3_IRQHandler                         0x0800015f   Thumb Code     0  startup_gd32f30x_hd.o(.text)
    EXTI4_IRQHandler                         0x0800015f   Thumb Code     0  startup_gd32f30x_hd.o(.text)
    EXTI5_9_IRQHandler                       0x0800015f   Thumb Code     0  startup_gd32f30x_hd.o(.text)
    FMC_IRQHandler                           0x0800015f   Thumb Code     0  startup_gd32f30x_hd.o(.text)
    I2C0_ER_IRQHandler                       0x0800015f   Thumb Code     0  startup_gd32f30x_hd.o(.text)
    I2C0_EV_IRQHandler                       0x0800015f   Thumb Code     0  startup_gd32f30x_hd.o(.text)
    I2C1_ER_IRQHandler                       0x0800015f   Thumb Code     0  startup_gd32f30x_hd.o(.text)
    I2C1_EV_IRQHandler                       0x0800015f   Thumb Code     0  startup_gd32f30x_hd.o(.text)
    LVD_IRQHandler                           0x0800015f   Thumb Code     0  startup_gd32f30x_hd.o(.text)
    RCU_CTC_IRQHandler                       0x0800015f   Thumb Code     0  startup_gd32f30x_hd.o(.text)
    RTC_Alarm_IRQHandler                     0x0800015f   Thumb Code     0  startup_gd32f30x_hd.o(.text)
    RTC_IRQHandler                           0x0800015f   Thumb Code     0  startup_gd32f30x_hd.o(.text)
    SDIO_IRQHandler                          0x0800015f   Thumb Code     0  startup_gd32f30x_hd.o(.text)
    SPI0_IRQHandler                          0x0800015f   Thumb Code     0  startup_gd32f30x_hd.o(.text)
    SPI1_IRQHandler                          0x0800015f   Thumb Code     0  startup_gd32f30x_hd.o(.text)
    SPI2_IRQHandler                          0x0800015f   Thumb Code     0  startup_gd32f30x_hd.o(.text)
    TAMPER_IRQHandler                        0x0800015f   Thumb Code     0  startup_gd32f30x_hd.o(.text)
    TIMER0_BRK_IRQHandler                    0x0800015f   Thumb Code     0  startup_gd32f30x_hd.o(.text)
    TIMER0_Channel_IRQHandler                0x0800015f   Thumb Code     0  startup_gd32f30x_hd.o(.text)
    TIMER0_TRG_CMT_IRQHandler                0x0800015f   Thumb Code     0  startup_gd32f30x_hd.o(.text)
    TIMER0_UP_IRQHandler                     0x0800015f   Thumb Code     0  startup_gd32f30x_hd.o(.text)
    TIMER1_IRQHandler                        0x0800015f   Thumb Code     0  startup_gd32f30x_hd.o(.text)
    TIMER2_IRQHandler                        0x0800015f   Thumb Code     0  startup_gd32f30x_hd.o(.text)
    TIMER3_IRQHandler                        0x0800015f   Thumb Code     0  startup_gd32f30x_hd.o(.text)
    TIMER4_IRQHandler                        0x0800015f   Thumb Code     0  startup_gd32f30x_hd.o(.text)
    TIMER5_IRQHandler                        0x0800015f   Thumb Code     0  startup_gd32f30x_hd.o(.text)
    TIMER6_IRQHandler                        0x0800015f   Thumb Code     0  startup_gd32f30x_hd.o(.text)
    TIMER7_BRK_IRQHandler                    0x0800015f   Thumb Code     0  startup_gd32f30x_hd.o(.text)
    TIMER7_TRG_CMT_IRQHandler                0x0800015f   Thumb Code     0  startup_gd32f30x_hd.o(.text)
    TIMER7_UP_IRQHandler                     0x0800015f   Thumb Code     0  startup_gd32f30x_hd.o(.text)
    UART3_IRQHandler                         0x0800015f   Thumb Code     0  startup_gd32f30x_hd.o(.text)
    UART4_IRQHandler                         0x0800015f   Thumb Code     0  startup_gd32f30x_hd.o(.text)
    USART1_IRQHandler                        0x0800015f   Thumb Code     0  startup_gd32f30x_hd.o(.text)
    USART2_IRQHandler                        0x0800015f   Thumb Code     0  startup_gd32f30x_hd.o(.text)
    USBD_HP_CAN0_TX_IRQHandler               0x0800015f   Thumb Code     0  startup_gd32f30x_hd.o(.text)
    USBD_LP_CAN0_RX0_IRQHandler              0x0800015f   Thumb Code     0  startup_gd32f30x_hd.o(.text)
    USBD_WKUP_IRQHandler                     0x0800015f   Thumb Code     0  startup_gd32f30x_hd.o(.text)
    WWDGT_IRQHandler                         0x0800015f   Thumb Code     0  startup_gd32f30x_hd.o(.text)
    __aeabi_uldivmod                         0x08000169   Thumb Code    98  uldiv.o(.text)
    __scatterload                            0x080001cd   Thumb Code    38  init.o(.text)
    __scatterload_rt2                        0x080001cd   Thumb Code     0  init.o(.text)
    __aeabi_llsl                             0x080001fd   Thumb Code    30  llshl.o(.text)
    _ll_shift_l                              0x080001fd   Thumb Code     0  llshl.o(.text)
    __aeabi_llsr                             0x0800021b   Thumb Code    32  llushr.o(.text)
    _ll_ushift_r                             0x0800021b   Thumb Code     0  llushr.o(.text)
    GetIrCode                                0x0800023d   Thumb Code    34  ir_drv.o(.text.GetIrCode)
    HmiTask                                  0x08000261   Thumb Code   148  hmi_app.o(.text.HmiTask)
    IrDrvInit                                0x0800031d   Thumb Code   122  ir_drv.o(.text.IrDrvInit)
    LedDrvInit                               0x08000399   Thumb Code    58  led_drv.o(.text.LedDrvInit)
    QueueInit                                0x080003e5   Thumb Code    12  queue.o(.text.QueueInit)
    QueuePop                                 0x080003f1   Thumb Code    38  queue.o(.text.QueuePop)
    QueuePopArray                            0x08000419   Thumb Code    68  queue.o(.text.QueuePopArray)
    QueuePush                                0x0800045d   Thumb Code    40  queue.o(.text.QueuePush)
    RegUsb2ComCb                             0x08000485   Thumb Code    12  usb2com_drv.o(.text.RegUsb2ComCb)
    SysTick_Handler                          0x08000491   Thumb Code    34  systick.o(.text.SysTick_Handler)
    SystemInit                               0x080004b5   Thumb Code   424  system_gd32f30x.o(.text.SystemInit)
    SystickInit                              0x0800065d   Thumb Code    70  systick.o(.text.SystickInit)
    TIMER7_Channel_IRQHandler                0x080006a5   Thumb Code   220  ir_drv.o(.text.TIMER7_Channel_IRQHandler)
    TaskScheduleCbReg                        0x080007b9   Thumb Code    12  systick.o(.text.TaskScheduleCbReg)
    TurnOffLed                               0x080007c5   Thumb Code    30  led_drv.o(.text.TurnOffLed)
    TurnOnLed                                0x080007e5   Thumb Code    30  led_drv.o(.text.TurnOnLed)
    USART0_IRQHandler                        0x08000805   Thumb Code    64  usb2com_drv.o(.text.USART0_IRQHandler)
    Usb2ComAppInit                           0x08000845   Thumb Code    40  usb2com_app.o(.text.Usb2ComAppInit)
    Usb2ComDrvInit                           0x0800086d   Thumb Code   132  usb2com_drv.o(.text.Usb2ComDrvInit)
    Usb2ComTask                              0x080008f1   Thumb Code   248  usb2com_app.o(.text.Usb2ComTask)
    fputc                                    0x080009f1   Thumb Code    36  usb2com_drv.o(.text.fputc)
    gpio_bit_reset                           0x08000a15   Thumb Code     4  gd32f30x_gpio.o(.text.gpio_bit_reset)
    gpio_bit_set                             0x08000a19   Thumb Code     4  gd32f30x_gpio.o(.text.gpio_bit_set)
    gpio_init                                0x08000a1d   Thumb Code   182  gd32f30x_gpio.o(.text.gpio_init)
    main                                     0x08000ad5   Thumb Code    80  main.o(.text.main)
    nvic_irq_enable                          0x08000b25   Thumb Code   164  gd32f30x_misc.o(.text.nvic_irq_enable)
    rcu_clock_freq_get                       0x08000bc9   Thumb Code   192  gd32f30x_rcu.o(.text.rcu_clock_freq_get)
    rcu_periph_clock_enable                  0x08000c99   Thumb Code    30  gd32f30x_rcu.o(.text.rcu_periph_clock_enable)
    rcu_periph_reset_disable                 0x08000cb9   Thumb Code    32  gd32f30x_rcu.o(.text.rcu_periph_reset_disable)
    rcu_periph_reset_enable                  0x08000cd9   Thumb Code    30  gd32f30x_rcu.o(.text.rcu_periph_reset_enable)
    timer_channel_capture_value_register_read 0x08000cf9   Thumb Code    14  gd32f30x_timer.o(.text.timer_channel_capture_value_register_read)
    timer_channel_input_struct_para_init     0x08000d09   Thumb Code    12  gd32f30x_timer.o(.text.timer_channel_input_struct_para_init)
    timer_counter_value_config               0x08000d15   Thumb Code     4  gd32f30x_timer.o(.text.timer_counter_value_config)
    timer_deinit                             0x08000d19   Thumb Code   194  gd32f30x_timer.o(.text.timer_deinit)
    timer_enable                             0x08000ddd   Thumb Code    10  gd32f30x_timer.o(.text.timer_enable)
    timer_init                               0x08000de9   Thumb Code   180  gd32f30x_timer.o(.text.timer_init)
    timer_input_capture_config               0x08000e9d   Thumb Code   344  gd32f30x_timer.o(.text.timer_input_capture_config)
    timer_interrupt_enable                   0x08000ff5   Thumb Code     8  gd32f30x_timer.o(.text.timer_interrupt_enable)
    timer_interrupt_flag_clear               0x08000ffd   Thumb Code     6  gd32f30x_timer.o(.text.timer_interrupt_flag_clear)
    timer_interrupt_flag_get                 0x08001005   Thumb Code    22  gd32f30x_timer.o(.text.timer_interrupt_flag_get)
    timer_struct_para_init                   0x0800101d   Thumb Code    16  gd32f30x_timer.o(.text.timer_struct_para_init)
    usart_baudrate_set                       0x0800102d   Thumb Code   106  gd32f30x_usart.o(.text.usart_baudrate_set)
    usart_data_receive                       0x08001099   Thumb Code     8  gd32f30x_usart.o(.text.usart_data_receive)
    usart_data_transmit                      0x080010a1   Thumb Code     8  gd32f30x_usart.o(.text.usart_data_transmit)
    usart_deinit                             0x080010a9   Thumb Code   122  gd32f30x_usart.o(.text.usart_deinit)
    usart_enable                             0x08001125   Thumb Code    10  gd32f30x_usart.o(.text.usart_enable)
    usart_flag_get                           0x08001131   Thumb Code    16  gd32f30x_usart.o(.text.usart_flag_get)
    usart_interrupt_enable                   0x08001141   Thumb Code    22  gd32f30x_usart.o(.text.usart_interrupt_enable)
    usart_interrupt_flag_clear               0x08001159   Thumb Code    18  gd32f30x_usart.o(.text.usart_interrupt_flag_clear)
    usart_interrupt_flag_get                 0x0800116d   Thumb Code    34  gd32f30x_usart.o(.text.usart_interrupt_flag_get)
    usart_parity_config                      0x08001191   Thumb Code    16  gd32f30x_usart.o(.text.usart_parity_config)
    usart_receive_config                     0x080011a1   Thumb Code    20  gd32f30x_usart.o(.text.usart_receive_config)
    usart_stop_bit_set                       0x080011b5   Thumb Code    16  gd32f30x_usart.o(.text.usart_stop_bit_set)
    usart_transmit_config                    0x080011c5   Thumb Code    20  gd32f30x_usart.o(.text.usart_transmit_config)
    usart_word_length_set                    0x080011d9   Thumb Code    16  gd32f30x_usart.o(.text.usart_word_length_set)
    __0printf$8                              0x080011e9   Thumb Code    22  printf8.o(i.__0printf$8)
    __1printf$8                              0x080011e9   Thumb Code     0  printf8.o(i.__0printf$8)
    __2printf                                0x080011e9   Thumb Code     0  printf8.o(i.__0printf$8)
    __scatterload_copy                       0x08001209   Thumb Code    14  handlers.o(i.__scatterload_copy)
    __scatterload_null                       0x08001217   Thumb Code     2  handlers.o(i.__scatterload_null)
    __scatterload_zeroinit                   0x08001219   Thumb Code    14  handlers.o(i.__scatterload_zeroinit)
    putchar                                  0x0800168d   Thumb Code     6  putchar.o(i.putchar)
    Region$$Table$$Base                      0x080016c4   Number         0  anon$$obj.o(Region$$Table)
    Region$$Table$$Limit                     0x080016e4   Number         0  anon$$obj.o(Region$$Table)
    __stdout                                 0x20000000   Data           4  stdout.o(.data)
    g_Usb2ComInfo                            0x20000004   Data          28  usb2com_drv.o(.data.g_Usb2ComInfo)
    __initial_sp                             0x200004b8   Data           0  startup_gd32f30x_hd.o(STACK)



==============================================================================

Memory Map of the image

  Image Entry point : 0x08000131

  Load Region LR_IROM1 (Base: 0x08000000, Size: 0x00001720, Max: 0x00080000, ABSOLUTE)

    Execution Region ER_IROM1 (Exec base: 0x08000000, Load base: 0x08000000, Size: 0x000016e4, Max: 0x00080000, ABSOLUTE)

    Exec Addr    Load Addr    Size         Type   Attr      Idx    E Section Name        Object

    0x08000000   0x08000000   0x00000130   Data   RO          558    RESET               startup_gd32f30x_hd.o
    0x08000130   0x08000130   0x00000000   Code   RO          578  * .ARM.Collect$$$$00000000  mc_w.l(entry.o)
    0x08000130   0x08000130   0x00000004   Code   RO          844    .ARM.Collect$$$$00000001  mc_w.l(entry2.o)
    0x08000134   0x08000134   0x00000004   Code   RO          847    .ARM.Collect$$$$00000004  mc_w.l(entry5.o)
    0x08000138   0x08000138   0x00000000   Code   RO          849    .ARM.Collect$$$$00000008  mc_w.l(entry7b.o)
    0x08000138   0x08000138   0x00000000   Code   RO          851    .ARM.Collect$$$$0000000A  mc_w.l(entry8b.o)
    0x08000138   0x08000138   0x00000008   Code   RO          852    .ARM.Collect$$$$0000000B  mc_w.l(entry9a.o)
    0x08000140   0x08000140   0x00000000   Code   RO          854    .ARM.Collect$$$$0000000D  mc_w.l(entry10a.o)
    0x08000140   0x08000140   0x00000000   Code   RO          856    .ARM.Collect$$$$0000000F  mc_w.l(entry11a.o)
    0x08000140   0x08000140   0x00000004   Code   RO          845    .ARM.Collect$$$$00002712  mc_w.l(entry2.o)
    0x08000144   0x08000144   0x00000024   Code   RO          559    .text               startup_gd32f30x_hd.o
    0x08000168   0x08000168   0x00000062   Code   RO          870    .text               mc_w.l(uldiv.o)
    0x080001ca   0x080001ca   0x00000002   PAD
    0x080001cc   0x080001cc   0x00000030   Code   RO          883    .text               mc_w.l(init.o)
    0x080001fc   0x080001fc   0x0000001e   Code   RO          885    .text               mc_w.l(llshl.o)
    0x0800021a   0x0800021a   0x00000020   Code   RO          887    .text               mc_w.l(llushr.o)
    0x0800023a   0x0800023a   0x00000002   PAD
    0x0800023c   0x0800023c   0x00000022   Code   RO          130    .text.GetIrCode     ir_drv.o
    0x0800025e   0x0800025e   0x00000002   PAD
    0x08000260   0x08000260   0x000000bc   Code   RO            2    .text.HmiTask       hmi_app.o
    0x0800031c   0x0800031c   0x0000007a   Code   RO          126    .text.IrDrvInit     ir_drv.o
    0x08000396   0x08000396   0x00000002   PAD
    0x08000398   0x08000398   0x0000003a   Code   RO           54    .text.LedDrvInit    led_drv.o
    0x080003d2   0x080003d2   0x00000002   PAD
    0x080003d4   0x080003d4   0x0000000e   Code   RO           28    .text.ProcUartData  usb2com_app.o
    0x080003e2   0x080003e2   0x00000002   PAD
    0x080003e4   0x080003e4   0x0000000c   Code   RO           71    .text.QueueInit     queue.o
    0x080003f0   0x080003f0   0x00000026   Code   RO           75    .text.QueuePop      queue.o
    0x08000416   0x08000416   0x00000002   PAD
    0x08000418   0x08000418   0x00000044   Code   RO           79    .text.QueuePopArray  queue.o
    0x0800045c   0x0800045c   0x00000028   Code   RO           73    .text.QueuePush     queue.o
    0x08000484   0x08000484   0x0000000c   Code   RO          112    .text.RegUsb2ComCb  usb2com_drv.o
    0x08000490   0x08000490   0x00000022   Code   RO           95    .text.SysTick_Handler  systick.o
    0x080004b2   0x080004b2   0x00000002   PAD
    0x080004b4   0x080004b4   0x000001a8   Code   RO          566    .text.SystemInit    system_gd32f30x.o
    0x0800065c   0x0800065c   0x00000046   Code   RO           93    .text.SystickInit   systick.o
    0x080006a2   0x080006a2   0x00000002   PAD
    0x080006a4   0x080006a4   0x000000dc   Code   RO          128    .text.TIMER7_Channel_IRQHandler  ir_drv.o
    0x08000780   0x08000780   0x00000038   Code   RO           12    .text.TaskSchedule  main.o
    0x080007b8   0x080007b8   0x0000000c   Code   RO           91    .text.TaskScheduleCbReg  systick.o
    0x080007c4   0x080007c4   0x0000001e   Code   RO           58    .text.TurnOffLed    led_drv.o
    0x080007e2   0x080007e2   0x00000002   PAD
    0x080007e4   0x080007e4   0x0000001e   Code   RO           56    .text.TurnOnLed     led_drv.o
    0x08000802   0x08000802   0x00000002   PAD
    0x08000804   0x08000804   0x00000040   Code   RO          114    .text.USART0_IRQHandler  usb2com_drv.o
    0x08000844   0x08000844   0x00000028   Code   RO           26    .text.Usb2ComAppInit  usb2com_app.o
    0x0800086c   0x0800086c   0x00000084   Code   RO          108    .text.Usb2ComDrvInit  usb2com_drv.o
    0x080008f0   0x080008f0   0x00000100   Code   RO           24    .text.Usb2ComTask   usb2com_app.o
    0x080009f0   0x080009f0   0x00000024   Code   RO          110    .text.fputc         usb2com_drv.o
    0x08000a14   0x08000a14   0x00000004   Code   RO          152    .text.gpio_bit_reset  gd32f30x_gpio.o
    0x08000a18   0x08000a18   0x00000004   Code   RO          150    .text.gpio_bit_set  gd32f30x_gpio.o
    0x08000a1c   0x08000a1c   0x000000b6   Code   RO          148    .text.gpio_init     gd32f30x_gpio.o
    0x08000ad2   0x08000ad2   0x00000002   PAD
    0x08000ad4   0x08000ad4   0x00000050   Code   RO           10    .text.main          main.o
    0x08000b24   0x08000b24   0x000000a4   Code   RO          192    .text.nvic_irq_enable  gd32f30x_misc.o
    0x08000bc8   0x08000bc8   0x000000d0   Code   RO          278    .text.rcu_clock_freq_get  gd32f30x_rcu.o
    0x08000c98   0x08000c98   0x0000001e   Code   RO          216    .text.rcu_periph_clock_enable  gd32f30x_rcu.o
    0x08000cb6   0x08000cb6   0x00000002   PAD
    0x08000cb8   0x08000cb8   0x00000020   Code   RO          226    .text.rcu_periph_reset_disable  gd32f30x_rcu.o
    0x08000cd8   0x08000cd8   0x0000001e   Code   RO          224    .text.rcu_periph_reset_enable  gd32f30x_rcu.o
    0x08000cf6   0x08000cf6   0x00000002   PAD
    0x08000cf8   0x08000cf8   0x0000000e   Code   RO          407    .text.timer_channel_capture_value_register_read  gd32f30x_timer.o
    0x08000d06   0x08000d06   0x00000002   PAD
    0x08000d08   0x08000d08   0x0000000c   Code   RO          401    .text.timer_channel_input_struct_para_init  gd32f30x_timer.o
    0x08000d14   0x08000d14   0x00000004   Code   RO          329    .text.timer_counter_value_config  gd32f30x_timer.o
    0x08000d18   0x08000d18   0x000000c2   Code   RO          299    .text.timer_deinit  gd32f30x_timer.o
    0x08000dda   0x08000dda   0x00000002   PAD
    0x08000ddc   0x08000ddc   0x0000000a   Code   RO          305    .text.timer_enable  gd32f30x_timer.o
    0x08000de6   0x08000de6   0x00000002   PAD
    0x08000de8   0x08000de8   0x000000b4   Code   RO          303    .text.timer_init    gd32f30x_timer.o
    0x08000e9c   0x08000e9c   0x00000158   Code   RO          403    .text.timer_input_capture_config  gd32f30x_timer.o
    0x08000ff4   0x08000ff4   0x00000008   Code   RO          339    .text.timer_interrupt_enable  gd32f30x_timer.o
    0x08000ffc   0x08000ffc   0x00000006   Code   RO          345    .text.timer_interrupt_flag_clear  gd32f30x_timer.o
    0x08001002   0x08001002   0x00000002   PAD
    0x08001004   0x08001004   0x00000016   Code   RO          343    .text.timer_interrupt_flag_get  gd32f30x_timer.o
    0x0800101a   0x0800101a   0x00000002   PAD
    0x0800101c   0x0800101c   0x00000010   Code   RO          301    .text.timer_struct_para_init  gd32f30x_timer.o
    0x0800102c   0x0800102c   0x0000006a   Code   RO          451    .text.usart_baudrate_set  gd32f30x_usart.o
    0x08001096   0x08001096   0x00000002   PAD
    0x08001098   0x08001098   0x00000008   Code   RO          479    .text.usart_data_receive  gd32f30x_usart.o
    0x080010a0   0x080010a0   0x00000008   Code   RO          477    .text.usart_data_transmit  gd32f30x_usart.o
    0x080010a8   0x080010a8   0x0000007a   Code   RO          449    .text.usart_deinit  gd32f30x_usart.o
    0x08001122   0x08001122   0x00000002   PAD
    0x08001124   0x08001124   0x0000000a   Code   RO          459    .text.usart_enable  gd32f30x_usart.o
    0x0800112e   0x0800112e   0x00000002   PAD
    0x08001130   0x08001130   0x00000010   Code   RO          537    .text.usart_flag_get  gd32f30x_usart.o
    0x08001140   0x08001140   0x00000016   Code   RO          541    .text.usart_interrupt_enable  gd32f30x_usart.o
    0x08001156   0x08001156   0x00000002   PAD
    0x08001158   0x08001158   0x00000012   Code   RO          547    .text.usart_interrupt_flag_clear  gd32f30x_usart.o
    0x0800116a   0x0800116a   0x00000002   PAD
    0x0800116c   0x0800116c   0x00000022   Code   RO          545    .text.usart_interrupt_flag_get  gd32f30x_usart.o
    0x0800118e   0x0800118e   0x00000002   PAD
    0x08001190   0x08001190   0x00000010   Code   RO          453    .text.usart_parity_config  gd32f30x_usart.o
    0x080011a0   0x080011a0   0x00000014   Code   RO          465    .text.usart_receive_config  gd32f30x_usart.o
    0x080011b4   0x080011b4   0x00000010   Code   RO          457    .text.usart_stop_bit_set  gd32f30x_usart.o
    0x080011c4   0x080011c4   0x00000014   Code   RO          463    .text.usart_transmit_config  gd32f30x_usart.o
    0x080011d8   0x080011d8   0x00000010   Code   RO          455    .text.usart_word_length_set  gd32f30x_usart.o
    0x080011e8   0x080011e8   0x00000020   Code   RO          790    i.__0printf$8       mc_w.l(printf8.o)
    0x08001208   0x08001208   0x0000000e   Code   RO          895    i.__scatterload_copy  mc_w.l(handlers.o)
    0x08001216   0x08001216   0x00000002   Code   RO          896    i.__scatterload_null  mc_w.l(handlers.o)
    0x08001218   0x08001218   0x0000000e   Code   RO          897    i.__scatterload_zeroinit  mc_w.l(handlers.o)
    0x08001226   0x08001226   0x00000002   PAD
    0x08001228   0x08001228   0x00000410   Code   RO          797    i._printf_core      mc_w.l(printf8.o)
    0x08001638   0x08001638   0x00000024   Code   RO          798    i._printf_post_padding  mc_w.l(printf8.o)
    0x0800165c   0x0800165c   0x0000002e   Code   RO          799    i._printf_pre_padding  mc_w.l(printf8.o)
    0x0800168a   0x0800168a   0x00000002   PAD
    0x0800168c   0x0800168c   0x0000000c   Code   RO          581    i.putchar           mc_w.l(putchar.o)
    0x08001698   0x08001698   0x00000008   Data   RO          290    .rodata.cst8        gd32f30x_rcu.o
    0x080016a0   0x080016a0   0x00000024   Data   RO           62    .rodata.g_ledList   led_drv.o
    0x080016c4   0x080016c4   0x00000020   Data   RO          894    Region$$Table       anon$$obj.o


    Execution Region RW_IRAM1 (Exec base: 0x20000000, Load base: 0x080016e8, Size: 0x000004b8, Max: 0x00010000, ABSOLUTE)

    Exec Addr    Load Addr    Size         Type   Attr      Idx    E Section Name        Object

    0x20000000   0x080016e8   0x00000004   Data   RW          858    .data               mc_w.l(stdout.o)
    0x20000004   0x080016ec   0x0000001c   Data   RW          116    .data.g_Usb2ComInfo  usb2com_drv.o
    0x20000020   0x08001708   0x00000018   Data   RW           14    .data.g_taskComps   main.o
    0x20000038        -       0x00000001   Zero   RW          134    .bss.ParseIrFrame.s_headFlag  ir_drv.o
    0x20000039        -       0x00000001   Zero   RW          135    .bss.ParseIrFrame.s_index  ir_drv.o
    0x2000003a        -       0x00000004   Zero   RW          133    .bss.g_irCode       ir_drv.o
    0x2000003e        -       0x00000001   Zero   RW          132    .bss.g_irCodeFlag   ir_drv.o
    0x2000003f   0x08001720   0x00000001   PAD
    0x20000040        -       0x00000004   Zero   RW           99    .bss.g_pTaskScheduleFunc  systick.o
    0x20000044        -       0x00000010   Zero   RW           30    .bss.g_rcvQueue     usb2com_app.o
    0x20000054        -       0x0000004d   Zero   RW           31    .bss.g_rcvUartDataBuf  usb2com_app.o
    0x200000a1   0x08001720   0x00000007   PAD
    0x200000a8        -       0x00000008   Zero   RW          100    .bss.g_systemRunTime  systick.o
    0x200000b0        -       0x00000004   Zero   RW          117    .bss.pProcUartData  usb2com_drv.o
    0x200000b4   0x08001720   0x00000004   PAD
    0x200000b8        -       0x00000400   Zero   RW          556    STACK               startup_gd32f30x_hd.o


==============================================================================

Image component sizes


      Code (inc. data)   RO Data    RW Data    ZI Data      Debug   Object Name

       190          0          0          0          0       5793   gd32f30x_gpio.o
       164          0          0          0          0       3557   gd32f30x_misc.o
       300         20          8          0          0      13879   gd32f30x_rcu.o
       810          8          0          0          0      20502   gd32f30x_timer.o
       432          0          0          0          0      11456   gd32f30x_usart.o
       188        106          0          0          0        723   hmi_app.o
       376          0          0          0          7       3398   ir_drv.o
       118          0         36          0          0       2561   led_drv.o
       136          0          0         24          0       1448   main.o
       158          0          0          0          0       2616   queue.o
        36          8        304          0       1024        872   startup_gd32f30x_hd.o
       424          0          0          0          0       2519   system_gd32f30x.o
       116          0          0          0         12       4100   systick.o
       310          8          0          0         93       2324   usb2com_app.o
       244          0          0         28          4       3978   usb2com_drv.o

    ----------------------------------------------------------------------
      4048        150        380         52       1152      79726   Object Totals
         0          0         32          0          0          0   (incl. Generated)
        46          0          0          0         12          0   (incl. Padding)

    ----------------------------------------------------------------------

      Code (inc. data)   RO Data    RW Data    ZI Data      Debug   Library Member Name

         0          0          0          0          0          0   entry.o
         0          0          0          0          0          0   entry10a.o
         0          0          0          0          0          0   entry11a.o
         8          4          0          0          0          0   entry2.o
         4          0          0          0          0          0   entry5.o
         0          0          0          0          0          0   entry7b.o
         0          0          0          0          0          0   entry8b.o
         8          4          0          0          0          0   entry9a.o
        30          0          0          0          0          0   handlers.o
        48         10          0          0          0         68   init.o
        30          0          0          0          0         68   llshl.o
        32          0          0          0          0         68   llushr.o
      1154         54          0          0          0        352   printf8.o
        12          6          0          0          0         68   putchar.o
         0          0          0          4          0          0   stdout.o
        98          0          0          0          0         92   uldiv.o

    ----------------------------------------------------------------------
      1432         78          0          4          0        716   Library Totals
         8          0          0          0          0          0   (incl. Padding)

    ----------------------------------------------------------------------

      Code (inc. data)   RO Data    RW Data    ZI Data      Debug   Library Name

      1424         78          0          4          0        716   mc_w.l

    ----------------------------------------------------------------------
      1432         78          0          4          0        716   Library Totals

    ----------------------------------------------------------------------

==============================================================================


      Code (inc. data)   RO Data    RW Data    ZI Data      Debug   

      5480        228        380         56       1152      80074   Grand Totals
      5480        228        380         56       1152      80074   ELF Image Totals
      5480        228        380         56          0          0   ROM Totals

==============================================================================

    Total RO  Size (Code + RO Data)                 5860 (   5.72kB)
    Total RW  Size (RW Data + ZI Data)              1208 (   1.18kB)
    Total ROM Size (Code + RO Data + RW Data)       5916 (   5.78kB)

==============================================================================

