Component: Arm Compiler for Embedded 6.21 Tool: armlink [5ec1fa00]

==============================================================================

Section Cross References

    main.o(.text.main) refers to delay.o(.text.DwtDelayInit) for DwtDelayInit
    main.o(.text.main) refers to systick.o(.text.SystickInit) for SystickInit
    main.o(.text.main) refers to usb2com_drv.o(.text.Usb2ComDrvInit) for Usb2ComDrvInit
    main.o(.text.main) refers to sensor_drv.o(.text.SensorDrvInit) for SensorDrvInit
    main.o(.text.main) refers to led_drv.o(.text.LedDrvInit) for LedDrvInit
    main.o(.text.main) refers to modbus_app.o(.text.ModbusAppInit) for ModbusAppInit
    main.o(.text.main) refers to main.o(.text.TaskSchedule) for TaskSchedule
    main.o(.text.main) refers to systick.o(.text.TaskScheduleCbReg) for TaskScheduleCbReg
    main.o(.text.main) refers to main.o(.data.g_taskComps) for g_taskComps
    main.o(.ARM.exidx.text.main) refers to main.o(.text.main) for [Anonymous Symbol]
    main.o(.text.TaskSchedule) refers to main.o(.data.g_taskComps) for g_taskComps
    main.o(.ARM.exidx.text.TaskSchedule) refers to main.o(.text.TaskSchedule) for [Anonymous Symbol]
    main.o(.data.g_taskComps) refers to hmi_app.o(.text.HmiTask) for HmiTask
    main.o(.data.g_taskComps) refers to sensor_app.o(.text.SensorAppTask) for SensorAppTask
    main.o(.data.g_taskComps) refers to modbus_app.o(.text.ModbusAppTask) for ModbusAppTask
    hmi_app.o(.text.HmiTask) refers to sensor_drv.o(.text.GetSensorData) for GetSensorData
    hmi_app.o(.text.HmiTask) refers to f2d.o(.text) for __aeabi_f2d
    hmi_app.o(.text.HmiTask) refers to printfa.o(i.__0printf) for __2printf
==============================================================================

Removing Unused input sections from the image.

    Removing main.o(.text), (0 bytes).
    Removing main.o(.ARM.exidx.text.main), (8 bytes).
    Removing main.o(.ARM.exidx.text.TaskSchedule), (8 bytes).
    Removing main.o(.ARM.use_no_argv), (4 bytes).
    Removing hmi_app.o(.text), (0 bytes).
    Removing hmi_app.o(.ARM.exidx.text.HmiTask), (8 bytes).
    Removing sensor_app.o(.text), (0 bytes).
    Removing sensor_app.o(.ARM.exidx.text.SensorAppTask), (8 bytes).
    Removing modbus_app.o(.text), (0 bytes).
    Removing modbus_app.o(.ARM.exidx.text.ModbusAppInit), (8 bytes).
    Removing modbus_app.o(.ARM.exidx.text.WriteHoldingRegistersCb), (8 bytes).
    Removing modbus_app.o(.ARM.exidx.text.ReadHoldingRegistersCb), (8 bytes).
    Removing modbus_app.o(.ARM.exidx.text.ModbusAppTask), (8 bytes).
    Removing modbus_app.o(.ARM.exidx.text.ModbusGetTemp), (8 bytes).
    Removing modbus_app.o(.ARM.exidx.text.ModbusGetHumi), (8 bytes).
    Removing modbus_app.o(.ARM.exidx.text.ModbusSetLed1), (8 bytes).
    Removing modbus_app.o(.ARM.exidx.text.ModbusSetLed2), (8 bytes).
    Removing modbus_app.o(.ARM.exidx.text.ModbusSetLed3), (8 bytes).
==============================================================================

Image Symbol Table

    Local Symbols

    Symbol Name                              Value     Ov Type        Size  Object(Section)

    ../clib/division.s                       0x00000000   Number         0  aeabi_sdiv.o ABSOLUTE
    ../clib/microlib/division.c              0x00000000   Number         0  uidiv.o ABSOLUTE
    ../clib/microlib/division.c              0x00000000   Number         0  uldiv.o ABSOLUTE
    ../clib/microlib/init/entry.s            0x00000000   Number         0  entry.o ABSOLUTE
    ../clib/microlib/init/entry.s            0x00000000   Number         0  entry2.o ABSOLUTE
    ../clib/microlib/init/entry.s            0x00000000   Number         0  entry5.o ABSOLUTE
    ../clib/microlib/init/entry.s            0x00000000   Number         0  entry7a.o ABSOLUTE
    ../clib/microlib/init/entry.s            0x00000000   Number         0  entry7b.o ABSOLUTE
    ../clib/microlib/init/entry.s            0x00000000   Number         0  entry8a.o ABSOLUTE
    ../clib/microlib/init/entry.s            0x00000000   Number         0  entry8b.o ABSOLUTE
    ../clib/microlib/init/entry.s            0x00000000   Number         0  entry9a.o ABSOLUTE
    ../clib/microlib/init/entry.s            0x00000000   Number         0  entry9b.o ABSOLUTE
    ../clib/microlib/init/entry.s            0x00000000   Number         0  entry10a.o ABSOLUTE
    ../clib/microlib/init/entry.s            0x00000000   Number         0  entry10b.o ABSOLUTE
    ../clib/microlib/init/entry.s            0x00000000   Number         0  entry11a.o ABSOLUTE
    ../clib/microlib/init/entry.s            0x00000000   Number         0  entry11b.o ABSOLUTE
    ../clib/microlib/longlong.c              0x00000000   Number         0  llshl.o ABSOLUTE
    ../clib/microlib/longlong.c              0x00000000   Number         0  llushr.o ABSOLUTE
    ../clib/microlib/longlong.c              0x00000000   Number         0  llsshr.o ABSOLUTE
    ../clib/microlib/malloc/malloc.c         0x00000000   Number         0  malloc.o ABSOLUTE
    ../clib/microlib/malloc/malloc.c         0x00000000   Number         0  mallocr.o ABSOLUTE
    ../clib/microlib/malloc/malloc.c         0x00000000   Number         0  malloca.o ABSOLUTE
    ../clib/microlib/malloc/malloc.c         0x00000000   Number         0  mallocra.o ABSOLUTE
    ../clib/microlib/malloc/mvars.c          0x00000000   Number         0  mvars.o ABSOLUTE
    ../clib/microlib/printf/printf.c         0x00000000   Number         0  printfb.o ABSOLUTE
    ../clib/microlib/printf/printf.c         0x00000000   Number         0  printf0.o ABSOLUTE
    ../clib/microlib/printf/printf.c         0x00000000   Number         0  printf1.o ABSOLUTE
    ../clib/microlib/printf/printf.c         0x00000000   Number         0  printf2.o ABSOLUTE
    ../clib/microlib/printf/printf.c         0x00000000   Number         0  printf3.o ABSOLUTE
    ../clib/microlib/printf/printf.c         0x00000000   Number         0  printf4.o ABSOLUTE
    ../clib/microlib/printf/printf.c         0x00000000   Number         0  printf5.o ABSOLUTE
    ../clib/microlib/printf/printf.c         0x00000000   Number         0  printf6.o ABSOLUTE
    ../clib/microlib/printf/printf.c         0x00000000   Number         0  printf7.o ABSOLUTE
    ../clib/microlib/printf/printf.c         0x00000000   Number         0  printf8.o ABSOLUTE
    ../clib/microlib/printf/printf.c         0x00000000   Number         0  printfa.o ABSOLUTE
    ../clib/microlib/printf/stubs.s          0x00000000   Number         0  printfstubs.o ABSOLUTE
    ../clib/microlib/stdio/fputs.c           0x00000000   Number         0  fputs.o ABSOLUTE
    ../clib/microlib/stdio/fputs.c           0x00000000   Number         0  fputs_e.o ABSOLUTE
    ../clib/microlib/stdio/fwrite.c          0x00000000   Number         0  fwrite.o ABSOLUTE
    ../clib/microlib/stdio/fwrite.c          0x00000000   Number         0  fwrite_e.o ABSOLUTE
    ../clib/microlib/stdio/streams.c         0x00000000   Number         0  stderr.o ABSOLUTE
    ../clib/microlib/stdio/streams.c         0x00000000   Number         0  stdout.o ABSOLUTE
    ../clib/microlib/stdlib/qsort.c          0x00000000   Number         0  qsort.o ABSOLUTE
    ../clib/microlib/string/memcpy.c         0x00000000   Number         0  memcpya.o ABSOLUTE
    ../clib/microlib/string/memcpy.c         0x00000000   Number         0  memcpyb.o ABSOLUTE
    ../clib/microlib/string/memset.c         0x00000000   Number         0  memseta.o ABSOLUTE
    ../clib/microlib/stubs.s                 0x00000000   Number         0  iusefp.o ABSOLUTE
    ../fplib/microlib/f2d.c                  0x00000000   Number         0  f2d.o ABSOLUTE
    ../fplib/microlib/fpadd.c                0x00000000   Number         0  dadd.o ABSOLUTE
    ../fplib/microlib/fpdiv.c                0x00000000   Number         0  ddiv.o ABSOLUTE
    ../fplib/microlib/fpepilogue.c           0x00000000   Number         0  depilogue.o ABSOLUTE
    ../fplib/microlib/fpfix.c                0x00000000   Number         0  dfixul.o ABSOLUTE
    ../fplib/microlib/fpmul.c                0x00000000   Number         0  dmul.o ABSOLUTE
    Arm/startup_gd32f30x_hd.s                0x00000000   Number         0  startup_gd32f30x_hd.o ABSOLUTE
    cdrcmple.s                               0x00000000   Number         0  cdrcmple.o ABSOLUTE
    dc.s                                     0x00000000   Number         0  dc.o ABSOLUTE
    delay.c                                  0x00000000   Number         0  delay.o ABSOLUTE
    gd32f30x_adc.c                           0x00000000   Number         0  gd32f30x_adc.o ABSOLUTE
    gd32f30x_gpio.c                          0x00000000   Number         0  gd32f30x_gpio.o ABSOLUTE
    gd32f30x_misc.c                          0x00000000   Number         0  gd32f30x_misc.o ABSOLUTE
    gd32f30x_pmu.c                           0x00000000   Number         0  gd32f30x_pmu.o ABSOLUTE
    gd32f30x_rcu.c                           0x00000000   Number         0  gd32f30x_rcu.o ABSOLUTE
    gd32f30x_timer.c                         0x00000000   Number         0  gd32f30x_timer.o ABSOLUTE
    gd32f30x_usart.c                         0x00000000   Number         0  gd32f30x_usart.o ABSOLUTE
    handlers.s                               0x00000000   Number         0  handlers.o ABSOLUTE
    hmi_app.c                                0x00000000   Number         0  hmi_app.o ABSOLUTE
    init.s                                   0x00000000   Number         0  init.o ABSOLUTE
    key_drv.c                                0x00000000   Number         0  key_drv.o ABSOLUTE
    led_drv.c                                0x00000000   Number         0  led_drv.o ABSOLUTE
    main.c                                   0x00000000   Number         0  main.o ABSOLUTE
    mb.c                                     0x00000000   Number         0  mb.o ABSOLUTE
    mbcrc.c                                  0x00000000   Number         0  mbcrc.o ABSOLUTE
    mbfuncholding.c                          0x00000000   Number         0  mbfuncholding.o ABSOLUTE
    mbrtu.c                                  0x00000000   Number         0  mbrtu.o ABSOLUTE
    mbutils.c                                0x00000000   Number         0  mbutils.o ABSOLUTE
    modbus_app.c                             0x00000000   Number         0  modbus_app.o ABSOLUTE
    modbus_slave.c                           0x00000000   Number         0  modbus_slave.o ABSOLUTE
    ntc_drv.c                                0x00000000   Number         0  ntc_drv.o ABSOLUTE
    portevent.c                              0x00000000   Number         0  portevent.o ABSOLUTE
    portserial.c                             0x00000000   Number         0  portserial.o ABSOLUTE
    porttimer.c                              0x00000000   Number         0  porttimer.o ABSOLUTE
    queue.c                                  0x00000000   Number         0  queue.o ABSOLUTE
    retarget_io.c                            0x00000000   Number         0  retarget_io.o ABSOLUTE
    rh_drv.c                                 0x00000000   Number         0  rh_drv.o ABSOLUTE
    sensor_app.c                             0x00000000   Number         0  sensor_app.o ABSOLUTE
    sensor_drv.c                             0x00000000   Number         0  sensor_drv.o ABSOLUTE
    system_gd32f30x.c                        0x00000000   Number         0  system_gd32f30x.o ABSOLUTE
    systick.c                                0x00000000   Number         0  systick.o ABSOLUTE
    usb2com_drv.c                            0x00000000   Number         0  usb2com_drv.o ABSOLUTE
    RESET                                    0x08000000   Section      304  startup_gd32f30x_hd.o(RESET)
    .ARM.Collect$$$$00000000                 0x08000130   Section        0  entry.o(.ARM.Collect$$$$00000000)
    .ARM.Collect$$$$00000001                 0x08000130   Section        4  entry2.o(.ARM.Collect$$$$00000001)
    .ARM.Collect$$$$00000004                 0x08000134   Section        4  entry5.o(.ARM.Collect$$$$00000004)
    .ARM.Collect$$$$00000008                 0x08000138   Section        0  entry7b.o(.ARM.Collect$$$$00000008)
    .ARM.Collect$$$$0000000A                 0x08000138   Section        0  entry8b.o(.ARM.Collect$$$$0000000A)
    .ARM.Collect$$$$0000000B                 0x08000138   Section        8  entry9a.o(.ARM.Collect$$$$0000000B)
    __lit__00000000                          0x08000140   Data           4  entry2.o(.ARM.Collect$$$$00002712)
    .ARM.Collect$$$$0000000D                 0x08000140   Section        0  entry10a.o(.ARM.Collect$$$$0000000D)
    .ARM.Collect$$$$0000000F                 0x08000140   Section        0  entry11a.o(.ARM.Collect$$$$0000000F)
    .ARM.Collect$$$$00002712                 0x08000140   Section        4  entry2.o(.ARM.Collect$$$$00002712)
    $v0                                      0x08000144   Number         0  startup_gd32f30x_hd.o(.text)
    .text                                    0x08000144   Section       36  startup_gd32f30x_hd.o(.text)
    .text                                    0x08000168   Section        0  qsort.o(.text)
    .text                                    0x08000204   Section        0  memcpya.o(.text)
    .text                                    0x08000228   Section        0  memseta.o(.text)
    .text                                    0x0800024c   Section        0  f2d.o(.text)
    .text                                    0x08000272   Section        0  uidiv.o(.text)
    .text                                    0x0800029e   Section        0  uldiv.o(.text)
    .text                                    0x08000300   Section        0  iusefp.o(.text)
    .text                                    0x08000300   Section        0  dadd.o(.text)
    .text                                    0x0800044e   Section        0  dmul.o(.text)
    .text                                    0x08000532   Section        0  ddiv.o(.text)
    .text                                    0x08000610   Section        0  dfixul.o(.text)
    .text                                    0x08000640   Section       48  cdrcmple.o(.text)
    .text                                    0x08000670   Section       48  init.o(.text)
    .text                                    0x080006a0   Section        0  llshl.o(.text)
    .text                                    0x080006be   Section        0  llushr.o(.text)
    .text                                    0x080006de   Section        0  llsshr.o(.text)
    .text                                    0x08000702   Section        0  depilogue.o(.text)
    Compare                                  0x080007bd   Thumb Code     8  ntc_drv.o(.text.Compare)
    [Anonymous Symbol]                       0x080007bc   Section        0  ntc_drv.o(.text.Compare)
    [Anonymous Symbol]                       0x080007c4   Section        0  delay.o(.text.DelayNus)
    [Anonymous Symbol]                       0x080007f4   Section        0  delay.o(.text.DwtDelayInit)
    [Anonymous Symbol]                       0x0800082c   Section        0  rh_drv.o(.text.GetHumiData)
    [Anonymous Symbol]                       0x08000838   Section        0  sensor_drv.o(.text.GetSensorData)
    [Anonymous Symbol]                       0x08000858   Section        0  ntc_drv.o(.text.GetTempData)
    [Anonymous Symbol]                       0x08000868   Section        0  hmi_app.o(.text.HmiTask)
    [Anonymous Symbol]                       0x080008bc   Section        0  rh_drv.o(.text.HumiDrvInit)
    [Anonymous Symbol]                       0x080009d8   Section        0  rh_drv.o(.text.HumiSensorProc)
    [Anonymous Symbol]                       0x08000ad8   Section        0  led_drv.o(.text.LedDrvInit)
    [Anonymous Symbol]                       0x08000b14   Section        0  modbus_app.o(.text.ModbusAppInit)
    [Anonymous Symbol]                       0x08000b44   Section        0  modbus_app.o(.text.ModbusAppTask)
    ModbusGetHumi                            0x08000b49   Thumb Code    36  modbus_app.o(.text.ModbusGetHumi)
    [Anonymous Symbol]                       0x08000b48   Section        0  modbus_app.o(.text.ModbusGetHumi)
    ModbusGetTemp                            0x08000b6d   Thumb Code    38  modbus_app.o(.text.ModbusGetTemp)
    [Anonymous Symbol]                       0x08000b6c   Section        0  modbus_app.o(.text.ModbusGetTemp)
    ModbusSetLed1                            0x08000b95   Thumb Code    14  modbus_app.o(.text.ModbusSetLed1)
    [Anonymous Symbol]                       0x08000b94   Section        0  modbus_app.o(.text.ModbusSetLed1)
    ModbusSetLed2                            0x08000ba5   Thumb Code    14  modbus_app.o(.text.ModbusSetLed2)
    [Anonymous Symbol]                       0x08000ba4   Section        0  modbus_app.o(.text.ModbusSetLed2)
    ModbusSetLed3                            0x08000bb5   Thumb Code    14  modbus_app.o(.text.ModbusSetLed3)
    [Anonymous Symbol]                       0x08000bb4   Section        0  modbus_app.o(.text.ModbusSetLed3)
    [Anonymous Symbol]                       0x08000bc4   Section        0  modbus_slave.o(.text.ModbusSlaveInit)
    ReadHoldingRegistersCb                   0x08000bf9   Thumb Code   190  modbus_app.o(.text.ReadHoldingRegistersCb)
    [Anonymous Symbol]                       0x08000bf8   Section        0  modbus_app.o(.text.ReadHoldingRegistersCb)
    [Anonymous Symbol]                       0x08000cb8   Section        0  sensor_app.o(.text.SensorAppTask)
    [Anonymous Symbol]                       0x08000cbc   Section        0  sensor_drv.o(.text.SensorDrvInit)
    [Anonymous Symbol]                       0x08000ccc   Section        0  sensor_drv.o(.text.SensorDrvProc)
    [Anonymous Symbol]                       0x08000ce8   Section        0  systick.o(.text.SysTick_Handler)
    [Anonymous Symbol]                       0x08000d10   Section        0  system_gd32f30x.o(.text.SystemInit)
    [Anonymous Symbol]                       0x08000eb8   Section        0  systick.o(.text.SystickInit)
    [Anonymous Symbol]                       0x08000f00   Section        0  porttimer.o(.text.TIMER3_IRQHandler)
    [Anonymous Symbol]                       0x08000f38   Section        0  rh_drv.o(.text.TIMER4_IRQHandler)
    TaskSchedule                             0x08000fed   Thumb Code    56  main.o(.text.TaskSchedule)
    [Anonymous Symbol]                       0x08000fec   Section        0  main.o(.text.TaskSchedule)
    [Anonymous Symbol]                       0x08001024   Section        0  systick.o(.text.TaskScheduleCbReg)
    [Anonymous Symbol]                       0x08001030   Section        0  ntc_drv.o(.text.TempDrvInit)
    [Anonymous Symbol]                       0x080010e0   Section        0  ntc_drv.o(.text.TempSensorProc)
    [Anonymous Symbol]                       0x08001218   Section        0  led_drv.o(.text.TurnOffLed)
    [Anonymous Symbol]                       0x08001238   Section        0  led_drv.o(.text.TurnOnLed)
    [Anonymous Symbol]                       0x08001258   Section        0  usb2com_drv.o(.text.USART0_IRQHandler)
    [Anonymous Symbol]                       0x08001298   Section        0  portserial.o(.text.USART1_IRQHandler)
    [Anonymous Symbol]                       0x080012f4   Section        0  usb2com_drv.o(.text.Usb2ComDrvInit)
    WriteHoldingRegistersCb                  0x08001379   Thumb Code   234  modbus_app.o(.text.WriteHoldingRegistersCb)
    [Anonymous Symbol]                       0x08001378   Section        0  modbus_app.o(.text.WriteHoldingRegistersCb)
    [Anonymous Symbol]                       0x08001464   Section        0  retarget_io.o(.text.__aeabi_assert)
    [Anonymous Symbol]                       0x08001514   Section        0  retarget_io.o(.text.abort)
    [Anonymous Symbol]                       0x08001518   Section        0  gd32f30x_adc.o(.text.adc_calibration_enable)
    [Anonymous Symbol]                       0x08001538   Section        0  gd32f30x_adc.o(.text.adc_channel_length_config)
    [Anonymous Symbol]                       0x08001574   Section        0  gd32f30x_adc.o(.text.adc_data_alignment_config)
    [Anonymous Symbol]                       0x08001588   Section        0  gd32f30x_adc.o(.text.adc_deinit)
    [Anonymous Symbol]                       0x080015d0   Section        0  gd32f30x_adc.o(.text.adc_enable)
    [Anonymous Symbol]                       0x080015e4   Section        0  gd32f30x_adc.o(.text.adc_external_trigger_config)
    [Anonymous Symbol]                       0x08001624   Section        0  gd32f30x_adc.o(.text.adc_external_trigger_source_config)
    [Anonymous Symbol]                       0x08001648   Section        0  gd32f30x_adc.o(.text.adc_flag_clear)
    [Anonymous Symbol]                       0x08001650   Section        0  gd32f30x_adc.o(.text.adc_flag_get)
    [Anonymous Symbol]                       0x0800165c   Section        0  gd32f30x_adc.o(.text.adc_mode_config)
    [Anonymous Symbol]                       0x08001674   Section        0  gd32f30x_adc.o(.text.adc_oversample_mode_config)
    [Anonymous Symbol]                       0x080016a4   Section        0  gd32f30x_adc.o(.text.adc_oversample_mode_enable)
    [Anonymous Symbol]                       0x080016b4   Section        0  gd32f30x_adc.o(.text.adc_regular_channel_config)
    [Anonymous Symbol]                       0x08001728   Section        0  gd32f30x_adc.o(.text.adc_regular_data_read)
    [Anonymous Symbol]                       0x08001730   Section        0  gd32f30x_adc.o(.text.adc_resolution_config)
    [Anonymous Symbol]                       0x08001748   Section        0  gd32f30x_adc.o(.text.adc_software_trigger_enable)
    [Anonymous Symbol]                       0x08001764   Section        0  gd32f30x_adc.o(.text.adc_special_function_config)
    [Anonymous Symbol]                       0x080017c0   Section        0  mb.o(.text.eMBEnable)
    [Anonymous Symbol]                       0x080017e0   Section        0  mbfuncholding.o(.text.eMBFuncReadHoldingRegister)
    [Anonymous Symbol]                       0x08001848   Section        0  mbfuncholding.o(.text.eMBFuncWriteHoldingRegister)
    [Anonymous Symbol]                       0x08001878   Section        0  mbfuncholding.o(.text.eMBFuncWriteMultipleHoldingRegister)
    [Anonymous Symbol]                       0x080018c8   Section        0  mb.o(.text.eMBInit)
    [Anonymous Symbol]                       0x08001954   Section        0  mb.o(.text.eMBPoll)
    [Anonymous Symbol]                       0x08001a60   Section        0  mbrtu.o(.text.eMBRTUInit)
    [Anonymous Symbol]                       0x08001aa0   Section        0  mbrtu.o(.text.eMBRTUReceive)
    [Anonymous Symbol]                       0x08001b28   Section        0  mbrtu.o(.text.eMBRTUSend)
    [Anonymous Symbol]                       0x08001bac   Section        0  mbrtu.o(.text.eMBRTUStart)
    [Anonymous Symbol]                       0x08001bc8   Section        0  modbus_slave.o(.text.eMBRegHoldingCB)
    [Anonymous Symbol]                       0x08001be0   Section        0  usb2com_drv.o(.text.fputc)
    [Anonymous Symbol]                       0x08001c04   Section        0  gd32f30x_gpio.o(.text.gpio_bit_reset)
    [Anonymous Symbol]                       0x08001c08   Section        0  gd32f30x_gpio.o(.text.gpio_bit_set)
    [Anonymous Symbol]                       0x08001c0c   Section        0  gd32f30x_gpio.o(.text.gpio_bit_write)
    [Anonymous Symbol]                       0x08001c18   Section        0  gd32f30x_gpio.o(.text.gpio_init)
    [Anonymous Symbol]                       0x08001cd0   Section        0  gd32f30x_gpio.o(.text.gpio_output_bit_get)
    [Anonymous Symbol]                       0x08001cdc   Section        0  main.o(.text.main)
    [Anonymous Symbol]                       0x08001d30   Section        0  gd32f30x_misc.o(.text.nvic_irq_enable)
    [Anonymous Symbol]                       0x08001dd4   Section        0  mbutils.o(.text.prveMBError2Exception)
    [Anonymous Symbol]                       0x08001df0   Section        0  gd32f30x_rcu.o(.text.rcu_adc_clock_config)
    [Anonymous Symbol]                       0x08001e64   Section        0  gd32f30x_rcu.o(.text.rcu_clock_freq_get)
    [Anonymous Symbol]                       0x08001f34   Section        0  gd32f30x_rcu.o(.text.rcu_periph_clock_enable)
    [Anonymous Symbol]                       0x08001f54   Section        0  gd32f30x_rcu.o(.text.rcu_periph_reset_disable)
    [Anonymous Symbol]                       0x08001f74   Section        0  gd32f30x_rcu.o(.text.rcu_periph_reset_enable)
    [Anonymous Symbol]                       0x08001f94   Section        0  gd32f30x_timer.o(.text.timer_counter_value_config)
    [Anonymous Symbol]                       0x08001f98   Section        0  gd32f30x_timer.o(.text.timer_deinit)
    [Anonymous Symbol]                       0x0800205c   Section        0  gd32f30x_timer.o(.text.timer_disable)
    [Anonymous Symbol]                       0x08002068   Section        0  gd32f30x_timer.o(.text.timer_enable)
    [Anonymous Symbol]                       0x08002074   Section        0  gd32f30x_timer.o(.text.timer_init)
    [Anonymous Symbol]                       0x08002128   Section        0  gd32f30x_timer.o(.text.timer_interrupt_disable)
    [Anonymous Symbol]                       0x08002134   Section        0  gd32f30x_timer.o(.text.timer_interrupt_enable)
    [Anonymous Symbol]                       0x0800213c   Section        0  gd32f30x_timer.o(.text.timer_interrupt_flag_clear)
    [Anonymous Symbol]                       0x08002144   Section        0  gd32f30x_timer.o(.text.timer_interrupt_flag_get)
    [Anonymous Symbol]                       0x0800215c   Section        0  gd32f30x_timer.o(.text.timer_struct_para_init)
    [Anonymous Symbol]                       0x0800216c   Section        0  mbcrc.o(.text.usMBCRC16)
    [Anonymous Symbol]                       0x080021b4   Section        0  gd32f30x_usart.o(.text.usart_baudrate_set)
    [Anonymous Symbol]                       0x08002220   Section        0  gd32f30x_usart.o(.text.usart_data_first_config)
    [Anonymous Symbol]                       0x08002238   Section        0  gd32f30x_usart.o(.text.usart_data_receive)
    [Anonymous Symbol]                       0x08002240   Section        0  gd32f30x_usart.o(.text.usart_data_transmit)
    [Anonymous Symbol]                       0x08002248   Section        0  gd32f30x_usart.o(.text.usart_deinit)
    [Anonymous Symbol]                       0x080022c4   Section        0  gd32f30x_usart.o(.text.usart_enable)
    [Anonymous Symbol]                       0x080022d0   Section        0  gd32f30x_usart.o(.text.usart_flag_get)
    [Anonymous Symbol]                       0x080022e0   Section        0  gd32f30x_usart.o(.text.usart_interrupt_disable)
    [Anonymous Symbol]                       0x080022f8   Section        0  gd32f30x_usart.o(.text.usart_interrupt_enable)
    [Anonymous Symbol]                       0x08002310   Section        0  gd32f30x_usart.o(.text.usart_interrupt_flag_clear)
    [Anonymous Symbol]                       0x08002324   Section        0  gd32f30x_usart.o(.text.usart_interrupt_flag_get)
    [Anonymous Symbol]                       0x08002348   Section        0  gd32f30x_usart.o(.text.usart_parity_config)
    [Anonymous Symbol]                       0x08002358   Section        0  gd32f30x_usart.o(.text.usart_receive_config)
    [Anonymous Symbol]                       0x0800236c   Section        0  gd32f30x_usart.o(.text.usart_stop_bit_set)
    [Anonymous Symbol]                       0x0800237c   Section        0  gd32f30x_usart.o(.text.usart_transmit_config)
    [Anonymous Symbol]                       0x08002390   Section        0  gd32f30x_usart.o(.text.usart_word_length_set)
    [Anonymous Symbol]                       0x080023a0   Section        0  portserial.o(.text.vMBPortSerialEnable)
    [Anonymous Symbol]                       0x08002400   Section        0  porttimer.o(.text.vMBPortTimersDisable)
    [Anonymous Symbol]                       0x0800242c   Section        0  porttimer.o(.text.vMBPortTimersEnable)
    [Anonymous Symbol]                       0x08002458   Section        0  portevent.o(.text.xMBPortEventGet)
    [Anonymous Symbol]                       0x08002480   Section        0  portevent.o(.text.xMBPortEventInit)
    [Anonymous Symbol]                       0x08002490   Section        0  portevent.o(.text.xMBPortEventPost)
    [Anonymous Symbol]                       0x080024ac   Section        0  portserial.o(.text.xMBPortSerialGetByte)
    [Anonymous Symbol]                       0x080024c4   Section        0  portserial.o(.text.xMBPortSerialInit)
    [Anonymous Symbol]                       0x08002564   Section        0  portserial.o(.text.xMBPortSerialPutByte)
    [Anonymous Symbol]                       0x08002578   Section        0  porttimer.o(.text.xMBPortTimersInit)
    [Anonymous Symbol]                       0x080025cc   Section        0  mbrtu.o(.text.xMBRTUReceiveFSM)
    [Anonymous Symbol]                       0x08002684   Section        0  mbrtu.o(.text.xMBRTUTimerT35Expired)
    [Anonymous Symbol]                       0x080026dc   Section        0  mbrtu.o(.text.xMBRTUTransmitFSM)
    i.__0printf                              0x0800277c   Section        0  printfa.o(i.__0printf)
    i.__scatterload_copy                     0x0800279c   Section       14  handlers.o(i.__scatterload_copy)
    i.__scatterload_null                     0x080027aa   Section        2  handlers.o(i.__scatterload_null)
    i.__scatterload_zeroinit                 0x080027ac   Section       14  handlers.o(i.__scatterload_zeroinit)
    _fp_digits                               0x080027bd   Thumb Code   366  printfa.o(i._fp_digits)
    i._fp_digits                             0x080027bc   Section        0  printfa.o(i._fp_digits)
    _printf_core                             0x08002941   Thumb Code  1744  printfa.o(i._printf_core)
    i._printf_core                           0x08002940   Section        0  printfa.o(i._printf_core)
    _printf_post_padding                     0x0800301d   Thumb Code    36  printfa.o(i._printf_post_padding)
    i._printf_post_padding                   0x0800301c   Section        0  printfa.o(i._printf_post_padding)
    _printf_pre_padding                      0x08003041   Thumb Code    46  printfa.o(i._printf_pre_padding)
    i._printf_pre_padding                    0x08003040   Section        0  printfa.o(i._printf_pre_padding)
    i.fputs                                  0x0800306e   Section        0  fputs.o(i.fputs)
    i.free                                   0x08003088   Section        0  malloc.o(i.free)
    i.fwrite                                 0x080030d8   Section        0  fwrite.o(i.fwrite)
    i.malloc                                 0x08003100   Section        0  malloc.o(i.malloc)
    aucCRCHi                                 0x0800316c   Data         256  mbcrc.o(.rodata.aucCRCHi)
    [Anonymous Symbol]                       0x0800316c   Section        0  mbcrc.o(.rodata.aucCRCHi)
    aucCRCLo                                 0x0800326c   Data         256  mbcrc.o(.rodata.aucCRCLo)
    [Anonymous Symbol]                       0x0800326c   Section        0  mbcrc.o(.rodata.aucCRCLo)
    .L__const.rcu_clock_freq_get.apb2_exp    0x0800336c   Data           8  gd32f30x_rcu.o(.rodata.cst8)
    g_ledList                                0x08003374   Data          36  led_drv.o(.rodata.g_ledList)
    [Anonymous Symbol]                       0x08003374   Section        0  led_drv.o(.rodata.g_ledList)
    g_ntcAdcTable                            0x08003398   Data         200  ntc_drv.o(.rodata.g_ntcAdcTable)
    [Anonymous Symbol]                       0x08003398   Section        0  ntc_drv.o(.rodata.g_ntcAdcTable)
    g_regInstanceTab                         0x08003460   Data          80  modbus_app.o(.rodata.g_regInstanceTab)
    [Anonymous Symbol]                       0x08003460   Section        0  modbus_app.o(.rodata.g_regInstanceTab)
    g_rhAdcTable                             0x080034b0   Data         468  rh_drv.o(.rodata.g_rhAdcTable)
    [Anonymous Symbol]                       0x080034b0   Section        0  rh_drv.o(.rodata.g_rhAdcTable)
    .L.str.4                                 0x08003684   Data          93  mbrtu.o(.rodata.str1.1)
    [Anonymous Symbol]                       0x08003684   Section        0  mbrtu.o(.rodata.str1.1)
    .L.str.1                                 0x080036e1   Data          30  mbrtu.o(.rodata.str1.1)
    .data                                    0x20000000   Section        4  stderr.o(.data)
    .data                                    0x20000004   Section        4  stdout.o(.data)
    .data                                    0x20000008   Section        4  mvars.o(.data)
    .data                                    0x2000000c   Section        4  mvars.o(.data)
    eMBState                                 0x20000010   Data           1  mb.o(.data.eMBState)
    [Anonymous Symbol]                       0x20000010   Section        0  mb.o(.data.eMBState)
    g_taskComps                              0x20000030   Data          36  main.o(.data.g_taskComps)
    [Anonymous Symbol]                       0x20000030   Section        0  main.o(.data.g_taskComps)
    xFuncHandlers                            0x20000054   Data         128  mb.o(.data.xFuncHandlers)
    [Anonymous Symbol]                       0x20000054   Section        0  mb.o(.data.xFuncHandlers)
    PushTemp10MulToBuf.s_index               0x200000d8   Data           1  ntc_drv.o(.bss.PushTemp10MulToBuf.s_index)
    [Anonymous Symbol]                       0x200000d8   Section        0  ntc_drv.o(.bss.PushTemp10MulToBuf.s_index)
    TIMER4_IRQHandler.s_timingNum            0x200000da   Data           2  rh_drv.o(.bss.TIMER4_IRQHandler.s_timingNum)
    [Anonymous Symbol]                       0x200000da   Section        0  rh_drv.o(.bss.TIMER4_IRQHandler.s_timingNum)
    TempSensorProc.s_convertNum              0x200000dc   Data           1  ntc_drv.o(.bss.TempSensorProc.s_convertNum)
    [Anonymous Symbol]                       0x200000dc   Section        0  ntc_drv.o(.bss.TempSensorProc.s_convertNum)
    eMBPoll.eException                       0x200000dd   Data           1  mb.o(.bss.eMBPoll.eException)
    [Anonymous Symbol]                       0x200000dd   Section        0  mb.o(.bss.eMBPoll.eException)
    eMBPoll.ucFunctionCode                   0x200000de   Data           1  mb.o(.bss.eMBPoll.ucFunctionCode)
    [Anonymous Symbol]                       0x200000de   Section        0  mb.o(.bss.eMBPoll.ucFunctionCode)
    eMBPoll.ucMBFrame                        0x200000e0   Data           4  mb.o(.bss.eMBPoll.ucMBFrame)
    [Anonymous Symbol]                       0x200000e0   Section        0  mb.o(.bss.eMBPoll.ucMBFrame)
    eMBPoll.ucRcvAddress                     0x200000e4   Data           1  mb.o(.bss.eMBPoll.ucRcvAddress)
    [Anonymous Symbol]                       0x200000e4   Section        0  mb.o(.bss.eMBPoll.ucRcvAddress)
    eMBPoll.usLength                         0x200000e6   Data           2  mb.o(.bss.eMBPoll.usLength)
    [Anonymous Symbol]                       0x200000e6   Section        0  mb.o(.bss.eMBPoll.usLength)
    eQueuedEvent                             0x200000e8   Data           1  portevent.o(.bss.eQueuedEvent)
    [Anonymous Symbol]                       0x200000e8   Section        0  portevent.o(.bss.eQueuedEvent)
    eRcvState                                0x200000e9   Data           1  mbrtu.o(.bss.eRcvState)
    [Anonymous Symbol]                       0x200000e9   Section        0  mbrtu.o(.bss.eRcvState)
    eSndState                                0x200000ea   Data           1  mbrtu.o(.bss.eSndState)
    [Anonymous Symbol]                       0x200000ea   Section        0  mbrtu.o(.bss.eSndState)
    g_adcVal                                 0x200000ec   Data           2  rh_drv.o(.bss.g_adcVal)
    [Anonymous Symbol]                       0x200000ec   Section        0  rh_drv.o(.bss.g_adcVal)
    g_humiData                               0x200000ee   Data           1  rh_drv.o(.bss.g_humiData)
    [Anonymous Symbol]                       0x200000ee   Section        0  rh_drv.o(.bss.g_humiData)
    g_modbusFuncCb                           0x200000f0   Data           8  modbus_slave.o(.bss.g_modbusFuncCb)
    [Anonymous Symbol]                       0x200000f0   Section        0  modbus_slave.o(.bss.g_modbusFuncCb)
    g_pProcUartData                          0x200000f8   Data           4  usb2com_drv.o(.bss.g_pProcUartData)
    [Anonymous Symbol]                       0x200000f8   Section        0  usb2com_drv.o(.bss.g_pProcUartData)
    g_pTaskScheduleFunc                      0x200000fc   Data           4  systick.o(.bss.g_pTaskScheduleFunc)
    [Anonymous Symbol]                       0x200000fc   Section        0  systick.o(.bss.g_pTaskScheduleFunc)
    g_systemRunTime                          0x20000100   Data           8  systick.o(.bss.g_systemRunTime)
    [Anonymous Symbol]                       0x20000100   Section        0  systick.o(.bss.g_systemRunTime)
    g_temp                                   0x20000108   Data           4  ntc_drv.o(.bss.g_temp)
    [Anonymous Symbol]                       0x20000108   Section        0  ntc_drv.o(.bss.g_temp)
    g_temp10MulBuf                           0x2000010c   Data          40  ntc_drv.o(.bss.g_temp10MulBuf)
    [Anonymous Symbol]                       0x2000010c   Section        0  ntc_drv.o(.bss.g_temp10MulBuf)
    pucSndBufferCur                          0x20000134   Data           4  mbrtu.o(.bss.pucSndBufferCur)
    [Anonymous Symbol]                       0x20000134   Section        0  mbrtu.o(.bss.pucSndBufferCur)
    ucMBAddress                              0x20000144   Data           1  mb.o(.bss.ucMBAddress)
    [Anonymous Symbol]                       0x20000144   Section        0  mb.o(.bss.ucMBAddress)
    usRcvBufferPos                           0x20000246   Data           2  mbrtu.o(.bss.usRcvBufferPos)
    [Anonymous Symbol]                       0x20000246   Section        0  mbrtu.o(.bss.usRcvBufferPos)
    usSndBufferCount                         0x20000248   Data           2  mbrtu.o(.bss.usSndBufferCount)
    [Anonymous Symbol]                       0x20000248   Section        0  mbrtu.o(.bss.usSndBufferCount)
    xEventInQueue                            0x2000024a   Data           1  portevent.o(.bss.xEventInQueue)
    [Anonymous Symbol]                       0x2000024a   Section        0  portevent.o(.bss.xEventInQueue)
    HEAP                                     0x20000250   Section     1024  startup_gd32f30x_hd.o(HEAP)
    STACK                                    0x20000650   Section    16384  startup_gd32f30x_hd.o(STACK)

    Global Symbols

    Symbol Name                              Value     Ov Type        Size  Object(Section)

    BuildAttributes$$THM_ISAv4$E$P$D$K$B$S$7EM$VFPi3$EXTD16$VFPS$VFMA$PE$A:L22UL41UL21$X:L11$S22US41US21$IEEE1$IW$~IW$USESV6$~STKCKD$USESV7$~SHL$OTIME$ROPI$EBA8$MICROLIB$REQ8$PRES8$EABIv2 0x00000000   Number         0  anon$$obj.o ABSOLUTE
    _printf_a                                0x00000000   Number         0  printfstubs.o ABSOLUTE
    _printf_c                                0x00000000   Number         0  printfstubs.o ABSOLUTE
    _printf_charcount                        0x00000000   Number         0  printfstubs.o ABSOLUTE
    _printf_d                                0x00000000   Number         0  printfstubs.o ABSOLUTE
    _printf_e                                0x00000000   Number         0  printfstubs.o ABSOLUTE
    _printf_f                                0x00000000   Number         0  printfstubs.o ABSOLUTE
    _printf_flags                            0x00000000   Number         0  printfstubs.o ABSOLUTE
    _printf_fp_dec                           0x00000000   Number         0  printfstubs.o ABSOLUTE
    _printf_fp_hex                           0x00000000   Number         0  printfstubs.o ABSOLUTE
    _printf_g                                0x00000000   Number         0  printfstubs.o ABSOLUTE
    _printf_i                                0x00000000   Number         0  printfstubs.o ABSOLUTE
    _printf_int_dec                          0x00000000   Number         0  printfstubs.o ABSOLUTE
    _printf_l                                0x00000000   Number         0  printfstubs.o ABSOLUTE
    _printf_lc                               0x00000000   Number         0  printfstubs.o ABSOLUTE
    _printf_ll                               0x00000000   Number         0  printfstubs.o ABSOLUTE
    _printf_lld                              0x00000000   Number         0  printfstubs.o ABSOLUTE
    _printf_lli                              0x00000000   Number         0  printfstubs.o ABSOLUTE
    _printf_llo                              0x00000000   Number         0  printfstubs.o ABSOLUTE
    _printf_llu                              0x00000000   Number         0  printfstubs.o ABSOLUTE
    _printf_llx                              0x00000000   Number         0  printfstubs.o ABSOLUTE
    _printf_longlong_dec                     0x00000000   Number         0  printfstubs.o ABSOLUTE
    _printf_longlong_hex                     0x00000000   Number         0  printfstubs.o ABSOLUTE
    _printf_longlong_oct                     0x00000000   Number         0  printfstubs.o ABSOLUTE
    _printf_ls                               0x00000000   Number         0  printfstubs.o ABSOLUTE
    _printf_mbtowc                           0x00000000   Number         0  printfstubs.o ABSOLUTE
    _printf_n                                0x00000000   Number         0  printfstubs.o ABSOLUTE
    _printf_o                                0x00000000   Number         0  printfstubs.o ABSOLUTE
    _printf_p                                0x00000000   Number         0  printfstubs.o ABSOLUTE
    _printf_percent                          0x00000000   Number         0  printfstubs.o ABSOLUTE
    _printf_pre_padding                      0x00000000   Number         0  printfstubs.o ABSOLUTE
    _printf_return_value                     0x00000000   Number         0  printfstubs.o ABSOLUTE
    _printf_s                                0x00000000   Number         0  printfstubs.o ABSOLUTE
    _printf_sizespec                         0x00000000   Number         0  printfstubs.o ABSOLUTE
    _printf_str                              0x00000000   Number         0  printfstubs.o ABSOLUTE
    _printf_truncate_signed                  0x00000000   Number         0  printfstubs.o ABSOLUTE
    _printf_truncate_unsigned                0x00000000   Number         0  printfstubs.o ABSOLUTE
    _printf_u                                0x00000000   Number         0  printfstubs.o ABSOLUTE
    _printf_wc                               0x00000000   Number         0  printfstubs.o ABSOLUTE
    _printf_wctomb                           0x00000000   Number         0  printfstubs.o ABSOLUTE
    _printf_widthprec                        0x00000000   Number         0  printfstubs.o ABSOLUTE
    _printf_x                                0x00000000   Number         0  printfstubs.o ABSOLUTE
    __cpp_initialize__aeabi_                  - Undefined Weak Reference
    __cxa_finalize                            - Undefined Weak Reference
    __decompress                              - Undefined Weak Reference
    _clock_init                               - Undefined Weak Reference
    _microlib_exit                            - Undefined Weak Reference
    __Vectors_Size                           0x00000130   Number         0  startup_gd32f30x_hd.o ABSOLUTE
    __Vectors                                0x08000000   Data           4  startup_gd32f30x_hd.o(RESET)
    __Vectors_End                            0x08000130   Data           0  startup_gd32f30x_hd.o(RESET)
    __main                                   0x08000131   Thumb Code     0  entry.o(.ARM.Collect$$$$00000000)
    _main_stk                                0x08000131   Thumb Code     0  entry2.o(.ARM.Collect$$$$00000001)
    _main_scatterload                        0x08000135   Thumb Code     0  entry5.o(.ARM.Collect$$$$00000004)
    __main_after_scatterload                 0x08000139   Thumb Code     0  entry5.o(.ARM.Collect$$$$00000004)
    _main_clock                              0x08000139   Thumb Code     0  entry7b.o(.ARM.Collect$$$$00000008)
    _main_cpp_init                           0x08000139   Thumb Code     0  entry8b.o(.ARM.Collect$$$$0000000A)
    _main_init                               0x08000139   Thumb Code     0  entry9a.o(.ARM.Collect$$$$0000000B)
    __rt_final_cpp                           0x08000141   Thumb Code     0  entry10a.o(.ARM.Collect$$$$0000000D)
    __rt_final_exit                          0x08000141   Thumb Code     0  entry11a.o(.ARM.Collect$$$$0000000F)
    Reset_Handler                            0x08000145   Thumb Code     8  startup_gd32f30x_hd.o(.text)
    NMI_Handler                              0x0800014d   Thumb Code     2  startup_gd32f30x_hd.o(.text)
    HardFault_Handler                        0x0800014f   Thumb Code     2  startup_gd32f30x_hd.o(.text)
    MemManage_Handler                        0x08000151   Thumb Code     2  startup_gd32f30x_hd.o(.text)
    BusFault_Handler                         0x08000153   Thumb Code     2  startup_gd32f30x_hd.o(.text)
    UsageFault_Handler                       0x08000155   Thumb Code     2  startup_gd32f30x_hd.o(.text)
    SVC_Handler                              0x08000157   Thumb Code     2  startup_gd32f30x_hd.o(.text)
    DebugMon_Handler                         0x08000159   Thumb Code     2  startup_gd32f30x_hd.o(.text)
    PendSV_Handler                           0x0800015b   Thumb Code     2  startup_gd32f30x_hd.o(.text)
    ADC0_1_IRQHandler                        0x0800015f   Thumb Code     0  startup_gd32f30x_hd.o(.text)
    ADC2_IRQHandler                          0x0800015f   Thumb Code     0  startup_gd32f30x_hd.o(.text)
    CAN0_EWMC_IRQHandler                     0x0800015f   Thumb Code     0  startup_gd32f30x_hd.o(.text)
    CAN0_RX1_IRQHandler                      0x0800015f   Thumb Code     0  startup_gd32f30x_hd.o(.text)
    DMA0_Channel0_IRQHandler                 0x0800015f   Thumb Code     0  startup_gd32f30x_hd.o(.text)
    DMA0_Channel1_IRQHandler                 0x0800015f   Thumb Code     0  startup_gd32f30x_hd.o(.text)
    DMA0_Channel2_IRQHandler                 0x0800015f   Thumb Code     0  startup_gd32f30x_hd.o(.text)
    DMA0_Channel3_IRQHandler                 0x0800015f   Thumb Code     0  startup_gd32f30x_hd.o(.text)
    DMA0_Channel4_IRQHandler                 0x0800015f   Thumb Code     0  startup_gd32f30x_hd.o(.text)
    DMA0_Channel5_IRQHandler                 0x0800015f   Thumb Code     0  startup_gd32f30x_hd.o(.text)
    DMA0_Channel6_IRQHandler                 0x0800015f   Thumb Code     0  startup_gd32f30x_hd.o(.text)
    DMA1_Channel0_IRQHandler                 0x0800015f   Thumb Code     0  startup_gd32f30x_hd.o(.text)
    DMA1_Channel1_IRQHandler                 0x0800015f   Thumb Code     0  startup_gd32f30x_hd.o(.text)
    DMA1_Channel2_IRQHandler                 0x0800015f   Thumb Code     0  startup_gd32f30x_hd.o(.text)
    DMA1_Channel3_4_IRQHandler               0x0800015f   Thumb Code     0  startup_gd32f30x_hd.o(.text)
    EXMC_IRQHandler                          0x0800015f   Thumb Code     0  startup_gd32f30x_hd.o(.text)
    EXTI0_IRQHandler                         0x0800015f   Thumb Code     0  startup_gd32f30x_hd.o(.text)
    EXTI10_15_IRQHandler                     0x0800015f   Thumb Code     0  startup_gd32f30x_hd.o(.text)
    EXTI1_IRQHandler                         0x0800015f   Thumb Code     0  startup_gd32f30x_hd.o(.text)
    EXTI2_IRQHandler                         0x0800015f   Thumb Code     0  startup_gd32f30x_hd.o(.text)
    EXTI3_IRQHandler                         0x0800015f   Thumb Code     0  startup_gd32f30x_hd.o(.text)
    EXTI4_IRQHandler                         0x0800015f   Thumb Code     0  startup_gd32f30x_hd.o(.text)
    EXTI5_9_IRQHandler                       0x0800015f   Thumb Code     0  startup_gd32f30x_hd.o(.text)
    FMC_IRQHandler                           0x0800015f   Thumb Code     0  startup_gd32f30x_hd.o(.text)
    I2C0_ER_IRQHandler                       0x0800015f   Thumb Code     0  startup_gd32f30x_hd.o(.text)
    I2C0_EV_IRQHandler                       0x0800015f   Thumb Code     0  startup_gd32f30x_hd.o(.text)
    I2C1_ER_IRQHandler                       0x0800015f   Thumb Code     0  startup_gd32f30x_hd.o(.text)
    I2C1_EV_IRQHandler                       0x0800015f   Thumb Code     0  startup_gd32f30x_hd.o(.text)
    LVD_IRQHandler                           0x0800015f   Thumb Code     0  startup_gd32f30x_hd.o(.text)
    RCU_CTC_IRQHandler                       0x0800015f   Thumb Code     0  startup_gd32f30x_hd.o(.text)
    RTC_Alarm_IRQHandler                     0x0800015f   Thumb Code     0  startup_gd32f30x_hd.o(.text)
    RTC_IRQHandler                           0x0800015f   Thumb Code     0  startup_gd32f30x_hd.o(.text)
    SDIO_IRQHandler                          0x0800015f   Thumb Code     0  startup_gd32f30x_hd.o(.text)
    SPI0_IRQHandler                          0x0800015f   Thumb Code     0  startup_gd32f30x_hd.o(.text)
    SPI1_IRQHandler                          0x0800015f   Thumb Code     0  startup_gd32f30x_hd.o(.text)
    SPI2_IRQHandler                          0x0800015f   Thumb Code     0  startup_gd32f30x_hd.o(.text)
    TAMPER_IRQHandler                        0x0800015f   Thumb Code     0  startup_gd32f30x_hd.o(.text)
    TIMER0_BRK_IRQHandler                    0x0800015f   Thumb Code     0  startup_gd32f30x_hd.o(.text)
    TIMER0_Channel_IRQHandler                0x0800015f   Thumb Code     0  startup_gd32f30x_hd.o(.text)
    TIMER0_TRG_CMT_IRQHandler                0x0800015f   Thumb Code     0  startup_gd32f30x_hd.o(.text)
    TIMER0_UP_IRQHandler                     0x0800015f   Thumb Code     0  startup_gd32f30x_hd.o(.text)
    TIMER1_IRQHandler                        0x0800015f   Thumb Code     0  startup_gd32f30x_hd.o(.text)
    TIMER2_IRQHandler                        0x0800015f   Thumb Code     0  startup_gd32f30x_hd.o(.text)
    TIMER5_IRQHandler                        0x0800015f   Thumb Code     0  startup_gd32f30x_hd.o(.text)
    TIMER6_IRQHandler                        0x0800015f   Thumb Code     0  startup_gd32f30x_hd.o(.text)
    TIMER7_BRK_IRQHandler                    0x0800015f   Thumb Code     0  startup_gd32f30x_hd.o(.text)
    TIMER7_Channel_IRQHandler                0x0800015f   Thumb Code     0  startup_gd32f30x_hd.o(.text)
    TIMER7_TRG_CMT_IRQHandler                0x0800015f   Thumb Code     0  startup_gd32f30x_hd.o(.text)
    TIMER7_UP_IRQHandler                     0x0800015f   Thumb Code     0  startup_gd32f30x_hd.o(.text)
    UART3_IRQHandler                         0x0800015f   Thumb Code     0  startup_gd32f30x_hd.o(.text)
    UART4_IRQHandler                         0x0800015f   Thumb Code     0  startup_gd32f30x_hd.o(.text)
    USART2_IRQHandler                        0x0800015f   Thumb Code     0  startup_gd32f30x_hd.o(.text)
    USBD_HP_CAN0_TX_IRQHandler               0x0800015f   Thumb Code     0  startup_gd32f30x_hd.o(.text)
    USBD_LP_CAN0_RX0_IRQHandler              0x0800015f   Thumb Code     0  startup_gd32f30x_hd.o(.text)
    USBD_WKUP_IRQHandler                     0x0800015f   Thumb Code     0  startup_gd32f30x_hd.o(.text)
    WWDGT_IRQHandler                         0x0800015f   Thumb Code     0  startup_gd32f30x_hd.o(.text)
    qsort                                    0x08000169   Thumb Code   156  qsort.o(.text)
    __aeabi_memcpy                           0x08000205   Thumb Code    36  memcpya.o(.text)
    __aeabi_memcpy4                          0x08000205   Thumb Code     0  memcpya.o(.text)
    __aeabi_memcpy8                          0x08000205   Thumb Code     0  memcpya.o(.text)
    __aeabi_memset                           0x08000229   Thumb Code    14  memseta.o(.text)
    __aeabi_memset4                          0x08000229   Thumb Code     0  memseta.o(.text)
    __aeabi_memset8                          0x08000229   Thumb Code     0  memseta.o(.text)
    __aeabi_memclr                           0x08000237   Thumb Code     4  memseta.o(.text)
    __aeabi_memclr4                          0x08000237   Thumb Code     0  memseta.o(.text)
    __aeabi_memclr8                          0x08000237   Thumb Code     0  memseta.o(.text)
    _memset$wrapper                          0x0800023b   Thumb Code    18  memseta.o(.text)
    __aeabi_f2d                              0x0800024d   Thumb Code    38  f2d.o(.text)
    __aeabi_uidiv                            0x08000273   Thumb Code     0  uidiv.o(.text)
    __aeabi_uidivmod                         0x08000273   Thumb Code    44  uidiv.o(.text)
    __aeabi_uldivmod                         0x0800029f   Thumb Code    98  uldiv.o(.text)
    __I$use$fp                               0x08000301   Thumb Code     0  iusefp.o(.text)
    __aeabi_dadd                             0x08000301   Thumb Code   322  dadd.o(.text)
    __aeabi_dsub                             0x08000443   Thumb Code     6  dadd.o(.text)
    __aeabi_drsub                            0x08000449   Thumb Code     6  dadd.o(.text)
    __aeabi_dmul                             0x0800044f   Thumb Code   228  dmul.o(.text)
    __aeabi_ddiv                             0x08000533   Thumb Code   222  ddiv.o(.text)
    __aeabi_d2ulz                            0x08000611   Thumb Code    48  dfixul.o(.text)
    __aeabi_cdrcmple                         0x08000641   Thumb Code    48  cdrcmple.o(.text)
    __scatterload                            0x08000671   Thumb Code    38  init.o(.text)
    __scatterload_rt2                        0x08000671   Thumb Code     0  init.o(.text)
    __aeabi_llsl                             0x080006a1   Thumb Code    30  llshl.o(.text)
    _ll_shift_l                              0x080006a1   Thumb Code     0  llshl.o(.text)
    __aeabi_llsr                             0x080006bf   Thumb Code    32  llushr.o(.text)
    _ll_ushift_r                             0x080006bf   Thumb Code     0  llushr.o(.text)
    __aeabi_lasr                             0x080006df   Thumb Code    36  llsshr.o(.text)
    _ll_sshift_r                             0x080006df   Thumb Code     0  llsshr.o(.text)
    _double_round                            0x08000703   Thumb Code    30  depilogue.o(.text)
    _double_epilogue                         0x08000721   Thumb Code   156  depilogue.o(.text)
    DelayNus                                 0x080007c5   Thumb Code    46  delay.o(.text.DelayNus)
    DwtDelayInit                             0x080007f5   Thumb Code    54  delay.o(.text.DwtDelayInit)
    GetHumiData                              0x0800082d   Thumb Code    12  rh_drv.o(.text.GetHumiData)
    GetSensorData                            0x08000839   Thumb Code    30  sensor_drv.o(.text.GetSensorData)
    GetTempData                              0x08000859   Thumb Code    14  ntc_drv.o(.text.GetTempData)
    HmiTask                                  0x08000869   Thumb Code    40  hmi_app.o(.text.HmiTask)
    HumiDrvInit                              0x080008bd   Thumb Code   282  rh_drv.o(.text.HumiDrvInit)
    HumiSensorProc                           0x080009d9   Thumb Code   256  rh_drv.o(.text.HumiSensorProc)
    LedDrvInit                               0x08000ad9   Thumb Code    58  led_drv.o(.text.LedDrvInit)
    ModbusAppInit                            0x08000b15   Thumb Code    32  modbus_app.o(.text.ModbusAppInit)
    ModbusAppTask                            0x08000b45   Thumb Code     4  modbus_app.o(.text.ModbusAppTask)
    ModbusSlaveInit                          0x08000bc5   Thumb Code    52  modbus_slave.o(.text.ModbusSlaveInit)
    SensorAppTask                            0x08000cb9   Thumb Code     4  sensor_app.o(.text.SensorAppTask)
    SensorDrvInit                            0x08000cbd   Thumb Code    14  sensor_drv.o(.text.SensorDrvInit)
    SensorDrvProc                            0x08000ccd   Thumb Code    26  sensor_drv.o(.text.SensorDrvProc)
    SysTick_Handler                          0x08000ce9   Thumb Code    40  systick.o(.text.SysTick_Handler)
    SystemInit                               0x08000d11   Thumb Code   424  system_gd32f30x.o(.text.SystemInit)
    SystickInit                              0x08000eb9   Thumb Code    70  systick.o(.text.SystickInit)
    TIMER3_IRQHandler                        0x08000f01   Thumb Code    56  porttimer.o(.text.TIMER3_IRQHandler)
    TIMER4_IRQHandler                        0x08000f39   Thumb Code   180  rh_drv.o(.text.TIMER4_IRQHandler)
    TaskScheduleCbReg                        0x08001025   Thumb Code    12  systick.o(.text.TaskScheduleCbReg)
    TempDrvInit                              0x08001031   Thumb Code   176  ntc_drv.o(.text.TempDrvInit)
    TempSensorProc                           0x080010e1   Thumb Code   312  ntc_drv.o(.text.TempSensorProc)
    TurnOffLed                               0x08001219   Thumb Code    30  led_drv.o(.text.TurnOffLed)
    TurnOnLed                                0x08001239   Thumb Code    30  led_drv.o(.text.TurnOnLed)
    USART0_IRQHandler                        0x08001259   Thumb Code    64  usb2com_drv.o(.text.USART0_IRQHandler)
    USART1_IRQHandler                        0x08001299   Thumb Code    90  portserial.o(.text.USART1_IRQHandler)
    Usb2ComDrvInit                           0x080012f5   Thumb Code   132  usb2com_drv.o(.text.Usb2ComDrvInit)
    __aeabi_assert                           0x08001465   Thumb Code   136  retarget_io.o(.text.__aeabi_assert)
    abort                                    0x08001515   Thumb Code     2  retarget_io.o(.text.abort)
    adc_calibration_enable                   0x08001519   Thumb Code    32  gd32f30x_adc.o(.text.adc_calibration_enable)
    adc_channel_length_config                0x08001539   Thumb Code    58  gd32f30x_adc.o(.text.adc_channel_length_config)
    adc_data_alignment_config                0x08001575   Thumb Code    18  gd32f30x_adc.o(.text.adc_data_alignment_config)
    adc_deinit                               0x08001589   Thumb Code    72  gd32f30x_adc.o(.text.adc_deinit)
    adc_enable                               0x080015d1   Thumb Code    18  gd32f30x_adc.o(.text.adc_enable)
    adc_external_trigger_config              0x080015e5   Thumb Code    62  gd32f30x_adc.o(.text.adc_external_trigger_config)
    adc_external_trigger_source_config       0x08001625   Thumb Code    34  gd32f30x_adc.o(.text.adc_external_trigger_source_config)
    adc_flag_clear                           0x08001649   Thumb Code     6  gd32f30x_adc.o(.text.adc_flag_clear)
    adc_flag_get                             0x08001651   Thumb Code    10  gd32f30x_adc.o(.text.adc_flag_get)
    adc_mode_config                          0x0800165d   Thumb Code    24  gd32f30x_adc.o(.text.adc_mode_config)
    adc_oversample_mode_config               0x08001675   Thumb Code    48  gd32f30x_adc.o(.text.adc_oversample_mode_config)
    adc_oversample_mode_enable               0x080016a5   Thumb Code    14  gd32f30x_adc.o(.text.adc_oversample_mode_enable)
    adc_regular_channel_config               0x080016b5   Thumb Code   116  gd32f30x_adc.o(.text.adc_regular_channel_config)
    adc_regular_data_read                    0x08001729   Thumb Code     6  gd32f30x_adc.o(.text.adc_regular_data_read)
    adc_resolution_config                    0x08001731   Thumb Code    24  gd32f30x_adc.o(.text.adc_resolution_config)
    adc_software_trigger_enable              0x08001749   Thumb Code    28  gd32f30x_adc.o(.text.adc_software_trigger_enable)
    adc_special_function_config              0x08001765   Thumb Code    90  gd32f30x_adc.o(.text.adc_special_function_config)
    eMBEnable                                0x080017c1   Thumb Code    30  mb.o(.text.eMBEnable)
    eMBFuncReadHoldingRegister               0x080017e1   Thumb Code   102  mbfuncholding.o(.text.eMBFuncReadHoldingRegister)
    eMBFuncWriteHoldingRegister              0x08001849   Thumb Code    46  mbfuncholding.o(.text.eMBFuncWriteHoldingRegister)
    eMBFuncWriteMultipleHoldingRegister      0x08001879   Thumb Code    78  mbfuncholding.o(.text.eMBFuncWriteMultipleHoldingRegister)
    eMBInit                                  0x080018c9   Thumb Code   138  mb.o(.text.eMBInit)
    eMBPoll                                  0x08001955   Thumb Code   268  mb.o(.text.eMBPoll)
    eMBRTUInit                               0x08001a61   Thumb Code    64  mbrtu.o(.text.eMBRTUInit)
    eMBRTUReceive                            0x08001aa1   Thumb Code    96  mbrtu.o(.text.eMBRTUReceive)
    eMBRTUSend                               0x08001b29   Thumb Code   132  mbrtu.o(.text.eMBRTUSend)
    eMBRTUStart                              0x08001bad   Thumb Code    28  mbrtu.o(.text.eMBRTUStart)
    eMBRegHoldingCB                          0x08001bc9   Thumb Code    22  modbus_slave.o(.text.eMBRegHoldingCB)
    fputc                                    0x08001be1   Thumb Code    36  usb2com_drv.o(.text.fputc)
    gpio_bit_reset                           0x08001c05   Thumb Code     4  gd32f30x_gpio.o(.text.gpio_bit_reset)
    gpio_bit_set                             0x08001c09   Thumb Code     4  gd32f30x_gpio.o(.text.gpio_bit_set)
    gpio_bit_write                           0x08001c0d   Thumb Code    12  gd32f30x_gpio.o(.text.gpio_bit_write)
    gpio_init                                0x08001c19   Thumb Code   182  gd32f30x_gpio.o(.text.gpio_init)
    gpio_output_bit_get                      0x08001cd1   Thumb Code    10  gd32f30x_gpio.o(.text.gpio_output_bit_get)
    main                                     0x08001cdd   Thumb Code    84  main.o(.text.main)
    nvic_irq_enable                          0x08001d31   Thumb Code   164  gd32f30x_misc.o(.text.nvic_irq_enable)
    prveMBError2Exception                    0x08001dd5   Thumb Code    26  mbutils.o(.text.prveMBError2Exception)
    rcu_adc_clock_config                     0x08001df1   Thumb Code   114  gd32f30x_rcu.o(.text.rcu_adc_clock_config)
    rcu_clock_freq_get                       0x08001e65   Thumb Code   192  gd32f30x_rcu.o(.text.rcu_clock_freq_get)
    rcu_periph_clock_enable                  0x08001f35   Thumb Code    30  gd32f30x_rcu.o(.text.rcu_periph_clock_enable)
    rcu_periph_reset_disable                 0x08001f55   Thumb Code    32  gd32f30x_rcu.o(.text.rcu_periph_reset_disable)
    rcu_periph_reset_enable                  0x08001f75   Thumb Code    30  gd32f30x_rcu.o(.text.rcu_periph_reset_enable)
    timer_counter_value_config               0x08001f95   Thumb Code     4  gd32f30x_timer.o(.text.timer_counter_value_config)
    timer_deinit                             0x08001f99   Thumb Code   194  gd32f30x_timer.o(.text.timer_deinit)
    timer_disable                            0x0800205d   Thumb Code    10  gd32f30x_timer.o(.text.timer_disable)
    timer_enable                             0x08002069   Thumb Code    10  gd32f30x_timer.o(.text.timer_enable)
    timer_init                               0x08002075   Thumb Code   180  gd32f30x_timer.o(.text.timer_init)
    timer_interrupt_disable                  0x08002129   Thumb Code    10  gd32f30x_timer.o(.text.timer_interrupt_disable)
    timer_interrupt_enable                   0x08002135   Thumb Code     8  gd32f30x_timer.o(.text.timer_interrupt_enable)
    timer_interrupt_flag_clear               0x0800213d   Thumb Code     6  gd32f30x_timer.o(.text.timer_interrupt_flag_clear)
    timer_interrupt_flag_get                 0x08002145   Thumb Code    22  gd32f30x_timer.o(.text.timer_interrupt_flag_get)
    timer_struct_para_init                   0x0800215d   Thumb Code    16  gd32f30x_timer.o(.text.timer_struct_para_init)
    usMBCRC16                                0x0800216d   Thumb Code    70  mbcrc.o(.text.usMBCRC16)
    usart_baudrate_set                       0x080021b5   Thumb Code   106  gd32f30x_usart.o(.text.usart_baudrate_set)
    usart_data_first_config                  0x08002221   Thumb Code    24  gd32f30x_usart.o(.text.usart_data_first_config)
    usart_data_receive                       0x08002239   Thumb Code     8  gd32f30x_usart.o(.text.usart_data_receive)
    usart_data_transmit                      0x08002241   Thumb Code     8  gd32f30x_usart.o(.text.usart_data_transmit)
    usart_deinit                             0x08002249   Thumb Code   122  gd32f30x_usart.o(.text.usart_deinit)
    usart_enable                             0x080022c5   Thumb Code    10  gd32f30x_usart.o(.text.usart_enable)
    usart_flag_get                           0x080022d1   Thumb Code    16  gd32f30x_usart.o(.text.usart_flag_get)
    usart_interrupt_disable                  0x080022e1   Thumb Code    24  gd32f30x_usart.o(.text.usart_interrupt_disable)
    usart_interrupt_enable                   0x080022f9   Thumb Code    22  gd32f30x_usart.o(.text.usart_interrupt_enable)
    usart_interrupt_flag_clear               0x08002311   Thumb Code    18  gd32f30x_usart.o(.text.usart_interrupt_flag_clear)
    usart_interrupt_flag_get                 0x08002325   Thumb Code    34  gd32f30x_usart.o(.text.usart_interrupt_flag_get)
    usart_parity_config                      0x08002349   Thumb Code    16  gd32f30x_usart.o(.text.usart_parity_config)
    usart_receive_config                     0x08002359   Thumb Code    20  gd32f30x_usart.o(.text.usart_receive_config)
    usart_stop_bit_set                       0x0800236d   Thumb Code    16  gd32f30x_usart.o(.text.usart_stop_bit_set)
    usart_transmit_config                    0x0800237d   Thumb Code    20  gd32f30x_usart.o(.text.usart_transmit_config)
    usart_word_length_set                    0x08002391   Thumb Code    16  gd32f30x_usart.o(.text.usart_word_length_set)
    vMBPortSerialEnable                      0x080023a1   Thumb Code    96  portserial.o(.text.vMBPortSerialEnable)
    vMBPortTimersDisable                     0x08002401   Thumb Code    44  porttimer.o(.text.vMBPortTimersDisable)
    vMBPortTimersEnable                      0x0800242d   Thumb Code    44  porttimer.o(.text.vMBPortTimersEnable)
    xMBPortEventGet                          0x08002459   Thumb Code    40  portevent.o(.text.xMBPortEventGet)
    xMBPortEventInit                         0x08002481   Thumb Code    16  portevent.o(.text.xMBPortEventInit)
    xMBPortEventPost                         0x08002491   Thumb Code    28  portevent.o(.text.xMBPortEventPost)
    xMBPortSerialGetByte                     0x080024ad   Thumb Code    24  portserial.o(.text.xMBPortSerialGetByte)
    xMBPortSerialInit                        0x080024c5   Thumb Code   160  portserial.o(.text.xMBPortSerialInit)
    xMBPortSerialPutByte                     0x08002565   Thumb Code    20  portserial.o(.text.xMBPortSerialPutByte)
    xMBPortTimersInit                        0x08002579   Thumb Code    84  porttimer.o(.text.xMBPortTimersInit)
    xMBRTUReceiveFSM                         0x080025cd   Thumb Code   156  mbrtu.o(.text.xMBRTUReceiveFSM)
    xMBRTUTimerT35Expired                    0x08002685   Thumb Code    86  mbrtu.o(.text.xMBRTUTimerT35Expired)
    xMBRTUTransmitFSM                        0x080026dd   Thumb Code   132  mbrtu.o(.text.xMBRTUTransmitFSM)
    __0printf                                0x0800277d   Thumb Code    22  printfa.o(i.__0printf)
    __1printf                                0x0800277d   Thumb Code     0  printfa.o(i.__0printf)
    __2printf                                0x0800277d   Thumb Code     0  printfa.o(i.__0printf)
    __c89printf                              0x0800277d   Thumb Code     0  printfa.o(i.__0printf)
    printf                                   0x0800277d   Thumb Code     0  printfa.o(i.__0printf)
    __scatterload_copy                       0x0800279d   Thumb Code    14  handlers.o(i.__scatterload_copy)
    __scatterload_null                       0x080027ab   Thumb Code     2  handlers.o(i.__scatterload_null)
    __scatterload_zeroinit                   0x080027ad   Thumb Code    14  handlers.o(i.__scatterload_zeroinit)
    fputs                                    0x0800306f   Thumb Code    24  fputs.o(i.fputs)
    free                                     0x08003089   Thumb Code    76  malloc.o(i.free)
    fwrite                                   0x080030d9   Thumb Code    40  fwrite.o(i.fwrite)
    malloc                                   0x08003101   Thumb Code    92  malloc.o(i.malloc)
    Region$$Table$$Base                      0x08003700   Number         0  anon$$obj.o(Region$$Table)
    Region$$Table$$Limit                     0x08003720   Number         0  anon$$obj.o(Region$$Table)
    __stderr                                 0x20000000   Data           4  stderr.o(.data)
    __stdout                                 0x20000004   Data           4  stdout.o(.data)
    __microlib_freelist                      0x20000008   Data           4  mvars.o(.data)
    __microlib_freelist_initialised          0x2000000c   Data           4  mvars.o(.data)
    g_Usb2ComInfo                            0x20000014   Data          28  usb2com_drv.o(.data.g_Usb2ComInfo)
    pxMBFrameCBByteReceived                  0x20000138   Data           4  mb.o(.bss.pxMBFrameCBByteReceived)
    pxMBFrameCBTransmitterEmpty              0x2000013c   Data           4  mb.o(.bss.pxMBFrameCBTransmitterEmpty)
    pxMBPortCBTimerExpired                   0x20000140   Data           4  mb.o(.bss.pxMBPortCBTimerExpired)
    ucRTUBuf                                 0x20000145   Data         256  mbrtu.o(.bss.ucRTUBuf)
    __heap_base                              0x20000250   Data           0  startup_gd32f30x_hd.o(HEAP)
    __heap_limit                             0x20000650   Data           0  startup_gd32f30x_hd.o(HEAP)
    __initial_sp                             0x20004650   Data           0  startup_gd32f30x_hd.o(STACK)



==============================================================================

Memory Map of the image

  Image Entry point : 0x08000131

  Load Region LR_IROM1 (Base: 0x08000000, Size: 0x000037f8, Max: 0x00080000, ABSOLUTE)

    Execution Region ER_IROM1 (Exec base: 0x08000000, Load base: 0x08000000, Size: 0x00003720, Max: 0x00080000, ABSOLUTE)

    Exec Addr    Load Addr    Size         Type   Attr      Idx    E Section Name        Object

    0x08000000   0x08000000   0x00000130   Data   RO          936    RESET               startup_gd32f30x_hd.o
    0x08000130   0x08000130   0x00000000   Code   RO          979  * .ARM.Collect$$$$00000000  mc_w.l(entry.o)
    0x08000130   0x08000130   0x00000004   Code   RO         1290    .ARM.Collect$$$$00000001  mc_w.l(entry2.o)
    0x08000134   0x08000134   0x00000004   Code   RO         1293    .ARM.Collect$$$$00000004  mc_w.l(entry5.o)
    0x08000138   0x08000138   0x00000000   Code   RO         1295    .ARM.Collect$$$$00000008  mc_w.l(entry7b.o)
    0x08000138   0x08000138   0x00000000   Code   RO         1297    .ARM.Collect$$$$0000000A  mc_w.l(entry8b.o)
    0x08000138   0x08000138   0x00000008   Code   RO         1298    .ARM.Collect$$$$0000000B  mc_w.l(entry9a.o)
    0x08000140   0x08000140   0x00000000   Code   RO         1300    .ARM.Collect$$$$0000000D  mc_w.l(entry10a.o)
    0x08000140   0x08000140   0x00000000   Code   RO         1302    .ARM.Collect$$$$0000000F  mc_w.l(entry11a.o)
    0x08000140   0x08000140   0x00000004   Code   RO         1291    .ARM.Collect$$$$00002712  mc_w.l(entry2.o)
    0x08000144   0x08000144   0x00000024   Code   RO          937    .text               startup_gd32f30x_hd.o
    0x08000168   0x08000168   0x0000009c   Code   RO          991    .text               mc_w.l(qsort.o)
    0x08000204   0x08000204   0x00000024   Code   RO          993    .text               mc_w.l(memcpya.o)
    0x08000228   0x08000228   0x00000024   Code   RO          995    .text               mc_w.l(memseta.o)
    0x0800024c   0x0800024c   0x00000026   Code   RO         1288    .text               mf_w.l(f2d.o)
    0x08000272   0x08000272   0x0000002c   Code   RO         1314    .text               mc_w.l(uidiv.o)
    0x0800029e   0x0800029e   0x00000062   Code   RO         1316    .text               mc_w.l(uldiv.o)
    0x08000300   0x08000300   0x00000000   Code   RO         1320    .text               mc_w.l(iusefp.o)
    0x08000300   0x08000300   0x0000014e   Code   RO         1321    .text               mf_w.l(dadd.o)
    0x0800044e   0x0800044e   0x000000e4   Code   RO         1323    .text               mf_w.l(dmul.o)
    0x08000532   0x08000532   0x000000de   Code   RO         1325    .text               mf_w.l(ddiv.o)
    0x08000610   0x08000610   0x00000030   Code   RO         1327    .text               mf_w.l(dfixul.o)
    0x08000640   0x08000640   0x00000030   Code   RO         1329    .text               mf_w.l(cdrcmple.o)
    0x08000670   0x08000670   0x00000030   Code   RO         1331    .text               mc_w.l(init.o)
    0x080006a0   0x080006a0   0x0000001e   Code   RO         1333    .text               mc_w.l(llshl.o)
    0x080006be   0x080006be   0x00000020   Code   RO         1335    .text               mc_w.l(llushr.o)
    0x080006de   0x080006de   0x00000024   Code   RO         1337    .text               mc_w.l(llsshr.o)
    0x08000702   0x08000702   0x000000ba   Code   RO         1339    .text               mf_w.l(depilogue.o)
    0x080007bc   0x080007bc   0x00000008   Code   RO          303    .text.Compare       ntc_drv.o
    0x080007c4   0x080007c4   0x0000002e   Code   RO          177    .text.DelayNus      delay.o
    0x080007f2   0x080007f2   0x00000002   PAD
    0x080007f4   0x080007f4   0x00000036   Code   RO          175    .text.DwtDelayInit  delay.o
    0x0800082a   0x0800082a   0x00000002   PAD
    0x0800082c   0x0800082c   0x0000000c   Code   RO          326    .text.GetHumiData   rh_drv.o
    0x08000838   0x08000838   0x0000001e   Code   RO          275    .text.GetSensorData  sensor_drv.o
    0x08000856   0x08000856   0x00000002   PAD
    0x08000858   0x08000858   0x0000000e   Code   RO          301    .text.GetTempData   ntc_drv.o
    0x08000866   0x08000866   0x00000002   PAD
    0x08000868   0x08000868   0x00000054   Code   RO           16    .text.HmiTask       hmi_app.o
    0x080008bc   0x080008bc   0x0000011a   Code   RO          318    .text.HumiDrvInit   rh_drv.o
    0x080009d6   0x080009d6   0x00000002   PAD
    0x080009d8   0x080009d8   0x00000100   Code   RO          324    .text.HumiSensorProc  rh_drv.o
    0x08000ad8   0x08000ad8   0x0000003a   Code   RO          203    .text.LedDrvInit    led_drv.o
    0x08000b12   0x08000b12   0x00000002   PAD
    0x08000b14   0x08000b14   0x00000030   Code   RO           32    .text.ModbusAppInit  modbus_app.o
    0x08000b44   0x08000b44   0x00000004   Code   RO           38    .text.ModbusAppTask  modbus_app.o
    0x08000b48   0x08000b48   0x00000024   Code   RO           42    .text.ModbusGetHumi  modbus_app.o
    0x08000b6c   0x08000b6c   0x00000026   Code   RO           40    .text.ModbusGetTemp  modbus_app.o
    0x08000b92   0x08000b92   0x00000002   PAD
    0x08000b94   0x08000b94   0x0000000e   Code   RO           44    .text.ModbusSetLed1  modbus_app.o
    0x08000ba2   0x08000ba2   0x00000002   PAD
    0x08000ba4   0x08000ba4   0x0000000e   Code   RO           46    .text.ModbusSetLed2  modbus_app.o
    0x08000bb2   0x08000bb2   0x00000002   PAD
    0x08000bb4   0x08000bb4   0x0000000e   Code   RO           48    .text.ModbusSetLed3  modbus_app.o
    0x08000bc2   0x08000bc2   0x00000002   PAD
    0x08000bc4   0x08000bc4   0x00000034   Code   RO          164    .text.ModbusSlaveInit  modbus_slave.o
    0x08000bf8   0x08000bf8   0x000000be   Code   RO           36    .text.ReadHoldingRegistersCb  modbus_app.o
    0x08000cb6   0x08000cb6   0x00000002   PAD
    0x08000cb8   0x08000cb8   0x00000004   Code   RO           24    .text.SensorAppTask  sensor_app.o
    0x08000cbc   0x08000cbc   0x0000000e   Code   RO          277    .text.SensorDrvInit  sensor_drv.o
    0x08000cca   0x08000cca   0x00000002   PAD
    0x08000ccc   0x08000ccc   0x0000001a   Code   RO          279    .text.SensorDrvProc  sensor_drv.o
    0x08000ce6   0x08000ce6   0x00000002   PAD
    0x08000ce8   0x08000ce8   0x00000028   Code   RO          244    .text.SysTick_Handler  systick.o
    0x08000d10   0x08000d10   0x000001a8   Code   RO          944    .text.SystemInit    system_gd32f30x.o
    0x08000eb8   0x08000eb8   0x00000046   Code   RO          242    .text.SystickInit   systick.o
    0x08000efe   0x08000efe   0x00000002   PAD
    0x08000f00   0x08000f00   0x00000038   Code   RO          380    .text.TIMER3_IRQHandler  porttimer.o
    0x08000f38   0x08000f38   0x000000b4   Code   RO          322    .text.TIMER4_IRQHandler  rh_drv.o
    0x08000fec   0x08000fec   0x00000038   Code   RO            4    .text.TaskSchedule  main.o
    0x08001024   0x08001024   0x0000000c   Code   RO          240    .text.TaskScheduleCbReg  systick.o
    0x08001030   0x08001030   0x000000b0   Code   RO          289    .text.TempDrvInit   ntc_drv.o
    0x080010e0   0x080010e0   0x00000138   Code   RO          299    .text.TempSensorProc  ntc_drv.o
    0x08001218   0x08001218   0x0000001e   Code   RO          207    .text.TurnOffLed    led_drv.o
    0x08001236   0x08001236   0x00000002   PAD
    0x08001238   0x08001238   0x0000001e   Code   RO          205    .text.TurnOnLed     led_drv.o
    0x08001256   0x08001256   0x00000002   PAD
    0x08001258   0x08001258   0x00000040   Code   RO          263    .text.USART0_IRQHandler  usb2com_drv.o
    0x08001298   0x08001298   0x0000005a   Code   RO          364    .text.USART1_IRQHandler  portserial.o
    0x080012f2   0x080012f2   0x00000002   PAD
    0x080012f4   0x080012f4   0x00000084   Code   RO          257    .text.Usb2ComDrvInit  usb2com_drv.o
    0x08001378   0x08001378   0x000000ea   Code   RO           34    .text.WriteHoldingRegistersCb  modbus_app.o
    0x08001462   0x08001462   0x00000002   PAD
    0x08001464   0x08001464   0x000000b0   Code   RO          967    .text.__aeabi_assert  retarget_io.o
    0x08001514   0x08001514   0x00000002   Code   RO          969    .text.abort         retarget_io.o
    0x08001516   0x08001516   0x00000002   PAD
    0x08001518   0x08001518   0x00000020   Code   RO          861    .text.adc_calibration_enable  gd32f30x_adc.o
    0x08001538   0x08001538   0x0000003a   Code   RO          881    .text.adc_channel_length_config  gd32f30x_adc.o
    0x08001572   0x08001572   0x00000002   PAD
    0x08001574   0x08001574   0x00000012   Code   RO          879    .text.adc_data_alignment_config  gd32f30x_adc.o
    0x08001586   0x08001586   0x00000002   PAD
    0x08001588   0x08001588   0x00000048   Code   RO          855    .text.adc_deinit    gd32f30x_adc.o
    0x080015d0   0x080015d0   0x00000012   Code   RO          857    .text.adc_enable    gd32f30x_adc.o
    0x080015e2   0x080015e2   0x00000002   PAD
    0x080015e4   0x080015e4   0x0000003e   Code   RO          889    .text.adc_external_trigger_config  gd32f30x_adc.o
    0x08001622   0x08001622   0x00000002   PAD
    0x08001624   0x08001624   0x00000022   Code   RO          891    .text.adc_external_trigger_source_config  gd32f30x_adc.o
    0x08001646   0x08001646   0x00000002   PAD
    0x08001648   0x08001648   0x00000006   Code   RO          903    .text.adc_flag_clear  gd32f30x_adc.o
    0x0800164e   0x0800164e   0x00000002   PAD
    0x08001650   0x08001650   0x0000000a   Code   RO          901    .text.adc_flag_get  gd32f30x_adc.o
    0x0800165a   0x0800165a   0x00000002   PAD
    0x0800165c   0x0800165c   0x00000018   Code   RO          875    .text.adc_mode_config  gd32f30x_adc.o
    0x08001674   0x08001674   0x00000030   Code   RO          921    .text.adc_oversample_mode_config  gd32f30x_adc.o
    0x080016a4   0x080016a4   0x0000000e   Code   RO          923    .text.adc_oversample_mode_enable  gd32f30x_adc.o
    0x080016b2   0x080016b2   0x00000002   PAD
    0x080016b4   0x080016b4   0x00000074   Code   RO          883    .text.adc_regular_channel_config  gd32f30x_adc.o
    0x08001728   0x08001728   0x00000006   Code   RO          895    .text.adc_regular_data_read  gd32f30x_adc.o
    0x0800172e   0x0800172e   0x00000002   PAD
    0x08001730   0x08001730   0x00000018   Code   RO          871    .text.adc_resolution_config  gd32f30x_adc.o
    0x08001748   0x08001748   0x0000001c   Code   RO          893    .text.adc_software_trigger_enable  gd32f30x_adc.o
    0x08001764   0x08001764   0x0000005a   Code   RO          877    .text.adc_special_function_config  gd32f30x_adc.o
    0x080017be   0x080017be   0x00000002   PAD
    0x080017c0   0x080017c0   0x0000001e   Code   RO           65    .text.eMBEnable     mb.o
    0x080017de   0x080017de   0x00000002   PAD
    0x080017e0   0x080017e0   0x00000066   Code   RO          138    .text.eMBFuncReadHoldingRegister  mbfuncholding.o
    0x08001846   0x08001846   0x00000002   PAD
    0x08001848   0x08001848   0x0000002e   Code   RO          134    .text.eMBFuncWriteHoldingRegister  mbfuncholding.o
    0x08001876   0x08001876   0x00000002   PAD
    0x08001878   0x08001878   0x0000004e   Code   RO          136    .text.eMBFuncWriteMultipleHoldingRegister  mbfuncholding.o
    0x080018c6   0x080018c6   0x00000002   PAD
    0x080018c8   0x080018c8   0x0000008a   Code   RO           59    .text.eMBInit       mb.o
    0x08001952   0x08001952   0x00000002   PAD
    0x08001954   0x08001954   0x0000010c   Code   RO           69    .text.eMBPoll       mb.o
    0x08001a60   0x08001a60   0x00000040   Code   RO          103    .text.eMBRTUInit    mbrtu.o
    0x08001aa0   0x08001aa0   0x00000088   Code   RO          109    .text.eMBRTUReceive  mbrtu.o
    0x08001b28   0x08001b28   0x00000084   Code   RO          111    .text.eMBRTUSend    mbrtu.o
    0x08001bac   0x08001bac   0x0000001c   Code   RO          105    .text.eMBRTUStart   mbrtu.o
    0x08001bc8   0x08001bc8   0x00000016   Code   RO          162    .text.eMBRegHoldingCB  modbus_slave.o
    0x08001bde   0x08001bde   0x00000002   PAD
    0x08001be0   0x08001be0   0x00000024   Code   RO          259    .text.fputc         usb2com_drv.o
    0x08001c04   0x08001c04   0x00000004   Code   RO          398    .text.gpio_bit_reset  gd32f30x_gpio.o
    0x08001c08   0x08001c08   0x00000004   Code   RO          396    .text.gpio_bit_set  gd32f30x_gpio.o
    0x08001c0c   0x08001c0c   0x0000000c   Code   RO          400    .text.gpio_bit_write  gd32f30x_gpio.o
    0x08001c18   0x08001c18   0x000000b6   Code   RO          394    .text.gpio_init     gd32f30x_gpio.o
    0x08001cce   0x08001cce   0x00000002   PAD
    0x08001cd0   0x08001cd0   0x0000000a   Code   RO          408    .text.gpio_output_bit_get  gd32f30x_gpio.o
    0x08001cda   0x08001cda   0x00000002   PAD
    0x08001cdc   0x08001cdc   0x00000054   Code   RO            2    .text.main          main.o
    0x08001d30   0x08001d30   0x000000a4   Code   RO          438    .text.nvic_irq_enable  gd32f30x_misc.o
    0x08001dd4   0x08001dd4   0x0000001a   Code   RO          152    .text.prveMBError2Exception  mbutils.o
    0x08001dee   0x08001dee   0x00000002   PAD
    0x08001df0   0x08001df0   0x00000072   Code   RO          548    .text.rcu_adc_clock_config  gd32f30x_rcu.o
    0x08001e62   0x08001e62   0x00000002   PAD
    0x08001e64   0x08001e64   0x000000d0   Code   RO          576    .text.rcu_clock_freq_get  gd32f30x_rcu.o
    0x08001f34   0x08001f34   0x0000001e   Code   RO          514    .text.rcu_periph_clock_enable  gd32f30x_rcu.o
    0x08001f52   0x08001f52   0x00000002   PAD
    0x08001f54   0x08001f54   0x00000020   Code   RO          524    .text.rcu_periph_reset_disable  gd32f30x_rcu.o
    0x08001f74   0x08001f74   0x0000001e   Code   RO          522    .text.rcu_periph_reset_enable  gd32f30x_rcu.o
    0x08001f92   0x08001f92   0x00000002   PAD
    0x08001f94   0x08001f94   0x00000004   Code   RO          735    .text.timer_counter_value_config  gd32f30x_timer.o
    0x08001f98   0x08001f98   0x000000c2   Code   RO          705    .text.timer_deinit  gd32f30x_timer.o
    0x0800205a   0x0800205a   0x00000002   PAD
    0x0800205c   0x0800205c   0x0000000a   Code   RO          713    .text.timer_disable  gd32f30x_timer.o
    0x08002066   0x08002066   0x00000002   PAD
    0x08002068   0x08002068   0x0000000a   Code   RO          711    .text.timer_enable  gd32f30x_timer.o
    0x08002072   0x08002072   0x00000002   PAD
    0x08002074   0x08002074   0x000000b4   Code   RO          709    .text.timer_init    gd32f30x_timer.o
    0x08002128   0x08002128   0x0000000a   Code   RO          747    .text.timer_interrupt_disable  gd32f30x_timer.o
    0x08002132   0x08002132   0x00000002   PAD
    0x08002134   0x08002134   0x00000008   Code   RO          745    .text.timer_interrupt_enable  gd32f30x_timer.o
    0x0800213c   0x0800213c   0x00000006   Code   RO          751    .text.timer_interrupt_flag_clear  gd32f30x_timer.o
    0x08002142   0x08002142   0x00000002   PAD
    0x08002144   0x08002144   0x00000016   Code   RO          749    .text.timer_interrupt_flag_get  gd32f30x_timer.o
    0x0800215a   0x0800215a   0x00000002   PAD
    0x0800215c   0x0800215c   0x00000010   Code   RO          707    .text.timer_struct_para_init  gd32f30x_timer.o
    0x0800216c   0x0800216c   0x00000046   Code   RO           92    .text.usMBCRC16     mbcrc.o
    0x080021b2   0x080021b2   0x00000002   PAD
    0x080021b4   0x080021b4   0x0000006a   Code   RO          599    .text.usart_baudrate_set  gd32f30x_usart.o
    0x0800221e   0x0800221e   0x00000002   PAD
    0x08002220   0x08002220   0x00000018   Code   RO          615    .text.usart_data_first_config  gd32f30x_usart.o
    0x08002238   0x08002238   0x00000008   Code   RO          627    .text.usart_data_receive  gd32f30x_usart.o
    0x08002240   0x08002240   0x00000008   Code   RO          625    .text.usart_data_transmit  gd32f30x_usart.o
    0x08002248   0x08002248   0x0000007a   Code   RO          597    .text.usart_deinit  gd32f30x_usart.o
    0x080022c2   0x080022c2   0x00000002   PAD
    0x080022c4   0x080022c4   0x0000000a   Code   RO          607    .text.usart_enable  gd32f30x_usart.o
    0x080022ce   0x080022ce   0x00000002   PAD
    0x080022d0   0x080022d0   0x00000010   Code   RO          685    .text.usart_flag_get  gd32f30x_usart.o
    0x080022e0   0x080022e0   0x00000018   Code   RO          691    .text.usart_interrupt_disable  gd32f30x_usart.o
    0x080022f8   0x080022f8   0x00000016   Code   RO          689    .text.usart_interrupt_enable  gd32f30x_usart.o
    0x0800230e   0x0800230e   0x00000002   PAD
    0x08002310   0x08002310   0x00000012   Code   RO          695    .text.usart_interrupt_flag_clear  gd32f30x_usart.o
    0x08002322   0x08002322   0x00000002   PAD
    0x08002324   0x08002324   0x00000022   Code   RO          693    .text.usart_interrupt_flag_get  gd32f30x_usart.o
    0x08002346   0x08002346   0x00000002   PAD
    0x08002348   0x08002348   0x00000010   Code   RO          601    .text.usart_parity_config  gd32f30x_usart.o
    0x08002358   0x08002358   0x00000014   Code   RO          613    .text.usart_receive_config  gd32f30x_usart.o
    0x0800236c   0x0800236c   0x00000010   Code   RO          605    .text.usart_stop_bit_set  gd32f30x_usart.o
    0x0800237c   0x0800237c   0x00000014   Code   RO          611    .text.usart_transmit_config  gd32f30x_usart.o
    0x08002390   0x08002390   0x00000010   Code   RO          603    .text.usart_word_length_set  gd32f30x_usart.o
    0x080023a0   0x080023a0   0x00000060   Code   RO          356    .text.vMBPortSerialEnable  portserial.o
    0x08002400   0x08002400   0x0000002c   Code   RO          378    .text.vMBPortTimersDisable  porttimer.o
    0x0800242c   0x0800242c   0x0000002c   Code   RO          376    .text.vMBPortTimersEnable  porttimer.o
    0x08002458   0x08002458   0x00000028   Code   RO          344    .text.xMBPortEventGet  portevent.o
    0x08002480   0x08002480   0x00000010   Code   RO          340    .text.xMBPortEventInit  portevent.o
    0x08002490   0x08002490   0x0000001c   Code   RO          342    .text.xMBPortEventPost  portevent.o
    0x080024ac   0x080024ac   0x00000018   Code   RO          362    .text.xMBPortSerialGetByte  portserial.o
    0x080024c4   0x080024c4   0x000000a0   Code   RO          358    .text.xMBPortSerialInit  portserial.o
    0x08002564   0x08002564   0x00000014   Code   RO          360    .text.xMBPortSerialPutByte  portserial.o
    0x08002578   0x08002578   0x00000054   Code   RO          374    .text.xMBPortTimersInit  porttimer.o
    0x080025cc   0x080025cc   0x000000b8   Code   RO          113    .text.xMBRTUReceiveFSM  mbrtu.o
    0x08002684   0x08002684   0x00000056   Code   RO          117    .text.xMBRTUTimerT35Expired  mbrtu.o
    0x080026da   0x080026da   0x00000002   PAD
    0x080026dc   0x080026dc   0x000000a0   Code   RO          115    .text.xMBRTUTransmitFSM  mbrtu.o
    0x0800277c   0x0800277c   0x00000020   Code   RO         1232    i.__0printf         mc_w.l(printfa.o)
    0x0800279c   0x0800279c   0x0000000e   Code   RO         1343    i.__scatterload_copy  mc_w.l(handlers.o)
    0x080027aa   0x080027aa   0x00000002   Code   RO         1344    i.__scatterload_null  mc_w.l(handlers.o)
    0x080027ac   0x080027ac   0x0000000e   Code   RO         1345    i.__scatterload_zeroinit  mc_w.l(handlers.o)
    0x080027ba   0x080027ba   0x00000002   PAD
    0x080027bc   0x080027bc   0x00000184   Code   RO         1239    i._fp_digits        mc_w.l(printfa.o)
    0x08002940   0x08002940   0x000006dc   Code   RO         1240    i._printf_core      mc_w.l(printfa.o)
    0x0800301c   0x0800301c   0x00000024   Code   RO         1241    i._printf_post_padding  mc_w.l(printfa.o)
    0x08003040   0x08003040   0x0000002e   Code   RO         1242    i._printf_pre_padding  mc_w.l(printfa.o)
    0x0800306e   0x0800306e   0x00000018   Code   RO          982    i.fputs             mc_w.l(fputs.o)
    0x08003086   0x08003086   0x00000002   PAD
    0x08003088   0x08003088   0x00000050   Code   RO         1260    i.free              mc_w.l(malloc.o)
    0x080030d8   0x080030d8   0x00000028   Code   RO          984    i.fwrite            mc_w.l(fwrite.o)
    0x08003100   0x08003100   0x0000006c   Code   RO         1261    i.malloc            mc_w.l(malloc.o)
    0x0800316c   0x0800316c   0x00000100   Data   RO           94    .rodata.aucCRCHi    mbcrc.o
    0x0800326c   0x0800326c   0x00000100   Data   RO           95    .rodata.aucCRCLo    mbcrc.o
    0x0800336c   0x0800336c   0x00000008   Data   RO          588    .rodata.cst8        gd32f30x_rcu.o
    0x08003374   0x08003374   0x00000024   Data   RO          211    .rodata.g_ledList   led_drv.o
    0x08003398   0x08003398   0x000000c8   Data   RO          308    .rodata.g_ntcAdcTable  ntc_drv.o
    0x08003460   0x08003460   0x00000050   Data   RO           50    .rodata.g_regInstanceTab  modbus_app.o
    0x080034b0   0x080034b0   0x000001d4   Data   RO          331    .rodata.g_rhAdcTable  rh_drv.o
    0x08003684   0x08003684   0x0000007b   Data   RO          121    .rodata.str1.1      mbrtu.o
    0x080036ff   0x080036ff   0x00000001   PAD
    0x08003700   0x08003700   0x00000020   Data   RO         1342    Region$$Table       anon$$obj.o


    Execution Region RW_IRAM1 (Exec base: 0x20000000, Load base: 0x08003720, Size: 0x00004650, Max: 0x00010000, ABSOLUTE)

    Exec Addr    Load Addr    Size         Type   Attr      Idx    E Section Name        Object

    0x20000000   0x08003720   0x00000004   Data   RW          990    .data               mc_w.l(stderr.o)
    0x20000004   0x08003724   0x00000004   Data   RW         1304    .data               mc_w.l(stdout.o)
    0x20000008   0x08003728   0x00000004   Data   RW         1318    .data               mc_w.l(mvars.o)
    0x2000000c   0x0800372c   0x00000004   Data   RW         1319    .data               mc_w.l(mvars.o)
    0x20000010   0x08003730   0x00000001   Data   RW           75    .data.eMBState      mb.o
    0x20000011   0x08003731   0x00000003   PAD
    0x20000014   0x08003734   0x0000001c   Data   RW          265    .data.g_Usb2ComInfo  usb2com_drv.o
    0x20000030   0x08003750   0x00000024   Data   RW            6    .data.g_taskComps   main.o
    0x20000054   0x08003774   0x00000080   Data   RW           83    .data.xFuncHandlers  mb.o
    0x200000d4   0x080037f4   0x00000004   PAD
    0x200000d8        -       0x00000001   Zero   RW          309    .bss.PushTemp10MulToBuf.s_index  ntc_drv.o
    0x200000d9   0x080037f4   0x00000001   PAD
    0x200000da        -       0x00000002   Zero   RW          328    .bss.TIMER4_IRQHandler.s_timingNum  rh_drv.o
    0x200000dc        -       0x00000001   Zero   RW          305    .bss.TempSensorProc.s_convertNum  ntc_drv.o
    0x200000dd        -       0x00000001   Zero   RW           80    .bss.eMBPoll.eException  mb.o
    0x200000de        -       0x00000001   Zero   RW           78    .bss.eMBPoll.ucFunctionCode  mb.o
    0x200000df   0x080037f4   0x00000001   PAD
    0x200000e0        -       0x00000004   Zero   RW           76    .bss.eMBPoll.ucMBFrame  mb.o
    0x200000e4        -       0x00000001   Zero   RW           77    .bss.eMBPoll.ucRcvAddress  mb.o
    0x200000e5   0x080037f4   0x00000001   PAD
    0x200000e6        -       0x00000002   Zero   RW           79    .bss.eMBPoll.usLength  mb.o
    0x200000e8        -       0x00000001   Zero   RW          347    .bss.eQueuedEvent   portevent.o
    0x200000e9        -       0x00000001   Zero   RW          119    .bss.eRcvState      mbrtu.o
    0x200000ea        -       0x00000001   Zero   RW          125    .bss.eSndState      mbrtu.o
    0x200000eb   0x080037f4   0x00000001   PAD
    0x200000ec        -       0x00000002   Zero   RW          329    .bss.g_adcVal       rh_drv.o
    0x200000ee        -       0x00000001   Zero   RW          330    .bss.g_humiData     rh_drv.o
    0x200000ef   0x080037f4   0x00000001   PAD
    0x200000f0        -       0x00000008   Zero   RW          166    .bss.g_modbusFuncCb  modbus_slave.o
    0x200000f8        -       0x00000004   Zero   RW          266    .bss.g_pProcUartData  usb2com_drv.o
    0x200000fc        -       0x00000004   Zero   RW          248    .bss.g_pTaskScheduleFunc  systick.o
    0x20000100        -       0x00000008   Zero   RW          249    .bss.g_systemRunTime  systick.o
    0x20000108        -       0x00000004   Zero   RW          307    .bss.g_temp         ntc_drv.o
    0x2000010c        -       0x00000028   Zero   RW          306    .bss.g_temp10MulBuf  ntc_drv.o
    0x20000134        -       0x00000004   Zero   RW          123    .bss.pucSndBufferCur  mbrtu.o
    0x20000138        -       0x00000004   Zero   RW           72    .bss.pxMBFrameCBByteReceived  mb.o
    0x2000013c        -       0x00000004   Zero   RW           73    .bss.pxMBFrameCBTransmitterEmpty  mb.o
    0x20000140        -       0x00000004   Zero   RW           74    .bss.pxMBPortCBTimerExpired  mb.o
    0x20000144        -       0x00000001   Zero   RW           71    .bss.ucMBAddress    mb.o
    0x20000145        -       0x00000100   Zero   RW          122    .bss.ucRTUBuf       mbrtu.o
    0x20000245   0x080037f4   0x00000001   PAD
    0x20000246        -       0x00000002   Zero   RW          120    .bss.usRcvBufferPos  mbrtu.o
    0x20000248        -       0x00000002   Zero   RW          124    .bss.usSndBufferCount  mbrtu.o
    0x2000024a        -       0x00000001   Zero   RW          346    .bss.xEventInQueue  portevent.o
    0x2000024b   0x080037f4   0x00000005   PAD
    0x20000250        -       0x00000400   Zero   RW          935    HEAP                startup_gd32f30x_hd.o
    0x20000650        -       0x00004000   Zero   RW          934    STACK               startup_gd32f30x_hd.o


==============================================================================

Image component sizes


      Code (inc. data)   RO Data    RW Data    ZI Data      Debug   Object Name

       100          0          0          0          0       2278   delay.o
       660          0          0          0          0       9346   gd32f30x_adc.o
       212          0          0          0          0       5784   gd32f30x_gpio.o
       164          0          0          0          0       3548   gd32f30x_misc.o
       414         20          8          0          0      13870   gd32f30x_rcu.o
       460          0          0          0          0      20493   gd32f30x_timer.o
       480          0          0          0          0      11447   gd32f30x_usart.o
        84         44          0          0          0        829   hmi_app.o
       118          0         36          0          0       2566   led_drv.o
       140          0          0         36          0       1451   main.o
       436          0          0        129         22       4774   mb.o
        70          0        512          0          0       1226   mbcrc.o
       226          0          0          0          0       3018   mbfuncholding.o
       790        100        123          0        266       4408   mbrtu.o
        26          0          0          0          0       2751   mbutils.o
       592         16         80          0          0       4324   modbus_app.o
        74          0          0          0          8       1987   modbus_slave.o
       510          0        200          0         46       6211   ntc_drv.o
        84          0          0          0          2       1302   portevent.o
       390          0          0          0          0       4224   portserial.o
       228          0          0          0          0       2763   porttimer.o
       178         40          0          0          0       2919   retarget_io.o
       730          0        468          0          5       5682   rh_drv.o
         4          0          0          0          0        477   sensor_app.o
        70          0          0          0          0       1122   sensor_drv.o
        36          8        304          0      17408        864   startup_gd32f30x_hd.o
       424          0          0          0          0       2510   system_gd32f30x.o
       122          0          0          0         12       4114   systick.o
       232          0          0         28          4       3985   usb2com_drv.o

    ----------------------------------------------------------------------
      8164        228       1764        196      17788     130273   Object Totals
         0          0         32          0          0          0   (incl. Generated)
       110          0          1          3         15          0   (incl. Padding)

    ----------------------------------------------------------------------

      Code (inc. data)   RO Data    RW Data    ZI Data      Debug   Library Member Name

         0          0          0          0          0          0   entry.o
         0          0          0          0          0          0   entry10a.o
         0          0          0          0          0          0   entry11a.o
         8          4          0          0          0          0   entry2.o
         4          0          0          0          0          0   entry5.o
         0          0          0          0          0          0   entry7b.o
         0          0          0          0          0          0   entry8b.o
         8          4          0          0          0          0   entry9a.o
        24          0          0          0          0         80   fputs.o
        40          0          0          0          0         84   fwrite.o
        30          0          0          0          0          0   handlers.o
        48         10          0          0          0         68   init.o
         0          0          0          0          0          0   iusefp.o
        30          0          0          0          0         68   llshl.o
        36          0          0          0          0         68   llsshr.o
        32          0          0          0          0         68   llushr.o
       188         20          0          0          0        160   malloc.o
        36          0          0          0          0         68   memcpya.o
        36          0          0          0          0        108   memseta.o
         0          0          0          8          0          0   mvars.o
      2258         90          0          0          0        452   printfa.o
       156          0          0          0          0         88   qsort.o
         0          0          0          4          0          0   stderr.o
         0          0          0          4          0          0   stdout.o
        44          0          0          0          0         80   uidiv.o
        98          0          0          0          0         92   uldiv.o
        48          0          0          0          0         68   cdrcmple.o
       334          0          0          0          0        148   dadd.o
       222          0          0          0          0        100   ddiv.o
       186          0          0          0          0        176   depilogue.o
        48          0          0          0          0         68   dfixul.o
       228          0          0          0          0         96   dmul.o
        38          0          0          0          0         68   f2d.o

    ----------------------------------------------------------------------
      4184        128          0         16          0       2208   Library Totals
         4          0          0          0          0          0   (incl. Padding)

    ----------------------------------------------------------------------

      Code (inc. data)   RO Data    RW Data    ZI Data      Debug   Library Name

      3076        128          0         16          0       1484   mc_w.l
      1104          0          0          0          0        724   mf_w.l

    ----------------------------------------------------------------------
      4184        128          0         16          0       2208   Library Totals

    ----------------------------------------------------------------------

==============================================================================


      Code (inc. data)   RO Data    RW Data    ZI Data      Debug   

     12348        356       1764        212      17788     131001   Grand Totals
     12348        356       1764        212      17788     131001   ELF Image Totals
     12348        356       1764        212          0          0   ROM Totals

==============================================================================

    Total RO  Size (Code + RO Data)                14112 (  13.78kB)
    Total RW  Size (RW Data + ZI Data)             18000 (  17.58kB)
    Total ROM Size (Code + RO Data + RW Data)      14324 (  13.99kB)

==============================================================================

