:020000040800F2
:1000000090040020450100084D0100084F01000840
:1000100051010008530100085501000800000000CC
:100020000000000000000000000000005701000870
:1000300059010008000000005B010008FD030008F2
:100040005F0100085F0100085F0100085F01000810
:100050005F0100085F0100085F0100085F01000800
:100060005F0100085F0100085F0100085F010008F0
:100070005F0100085F0100085F0100085F010008E0
:100080005F0100085F0100085F0100085F010008D0
:100090005F0100085F0100085F0100085F010008C0
:1000A0005F0100085F0100085F0100085F010008B0
:1000B0005F0100085F0100085F0100085F010008A0
:1000C0005F0100085F0100085F0100085F01000890
:1000D0005F010008950600085F0100085F01000845
:1000E0005F0100085F0100085F0100085F01000870
:1000F0005F0100085F0100085F0100085F01000860
:100100005F0100085F0100085F0100085F0100084F
:100110005F0100085F0100085F0100085F0100083F
:100120005F0100085F0100085F0100085F0100082F
:10013000DFF80CD000F02EF800480047CD0800088A
:10014000900400200648804706480047FEE7FEE787
:10015000FEE7FEE7FEE7FEE7FEE7FEE7FEE7FEE777
:10016000210400083101000830B50B46014600208B
:100170002022012409E021FA02F59D4205D303FA69
:1001800002F5491B04FA02F52844151EA2F10102EA
:10019000F1DC30BD1CB509480090094801900546C6
:1001A000009C06E0E06840F0010394E807009847EF
:1001B0001034AC42F6D3FFF7BFFF0000080F000871
:1001C000280F000800F00CBB80B54FF4FA60032143
:1001D00000F0D4FABDE8804000F00ABB80B503A06F
:1001E00000F088FDBDE88040FFF7ECBF2A2A2A2AEC
:1001F0002A2A2A2A2ACEB9B9B72A2A2A2A2A2A2A10
:100200002A0000002DE9F04F81B040F6B460C0F63E
:100210000000041D40F23800C2F2000000F10805A1
:1002200000264FF0010940F2E93B4FF0030A002796
:100230004FF0000817E000F057F8D5E90023801AC6
:100240009941B0EB0B0071F1000028BF05F808AC34
:100250000020010644D101370C3408F10108042FB5
:1002600005F110053CD0D4E9000100F029FB15F898
:10027000081C0329ECD8DFE801F0020B131B00284F
:10028000E6D105F8089C00F02FF8C5E90001DFE78A
:10029000C0B1002005F8080C0106DCD020E000BF4A
:1002A0000028C8D005F8086C781C0106D3D017E0E8
:1002B00000281ABF05F8086CA8F17F00002001068D
:1002C000C9D00DE000F010F8D5E90023801A99415B
:1002D0000B3871F1000024BF022005F8080CB7E7C5
:1002E000C0B201B0BDE8F08F40F28000C2F2000061
:1002F000D0E900017047000080B5FFF783FF411E81
:1003000003290CD98138032888BF80BDDFE800F0BD
:10031000021E19130020BDE8804000F09BB9DFE801
:1003200001F0021A251F002000F0A4F912A000F02D
:10033000E1FC00BFFEE7002000F08CF9012000F096
:1003400089F90220BDE8804000F084B90120BDE8B1
:10035000804000F07FB90120BDE8804000F08AB9FC
:10036000002000F087F9012000F084F90220BDE8A8
:10037000804000F07FB900BF2A2A2A2A2A2A2A2A86
:100380002ABDF8C8EBCBC0D1ADBBB72A2A2A2A2A8E
:100390002A2A2A0070B540F6B4656FF00B04C0F647
:1003A000000500BF2E19B08900F096FBD6E90403C2
:1003B0000421022200F028FA0C34242CF2D170BD62
:1003C000F0B581B040F6E4676FF00B06C0F60007A9
:1003D000BC19A08900F080FBD4E904451021204617
:1003E00002222B4600F010FA2046294600F008FAB7
:1003F0000C36182EECD101B0F0BD000040F28000A8
:10040000C2F20000D0E90012013142F10002C0E95D
:10041000001240F27800C2F20000006800470000BD
:1004200081B04EF68851CEF200010A6841F2040C08
:1004300042F47002C4F2020C0A605CF8041C41F041
:1004400001014CF8041C00BF5CF8041C8907FBD5B3
:10045000DCF8001041F08001CCF800100021009180
:10046000009A4F2A06D800BF009A01320092009AE3
:10047000502AF9D3DCF8002042F09002CCF800209A
:10048000009100994F2905D80099013100910099F8
:100490005029F9D3DCF800104FF6FF7221F0030168
:1004A000CCF800105CF8041CCFF6F66211404CF852
:1004B000041C4FF41F01CCF804105CF8041C21F458
:1004C00080214CF8041C0021CCF80010CCF8281036
:1004D0005CF8042C42F480324CF8042C4FF6FE7287
:1004E0005CF8040C013A41F10003800301D4002BB5
:1004F000F6D15CF8040C800301D400BFFEE7DCF801
:10050000180047F2000140F08050C4F20001CCF81E
:10051000180008684FF6FF7240F440400860DCF8AD
:100520000000CBF2C372CCF80000DCF80000CCF87D
:100530000000DCF8000040F48060CCF80000DCF83B
:10054000000020F44030CCF80000DCF8000040F45B
:100550004030CCF80000DCF800001040CCF800007F
:10056000DCF8000040F0006040F45010CCF80000CF
:100570005CF8040C40F080704CF8040C5CF8040C3F
:100580008001FBD5086840F4803008604868C003EB
:10059000FCD5086840F40030086000BF486880035C
:1005A000FCD5DCF8000020F00300CCF80000DCF8FB
:1005B000000040F00200CCF8000000BFDCF80000B2
:1005C0000007FBD501B0704780B5012000F01CFA90
:1005D00044F6D351C1F26201A0FB01014FF0FF309C
:1005E00000EB9110B0F1807F10D24EF21001CEF2EC
:1005F000000148604EF62350CEF20000F022027057
:10060000002088600720086080BD00BFFEE7000072
:1006100080B540F2200E0020C2F2000E4FF0010C17
:1006200004E000BF0C30182808BF80BD0EEB0003AB
:100630005A88002AF6D0013A11045A80F2D19988DA
:100640000EF800C05980EDE740F27801C2F20001D7
:1006500008607047032888BF704740F6E46100EBEC
:100660004000C0F6000101EB8000D0E9010100F07C
:10067000C7B80000032888BF704740F6E46100EB6C
:100680004000C0F6000101EB8000D0E9010100F05C
:10069000B9B80000B0B540F20405C2F2000540F25E
:1006A00005342868C0F20504214600F0E5FA002868
:1006B00008BFB0BD2868214600F0D4FA286800F0D1
:1006C00071FA40F28801C2F200010968C0B2BDE8C7
:1006D000B040084710B540F20404C2F20004A089FB
:1006E00000F0FAF9A06823691821012200F08CF8C3
:1006F000A06863694821012200F086F8A08800F014
:10070000EBF9206800F056FA2068002100F0EAFAC0
:100710002068002100F0C2FA2068002100F0D0FA21
:1007200020684FF4E13100F007FA2068082100F05A
:10073000CFFA2068042100F0B9FA206840F20531B0
:1007400000F084FA207E0021002200F00BF92068DE
:10075000BDE8104000F06CBAB0B540F20405C2F23A
:10076000000504462868E1B200F020FA2868072155
:1007700000F064FA0028F9D02046B0BD10B540F270
:10078000020ECFF6F07E43F2000CC4F2000C45F2EC
:1007900055527346CCF80020DCF80C2023B112F03F
:1007A000010403F10103F7D1D2070DD1CCF80410F5
:1007B000DCF80C10BEF1000F04D011F002020EF1B3
:1007C000010EF5D1890701D5002010BD6FF31F3050
:1007D000CCF808004AF6AA20CCF80000012010BD91
:1007E00043F20000C4F200004AF6AA2101607047FB
:1007F00043F20000C4F200004CF6CC4101607047A7
:1008000041617047016170472DE9F047CF0601F063
:100810000F0C09D5042A05D1C26B4CF0030C1A4306
:10082000C26301E04CEA020C00F1100E00F1140A60
:1008300000244FF001094FF00F0800270EE000BF21
:10084000166008FA04F225EA02020CFA04F52A43BB
:1008500002600137082F04F104040CD009FA07F2F2
:1008600012EA0306F5D0056828295246E8D048293F
:10087000E7D17246E4E7082400254FF001094FF064
:100880000F080FE0176008FA05F226EA02020CFAD8
:1008900005F6324342600134102C05F1040508BF0F
:1008A000BDE8F08709FA04F212EA0307F3D04668BC
:1008B00028295246E6D04829E5D17246E2E70000F1
:1008C0008068084018BF012070470000FFF77CFED9
:1008D000FFF776FDFFF75EFDFFF7FCFEFFF774FC08
:1008E00040F21160C0F60000FFF7AEFE0EA00C2132
:1008F00000F000FA13A000F0C7FA40F2200500242F
:10090000C2F20005002603E0701C861E18BF0646D2
:1009100006EB460015F820100029F5D005EB800005
:10092000816804708847EFE773697A656F662854B9
:1009300061736B436F6D70735F7429203D20256474
:100940002E0A00002A2A2A2A2A2A2A2ABFB4C3C524
:10095000B9B7B2E2CAD42A2A2A2A2A2A2A2A2A2A51
:10096000000000004EF60C5CCEF2000CDCF800300B
:1009700003F4E063B3F5E06F01D1042328E0DCF871
:10098000003003F4E063B3F5C06F01D103231FE02F
:10099000DCF8003003F4E063B3F5A06F17D0DCF8A7
:1009A000003003F4E063B3F5806F01D101230FE061
:1009B000DCF8003003F4E063B3F5407F01D100239D
:1009C00006E040F20053C0F2FA53CCF800300223A4
:1009D00001FA03FCC3F104030F21D94011404EF288
:1009E000001241EA0C01CEF20002090140EA0203C2
:1009F00083F8001300F01F01012303FA01F11C2307
:100A000003EAD0008150704710B541F20404C4F2EB
:100A10000204216801F00C01082941F20021C0F212
:100A20007A012BD12368DB0304D440F6001CC0F20A
:100A30003D0C0DE0A36AD4F800C05B0046F600430D
:100A4000C0F2DC2358BF0B46CCF3404123FA01FC33
:100A500023682168C3F3834E102303EAD15123682E
:100A60008E44202101EA536171440B463F2918BF8F
:100A700001330F2938BF8B1C03FB0CF1236812A232
:100A8000C3F30313D35C226840F6AC6CC2F30222BA
:100A9000C0F6000C1CF802E02268032807D821FAEF
:100AA00003F3DFE800F00F020609184610BD00202E
:100AB00010BD23FA0EF010BDC2F3C2201CF80000D6
:100AC00023FA00F1084610BD0000000000000000FD
:100AD000010203040607080941F2000300F01F01A8
:100AE0008009C4F202034FF0010CC2580CFA01F164
:100AF0001143C1507047000041F2000300F01F0194
:100B00008009C4F202034FF0010CC2580CFA01F143
:100B100022EA0101C150704741F2000300F01F01B9
:100B20008009C4F202034FF0010CC2580CFA01F123
:100B30001143C15070470000B0B5044644F6FF3081
:100B4000C4F200000D4684424FF0000013DD44F66D
:100B50000041C4F200018C4219D045F20001C4F2F8
:100B600000018C4213D043F60001C4F201018C4213
:100B700010D103200CE044F20041C4F200018C4289
:100B800005D044F60001C4F200018C4202D10220DB
:100B9000FFF73AFF00EB5500B0FBF5F080B2A06024
:100BA000B0BD000040686FF35F2070476FF35F21B6
:100BB0004160704710B544F6FF31C4F2000188422D
:100BC00015DD44F60041C4F2000188421ED045F212
:100BD0000001C4F2000188421BD043F60001C4F2B8
:100BE0000101884218BF10BD40F20E3416E044F2F5
:100BF0000041C4F2000188420ED044F60001C4F264
:100C00000001884212D140F2124407E040F213443E
:100C100004E040F2144401E040F211442046FFF7A2
:100C20007BFF2046BDE81040FFF766BF10BD000007
:100C3000C16841F40051C160704700008A09105832
:100C400001F01F01C84000F00100704701F01F02D1
:100C500089094FF0010C0B580CFA02F21A430A50A2
:100C600070470000C1F30442012303FA02F2D243A9
:100C7000890D0A5070470000C1F3891252F800C074
:100C80008A0D105801F01F03C1F30441C8402CFA2B
:100C900003F1084000F0010070470000C26822F430
:100CA000C062C260C2681143C1607047C26801F08F
:100CB000040122F00402C260C2681143C16070479F
:100CC000026922F4405202610269114301617047D6
:100CD000C26801F0080122F00802C260C268114334
:100CE000C1607047C26822F48052C260C26811437A
:100CF000C16070470FB4054B10B503A9044A0298B0
:100D000000F018F810BC5DF814FB0000590700084B
:100D10000000002002E008C8121F08C1002AFAD112
:100D200070477047002001E001C1121F002AFBD16B
:100D3000704700002DE9FF4F89B09B46044600250F
:100D400006E025280BD05A460B999047641C6D1C71
:100D500020780028F5D10DB02846BDE8F08F002797
:100D6000B8460122474900E0074314F8013F203B01
:100D700002FA03F00842F7D120782E2819D114F88E
:100D8000010F47F004072A280ED06FF02F022078B9
:100D9000A0F1300109290CD808EB880102EB4101D0
:100DA00000EB0108641CF2E70A98641C50F8048BFD
:100DB0000A9020780028CED0642808D0692806D070
:100DC00075281ED05A460B9990476D1C58E00A9919
:100DD0004FF00A0901C90A91002802DA40422D2188
:100DE00002E0390504D52B218DF82010012103E004
:100DF000F90704D02021F7E78A4608AE0DE000216C
:100E0000FAE70A994FF00A0901C90A91F7E749463A
:100E1000FFF7AAF9303106F8011D0028F7D1ADEB34
:100E2000060000F12009780701D44FF00108C845F9
:100E300002DDA8EB090000E000208046002706E064
:100E400008A85A46C05D0B9990476D1C7F1C5745FA
:100E5000F6DB04E030205A460B9990476D1CB8F140
:100E60000001A8F10108F5DC05E016F8010B5A466F
:100E70000B9990476D1CB9F10001A9F10109F4DC4F
:100E8000641C65E70928010010B5044601E0FFF77E
:100E900063FC14F8010B04490028F8D1BDE81040A8
:100EA0000A20FFF759BC00000000002000000000ED
:100EB00001020304020600000008014001000000D6
:100EC0000806000000200140002000000806000085
:100ED0000020014000400000080600000020014002
:100EE0000080000002060000000801400001000030
:100EF0000606000000180140400000000706000040
:100F0000001C014040000000280F000800000020E5
:100F100038000000140D0008600F000838000020A1
:100F200058040000240D00080000000000380140B3
:100F30000E0600000008014002060000000200004A
:100F4000000400002500000000000A000A00000064
:100F5000F90200080000E803E8030000DD010008D2
:0400000508000131BD
:00000001FF
