Component: ARM Compiler 5.06 update 7 (build 960) Tool: armlink [4d3601]

==============================================================================

Section Cross References

    main.o(i.AppInit) refers to usb2com_app.o(i.Usb2ComAppInit) for Usb2ComAppInit
    main.o(i.AppInit) refers to systick.o(i.TaskScheduleCbReg) for TaskScheduleCbReg
    main.o(i.AppInit) refers to main.o(i.TaskSchedule) for TaskSchedule
    main.o(i.DriverInit) refers to systick.o(i.SystickInit) for SystickInit
    main.o(i.DriverInit) refers to led_drv.o(i.LedDrvInit) for LedDrvInit
    main.o(i.DriverInit) refers to key_drv.o(i.KeyDrvInit) for KeyDrvInit
    main.o(i.DriverInit) refers to usb2com_drv.o(i.Usb2ComDrvInit) for Usb2ComDrvInit
    main.o(i.TaskHandler) refers to main.o(.data) for g_taskComps
    main.o(i.TaskSchedule) refers to main.o(.data) for g_taskComps
    main.o(i.main) refers to main.o(i.DriverInit) for DriverInit
    main.o(i.main) refers to main.o(i.AppInit) for AppInit
    main.o(i.main) refers to main.o(i.TaskHandler) for TaskHandler
    main.o(.data) refers to hmi_app.o(i.HmiTask) for HmiTask
    main.o(.data) refers to usb2com_app.o(i.Usb2ComTask) for Usb2ComTask
    usb2com_app.o(i.CtrlLed) refers to led_drv.o(i.TurnOnLed) for TurnOnLed
    usb2com_app.o(i.CtrlLed) refers to led_drv.o(i.TurnOffLed) for TurnOffLed
    usb2com_app.o(i.ProcUartData) refers to queue.o(i.QueuePush) for QueuePush
    usb2com_app.o(i.ProcUartData) refers to usb2com_app.o(.bss) for g_rcvQueue
==============================================================================

Removing Unused input sections from the image.

    Removing delay.o(.rev16_text), (4 bytes).
    Removing delay.o(.revsh_text), (4 bytes).
    Removing delay.o(i.DelayNms), (24 bytes).
    Removing delay.o(i.DelayNus), (44 bytes).
    Removing delay.o(i.DwtDelayInit), (60 bytes).
    Removing key_drv.o(.rev16_text), (4 bytes).
    Removing key_drv.o(.revsh_text), (4 bytes).
    Removing led_drv.o(.rev16_text), (4 bytes).
    Removing led_drv.o(.revsh_text), (4 bytes).
    Removing led_drv.o(i.ToggleLed), (84 bytes).
    Removing systick.o(.rev16_text), (4 bytes).
    Removing systick.o(.revsh_text), (4 bytes).
    Removing usb2com_drv.o(.rev16_text), (4 bytes).
    Removing usb2com_drv.o(.revsh_text), (4 bytes).
    Removing queue.o(i.QueueCount), (30 bytes).
    Removing queue.o(i.QueuePushArray), (40 bytes).
    Removing gd32f30x_gpio.o(.rev16_text), (4 bytes).
    Removing gd32f30x_gpio.o(.revsh_text), (4 bytes).
==============================================================================

Image Symbol Table

    Local Symbols

    Symbol Name                              Value     Ov Type        Size  Object(Section)

    ../clib/microlib/division.c              0x00000000   Number         0  uldiv.o ABSOLUTE
    ../clib/microlib/division.c              0x00000000   Number         0  uidiv.o ABSOLUTE
    ../clib/microlib/init/entry.s            0x00000000   Number         0  entry5.o ABSOLUTE
    ../clib/microlib/init/entry.s            0x00000000   Number         0  entry7a.o ABSOLUTE
    ../clib/microlib/init/entry.s            0x00000000   Number         0  entry7b.o ABSOLUTE
    ../clib/microlib/init/entry.s            0x00000000   Number         0  entry8a.o ABSOLUTE
    ../clib/microlib/init/entry.s            0x00000000   Number         0  entry8b.o ABSOLUTE
    ../clib/microlib/init/entry.s            0x00000000   Number         0  entry11a.o ABSOLUTE
    ../clib/microlib/init/entry.s            0x00000000   Number         0  entry9a.o ABSOLUTE
    ../clib/microlib/init/entry.s            0x00000000   Number         0  entry9b.o ABSOLUTE
    ../clib/microlib/init/entry.s            0x00000000   Number         0  entry10a.o ABSOLUTE
    ../clib/microlib/init/entry.s            0x00000000   Number         0  entry10b.o ABSOLUTE
    ../clib/microlib/init/entry.s            0x00000000   Number         0  entry11b.o ABSOLUTE
    ../clib/microlib/init/entry.s            0x00000000   Number         0  entry12a.o ABSOLUTE
    ../clib/microlib/init/entry.s            0x00000000   Number         0  entry12b.o ABSOLUTE
    ../clib/microlib/init/entry.s            0x00000000   Number         0  entry.o ABSOLUTE
    ../clib/microlib/init/entry.s            0x00000000   Number         0  entry2.o ABSOLUTE
    ../clib/microlib/longlong.c              0x00000000   Number         0  llsshr.o ABSOLUTE
    ../clib/microlib/longlong.c              0x00000000   Number         0  llushr.o ABSOLUTE
    ../clib/microlib/longlong.c              0x00000000   Number         0  llshl.o ABSOLUTE
    ../clib/microlib/printf/printf.c         0x00000000   Number         0  printfa.o ABSOLUTE
    ../clib/microlib/printf/printf.c         0x00000000   Number         0  printf3.o ABSOLUTE
    ../clib/microlib/printf/printf.c         0x00000000   Number         0  printf2.o ABSOLUTE
    ../clib/microlib/printf/printf.c         0x00000000   Number         0  printf8.o ABSOLUTE
    ../clib/microlib/printf/printf.c         0x00000000   Number         0  printf7.o ABSOLUTE
    ../clib/microlib/printf/printf.c         0x00000000   Number         0  printf1.o ABSOLUTE
    ../clib/microlib/printf/printf.c         0x00000000   Number         0  printf0.o ABSOLUTE
    ../clib/microlib/printf/printf.c         0x00000000   Number         0  printfb.o ABSOLUTE
    ../clib/microlib/printf/printf.c         0x00000000   Number         0  printf6.o ABSOLUTE
    ../clib/microlib/printf/printf.c         0x00000000   Number         0  printf5.o ABSOLUTE
    ../clib/microlib/printf/printf.c         0x00000000   Number         0  printf4.o ABSOLUTE
    ../clib/microlib/printf/stubs.s          0x00000000   Number         0  stubs.o ABSOLUTE
    ../clib/microlib/stdio/streams.c         0x00000000   Number         0  stdout.o ABSOLUTE
    ../clib/microlib/stubs.s                 0x00000000   Number         0  iusefp.o ABSOLUTE
    ../fplib/microlib/fpadd.c                0x00000000   Number         0  dadd.o ABSOLUTE
    ../fplib/microlib/fpdiv.c                0x00000000   Number         0  ddiv.o ABSOLUTE
    ../fplib/microlib/fpepilogue.c           0x00000000   Number         0  depilogue.o ABSOLUTE
    ../fplib/microlib/fpfix.c                0x00000000   Number         0  dfixul.o ABSOLUTE
    ../fplib/microlib/fpmul.c                0x00000000   Number         0  dmul.o ABSOLUTE
    App\hmi_app.c                            0x00000000   Number         0  hmi_app.o ABSOLUTE
    App\main.c                               0x00000000   Number         0  main.o ABSOLUTE
    App\usb2com_app.c                        0x00000000   Number         0  usb2com_app.o ABSOLUTE
    Arm\\system_gd32f30x.c                   0x00000000   Number         0  system_gd32f30x.o ABSOLUTE
    Arm\startup_gd32f30x_hd.s                0x00000000   Number         0  startup_gd32f30x_hd.o ABSOLUTE
    Arm\system_gd32f30x.c                    0x00000000   Number         0  system_gd32f30x.o ABSOLUTE
    Driver\\delay.c                          0x00000000   Number         0  delay.o ABSOLUTE
    Driver\\key_drv.c                        0x00000000   Number         0  key_drv.o ABSOLUTE
    Driver\\led_drv.c                        0x00000000   Number         0  led_drv.o ABSOLUTE
    Driver\\systick.c                        0x00000000   Number         0  systick.o ABSOLUTE
    Driver\\usb2com_drv.c                    0x00000000   Number         0  usb2com_drv.o ABSOLUTE
    Driver\delay.c                           0x00000000   Number         0  delay.o ABSOLUTE
    Driver\key_drv.c                         0x00000000   Number         0  key_drv.o ABSOLUTE
    Driver\led_drv.c                         0x00000000   Number         0  led_drv.o ABSOLUTE
    Driver\queue.c                           0x00000000   Number         0  queue.o ABSOLUTE
    Driver\systick.c                         0x00000000   Number         0  systick.o ABSOLUTE
    Driver\usb2com_drv.c                     0x00000000   Number         0  usb2com_drv.o ABSOLUTE
    GD32_Hal\Source\gd32f30x_gpio.c          0x00000000   Number         0  gd32f30x_gpio.o ABSOLUTE
    GD32_Hal\Source\gd32f30x_misc.c          0x00000000   Number         0  gd32f30x_misc.o ABSOLUTE
    GD32_Hal\Source\gd32f30x_rcu.c           0x00000000   Number         0  gd32f30x_rcu.o ABSOLUTE
    GD32_Hal\Source\gd32f30x_usart.c         0x00000000   Number         0  gd32f30x_usart.o ABSOLUTE
    GD32_Hal\\Source\\gd32f30x_gpio.c        0x00000000   Number         0  gd32f30x_gpio.o ABSOLUTE
    GD32_Hal\\Source\\gd32f30x_misc.c        0x00000000   Number         0  gd32f30x_misc.o ABSOLUTE
    GD32_Hal\\Source\\gd32f30x_rcu.c         0x00000000   Number         0  gd32f30x_rcu.o ABSOLUTE
    GD32_Hal\\Source\\gd32f30x_usart.c       0x00000000   Number         0  gd32f30x_usart.o ABSOLUTE
    cdrcmple.s                               0x00000000   Number         0  cdrcmple.o ABSOLUTE
    dc.s                                     0x00000000   Number         0  dc.o ABSOLUTE
    handlers.s                               0x00000000   Number         0  handlers.o ABSOLUTE
    init.s                                   0x00000000   Number         0  init.o ABSOLUTE
    RESET                                    0x08000000   Section      304  startup_gd32f30x_hd.o(RESET)
    .ARM.Collect$$$$00000000                 0x08000130   Section        0  entry.o(.ARM.Collect$$$$00000000)
    .ARM.Collect$$$$00000001                 0x08000130   Section        4  entry2.o(.ARM.Collect$$$$00000001)
    .ARM.Collect$$$$00000004                 0x08000134   Section        4  entry5.o(.ARM.Collect$$$$00000004)
    .ARM.Collect$$$$00000008                 0x08000138   Section        0  entry7b.o(.ARM.Collect$$$$00000008)
    .ARM.Collect$$$$0000000A                 0x08000138   Section        0  entry8b.o(.ARM.Collect$$$$0000000A)
    .ARM.Collect$$$$0000000B                 0x08000138   Section        8  entry9a.o(.ARM.Collect$$$$0000000B)
    .ARM.Collect$$$$0000000E                 0x08000140   Section        4  entry12b.o(.ARM.Collect$$$$0000000E)
    .ARM.Collect$$$$0000000F                 0x08000144   Section        0  entry10a.o(.ARM.Collect$$$$0000000F)
    .ARM.Collect$$$$00000011                 0x08000144   Section        0  entry11a.o(.ARM.Collect$$$$00000011)
    .ARM.Collect$$$$00002712                 0x08000144   Section        4  entry2.o(.ARM.Collect$$$$00002712)
    __lit__00000000                          0x08000144   Data           4  entry2.o(.ARM.Collect$$$$00002712)
    .text                                    0x08000148   Section       36  startup_gd32f30x_hd.o(.text)
    $v0                                      0x08000148   Number         0  startup_gd32f30x_hd.o(.text)
    .text                                    0x0800016c   Section        0  uldiv.o(.text)
    .text                                    0x080001d0   Section       36  init.o(.text)
    .text                                    0x080001f4   Section        0  llshl.o(.text)
    .text                                    0x08000212   Section        0  llushr.o(.text)
    i.AppInit                                0x08000234   Section        0  main.o(i.AppInit)
    AppInit                                  0x08000235   Thumb Code    14  main.o(i.AppInit)
    i.CalXorSum                              0x08000248   Section        0  usb2com_app.o(i.CalXorSum)
    CalXorSum                                0x08000249   Thumb Code    26  usb2com_app.o(i.CalXorSum)
    i.CtrlLed                                0x08000262   Section        0  usb2com_app.o(i.CtrlLed)
    CtrlLed                                  0x08000263   Thumb Code    24  usb2com_app.o(i.CtrlLed)
    i.DriverInit                             0x0800027a   Section        0  main.o(i.DriverInit)
    DriverInit                               0x0800027b   Thumb Code    20  main.o(i.DriverInit)
    i.GetKeyValue                            0x0800028e   Section        0  key_drv.o(i.GetKeyValue)
    i.GetSystemRunTime                       0x080002b0   Section        0  systick.o(i.GetSystemRunTime)
    i.HmiTask                                0x080002bc   Section        0  hmi_app.o(i.HmiTask)
    i.KeyDrvInit                             0x08000348   Section        0  key_drv.o(i.KeyDrvInit)
    i.KeyScan                                0x08000388   Section        0  key_drv.o(i.KeyScan)
    KeyScan                                  0x08000389   Thumb Code   248  key_drv.o(i.KeyScan)
    i.LedDrvInit                             0x08000488   Section        0  led_drv.o(i.LedDrvInit)
    i.ProcUartData                           0x080004e4   Section        0  usb2com_app.o(i.ProcUartData)
    ProcUartData                             0x080004e5   Thumb Code    14  usb2com_app.o(i.ProcUartData)
    i.QueueInit                              0x080004f8   Section        0  queue.o(i.QueueInit)
    i.QueuePop                               0x08000504   Section        0  queue.o(i.QueuePop)
    i.QueuePopArray                          0x08000530   Section        0  queue.o(i.QueuePopArray)
    i.QueuePush                              0x08000558   Section        0  queue.o(i.QueuePush)
    i.RegUsb2ComCb                           0x08000580   Section        0  usb2com_drv.o(i.RegUsb2ComCb)
    i.SysTick_Handler                        0x0800058c   Section        0  systick.o(i.SysTick_Handler)
    i.SystemInit                             0x080005b0   Section        0  system_gd32f30x.o(i.SystemInit)
    i.SystickInit                            0x08000658   Section        0  systick.o(i.SystickInit)
    i.TaskHandler                            0x080006bc   Section        0  main.o(i.TaskHandler)
    TaskHandler                              0x080006bd   Thumb Code    46  main.o(i.TaskHandler)
    i.TaskSchedule                           0x080006f0   Section        0  main.o(i.TaskSchedule)
    TaskSchedule                             0x080006f1   Thumb Code    78  main.o(i.TaskSchedule)
    i.TaskScheduleCbReg                      0x08000744   Section        0  systick.o(i.TaskScheduleCbReg)
    i.TurnOffLed                             0x08000750   Section        0  led_drv.o(i.TurnOffLed)
    i.TurnOnLed                              0x0800077c   Section        0  led_drv.o(i.TurnOnLed)
    i.USART0_IRQHandler                      0x080007a8   Section        0  usb2com_drv.o(i.USART0_IRQHandler)
    i.Usb2ComAppInit                         0x080007e4   Section        0  usb2com_app.o(i.Usb2ComAppInit)
    i.Usb2ComDrvInit                         0x08000804   Section        0  usb2com_drv.o(i.Usb2ComDrvInit)
    i.Usb2ComGpioInit                        0x08000814   Section        0  usb2com_drv.o(i.Usb2ComGpioInit)
    Usb2ComGpioInit                          0x08000815   Thumb Code    40  usb2com_drv.o(i.Usb2ComGpioInit)
    i.Usb2ComTask                            0x08000840   Section        0  usb2com_app.o(i.Usb2ComTask)
    i.Usb2ComUartInit                        0x0800090c   Section        0  usb2com_drv.o(i.Usb2ComUartInit)
    Usb2ComUartInit                          0x0800090d   Thumb Code   114  usb2com_drv.o(i.Usb2ComUartInit)
    i.__0printf$8                            0x08000984   Section        0  printf8.o(i.__0printf$8)
    i.__scatterload_copy                     0x080009a4   Section       14  handlers.o(i.__scatterload_copy)
    i.__scatterload_null                     0x080009b2   Section        2  handlers.o(i.__scatterload_null)
    i.__scatterload_zeroinit                 0x080009b4   Section       14  handlers.o(i.__scatterload_zeroinit)
    i._printf_core                           0x080009c4   Section        0  printf8.o(i._printf_core)
    _printf_core                             0x080009c5   Thumb Code   984  printf8.o(i._printf_core)
    i._printf_post_padding                   0x08000dc8   Section        0  printf8.o(i._printf_post_padding)
    _printf_post_padding                     0x08000dc9   Thumb Code    36  printf8.o(i._printf_post_padding)
    i._printf_pre_padding                    0x08000dec   Section        0  printf8.o(i._printf_pre_padding)
    _printf_pre_padding                      0x08000ded   Thumb Code    46  printf8.o(i._printf_pre_padding)
    i.fputc                                  0x08000e1c   Section        0  usb2com_drv.o(i.fputc)
    i.gpio_bit_reset                         0x08000e44   Section        0  gd32f30x_gpio.o(i.gpio_bit_reset)
    i.gpio_bit_set                           0x08000e48   Section        0  gd32f30x_gpio.o(i.gpio_bit_set)
    i.gpio_init                              0x08000e4c   Section        0  gd32f30x_gpio.o(i.gpio_init)
    i.gpio_input_bit_get                     0x08000f08   Section        0  gd32f30x_gpio.o(i.gpio_input_bit_get)
    i.main                                   0x08000f18   Section        0  main.o(i.main)
    i.nvic_irq_enable                        0x08000f28   Section        0  gd32f30x_misc.o(i.nvic_irq_enable)
    i.nvic_priority_group_set                0x08000fec   Section        0  gd32f30x_misc.o(i.nvic_priority_group_set)
    i.rcu_clock_freq_get                     0x08001000   Section        0  gd32f30x_rcu.o(i.rcu_clock_freq_get)
    i.rcu_periph_clock_enable                0x08001158   Section        0  gd32f30x_rcu.o(i.rcu_periph_clock_enable)
    i.rcu_periph_reset_disable               0x08001178   Section        0  gd32f30x_rcu.o(i.rcu_periph_reset_disable)
    i.rcu_periph_reset_enable                0x08001198   Section        0  gd32f30x_rcu.o(i.rcu_periph_reset_enable)
    i.system_clock_120m_hxtal                0x080011b8   Section        0  system_gd32f30x.o(i.system_clock_120m_hxtal)
    system_clock_120m_hxtal                  0x080011b9   Thumb Code   258  system_gd32f30x.o(i.system_clock_120m_hxtal)
    i.system_clock_config                    0x080012cc   Section        0  system_gd32f30x.o(i.system_clock_config)
    system_clock_config                      0x080012cd   Thumb Code     8  system_gd32f30x.o(i.system_clock_config)
    i.usart_baudrate_set                     0x080012d4   Section        0  gd32f30x_usart.o(i.usart_baudrate_set)
    i.usart_data_receive                     0x08001364   Section        0  gd32f30x_usart.o(i.usart_data_receive)
    i.usart_data_transmit                    0x0800136e   Section        0  gd32f30x_usart.o(i.usart_data_transmit)
    i.usart_deinit                           0x08001378   Section        0  gd32f30x_usart.o(i.usart_deinit)
    i.usart_enable                           0x08001408   Section        0  gd32f30x_usart.o(i.usart_enable)
    i.usart_flag_get                         0x08001412   Section        0  gd32f30x_usart.o(i.usart_flag_get)
    i.usart_interrupt_enable                 0x08001430   Section        0  gd32f30x_usart.o(i.usart_interrupt_enable)
    i.usart_interrupt_flag_clear             0x0800144a   Section        0  gd32f30x_usart.o(i.usart_interrupt_flag_clear)
    i.usart_interrupt_flag_get               0x0800145c   Section        0  gd32f30x_usart.o(i.usart_interrupt_flag_get)
    i.usart_parity_config                    0x08001494   Section        0  gd32f30x_usart.o(i.usart_parity_config)
    i.usart_receive_config                   0x080014a4   Section        0  gd32f30x_usart.o(i.usart_receive_config)
    i.usart_stop_bit_set                     0x080014b8   Section        0  gd32f30x_usart.o(i.usart_stop_bit_set)
    i.usart_transmit_config                  0x080014c8   Section        0  gd32f30x_usart.o(i.usart_transmit_config)
    i.usart_word_length_set                  0x080014dc   Section        0  gd32f30x_usart.o(i.usart_word_length_set)
    .data                                    0x20000000   Section       32  main.o(.data)
    g_taskComps                              0x20000000   Data          32  main.o(.data)
    .data                                    0x20000020   Section       48  key_drv.o(.data)
    g_GpioList                               0x20000020   Data          48  key_drv.o(.data)
    .data                                    0x20000050   Section       36  led_drv.o(.data)
    g_ledList                                0x20000050   Data          36  led_drv.o(.data)
    .data                                    0x20000078   Section       16  systick.o(.data)
    g_pTaskScheduleFunc                      0x20000078   Data           4  systick.o(.data)
    g_systemRunTime                          0x20000080   Data           8  systick.o(.data)
    .data                                    0x20000088   Section       32  usb2com_drv.o(.data)
    pProcUartData                            0x200000a4   Data           4  usb2com_drv.o(.data)
    .data                                    0x200000a8   Section        4  stdout.o(.data)
    .bss                                     0x200000ac   Section       96  usb2com_app.o(.bss)
    g_rcvUartDataBuf                         0x200000ac   Data          77  usb2com_app.o(.bss)
    g_rcvQueue                               0x200000fc   Data          16  usb2com_app.o(.bss)
    .bss                                     0x20000110   Section       64  key_drv.o(.bss)
    g_keyInfoList                            0x20000110   Data          64  key_drv.o(.bss)
    STACK                                    0x20000150   Section     1024  startup_gd32f30x_hd.o(STACK)

    Global Symbols

    Symbol Name                              Value     Ov Type        Size  Object(Section)

    BuildAttributes$$THM_ISAv4$E$P$D$K$B$S$7EM$VFPi3$EXTD16$VFPS$VFMA$PE$A:L22UL41UL21$X:L11$S22US41US21$IEEE1$IW$USESV6$~STKCKD$USESV7$~SHL$OSPACE$ROPI$EBA8$MICROLIB$REQ8$PRES8$EABIv2 0x00000000   Number         0  anon$$obj.o ABSOLUTE
    __ARM_use_no_argv                        0x00000000   Number         0  main.o ABSOLUTE
    _printf_a                                0x00000000   Number         0  stubs.o ABSOLUTE
    _printf_c                                0x00000000   Number         0  stubs.o ABSOLUTE
    _printf_charcount                        0x00000000   Number         0  stubs.o ABSOLUTE
    _printf_d                                0x00000000   Number         0  stubs.o ABSOLUTE
    _printf_e                                0x00000000   Number         0  stubs.o ABSOLUTE
    _printf_f                                0x00000000   Number         0  stubs.o ABSOLUTE
    _printf_flags                            0x00000000   Number         0  stubs.o ABSOLUTE
    _printf_fp_dec                           0x00000000   Number         0  stubs.o ABSOLUTE
    _printf_fp_hex                           0x00000000   Number         0  stubs.o ABSOLUTE
    _printf_g                                0x00000000   Number         0  stubs.o ABSOLUTE
    _printf_i                                0x00000000   Number         0  stubs.o ABSOLUTE
    _printf_int_dec                          0x00000000   Number         0  stubs.o ABSOLUTE
    _printf_l                                0x00000000   Number         0  stubs.o ABSOLUTE
    _printf_lc                               0x00000000   Number         0  stubs.o ABSOLUTE
    _printf_ll                               0x00000000   Number         0  stubs.o ABSOLUTE
    _printf_lld                              0x00000000   Number         0  stubs.o ABSOLUTE
    _printf_lli                              0x00000000   Number         0  stubs.o ABSOLUTE
    _printf_llo                              0x00000000   Number         0  stubs.o ABSOLUTE
    _printf_llu                              0x00000000   Number         0  stubs.o ABSOLUTE
    _printf_llx                              0x00000000   Number         0  stubs.o ABSOLUTE
    _printf_longlong_dec                     0x00000000   Number         0  stubs.o ABSOLUTE
    _printf_longlong_hex                     0x00000000   Number         0  stubs.o ABSOLUTE
    _printf_longlong_oct                     0x00000000   Number         0  stubs.o ABSOLUTE
    _printf_ls                               0x00000000   Number         0  stubs.o ABSOLUTE
    _printf_mbtowc                           0x00000000   Number         0  stubs.o ABSOLUTE
    _printf_n                                0x00000000   Number         0  stubs.o ABSOLUTE
    _printf_o                                0x00000000   Number         0  stubs.o ABSOLUTE
    _printf_p                                0x00000000   Number         0  stubs.o ABSOLUTE
    _printf_percent                          0x00000000   Number         0  stubs.o ABSOLUTE
    _printf_pre_padding                      0x00000000   Number         0  stubs.o ABSOLUTE
    _printf_return_value                     0x00000000   Number         0  stubs.o ABSOLUTE
    _printf_s                                0x00000000   Number         0  stubs.o ABSOLUTE
    _printf_sizespec                         0x00000000   Number         0  stubs.o ABSOLUTE
    _printf_str                              0x00000000   Number         0  stubs.o ABSOLUTE
    _printf_truncate_signed                  0x00000000   Number         0  stubs.o ABSOLUTE
    _printf_truncate_unsigned                0x00000000   Number         0  stubs.o ABSOLUTE
    _printf_u                                0x00000000   Number         0  stubs.o ABSOLUTE
    _printf_wc                               0x00000000   Number         0  stubs.o ABSOLUTE
    _printf_wctomb                           0x00000000   Number         0  stubs.o ABSOLUTE
    _printf_widthprec                        0x00000000   Number         0  stubs.o ABSOLUTE
    _printf_x                                0x00000000   Number         0  stubs.o ABSOLUTE
    __arm_fini_                               - Undefined Weak Reference
    __cpp_initialize__aeabi_                  - Undefined Weak Reference
    __cxa_finalize                            - Undefined Weak Reference
    __decompress                              - Undefined Weak Reference
    _clock_init                               - Undefined Weak Reference
    _microlib_exit                            - Undefined Weak Reference
    __Vectors_Size                           0x00000130   Number         0  startup_gd32f30x_hd.o ABSOLUTE
    __Vectors                                0x08000000   Data           4  startup_gd32f30x_hd.o(RESET)
    __Vectors_End                            0x08000130   Data           0  startup_gd32f30x_hd.o(RESET)
    __main                                   0x08000131   Thumb Code     0  entry.o(.ARM.Collect$$$$00000000)
    _main_stk                                0x08000131   Thumb Code     0  entry2.o(.ARM.Collect$$$$00000001)
    _main_scatterload                        0x08000135   Thumb Code     0  entry5.o(.ARM.Collect$$$$00000004)
    __main_after_scatterload                 0x08000139   Thumb Code     0  entry5.o(.ARM.Collect$$$$00000004)
    _main_clock                              0x08000139   Thumb Code     0  entry7b.o(.ARM.Collect$$$$00000008)
    _main_cpp_init                           0x08000139   Thumb Code     0  entry8b.o(.ARM.Collect$$$$0000000A)
    _main_init                               0x08000139   Thumb Code     0  entry9a.o(.ARM.Collect$$$$0000000B)
    __rt_lib_shutdown_fini                   0x08000141   Thumb Code     0  entry12b.o(.ARM.Collect$$$$0000000E)
    __rt_final_cpp                           0x08000145   Thumb Code     0  entry10a.o(.ARM.Collect$$$$0000000F)
    __rt_final_exit                          0x08000145   Thumb Code     0  entry11a.o(.ARM.Collect$$$$00000011)
    Reset_Handler                            0x08000149   Thumb Code     8  startup_gd32f30x_hd.o(.text)
    NMI_Handler                              0x08000151   Thumb Code     2  startup_gd32f30x_hd.o(.text)
    HardFault_Handler                        0x08000153   Thumb Code     2  startup_gd32f30x_hd.o(.text)
    MemManage_Handler                        0x08000155   Thumb Code     2  startup_gd32f30x_hd.o(.text)
    BusFault_Handler                         0x08000157   Thumb Code     2  startup_gd32f30x_hd.o(.text)
    UsageFault_Handler                       0x08000159   Thumb Code     2  startup_gd32f30x_hd.o(.text)
    SVC_Handler                              0x0800015b   Thumb Code     2  startup_gd32f30x_hd.o(.text)
    DebugMon_Handler                         0x0800015d   Thumb Code     2  startup_gd32f30x_hd.o(.text)
    PendSV_Handler                           0x0800015f   Thumb Code     2  startup_gd32f30x_hd.o(.text)
    ADC0_1_IRQHandler                        0x08000163   Thumb Code     0  startup_gd32f30x_hd.o(.text)
    ADC2_IRQHandler                          0x08000163   Thumb Code     0  startup_gd32f30x_hd.o(.text)
    CAN0_EWMC_IRQHandler                     0x08000163   Thumb Code     0  startup_gd32f30x_hd.o(.text)
    CAN0_RX1_IRQHandler                      0x08000163   Thumb Code     0  startup_gd32f30x_hd.o(.text)
    DMA0_Channel0_IRQHandler                 0x08000163   Thumb Code     0  startup_gd32f30x_hd.o(.text)
    DMA0_Channel1_IRQHandler                 0x08000163   Thumb Code     0  startup_gd32f30x_hd.o(.text)
    DMA0_Channel2_IRQHandler                 0x08000163   Thumb Code     0  startup_gd32f30x_hd.o(.text)
    DMA0_Channel3_IRQHandler                 0x08000163   Thumb Code     0  startup_gd32f30x_hd.o(.text)
    DMA0_Channel4_IRQHandler                 0x08000163   Thumb Code     0  startup_gd32f30x_hd.o(.text)
    DMA0_Channel5_IRQHandler                 0x08000163   Thumb Code     0  startup_gd32f30x_hd.o(.text)
    DMA0_Channel6_IRQHandler                 0x08000163   Thumb Code     0  startup_gd32f30x_hd.o(.text)
    DMA1_Channel0_IRQHandler                 0x08000163   Thumb Code     0  startup_gd32f30x_hd.o(.text)
    DMA1_Channel1_IRQHandler                 0x08000163   Thumb Code     0  startup_gd32f30x_hd.o(.text)
    DMA1_Channel2_IRQHandler                 0x08000163   Thumb Code     0  startup_gd32f30x_hd.o(.text)
    DMA1_Channel3_4_IRQHandler               0x08000163   Thumb Code     0  startup_gd32f30x_hd.o(.text)
    EXMC_IRQHandler                          0x08000163   Thumb Code     0  startup_gd32f30x_hd.o(.text)
    EXTI0_IRQHandler                         0x08000163   Thumb Code     0  startup_gd32f30x_hd.o(.text)
    EXTI10_15_IRQHandler                     0x08000163   Thumb Code     0  startup_gd32f30x_hd.o(.text)
    EXTI1_IRQHandler                         0x08000163   Thumb Code     0  startup_gd32f30x_hd.o(.text)
    EXTI2_IRQHandler                         0x08000163   Thumb Code     0  startup_gd32f30x_hd.o(.text)
    EXTI3_IRQHandler                         0x08000163   Thumb Code     0  startup_gd32f30x_hd.o(.text)
    EXTI4_IRQHandler                         0x08000163   Thumb Code     0  startup_gd32f30x_hd.o(.text)
    EXTI5_9_IRQHandler                       0x08000163   Thumb Code     0  startup_gd32f30x_hd.o(.text)
    FMC_IRQHandler                           0x08000163   Thumb Code     0  startup_gd32f30x_hd.o(.text)
    I2C0_ER_IRQHandler                       0x08000163   Thumb Code     0  startup_gd32f30x_hd.o(.text)
    I2C0_EV_IRQHandler                       0x08000163   Thumb Code     0  startup_gd32f30x_hd.o(.text)
    I2C1_ER_IRQHandler                       0x08000163   Thumb Code     0  startup_gd32f30x_hd.o(.text)
    I2C1_EV_IRQHandler                       0x08000163   Thumb Code     0  startup_gd32f30x_hd.o(.text)
    LVD_IRQHandler                           0x08000163   Thumb Code     0  startup_gd32f30x_hd.o(.text)
    RCU_CTC_IRQHandler                       0x08000163   Thumb Code     0  startup_gd32f30x_hd.o(.text)
    RTC_Alarm_IRQHandler                     0x08000163   Thumb Code     0  startup_gd32f30x_hd.o(.text)
    RTC_IRQHandler                           0x08000163   Thumb Code     0  startup_gd32f30x_hd.o(.text)
    SDIO_IRQHandler                          0x08000163   Thumb Code     0  startup_gd32f30x_hd.o(.text)
    SPI0_IRQHandler                          0x08000163   Thumb Code     0  startup_gd32f30x_hd.o(.text)
    SPI1_IRQHandler                          0x08000163   Thumb Code     0  startup_gd32f30x_hd.o(.text)
    SPI2_IRQHandler                          0x08000163   Thumb Code     0  startup_gd32f30x_hd.o(.text)
    TAMPER_IRQHandler                        0x08000163   Thumb Code     0  startup_gd32f30x_hd.o(.text)
    TIMER0_BRK_IRQHandler                    0x08000163   Thumb Code     0  startup_gd32f30x_hd.o(.text)
    TIMER0_Channel_IRQHandler                0x08000163   Thumb Code     0  startup_gd32f30x_hd.o(.text)
    TIMER0_TRG_CMT_IRQHandler                0x08000163   Thumb Code     0  startup_gd32f30x_hd.o(.text)
    TIMER0_UP_IRQHandler                     0x08000163   Thumb Code     0  startup_gd32f30x_hd.o(.text)
    TIMER1_IRQHandler                        0x08000163   Thumb Code     0  startup_gd32f30x_hd.o(.text)
    TIMER2_IRQHandler                        0x08000163   Thumb Code     0  startup_gd32f30x_hd.o(.text)
    TIMER3_IRQHandler                        0x08000163   Thumb Code     0  startup_gd32f30x_hd.o(.text)
    TIMER4_IRQHandler                        0x08000163   Thumb Code     0  startup_gd32f30x_hd.o(.text)
    TIMER5_IRQHandler                        0x08000163   Thumb Code     0  startup_gd32f30x_hd.o(.text)
    TIMER6_IRQHandler                        0x08000163   Thumb Code     0  startup_gd32f30x_hd.o(.text)
    TIMER7_BRK_IRQHandler                    0x08000163   Thumb Code     0  startup_gd32f30x_hd.o(.text)
    TIMER7_Channel_IRQHandler                0x08000163   Thumb Code     0  startup_gd32f30x_hd.o(.text)
    TIMER7_TRG_CMT_IRQHandler                0x08000163   Thumb Code     0  startup_gd32f30x_hd.o(.text)
    TIMER7_UP_IRQHandler                     0x08000163   Thumb Code     0  startup_gd32f30x_hd.o(.text)
    UART3_IRQHandler                         0x08000163   Thumb Code     0  startup_gd32f30x_hd.o(.text)
    UART4_IRQHandler                         0x08000163   Thumb Code     0  startup_gd32f30x_hd.o(.text)
    USART1_IRQHandler                        0x08000163   Thumb Code     0  startup_gd32f30x_hd.o(.text)
    USART2_IRQHandler                        0x08000163   Thumb Code     0  startup_gd32f30x_hd.o(.text)
    USBD_HP_CAN0_TX_IRQHandler               0x08000163   Thumb Code     0  startup_gd32f30x_hd.o(.text)
    USBD_LP_CAN0_RX0_IRQHandler              0x08000163   Thumb Code     0  startup_gd32f30x_hd.o(.text)
    USBD_WKUP_IRQHandler                     0x08000163   Thumb Code     0  startup_gd32f30x_hd.o(.text)
    WWDGT_IRQHandler                         0x08000163   Thumb Code     0  startup_gd32f30x_hd.o(.text)
    __aeabi_uldivmod                         0x0800016d   Thumb Code    98  uldiv.o(.text)
    __scatterload                            0x080001d1   Thumb Code    28  init.o(.text)
    __scatterload_rt2                        0x080001d1   Thumb Code     0  init.o(.text)
    __aeabi_llsl                             0x080001f5   Thumb Code    30  llshl.o(.text)
    _ll_shift_l                              0x080001f5   Thumb Code     0  llshl.o(.text)
    __aeabi_llsr                             0x08000213   Thumb Code    32  llushr.o(.text)
    _ll_ushift_r                             0x08000213   Thumb Code     0  llushr.o(.text)
    GetKeyValue                              0x0800028f   Thumb Code    34  key_drv.o(i.GetKeyValue)
    GetSystemRunTime                         0x080002b1   Thumb Code     8  systick.o(i.GetSystemRunTime)
    HmiTask                                  0x080002bd   Thumb Code   140  hmi_app.o(i.HmiTask)
    KeyDrvInit                               0x08000349   Thumb Code    60  key_drv.o(i.KeyDrvInit)
    LedDrvInit                               0x08000489   Thumb Code    86  led_drv.o(i.LedDrvInit)
    QueueInit                                0x080004f9   Thumb Code    12  queue.o(i.QueueInit)
    QueuePop                                 0x08000505   Thumb Code    44  queue.o(i.QueuePop)
    QueuePopArray                            0x08000531   Thumb Code    40  queue.o(i.QueuePopArray)
    QueuePush                                0x08000559   Thumb Code    40  queue.o(i.QueuePush)
    RegUsb2ComCb                             0x08000581   Thumb Code     6  usb2com_drv.o(i.RegUsb2ComCb)
    SysTick_Handler                          0x0800058d   Thumb Code    28  systick.o(i.SysTick_Handler)
    SystemInit                               0x080005b1   Thumb Code   156  system_gd32f30x.o(i.SystemInit)
    SystickInit                              0x08000659   Thumb Code    92  systick.o(i.SystickInit)
    TaskScheduleCbReg                        0x08000745   Thumb Code     6  systick.o(i.TaskScheduleCbReg)
    TurnOffLed                               0x08000751   Thumb Code    40  led_drv.o(i.TurnOffLed)
    TurnOnLed                                0x0800077d   Thumb Code    40  led_drv.o(i.TurnOnLed)
    USART0_IRQHandler                        0x080007a9   Thumb Code    46  usb2com_drv.o(i.USART0_IRQHandler)
    Usb2ComAppInit                           0x080007e5   Thumb Code    20  usb2com_app.o(i.Usb2ComAppInit)
    Usb2ComDrvInit                           0x08000805   Thumb Code    16  usb2com_drv.o(i.Usb2ComDrvInit)
    Usb2ComTask                              0x08000841   Thumb Code   188  usb2com_app.o(i.Usb2ComTask)
    __0printf$8                              0x08000985   Thumb Code    22  printf8.o(i.__0printf$8)
    __1printf$8                              0x08000985   Thumb Code     0  printf8.o(i.__0printf$8)
    __2printf                                0x08000985   Thumb Code     0  printf8.o(i.__0printf$8)
    __scatterload_copy                       0x080009a5   Thumb Code    14  handlers.o(i.__scatterload_copy)
    __scatterload_null                       0x080009b3   Thumb Code     2  handlers.o(i.__scatterload_null)
    __scatterload_zeroinit                   0x080009b5   Thumb Code    14  handlers.o(i.__scatterload_zeroinit)
    fputc                                    0x08000e1d   Thumb Code    36  usb2com_drv.o(i.fputc)
    gpio_bit_reset                           0x08000e45   Thumb Code     4  gd32f30x_gpio.o(i.gpio_bit_reset)
    gpio_bit_set                             0x08000e49   Thumb Code     4  gd32f30x_gpio.o(i.gpio_bit_set)
    gpio_init                                0x08000e4d   Thumb Code   188  gd32f30x_gpio.o(i.gpio_init)
    gpio_input_bit_get                       0x08000f09   Thumb Code    16  gd32f30x_gpio.o(i.gpio_input_bit_get)
    main                                     0x08000f19   Thumb Code    16  main.o(i.main)
    nvic_irq_enable                          0x08000f29   Thumb Code   186  gd32f30x_misc.o(i.nvic_irq_enable)
    nvic_priority_group_set                  0x08000fed   Thumb Code    10  gd32f30x_misc.o(i.nvic_priority_group_set)
    rcu_clock_freq_get                       0x08001001   Thumb Code   310  gd32f30x_rcu.o(i.rcu_clock_freq_get)
    rcu_periph_clock_enable                  0x08001159   Thumb Code    28  gd32f30x_rcu.o(i.rcu_periph_clock_enable)
    rcu_periph_reset_disable                 0x08001179   Thumb Code    28  gd32f30x_rcu.o(i.rcu_periph_reset_disable)
    rcu_periph_reset_enable                  0x08001199   Thumb Code    28  gd32f30x_rcu.o(i.rcu_periph_reset_enable)
    usart_baudrate_set                       0x080012d5   Thumb Code   136  gd32f30x_usart.o(i.usart_baudrate_set)
    usart_data_receive                       0x08001365   Thumb Code    10  gd32f30x_usart.o(i.usart_data_receive)
    usart_data_transmit                      0x0800136f   Thumb Code     8  gd32f30x_usart.o(i.usart_data_transmit)
    usart_deinit                             0x08001379   Thumb Code   136  gd32f30x_usart.o(i.usart_deinit)
    usart_enable                             0x08001409   Thumb Code    10  gd32f30x_usart.o(i.usart_enable)
    usart_flag_get                           0x08001413   Thumb Code    30  gd32f30x_usart.o(i.usart_flag_get)
    usart_interrupt_enable                   0x08001431   Thumb Code    26  gd32f30x_usart.o(i.usart_interrupt_enable)
    usart_interrupt_flag_clear               0x0800144b   Thumb Code    18  gd32f30x_usart.o(i.usart_interrupt_flag_clear)
    usart_interrupt_flag_get                 0x0800145d   Thumb Code    56  gd32f30x_usart.o(i.usart_interrupt_flag_get)
    usart_parity_config                      0x08001495   Thumb Code    16  gd32f30x_usart.o(i.usart_parity_config)
    usart_receive_config                     0x080014a5   Thumb Code    20  gd32f30x_usart.o(i.usart_receive_config)
    usart_stop_bit_set                       0x080014b9   Thumb Code    16  gd32f30x_usart.o(i.usart_stop_bit_set)
    usart_transmit_config                    0x080014c9   Thumb Code    20  gd32f30x_usart.o(i.usart_transmit_config)
    usart_word_length_set                    0x080014dd   Thumb Code    16  gd32f30x_usart.o(i.usart_word_length_set)
    Region$$Table$$Base                      0x080014ec   Number         0  anon$$obj.o(Region$$Table)
    Region$$Table$$Limit                     0x0800150c   Number         0  anon$$obj.o(Region$$Table)
    g_Usb2ComInfo                            0x20000088   Data          28  usb2com_drv.o(.data)
    __stdout                                 0x200000a8   Data           4  stdout.o(.data)
    __initial_sp                             0x20000550   Data           0  startup_gd32f30x_hd.o(STACK)



==============================================================================

Memory Map of the image

  Image Entry point : 0x08000131

  Load Region LR_IROM1 (Base: 0x08000000, Size: 0x000015b8, Max: 0x00080000, ABSOLUTE)

    Execution Region ER_IROM1 (Exec base: 0x08000000, Load base: 0x08000000, Size: 0x0000150c, Max: 0x00080000, ABSOLUTE)

    Exec Addr    Load Addr    Size         Type   Attr      Idx    E Section Name        Object

    0x08000000   0x08000000   0x00000130   Data   RO         1179    RESET               startup_gd32f30x_hd.o
    0x08000130   0x08000130   0x00000000   Code   RO         1236  * .ARM.Collect$$$$00000000  mc_w.l(entry.o)
    0x08000130   0x08000130   0x00000004   Code   RO         1500    .ARM.Collect$$$$00000001  mc_w.l(entry2.o)
    0x08000134   0x08000134   0x00000004   Code   RO         1503    .ARM.Collect$$$$00000004  mc_w.l(entry5.o)
    0x08000138   0x08000138   0x00000000   Code   RO         1505    .ARM.Collect$$$$00000008  mc_w.l(entry7b.o)
    0x08000138   0x08000138   0x00000000   Code   RO         1507    .ARM.Collect$$$$0000000A  mc_w.l(entry8b.o)
    0x08000138   0x08000138   0x00000008   Code   RO         1508    .ARM.Collect$$$$0000000B  mc_w.l(entry9a.o)
    0x08000140   0x08000140   0x00000004   Code   RO         1515    .ARM.Collect$$$$0000000E  mc_w.l(entry12b.o)
    0x08000144   0x08000144   0x00000000   Code   RO         1510    .ARM.Collect$$$$0000000F  mc_w.l(entry10a.o)
    0x08000144   0x08000144   0x00000000   Code   RO         1512    .ARM.Collect$$$$00000011  mc_w.l(entry11a.o)
    0x08000144   0x08000144   0x00000004   Code   RO         1501    .ARM.Collect$$$$00002712  mc_w.l(entry2.o)
    0x08000148   0x08000148   0x00000024   Code   RO         1180    .text               startup_gd32f30x_hd.o
    0x0800016c   0x0800016c   0x00000062   Code   RO         1519    .text               mc_w.l(uldiv.o)
    0x080001ce   0x080001ce   0x00000002   PAD
    0x080001d0   0x080001d0   0x00000024   Code   RO         1532    .text               mc_w.l(init.o)
    0x080001f4   0x080001f4   0x0000001e   Code   RO         1534    .text               mc_w.l(llshl.o)
    0x08000212   0x08000212   0x00000020   Code   RO         1536    .text               mc_w.l(llushr.o)
    0x08000232   0x08000232   0x00000002   PAD
    0x08000234   0x08000234   0x00000014   Code   RO            1    i.AppInit           main.o
    0x08000248   0x08000248   0x0000001a   Code   RO           58    i.CalXorSum         usb2com_app.o
    0x08000262   0x08000262   0x00000018   Code   RO           59    i.CtrlLed           usb2com_app.o
    0x0800027a   0x0800027a   0x00000014   Code   RO            2    i.DriverInit        main.o
    0x0800028e   0x0800028e   0x00000022   Code   RO          185    i.GetKeyValue       key_drv.o
    0x080002b0   0x080002b0   0x0000000c   Code   RO          265    i.GetSystemRunTime  systick.o
    0x080002bc   0x080002bc   0x0000008c   Code   RO          100    i.HmiTask           hmi_app.o
    0x08000348   0x08000348   0x00000040   Code   RO          186    i.KeyDrvInit        key_drv.o
    0x08000388   0x08000388   0x00000100   Code   RO          187    i.KeyScan           key_drv.o
    0x08000488   0x08000488   0x0000005c   Code   RO          222    i.LedDrvInit        led_drv.o
    0x080004e4   0x080004e4   0x00000014   Code   RO           60    i.ProcUartData      usb2com_app.o
    0x080004f8   0x080004f8   0x0000000c   Code   RO          363    i.QueueInit         queue.o
    0x08000504   0x08000504   0x0000002c   Code   RO          364    i.QueuePop          queue.o
    0x08000530   0x08000530   0x00000028   Code   RO          365    i.QueuePopArray     queue.o
    0x08000558   0x08000558   0x00000028   Code   RO          366    i.QueuePush         queue.o
    0x08000580   0x08000580   0x0000000c   Code   RO          309    i.RegUsb2ComCb      usb2com_drv.o
    0x0800058c   0x0800058c   0x00000024   Code   RO          266    i.SysTick_Handler   systick.o
    0x080005b0   0x080005b0   0x000000a8   Code   RO         1187    i.SystemInit        system_gd32f30x.o
    0x08000658   0x08000658   0x00000064   Code   RO          267    i.SystickInit       systick.o
    0x080006bc   0x080006bc   0x00000034   Code   RO            3    i.TaskHandler       main.o
    0x080006f0   0x080006f0   0x00000054   Code   RO            4    i.TaskSchedule      main.o
    0x08000744   0x08000744   0x0000000c   Code   RO          268    i.TaskScheduleCbReg  systick.o
    0x08000750   0x08000750   0x0000002c   Code   RO          224    i.TurnOffLed        led_drv.o
    0x0800077c   0x0800077c   0x0000002c   Code   RO          225    i.TurnOnLed         led_drv.o
    0x080007a8   0x080007a8   0x0000003c   Code   RO          310    i.USART0_IRQHandler  usb2com_drv.o
    0x080007e4   0x080007e4   0x00000020   Code   RO           61    i.Usb2ComAppInit    usb2com_app.o
    0x08000804   0x08000804   0x00000010   Code   RO          311    i.Usb2ComDrvInit    usb2com_drv.o
    0x08000814   0x08000814   0x0000002c   Code   RO          312    i.Usb2ComGpioInit   usb2com_drv.o
    0x08000840   0x08000840   0x000000cc   Code   RO           62    i.Usb2ComTask       usb2com_app.o
    0x0800090c   0x0800090c   0x00000078   Code   RO          313    i.Usb2ComUartInit   usb2com_drv.o
    0x08000984   0x08000984   0x00000020   Code   RO         1446    i.__0printf$8       mc_w.l(printf8.o)
    0x080009a4   0x080009a4   0x0000000e   Code   RO         1544    i.__scatterload_copy  mc_w.l(handlers.o)
    0x080009b2   0x080009b2   0x00000002   Code   RO         1545    i.__scatterload_null  mc_w.l(handlers.o)
    0x080009b4   0x080009b4   0x0000000e   Code   RO         1546    i.__scatterload_zeroinit  mc_w.l(handlers.o)
    0x080009c2   0x080009c2   0x00000002   PAD
    0x080009c4   0x080009c4   0x00000404   Code   RO         1453    i._printf_core      mc_w.l(printf8.o)
    0x08000dc8   0x08000dc8   0x00000024   Code   RO         1454    i._printf_post_padding  mc_w.l(printf8.o)
    0x08000dec   0x08000dec   0x0000002e   Code   RO         1455    i._printf_pre_padding  mc_w.l(printf8.o)
    0x08000e1a   0x08000e1a   0x00000002   PAD
    0x08000e1c   0x08000e1c   0x00000028   Code   RO          314    i.fputc             usb2com_drv.o
    0x08000e44   0x08000e44   0x00000004   Code   RO          410    i.gpio_bit_reset    gd32f30x_gpio.o
    0x08000e48   0x08000e48   0x00000004   Code   RO          411    i.gpio_bit_set      gd32f30x_gpio.o
    0x08000e4c   0x08000e4c   0x000000bc   Code   RO          420    i.gpio_init         gd32f30x_gpio.o
    0x08000f08   0x08000f08   0x00000010   Code   RO          421    i.gpio_input_bit_get  gd32f30x_gpio.o
    0x08000f18   0x08000f18   0x00000010   Code   RO            5    i.main              main.o
    0x08000f28   0x08000f28   0x000000c4   Code   RO         1124    i.nvic_irq_enable   gd32f30x_misc.o
    0x08000fec   0x08000fec   0x00000014   Code   RO         1125    i.nvic_priority_group_set  gd32f30x_misc.o
    0x08001000   0x08001000   0x00000158   Code   RO          561    i.rcu_clock_freq_get  gd32f30x_rcu.o
    0x08001158   0x08001158   0x00000020   Code   RO          579    i.rcu_periph_clock_enable  gd32f30x_rcu.o
    0x08001178   0x08001178   0x00000020   Code   RO          582    i.rcu_periph_reset_disable  gd32f30x_rcu.o
    0x08001198   0x08001198   0x00000020   Code   RO          583    i.rcu_periph_reset_enable  gd32f30x_rcu.o
    0x080011b8   0x080011b8   0x00000114   Code   RO         1188    i.system_clock_120m_hxtal  system_gd32f30x.o
    0x080012cc   0x080012cc   0x00000008   Code   RO         1189    i.system_clock_config  system_gd32f30x.o
    0x080012d4   0x080012d4   0x00000090   Code   RO          807    i.usart_baudrate_set  gd32f30x_usart.o
    0x08001364   0x08001364   0x0000000a   Code   RO          810    i.usart_data_receive  gd32f30x_usart.o
    0x0800136e   0x0800136e   0x00000008   Code   RO          811    i.usart_data_transmit  gd32f30x_usart.o
    0x08001376   0x08001376   0x00000002   PAD
    0x08001378   0x08001378   0x00000090   Code   RO          812    i.usart_deinit      gd32f30x_usart.o
    0x08001408   0x08001408   0x0000000a   Code   RO          816    i.usart_enable      gd32f30x_usart.o
    0x08001412   0x08001412   0x0000001e   Code   RO          818    i.usart_flag_get    gd32f30x_usart.o
    0x08001430   0x08001430   0x0000001a   Code   RO          825    i.usart_interrupt_enable  gd32f30x_usart.o
    0x0800144a   0x0800144a   0x00000012   Code   RO          826    i.usart_interrupt_flag_clear  gd32f30x_usart.o
    0x0800145c   0x0800145c   0x00000038   Code   RO          827    i.usart_interrupt_flag_get  gd32f30x_usart.o
    0x08001494   0x08001494   0x00000010   Code   RO          838    i.usart_parity_config  gd32f30x_usart.o
    0x080014a4   0x080014a4   0x00000014   Code   RO          840    i.usart_receive_config  gd32f30x_usart.o
    0x080014b8   0x080014b8   0x00000010   Code   RO          850    i.usart_stop_bit_set  gd32f30x_usart.o
    0x080014c8   0x080014c8   0x00000014   Code   RO          854    i.usart_transmit_config  gd32f30x_usart.o
    0x080014dc   0x080014dc   0x00000010   Code   RO          855    i.usart_word_length_set  gd32f30x_usart.o
    0x080014ec   0x080014ec   0x00000020   Data   RO         1542    Region$$Table       anon$$obj.o


    Execution Region RW_IRAM1 (Exec base: 0x20000000, Load base: 0x0800150c, Size: 0x00000550, Max: 0x00010000, ABSOLUTE)

    Exec Addr    Load Addr    Size         Type   Attr      Idx    E Section Name        Object

    0x20000000   0x0800150c   0x00000020   Data   RW            6    .data               main.o
    0x20000020   0x0800152c   0x00000030   Data   RW          189    .data               key_drv.o
    0x20000050   0x0800155c   0x00000024   Data   RW          226    .data               led_drv.o
    0x20000074   0x08001580   0x00000004   PAD
    0x20000078   0x08001584   0x00000010   Data   RW          269    .data               systick.o
    0x20000088   0x08001594   0x00000020   Data   RW          315    .data               usb2com_drv.o
    0x200000a8   0x080015b4   0x00000004   Data   RW         1516    .data               mc_w.l(stdout.o)
    0x200000ac        -       0x00000060   Zero   RW           63    .bss                usb2com_app.o
    0x2000010c   0x080015b8   0x00000004   PAD
    0x20000110        -       0x00000040   Zero   RW          188    .bss                key_drv.o
    0x20000150        -       0x00000400   Zero   RW         1177    STACK               startup_gd32f30x_hd.o


==============================================================================

Image component sizes


      Code (inc. data)   RO Data    RW Data    ZI Data      Debug   Object Name

         0          0          0          0          0      21260   delay.o
       212          0          0          0          0       2737   gd32f30x_gpio.o
       216         20          0          0          0       1448   gd32f30x_misc.o
       440         46          0          0          0      20000   gd32f30x_rcu.o
       534         16          0          0          0      15614   gd32f30x_usart.o
       140          0          0          0          0        570   hmi_app.o
       354         12          0         48         64       3047   key_drv.o
       180         14          0         36          0       2542   led_drv.o
       192         18          0         32          0       7883   main.o
       136          0          0          0          0       3531   queue.o
        36          8        304          0       1024        852   startup_gd32f30x_hd.o
       452         30          0          0          0       2525   system_gd32f30x.o
       160         26          0         16          0      29390   systick.o
       306         34          0          0         96       4403   usb2com_app.o
       292         34          0         32          0       5508   usb2com_drv.o

    ----------------------------------------------------------------------
      3652        258        336        168       1188     121310   Object Totals
         0          0         32          0          0          0   (incl. Generated)
         2          0          0          4          4          0   (incl. Padding)

    ----------------------------------------------------------------------

      Code (inc. data)   RO Data    RW Data    ZI Data      Debug   Library Member Name

         0          0          0          0          0          0   entry.o
         0          0          0          0          0          0   entry10a.o
         0          0          0          0          0          0   entry11a.o
         4          0          0          0          0          0   entry12b.o
         8          4          0          0          0          0   entry2.o
         4          0          0          0          0          0   entry5.o
         0          0          0          0          0          0   entry7b.o
         0          0          0          0          0          0   entry8b.o
         8          4          0          0          0          0   entry9a.o
        30          0          0          0          0          0   handlers.o
        36          8          0          0          0         68   init.o
        30          0          0          0          0         68   llshl.o
        32          0          0          0          0         68   llushr.o
      1142         54          0          0          0        352   printf8.o
         0          0          0          4          0          0   stdout.o
        98          0          0          0          0         92   uldiv.o

    ----------------------------------------------------------------------
      1400         70          0          4          0        648   Library Totals
         8          0          0          0          0          0   (incl. Padding)

    ----------------------------------------------------------------------

      Code (inc. data)   RO Data    RW Data    ZI Data      Debug   Library Name

      1392         70          0          4          0        648   mc_w.l

    ----------------------------------------------------------------------
      1400         70          0          4          0        648   Library Totals

    ----------------------------------------------------------------------

==============================================================================


      Code (inc. data)   RO Data    RW Data    ZI Data      Debug   

      5052        328        336        172       1188     116502   Grand Totals
      5052        328        336        172       1188     116502   ELF Image Totals
      5052        328        336        172          0          0   ROM Totals

==============================================================================

    Total RO  Size (Code + RO Data)                 5388 (   5.26kB)
    Total RW  Size (RW Data + ZI Data)              1360 (   1.33kB)
    Total ROM Size (Code + RO Data + RW Data)       5560 (   5.43kB)

==============================================================================

