Component: ARM Compiler 5.06 update 7 (build 960) Tool: armlink [4d3601]

==============================================================================

Section Cross References

    hmi_app.o(i.HmiTask) refers to key_drv.o(i.GetKeyValue) for GetKeyValue
    hmi_app.o(i.HmiTask) refers to led_drv.o(i.TurnOnLed) for TurnOnLed
    hmi_app.o(i.HmiTask) refers to led_drv.o(i.TurnOffLed) for TurnOffLed
    main.o(i.AppInit) refers to usb2com_app.o(i.Usb2ComAppInit) for Usb2ComAppInit
    main.o(i.AppInit) refers to systick.o(i.TaskScheduleCbReg) for TaskScheduleCbReg
    main.o(i.AppInit) refers to main.o(i.TaskSchedule) for TaskSchedule
    main.o(i.DriverInit) refers to systick.o(i.SystickInit) for SystickInit
    main.o(i.DriverInit) refers to led_drv.o(i.LedDrvInit) for LedDrvInit
    main.o(i.DriverInit) refers to usb2com_drv.o(i.Usb2ComDrvInit) for Usb2ComDrvInit
    main.o(i.DriverInit) refers to pwm_drv.o(i.PwmDrvInit) for PwmDrvInit
    main.o(i.DriverInit) refers to capture_drv.o(i.CaptureDrvInit) for CaptureDrvInit
    main.o(i.DriverInit) refers to delay.o(i.DwtDelayInit) for DwtDelayInit
    main.o(i.TaskHandler) refers to main.o(.data) for .data
    main.o(i.TaskSchedule) refers to main.o(.data) for .data
    main.o(i.main) refers to main.o(i.DriverInit) for DriverInit
    main.o(i.main) refers to main.o(i.AppInit) for AppInit
    main.o(i.main) refers to main.o(i.TaskHandler) for TaskHandler
    main.o(.data) refers to pwm_drv.o(i.PwmDrvTest) for PwmDrvTest
==============================================================================

Removing Unused input sections from the image.

    Removing hmi_app.o(i.HmiTask), (146 bytes).
    Removing usb2com_app.o(i.CalXorSum), (24 bytes).
    Removing usb2com_app.o(i.CtrlLed), (16 bytes).
    Removing usb2com_app.o(i.Usb2ComTask), (180 bytes).
    Removing delay.o(.rev16_text), (4 bytes).
    Removing delay.o(.revsh_text), (4 bytes).
    Removing key_drv.o(.rev16_text), (4 bytes).
    Removing key_drv.o(.revsh_text), (4 bytes).
    Removing key_drv.o(i.GetKeyValue), (24 bytes).
    Removing key_drv.o(i.KeyDrvInit), (48 bytes).
    Removing key_drv.o(i.KeyScan), (164 bytes).
    Removing key_drv.o(.bss), (64 bytes).
    Removing key_drv.o(.data), (48 bytes).
    Removing led_drv.o(.rev16_text), (4 bytes).
    Removing led_drv.o(.revsh_text), (4 bytes).
    Removing led_drv.o(i.TurnOffLed), (28 bytes).
    Removing led_drv.o(i.TurnOnLed), (28 bytes).
    Removing queue.o(i.QueueCount), (20 bytes).
==============================================================================

Image Symbol Table

    Local Symbols

    Symbol Name                              Value     Ov Type        Size  Object(Section)

    ../clib/microlib/division.c              0x00000000   Number         0  uldiv.o ABSOLUTE
    ../clib/microlib/division.c              0x00000000   Number         0  uidiv.o ABSOLUTE
    ../clib/microlib/init/entry.s            0x00000000   Number         0  entry7b.o ABSOLUTE
    ../clib/microlib/init/entry.s            0x00000000   Number         0  entry11b.o ABSOLUTE
    ../clib/microlib/init/entry.s            0x00000000   Number         0  entry7a.o ABSOLUTE
    ../clib/microlib/init/entry.s            0x00000000   Number         0  entry5.o ABSOLUTE
    ../clib/microlib/init/entry.s            0x00000000   Number         0  entry.o ABSOLUTE
    ../clib/microlib/init/entry.s            0x00000000   Number         0  entry2.o ABSOLUTE
    ../clib/microlib/init/entry.s            0x00000000   Number         0  entry9a.o ABSOLUTE
    ../clib/microlib/init/entry.s            0x00000000   Number         0  entry9b.o ABSOLUTE
    ../clib/microlib/init/entry.s            0x00000000   Number         0  entry10a.o ABSOLUTE
    ../clib/microlib/init/entry.s            0x00000000   Number         0  entry8b.o ABSOLUTE
    ../clib/microlib/init/entry.s            0x00000000   Number         0  entry8a.o ABSOLUTE
    ../clib/microlib/init/entry.s            0x00000000   Number         0  entry10b.o ABSOLUTE
    ../clib/microlib/init/entry.s            0x00000000   Number         0  entry12b.o ABSOLUTE
    ../clib/microlib/init/entry.s            0x00000000   Number         0  entry12a.o ABSOLUTE
    ../clib/microlib/init/entry.s            0x00000000   Number         0  entry11a.o ABSOLUTE
    ../clib/microlib/longlong.c              0x00000000   Number         0  llushr.o ABSOLUTE
    ../clib/microlib/longlong.c              0x00000000   Number         0  llshl.o ABSOLUTE
    ../clib/microlib/longlong.c              0x00000000   Number         0  llsshr.o ABSOLUTE
    ../clib/microlib/printf/printf.c         0x00000000   Number         0  printfa.o ABSOLUTE
    ../clib/microlib/printf/printf.c         0x00000000   Number         0  printfb.o ABSOLUTE
    ../clib/microlib/printf/printf.c         0x00000000   Number         0  printf0.o ABSOLUTE
    ../clib/microlib/printf/printf.c         0x00000000   Number         0  printf2.o ABSOLUTE
    ../clib/microlib/printf/printf.c         0x00000000   Number         0  printf3.o ABSOLUTE
    ../clib/microlib/printf/printf.c         0x00000000   Number         0  printf4.o ABSOLUTE
    ../clib/microlib/printf/printf.c         0x00000000   Number         0  printf5.o ABSOLUTE
    ../clib/microlib/printf/printf.c         0x00000000   Number         0  printf6.o ABSOLUTE
    ../clib/microlib/printf/printf.c         0x00000000   Number         0  printf8.o ABSOLUTE
    ../clib/microlib/printf/printf.c         0x00000000   Number         0  printf7.o ABSOLUTE
    ../clib/microlib/printf/printf.c         0x00000000   Number         0  printf1.o ABSOLUTE
    ../clib/microlib/printf/stubs.s          0x00000000   Number         0  stubs.o ABSOLUTE
    ../clib/microlib/stdio/streams.c         0x00000000   Number         0  stdout.o ABSOLUTE
    ../clib/microlib/stubs.s                 0x00000000   Number         0  iusefp.o ABSOLUTE
    ../fplib/microlib/fpadd.c                0x00000000   Number         0  dadd.o ABSOLUTE
    ../fplib/microlib/fpdiv.c                0x00000000   Number         0  ddiv.o ABSOLUTE
    ../fplib/microlib/fpepilogue.c           0x00000000   Number         0  depilogue.o ABSOLUTE
    ../fplib/microlib/fpfix.c                0x00000000   Number         0  dfixul.o ABSOLUTE
    ../fplib/microlib/fpmul.c                0x00000000   Number         0  dmul.o ABSOLUTE
    App\hmi_app.c                            0x00000000   Number         0  hmi_app.o ABSOLUTE
    App\main.c                               0x00000000   Number         0  main.o ABSOLUTE
    App\usb2com_app.c                        0x00000000   Number         0  usb2com_app.o ABSOLUTE
    Arm\\system_gd32f30x.c                   0x00000000   Number         0  system_gd32f30x.o ABSOLUTE
    Arm\startup_gd32f30x_hd.s                0x00000000   Number         0  startup_gd32f30x_hd.o ABSOLUTE
    Arm\system_gd32f30x.c                    0x00000000   Number         0  system_gd32f30x.o ABSOLUTE
    Driver\\capture_drv.c                    0x00000000   Number         0  capture_drv.o ABSOLUTE
    Driver\\delay.c                          0x00000000   Number         0  delay.o ABSOLUTE
    Driver\\key_drv.c                        0x00000000   Number         0  key_drv.o ABSOLUTE
    Driver\\led_drv.c                        0x00000000   Number         0  led_drv.o ABSOLUTE
    Driver\\pwm_drv.c                        0x00000000   Number         0  pwm_drv.o ABSOLUTE
    Driver\\systick.c                        0x00000000   Number         0  systick.o ABSOLUTE
    Driver\\timing_drv.c                     0x00000000   Number         0  timing_drv.o ABSOLUTE
    Driver\\usb2com_drv.c                    0x00000000   Number         0  usb2com_drv.o ABSOLUTE
    Driver\capture_drv.c                     0x00000000   Number         0  capture_drv.o ABSOLUTE
    Driver\delay.c                           0x00000000   Number         0  delay.o ABSOLUTE
    Driver\key_drv.c                         0x00000000   Number         0  key_drv.o ABSOLUTE
    Driver\led_drv.c                         0x00000000   Number         0  led_drv.o ABSOLUTE
    Driver\pwm_drv.c                         0x00000000   Number         0  pwm_drv.o ABSOLUTE
    Driver\queue.c                           0x00000000   Number         0  queue.o ABSOLUTE
    Driver\systick.c                         0x00000000   Number         0  systick.o ABSOLUTE
    Driver\timing_drv.c                      0x00000000   Number         0  timing_drv.o ABSOLUTE
    Driver\usb2com_drv.c                     0x00000000   Number         0  usb2com_drv.o ABSOLUTE
    GD32_Hal\Source\gd32f30x_gpio.c          0x00000000   Number         0  gd32f30x_gpio.o ABSOLUTE
    GD32_Hal\Source\gd32f30x_misc.c          0x00000000   Number         0  gd32f30x_misc.o ABSOLUTE
    GD32_Hal\Source\gd32f30x_rcu.c           0x00000000   Number         0  gd32f30x_rcu.o ABSOLUTE
    GD32_Hal\Source\gd32f30x_timer.c         0x00000000   Number         0  gd32f30x_timer.o ABSOLUTE
    GD32_Hal\Source\gd32f30x_usart.c         0x00000000   Number         0  gd32f30x_usart.o ABSOLUTE
    GD32_Hal\\Source\\gd32f30x_gpio.c        0x00000000   Number         0  gd32f30x_gpio.o ABSOLUTE
    GD32_Hal\\Source\\gd32f30x_misc.c        0x00000000   Number         0  gd32f30x_misc.o ABSOLUTE
    GD32_Hal\\Source\\gd32f30x_rcu.c         0x00000000   Number         0  gd32f30x_rcu.o ABSOLUTE
    GD32_Hal\\Source\\gd32f30x_timer.c       0x00000000   Number         0  gd32f30x_timer.o ABSOLUTE
    GD32_Hal\\Source\\gd32f30x_usart.c       0x00000000   Number         0  gd32f30x_usart.o ABSOLUTE
    cdrcmple.s                               0x00000000   Number         0  cdrcmple.o ABSOLUTE
    dc.s                                     0x00000000   Number         0  dc.o ABSOLUTE
    handlers.s                               0x00000000   Number         0  handlers.o ABSOLUTE
    init.s                                   0x00000000   Number         0  init.o ABSOLUTE
    RESET                                    0x08000000   Section      304  startup_gd32f30x_hd.o(RESET)
    .ARM.Collect$$$$00000000                 0x08000130   Section        0  entry.o(.ARM.Collect$$$$00000000)
    .ARM.Collect$$$$00000001                 0x08000130   Section        4  entry2.o(.ARM.Collect$$$$00000001)
    .ARM.Collect$$$$00000004                 0x08000134   Section        4  entry5.o(.ARM.Collect$$$$00000004)
    .ARM.Collect$$$$00000008                 0x08000138   Section        0  entry7b.o(.ARM.Collect$$$$00000008)
    .ARM.Collect$$$$0000000A                 0x08000138   Section        0  entry8b.o(.ARM.Collect$$$$0000000A)
    .ARM.Collect$$$$0000000B                 0x08000138   Section        8  entry9a.o(.ARM.Collect$$$$0000000B)
    .ARM.Collect$$$$0000000E                 0x08000140   Section        4  entry12b.o(.ARM.Collect$$$$0000000E)
    .ARM.Collect$$$$0000000F                 0x08000144   Section        0  entry10a.o(.ARM.Collect$$$$0000000F)
    .ARM.Collect$$$$00000011                 0x08000144   Section        0  entry11a.o(.ARM.Collect$$$$00000011)
    .ARM.Collect$$$$00002712                 0x08000144   Section        4  entry2.o(.ARM.Collect$$$$00002712)
    __lit__00000000                          0x08000144   Data           4  entry2.o(.ARM.Collect$$$$00002712)
    .text                                    0x08000148   Section       36  startup_gd32f30x_hd.o(.text)
    $v0                                      0x08000148   Number         0  startup_gd32f30x_hd.o(.text)
    .text                                    0x0800016c   Section        0  uldiv.o(.text)
    .text                                    0x080001d0   Section       36  init.o(.text)
    .text                                    0x080001f4   Section        0  llshl.o(.text)
    .text                                    0x08000212   Section        0  llushr.o(.text)
    i.AppInit                                0x08000234   Section        0  main.o(i.AppInit)
    AppInit                                  0x08000235   Thumb Code    16  main.o(i.AppInit)
    i.CaptureDrvInit                         0x08000248   Section        0  capture_drv.o(i.CaptureDrvInit)
    i.CaptureDrvTest                         0x08000258   Section        0  capture_drv.o(i.CaptureDrvTest)
    i.CaptureGpioInit                        0x0800029c   Section        0  capture_drv.o(i.CaptureGpioInit)
    CaptureGpioInit                          0x0800029d   Thumb Code    26  capture_drv.o(i.CaptureGpioInit)
    i.CaptureTimerInit                       0x080002bc   Section        0  capture_drv.o(i.CaptureTimerInit)
    CaptureTimerInit                         0x080002bd   Thumb Code    88  capture_drv.o(i.CaptureTimerInit)
    i.DelayNms                               0x08000318   Section        0  delay.o(i.DelayNms)
    i.DelayNus                               0x08000334   Section        0  delay.o(i.DelayNus)
    i.DriverInit                             0x0800035c   Section        0  main.o(i.DriverInit)
    DriverInit                               0x0800035d   Thumb Code    30  main.o(i.DriverInit)
    i.DwtDelayInit                           0x0800037c   Section        0  delay.o(i.DwtDelayInit)
    i.LedDrvInit                             0x080003b0   Section        0  led_drv.o(i.LedDrvInit)
    i.ProcUartData                           0x080003e8   Section        0  usb2com_app.o(i.ProcUartData)
    ProcUartData                             0x080003e9   Thumb Code     8  usb2com_app.o(i.ProcUartData)
    i.PwmDrvInit                             0x080003f4   Section        0  pwm_drv.o(i.PwmDrvInit)
    i.PwmDrvTest                             0x08000404   Section        0  pwm_drv.o(i.PwmDrvTest)
    i.PwmGpioInit                            0x0800044c   Section        0  pwm_drv.o(i.PwmGpioInit)
    PwmGpioInit                              0x0800044d   Thumb Code    26  pwm_drv.o(i.PwmGpioInit)
    i.PwmTimerInit                           0x0800046c   Section        0  pwm_drv.o(i.PwmTimerInit)
    PwmTimerInit                             0x0800046d   Thumb Code   112  pwm_drv.o(i.PwmTimerInit)
    i.QueueInit                              0x080004e0   Section        0  queue.o(i.QueueInit)
    i.QueuePush                              0x080004ec   Section        0  queue.o(i.QueuePush)
    i.RegUsb2ComCb                           0x08000514   Section        0  usb2com_drv.o(i.RegUsb2ComCb)
    i.SysTick_Handler                        0x08000520   Section        0  systick.o(i.SysTick_Handler)
    i.SystemInit                             0x08000538   Section        0  system_gd32f30x.o(i.SystemInit)
    i.SystickInit                            0x080005bc   Section        0  systick.o(i.SystickInit)
    i.TIMER0_UP_IRQHandler                   0x080005fc   Section        0  timing_drv.o(i.TIMER0_UP_IRQHandler)
    i.TIMER1_IRQHandler                      0x08000624   Section        0  capture_drv.o(i.TIMER1_IRQHandler)
    i.TaskHandler                            0x08000664   Section        0  main.o(i.TaskHandler)
    TaskHandler                              0x08000665   Thumb Code    40  main.o(i.TaskHandler)
    i.TaskSchedule                           0x08000690   Section        0  main.o(i.TaskSchedule)
    TaskSchedule                             0x08000691   Thumb Code    46  main.o(i.TaskSchedule)
    i.TaskScheduleCbReg                      0x080006c4   Section        0  systick.o(i.TaskScheduleCbReg)
    i.ToggleLed                              0x080006d0   Section        0  led_drv.o(i.ToggleLed)
    i.USART0_IRQHandler                      0x08000704   Section        0  usb2com_drv.o(i.USART0_IRQHandler)
    i.Usb2ComAppInit                         0x0800073c   Section        0  usb2com_app.o(i.Usb2ComAppInit)
    i.Usb2ComDrvInit                         0x0800075c   Section        0  usb2com_drv.o(i.Usb2ComDrvInit)
    i.Usb2ComGpioInit                        0x08000770   Section        0  usb2com_drv.o(i.Usb2ComGpioInit)
    Usb2ComGpioInit                          0x08000771   Thumb Code    38  usb2com_drv.o(i.Usb2ComGpioInit)
    i.Usb2ComUartInit                        0x0800079c   Section        0  usb2com_drv.o(i.Usb2ComUartInit)
    Usb2ComUartInit                          0x0800079d   Thumb Code    96  usb2com_drv.o(i.Usb2ComUartInit)
    i.__0printf$8                            0x08000800   Section        0  printf8.o(i.__0printf$8)
    i.__scatterload_copy                     0x08000820   Section       14  handlers.o(i.__scatterload_copy)
    i.__scatterload_null                     0x0800082e   Section        2  handlers.o(i.__scatterload_null)
    i.__scatterload_zeroinit                 0x08000830   Section       14  handlers.o(i.__scatterload_zeroinit)
    i._printf_core                           0x08000840   Section        0  printf8.o(i._printf_core)
    _printf_core                             0x08000841   Thumb Code   984  printf8.o(i._printf_core)
    i._printf_post_padding                   0x08000c44   Section        0  printf8.o(i._printf_post_padding)
    _printf_post_padding                     0x08000c45   Thumb Code    36  printf8.o(i._printf_post_padding)
    i._printf_pre_padding                    0x08000c68   Section        0  printf8.o(i._printf_pre_padding)
    _printf_pre_padding                      0x08000c69   Thumb Code    46  printf8.o(i._printf_pre_padding)
    i.fputc                                  0x08000c98   Section        0  usb2com_drv.o(i.fputc)
    i.gpio_bit_reset                         0x08000cbc   Section        0  gd32f30x_gpio.o(i.gpio_bit_reset)
    i.gpio_bit_write                         0x08000cc0   Section        0  gd32f30x_gpio.o(i.gpio_bit_write)
    i.gpio_init                              0x08000ccc   Section        0  gd32f30x_gpio.o(i.gpio_init)
    i.gpio_input_bit_get                     0x08000d70   Section        0  gd32f30x_gpio.o(i.gpio_input_bit_get)
    i.main                                   0x08000d7e   Section        0  main.o(i.main)
    i.nvic_irq_enable                        0x08000d8c   Section        0  gd32f30x_misc.o(i.nvic_irq_enable)
    i.nvic_priority_group_set                0x08000e28   Section        0  gd32f30x_misc.o(i.nvic_priority_group_set)
    i.rcu_clock_freq_get                     0x08000e3c   Section        0  gd32f30x_rcu.o(i.rcu_clock_freq_get)
    i.rcu_periph_clock_enable                0x08000f38   Section        0  gd32f30x_rcu.o(i.rcu_periph_clock_enable)
    i.rcu_periph_reset_disable               0x08000f54   Section        0  gd32f30x_rcu.o(i.rcu_periph_reset_disable)
    i.rcu_periph_reset_enable                0x08000f70   Section        0  gd32f30x_rcu.o(i.rcu_periph_reset_enable)
    i.system_clock_120m_hxtal                0x08000f8c   Section        0  system_gd32f30x.o(i.system_clock_120m_hxtal)
    system_clock_120m_hxtal                  0x08000f8d   Thumb Code   170  system_gd32f30x.o(i.system_clock_120m_hxtal)
    i.system_clock_config                    0x08001048   Section        0  system_gd32f30x.o(i.system_clock_config)
    system_clock_config                      0x08001049   Thumb Code     4  system_gd32f30x.o(i.system_clock_config)
    i.timer_channel_capture_value_register_read 0x0800104c   Section        0  gd32f30x_timer.o(i.timer_channel_capture_value_register_read)
    i.timer_channel_input_capture_prescaler_config 0x08001070   Section        0  gd32f30x_timer.o(i.timer_channel_input_capture_prescaler_config)
    i.timer_channel_input_struct_para_init   0x080010c4   Section        0  gd32f30x_timer.o(i.timer_channel_input_struct_para_init)
    i.timer_channel_output_config            0x080010d4   Section        0  gd32f30x_timer.o(i.timer_channel_output_config)
    i.timer_channel_output_mode_config       0x080012ac   Section        0  gd32f30x_timer.o(i.timer_channel_output_mode_config)
    i.timer_channel_output_pulse_value_config 0x08001300   Section        0  gd32f30x_timer.o(i.timer_channel_output_pulse_value_config)
    i.timer_channel_output_struct_para_init  0x08001320   Section        0  gd32f30x_timer.o(i.timer_channel_output_struct_para_init)
    i.timer_counter_value_config             0x08001330   Section        0  gd32f30x_timer.o(i.timer_counter_value_config)
    i.timer_deinit                           0x08001334   Section        0  gd32f30x_timer.o(i.timer_deinit)
    i.timer_enable                           0x08001410   Section        0  gd32f30x_timer.o(i.timer_enable)
    i.timer_init                             0x0800141c   Section        0  gd32f30x_timer.o(i.timer_init)
    i.timer_input_pwm_capture_config         0x080014b0   Section        0  gd32f30x_timer.o(i.timer_input_pwm_capture_config)
    i.timer_interrupt_enable                 0x0800160a   Section        0  gd32f30x_timer.o(i.timer_interrupt_enable)
    i.timer_interrupt_flag_clear             0x08001612   Section        0  gd32f30x_timer.o(i.timer_interrupt_flag_clear)
    i.timer_interrupt_flag_get               0x08001618   Section        0  gd32f30x_timer.o(i.timer_interrupt_flag_get)
    i.timer_primary_output_config            0x0800162c   Section        0  gd32f30x_timer.o(i.timer_primary_output_config)
    i.timer_struct_para_init                 0x08001644   Section        0  gd32f30x_timer.o(i.timer_struct_para_init)
    i.usart_baudrate_set                     0x08001658   Section        0  gd32f30x_usart.o(i.usart_baudrate_set)
    i.usart_data_receive                     0x080016c8   Section        0  gd32f30x_usart.o(i.usart_data_receive)
    i.usart_data_transmit                    0x080016d0   Section        0  gd32f30x_usart.o(i.usart_data_transmit)
    i.usart_deinit                           0x080016d8   Section        0  gd32f30x_usart.o(i.usart_deinit)
    i.usart_enable                           0x08001768   Section        0  gd32f30x_usart.o(i.usart_enable)
    i.usart_flag_get                         0x08001772   Section        0  gd32f30x_usart.o(i.usart_flag_get)
    i.usart_interrupt_enable                 0x0800178c   Section        0  gd32f30x_usart.o(i.usart_interrupt_enable)
    i.usart_interrupt_flag_clear             0x080017a0   Section        0  gd32f30x_usart.o(i.usart_interrupt_flag_clear)
    i.usart_interrupt_flag_get               0x080017b2   Section        0  gd32f30x_usart.o(i.usart_interrupt_flag_get)
    i.usart_parity_config                    0x080017e4   Section        0  gd32f30x_usart.o(i.usart_parity_config)
    i.usart_receive_config                   0x080017f4   Section        0  gd32f30x_usart.o(i.usart_receive_config)
    i.usart_stop_bit_set                     0x08001808   Section        0  gd32f30x_usart.o(i.usart_stop_bit_set)
    i.usart_transmit_config                  0x08001818   Section        0  gd32f30x_usart.o(i.usart_transmit_config)
    i.usart_word_length_set                  0x0800182c   Section        0  gd32f30x_usart.o(i.usart_word_length_set)
    .data                                    0x20000000   Section       24  main.o(.data)
    g_taskComps                              0x20000000   Data          24  main.o(.data)
    .data                                    0x20000018   Section       36  led_drv.o(.data)
    g_ledList                                0x20000018   Data          36  led_drv.o(.data)
    .data                                    0x20000040   Section       16  systick.o(.data)
    g_pTaskScheduleFunc                      0x20000040   Data           4  systick.o(.data)
    g_systemRunTime                          0x20000048   Data           8  systick.o(.data)
    .data                                    0x20000050   Section       32  usb2com_drv.o(.data)
    pProcUartData                            0x20000050   Data           4  usb2com_drv.o(.data)
    .data                                    0x20000070   Section       24  pwm_drv.o(.data)
    g_pwmDrvInfo                             0x20000070   Data          24  pwm_drv.o(.data)
    .data                                    0x20000088   Section       32  capture_drv.o(.data)
    g_periodUs                               0x20000088   Data           2  capture_drv.o(.data)
    g_pulseUs                                0x2000008a   Data           2  capture_drv.o(.data)
    g_captureDrvInfo                         0x2000008c   Data          28  capture_drv.o(.data)
    .data                                    0x200000a8   Section        4  stdout.o(.data)
    .bss                                     0x200000ac   Section       96  usb2com_app.o(.bss)
    g_rcvUartDataBuf                         0x200000ac   Data          77  usb2com_app.o(.bss)
    g_rcvQueue                               0x200000fc   Data          16  usb2com_app.o(.bss)
    STACK                                    0x20000110   Section     1024  startup_gd32f30x_hd.o(STACK)

    Global Symbols

    Symbol Name                              Value     Ov Type        Size  Object(Section)

    BuildAttributes$$THM_ISAv4$E$P$D$K$B$S$7EM$VFPi3$EXTD16$VFPS$VFMA$PE$A:L22UL41UL21$X:L11$S22US41US21$IEEE1$IW$USESV6$~STKCKD$USESV7$~SHL$OSPACE$ROPI$EBA8$MICROLIB$REQ8$PRES8$EABIv2 0x00000000   Number         0  anon$$obj.o ABSOLUTE
    __ARM_use_no_argv                        0x00000000   Number         0  main.o ABSOLUTE
    _printf_a                                0x00000000   Number         0  stubs.o ABSOLUTE
    _printf_c                                0x00000000   Number         0  stubs.o ABSOLUTE
    _printf_charcount                        0x00000000   Number         0  stubs.o ABSOLUTE
    _printf_d                                0x00000000   Number         0  stubs.o ABSOLUTE
    _printf_e                                0x00000000   Number         0  stubs.o ABSOLUTE
    _printf_f                                0x00000000   Number         0  stubs.o ABSOLUTE
    _printf_flags                            0x00000000   Number         0  stubs.o ABSOLUTE
    _printf_fp_dec                           0x00000000   Number         0  stubs.o ABSOLUTE
    _printf_fp_hex                           0x00000000   Number         0  stubs.o ABSOLUTE
    _printf_g                                0x00000000   Number         0  stubs.o ABSOLUTE
    _printf_i                                0x00000000   Number         0  stubs.o ABSOLUTE
    _printf_int_dec                          0x00000000   Number         0  stubs.o ABSOLUTE
    _printf_l                                0x00000000   Number         0  stubs.o ABSOLUTE
    _printf_lc                               0x00000000   Number         0  stubs.o ABSOLUTE
    _printf_ll                               0x00000000   Number         0  stubs.o ABSOLUTE
    _printf_lld                              0x00000000   Number         0  stubs.o ABSOLUTE
    _printf_lli                              0x00000000   Number         0  stubs.o ABSOLUTE
    _printf_llo                              0x00000000   Number         0  stubs.o ABSOLUTE
    _printf_llu                              0x00000000   Number         0  stubs.o ABSOLUTE
    _printf_llx                              0x00000000   Number         0  stubs.o ABSOLUTE
    _printf_longlong_dec                     0x00000000   Number         0  stubs.o ABSOLUTE
    _printf_longlong_hex                     0x00000000   Number         0  stubs.o ABSOLUTE
    _printf_longlong_oct                     0x00000000   Number         0  stubs.o ABSOLUTE
    _printf_ls                               0x00000000   Number         0  stubs.o ABSOLUTE
    _printf_mbtowc                           0x00000000   Number         0  stubs.o ABSOLUTE
    _printf_n                                0x00000000   Number         0  stubs.o ABSOLUTE
    _printf_o                                0x00000000   Number         0  stubs.o ABSOLUTE
    _printf_p                                0x00000000   Number         0  stubs.o ABSOLUTE
    _printf_percent                          0x00000000   Number         0  stubs.o ABSOLUTE
    _printf_pre_padding                      0x00000000   Number         0  stubs.o ABSOLUTE
    _printf_return_value                     0x00000000   Number         0  stubs.o ABSOLUTE
    _printf_s                                0x00000000   Number         0  stubs.o ABSOLUTE
    _printf_sizespec                         0x00000000   Number         0  stubs.o ABSOLUTE
    _printf_str                              0x00000000   Number         0  stubs.o ABSOLUTE
    _printf_truncate_signed                  0x00000000   Number         0  stubs.o ABSOLUTE
    _printf_truncate_unsigned                0x00000000   Number         0  stubs.o ABSOLUTE
    _printf_u                                0x00000000   Number         0  stubs.o ABSOLUTE
    _printf_wc                               0x00000000   Number         0  stubs.o ABSOLUTE
    _printf_wctomb                           0x00000000   Number         0  stubs.o ABSOLUTE
    _printf_widthprec                        0x00000000   Number         0  stubs.o ABSOLUTE
    _printf_x                                0x00000000   Number         0  stubs.o ABSOLUTE
    __arm_fini_                               - Undefined Weak Reference
    __cpp_initialize__aeabi_                  - Undefined Weak Reference
    __cxa_finalize                            - Undefined Weak Reference
    __decompress                              - Undefined Weak Reference
    _clock_init                               - Undefined Weak Reference
    _microlib_exit                            - Undefined Weak Reference
    __Vectors_Size                           0x00000130   Number         0  startup_gd32f30x_hd.o ABSOLUTE
    __Vectors                                0x08000000   Data           4  startup_gd32f30x_hd.o(RESET)
    __Vectors_End                            0x08000130   Data           0  startup_gd32f30x_hd.o(RESET)
    __main                                   0x08000131   Thumb Code     0  entry.o(.ARM.Collect$$$$00000000)
    _main_stk                                0x08000131   Thumb Code     0  entry2.o(.ARM.Collect$$$$00000001)
    _main_scatterload                        0x08000135   Thumb Code     0  entry5.o(.ARM.Collect$$$$00000004)
    __main_after_scatterload                 0x08000139   Thumb Code     0  entry5.o(.ARM.Collect$$$$00000004)
    _main_clock                              0x08000139   Thumb Code     0  entry7b.o(.ARM.Collect$$$$00000008)
    _main_cpp_init                           0x08000139   Thumb Code     0  entry8b.o(.ARM.Collect$$$$0000000A)
    _main_init                               0x08000139   Thumb Code     0  entry9a.o(.ARM.Collect$$$$0000000B)
    __rt_lib_shutdown_fini                   0x08000141   Thumb Code     0  entry12b.o(.ARM.Collect$$$$0000000E)
    __rt_final_cpp                           0x08000145   Thumb Code     0  entry10a.o(.ARM.Collect$$$$0000000F)
    __rt_final_exit                          0x08000145   Thumb Code     0  entry11a.o(.ARM.Collect$$$$00000011)
    Reset_Handler                            0x08000149   Thumb Code     8  startup_gd32f30x_hd.o(.text)
    NMI_Handler                              0x08000151   Thumb Code     2  startup_gd32f30x_hd.o(.text)
    HardFault_Handler                        0x08000153   Thumb Code     2  startup_gd32f30x_hd.o(.text)
    MemManage_Handler                        0x08000155   Thumb Code     2  startup_gd32f30x_hd.o(.text)
    BusFault_Handler                         0x08000157   Thumb Code     2  startup_gd32f30x_hd.o(.text)
    UsageFault_Handler                       0x08000159   Thumb Code     2  startup_gd32f30x_hd.o(.text)
    SVC_Handler                              0x0800015b   Thumb Code     2  startup_gd32f30x_hd.o(.text)
    DebugMon_Handler                         0x0800015d   Thumb Code     2  startup_gd32f30x_hd.o(.text)
    PendSV_Handler                           0x0800015f   Thumb Code     2  startup_gd32f30x_hd.o(.text)
    ADC0_1_IRQHandler                        0x08000163   Thumb Code     0  startup_gd32f30x_hd.o(.text)
    ADC2_IRQHandler                          0x08000163   Thumb Code     0  startup_gd32f30x_hd.o(.text)
    CAN0_EWMC_IRQHandler                     0x08000163   Thumb Code     0  startup_gd32f30x_hd.o(.text)
    CAN0_RX1_IRQHandler                      0x08000163   Thumb Code     0  startup_gd32f30x_hd.o(.text)
    DMA0_Channel0_IRQHandler                 0x08000163   Thumb Code     0  startup_gd32f30x_hd.o(.text)
    DMA0_Channel1_IRQHandler                 0x08000163   Thumb Code     0  startup_gd32f30x_hd.o(.text)
    DMA0_Channel2_IRQHandler                 0x08000163   Thumb Code     0  startup_gd32f30x_hd.o(.text)
    DMA0_Channel3_IRQHandler                 0x08000163   Thumb Code     0  startup_gd32f30x_hd.o(.text)
    DMA0_Channel4_IRQHandler                 0x08000163   Thumb Code     0  startup_gd32f30x_hd.o(.text)
    DMA0_Channel5_IRQHandler                 0x08000163   Thumb Code     0  startup_gd32f30x_hd.o(.text)
    DMA0_Channel6_IRQHandler                 0x08000163   Thumb Code     0  startup_gd32f30x_hd.o(.text)
    DMA1_Channel0_IRQHandler                 0x08000163   Thumb Code     0  startup_gd32f30x_hd.o(.text)
    DMA1_Channel1_IRQHandler                 0x08000163   Thumb Code     0  startup_gd32f30x_hd.o(.text)
    DMA1_Channel2_IRQHandler                 0x08000163   Thumb Code     0  startup_gd32f30x_hd.o(.text)
    DMA1_Channel3_4_IRQHandler               0x08000163   Thumb Code     0  startup_gd32f30x_hd.o(.text)
    EXMC_IRQHandler                          0x08000163   Thumb Code     0  startup_gd32f30x_hd.o(.text)
    EXTI0_IRQHandler                         0x08000163   Thumb Code     0  startup_gd32f30x_hd.o(.text)
    EXTI10_15_IRQHandler                     0x08000163   Thumb Code     0  startup_gd32f30x_hd.o(.text)
    EXTI1_IRQHandler                         0x08000163   Thumb Code     0  startup_gd32f30x_hd.o(.text)
    EXTI2_IRQHandler                         0x08000163   Thumb Code     0  startup_gd32f30x_hd.o(.text)
    EXTI3_IRQHandler                         0x08000163   Thumb Code     0  startup_gd32f30x_hd.o(.text)
    EXTI4_IRQHandler                         0x08000163   Thumb Code     0  startup_gd32f30x_hd.o(.text)
    EXTI5_9_IRQHandler                       0x08000163   Thumb Code     0  startup_gd32f30x_hd.o(.text)
    FMC_IRQHandler                           0x08000163   Thumb Code     0  startup_gd32f30x_hd.o(.text)
    I2C0_ER_IRQHandler                       0x08000163   Thumb Code     0  startup_gd32f30x_hd.o(.text)
    I2C0_EV_IRQHandler                       0x08000163   Thumb Code     0  startup_gd32f30x_hd.o(.text)
    I2C1_ER_IRQHandler                       0x08000163   Thumb Code     0  startup_gd32f30x_hd.o(.text)
    I2C1_EV_IRQHandler                       0x08000163   Thumb Code     0  startup_gd32f30x_hd.o(.text)
    LVD_IRQHandler                           0x08000163   Thumb Code     0  startup_gd32f30x_hd.o(.text)
    RCU_CTC_IRQHandler                       0x08000163   Thumb Code     0  startup_gd32f30x_hd.o(.text)
    RTC_Alarm_IRQHandler                     0x08000163   Thumb Code     0  startup_gd32f30x_hd.o(.text)
    RTC_IRQHandler                           0x08000163   Thumb Code     0  startup_gd32f30x_hd.o(.text)
    SDIO_IRQHandler                          0x08000163   Thumb Code     0  startup_gd32f30x_hd.o(.text)
    SPI0_IRQHandler                          0x08000163   Thumb Code     0  startup_gd32f30x_hd.o(.text)
    SPI1_IRQHandler                          0x08000163   Thumb Code     0  startup_gd32f30x_hd.o(.text)
    SPI2_IRQHandler                          0x08000163   Thumb Code     0  startup_gd32f30x_hd.o(.text)
    TAMPER_IRQHandler                        0x08000163   Thumb Code     0  startup_gd32f30x_hd.o(.text)
    TIMER0_BRK_IRQHandler                    0x08000163   Thumb Code     0  startup_gd32f30x_hd.o(.text)
    TIMER0_Channel_IRQHandler                0x08000163   Thumb Code     0  startup_gd32f30x_hd.o(.text)
    TIMER0_TRG_CMT_IRQHandler                0x08000163   Thumb Code     0  startup_gd32f30x_hd.o(.text)
    TIMER2_IRQHandler                        0x08000163   Thumb Code     0  startup_gd32f30x_hd.o(.text)
    TIMER3_IRQHandler                        0x08000163   Thumb Code     0  startup_gd32f30x_hd.o(.text)
    TIMER4_IRQHandler                        0x08000163   Thumb Code     0  startup_gd32f30x_hd.o(.text)
    TIMER5_IRQHandler                        0x08000163   Thumb Code     0  startup_gd32f30x_hd.o(.text)
    TIMER6_IRQHandler                        0x08000163   Thumb Code     0  startup_gd32f30x_hd.o(.text)
    TIMER7_BRK_IRQHandler                    0x08000163   Thumb Code     0  startup_gd32f30x_hd.o(.text)
    TIMER7_Channel_IRQHandler                0x08000163   Thumb Code     0  startup_gd32f30x_hd.o(.text)
    TIMER7_TRG_CMT_IRQHandler                0x08000163   Thumb Code     0  startup_gd32f30x_hd.o(.text)
    TIMER7_UP_IRQHandler                     0x08000163   Thumb Code     0  startup_gd32f30x_hd.o(.text)
    UART3_IRQHandler                         0x08000163   Thumb Code     0  startup_gd32f30x_hd.o(.text)
    UART4_IRQHandler                         0x08000163   Thumb Code     0  startup_gd32f30x_hd.o(.text)
    USART1_IRQHandler                        0x08000163   Thumb Code     0  startup_gd32f30x_hd.o(.text)
    USART2_IRQHandler                        0x08000163   Thumb Code     0  startup_gd32f30x_hd.o(.text)
    USBD_HP_CAN0_TX_IRQHandler               0x08000163   Thumb Code     0  startup_gd32f30x_hd.o(.text)
    USBD_LP_CAN0_RX0_IRQHandler              0x08000163   Thumb Code     0  startup_gd32f30x_hd.o(.text)
    USBD_WKUP_IRQHandler                     0x08000163   Thumb Code     0  startup_gd32f30x_hd.o(.text)
    WWDGT_IRQHandler                         0x08000163   Thumb Code     0  startup_gd32f30x_hd.o(.text)
    __aeabi_uldivmod                         0x0800016d   Thumb Code    98  uldiv.o(.text)
    __scatterload                            0x080001d1   Thumb Code    28  init.o(.text)
    __scatterload_rt2                        0x080001d1   Thumb Code     0  init.o(.text)
    __aeabi_llsl                             0x080001f5   Thumb Code    30  llshl.o(.text)
    _ll_shift_l                              0x080001f5   Thumb Code     0  llshl.o(.text)
    __aeabi_llsr                             0x08000213   Thumb Code    32  llushr.o(.text)
    _ll_ushift_r                             0x08000213   Thumb Code     0  llushr.o(.text)
    CaptureDrvInit                           0x08000249   Thumb Code    14  capture_drv.o(i.CaptureDrvInit)
    CaptureDrvTest                           0x08000259   Thumb Code    16  capture_drv.o(i.CaptureDrvTest)
    DelayNms                                 0x08000319   Thumb Code    26  delay.o(i.DelayNms)
    DelayNus                                 0x08000335   Thumb Code    32  delay.o(i.DelayNus)
    DwtDelayInit                             0x0800037d   Thumb Code    42  delay.o(i.DwtDelayInit)
    LedDrvInit                               0x080003b1   Thumb Code    52  led_drv.o(i.LedDrvInit)
    PwmDrvInit                               0x080003f5   Thumb Code    14  pwm_drv.o(i.PwmDrvInit)
    PwmDrvTest                               0x08000405   Thumb Code    66  pwm_drv.o(i.PwmDrvTest)
    QueueInit                                0x080004e1   Thumb Code    12  queue.o(i.QueueInit)
    QueuePush                                0x080004ed   Thumb Code    38  queue.o(i.QueuePush)
    RegUsb2ComCb                             0x08000515   Thumb Code     6  usb2com_drv.o(i.RegUsb2ComCb)
    SysTick_Handler                          0x08000521   Thumb Code    20  systick.o(i.SysTick_Handler)
    SystemInit                               0x08000539   Thumb Code   118  system_gd32f30x.o(i.SystemInit)
    SystickInit                              0x080005bd   Thumb Code    58  systick.o(i.SystickInit)
    TIMER0_UP_IRQHandler                     0x080005fd   Thumb Code    36  timing_drv.o(i.TIMER0_UP_IRQHandler)
    TIMER1_IRQHandler                        0x08000625   Thumb Code    60  capture_drv.o(i.TIMER1_IRQHandler)
    TaskScheduleCbReg                        0x080006c5   Thumb Code     6  systick.o(i.TaskScheduleCbReg)
    ToggleLed                                0x080006d1   Thumb Code    46  led_drv.o(i.ToggleLed)
    USART0_IRQHandler                        0x08000705   Thumb Code    46  usb2com_drv.o(i.USART0_IRQHandler)
    Usb2ComAppInit                           0x0800073d   Thumb Code    24  usb2com_app.o(i.Usb2ComAppInit)
    Usb2ComDrvInit                           0x0800075d   Thumb Code    18  usb2com_drv.o(i.Usb2ComDrvInit)
    __0printf$8                              0x08000801   Thumb Code    22  printf8.o(i.__0printf$8)
    __1printf$8                              0x08000801   Thumb Code     0  printf8.o(i.__0printf$8)
    __2printf                                0x08000801   Thumb Code     0  printf8.o(i.__0printf$8)
    __scatterload_copy                       0x08000821   Thumb Code    14  handlers.o(i.__scatterload_copy)
    __scatterload_null                       0x0800082f   Thumb Code     2  handlers.o(i.__scatterload_null)
    __scatterload_zeroinit                   0x08000831   Thumb Code    14  handlers.o(i.__scatterload_zeroinit)
    fputc                                    0x08000c99   Thumb Code    30  usb2com_drv.o(i.fputc)
    gpio_bit_reset                           0x08000cbd   Thumb Code     4  gd32f30x_gpio.o(i.gpio_bit_reset)
    gpio_bit_write                           0x08000cc1   Thumb Code    12  gd32f30x_gpio.o(i.gpio_bit_write)
    gpio_init                                0x08000ccd   Thumb Code   164  gd32f30x_gpio.o(i.gpio_init)
    gpio_input_bit_get                       0x08000d71   Thumb Code    14  gd32f30x_gpio.o(i.gpio_input_bit_get)
    main                                     0x08000d7f   Thumb Code    14  main.o(i.main)
    nvic_irq_enable                          0x08000d8d   Thumb Code   150  gd32f30x_misc.o(i.nvic_irq_enable)
    nvic_priority_group_set                  0x08000e29   Thumb Code    10  gd32f30x_misc.o(i.nvic_priority_group_set)
    rcu_clock_freq_get                       0x08000e3d   Thumb Code   224  gd32f30x_rcu.o(i.rcu_clock_freq_get)
    rcu_periph_clock_enable                  0x08000f39   Thumb Code    22  gd32f30x_rcu.o(i.rcu_periph_clock_enable)
    rcu_periph_reset_disable                 0x08000f55   Thumb Code    22  gd32f30x_rcu.o(i.rcu_periph_reset_disable)
    rcu_periph_reset_enable                  0x08000f71   Thumb Code    22  gd32f30x_rcu.o(i.rcu_periph_reset_enable)
    timer_channel_capture_value_register_read 0x0800104d   Thumb Code    36  gd32f30x_timer.o(i.timer_channel_capture_value_register_read)
    timer_channel_input_capture_prescaler_config 0x08001071   Thumb Code    84  gd32f30x_timer.o(i.timer_channel_input_capture_prescaler_config)
    timer_channel_input_struct_para_init     0x080010c5   Thumb Code    14  gd32f30x_timer.o(i.timer_channel_input_struct_para_init)
    timer_channel_output_config              0x080010d5   Thumb Code   464  gd32f30x_timer.o(i.timer_channel_output_config)
    timer_channel_output_mode_config         0x080012ad   Thumb Code    84  gd32f30x_timer.o(i.timer_channel_output_mode_config)
    timer_channel_output_pulse_value_config  0x08001301   Thumb Code    32  gd32f30x_timer.o(i.timer_channel_output_pulse_value_config)
    timer_channel_output_struct_para_init    0x08001321   Thumb Code    16  gd32f30x_timer.o(i.timer_channel_output_struct_para_init)
    timer_counter_value_config               0x08001331   Thumb Code     4  gd32f30x_timer.o(i.timer_counter_value_config)
    timer_deinit                             0x08001335   Thumb Code   210  gd32f30x_timer.o(i.timer_deinit)
    timer_enable                             0x08001411   Thumb Code    10  gd32f30x_timer.o(i.timer_enable)
    timer_init                               0x0800141d   Thumb Code   120  gd32f30x_timer.o(i.timer_init)
    timer_input_pwm_capture_config           0x080014b1   Thumb Code   346  gd32f30x_timer.o(i.timer_input_pwm_capture_config)
    timer_interrupt_enable                   0x0800160b   Thumb Code     8  gd32f30x_timer.o(i.timer_interrupt_enable)
    timer_interrupt_flag_clear               0x08001613   Thumb Code     6  gd32f30x_timer.o(i.timer_interrupt_flag_clear)
    timer_interrupt_flag_get                 0x08001619   Thumb Code    20  gd32f30x_timer.o(i.timer_interrupt_flag_get)
    timer_primary_output_config              0x0800162d   Thumb Code    24  gd32f30x_timer.o(i.timer_primary_output_config)
    timer_struct_para_init                   0x08001645   Thumb Code    20  gd32f30x_timer.o(i.timer_struct_para_init)
    usart_baudrate_set                       0x08001659   Thumb Code   102  gd32f30x_usart.o(i.usart_baudrate_set)
    usart_data_receive                       0x080016c9   Thumb Code     8  gd32f30x_usart.o(i.usart_data_receive)
    usart_data_transmit                      0x080016d1   Thumb Code     8  gd32f30x_usart.o(i.usart_data_transmit)
    usart_deinit                             0x080016d9   Thumb Code   136  gd32f30x_usart.o(i.usart_deinit)
    usart_enable                             0x08001769   Thumb Code    10  gd32f30x_usart.o(i.usart_enable)
    usart_flag_get                           0x08001773   Thumb Code    26  gd32f30x_usart.o(i.usart_flag_get)
    usart_interrupt_enable                   0x0800178d   Thumb Code    20  gd32f30x_usart.o(i.usart_interrupt_enable)
    usart_interrupt_flag_clear               0x080017a1   Thumb Code    18  gd32f30x_usart.o(i.usart_interrupt_flag_clear)
    usart_interrupt_flag_get                 0x080017b3   Thumb Code    50  gd32f30x_usart.o(i.usart_interrupt_flag_get)
    usart_parity_config                      0x080017e5   Thumb Code    16  gd32f30x_usart.o(i.usart_parity_config)
    usart_receive_config                     0x080017f5   Thumb Code    20  gd32f30x_usart.o(i.usart_receive_config)
    usart_stop_bit_set                       0x08001809   Thumb Code    16  gd32f30x_usart.o(i.usart_stop_bit_set)
    usart_transmit_config                    0x08001819   Thumb Code    20  gd32f30x_usart.o(i.usart_transmit_config)
    usart_word_length_set                    0x0800182d   Thumb Code    16  gd32f30x_usart.o(i.usart_word_length_set)
    Region$$Table$$Base                      0x0800183c   Number         0  anon$$obj.o(Region$$Table)
    Region$$Table$$Limit                     0x0800185c   Number         0  anon$$obj.o(Region$$Table)
    g_Usb2ComInfo                            0x20000054   Data          28  usb2com_drv.o(.data)
    __stdout                                 0x200000a8   Data           4  stdout.o(.data)
    __initial_sp                             0x20000510   Data           0  startup_gd32f30x_hd.o(STACK)



==============================================================================

Memory Map of the image

  Image Entry point : 0x08000131

  Load Region LR_IROM1 (Base: 0x08000000, Size: 0x00001908, Max: 0x00080000, ABSOLUTE)

    Execution Region ER_IROM1 (Exec base: 0x08000000, Load base: 0x08000000, Size: 0x0000185c, Max: 0x00080000, ABSOLUTE)

    Exec Addr    Load Addr    Size         Type   Attr      Idx    E Section Name        Object

    0x08000000   0x08000000   0x00000130   Data   RO         1760    RESET               startup_gd32f30x_hd.o
    0x08000130   0x08000130   0x00000000   Code   RO         1817  * .ARM.Collect$$$$00000000  mc_w.l(entry.o)
    0x08000130   0x08000130   0x00000004   Code   RO         2081    .ARM.Collect$$$$00000001  mc_w.l(entry2.o)
    0x08000134   0x08000134   0x00000004   Code   RO         2084    .ARM.Collect$$$$00000004  mc_w.l(entry5.o)
    0x08000138   0x08000138   0x00000000   Code   RO         2086    .ARM.Collect$$$$00000008  mc_w.l(entry7b.o)
    0x08000138   0x08000138   0x00000000   Code   RO         2088    .ARM.Collect$$$$0000000A  mc_w.l(entry8b.o)
    0x08000138   0x08000138   0x00000008   Code   RO         2089    .ARM.Collect$$$$0000000B  mc_w.l(entry9a.o)
    0x08000140   0x08000140   0x00000004   Code   RO         2096    .ARM.Collect$$$$0000000E  mc_w.l(entry12b.o)
    0x08000144   0x08000144   0x00000000   Code   RO         2091    .ARM.Collect$$$$0000000F  mc_w.l(entry10a.o)
    0x08000144   0x08000144   0x00000000   Code   RO         2093    .ARM.Collect$$$$00000011  mc_w.l(entry11a.o)
    0x08000144   0x08000144   0x00000004   Code   RO         2082    .ARM.Collect$$$$00002712  mc_w.l(entry2.o)
    0x08000148   0x08000148   0x00000024   Code   RO         1761    .text               startup_gd32f30x_hd.o
    0x0800016c   0x0800016c   0x00000062   Code   RO         2100    .text               mc_w.l(uldiv.o)
    0x080001ce   0x080001ce   0x00000002   PAD
    0x080001d0   0x080001d0   0x00000024   Code   RO         2113    .text               mc_w.l(init.o)
    0x080001f4   0x080001f4   0x0000001e   Code   RO         2115    .text               mc_w.l(llshl.o)
    0x08000212   0x08000212   0x00000020   Code   RO         2117    .text               mc_w.l(llushr.o)
    0x08000232   0x08000232   0x00000002   PAD
    0x08000234   0x08000234   0x00000014   Code   RO           24    i.AppInit           main.o
    0x08000248   0x08000248   0x0000000e   Code   RO          496    i.CaptureDrvInit    capture_drv.o
    0x08000256   0x08000256   0x00000002   PAD
    0x08000258   0x08000258   0x00000044   Code   RO          497    i.CaptureDrvTest    capture_drv.o
    0x0800029c   0x0800029c   0x00000020   Code   RO          498    i.CaptureGpioInit   capture_drv.o
    0x080002bc   0x080002bc   0x0000005c   Code   RO          499    i.CaptureTimerInit  capture_drv.o
    0x08000318   0x08000318   0x0000001a   Code   RO          126    i.DelayNms          delay.o
    0x08000332   0x08000332   0x00000002   PAD
    0x08000334   0x08000334   0x00000028   Code   RO          127    i.DelayNus          delay.o
    0x0800035c   0x0800035c   0x0000001e   Code   RO           25    i.DriverInit        main.o
    0x0800037a   0x0800037a   0x00000002   PAD
    0x0800037c   0x0800037c   0x00000034   Code   RO          128    i.DwtDelayInit      delay.o
    0x080003b0   0x080003b0   0x00000038   Code   RO          237    i.LedDrvInit        led_drv.o
    0x080003e8   0x080003e8   0x0000000c   Code   RO           84    i.ProcUartData      usb2com_app.o
    0x080003f4   0x080003f4   0x0000000e   Code   RO          455    i.PwmDrvInit        pwm_drv.o
    0x08000402   0x08000402   0x00000002   PAD
    0x08000404   0x08000404   0x00000048   Code   RO          456    i.PwmDrvTest        pwm_drv.o
    0x0800044c   0x0800044c   0x00000020   Code   RO          457    i.PwmGpioInit       pwm_drv.o
    0x0800046c   0x0800046c   0x00000074   Code   RO          458    i.PwmTimerInit      pwm_drv.o
    0x080004e0   0x080004e0   0x0000000c   Code   RO          279    i.QueueInit         queue.o
    0x080004ec   0x080004ec   0x00000026   Code   RO          282    i.QueuePush         queue.o
    0x08000512   0x08000512   0x00000002   PAD
    0x08000514   0x08000514   0x0000000c   Code   RO          369    i.RegUsb2ComCb      usb2com_drv.o
    0x08000520   0x08000520   0x00000018   Code   RO          326    i.SysTick_Handler   systick.o
    0x08000538   0x08000538   0x00000084   Code   RO         1768    i.SystemInit        system_gd32f30x.o
    0x080005bc   0x080005bc   0x00000040   Code   RO          327    i.SystickInit       systick.o
    0x080005fc   0x080005fc   0x00000028   Code   RO          424    i.TIMER0_UP_IRQHandler  timing_drv.o
    0x08000624   0x08000624   0x00000040   Code   RO          500    i.TIMER1_IRQHandler  capture_drv.o
    0x08000664   0x08000664   0x0000002c   Code   RO           26    i.TaskHandler       main.o
    0x08000690   0x08000690   0x00000034   Code   RO           27    i.TaskSchedule      main.o
    0x080006c4   0x080006c4   0x0000000c   Code   RO          328    i.TaskScheduleCbReg  systick.o
    0x080006d0   0x080006d0   0x00000034   Code   RO          238    i.ToggleLed         led_drv.o
    0x08000704   0x08000704   0x00000038   Code   RO          370    i.USART0_IRQHandler  usb2com_drv.o
    0x0800073c   0x0800073c   0x00000020   Code   RO           85    i.Usb2ComAppInit    usb2com_app.o
    0x0800075c   0x0800075c   0x00000012   Code   RO          371    i.Usb2ComDrvInit    usb2com_drv.o
    0x0800076e   0x0800076e   0x00000002   PAD
    0x08000770   0x08000770   0x0000002c   Code   RO          372    i.Usb2ComGpioInit   usb2com_drv.o
    0x0800079c   0x0800079c   0x00000064   Code   RO          373    i.Usb2ComUartInit   usb2com_drv.o
    0x08000800   0x08000800   0x00000020   Code   RO         2027    i.__0printf$8       mc_w.l(printf8.o)
    0x08000820   0x08000820   0x0000000e   Code   RO         2125    i.__scatterload_copy  mc_w.l(handlers.o)
    0x0800082e   0x0800082e   0x00000002   Code   RO         2126    i.__scatterload_null  mc_w.l(handlers.o)
    0x08000830   0x08000830   0x0000000e   Code   RO         2127    i.__scatterload_zeroinit  mc_w.l(handlers.o)
    0x0800083e   0x0800083e   0x00000002   PAD
    0x08000840   0x08000840   0x00000404   Code   RO         2034    i._printf_core      mc_w.l(printf8.o)
    0x08000c44   0x08000c44   0x00000024   Code   RO         2035    i._printf_post_padding  mc_w.l(printf8.o)
    0x08000c68   0x08000c68   0x0000002e   Code   RO         2036    i._printf_pre_padding  mc_w.l(printf8.o)
    0x08000c96   0x08000c96   0x00000002   PAD
    0x08000c98   0x08000c98   0x00000024   Code   RO          374    i.fputc             usb2com_drv.o
    0x08000cbc   0x08000cbc   0x00000004   Code   RO          545    i.gpio_bit_reset    gd32f30x_gpio.o
    0x08000cc0   0x08000cc0   0x0000000c   Code   RO          547    i.gpio_bit_write    gd32f30x_gpio.o
    0x08000ccc   0x08000ccc   0x000000a4   Code   RO          555    i.gpio_init         gd32f30x_gpio.o
    0x08000d70   0x08000d70   0x0000000e   Code   RO          556    i.gpio_input_bit_get  gd32f30x_gpio.o
    0x08000d7e   0x08000d7e   0x0000000e   Code   RO           28    i.main              main.o
    0x08000d8c   0x08000d8c   0x0000009c   Code   RO          691    i.nvic_irq_enable   gd32f30x_misc.o
    0x08000e28   0x08000e28   0x00000014   Code   RO          692    i.nvic_priority_group_set  gd32f30x_misc.o
    0x08000e3c   0x08000e3c   0x000000fc   Code   RO          758    i.rcu_clock_freq_get  gd32f30x_rcu.o
    0x08000f38   0x08000f38   0x0000001c   Code   RO          776    i.rcu_periph_clock_enable  gd32f30x_rcu.o
    0x08000f54   0x08000f54   0x0000001c   Code   RO          779    i.rcu_periph_reset_disable  gd32f30x_rcu.o
    0x08000f70   0x08000f70   0x0000001c   Code   RO          780    i.rcu_periph_reset_enable  gd32f30x_rcu.o
    0x08000f8c   0x08000f8c   0x000000bc   Code   RO         1769    i.system_clock_120m_hxtal  system_gd32f30x.o
    0x08001048   0x08001048   0x00000004   Code   RO         1770    i.system_clock_config  system_gd32f30x.o
    0x0800104c   0x0800104c   0x00000024   Code   RO         1009    i.timer_channel_capture_value_register_read  gd32f30x_timer.o
    0x08001070   0x08001070   0x00000054   Code   RO         1015    i.timer_channel_input_capture_prescaler_config  gd32f30x_timer.o
    0x080010c4   0x080010c4   0x0000000e   Code   RO         1016    i.timer_channel_input_struct_para_init  gd32f30x_timer.o
    0x080010d2   0x080010d2   0x00000002   PAD
    0x080010d4   0x080010d4   0x000001d8   Code   RO         1018    i.timer_channel_output_config  gd32f30x_timer.o
    0x080012ac   0x080012ac   0x00000054   Code   RO         1020    i.timer_channel_output_mode_config  gd32f30x_timer.o
    0x08001300   0x08001300   0x00000020   Code   RO         1022    i.timer_channel_output_pulse_value_config  gd32f30x_timer.o
    0x08001320   0x08001320   0x00000010   Code   RO         1025    i.timer_channel_output_struct_para_init  gd32f30x_timer.o
    0x08001330   0x08001330   0x00000004   Code   RO         1030    i.timer_counter_value_config  gd32f30x_timer.o
    0x08001334   0x08001334   0x000000dc   Code   RO         1031    i.timer_deinit      gd32f30x_timer.o
    0x08001410   0x08001410   0x0000000a   Code   RO         1036    i.timer_enable      gd32f30x_timer.o
    0x0800141a   0x0800141a   0x00000002   PAD
    0x0800141c   0x0800141c   0x00000094   Code   RO         1046    i.timer_init        gd32f30x_timer.o
    0x080014b0   0x080014b0   0x0000015a   Code   RO         1048    i.timer_input_pwm_capture_config  gd32f30x_timer.o
    0x0800160a   0x0800160a   0x00000008   Code   RO         1053    i.timer_interrupt_enable  gd32f30x_timer.o
    0x08001612   0x08001612   0x00000006   Code   RO         1054    i.timer_interrupt_flag_clear  gd32f30x_timer.o
    0x08001618   0x08001618   0x00000014   Code   RO         1055    i.timer_interrupt_flag_get  gd32f30x_timer.o
    0x0800162c   0x0800162c   0x00000018   Code   RO         1061    i.timer_primary_output_config  gd32f30x_timer.o
    0x08001644   0x08001644   0x00000014   Code   RO         1066    i.timer_struct_para_init  gd32f30x_timer.o
    0x08001658   0x08001658   0x00000070   Code   RO         1444    i.usart_baudrate_set  gd32f30x_usart.o
    0x080016c8   0x080016c8   0x00000008   Code   RO         1447    i.usart_data_receive  gd32f30x_usart.o
    0x080016d0   0x080016d0   0x00000008   Code   RO         1448    i.usart_data_transmit  gd32f30x_usart.o
    0x080016d8   0x080016d8   0x00000090   Code   RO         1449    i.usart_deinit      gd32f30x_usart.o
    0x08001768   0x08001768   0x0000000a   Code   RO         1453    i.usart_enable      gd32f30x_usart.o
    0x08001772   0x08001772   0x0000001a   Code   RO         1455    i.usart_flag_get    gd32f30x_usart.o
    0x0800178c   0x0800178c   0x00000014   Code   RO         1462    i.usart_interrupt_enable  gd32f30x_usart.o
    0x080017a0   0x080017a0   0x00000012   Code   RO         1463    i.usart_interrupt_flag_clear  gd32f30x_usart.o
    0x080017b2   0x080017b2   0x00000032   Code   RO         1464    i.usart_interrupt_flag_get  gd32f30x_usart.o
    0x080017e4   0x080017e4   0x00000010   Code   RO         1475    i.usart_parity_config  gd32f30x_usart.o
    0x080017f4   0x080017f4   0x00000014   Code   RO         1477    i.usart_receive_config  gd32f30x_usart.o
    0x08001808   0x08001808   0x00000010   Code   RO         1487    i.usart_stop_bit_set  gd32f30x_usart.o
    0x08001818   0x08001818   0x00000014   Code   RO         1491    i.usart_transmit_config  gd32f30x_usart.o
    0x0800182c   0x0800182c   0x00000010   Code   RO         1492    i.usart_word_length_set  gd32f30x_usart.o
    0x0800183c   0x0800183c   0x00000020   Data   RO         2123    Region$$Table       anon$$obj.o


    Execution Region RW_IRAM1 (Exec base: 0x20000000, Load base: 0x0800185c, Size: 0x00000510, Max: 0x00010000, ABSOLUTE)

    Exec Addr    Load Addr    Size         Type   Attr      Idx    E Section Name        Object

    0x20000000   0x0800185c   0x00000018   Data   RW           29    .data               main.o
    0x20000018   0x08001874   0x00000024   Data   RW          241    .data               led_drv.o
    0x2000003c   0x08001898   0x00000004   PAD
    0x20000040   0x0800189c   0x00000010   Data   RW          329    .data               systick.o
    0x20000050   0x080018ac   0x00000020   Data   RW          375    .data               usb2com_drv.o
    0x20000070   0x080018cc   0x00000018   Data   RW          459    .data               pwm_drv.o
    0x20000088   0x080018e4   0x00000020   Data   RW          501    .data               capture_drv.o
    0x200000a8   0x08001904   0x00000004   Data   RW         2097    .data               mc_w.l(stdout.o)
    0x200000ac        -       0x00000060   Zero   RW           87    .bss                usb2com_app.o
    0x2000010c   0x08001908   0x00000004   PAD
    0x20000110        -       0x00000400   Zero   RW         1758    STACK               startup_gd32f30x_hd.o


==============================================================================

Image component sizes


      Code (inc. data)   RO Data    RW Data    ZI Data      Debug   Object Name

       270         66          0         32          0       3586   capture_drv.o
       118         18          0          0          0      38041   delay.o
       194          0          0          0          0      14887   gd32f30x_gpio.o
       176         16          0          0          0       1436   gd32f30x_misc.o
       336         46          0          0          0      20220   gd32f30x_rcu.o
      1544         46          0          0          0      27714   gd32f30x_timer.o
       484         18          0          0          0      15522   gd32f30x_usart.o
         0          0          0          0          0       4540   hmi_app.o
       108         10          0         36          0       1989   led_drv.o
       160         14          0         24          0       3371   main.o
       234         16          0         24          0       3030   pwm_drv.o
        50          0          0          0          0       2128   queue.o
        36          8        304          0       1024        840   startup_gd32f30x_hd.o
       324         32          0          0          0       2473   system_gd32f30x.o
       100         16          0         16          0      28695   systick.o
        40          4          0          0          0        555   timing_drv.o
        44         12          0          0         96       2441   usb2com_app.o
       266         32          0         32          0       5448   usb2com_drv.o

    ----------------------------------------------------------------------
      4500        354        336        168       1124     176916   Object Totals
         0          0         32          0          0          0   (incl. Generated)
        16          0          0          4          4          0   (incl. Padding)

    ----------------------------------------------------------------------

      Code (inc. data)   RO Data    RW Data    ZI Data      Debug   Library Member Name

         0          0          0          0          0          0   entry.o
         0          0          0          0          0          0   entry10a.o
         0          0          0          0          0          0   entry11a.o
         4          0          0          0          0          0   entry12b.o
         8          4          0          0          0          0   entry2.o
         4          0          0          0          0          0   entry5.o
         0          0          0          0          0          0   entry7b.o
         0          0          0          0          0          0   entry8b.o
         8          4          0          0          0          0   entry9a.o
        30          0          0          0          0          0   handlers.o
        36          8          0          0          0         68   init.o
        30          0          0          0          0         68   llshl.o
        32          0          0          0          0         68   llushr.o
      1142         54          0          0          0        352   printf8.o
         0          0          0          4          0          0   stdout.o
        98          0          0          0          0         92   uldiv.o

    ----------------------------------------------------------------------
      1400         70          0          4          0        648   Library Totals
         8          0          0          0          0          0   (incl. Padding)

    ----------------------------------------------------------------------

      Code (inc. data)   RO Data    RW Data    ZI Data      Debug   Library Name

      1392         70          0          4          0        648   mc_w.l

    ----------------------------------------------------------------------
      1400         70          0          4          0        648   Library Totals

    ----------------------------------------------------------------------

==============================================================================


      Code (inc. data)   RO Data    RW Data    ZI Data      Debug   

      5900        424        336        172       1124     170308   Grand Totals
      5900        424        336        172       1124     170308   ELF Image Totals
      5900        424        336        172          0          0   ROM Totals

==============================================================================

    Total RO  Size (Code + RO Data)                 6236 (   6.09kB)
    Total RW  Size (RW Data + ZI Data)              1296 (   1.27kB)
    Total ROM Size (Code + RO Data + RW Data)       6408 (   6.26kB)

==============================================================================

