Component: Arm Compiler for Embedded 6.21 Tool: armlink [5ec1fa00]

==============================================================================

Section Cross References

    hmi_app.o(.text.HmiTask) refers to key_drv.o(.text.GetKeyValue) for GetKeyValue
    hmi_app.o(.text.HmiTask) refers to led_drv.o(.text.TurnOnLed) for TurnOnLed
    hmi_app.o(.text.HmiTask) refers to rtc_drv.o(.text.GetRtcTime) for GetRtcTime
    hmi_app.o(.text.HmiTask) refers to printfa.o(i.__0printf) for __2printf
    hmi_app.o(.text.HmiTask) refers to led_drv.o(.text.TurnOffLed) for TurnOffLed
    hmi_app.o(.text.HmiTask) refers to sensor_drv.o(.text.GetSensorData) for GetSensorData
    hmi_app.o(.text.HmiTask) refers to f2d.o(.text) for __aeabi_f2d
    hmi_app.o(.text.HmiTask) refers to fatfs_app.o(.text.PrintFileData) for PrintFileData
    hmi_app.o(.ARM.exidx.text.HmiTask) refers to hmi_app.o(.text.HmiTask) for [Anonymous Symbol]
    main.o(.text.main) refers to delay.o(.text.DwtDelayInit) for DwtDelayInit
    main.o(.text.main) refers to systick.o(.text.SystickInit) for SystickInit
    main.o(.text.main) refers to usb2com_drv.o(.text.Usb2ComDrvInit) for Usb2ComDrvInit
    main.o(.text.main) refers to sensor_drv.o(.text.SensorDrvInit) for SensorDrvInit
    main.o(.text.main) refers to led_drv.o(.text.LedDrvInit) for LedDrvInit
    main.o(.text.main) refers to key_drv.o(.text.KeyDrvInit) for KeyDrvInit
    main.o(.text.main) refers to rtc_drv.o(.text.RtcDrvInit) for RtcDrvInit
    main.o(.text.main) refers to norflash_drv.o(.text.NorflashDrvInit) for NorflashDrvInit
    main.o(.text.main) refers to fatfs_app.o(.text.FatFsInit) for FatFsInit
==============================================================================

Removing Unused input sections from the image.

    Removing hmi_app.o(.text), (0 bytes).
    Removing hmi_app.o(.ARM.exidx.text.HmiTask), (8 bytes).
    Removing main.o(.text), (0 bytes).
    Removing main.o(.ARM.exidx.text.main), (8 bytes).
    Removing main.o(.ARM.exidx.text.TaskSchedule), (8 bytes).
    Removing main.o(.ARM.use_no_argv), (4 bytes).
    Removing sensor_app.o(.text), (0 bytes).
    Removing sensor_app.o(.ARM.exidx.text.SensorAppTask), (8 bytes).
    Removing store_app.o(.text), (0 bytes).
    Removing store_app.o(.text.InitSysParam), (230 bytes).
    Removing store_app.o(.ARM.exidx.text.InitSysParam), (8 bytes).
    Removing store_app.o(.text.SetModbusParam), (246 bytes).
    Removing store_app.o(.ARM.exidx.text.SetModbusParam), (8 bytes).
    Removing store_app.o(.bss.g_sysParamCurrent), (4 bytes).
    Removing fatfs_app.o(.text), (0 bytes).
    Removing fatfs_app.o(.ARM.exidx.text.FatFsInit), (8 bytes).
    Removing fatfs_app.o(.ARM.exidx.text.FatfsTask), (8 bytes).
    Removing fatfs_app.o(.ARM.exidx.text.PrintFileData), (8 bytes).
==============================================================================

Image Symbol Table

    Local Symbols

    Symbol Name                              Value     Ov Type        Size  Object(Section)

    ../clib/division.s                       0x00000000   Number         0  aeabi_sdiv.o ABSOLUTE
    ../clib/microlib/division.c              0x00000000   Number         0  uldiv.o ABSOLUTE
    ../clib/microlib/division.c              0x00000000   Number         0  uidiv.o ABSOLUTE
    ../clib/microlib/init/entry.s            0x00000000   Number         0  entry.o ABSOLUTE
    ../clib/microlib/init/entry.s            0x00000000   Number         0  entry2.o ABSOLUTE
    ../clib/microlib/init/entry.s            0x00000000   Number         0  entry5.o ABSOLUTE
    ../clib/microlib/init/entry.s            0x00000000   Number         0  entry7a.o ABSOLUTE
    ../clib/microlib/init/entry.s            0x00000000   Number         0  entry7b.o ABSOLUTE
    ../clib/microlib/init/entry.s            0x00000000   Number         0  entry8a.o ABSOLUTE
    ../clib/microlib/init/entry.s            0x00000000   Number         0  entry8b.o ABSOLUTE
    ../clib/microlib/init/entry.s            0x00000000   Number         0  entry9a.o ABSOLUTE
    ../clib/microlib/init/entry.s            0x00000000   Number         0  entry9b.o ABSOLUTE
    ../clib/microlib/init/entry.s            0x00000000   Number         0  entry10a.o ABSOLUTE
    ../clib/microlib/init/entry.s            0x00000000   Number         0  entry10b.o ABSOLUTE
    ../clib/microlib/init/entry.s            0x00000000   Number         0  entry11a.o ABSOLUTE
    ../clib/microlib/init/entry.s            0x00000000   Number         0  entry11b.o ABSOLUTE
    ../clib/microlib/longlong.c              0x00000000   Number         0  llshl.o ABSOLUTE
    ../clib/microlib/longlong.c              0x00000000   Number         0  llushr.o ABSOLUTE
    ../clib/microlib/longlong.c              0x00000000   Number         0  llsshr.o ABSOLUTE
    ../clib/microlib/malloc/malloc.c         0x00000000   Number         0  malloc.o ABSOLUTE
    ../clib/microlib/malloc/malloc.c         0x00000000   Number         0  mallocr.o ABSOLUTE
    ../clib/microlib/malloc/malloc.c         0x00000000   Number         0  malloca.o ABSOLUTE
    ../clib/microlib/malloc/malloc.c         0x00000000   Number         0  mallocra.o ABSOLUTE
    ../clib/microlib/malloc/mvars.c          0x00000000   Number         0  mvars.o ABSOLUTE
    ../clib/microlib/printf/printf.c         0x00000000   Number         0  printfb.o ABSOLUTE
    ../clib/microlib/printf/printf.c         0x00000000   Number         0  printf0.o ABSOLUTE
    ../clib/microlib/printf/printf.c         0x00000000   Number         0  printf1.o ABSOLUTE
    ../clib/microlib/printf/printf.c         0x00000000   Number         0  printf2.o ABSOLUTE
    ../clib/microlib/printf/printf.c         0x00000000   Number         0  printf3.o ABSOLUTE
    ../clib/microlib/printf/printf.c         0x00000000   Number         0  printf4.o ABSOLUTE
    ../clib/microlib/printf/printf.c         0x00000000   Number         0  printf5.o ABSOLUTE
    ../clib/microlib/printf/printf.c         0x00000000   Number         0  printf6.o ABSOLUTE
    ../clib/microlib/printf/printf.c         0x00000000   Number         0  printf7.o ABSOLUTE
    ../clib/microlib/printf/printf.c         0x00000000   Number         0  printf8.o ABSOLUTE
    ../clib/microlib/printf/printf.c         0x00000000   Number         0  printfa.o ABSOLUTE
    ../clib/microlib/printf/stubs.s          0x00000000   Number         0  printfstubs.o ABSOLUTE
    ../clib/microlib/stdio/fputs.c           0x00000000   Number         0  fputs.o ABSOLUTE
    ../clib/microlib/stdio/fputs.c           0x00000000   Number         0  fputs_e.o ABSOLUTE
    ../clib/microlib/stdio/fwrite.c          0x00000000   Number         0  fwrite.o ABSOLUTE
    ../clib/microlib/stdio/fwrite.c          0x00000000   Number         0  fwrite_e.o ABSOLUTE
    ../clib/microlib/stdio/puts.c            0x00000000   Number         0  puts.o ABSOLUTE
    ../clib/microlib/stdio/puts.c            0x00000000   Number         0  puts_e.o ABSOLUTE
    ../clib/microlib/stdio/streams.c         0x00000000   Number         0  stderr.o ABSOLUTE
    ../clib/microlib/stdio/streams.c         0x00000000   Number         0  stdout.o ABSOLUTE
    ../clib/microlib/stdlib/qsort.c          0x00000000   Number         0  qsort.o ABSOLUTE
    ../clib/microlib/string/memchr.c         0x00000000   Number         0  memchr.o ABSOLUTE
    ../clib/microlib/string/memcmp.c         0x00000000   Number         0  memcmp.o ABSOLUTE
    ../clib/microlib/string/memcpy.c         0x00000000   Number         0  memcpya.o ABSOLUTE
    ../clib/microlib/string/memcpy.c         0x00000000   Number         0  memcpyb.o ABSOLUTE
    ../clib/microlib/string/memset.c         0x00000000   Number         0  memseta.o ABSOLUTE
    ../clib/microlib/string/strlen.c         0x00000000   Number         0  strlen.o ABSOLUTE
    ../clib/microlib/stubs.s                 0x00000000   Number         0  iusefp.o ABSOLUTE
    ../clib/microlib/time/localtime.c        0x00000000   Number         0  localtime.o ABSOLUTE
    ../clib/microlib/time/localtime.c        0x00000000   Number         0  localtime_w.o ABSOLUTE
    ../clib/microlib/time/localtime.c        0x00000000   Number         0  localtime_i.o ABSOLUTE
    ../clib/microlib/time/mktime.c           0x00000000   Number         0  mktime.o ABSOLUTE
    ../fplib/microlib/f2d.c                  0x00000000   Number         0  f2d.o ABSOLUTE
    ../fplib/microlib/fpadd.c                0x00000000   Number         0  dadd.o ABSOLUTE
    ../fplib/microlib/fpcmp.c                0x00000000   Number         0  dcmplt.o ABSOLUTE
    ../fplib/microlib/fpcmp.c                0x00000000   Number         0  dcmpge.o ABSOLUTE
    ../fplib/microlib/fpcmp.c                0x00000000   Number         0  dcmpeq.o ABSOLUTE
    ../fplib/microlib/fpdiv.c                0x00000000   Number         0  ddiv.o ABSOLUTE
    ../fplib/microlib/fpepilogue.c           0x00000000   Number         0  depilogue.o ABSOLUTE
    ../fplib/microlib/fpfix.c                0x00000000   Number         0  dfixi.o ABSOLUTE
    ../fplib/microlib/fpfix.c                0x00000000   Number         0  dfixul.o ABSOLUTE
    ../fplib/microlib/fpflt.c                0x00000000   Number         0  dflti.o ABSOLUTE
    ../fplib/microlib/fpmul.c                0x00000000   Number         0  dmul.o ABSOLUTE
    Arm_Kernel/startup_gd32f30x_hd.s         0x00000000   Number         0  startup_gd32f30x_hd.o ABSOLUTE
    cdrcmple.s                               0x00000000   Number         0  cdrcmple.o ABSOLUTE
    dc.s                                     0x00000000   Number         0  dc.o ABSOLUTE
    delay.c                                  0x00000000   Number         0  delay.o ABSOLUTE
    diskio.c                                 0x00000000   Number         0  diskio.o ABSOLUTE
    fatfs_app.c                              0x00000000   Number         0  fatfs_app.o ABSOLUTE
    ff.c                                     0x00000000   Number         0  ff.o ABSOLUTE
    ffsystem.c                               0x00000000   Number         0  ffsystem.o ABSOLUTE
    ffunicode.c                              0x00000000   Number         0  ffunicode.o ABSOLUTE
    gd32f30x_adc.c                           0x00000000   Number         0  gd32f30x_adc.o ABSOLUTE
    gd32f30x_bkp.c                           0x00000000   Number         0  gd32f30x_bkp.o ABSOLUTE
    gd32f30x_fmc.c                           0x00000000   Number         0  gd32f30x_fmc.o ABSOLUTE
    gd32f30x_gpio.c                          0x00000000   Number         0  gd32f30x_gpio.o ABSOLUTE
    gd32f30x_misc.c                          0x00000000   Number         0  gd32f30x_misc.o ABSOLUTE
    gd32f30x_pmu.c                           0x00000000   Number         0  gd32f30x_pmu.o ABSOLUTE
    gd32f30x_rcu.c                           0x00000000   Number         0  gd32f30x_rcu.o ABSOLUTE
    gd32f30x_rtc.c                           0x00000000   Number         0  gd32f30x_rtc.o ABSOLUTE
    gd32f30x_spi.c                           0x00000000   Number         0  gd32f30x_spi.o ABSOLUTE
    gd32f30x_timer.c                         0x00000000   Number         0  gd32f30x_timer.o ABSOLUTE
    gd32f30x_usart.c                         0x00000000   Number         0  gd32f30x_usart.o ABSOLUTE
    handlers.s                               0x00000000   Number         0  handlers.o ABSOLUTE
    hmi_app.c                                0x00000000   Number         0  hmi_app.o ABSOLUTE
    inflash_drv.c                            0x00000000   Number         0  inflash_drv.o ABSOLUTE
    init.s                                   0x00000000   Number         0  init.o ABSOLUTE
    key_drv.c                                0x00000000   Number         0  key_drv.o ABSOLUTE
    led_drv.c                                0x00000000   Number         0  led_drv.o ABSOLUTE
    main.c                                   0x00000000   Number         0  main.o ABSOLUTE
    mb.c                                     0x00000000   Number         0  mb.o ABSOLUTE
    mbcrc.c                                  0x00000000   Number         0  mbcrc.o ABSOLUTE
    mbfuncholding.c                          0x00000000   Number         0  mbfuncholding.o ABSOLUTE
    mbrtu.c                                  0x00000000   Number         0  mbrtu.o ABSOLUTE
    mbutils.c                                0x00000000   Number         0  mbutils.o ABSOLUTE
    modbus_app.c                             0x00000000   Number         0  modbus_app.o ABSOLUTE
    modbus_slave.c                           0x00000000   Number         0  modbus_slave.o ABSOLUTE
    norflash_drv.c                           0x00000000   Number         0  norflash_drv.o ABSOLUTE
    ntc_drv.c                                0x00000000   Number         0  ntc_drv.o ABSOLUTE
    portevent.c                              0x00000000   Number         0  portevent.o ABSOLUTE
    portserial.c                             0x00000000   Number         0  portserial.o ABSOLUTE
    porttimer.c                              0x00000000   Number         0  porttimer.o ABSOLUTE
    retarget_io.c                            0x00000000   Number         0  retarget_io.o ABSOLUTE
    rh_drv.c                                 0x00000000   Number         0  rh_drv.o ABSOLUTE
    rtc_drv.c                                0x00000000   Number         0  rtc_drv.o ABSOLUTE
    sensor_app.c                             0x00000000   Number         0  sensor_app.o ABSOLUTE
    sensor_drv.c                             0x00000000   Number         0  sensor_drv.o ABSOLUTE
    store_app.c                              0x00000000   Number         0  store_app.o ABSOLUTE
    system_gd32f30x.c                        0x00000000   Number         0  system_gd32f30x.o ABSOLUTE
    systick.c                                0x00000000   Number         0  systick.o ABSOLUTE
    usb2com_drv.c                            0x00000000   Number         0  usb2com_drv.o ABSOLUTE
    RESET                                    0x08000000   Section      304  startup_gd32f30x_hd.o(RESET)
    .ARM.Collect$$$$00000000                 0x08000130   Section        0  entry.o(.ARM.Collect$$$$00000000)
    .ARM.Collect$$$$00000001                 0x08000130   Section        4  entry2.o(.ARM.Collect$$$$00000001)
    .ARM.Collect$$$$00000004                 0x08000134   Section        4  entry5.o(.ARM.Collect$$$$00000004)
    .ARM.Collect$$$$00000008                 0x08000138   Section        0  entry7b.o(.ARM.Collect$$$$00000008)
    .ARM.Collect$$$$0000000A                 0x08000138   Section        0  entry8b.o(.ARM.Collect$$$$0000000A)
    .ARM.Collect$$$$0000000B                 0x08000138   Section        8  entry9a.o(.ARM.Collect$$$$0000000B)
    __lit__00000000                          0x08000140   Data           4  entry2.o(.ARM.Collect$$$$00002712)
    .ARM.Collect$$$$0000000D                 0x08000140   Section        0  entry10a.o(.ARM.Collect$$$$0000000D)
    .ARM.Collect$$$$0000000F                 0x08000140   Section        0  entry11a.o(.ARM.Collect$$$$0000000F)
    .ARM.Collect$$$$00002712                 0x08000140   Section        4  entry2.o(.ARM.Collect$$$$00002712)
    $v0                                      0x08000144   Number         0  startup_gd32f30x_hd.o(.text)
    .text                                    0x08000144   Section       36  startup_gd32f30x_hd.o(.text)
    .text                                    0x08000168   Section        0  uldiv.o(.text)
    .text                                    0x080001ca   Section        0  qsort.o(.text)
    .text                                    0x08000266   Section        0  memcpya.o(.text)
    .text                                    0x0800028a   Section        0  memseta.o(.text)
    .text                                    0x080002ae   Section        0  strlen.o(.text)
    .text                                    0x080002bc   Section        0  memchr.o(.text)
    .text                                    0x080002d0   Section        0  memcmp.o(.text)
    .text                                    0x080002ea   Section        0  dadd.o(.text)
    .text                                    0x08000438   Section        0  dmul.o(.text)
    .text                                    0x0800051c   Section        0  ddiv.o(.text)
    .text                                    0x080005fa   Section        0  dcmplt.o(.text)
    .text                                    0x08000630   Section        0  dcmpge.o(.text)
    .text                                    0x08000666   Section        0  dcmpeq.o(.text)
    .text                                    0x0800069e   Section        0  dflti.o(.text)
    .text                                    0x080006c0   Section        0  dfixi.o(.text)
    .text                                    0x080006fe   Section        0  f2d.o(.text)
    .text                                    0x08000724   Section        0  uidiv.o(.text)
    .text                                    0x08000750   Section        0  llshl.o(.text)
    .text                                    0x0800076e   Section        0  llushr.o(.text)
    .text                                    0x0800078e   Section        0  llsshr.o(.text)
    .text                                    0x080007b4   Section        0  localtime_w.o(.text)
    .text                                    0x080007c0   Section        0  localtime_i.o(.text)
    .text                                    0x0800084c   Section        0  iusefp.o(.text)
    .text                                    0x0800084c   Section        0  depilogue.o(.text)
    .text                                    0x08000906   Section        0  dfixul.o(.text)
    .text                                    0x08000938   Section       48  cdrcmple.o(.text)
    .text                                    0x08000968   Section       48  init.o(.text)
    Compare                                  0x08000999   Thumb Code     8  ntc_drv.o(.text.Compare)
    [Anonymous Symbol]                       0x08000998   Section        0  ntc_drv.o(.text.Compare)
    [Anonymous Symbol]                       0x080009a0   Section        0  delay.o(.text.DelayNus)
    [Anonymous Symbol]                       0x080009d0   Section        0  delay.o(.text.DwtDelayInit)
    EnableNorflashWrite                      0x08000a09   Thumb Code   116  norflash_drv.o(.text.EnableNorflashWrite)
    [Anonymous Symbol]                       0x08000a08   Section        0  norflash_drv.o(.text.EnableNorflashWrite)
    EraseNorflashSector                      0x08000a7d   Thumb Code   350  norflash_drv.o(.text.EraseNorflashSector)
    [Anonymous Symbol]                       0x08000a7c   Section        0  norflash_drv.o(.text.EraseNorflashSector)
    [Anonymous Symbol]                       0x08000bdc   Section        0  norflash_drv.o(.text.EraseNorflashSectorForWrite)
    [Anonymous Symbol]                       0x08000c1c   Section        0  fatfs_app.o(.text.FatFsInit)
    [Anonymous Symbol]                       0x08000cbc   Section        0  fatfs_app.o(.text.FatfsTask)
    [Anonymous Symbol]                       0x08000da0   Section        0  rh_drv.o(.text.GetHumiData)
    [Anonymous Symbol]                       0x08000dac   Section        0  key_drv.o(.text.GetKeyValue)
    [Anonymous Symbol]                       0x08000e90   Section        0  rtc_drv.o(.text.GetRtcTime)
    [Anonymous Symbol]                       0x08000ec8   Section        0  sensor_drv.o(.text.GetSensorData)
    [Anonymous Symbol]                       0x08000ee8   Section        0  systick.o(.text.GetSystemRunTime)
    [Anonymous Symbol]                       0x08000ef8   Section        0  ntc_drv.o(.text.GetTempData)
    [Anonymous Symbol]                       0x08000f08   Section        0  hmi_app.o(.text.HmiTask)
    [Anonymous Symbol]                       0x08001024   Section        0  rh_drv.o(.text.HumiDrvInit)
    [Anonymous Symbol]                       0x08001140   Section        0  rh_drv.o(.text.HumiSensorProc)
    [Anonymous Symbol]                       0x08001240   Section        0  key_drv.o(.text.KeyDrvInit)
    [Anonymous Symbol]                       0x0800126c   Section        0  led_drv.o(.text.LedDrvInit)
    [Anonymous Symbol]                       0x080012a8   Section        0  norflash_drv.o(.text.NorflashDrvInit)
    [Anonymous Symbol]                       0x08001304   Section        0  fatfs_app.o(.text.PrintFileData)
    ProgramNorflashDataPage                  0x080013c9   Thumb Code   454  norflash_drv.o(.text.ProgramNorflashDataPage)
    [Anonymous Symbol]                       0x080013c8   Section        0  norflash_drv.o(.text.ProgramNorflashDataPage)
    [Anonymous Symbol]                       0x08001590   Section        0  norflash_drv.o(.text.ReadNorflashData)
    [Anonymous Symbol]                       0x0800175c   Section        0  norflash_drv.o(.text.ReadNorflashID)
    [Anonymous Symbol]                       0x080018dc   Section        0  rtc_drv.o(.text.RtcDrvInit)
    [Anonymous Symbol]                       0x08001960   Section        0  sensor_app.o(.text.SensorAppTask)
    [Anonymous Symbol]                       0x08001964   Section        0  sensor_drv.o(.text.SensorDrvInit)
    [Anonymous Symbol]                       0x08001974   Section        0  sensor_drv.o(.text.SensorDrvProc)
    [Anonymous Symbol]                       0x08001990   Section        0  systick.o(.text.SysTick_Handler)
    [Anonymous Symbol]                       0x080019b8   Section        0  system_gd32f30x.o(.text.SystemInit)
    [Anonymous Symbol]                       0x08001b60   Section        0  systick.o(.text.SystickInit)
    [Anonymous Symbol]                       0x08001ba8   Section        0  porttimer.o(.text.TIMER3_IRQHandler)
    [Anonymous Symbol]                       0x08001be0   Section        0  rh_drv.o(.text.TIMER4_IRQHandler)
    TaskSchedule                             0x08001c95   Thumb Code    56  main.o(.text.TaskSchedule)
    [Anonymous Symbol]                       0x08001c94   Section        0  main.o(.text.TaskSchedule)
    [Anonymous Symbol]                       0x08001ccc   Section        0  systick.o(.text.TaskScheduleCbReg)
    [Anonymous Symbol]                       0x08001cd8   Section        0  ntc_drv.o(.text.TempDrvInit)
    [Anonymous Symbol]                       0x08001d88   Section        0  ntc_drv.o(.text.TempSensorProc)
    [Anonymous Symbol]                       0x08001ec0   Section        0  led_drv.o(.text.TurnOffLed)
    [Anonymous Symbol]                       0x08001ee0   Section        0  led_drv.o(.text.TurnOnLed)
    [Anonymous Symbol]                       0x08001f00   Section        0  usb2com_drv.o(.text.USART0_IRQHandler)
    [Anonymous Symbol]                       0x08001f40   Section        0  portserial.o(.text.USART1_IRQHandler)
    [Anonymous Symbol]                       0x08001f9c   Section        0  usb2com_drv.o(.text.Usb2ComDrvInit)
    WaitNorflashWriteEnd                     0x08002021   Thumb Code   214  norflash_drv.o(.text.WaitNorflashWriteEnd)
    [Anonymous Symbol]                       0x08002020   Section        0  norflash_drv.o(.text.WaitNorflashWriteEnd)
    [Anonymous Symbol]                       0x080020f8   Section        0  norflash_drv.o(.text.WriteNorflashData)
    [Anonymous Symbol]                       0x08002164   Section        0  gd32f30x_adc.o(.text.adc_calibration_enable)
    [Anonymous Symbol]                       0x08002184   Section        0  gd32f30x_adc.o(.text.adc_channel_length_config)
    [Anonymous Symbol]                       0x080021c0   Section        0  gd32f30x_adc.o(.text.adc_data_alignment_config)
    [Anonymous Symbol]                       0x080021d4   Section        0  gd32f30x_adc.o(.text.adc_deinit)
    [Anonymous Symbol]                       0x0800221c   Section        0  gd32f30x_adc.o(.text.adc_enable)
    [Anonymous Symbol]                       0x08002230   Section        0  gd32f30x_adc.o(.text.adc_external_trigger_config)
    [Anonymous Symbol]                       0x08002270   Section        0  gd32f30x_adc.o(.text.adc_external_trigger_source_config)
    [Anonymous Symbol]                       0x08002294   Section        0  gd32f30x_adc.o(.text.adc_flag_clear)
    [Anonymous Symbol]                       0x0800229c   Section        0  gd32f30x_adc.o(.text.adc_flag_get)
    [Anonymous Symbol]                       0x080022a8   Section        0  gd32f30x_adc.o(.text.adc_mode_config)
    [Anonymous Symbol]                       0x080022c0   Section        0  gd32f30x_adc.o(.text.adc_oversample_mode_config)
    [Anonymous Symbol]                       0x080022f0   Section        0  gd32f30x_adc.o(.text.adc_oversample_mode_enable)
    [Anonymous Symbol]                       0x08002300   Section        0  gd32f30x_adc.o(.text.adc_regular_channel_config)
    [Anonymous Symbol]                       0x08002374   Section        0  gd32f30x_adc.o(.text.adc_regular_data_read)
    [Anonymous Symbol]                       0x0800237c   Section        0  gd32f30x_adc.o(.text.adc_resolution_config)
    [Anonymous Symbol]                       0x08002394   Section        0  gd32f30x_adc.o(.text.adc_software_trigger_enable)
    [Anonymous Symbol]                       0x080023b0   Section        0  gd32f30x_adc.o(.text.adc_special_function_config)
    [Anonymous Symbol]                       0x0800240c   Section        0  gd32f30x_bkp.o(.text.bkp_deinit)
    [Anonymous Symbol]                       0x0800241c   Section        0  gd32f30x_bkp.o(.text.bkp_read_data)
    [Anonymous Symbol]                       0x08002450   Section        0  gd32f30x_bkp.o(.text.bkp_write_data)
    check_fs                                 0x08002485   Thumb Code   196  ff.o(.text.check_fs)
    [Anonymous Symbol]                       0x08002484   Section        0  ff.o(.text.check_fs)
    create_chain                             0x08002555   Thumb Code   290  ff.o(.text.create_chain)
    [Anonymous Symbol]                       0x08002554   Section        0  ff.o(.text.create_chain)
    create_partition                         0x08002679   Thumb Code   396  ff.o(.text.create_partition)
    [Anonymous Symbol]                       0x08002678   Section        0  ff.o(.text.create_partition)
    dir_clear                                0x08002805   Thumb Code   148  ff.o(.text.dir_clear)
    [Anonymous Symbol]                       0x08002804   Section        0  ff.o(.text.dir_clear)
    dir_find                                 0x08002899   Thumb Code   412  ff.o(.text.dir_find)
    [Anonymous Symbol]                       0x08002898   Section        0  ff.o(.text.dir_find)
    dir_next                                 0x08002a35   Thumb Code   238  ff.o(.text.dir_next)
    [Anonymous Symbol]                       0x08002a34   Section        0  ff.o(.text.dir_next)
    dir_read                                 0x08002b25   Thumb Code   302  ff.o(.text.dir_read)
    [Anonymous Symbol]                       0x08002b24   Section        0  ff.o(.text.dir_read)
    dir_register                             0x08002c55   Thumb Code   740  ff.o(.text.dir_register)
    [Anonymous Symbol]                       0x08002c54   Section        0  ff.o(.text.dir_register)
    dir_sdi                                  0x08002f39   Thumb Code   170  ff.o(.text.dir_sdi)
    [Anonymous Symbol]                       0x08002f38   Section        0  ff.o(.text.dir_sdi)
    [Anonymous Symbol]                       0x08002fe4   Section        0  diskio.o(.text.disk_initialize)
    [Anonymous Symbol]                       0x08003020   Section        0  diskio.o(.text.disk_ioctl)
    [Anonymous Symbol]                       0x0800304c   Section        0  diskio.o(.text.disk_read)
    [Anonymous Symbol]                       0x08003068   Section        0  diskio.o(.text.disk_status)
    [Anonymous Symbol]                       0x080030a0   Section        0  diskio.o(.text.disk_write)
    [Anonymous Symbol]                       0x080030c8   Section        0  ff.o(.text.f_close)
    [Anonymous Symbol]                       0x08003108   Section        0  ff.o(.text.f_gets)
    [Anonymous Symbol]                       0x0800316c   Section        0  ff.o(.text.f_mkfs)
    f_mkfs.defopt                            0x0800382c   Number         0  ff.o(.text.f_mkfs)
    [Anonymous Symbol]                       0x08003864   Section        0  ff.o(.text.f_mount)
    [Anonymous Symbol]                       0x08003908   Section        0  ff.o(.text.f_open)
    [Anonymous Symbol]                       0x08003bb0   Section        0  ff.o(.text.f_printf)
    [Anonymous Symbol]                       0x08004a00   Section        0  ff.o(.text.f_read)
    [Anonymous Symbol]                       0x08004c08   Section        0  ff.o(.text.f_sync)
    [Anonymous Symbol]                       0x08004cd0   Section        0  ff.o(.text.f_unlink)
    [Anonymous Symbol]                       0x08004e1c   Section        0  ff.o(.text.f_write)
    [Anonymous Symbol]                       0x08005060   Section        0  ffunicode.o(.text.ff_oem2uni)
    [Anonymous Symbol]                       0x0800508c   Section        0  ffunicode.o(.text.ff_uni2oem)
    [Anonymous Symbol]                       0x080050cc   Section        0  ffunicode.o(.text.ff_wtoupper)
    find_volume                              0x0800517d   Thumb Code    82  ff.o(.text.find_volume)
    [Anonymous Symbol]                       0x0800517c   Section        0  ff.o(.text.find_volume)
    follow_path                              0x080051d1   Thumb Code   884  ff.o(.text.follow_path)
    [Anonymous Symbol]                       0x080051d0   Section        0  ff.o(.text.follow_path)
    [Anonymous Symbol]                       0x08005558   Section        0  usb2com_drv.o(.text.fputc)
    get_fat                                  0x0800557d   Thumb Code   256  ff.o(.text.get_fat)
    [Anonymous Symbol]                       0x0800557c   Section        0  ff.o(.text.get_fat)
    [Anonymous Symbol]                       0x0800567c   Section        0  diskio.o(.text.get_fattime)
    [Anonymous Symbol]                       0x080056b8   Section        0  gd32f30x_gpio.o(.text.gpio_bit_reset)
    [Anonymous Symbol]                       0x080056bc   Section        0  gd32f30x_gpio.o(.text.gpio_bit_set)
    [Anonymous Symbol]                       0x080056c0   Section        0  gd32f30x_gpio.o(.text.gpio_bit_write)
    [Anonymous Symbol]                       0x080056cc   Section        0  gd32f30x_gpio.o(.text.gpio_init)
    [Anonymous Symbol]                       0x08005784   Section        0  gd32f30x_gpio.o(.text.gpio_input_bit_get)
    [Anonymous Symbol]                       0x08005790   Section        0  gd32f30x_gpio.o(.text.gpio_output_bit_get)
    [Anonymous Symbol]                       0x0800579c   Section        0  main.o(.text.main)
    mount_volume                             0x080057fd   Thumb Code   726  ff.o(.text.mount_volume)
    [Anonymous Symbol]                       0x080057fc   Section        0  ff.o(.text.mount_volume)
    move_window                              0x08005ad5   Thumb Code   138  ff.o(.text.move_window)
    [Anonymous Symbol]                       0x08005ad4   Section        0  ff.o(.text.move_window)
    [Anonymous Symbol]                       0x08005b60   Section        0  gd32f30x_misc.o(.text.nvic_irq_enable)
    [Anonymous Symbol]                       0x08005c04   Section        0  gd32f30x_pmu.o(.text.pmu_backup_write_enable)
    put_fat                                  0x08005c19   Thumb Code   320  ff.o(.text.put_fat)
    [Anonymous Symbol]                       0x08005c18   Section        0  ff.o(.text.put_fat)
    [Anonymous Symbol]                       0x08005d58   Section        0  gd32f30x_rcu.o(.text.rcu_adc_clock_config)
    [Anonymous Symbol]                       0x08005dcc   Section        0  gd32f30x_rcu.o(.text.rcu_bkp_reset_disable)
    [Anonymous Symbol]                       0x08005de0   Section        0  gd32f30x_rcu.o(.text.rcu_bkp_reset_enable)
    [Anonymous Symbol]                       0x08005df4   Section        0  gd32f30x_rcu.o(.text.rcu_clock_freq_get)
    [Anonymous Symbol]                       0x08005ec4   Section        0  gd32f30x_rcu.o(.text.rcu_osci_on)
    [Anonymous Symbol]                       0x08005ee4   Section        0  gd32f30x_rcu.o(.text.rcu_osci_stab_wait)
    [Anonymous Symbol]                       0x08006020   Section        0  gd32f30x_rcu.o(.text.rcu_periph_clock_enable)
    [Anonymous Symbol]                       0x08006040   Section        0  gd32f30x_rcu.o(.text.rcu_periph_reset_disable)
    [Anonymous Symbol]                       0x08006060   Section        0  gd32f30x_rcu.o(.text.rcu_periph_reset_enable)
    [Anonymous Symbol]                       0x08006080   Section        0  gd32f30x_rcu.o(.text.rcu_rtc_clock_config)
    [Anonymous Symbol]                       0x08006094   Section        0  gd32f30x_rtc.o(.text.rtc_counter_get)
    [Anonymous Symbol]                       0x080060a8   Section        0  gd32f30x_rtc.o(.text.rtc_counter_set)
    [Anonymous Symbol]                       0x080060cc   Section        0  gd32f30x_rtc.o(.text.rtc_lwoff_wait)
    [Anonymous Symbol]                       0x080060dc   Section        0  gd32f30x_rtc.o(.text.rtc_prescaler_set)
    [Anonymous Symbol]                       0x08006100   Section        0  gd32f30x_rtc.o(.text.rtc_register_sync_wait)
    sync_fs                                  0x08006119   Thumb Code   188  ff.o(.text.sync_fs)
    [Anonymous Symbol]                       0x08006118   Section        0  ff.o(.text.sync_fs)
    [Anonymous Symbol]                       0x080061d4   Section        0  gd32f30x_timer.o(.text.timer_counter_value_config)
    [Anonymous Symbol]                       0x080061d8   Section        0  gd32f30x_timer.o(.text.timer_deinit)
    [Anonymous Symbol]                       0x0800629c   Section        0  gd32f30x_timer.o(.text.timer_enable)
    [Anonymous Symbol]                       0x080062a8   Section        0  gd32f30x_timer.o(.text.timer_init)
    [Anonymous Symbol]                       0x0800635c   Section        0  gd32f30x_timer.o(.text.timer_interrupt_enable)
    [Anonymous Symbol]                       0x08006364   Section        0  gd32f30x_timer.o(.text.timer_interrupt_flag_clear)
    [Anonymous Symbol]                       0x0800636c   Section        0  gd32f30x_timer.o(.text.timer_interrupt_flag_get)
    [Anonymous Symbol]                       0x08006384   Section        0  gd32f30x_timer.o(.text.timer_struct_para_init)
    [Anonymous Symbol]                       0x08006394   Section        0  gd32f30x_usart.o(.text.usart_baudrate_set)
    [Anonymous Symbol]                       0x08006400   Section        0  gd32f30x_usart.o(.text.usart_data_receive)
    [Anonymous Symbol]                       0x08006408   Section        0  gd32f30x_usart.o(.text.usart_data_transmit)
    [Anonymous Symbol]                       0x08006410   Section        0  gd32f30x_usart.o(.text.usart_deinit)
    [Anonymous Symbol]                       0x0800648c   Section        0  gd32f30x_usart.o(.text.usart_enable)
    [Anonymous Symbol]                       0x08006498   Section        0  gd32f30x_usart.o(.text.usart_flag_get)
    [Anonymous Symbol]                       0x080064a8   Section        0  gd32f30x_usart.o(.text.usart_interrupt_enable)
    [Anonymous Symbol]                       0x080064c0   Section        0  gd32f30x_usart.o(.text.usart_interrupt_flag_clear)
    [Anonymous Symbol]                       0x080064d4   Section        0  gd32f30x_usart.o(.text.usart_interrupt_flag_get)
    [Anonymous Symbol]                       0x080064f8   Section        0  gd32f30x_usart.o(.text.usart_parity_config)
    [Anonymous Symbol]                       0x08006508   Section        0  gd32f30x_usart.o(.text.usart_receive_config)
    [Anonymous Symbol]                       0x0800651c   Section        0  gd32f30x_usart.o(.text.usart_stop_bit_set)
    [Anonymous Symbol]                       0x0800652c   Section        0  gd32f30x_usart.o(.text.usart_transmit_config)
    [Anonymous Symbol]                       0x08006540   Section        0  gd32f30x_usart.o(.text.usart_word_length_set)
    i.__0printf                              0x08006550   Section        0  printfa.o(i.__0printf)
    i.__scatterload_copy                     0x08006570   Section       14  handlers.o(i.__scatterload_copy)
    i.__scatterload_null                     0x0800657e   Section        2  handlers.o(i.__scatterload_null)
    i.__scatterload_zeroinit                 0x08006580   Section       14  handlers.o(i.__scatterload_zeroinit)
    _fp_digits                               0x08006591   Thumb Code   366  printfa.o(i._fp_digits)
    i._fp_digits                             0x08006590   Section        0  printfa.o(i._fp_digits)
    _printf_core                             0x08006715   Thumb Code  1744  printfa.o(i._printf_core)
    i._printf_core                           0x08006714   Section        0  printfa.o(i._printf_core)
    _printf_post_padding                     0x08006df1   Thumb Code    36  printfa.o(i._printf_post_padding)
    i._printf_post_padding                   0x08006df0   Section        0  printfa.o(i._printf_post_padding)
    _printf_pre_padding                      0x08006e15   Thumb Code    46  printfa.o(i._printf_pre_padding)
    i._printf_pre_padding                    0x08006e14   Section        0  printfa.o(i._printf_pre_padding)
    monlen                                   0x08006e42   Data          12  localtime_i.o(.constdata)
    .constdata                               0x08006e42   Section       12  localtime_i.o(.constdata)
    ExCvt                                    0x08006e4e   Data         128  ff.o(.rodata.ExCvt)
    [Anonymous Symbol]                       0x08006e4e   Section        0  ff.o(.rodata.ExCvt)
    LfnOfs                                   0x08006ece   Data          13  ff.o(.rodata.LfnOfs)
    [Anonymous Symbol]                       0x08006ece   Section        0  ff.o(.rodata.LfnOfs)
    .L__const.rcu_clock_freq_get.apb2_exp    0x08006edb   Data           8  gd32f30x_rcu.o(.rodata.cst8)
    g_GpioList                               0x08006ee4   Data          48  key_drv.o(.rodata.g_GpioList)
    [Anonymous Symbol]                       0x08006ee4   Section        0  key_drv.o(.rodata.g_GpioList)
    g_ledList                                0x08006f14   Data          36  led_drv.o(.rodata.g_ledList)
    [Anonymous Symbol]                       0x08006f14   Section        0  led_drv.o(.rodata.g_ledList)
    g_ntcAdcTable                            0x08006f38   Data         200  ntc_drv.o(.rodata.g_ntcAdcTable)
    [Anonymous Symbol]                       0x08006f38   Section        0  ntc_drv.o(.rodata.g_ntcAdcTable)
    g_rhAdcTable                             0x08007000   Data         468  rh_drv.o(.rodata.g_rhAdcTable)
    [Anonymous Symbol]                       0x08007000   Section        0  rh_drv.o(.rodata.g_rhAdcTable)
    .L.str.4                                 0x080071d4   Data          80  fatfs_app.o(.rodata.str1.1)
    [Anonymous Symbol]                       0x080071d4   Section        0  fatfs_app.o(.rodata.str1.1)
    .L.str.3                                 0x08007224   Data          29  fatfs_app.o(.rodata.str1.1)
    .L.str.6                                 0x08007241   Data          27  fatfs_app.o(.rodata.str1.1)
    .L.str                                   0x0800725c   Data           3  fatfs_app.o(.rodata.str1.1)
    .L.str.2                                 0x0800725f   Data          17  fatfs_app.o(.rodata.str1.1)
    .L.str.8                                 0x08007270   Data           3  ff.o(.rodata.str1.1)
    [Anonymous Symbol]                       0x08007270   Section        0  ff.o(.rodata.str1.1)
    f_mkfs.cst                               0x08007274   Data          14  ff.o(.rodata.str2.2)
    [Anonymous Symbol]                       0x08007274   Section        0  ff.o(.rodata.str2.2)
    f_mkfs.cst32                             0x08007282   Data          14  ff.o(.rodata.str2.2)
    ff_wtoupper.cvt2                         0x08007290   Data         188  ffunicode.o(.rodata.str2.2)
    [Anonymous Symbol]                       0x08007290   Section        0  ffunicode.o(.rodata.str2.2)
    ff_wtoupper.cvt1                         0x0800734c   Data         498  ffunicode.o(.rodata.str2.2)
    uc437                                    0x0800753e   Data         256  ffunicode.o(.rodata.uc437)
    [Anonymous Symbol]                       0x0800753e   Section        0  ffunicode.o(.rodata.uc437)
    .data                                    0x20000000   Section        4  stdout.o(.data)
    g_taskComps                              0x20000020   Data          36  main.o(.data.g_taskComps)
    [Anonymous Symbol]                       0x20000020   Section        0  main.o(.data.g_taskComps)
    _tms                                     0x20000048   Data          44  localtime_w.o(.bss)
    .bss                                     0x20000048   Section       44  localtime_w.o(.bss)
    FatFs                                    0x20000074   Data          16  ff.o(.bss.FatFs)
    [Anonymous Symbol]                       0x20000074   Section        0  ff.o(.bss.FatFs)
    Fsid                                     0x20000084   Data           2  ff.o(.bss.Fsid)
    [Anonymous Symbol]                       0x20000084   Section        0  ff.o(.bss.Fsid)
    LfnBuf                                   0x20000086   Data         512  ff.o(.bss.LfnBuf)
    [Anonymous Symbol]                       0x20000086   Section        0  ff.o(.bss.LfnBuf)
    PushTemp10MulToBuf.s_index               0x20000286   Data           1  ntc_drv.o(.bss.PushTemp10MulToBuf.s_index)
    [Anonymous Symbol]                       0x20000286   Section        0  ntc_drv.o(.bss.PushTemp10MulToBuf.s_index)
    TIMER4_IRQHandler.s_timingNum            0x20000288   Data           2  rh_drv.o(.bss.TIMER4_IRQHandler.s_timingNum)
    [Anonymous Symbol]                       0x20000288   Section        0  rh_drv.o(.bss.TIMER4_IRQHandler.s_timingNum)
    TempSensorProc.s_convertNum              0x2000028a   Data           1  ntc_drv.o(.bss.TempSensorProc.s_convertNum)
    [Anonymous Symbol]                       0x2000028a   Section        0  ntc_drv.o(.bss.TempSensorProc.s_convertNum)
    g_adcVal                                 0x2000028c   Data           2  rh_drv.o(.bss.g_adcVal)
    [Anonymous Symbol]                       0x2000028c   Section        0  rh_drv.o(.bss.g_adcVal)
    g_fatfs                                  0x20000290   Data        4152  fatfs_app.o(.bss.g_fatfs)
    [Anonymous Symbol]                       0x20000290   Section        0  fatfs_app.o(.bss.g_fatfs)
    g_fatfsInitFlag                          0x200012c8   Data           1  fatfs_app.o(.bss.g_fatfsInitFlag)
    [Anonymous Symbol]                       0x200012c8   Section        0  fatfs_app.o(.bss.g_fatfsInitFlag)
    g_humiData                               0x200012c9   Data           1  rh_drv.o(.bss.g_humiData)
    [Anonymous Symbol]                       0x200012c9   Section        0  rh_drv.o(.bss.g_humiData)
    g_keyInfoList                            0x200012d0   Data          64  key_drv.o(.bss.g_keyInfoList)
    [Anonymous Symbol]                       0x200012d0   Section        0  key_drv.o(.bss.g_keyInfoList)
    g_pProcUartData                          0x20001310   Data           4  usb2com_drv.o(.bss.g_pProcUartData)
    [Anonymous Symbol]                       0x20001310   Section        0  usb2com_drv.o(.bss.g_pProcUartData)
    g_pTaskScheduleFunc                      0x20001314   Data           4  systick.o(.bss.g_pTaskScheduleFunc)
    [Anonymous Symbol]                       0x20001314   Section        0  systick.o(.bss.g_pTaskScheduleFunc)
    g_sensorFile                             0x20001318   Data        4140  fatfs_app.o(.bss.g_sensorFile)
    [Anonymous Symbol]                       0x20001318   Section        0  fatfs_app.o(.bss.g_sensorFile)
    g_systemRunTime                          0x20002348   Data           8  systick.o(.bss.g_systemRunTime)
    [Anonymous Symbol]                       0x20002348   Section        0  systick.o(.bss.g_systemRunTime)
    g_temp                                   0x20002350   Data           4  ntc_drv.o(.bss.g_temp)
    [Anonymous Symbol]                       0x20002350   Section        0  ntc_drv.o(.bss.g_temp)
    g_temp10MulBuf                           0x20002354   Data          40  ntc_drv.o(.bss.g_temp10MulBuf)
    [Anonymous Symbol]                       0x20002354   Section        0  ntc_drv.o(.bss.g_temp10MulBuf)
    STACK                                    0x20002388   Section    16384  startup_gd32f30x_hd.o(STACK)

    Global Symbols

    Symbol Name                              Value     Ov Type        Size  Object(Section)

    BuildAttributes$$THM_ISAv4$E$P$D$K$B$S$7EM$VFPi3$EXTD16$VFPS$VFMA$PE$A:L22UL41UL21$X:L11$S22US41US21$IEEE1$IW$~IW$USESV6$~STKCKD$USESV7$~SHL$OTIME$ROPI$EBA8$MICROLIB$REQ8$PRES8$EABIv2 0x00000000   Number         0  anon$$obj.o ABSOLUTE
    _printf_a                                0x00000000   Number         0  printfstubs.o ABSOLUTE
    _printf_c                                0x00000000   Number         0  printfstubs.o ABSOLUTE
    _printf_charcount                        0x00000000   Number         0  printfstubs.o ABSOLUTE
    _printf_d                                0x00000000   Number         0  printfstubs.o ABSOLUTE
    _printf_e                                0x00000000   Number         0  printfstubs.o ABSOLUTE
    _printf_f                                0x00000000   Number         0  printfstubs.o ABSOLUTE
    _printf_flags                            0x00000000   Number         0  printfstubs.o ABSOLUTE
    _printf_fp_dec                           0x00000000   Number         0  printfstubs.o ABSOLUTE
    _printf_fp_hex                           0x00000000   Number         0  printfstubs.o ABSOLUTE
    _printf_g                                0x00000000   Number         0  printfstubs.o ABSOLUTE
    _printf_i                                0x00000000   Number         0  printfstubs.o ABSOLUTE
    _printf_int_dec                          0x00000000   Number         0  printfstubs.o ABSOLUTE
    _printf_l                                0x00000000   Number         0  printfstubs.o ABSOLUTE
    _printf_lc                               0x00000000   Number         0  printfstubs.o ABSOLUTE
    _printf_ll                               0x00000000   Number         0  printfstubs.o ABSOLUTE
    _printf_lld                              0x00000000   Number         0  printfstubs.o ABSOLUTE
    _printf_lli                              0x00000000   Number         0  printfstubs.o ABSOLUTE
    _printf_llo                              0x00000000   Number         0  printfstubs.o ABSOLUTE
    _printf_llu                              0x00000000   Number         0  printfstubs.o ABSOLUTE
    _printf_llx                              0x00000000   Number         0  printfstubs.o ABSOLUTE
    _printf_longlong_dec                     0x00000000   Number         0  printfstubs.o ABSOLUTE
    _printf_longlong_hex                     0x00000000   Number         0  printfstubs.o ABSOLUTE
    _printf_longlong_oct                     0x00000000   Number         0  printfstubs.o ABSOLUTE
    _printf_ls                               0x00000000   Number         0  printfstubs.o ABSOLUTE
    _printf_mbtowc                           0x00000000   Number         0  printfstubs.o ABSOLUTE
    _printf_n                                0x00000000   Number         0  printfstubs.o ABSOLUTE
    _printf_o                                0x00000000   Number         0  printfstubs.o ABSOLUTE
    _printf_p                                0x00000000   Number         0  printfstubs.o ABSOLUTE
    _printf_percent                          0x00000000   Number         0  printfstubs.o ABSOLUTE
    _printf_pre_padding                      0x00000000   Number         0  printfstubs.o ABSOLUTE
    _printf_return_value                     0x00000000   Number         0  printfstubs.o ABSOLUTE
    _printf_s                                0x00000000   Number         0  printfstubs.o ABSOLUTE
    _printf_sizespec                         0x00000000   Number         0  printfstubs.o ABSOLUTE
    _printf_str                              0x00000000   Number         0  printfstubs.o ABSOLUTE
    _printf_truncate_signed                  0x00000000   Number         0  printfstubs.o ABSOLUTE
    _printf_truncate_unsigned                0x00000000   Number         0  printfstubs.o ABSOLUTE
    _printf_u                                0x00000000   Number         0  printfstubs.o ABSOLUTE
    _printf_wc                               0x00000000   Number         0  printfstubs.o ABSOLUTE
    _printf_wctomb                           0x00000000   Number         0  printfstubs.o ABSOLUTE
    _printf_widthprec                        0x00000000   Number         0  printfstubs.o ABSOLUTE
    _printf_x                                0x00000000   Number         0  printfstubs.o ABSOLUTE
    __cpp_initialize__aeabi_                  - Undefined Weak Reference
    __cxa_finalize                            - Undefined Weak Reference
    __decompress                              - Undefined Weak Reference
    _clock_init                               - Undefined Weak Reference
    _microlib_exit                            - Undefined Weak Reference
    __Vectors_Size                           0x00000130   Number         0  startup_gd32f30x_hd.o ABSOLUTE
    __Vectors                                0x08000000   Data           4  startup_gd32f30x_hd.o(RESET)
    __Vectors_End                            0x08000130   Data           0  startup_gd32f30x_hd.o(RESET)
    __main                                   0x08000131   Thumb Code     0  entry.o(.ARM.Collect$$$$00000000)
    _main_stk                                0x08000131   Thumb Code     0  entry2.o(.ARM.Collect$$$$00000001)
    _main_scatterload                        0x08000135   Thumb Code     0  entry5.o(.ARM.Collect$$$$00000004)
    __main_after_scatterload                 0x08000139   Thumb Code     0  entry5.o(.ARM.Collect$$$$00000004)
    _main_clock                              0x08000139   Thumb Code     0  entry7b.o(.ARM.Collect$$$$00000008)
    _main_cpp_init                           0x08000139   Thumb Code     0  entry8b.o(.ARM.Collect$$$$0000000A)
    _main_init                               0x08000139   Thumb Code     0  entry9a.o(.ARM.Collect$$$$0000000B)
    __rt_final_cpp                           0x08000141   Thumb Code     0  entry10a.o(.ARM.Collect$$$$0000000D)
    __rt_final_exit                          0x08000141   Thumb Code     0  entry11a.o(.ARM.Collect$$$$0000000F)
    Reset_Handler                            0x08000145   Thumb Code     8  startup_gd32f30x_hd.o(.text)
    NMI_Handler                              0x0800014d   Thumb Code     2  startup_gd32f30x_hd.o(.text)
    HardFault_Handler                        0x0800014f   Thumb Code     2  startup_gd32f30x_hd.o(.text)
    MemManage_Handler                        0x08000151   Thumb Code     2  startup_gd32f30x_hd.o(.text)
    BusFault_Handler                         0x08000153   Thumb Code     2  startup_gd32f30x_hd.o(.text)
    UsageFault_Handler                       0x08000155   Thumb Code     2  startup_gd32f30x_hd.o(.text)
    SVC_Handler                              0x08000157   Thumb Code     2  startup_gd32f30x_hd.o(.text)
    DebugMon_Handler                         0x08000159   Thumb Code     2  startup_gd32f30x_hd.o(.text)
    PendSV_Handler                           0x0800015b   Thumb Code     2  startup_gd32f30x_hd.o(.text)
    ADC0_1_IRQHandler                        0x0800015f   Thumb Code     0  startup_gd32f30x_hd.o(.text)
    ADC2_IRQHandler                          0x0800015f   Thumb Code     0  startup_gd32f30x_hd.o(.text)
    CAN0_EWMC_IRQHandler                     0x0800015f   Thumb Code     0  startup_gd32f30x_hd.o(.text)
    CAN0_RX1_IRQHandler                      0x0800015f   Thumb Code     0  startup_gd32f30x_hd.o(.text)
    DMA0_Channel0_IRQHandler                 0x0800015f   Thumb Code     0  startup_gd32f30x_hd.o(.text)
    DMA0_Channel1_IRQHandler                 0x0800015f   Thumb Code     0  startup_gd32f30x_hd.o(.text)
    DMA0_Channel2_IRQHandler                 0x0800015f   Thumb Code     0  startup_gd32f30x_hd.o(.text)
    DMA0_Channel3_IRQHandler                 0x0800015f   Thumb Code     0  startup_gd32f30x_hd.o(.text)
    DMA0_Channel4_IRQHandler                 0x0800015f   Thumb Code     0  startup_gd32f30x_hd.o(.text)
    DMA0_Channel5_IRQHandler                 0x0800015f   Thumb Code     0  startup_gd32f30x_hd.o(.text)
    DMA0_Channel6_IRQHandler                 0x0800015f   Thumb Code     0  startup_gd32f30x_hd.o(.text)
    DMA1_Channel0_IRQHandler                 0x0800015f   Thumb Code     0  startup_gd32f30x_hd.o(.text)
    DMA1_Channel1_IRQHandler                 0x0800015f   Thumb Code     0  startup_gd32f30x_hd.o(.text)
    DMA1_Channel2_IRQHandler                 0x0800015f   Thumb Code     0  startup_gd32f30x_hd.o(.text)
    DMA1_Channel3_4_IRQHandler               0x0800015f   Thumb Code     0  startup_gd32f30x_hd.o(.text)
    EXMC_IRQHandler                          0x0800015f   Thumb Code     0  startup_gd32f30x_hd.o(.text)
    EXTI0_IRQHandler                         0x0800015f   Thumb Code     0  startup_gd32f30x_hd.o(.text)
    EXTI10_15_IRQHandler                     0x0800015f   Thumb Code     0  startup_gd32f30x_hd.o(.text)
    EXTI1_IRQHandler                         0x0800015f   Thumb Code     0  startup_gd32f30x_hd.o(.text)
    EXTI2_IRQHandler                         0x0800015f   Thumb Code     0  startup_gd32f30x_hd.o(.text)
    EXTI3_IRQHandler                         0x0800015f   Thumb Code     0  startup_gd32f30x_hd.o(.text)
    EXTI4_IRQHandler                         0x0800015f   Thumb Code     0  startup_gd32f30x_hd.o(.text)
    EXTI5_9_IRQHandler                       0x0800015f   Thumb Code     0  startup_gd32f30x_hd.o(.text)
    FMC_IRQHandler                           0x0800015f   Thumb Code     0  startup_gd32f30x_hd.o(.text)
    I2C0_ER_IRQHandler                       0x0800015f   Thumb Code     0  startup_gd32f30x_hd.o(.text)
    I2C0_EV_IRQHandler                       0x0800015f   Thumb Code     0  startup_gd32f30x_hd.o(.text)
    I2C1_ER_IRQHandler                       0x0800015f   Thumb Code     0  startup_gd32f30x_hd.o(.text)
    I2C1_EV_IRQHandler                       0x0800015f   Thumb Code     0  startup_gd32f30x_hd.o(.text)
    LVD_IRQHandler                           0x0800015f   Thumb Code     0  startup_gd32f30x_hd.o(.text)
    RCU_CTC_IRQHandler                       0x0800015f   Thumb Code     0  startup_gd32f30x_hd.o(.text)
    RTC_Alarm_IRQHandler                     0x0800015f   Thumb Code     0  startup_gd32f30x_hd.o(.text)
    RTC_IRQHandler                           0x0800015f   Thumb Code     0  startup_gd32f30x_hd.o(.text)
    SDIO_IRQHandler                          0x0800015f   Thumb Code     0  startup_gd32f30x_hd.o(.text)
    SPI0_IRQHandler                          0x0800015f   Thumb Code     0  startup_gd32f30x_hd.o(.text)
    SPI1_IRQHandler                          0x0800015f   Thumb Code     0  startup_gd32f30x_hd.o(.text)
    SPI2_IRQHandler                          0x0800015f   Thumb Code     0  startup_gd32f30x_hd.o(.text)
    TAMPER_IRQHandler                        0x0800015f   Thumb Code     0  startup_gd32f30x_hd.o(.text)
    TIMER0_BRK_IRQHandler                    0x0800015f   Thumb Code     0  startup_gd32f30x_hd.o(.text)
    TIMER0_Channel_IRQHandler                0x0800015f   Thumb Code     0  startup_gd32f30x_hd.o(.text)
    TIMER0_TRG_CMT_IRQHandler                0x0800015f   Thumb Code     0  startup_gd32f30x_hd.o(.text)
    TIMER0_UP_IRQHandler                     0x0800015f   Thumb Code     0  startup_gd32f30x_hd.o(.text)
    TIMER1_IRQHandler                        0x0800015f   Thumb Code     0  startup_gd32f30x_hd.o(.text)
    TIMER2_IRQHandler                        0x0800015f   Thumb Code     0  startup_gd32f30x_hd.o(.text)
    TIMER5_IRQHandler                        0x0800015f   Thumb Code     0  startup_gd32f30x_hd.o(.text)
    TIMER6_IRQHandler                        0x0800015f   Thumb Code     0  startup_gd32f30x_hd.o(.text)
    TIMER7_BRK_IRQHandler                    0x0800015f   Thumb Code     0  startup_gd32f30x_hd.o(.text)
    TIMER7_Channel_IRQHandler                0x0800015f   Thumb Code     0  startup_gd32f30x_hd.o(.text)
    TIMER7_TRG_CMT_IRQHandler                0x0800015f   Thumb Code     0  startup_gd32f30x_hd.o(.text)
    TIMER7_UP_IRQHandler                     0x0800015f   Thumb Code     0  startup_gd32f30x_hd.o(.text)
    UART3_IRQHandler                         0x0800015f   Thumb Code     0  startup_gd32f30x_hd.o(.text)
    UART4_IRQHandler                         0x0800015f   Thumb Code     0  startup_gd32f30x_hd.o(.text)
    USART2_IRQHandler                        0x0800015f   Thumb Code     0  startup_gd32f30x_hd.o(.text)
    USBD_HP_CAN0_TX_IRQHandler               0x0800015f   Thumb Code     0  startup_gd32f30x_hd.o(.text)
    USBD_LP_CAN0_RX0_IRQHandler              0x0800015f   Thumb Code     0  startup_gd32f30x_hd.o(.text)
    USBD_WKUP_IRQHandler                     0x0800015f   Thumb Code     0  startup_gd32f30x_hd.o(.text)
    WWDGT_IRQHandler                         0x0800015f   Thumb Code     0  startup_gd32f30x_hd.o(.text)
    __aeabi_uldivmod                         0x08000169   Thumb Code    98  uldiv.o(.text)
    qsort                                    0x080001cb   Thumb Code   156  qsort.o(.text)
    __aeabi_memcpy                           0x08000267   Thumb Code    36  memcpya.o(.text)
    __aeabi_memcpy4                          0x08000267   Thumb Code     0  memcpya.o(.text)
    __aeabi_memcpy8                          0x08000267   Thumb Code     0  memcpya.o(.text)
    __aeabi_memset                           0x0800028b   Thumb Code    14  memseta.o(.text)
    __aeabi_memset4                          0x0800028b   Thumb Code     0  memseta.o(.text)
    __aeabi_memset8                          0x0800028b   Thumb Code     0  memseta.o(.text)
    __aeabi_memclr                           0x08000299   Thumb Code     4  memseta.o(.text)
    __aeabi_memclr4                          0x08000299   Thumb Code     0  memseta.o(.text)
    __aeabi_memclr8                          0x08000299   Thumb Code     0  memseta.o(.text)
    _memset$wrapper                          0x0800029d   Thumb Code    18  memseta.o(.text)
    strlen                                   0x080002af   Thumb Code    14  strlen.o(.text)
    memchr                                   0x080002bd   Thumb Code    20  memchr.o(.text)
    memcmp                                   0x080002d1   Thumb Code    26  memcmp.o(.text)
    __aeabi_dadd                             0x080002eb   Thumb Code   322  dadd.o(.text)
    __aeabi_dsub                             0x0800042d   Thumb Code     6  dadd.o(.text)
    __aeabi_drsub                            0x08000433   Thumb Code     6  dadd.o(.text)
    __aeabi_dmul                             0x08000439   Thumb Code   228  dmul.o(.text)
    __aeabi_ddiv                             0x0800051d   Thumb Code   222  ddiv.o(.text)
    __aeabi_dcmplt                           0x080005fb   Thumb Code    54  dcmplt.o(.text)
    __aeabi_dcmpge                           0x08000631   Thumb Code    54  dcmpge.o(.text)
    __aeabi_dcmpeq                           0x08000667   Thumb Code    56  dcmpeq.o(.text)
    __aeabi_i2d                              0x0800069f   Thumb Code    34  dflti.o(.text)
    __aeabi_d2iz                             0x080006c1   Thumb Code    62  dfixi.o(.text)
    __aeabi_f2d                              0x080006ff   Thumb Code    38  f2d.o(.text)
    __aeabi_uidiv                            0x08000725   Thumb Code     0  uidiv.o(.text)
    __aeabi_uidivmod                         0x08000725   Thumb Code    44  uidiv.o(.text)
    __aeabi_llsl                             0x08000751   Thumb Code    30  llshl.o(.text)
    _ll_shift_l                              0x08000751   Thumb Code     0  llshl.o(.text)
    __aeabi_llsr                             0x0800076f   Thumb Code    32  llushr.o(.text)
    _ll_ushift_r                             0x0800076f   Thumb Code     0  llushr.o(.text)
    __aeabi_lasr                             0x0800078f   Thumb Code    36  llsshr.o(.text)
    _ll_sshift_r                             0x0800078f   Thumb Code     0  llsshr.o(.text)
    localtime                                0x080007b5   Thumb Code     6  localtime_w.o(.text)
    _localtime                               0x080007c1   Thumb Code   134  localtime_i.o(.text)
    __I$use$fp                               0x0800084d   Thumb Code     0  iusefp.o(.text)
    _double_round                            0x0800084d   Thumb Code    30  depilogue.o(.text)
    _double_epilogue                         0x0800086b   Thumb Code   156  depilogue.o(.text)
    __aeabi_d2ulz                            0x08000907   Thumb Code    48  dfixul.o(.text)
    __aeabi_cdrcmple                         0x08000939   Thumb Code    48  cdrcmple.o(.text)
    __scatterload                            0x08000969   Thumb Code    38  init.o(.text)
    __scatterload_rt2                        0x08000969   Thumb Code     0  init.o(.text)
    DelayNus                                 0x080009a1   Thumb Code    46  delay.o(.text.DelayNus)
    DwtDelayInit                             0x080009d1   Thumb Code    54  delay.o(.text.DwtDelayInit)
    EraseNorflashSectorForWrite              0x08000bdd   Thumb Code    62  norflash_drv.o(.text.EraseNorflashSectorForWrite)
    FatFsInit                                0x08000c1d   Thumb Code   132  fatfs_app.o(.text.FatFsInit)
    FatfsTask                                0x08000cbd   Thumb Code   208  fatfs_app.o(.text.FatfsTask)
    GetHumiData                              0x08000da1   Thumb Code    12  rh_drv.o(.text.GetHumiData)
    GetKeyValue                              0x08000dad   Thumb Code   228  key_drv.o(.text.GetKeyValue)
    GetRtcTime                               0x08000e91   Thumb Code    56  rtc_drv.o(.text.GetRtcTime)
    GetSensorData                            0x08000ec9   Thumb Code    30  sensor_drv.o(.text.GetSensorData)
    GetSystemRunTime                         0x08000ee9   Thumb Code    14  systick.o(.text.GetSystemRunTime)
    GetTempData                              0x08000ef9   Thumb Code    14  ntc_drv.o(.text.GetTempData)
    HmiTask                                  0x08000f09   Thumb Code   208  hmi_app.o(.text.HmiTask)
    HumiDrvInit                              0x08001025   Thumb Code   282  rh_drv.o(.text.HumiDrvInit)
    HumiSensorProc                           0x08001141   Thumb Code   256  rh_drv.o(.text.HumiSensorProc)
    KeyDrvInit                               0x08001241   Thumb Code    44  key_drv.o(.text.KeyDrvInit)
    LedDrvInit                               0x0800126d   Thumb Code    58  led_drv.o(.text.LedDrvInit)
    NorflashDrvInit                          0x080012a9   Thumb Code    92  norflash_drv.o(.text.NorflashDrvInit)
    PrintFileData                            0x08001305   Thumb Code   192  fatfs_app.o(.text.PrintFileData)
    ReadNorflashData                         0x08001591   Thumb Code   460  norflash_drv.o(.text.ReadNorflashData)
    ReadNorflashID                           0x0800175d   Thumb Code   384  norflash_drv.o(.text.ReadNorflashID)
    RtcDrvInit                               0x080018dd   Thumb Code   132  rtc_drv.o(.text.RtcDrvInit)
    SensorAppTask                            0x08001961   Thumb Code     4  sensor_app.o(.text.SensorAppTask)
    SensorDrvInit                            0x08001965   Thumb Code    14  sensor_drv.o(.text.SensorDrvInit)
    SensorDrvProc                            0x08001975   Thumb Code    26  sensor_drv.o(.text.SensorDrvProc)
    SysTick_Handler                          0x08001991   Thumb Code    40  systick.o(.text.SysTick_Handler)
    SystemInit                               0x080019b9   Thumb Code   424  system_gd32f30x.o(.text.SystemInit)
    SystickInit                              0x08001b61   Thumb Code    70  systick.o(.text.SystickInit)
    TIMER3_IRQHandler                        0x08001ba9   Thumb Code    56  porttimer.o(.text.TIMER3_IRQHandler)
    TIMER4_IRQHandler                        0x08001be1   Thumb Code   180  rh_drv.o(.text.TIMER4_IRQHandler)
    TaskScheduleCbReg                        0x08001ccd   Thumb Code    12  systick.o(.text.TaskScheduleCbReg)
    TempDrvInit                              0x08001cd9   Thumb Code   176  ntc_drv.o(.text.TempDrvInit)
    TempSensorProc                           0x08001d89   Thumb Code   312  ntc_drv.o(.text.TempSensorProc)
    TurnOffLed                               0x08001ec1   Thumb Code    30  led_drv.o(.text.TurnOffLed)
    TurnOnLed                                0x08001ee1   Thumb Code    30  led_drv.o(.text.TurnOnLed)
    USART0_IRQHandler                        0x08001f01   Thumb Code    64  usb2com_drv.o(.text.USART0_IRQHandler)
    USART1_IRQHandler                        0x08001f41   Thumb Code    90  portserial.o(.text.USART1_IRQHandler)
    Usb2ComDrvInit                           0x08001f9d   Thumb Code   132  usb2com_drv.o(.text.Usb2ComDrvInit)
    WriteNorflashData                        0x080020f9   Thumb Code   106  norflash_drv.o(.text.WriteNorflashData)
    adc_calibration_enable                   0x08002165   Thumb Code    32  gd32f30x_adc.o(.text.adc_calibration_enable)
    adc_channel_length_config                0x08002185   Thumb Code    58  gd32f30x_adc.o(.text.adc_channel_length_config)
    adc_data_alignment_config                0x080021c1   Thumb Code    18  gd32f30x_adc.o(.text.adc_data_alignment_config)
    adc_deinit                               0x080021d5   Thumb Code    72  gd32f30x_adc.o(.text.adc_deinit)
    adc_enable                               0x0800221d   Thumb Code    18  gd32f30x_adc.o(.text.adc_enable)
    adc_external_trigger_config              0x08002231   Thumb Code    62  gd32f30x_adc.o(.text.adc_external_trigger_config)
    adc_external_trigger_source_config       0x08002271   Thumb Code    34  gd32f30x_adc.o(.text.adc_external_trigger_source_config)
    adc_flag_clear                           0x08002295   Thumb Code     6  gd32f30x_adc.o(.text.adc_flag_clear)
    adc_flag_get                             0x0800229d   Thumb Code    10  gd32f30x_adc.o(.text.adc_flag_get)
    adc_mode_config                          0x080022a9   Thumb Code    24  gd32f30x_adc.o(.text.adc_mode_config)
    adc_oversample_mode_config               0x080022c1   Thumb Code    48  gd32f30x_adc.o(.text.adc_oversample_mode_config)
    adc_oversample_mode_enable               0x080022f1   Thumb Code    14  gd32f30x_adc.o(.text.adc_oversample_mode_enable)
    adc_regular_channel_config               0x08002301   Thumb Code   116  gd32f30x_adc.o(.text.adc_regular_channel_config)
    adc_regular_data_read                    0x08002375   Thumb Code     6  gd32f30x_adc.o(.text.adc_regular_data_read)
    adc_resolution_config                    0x0800237d   Thumb Code    24  gd32f30x_adc.o(.text.adc_resolution_config)
    adc_software_trigger_enable              0x08002395   Thumb Code    28  gd32f30x_adc.o(.text.adc_software_trigger_enable)
    adc_special_function_config              0x080023b1   Thumb Code    90  gd32f30x_adc.o(.text.adc_special_function_config)
    bkp_deinit                               0x0800240d   Thumb Code    14  gd32f30x_bkp.o(.text.bkp_deinit)
    bkp_read_data                            0x0800241d   Thumb Code    52  gd32f30x_bkp.o(.text.bkp_read_data)
    bkp_write_data                           0x08002451   Thumb Code    50  gd32f30x_bkp.o(.text.bkp_write_data)
    disk_initialize                          0x08002fe5   Thumb Code    58  diskio.o(.text.disk_initialize)
    disk_ioctl                               0x08003021   Thumb Code    42  diskio.o(.text.disk_ioctl)
    disk_read                                0x0800304d   Thumb Code    26  diskio.o(.text.disk_read)
    disk_status                              0x08003069   Thumb Code    54  diskio.o(.text.disk_status)
    disk_write                               0x080030a1   Thumb Code    38  diskio.o(.text.disk_write)
    f_close                                  0x080030c9   Thumb Code    62  ff.o(.text.f_close)
    f_gets                                   0x08003109   Thumb Code    98  ff.o(.text.f_gets)
    f_mkfs                                   0x0800316d   Thumb Code  1728  ff.o(.text.f_mkfs)
    f_mount                                  0x08003865   Thumb Code   164  ff.o(.text.f_mount)
    f_open                                   0x08003909   Thumb Code   674  ff.o(.text.f_open)
    f_printf                                 0x08003bb1   Thumb Code  3640  ff.o(.text.f_printf)
    f_read                                   0x08004a01   Thumb Code   520  ff.o(.text.f_read)
    f_sync                                   0x08004c09   Thumb Code   200  ff.o(.text.f_sync)
    f_unlink                                 0x08004cd1   Thumb Code   332  ff.o(.text.f_unlink)
    f_write                                  0x08004e1d   Thumb Code   578  ff.o(.text.f_write)
    ff_oem2uni                               0x08005061   Thumb Code    44  ffunicode.o(.text.ff_oem2uni)
    ff_uni2oem                               0x0800508d   Thumb Code    64  ffunicode.o(.text.ff_uni2oem)
    ff_wtoupper                              0x080050cd   Thumb Code   176  ffunicode.o(.text.ff_wtoupper)
    fputc                                    0x08005559   Thumb Code    36  usb2com_drv.o(.text.fputc)
    get_fattime                              0x0800567d   Thumb Code    58  diskio.o(.text.get_fattime)
    gpio_bit_reset                           0x080056b9   Thumb Code     4  gd32f30x_gpio.o(.text.gpio_bit_reset)
    gpio_bit_set                             0x080056bd   Thumb Code     4  gd32f30x_gpio.o(.text.gpio_bit_set)
    gpio_bit_write                           0x080056c1   Thumb Code    12  gd32f30x_gpio.o(.text.gpio_bit_write)
    gpio_init                                0x080056cd   Thumb Code   182  gd32f30x_gpio.o(.text.gpio_init)
    gpio_input_bit_get                       0x08005785   Thumb Code    10  gd32f30x_gpio.o(.text.gpio_input_bit_get)
    gpio_output_bit_get                      0x08005791   Thumb Code    10  gd32f30x_gpio.o(.text.gpio_output_bit_get)
    main                                     0x0800579d   Thumb Code    96  main.o(.text.main)
    nvic_irq_enable                          0x08005b61   Thumb Code   164  gd32f30x_misc.o(.text.nvic_irq_enable)
    pmu_backup_write_enable                  0x08005c05   Thumb Code    18  gd32f30x_pmu.o(.text.pmu_backup_write_enable)
    rcu_adc_clock_config                     0x08005d59   Thumb Code   114  gd32f30x_rcu.o(.text.rcu_adc_clock_config)
    rcu_bkp_reset_disable                    0x08005dcd   Thumb Code    18  gd32f30x_rcu.o(.text.rcu_bkp_reset_disable)
    rcu_bkp_reset_enable                     0x08005de1   Thumb Code    18  gd32f30x_rcu.o(.text.rcu_bkp_reset_enable)
    rcu_clock_freq_get                       0x08005df5   Thumb Code   192  gd32f30x_rcu.o(.text.rcu_clock_freq_get)
    rcu_osci_on                              0x08005ec5   Thumb Code    30  gd32f30x_rcu.o(.text.rcu_osci_on)
    rcu_osci_stab_wait                       0x08005ee5   Thumb Code   316  gd32f30x_rcu.o(.text.rcu_osci_stab_wait)
    rcu_periph_clock_enable                  0x08006021   Thumb Code    30  gd32f30x_rcu.o(.text.rcu_periph_clock_enable)
    rcu_periph_reset_disable                 0x08006041   Thumb Code    32  gd32f30x_rcu.o(.text.rcu_periph_reset_disable)
    rcu_periph_reset_enable                  0x08006061   Thumb Code    30  gd32f30x_rcu.o(.text.rcu_periph_reset_enable)
    rcu_rtc_clock_config                     0x08006081   Thumb Code    20  gd32f30x_rcu.o(.text.rcu_rtc_clock_config)
    rtc_counter_get                          0x08006095   Thumb Code    18  gd32f30x_rtc.o(.text.rtc_counter_get)
    rtc_counter_set                          0x080060a9   Thumb Code    34  gd32f30x_rtc.o(.text.rtc_counter_set)
    rtc_lwoff_wait                           0x080060cd   Thumb Code    16  gd32f30x_rtc.o(.text.rtc_lwoff_wait)
    rtc_prescaler_set                        0x080060dd   Thumb Code    36  gd32f30x_rtc.o(.text.rtc_prescaler_set)
    rtc_register_sync_wait                   0x08006101   Thumb Code    24  gd32f30x_rtc.o(.text.rtc_register_sync_wait)
    timer_counter_value_config               0x080061d5   Thumb Code     4  gd32f30x_timer.o(.text.timer_counter_value_config)
    timer_deinit                             0x080061d9   Thumb Code   194  gd32f30x_timer.o(.text.timer_deinit)
    timer_enable                             0x0800629d   Thumb Code    10  gd32f30x_timer.o(.text.timer_enable)
    timer_init                               0x080062a9   Thumb Code   180  gd32f30x_timer.o(.text.timer_init)
    timer_interrupt_enable                   0x0800635d   Thumb Code     8  gd32f30x_timer.o(.text.timer_interrupt_enable)
    timer_interrupt_flag_clear               0x08006365   Thumb Code     6  gd32f30x_timer.o(.text.timer_interrupt_flag_clear)
    timer_interrupt_flag_get                 0x0800636d   Thumb Code    22  gd32f30x_timer.o(.text.timer_interrupt_flag_get)
    timer_struct_para_init                   0x08006385   Thumb Code    16  gd32f30x_timer.o(.text.timer_struct_para_init)
    usart_baudrate_set                       0x08006395   Thumb Code   106  gd32f30x_usart.o(.text.usart_baudrate_set)
    usart_data_receive                       0x08006401   Thumb Code     8  gd32f30x_usart.o(.text.usart_data_receive)
    usart_data_transmit                      0x08006409   Thumb Code     8  gd32f30x_usart.o(.text.usart_data_transmit)
    usart_deinit                             0x08006411   Thumb Code   122  gd32f30x_usart.o(.text.usart_deinit)
    usart_enable                             0x0800648d   Thumb Code    10  gd32f30x_usart.o(.text.usart_enable)
    usart_flag_get                           0x08006499   Thumb Code    16  gd32f30x_usart.o(.text.usart_flag_get)
    usart_interrupt_enable                   0x080064a9   Thumb Code    22  gd32f30x_usart.o(.text.usart_interrupt_enable)
    usart_interrupt_flag_clear               0x080064c1   Thumb Code    18  gd32f30x_usart.o(.text.usart_interrupt_flag_clear)
    usart_interrupt_flag_get                 0x080064d5   Thumb Code    34  gd32f30x_usart.o(.text.usart_interrupt_flag_get)
    usart_parity_config                      0x080064f9   Thumb Code    16  gd32f30x_usart.o(.text.usart_parity_config)
    usart_receive_config                     0x08006509   Thumb Code    20  gd32f30x_usart.o(.text.usart_receive_config)
    usart_stop_bit_set                       0x0800651d   Thumb Code    16  gd32f30x_usart.o(.text.usart_stop_bit_set)
    usart_transmit_config                    0x0800652d   Thumb Code    20  gd32f30x_usart.o(.text.usart_transmit_config)
    usart_word_length_set                    0x08006541   Thumb Code    16  gd32f30x_usart.o(.text.usart_word_length_set)
    __0printf                                0x08006551   Thumb Code    22  printfa.o(i.__0printf)
    __1printf                                0x08006551   Thumb Code     0  printfa.o(i.__0printf)
    __2printf                                0x08006551   Thumb Code     0  printfa.o(i.__0printf)
    __c89printf                              0x08006551   Thumb Code     0  printfa.o(i.__0printf)
    printf                                   0x08006551   Thumb Code     0  printfa.o(i.__0printf)
    __scatterload_copy                       0x08006571   Thumb Code    14  handlers.o(i.__scatterload_copy)
    __scatterload_null                       0x0800657f   Thumb Code     2  handlers.o(i.__scatterload_null)
    __scatterload_zeroinit                   0x08006581   Thumb Code    14  handlers.o(i.__scatterload_zeroinit)
    Region$$Table$$Base                      0x08007640   Number         0  anon$$obj.o(Region$$Table)
    Region$$Table$$Limit                     0x08007660   Number         0  anon$$obj.o(Region$$Table)
    __stdout                                 0x20000000   Data           4  stdout.o(.data)
    g_Usb2ComInfo                            0x20000004   Data          28  usb2com_drv.o(.data.g_Usb2ComInfo)
    pxMBFrameCBByteReceived                  0x2000237c   Data           4  mb.o(.bss.pxMBFrameCBByteReceived)
    pxMBFrameCBTransmitterEmpty              0x20002380   Data           4  mb.o(.bss.pxMBFrameCBTransmitterEmpty)
    pxMBPortCBTimerExpired                   0x20002384   Data           4  mb.o(.bss.pxMBPortCBTimerExpired)
    __initial_sp                             0x20006388   Data           0  startup_gd32f30x_hd.o(STACK)



==============================================================================

Memory Map of the image

  Image Entry point : 0x08000131

  Load Region LR_IROM1 (Base: 0x08000000, Size: 0x000076a8, Max: 0x00080000, ABSOLUTE)

    Execution Region ER_IROM1 (Exec base: 0x08000000, Load base: 0x08000000, Size: 0x00007660, Max: 0x00080000, ABSOLUTE)

    Exec Addr    Load Addr    Size         Type   Attr      Idx    E Section Name        Object

    0x08000000   0x08000000   0x00000130   Data   RO         1398    RESET               startup_gd32f30x_hd.o
    0x08000130   0x08000130   0x00000000   Code   RO         1436  * .ARM.Collect$$$$00000000  mc_w.l(entry.o)
    0x08000130   0x08000130   0x00000004   Code   RO         1782    .ARM.Collect$$$$00000001  mc_w.l(entry2.o)
    0x08000134   0x08000134   0x00000004   Code   RO         1785    .ARM.Collect$$$$00000004  mc_w.l(entry5.o)
    0x08000138   0x08000138   0x00000000   Code   RO         1787    .ARM.Collect$$$$00000008  mc_w.l(entry7b.o)
    0x08000138   0x08000138   0x00000000   Code   RO         1789    .ARM.Collect$$$$0000000A  mc_w.l(entry8b.o)
    0x08000138   0x08000138   0x00000008   Code   RO         1790    .ARM.Collect$$$$0000000B  mc_w.l(entry9a.o)
    0x08000140   0x08000140   0x00000000   Code   RO         1792    .ARM.Collect$$$$0000000D  mc_w.l(entry10a.o)
    0x08000140   0x08000140   0x00000000   Code   RO         1794    .ARM.Collect$$$$0000000F  mc_w.l(entry11a.o)
    0x08000140   0x08000140   0x00000004   Code   RO         1783    .ARM.Collect$$$$00002712  mc_w.l(entry2.o)
    0x08000144   0x08000144   0x00000024   Code   RO         1399    .text               startup_gd32f30x_hd.o
    0x08000168   0x08000168   0x00000062   Code   RO         1452    .text               mc_w.l(uldiv.o)
    0x080001ca   0x080001ca   0x0000009c   Code   RO         1454    .text               mc_w.l(qsort.o)
    0x08000266   0x08000266   0x00000024   Code   RO         1463    .text               mc_w.l(memcpya.o)
    0x0800028a   0x0800028a   0x00000024   Code   RO         1465    .text               mc_w.l(memseta.o)
    0x080002ae   0x080002ae   0x0000000e   Code   RO         1467    .text               mc_w.l(strlen.o)
    0x080002bc   0x080002bc   0x00000014   Code   RO         1469    .text               mc_w.l(memchr.o)
    0x080002d0   0x080002d0   0x0000001a   Code   RO         1471    .text               mc_w.l(memcmp.o)
    0x080002ea   0x080002ea   0x0000014e   Code   RO         1764    .text               mf_w.l(dadd.o)
    0x08000438   0x08000438   0x000000e4   Code   RO         1766    .text               mf_w.l(dmul.o)
    0x0800051c   0x0800051c   0x000000de   Code   RO         1768    .text               mf_w.l(ddiv.o)
    0x080005fa   0x080005fa   0x00000036   Code   RO         1770    .text               mf_w.l(dcmplt.o)
    0x08000630   0x08000630   0x00000036   Code   RO         1772    .text               mf_w.l(dcmpge.o)
    0x08000666   0x08000666   0x00000038   Code   RO         1774    .text               mf_w.l(dcmpeq.o)
    0x0800069e   0x0800069e   0x00000022   Code   RO         1776    .text               mf_w.l(dflti.o)
    0x080006c0   0x080006c0   0x0000003e   Code   RO         1778    .text               mf_w.l(dfixi.o)
    0x080006fe   0x080006fe   0x00000026   Code   RO         1780    .text               mf_w.l(f2d.o)
    0x08000724   0x08000724   0x0000002c   Code   RO         1806    .text               mc_w.l(uidiv.o)
    0x08000750   0x08000750   0x0000001e   Code   RO         1808    .text               mc_w.l(llshl.o)
    0x0800076e   0x0800076e   0x00000020   Code   RO         1810    .text               mc_w.l(llushr.o)
    0x0800078e   0x0800078e   0x00000024   Code   RO         1812    .text               mc_w.l(llsshr.o)
    0x080007b2   0x080007b2   0x00000002   PAD
    0x080007b4   0x080007b4   0x0000000c   Code   RO         1814    .text               mc_w.l(localtime_w.o)
    0x080007c0   0x080007c0   0x0000008c   Code   RO         1817    .text               mc_w.l(localtime_i.o)
    0x0800084c   0x0800084c   0x00000000   Code   RO         1822    .text               mc_w.l(iusefp.o)
    0x0800084c   0x0800084c   0x000000ba   Code   RO         1823    .text               mf_w.l(depilogue.o)
    0x08000906   0x08000906   0x00000030   Code   RO         1825    .text               mf_w.l(dfixul.o)
    0x08000936   0x08000936   0x00000002   PAD
    0x08000938   0x08000938   0x00000030   Code   RO         1827    .text               mf_w.l(cdrcmple.o)
    0x08000968   0x08000968   0x00000030   Code   RO         1829    .text               mc_w.l(init.o)
    0x08000998   0x08000998   0x00000008   Code   RO          403    .text.Compare       ntc_drv.o
    0x080009a0   0x080009a0   0x0000002e   Code   RO          348    .text.DelayNus      delay.o
    0x080009ce   0x080009ce   0x00000002   PAD
    0x080009d0   0x080009d0   0x00000036   Code   RO          346    .text.DwtDelayInit  delay.o
    0x08000a06   0x08000a06   0x00000002   PAD
    0x08000a08   0x08000a08   0x00000074   Code   RO          376    .text.EnableNorflashWrite  norflash_drv.o
    0x08000a7c   0x08000a7c   0x0000015e   Code   RO          372    .text.EraseNorflashSector  norflash_drv.o
    0x08000bda   0x08000bda   0x00000002   PAD
    0x08000bdc   0x08000bdc   0x0000003e   Code   RO          370    .text.EraseNorflashSectorForWrite  norflash_drv.o
    0x08000c1a   0x08000c1a   0x00000002   PAD
    0x08000c1c   0x08000c1c   0x000000a0   Code   RO           45    .text.FatFsInit     fatfs_app.o
    0x08000cbc   0x08000cbc   0x000000e4   Code   RO           47    .text.FatfsTask     fatfs_app.o
    0x08000da0   0x08000da0   0x0000000c   Code   RO          426    .text.GetHumiData   rh_drv.o
    0x08000dac   0x08000dac   0x000000e4   Code   RO          523    .text.GetKeyValue   key_drv.o
    0x08000e90   0x08000e90   0x00000038   Code   RO          444    .text.GetRtcTime    rtc_drv.o
    0x08000ec8   0x08000ec8   0x0000001e   Code   RO          454    .text.GetSensorData  sensor_drv.o
    0x08000ee6   0x08000ee6   0x00000002   PAD
    0x08000ee8   0x08000ee8   0x0000000e   Code   RO          474    .text.GetSystemRunTime  systick.o
    0x08000ef6   0x08000ef6   0x00000002   PAD
    0x08000ef8   0x08000ef8   0x0000000e   Code   RO          401    .text.GetTempData   ntc_drv.o
    0x08000f06   0x08000f06   0x00000002   PAD
    0x08000f08   0x08000f08   0x0000011c   Code   RO            2    .text.HmiTask       hmi_app.o
    0x08001024   0x08001024   0x0000011a   Code   RO          418    .text.HumiDrvInit   rh_drv.o
    0x0800113e   0x0800113e   0x00000002   PAD
    0x08001140   0x08001140   0x00000100   Code   RO          424    .text.HumiSensorProc  rh_drv.o
    0x08001240   0x08001240   0x0000002c   Code   RO          521    .text.KeyDrvInit    key_drv.o
    0x0800126c   0x0800126c   0x0000003a   Code   RO          535    .text.LedDrvInit    led_drv.o
    0x080012a6   0x080012a6   0x00000002   PAD
    0x080012a8   0x080012a8   0x0000005c   Code   RO          360    .text.NorflashDrvInit  norflash_drv.o
    0x08001304   0x08001304   0x000000c4   Code   RO           49    .text.PrintFileData  fatfs_app.o
    0x080013c8   0x080013c8   0x000001c6   Code   RO          368    .text.ProgramNorflashDataPage  norflash_drv.o
    0x0800158e   0x0800158e   0x00000002   PAD
    0x08001590   0x08001590   0x000001cc   Code   RO          364    .text.ReadNorflashData  norflash_drv.o
    0x0800175c   0x0800175c   0x00000180   Code   RO          362    .text.ReadNorflashID  norflash_drv.o
    0x080018dc   0x080018dc   0x00000084   Code   RO          440    .text.RtcDrvInit    rtc_drv.o
    0x08001960   0x08001960   0x00000004   Code   RO           24    .text.SensorAppTask  sensor_app.o
    0x08001964   0x08001964   0x0000000e   Code   RO          456    .text.SensorDrvInit  sensor_drv.o
    0x08001972   0x08001972   0x00000002   PAD
    0x08001974   0x08001974   0x0000001a   Code   RO          458    .text.SensorDrvProc  sensor_drv.o
    0x0800198e   0x0800198e   0x00000002   PAD
    0x08001990   0x08001990   0x00000028   Code   RO          472    .text.SysTick_Handler  systick.o
    0x080019b8   0x080019b8   0x000001a8   Code   RO         1406    .text.SystemInit    system_gd32f30x.o
    0x08001b60   0x08001b60   0x00000046   Code   RO          470    .text.SystickInit   systick.o
    0x08001ba6   0x08001ba6   0x00000002   PAD
    0x08001ba8   0x08001ba8   0x00000038   Code   RO          592    .text.TIMER3_IRQHandler  porttimer.o
    0x08001be0   0x08001be0   0x000000b4   Code   RO          422    .text.TIMER4_IRQHandler  rh_drv.o
    0x08001c94   0x08001c94   0x00000038   Code   RO           12    .text.TaskSchedule  main.o
    0x08001ccc   0x08001ccc   0x0000000c   Code   RO          468    .text.TaskScheduleCbReg  systick.o
    0x08001cd8   0x08001cd8   0x000000b0   Code   RO          389    .text.TempDrvInit   ntc_drv.o
    0x08001d88   0x08001d88   0x00000138   Code   RO          399    .text.TempSensorProc  ntc_drv.o
    0x08001ec0   0x08001ec0   0x0000001e   Code   RO          539    .text.TurnOffLed    led_drv.o
    0x08001ede   0x08001ede   0x00000002   PAD
    0x08001ee0   0x08001ee0   0x0000001e   Code   RO          537    .text.TurnOnLed     led_drv.o
    0x08001efe   0x08001efe   0x00000002   PAD
    0x08001f00   0x08001f00   0x00000040   Code   RO          491    .text.USART0_IRQHandler  usb2com_drv.o
    0x08001f40   0x08001f40   0x0000005a   Code   RO          576    .text.USART1_IRQHandler  portserial.o
    0x08001f9a   0x08001f9a   0x00000002   PAD
    0x08001f9c   0x08001f9c   0x00000084   Code   RO          485    .text.Usb2ComDrvInit  usb2com_drv.o
    0x08002020   0x08002020   0x000000d6   Code   RO          378    .text.WaitNorflashWriteEnd  norflash_drv.o
    0x080020f6   0x080020f6   0x00000002   PAD
    0x080020f8   0x080020f8   0x0000006a   Code   RO          366    .text.WriteNorflashData  norflash_drv.o
    0x08002162   0x08002162   0x00000002   PAD
    0x08002164   0x08002164   0x00000020   Code   RO         1095    .text.adc_calibration_enable  gd32f30x_adc.o
    0x08002184   0x08002184   0x0000003a   Code   RO         1115    .text.adc_channel_length_config  gd32f30x_adc.o
    0x080021be   0x080021be   0x00000002   PAD
    0x080021c0   0x080021c0   0x00000012   Code   RO         1113    .text.adc_data_alignment_config  gd32f30x_adc.o
    0x080021d2   0x080021d2   0x00000002   PAD
    0x080021d4   0x080021d4   0x00000048   Code   RO         1089    .text.adc_deinit    gd32f30x_adc.o
    0x0800221c   0x0800221c   0x00000012   Code   RO         1091    .text.adc_enable    gd32f30x_adc.o
    0x0800222e   0x0800222e   0x00000002   PAD
    0x08002230   0x08002230   0x0000003e   Code   RO         1123    .text.adc_external_trigger_config  gd32f30x_adc.o
    0x0800226e   0x0800226e   0x00000002   PAD
    0x08002270   0x08002270   0x00000022   Code   RO         1125    .text.adc_external_trigger_source_config  gd32f30x_adc.o
    0x08002292   0x08002292   0x00000002   PAD
    0x08002294   0x08002294   0x00000006   Code   RO         1137    .text.adc_flag_clear  gd32f30x_adc.o
    0x0800229a   0x0800229a   0x00000002   PAD
    0x0800229c   0x0800229c   0x0000000a   Code   RO         1135    .text.adc_flag_get  gd32f30x_adc.o
    0x080022a6   0x080022a6   0x00000002   PAD
    0x080022a8   0x080022a8   0x00000018   Code   RO         1109    .text.adc_mode_config  gd32f30x_adc.o
    0x080022c0   0x080022c0   0x00000030   Code   RO         1155    .text.adc_oversample_mode_config  gd32f30x_adc.o
    0x080022f0   0x080022f0   0x0000000e   Code   RO         1157    .text.adc_oversample_mode_enable  gd32f30x_adc.o
    0x080022fe   0x080022fe   0x00000002   PAD
    0x08002300   0x08002300   0x00000074   Code   RO         1117    .text.adc_regular_channel_config  gd32f30x_adc.o
    0x08002374   0x08002374   0x00000006   Code   RO         1129    .text.adc_regular_data_read  gd32f30x_adc.o
    0x0800237a   0x0800237a   0x00000002   PAD
    0x0800237c   0x0800237c   0x00000018   Code   RO         1105    .text.adc_resolution_config  gd32f30x_adc.o
    0x08002394   0x08002394   0x0000001c   Code   RO         1127    .text.adc_software_trigger_enable  gd32f30x_adc.o
    0x080023b0   0x080023b0   0x0000005a   Code   RO         1111    .text.adc_special_function_config  gd32f30x_adc.o
    0x0800240a   0x0800240a   0x00000002   PAD
    0x0800240c   0x0800240c   0x0000000e   Code   RO          602    .text.bkp_deinit    gd32f30x_bkp.o
    0x0800241a   0x0800241a   0x00000002   PAD
    0x0800241c   0x0800241c   0x00000034   Code   RO          606    .text.bkp_read_data  gd32f30x_bkp.o
    0x08002450   0x08002450   0x00000032   Code   RO          604    .text.bkp_write_data  gd32f30x_bkp.o
    0x08002482   0x08002482   0x00000002   PAD
    0x08002484   0x08002484   0x000000d0   Code   RO          306    .text.check_fs      ff.o
    0x08002554   0x08002554   0x00000122   Code   RO          248    .text.create_chain  ff.o
    0x08002676   0x08002676   0x00000002   PAD
    0x08002678   0x08002678   0x0000018c   Code   RO          294    .text.create_partition  ff.o
    0x08002804   0x08002804   0x00000094   Code   RO          282    .text.dir_clear     ff.o
    0x08002898   0x08002898   0x0000019c   Code   RO          308    .text.dir_find      ff.o
    0x08002a34   0x08002a34   0x000000ee   Code   RO          270    .text.dir_next      ff.o
    0x08002b22   0x08002b22   0x00000002   PAD
    0x08002b24   0x08002b24   0x0000012e   Code   RO          266    .text.dir_read      ff.o
    0x08002c52   0x08002c52   0x00000002   PAD
    0x08002c54   0x08002c54   0x000002e4   Code   RO          236    .text.dir_register  ff.o
    0x08002f38   0x08002f38   0x000000aa   Code   RO          260    .text.dir_sdi       ff.o
    0x08002fe2   0x08002fe2   0x00000002   PAD
    0x08002fe4   0x08002fe4   0x0000003a   Code   RO          210    .text.disk_initialize  diskio.o
    0x0800301e   0x0800301e   0x00000002   PAD
    0x08003020   0x08003020   0x0000002a   Code   RO          216    .text.disk_ioctl    diskio.o
    0x0800304a   0x0800304a   0x00000002   PAD
    0x0800304c   0x0800304c   0x0000001a   Code   RO          212    .text.disk_read     diskio.o
    0x08003066   0x08003066   0x00000002   PAD
    0x08003068   0x08003068   0x00000036   Code   RO          208    .text.disk_status   diskio.o
    0x0800309e   0x0800309e   0x00000002   PAD
    0x080030a0   0x080030a0   0x00000026   Code   RO          214    .text.disk_write    diskio.o
    0x080030c6   0x080030c6   0x00000002   PAD
    0x080030c8   0x080030c8   0x0000003e   Code   RO          254    .text.f_close       ff.o
    0x08003106   0x08003106   0x00000002   PAD
    0x08003108   0x08003108   0x00000062   Code   RO          296    .text.f_gets        ff.o
    0x0800316a   0x0800316a   0x00000002   PAD
    0x0800316c   0x0800316c   0x000006f8   Code   RO          292    .text.f_mkfs        ff.o
    0x08003864   0x08003864   0x000000a4   Code   RO          228    .text.f_mount       ff.o
    0x08003908   0x08003908   0x000002a2   Code   RO          232    .text.f_open        ff.o
    0x08003baa   0x08003baa   0x00000006   PAD
    0x08003bb0   0x08003bb0   0x00000e50   Code   RO          302    .text.f_printf      ff.o
    0x08004a00   0x08004a00   0x00000208   Code   RO          244    .text.f_read        ff.o
    0x08004c08   0x08004c08   0x000000c8   Code   RO          250    .text.f_sync        ff.o
    0x08004cd0   0x08004cd0   0x0000014c   Code   RO          278    .text.f_unlink      ff.o
    0x08004e1c   0x08004e1c   0x00000242   Code   RO          246    .text.f_write       ff.o
    0x0800505e   0x0800505e   0x00000002   PAD
    0x08005060   0x08005060   0x0000002c   Code   RO          332    .text.ff_oem2uni    ffunicode.o
    0x0800508c   0x0800508c   0x00000040   Code   RO          330    .text.ff_uni2oem    ffunicode.o
    0x080050cc   0x080050cc   0x000000b0   Code   RO          334    .text.ff_wtoupper   ffunicode.o
    0x0800517c   0x0800517c   0x00000052   Code   RO          304    .text.find_volume   ff.o
    0x080051ce   0x080051ce   0x00000002   PAD
    0x080051d0   0x080051d0   0x00000388   Code   RO          234    .text.follow_path   ff.o
    0x08005558   0x08005558   0x00000024   Code   RO          487    .text.fputc         usb2com_drv.o
    0x0800557c   0x0800557c   0x00000100   Code   RO          242    .text.get_fat       ff.o
    0x0800567c   0x0800567c   0x0000003a   Code   RO          218    .text.get_fattime   diskio.o
    0x080056b6   0x080056b6   0x00000002   PAD
    0x080056b8   0x080056b8   0x00000004   Code   RO          658    .text.gpio_bit_reset  gd32f30x_gpio.o
    0x080056bc   0x080056bc   0x00000004   Code   RO          656    .text.gpio_bit_set  gd32f30x_gpio.o
    0x080056c0   0x080056c0   0x0000000c   Code   RO          660    .text.gpio_bit_write  gd32f30x_gpio.o
    0x080056cc   0x080056cc   0x000000b6   Code   RO          654    .text.gpio_init     gd32f30x_gpio.o
    0x08005782   0x08005782   0x00000002   PAD
    0x08005784   0x08005784   0x0000000a   Code   RO          664    .text.gpio_input_bit_get  gd32f30x_gpio.o
    0x0800578e   0x0800578e   0x00000002   PAD
    0x08005790   0x08005790   0x0000000a   Code   RO          668    .text.gpio_output_bit_get  gd32f30x_gpio.o
    0x0800579a   0x0800579a   0x00000002   PAD
    0x0800579c   0x0800579c   0x00000060   Code   RO           10    .text.main          main.o
    0x080057fc   0x080057fc   0x000002d6   Code   RO          230    .text.mount_volume  ff.o
    0x08005ad2   0x08005ad2   0x00000002   PAD
    0x08005ad4   0x08005ad4   0x0000008a   Code   RO          240    .text.move_window   ff.o
    0x08005b5e   0x08005b5e   0x00000002   PAD
    0x08005b60   0x08005b60   0x000000a4   Code   RO          698    .text.nvic_irq_enable  gd32f30x_misc.o
    0x08005c04   0x08005c04   0x00000012   Code   RO         1067    .text.pmu_backup_write_enable  gd32f30x_pmu.o
    0x08005c16   0x08005c16   0x00000002   PAD
    0x08005c18   0x08005c18   0x00000140   Code   RO          310    .text.put_fat       ff.o
    0x08005d58   0x08005d58   0x00000072   Code   RO          756    .text.rcu_adc_clock_config  gd32f30x_rcu.o
    0x08005dca   0x08005dca   0x00000002   PAD
    0x08005dcc   0x08005dcc   0x00000012   Code   RO          736    .text.rcu_bkp_reset_disable  gd32f30x_rcu.o
    0x08005dde   0x08005dde   0x00000002   PAD
    0x08005de0   0x08005de0   0x00000012   Code   RO          734    .text.rcu_bkp_reset_enable  gd32f30x_rcu.o
    0x08005df2   0x08005df2   0x00000002   PAD
    0x08005df4   0x08005df4   0x000000d0   Code   RO          784    .text.rcu_clock_freq_get  gd32f30x_rcu.o
    0x08005ec4   0x08005ec4   0x0000001e   Code   RO          768    .text.rcu_osci_on   gd32f30x_rcu.o
    0x08005ee2   0x08005ee2   0x00000002   PAD
    0x08005ee4   0x08005ee4   0x0000013c   Code   RO          720    .text.rcu_osci_stab_wait  gd32f30x_rcu.o
    0x08006020   0x08006020   0x0000001e   Code   RO          722    .text.rcu_periph_clock_enable  gd32f30x_rcu.o
    0x0800603e   0x0800603e   0x00000002   PAD
    0x08006040   0x08006040   0x00000020   Code   RO          732    .text.rcu_periph_reset_disable  gd32f30x_rcu.o
    0x08006060   0x08006060   0x0000001e   Code   RO          730    .text.rcu_periph_reset_enable  gd32f30x_rcu.o
    0x0800607e   0x0800607e   0x00000002   PAD
    0x08006080   0x08006080   0x00000014   Code   RO          760    .text.rcu_rtc_clock_config  gd32f30x_rcu.o
    0x08006094   0x08006094   0x00000012   Code   RO          817    .text.rtc_counter_get  gd32f30x_rtc.o
    0x080060a6   0x080060a6   0x00000002   PAD
    0x080060a8   0x080060a8   0x00000022   Code   RO          819    .text.rtc_counter_set  gd32f30x_rtc.o
    0x080060ca   0x080060ca   0x00000002   PAD
    0x080060cc   0x080060cc   0x00000010   Code   RO          813    .text.rtc_lwoff_wait  gd32f30x_rtc.o
    0x080060dc   0x080060dc   0x00000024   Code   RO          821    .text.rtc_prescaler_set  gd32f30x_rtc.o
    0x08006100   0x08006100   0x00000018   Code   RO          815    .text.rtc_register_sync_wait  gd32f30x_rtc.o
    0x08006118   0x08006118   0x000000bc   Code   RO          252    .text.sync_fs       ff.o
    0x080061d4   0x080061d4   0x00000004   Code   RO         1199    .text.timer_counter_value_config  gd32f30x_timer.o
    0x080061d8   0x080061d8   0x000000c2   Code   RO         1169    .text.timer_deinit  gd32f30x_timer.o
    0x0800629a   0x0800629a   0x00000002   PAD
    0x0800629c   0x0800629c   0x0000000a   Code   RO         1175    .text.timer_enable  gd32f30x_timer.o
    0x080062a6   0x080062a6   0x00000002   PAD
    0x080062a8   0x080062a8   0x000000b4   Code   RO         1173    .text.timer_init    gd32f30x_timer.o
    0x0800635c   0x0800635c   0x00000008   Code   RO         1209    .text.timer_interrupt_enable  gd32f30x_timer.o
    0x08006364   0x08006364   0x00000006   Code   RO         1215    .text.timer_interrupt_flag_clear  gd32f30x_timer.o
    0x0800636a   0x0800636a   0x00000002   PAD
    0x0800636c   0x0800636c   0x00000016   Code   RO         1213    .text.timer_interrupt_flag_get  gd32f30x_timer.o
    0x08006382   0x08006382   0x00000002   PAD
    0x08006384   0x08006384   0x00000010   Code   RO         1171    .text.timer_struct_para_init  gd32f30x_timer.o
    0x08006394   0x08006394   0x0000006a   Code   RO          931    .text.usart_baudrate_set  gd32f30x_usart.o
    0x080063fe   0x080063fe   0x00000002   PAD
    0x08006400   0x08006400   0x00000008   Code   RO          959    .text.usart_data_receive  gd32f30x_usart.o
    0x08006408   0x08006408   0x00000008   Code   RO          957    .text.usart_data_transmit  gd32f30x_usart.o
    0x08006410   0x08006410   0x0000007a   Code   RO          929    .text.usart_deinit  gd32f30x_usart.o
    0x0800648a   0x0800648a   0x00000002   PAD
    0x0800648c   0x0800648c   0x0000000a   Code   RO          939    .text.usart_enable  gd32f30x_usart.o
    0x08006496   0x08006496   0x00000002   PAD
    0x08006498   0x08006498   0x00000010   Code   RO         1017    .text.usart_flag_get  gd32f30x_usart.o
    0x080064a8   0x080064a8   0x00000016   Code   RO         1021    .text.usart_interrupt_enable  gd32f30x_usart.o
    0x080064be   0x080064be   0x00000002   PAD
    0x080064c0   0x080064c0   0x00000012   Code   RO         1027    .text.usart_interrupt_flag_clear  gd32f30x_usart.o
    0x080064d2   0x080064d2   0x00000002   PAD
    0x080064d4   0x080064d4   0x00000022   Code   RO         1025    .text.usart_interrupt_flag_get  gd32f30x_usart.o
    0x080064f6   0x080064f6   0x00000002   PAD
    0x080064f8   0x080064f8   0x00000010   Code   RO          933    .text.usart_parity_config  gd32f30x_usart.o
    0x08006508   0x08006508   0x00000014   Code   RO          945    .text.usart_receive_config  gd32f30x_usart.o
    0x0800651c   0x0800651c   0x00000010   Code   RO          937    .text.usart_stop_bit_set  gd32f30x_usart.o
    0x0800652c   0x0800652c   0x00000014   Code   RO          943    .text.usart_transmit_config  gd32f30x_usart.o
    0x08006540   0x08006540   0x00000010   Code   RO          935    .text.usart_word_length_set  gd32f30x_usart.o
    0x08006550   0x08006550   0x00000020   Code   RO         1708    i.__0printf         mc_w.l(printfa.o)
    0x08006570   0x08006570   0x0000000e   Code   RO         1833    i.__scatterload_copy  mc_w.l(handlers.o)
    0x0800657e   0x0800657e   0x00000002   Code   RO         1834    i.__scatterload_null  mc_w.l(handlers.o)
    0x08006580   0x08006580   0x0000000e   Code   RO         1835    i.__scatterload_zeroinit  mc_w.l(handlers.o)
    0x0800658e   0x0800658e   0x00000002   PAD
    0x08006590   0x08006590   0x00000184   Code   RO         1715    i._fp_digits        mc_w.l(printfa.o)
    0x08006714   0x08006714   0x000006dc   Code   RO         1716    i._printf_core      mc_w.l(printfa.o)
    0x08006df0   0x08006df0   0x00000024   Code   RO         1717    i._printf_post_padding  mc_w.l(printfa.o)
    0x08006e14   0x08006e14   0x0000002e   Code   RO         1718    i._printf_pre_padding  mc_w.l(printfa.o)
    0x08006e42   0x08006e42   0x0000000c   Data   RO         1818    .constdata          mc_w.l(localtime_i.o)
    0x08006e4e   0x08006e4e   0x00000080   Data   RO          318    .rodata.ExCvt       ff.o
    0x08006ece   0x08006ece   0x0000000d   Data   RO          319    .rodata.LfnOfs      ff.o
    0x08006edb   0x08006edb   0x00000008   Data   RO          796    .rodata.cst8        gd32f30x_rcu.o
    0x08006ee3   0x08006ee3   0x00000001   PAD
    0x08006ee4   0x08006ee4   0x00000030   Data   RO          525    .rodata.g_GpioList  key_drv.o
    0x08006f14   0x08006f14   0x00000024   Data   RO          543    .rodata.g_ledList   led_drv.o
    0x08006f38   0x08006f38   0x000000c8   Data   RO          408    .rodata.g_ntcAdcTable  ntc_drv.o
    0x08007000   0x08007000   0x000001d4   Data   RO          431    .rodata.g_rhAdcTable  rh_drv.o
    0x080071d4   0x080071d4   0x0000009c   Data   RO           52    .rodata.str1.1      fatfs_app.o
    0x08007270   0x08007270   0x00000003   Data   RO          320    .rodata.str1.1      ff.o
    0x08007273   0x08007273   0x00000001   PAD
    0x08007274   0x08007274   0x0000001c   Data   RO          314    .rodata.str2.2      ff.o
    0x08007290   0x08007290   0x000002ae   Data   RO          337    .rodata.str2.2      ffunicode.o
    0x0800753e   0x0800753e   0x00000100   Data   RO          336    .rodata.uc437       ffunicode.o
    0x0800763e   0x0800763e   0x00000002   PAD
    0x08007640   0x08007640   0x00000020   Data   RO         1832    Region$$Table       anon$$obj.o


    Execution Region RW_IRAM1 (Exec base: 0x20000000, Load base: 0x08007660, Size: 0x00006388, Max: 0x00010000, ABSOLUTE)

    Exec Addr    Load Addr    Size         Type   Attr      Idx    E Section Name        Object

    0x20000000   0x08007660   0x00000004   Data   RW         1796    .data               mc_w.l(stdout.o)
    0x20000004   0x08007664   0x0000001c   Data   RW          495    .data.g_Usb2ComInfo  usb2com_drv.o
    0x20000020   0x08007680   0x00000024   Data   RW           14    .data.g_taskComps   main.o
    0x20000044   0x080076a4   0x00000004   PAD
    0x20000048        -       0x0000002c   Zero   RW         1815    .bss                mc_w.l(localtime_w.o)
    0x20000074        -       0x00000010   Zero   RW          312    .bss.FatFs          ff.o
    0x20000084        -       0x00000002   Zero   RW          316    .bss.Fsid           ff.o
    0x20000086        -       0x00000200   Zero   RW          317    .bss.LfnBuf         ff.o
    0x20000286        -       0x00000001   Zero   RW          409    .bss.PushTemp10MulToBuf.s_index  ntc_drv.o
    0x20000287   0x080076a4   0x00000001   PAD
    0x20000288        -       0x00000002   Zero   RW          428    .bss.TIMER4_IRQHandler.s_timingNum  rh_drv.o
    0x2000028a        -       0x00000001   Zero   RW          405    .bss.TempSensorProc.s_convertNum  ntc_drv.o
    0x2000028b   0x080076a4   0x00000001   PAD
    0x2000028c        -       0x00000002   Zero   RW          429    .bss.g_adcVal       rh_drv.o
    0x2000028e   0x080076a4   0x00000002   PAD
    0x20000290        -       0x00001038   Zero   RW           51    .bss.g_fatfs        fatfs_app.o
    0x200012c8        -       0x00000001   Zero   RW           53    .bss.g_fatfsInitFlag  fatfs_app.o
    0x200012c9        -       0x00000001   Zero   RW          430    .bss.g_humiData     rh_drv.o
    0x200012ca   0x080076a4   0x00000006   PAD
    0x200012d0        -       0x00000040   Zero   RW          526    .bss.g_keyInfoList  key_drv.o
    0x20001310        -       0x00000004   Zero   RW          496    .bss.g_pProcUartData  usb2com_drv.o
    0x20001314        -       0x00000004   Zero   RW          476    .bss.g_pTaskScheduleFunc  systick.o
    0x20001318        -       0x0000102c   Zero   RW           54    .bss.g_sensorFile   fatfs_app.o
    0x20002344   0x080076a4   0x00000004   PAD
    0x20002348        -       0x00000008   Zero   RW          477    .bss.g_systemRunTime  systick.o
    0x20002350        -       0x00000004   Zero   RW          407    .bss.g_temp         ntc_drv.o
    0x20002354        -       0x00000028   Zero   RW          406    .bss.g_temp10MulBuf  ntc_drv.o
    0x2000237c        -       0x00000004   Zero   RW          105    .bss.pxMBFrameCBByteReceived  mb.o
    0x20002380        -       0x00000004   Zero   RW          106    .bss.pxMBFrameCBTransmitterEmpty  mb.o
    0x20002384        -       0x00000004   Zero   RW          107    .bss.pxMBPortCBTimerExpired  mb.o
    0x20002388        -       0x00004000   Zero   RW         1396    STACK               startup_gd32f30x_hd.o


==============================================================================

Image component sizes


      Code (inc. data)   RO Data    RW Data    ZI Data      Debug   Object Name

       100          0          0          0          0       2285   delay.o
       276          0          0          0          0       2644   diskio.o
       584         52        156          0       8293       3557   fatfs_app.o
     13594        264        172          0        530      69154   ff.o
       284         10        942          0          0       2288   ffunicode.o
       660          0          0          0          0       9353   gd32f30x_adc.o
       116          0          0          0          0       4907   gd32f30x_bkp.o
       222          0          0          0          0       5791   gd32f30x_gpio.o
       164          0          0          0          0       3555   gd32f30x_misc.o
        18          0          0          0          0       5391   gd32f30x_pmu.o
       816         20          8          0          0      13877   gd32f30x_rcu.o
       128          0          0          0          0       2655   gd32f30x_rtc.o
       440          0          0          0          0      20500   gd32f30x_timer.o
       432          0          0          0          0      11454   gd32f30x_usart.o
       284         84          0          0          0       1382   hmi_app.o
       272          4         48          0         64       3131   key_drv.o
       118          0         36          0          0       2573   led_drv.o
       152          0          0         36          0       1454   main.o
         0          0          0          0         12       4811   mb.o
      2238          0          0          0          0       8500   norflash_drv.o
       510          0        200          0         46       6218   ntc_drv.o
        90          0          0          0          0       4231   portserial.o
        56          0          0          0          0       2770   porttimer.o
       730          0        468          0          5       5689   rh_drv.o
       188          0          0          0          0       3972   rtc_drv.o
         4          0          0          0          0        477   sensor_app.o
        70          0          0          0          0       1122   sensor_drv.o
        36          8        304          0      16384        876   startup_gd32f30x_hd.o
       424          0          0          0          0       2524   system_gd32f30x.o
       136          0          0          0         12       4121   systick.o
       232          0          0         28          4       4264   usb2com_drv.o

    ----------------------------------------------------------------------
     23516        442       2370         64      25368     215526   Object Totals
         0          0         32          0          0          0   (incl. Generated)
       142          0          4          0         18          0   (incl. Padding)

    ----------------------------------------------------------------------

      Code (inc. data)   RO Data    RW Data    ZI Data      Debug   Library Member Name

         0          0          0          0          0          0   entry.o
         0          0          0          0          0          0   entry10a.o
         0          0          0          0          0          0   entry11a.o
         8          4          0          0          0          0   entry2.o
         4          0          0          0          0          0   entry5.o
         0          0          0          0          0          0   entry7b.o
         0          0          0          0          0          0   entry8b.o
         8          4          0          0          0          0   entry9a.o
        30          0          0          0          0          0   handlers.o
        48         10          0          0          0         68   init.o
         0          0          0          0          0          0   iusefp.o
        30          0          0          0          0         68   llshl.o
        36          0          0          0          0         68   llsshr.o
        32          0          0          0          0         68   llushr.o
       140          6         12          0          0         76   localtime_i.o
        12          6          0          0         44         68   localtime_w.o
        20          0          0          0          0         68   memchr.o
        26          0          0          0          0         80   memcmp.o
        36          0          0          0          0         68   memcpya.o
        36          0          0          0          0        108   memseta.o
      2258         90          0          0          0        452   printfa.o
       156          0          0          0          0         88   qsort.o
         0          0          0          4          0          0   stdout.o
        14          0          0          0          0         68   strlen.o
        44          0          0          0          0         80   uidiv.o
        98          0          0          0          0         92   uldiv.o
        48          0          0          0          0         68   cdrcmple.o
       334          0          0          0          0        148   dadd.o
        56          0          0          0          0         80   dcmpeq.o
        54          0          0          0          0         80   dcmpge.o
        54          0          0          0          0         80   dcmplt.o
       222          0          0          0          0        100   ddiv.o
       186          0          0          0          0        176   depilogue.o
        62          0          0          0          0         80   dfixi.o
        48          0          0          0          0         68   dfixul.o
        34          0          0          0          0         76   dflti.o
       228          0          0          0          0         96   dmul.o
        38          0          0          0          0         68   f2d.o

    ----------------------------------------------------------------------
      4406        120         12          4         44       2640   Library Totals
         6          0          0          0          0          0   (incl. Padding)

    ----------------------------------------------------------------------

      Code (inc. data)   RO Data    RW Data    ZI Data      Debug   Library Name

      3036        120         12          4         44       1520   mc_w.l
      1364          0          0          0          0       1120   mf_w.l

    ----------------------------------------------------------------------
      4406        120         12          4         44       2640   Library Totals

    ----------------------------------------------------------------------

==============================================================================


      Code (inc. data)   RO Data    RW Data    ZI Data      Debug   

     27922        562       2382         68      25412     216354   Grand Totals
     27922        562       2382         68      25412     216354   ELF Image Totals
     27922        562       2382         68          0          0   ROM Totals

==============================================================================

    Total RO  Size (Code + RO Data)                30304 (  29.59kB)
    Total RW  Size (RW Data + ZI Data)             25480 (  24.88kB)
    Total ROM Size (Code + RO Data + RW Data)      30372 (  29.66kB)

==============================================================================

