:020000040800F2
:1000000048040020450100084D0100084F01000888
:1000100051010008530100085501000800000000CC
:100020000000000000000000000000005701000870
:1000300059010008000000005B010008E904000805
:100040005F0100085F0100085F0100085F01000810
:100050005F0100085F0100085F0100085F01000800
:100060005F0100085F0100085F0100085F010008F0
:100070005F0100085F0100085F0100085F010008E0
:100080005F0100085F0100085F0100085F010008D0
:100090005F0100085F0100085F0100085F010008C0
:1000A0005F0100085F0100085F0100085F010008B0
:1000B0005F0100085F0100085F0100085F010008A0
:1000C0005F0100085F0100085F0100085F01000890
:1000D0005F0100085F0100085F0100085F01000880
:1000E0005F0100085F0100085F0100085F01000870
:1000F0005F0100085F0100085F0100085F01000860
:100100005F0100085F0100085F0100085F0100084F
:100110005F0100085F0100085F0100085F0100083F
:100120005F0100085F0100085F0100085F0100082F
:10013000DFF80CD000F018F800480047CD0B00089D
:10014000480400200648804706480047FEE7FEE7CF
:10015000FEE7FEE7FEE7FEE7FEE7FEE7FEE7FEE777
:1001600001050008310100081CB509480090094844
:1001700001900546009C06E0E06840F0010394E829
:10018000070098471034AC42F6D3FFF7D5FF0000C4
:100190007C0D00088C0D000870B542F20004C4F21A
:1001A0000104A4F5C050012100F00AFD40F2000551
:1001B000C2F200052978032940D8DFE801F0030BDB
:1001C0000F1900BFD0BB0120287000F019F9C5E954
:1001D000020133E0B0B100201FE000BF40F2000692
:1001E000C2F20006E0B101200021317070BD00BFF5
:1001F00020B340F20001C2F20001812000220A7007
:1002000070BD00BF00F0FCF8D5E90223801A9941C7
:100210000B3871F1000011D3022028700EE000BFEE
:1002200000F0EEF8D6E90223801A40F2E932994153
:10023000801A71F1000024BF0320307020464FF473
:10024000005100F0BDFC297C03293BD8DFE801F018
:10025000020A0E16B0BB0120287400F0D1F8C5E9DF
:1002600006012FE090B1002028742BE0E0B105F1E9
:10027000100602200021317070BD00BF10B305F1DF
:100280001001822000220A7070BD00BF00F0B8F893
:10029000D5E90623801A99410B3871F1000024BF7B
:1002A000022028740EE000BF00F0AAF8D5E906236A
:1002B000801A40F2E9329941801A71F1000024BF9E
:1002C0000320287420464FF4804100F079FC95F813
:1002D0002010032941D8DFE801F0030D131B00BFF4
:1002E000D8BB012085F8200000F08AF8C5E90A0192
:1002F00033E000BFA0B1002085F820002DE000BF52
:10030000E0B105F1200603200021317070BD00BF6F
:1003100018B305F12001832000220A7070BD00BFD0
:1003200000F06EF8D5E90A23801A99410B3871F173
:10033000000024BF022085F820000EE000F060F8E5
:10034000D5E90A23801A40F2E9329941801A71F105
:10035000000024BF032085F8200020464FF4004110
:1003600000F02EFC95F83010032904D8DFE801F0E6
:1003700002060C14D0B3002070BD00BFA0B1002055
:1003800085F8300070BD00BFF0B105F130060420E3
:100390000021317070BD00BF0028ECD005F13001A4
:1003A000842000220A7070BD00F02AF8D5E90E23DF
:1003B000801A99410B3871F10000DCD3022085F8D6
:1003C0003000002070BD00BF00F01AF8D5E90E2300
:1003D000801A40F2E9329941801A71F10000CAD3C3
:1003E000032085F83000002070BD00BF012085F893
:1003F000300000F005F8C5E90E01002070BD0000D6
:1004000040F24000C2F20000D0E900017047000055
:1004100010B540F2026000F07DFC42F20004C4F22C
:100420000104A4F5C05004210222012300F0D0F9F8
:100430004FF4C16000F06EFC2046042102224FF40C
:10044000005300F0C5F94FF4C16000F063FC204692
:10045000042102224FF4804300F0BAF94FF4C16046
:1004600000F058FC2046042102224FF40043BDE86E
:10047000104000F0ADB90000B0B540F2026000F0ED
:1004800049FC40F60004C4F2010420461021022277
:100490004FF4807300F09CF920464FF4807100F017
:1004A00093F940F2066000F035FC04F580552846CB
:1004B00010210222402300F08BF92846402100F051
:1004C00083F940F2076000F025FC04F5A0542046B3
:1004D00010210222402300F07BF920464021BDE894
:1004E000B04000F071B9000040F24000C2F20000DC
:1004F000D0E90012013142F10002C0E90012704758
:1005000081B04EF68851CEF200010A6841F2040033
:1005100042F47002C4F202000A6050F8041C41F078
:10052000010140F8041C50F8041C89070CD450F851
:10053000041C89075CBF50F8041C5FEA817103D476
:1005400050F8041C8907EED5016841F08001016074
:1005500000210091009A4F2A18D800BF009A01325A
:100560000092009A4F2A11D8009A01320092009A04
:100570004F2A0BD8009A01320092009A4F2A05D8D0
:10058000009A01320092009A502AE7D3026842F0A2
:1005900090020260009100994F2917D8009901310B
:1005A000009100994F2911D80099013100910099CB
:1005B0004F290BD800990131009100994F2905D896
:1005C00000990131009100995029E7D301684FF655
:1005D000FF7221F00301016050F8041CCFF6F662AF
:1005E000114040F8041C4FF41F01416050F8041CF6
:1005F00021F4802140F8041C00210160816250F840
:10060000041C41F4803140F8041C4FF6FC7150F892
:10061000042C92030ED450F8042C92035CBF50F8C3
:10062000042C5FEA823205D421B150F8042C04393D
:100630009203ECD550F8041C890301D4FEE700BFF7
:10064000826947F2040142F08052C4F200018261E3
:1006500051F8042C4FF6FF7342F4404241F8042C49
:100660000268CBF2C373026002680260026842F45F
:1006700080620260026822F440320260026842F442
:100680004032026002681A400260026842F0006272
:1006900042F45012026050F8042C42F0807240F88C
:1006A000042C50F8042C92010CD450F8042C920124
:1006B0005CBF50F8042C5FEA821203D450F8042C7B
:1006C0009201EED551F8042C42F4803241F8042C0A
:1006D0000A68D20309D40A68D2035CBF0A685FEAD9
:1006E000C23202D40A68D203F2D551F8042C42F483
:1006F000003241F8042C0A68920309D40A68920374
:100700005CBF0A685FEA823202D40A689203F2D5BB
:10071000016821F003010160016841F002010160FC
:100720000168090709D4016809075CBF01685FEA2D
:10073000017102D401680907F2D501B070470000C9
:1007400080B5012000F07CFA44F6D351C1F2620179
:10075000A0FB01014FF0FF3000EB9110B0F1807F62
:1007600002D300BFFEE700BF4EF21001CEF200013F
:1007700048604EF62350CEF20000F02202700020B6
:1007800088600720086080BD032888BF704740F656
:10079000585100EB4000C0F6000101EB8000D0E9A9
:1007A000010100F011B80000032888BF704740F62F
:1007B000585100EB4000C0F6000101EB8000D0E989
:1007C000010100F003B8000041617047016170470A
:1007D00070B5CE0601F00F0C06D5042A42D1C26BCB
:1007E0004CF0030C1A43C26300F11002282900F1F7
:1007F000140E3FD048291BD113F001045CD113F033
:10080000020463D113F004046AD113F0080471D117
:1008100013F0100479D113F0200440F0818013F01C
:10082000400440F0888013F0800540F08F8024E180
:10083000DC0740F08F809C0700F195805C0700F199
:100840009B801C0700F1A180DC0600F1A7809C06BC
:1008500000F1AD805C0600F1B3801C0600F1B880A9
:100860000BE100BF4CEA020C00F11002282900F154
:10087000140EBFD113F0010440F0AC8013F0020459
:1008800040F0B38013F0040440F0BA8013F0080481
:1008900040F0C18013F0100440F0C88013F0200431
:1008A00040F0CF8013F0400440F0D68013F0800574
:1008B00040F0DC80E1E000BF0568046125F00F0531
:1008C00045EA0C05056013F002049BD0056804613D
:1008D00025F0F00545EA0C15056013F0040494D0EA
:1008E0000568046125F4706545EA0C25056013F080
:1008F00008048DD00568046125F4704545EA0C357F
:10090000056013F010043FF486AF0568046125F418
:10091000702545EA0C45056013F020043FF47FAFD5
:100920000568046125F4700545EA0C55056013F06F
:1009300040043FF478AF0568046125F0706545EA2E
:100940000C65056013F0800500F097800468056170
:100950008EE000BF046824F00F0444EA0C04046035
:100960009C077FF56BAF046824F0F00444EA0C1494
:1009700004605C077FF565AF046824F4706444EAA2
:100980000C2404601C077FF55FAF046824F47044F6
:1009900044EA0C340460DC067FF559AF046824F4A3
:1009A000702444EA0C4404609C067FF553AF04684D
:1009B00024F4700444EA0C5404605C067FF54DAFE7
:1009C000046824F0706444EA0C6404601C0654D586
:1009D00004684DE00568446125F00F0545EA0C0503
:1009E000056013F002043FF44DAF0568446125F043
:1009F000F00545EA0C15056013F004043FF446AF1A
:100A00000568446125F4706545EA0C25056013F01E
:100A100008043FF43FAF0568446125F4704545EA9A
:100A20000C35056013F010043FF438AF05684461DD
:100A300025F4702545EA0C45056013F020043FF4C9
:100A400031AF0568446125F4700545EA0C55056031
:100A500013F040043FF42AAF0568446125F0706547
:100A600045EA0C65056013F0800506D00468456111
:100A700024F0704444EA0C74046013F4807413D1BD
:100A800013F4007422D113F4806431D113F40064A0
:100A900040D113F480544FD113F400545ED113F4B9
:100AA00080446DD17BE000BF4568282925F00F0503
:100AB00045EA0C0504D0482904D1164601E000BFE0
:100AC00076463460456013F40074DCD045684829EC
:100AD00025F0F00545EA0C1504D0282904D1764606
:100AE00001E000BF16463460456013F48064CDD049
:100AF0004568482925F4706545EA0C2504D0282965
:100B000004D1764601E000BF16463460456013F418
:100B10000064BED04568482925F4704545EA0C3587
:100B200004D0282904D1764601E000BF164634607F
:100B3000456013F48054AFD04568482925F47025EA
:100B400045EA0C4504D0282904D1764601E000BFCF
:100B500016463460456013F40054A0D04568482917
:100B600025F4700545EA0C5504D0282904D17646B1
:100B700001E000BF16463460456013F480440ED097
:100B80004568482925F0706545EA0C6504D0282998
:100B900004D1764601E000BF16463460456013F488
:100BA000004308BF70BD4468482924F0704444EAFB
:100BB0000C7502D0282901D172461360456070BDC2
:100BC0008068084018BF012070470000FFF7B8FD9B
:100BD000FFF752FCFFF71CFCFFF7DEFA411E03296A
:100BE00014D981380328F7D8DFE800F00C18080280
:100BF0000020FFF7C9FD0120FFF7C6FD0220FFF727
:100C0000C3FDE9E70020FFF7BFFDE5E7DFE801F0FE
:100C1000020A140E0020FFF7C7FDDDE70120FFF7F1
:100C2000B3FDD9E70120FFF7BFFDD5E70020FFF7AF
:100C3000BBFD0120FFF7B8FD0220FFF7B5FDCBE7B4
:100C400010B541F20404C4F20204216801F00C0161
:100C5000082941F20021C0F27A012BD12368DB037D
:100C600004D440F6001CC0F23D0C0DE0A36AD4F899
:100C700000C05B0046F60043C0F2DC2358BF0B46C1
:100C8000CCF3404123FA01FC23682168C3F3834E6F
:100C9000102303EAD15123688E44202101EA5361D5
:100CA00071440B463F2918BF01330F2938BF8B1CF5
:100CB00003FB0CF1236813A2C3F30313D35C226874
:100CC00040F6505CC2F30222C0F6000C1CF802E0B1
:100CD0002268032808D821FA03F3DFE800F01103A3
:100CE000070B00BF184610BD002010BD23FA0EF000
:100CF00010BD00BFC2F3C2201CF8000023FA00F1AF
:100D0000084610BD000000000000000001020304BE
:100D10000607080941F2000300F01F018009C4F230
:100D200002034FF0010CC2580CFA01F11143C150FB
:100D3000704702E008C8121F08C1002AFAD17047A4
:100D40007047002001E001C1121F002AFBD170474B
:100D50000000000001020304020600000008014038
:100D600000010000060600000018014040000000DD
:100D700007060000001C0140400000008C0D000828
:0C0D80000000002048040000420D0008A4
:0400000508000131BD
:00000001FF
