:020000040800F2
:100000000004002045010008490100084B010008D8
:100010004D0100084F0100085101000800000000D8
:100020000000000000000000000000005301000874
:1000300055010008000000005701000859010008A0
:100040005B0100085B0100085B0100085B01000820
:100050005B0100085B0100085B0100085B01000810
:100060005B0100085B0100085B0100085B01000800
:100070005B0100085B0100085B0100085B010008F0
:100080005B0100085B0100085B0100085B010008E0
:100090005B0100085B0100085B0100085B010008D0
:1000A0005B0100085B0100085B0100085B010008C0
:1000B0005B0100085B0100085B0100085B010008B0
:1000C0005B0100085B0100085B0100085B010008A0
:1000D0005B0100085B0100085B0100085B01000890
:1000E0005B0100085B0100085B0100085B01000880
:1000F0005B0100085B0100085B0100085B01000870
:100100005B0100085B0100085B0100085B0100085F
:100110005B0100085B0100085B0100085B0100084F
:100120005B0100085B0100085B0100085B0100083F
:10013000DFF80CD000F014F80048004791010008E7
:100140000004002005480047FEE7FEE7FEE7FEE763
:10015000FEE7FEE7FEE7FEE7FEE7FEE73101000807
:100160001CB509480090094801900546009C06E02E
:10017000E06840F0010394E8070098471034AC426F
:10018000F6D3FFF7D9FF00001C0200082C0200087C
:1001900081B00020009041F21801C4F20201086809
:1001A00040F00400086040F60401C4F2010144F28A
:1001B0004240C4F24440086040F60001C4F201012C
:1001C0004FF044300860FFE7FFE740F60800C4F254
:1001D00001000078C00748B9FFE740F60C01C4F2FF
:1001E0000101086840F480700860EEE740F60C01F9
:1001F000C4F20101086820F480700860E4E702E0BE
:1002000008C8121F08C1002AFAD1704770470020A1
:1002100001E001C1121F002AFBD170472C02000827
:0C02200000000020000400000E02000896
:0400000508000131BD
:00000001FF
