:020000040800F2
:10000000280400204901000851010008530100089C
:1000100055010008570100085901000800000000C0
:100020000000000000000000000000005B0100086C
:100030005D010008000000005F0100086101000888
:100040006301000863010008630100086301000800
:1000500063010008630100089101000863010008C2
:1000600063010008630100086301000863010008E0
:1000700063010008630100086301000863010008D0
:1000800063010008630100086301000863010008C0
:1000900063010008630100086301000863010008B0
:1000A00063010008630100086301000863010008A0
:1000B0006301000863010008630100086301000890
:1000C0006301000863010008630100086301000880
:1000D0006301000863010008630100086301000870
:1000E000A90100086301000863010008630100081A
:1000F0006301000863010008630100086301000850
:10010000630100086301000863010008630100083F
:10011000630100086301000863010008630100082F
:10012000630100086301000863010008630100081F
:10013000DFF810D000F01AF8004800473D0600082C
:10014000AFF3008028040020064880470648004797
:10015000FEE7FEE7FEE7FEE7FEE7FEE7FEE7FEE777
:10016000FEE7FEE7CD02000831010008064C074D0E
:1001700006E0E06840F0010394E807009847103477
:10018000AC42F6D3FFF7D8FF5C0800087C080008F3
:1001900010B5012000F08CF928B1002000F0EAF839
:1001A000012000F07FF910BD10B54FF4005000F0B1
:1001B0007FF930B1012000F0DDF84FF4005000F07D
:1001C00071F94FF4804000F073F930B1022000F073
:1001D000D1F84FF4804000F065F910BD10B500F083
:1001E00039F800F001F810BD10B54FF4C06000F010
:1001F00097FA0021084600F06FF90122002110460D
:1002000000F0F2F8012000F04DF90122114606201D
:1002100000F01AFA0D21062000F05EF901220021FB
:10022000500300F0E1F84FF4005000F03BF90E21CC
:10023000062000F051F901220021900300F0D4F8CB
:100240004FF4804000F02EF901220021282000F018
:10025000FBF910BD10B540F2026000F061FA012315
:1002600002220421014800F083F910BD000801407A
:1002700010B5002424E004EB4401134A32F82100B5
:1002800000F04EFA04EB44010F4A02EB81018B6847
:1002900004EB440102EB810102224868102100F0C6
:1002A00067F904EB4402084B03EB8202916804EB0C
:1002B000440203EB8202506800F006F9601CC4B2ED
:1002C000032CD8D310BD00000000002008B526483C
:1002D000006840F47000244908602448006840F039
:1002E00001002249086000BF2048006800F00200B9
:1002F0000028F9D000BF1D48406840F080001B492D
:1003000048600020009002E00098401C0090009897
:100310005028F9D31548406840F0900013494860D0
:100320000020009002E00098401C009000985028A7
:10033000F9D300BF0D48406820F003000B49486026
:10034000084600680A490840084908604FF41F0041
:1003500088600846006820F480200860002048601B
:10036000C86200F077FA08BD88ED00E00010024096
:10037000FFFFF6FE70B50446032C00D970BD04EBF8
:100380004402104B03EB8202916804EB440203EB3E
:100390008202506800F04AF905460DB9012300E0D9
:1003A00000231A4604EB4403064E06EB83039968C8
:1003B00004EB440306EB8303586800F087F800BFA2
:1003C000DCE700000000002002E008C8121F08C19E
:1003D000002AFAD170477047002001E001C1121FC6
:1003E000002AFBD17047000010B52D4B1B688343DA
:1003F0002B4C2360231D1B688343241D2360231D76
:100400001B688343241D2360231D1B688343241D15
:10041000236011B101290ED105E0214B1B68034374
:100420001F4C236008E01E4B1B1D1B6803431C4C24
:10043000241D236000E000BF00BF32B1012A11D0AB
:10044000022A1CD0032A27D127E0154B08331B684A
:100450000343134C08342360231D1B688343241D6E
:1004600023601BE00E4B08331B6883430C4C08349D
:100470002360231D1B680343241D23600EE0084BEB
:1004800008331B680343064C08342360231D1B6894
:100490000343241D236001E000BF00BF00BF10BD67
:1004A0000004014001490860704700001404014045
:1004B000014604480068084008B101207047002048
:1004C000FCE7000014040140416170470AB101617A
:1004D00000E041617047000010B500228B071C0F3F
:1004E0000F2303FA04F204290EDA204B9B6893438E
:1004F0001E4CA36023469B688C07240F00FA04F46B
:1005000023431A4CA3602FE008290EDA174BDB684F
:100510009343164CE3602346DB688C07240F00FAF4
:1005200004F42343114CE3601EE00C290EDA0F4B58
:100530001B6993430D4C236123461B698C07240FD1
:1005400000FA04F42343094C23610DE0074B5B6977
:100550009343064C636123465B698C07240F00FAC2
:1005600004F42343014C636110BD0000000001400E
:10057000F0B5044616460025002201F00F0501F0F3
:10058000100747B1042E05D145F00305E76B1F4363
:10059000E76300E0354300201EE0012787401F404D
:1005A000C7B122684FEA800C0F2707FA0CF7BA434D
:1005B000870005FA07F73A43282904D10127874025
:1005C0001F40676105E0482903D1012787401F408C
:1005D00027612260471CB8B20828DED3082022E039
:1005E000012787401F40E7B16268A0F108074FEA82
:1005F000870C0F2707FA0CF7BA43A0F10807BF00D2
:1006000005FA07F73A43282904D1012787401F40FC
:10061000676105E0482903D1012787401F40276112
:100620006260471CB8B21028DAD3F0BD0246906869
:10063000084008B1012070470020FCE7FFF718FED2
:10064000FFF7CCFD00BFFEE72DE9F04103460D4664
:10065000164600240027A0462A48006800F4E060FF
:10066000B0F5E06F03D100BF4FF0040830E025483B
:10067000006800F4E060B0F5C06F03D101274FF0CF
:10068000030825E01F48006800F4E060B0F5A06FA3
:1006900002D10227B8461BE01A48006800F4E06067
:1006A000B0F5806F03D103274FF0010810E0154823
:1006B000006800F4E060B0F5407F03D104274FF0FC
:1006C000000805E04FF4A06000F020F80227B846CB
:1006D000C7F1040005FA00F4C8F104010F20C84076
:1006E0003040044324010848C45403F01F01012092
:1006F00088405911890001F1E021C1F80001BDE8ED
:10070000F08100000CED00E000E400E0024901434C
:10071000024A1160704700000000FA050CED00E08D
:10072000064A02EB9011096800F01F0301229A406B
:100730001143024B03EB901211607047001002400E
:10074000002000213F4A126842F480323D4B1A607B
:1007500000BF401C3B4A126802F4003119B94FF641
:10076000FF729042F5D1374A126802F400320AB99A
:1007700000BFFEE7334AD26942F08052314BDA6162
:10078000314A126842F440422F4B1A602D4A526897
:100790002C4B5A601A4652685A601A46526842F404
:1007A00080625A601A46526822F440325A601A46F1
:1007B000526842F440325A601A465268234B1A403B
:1007C000204B5A601A465268214B1A431D4B5A60FF
:1007D0001A46126842F080721A6000BF194A126805
:1007E00002F00072002AF9D0174A126842F48032EF
:1007F000154B1A6000BF144A526802F48032002A76
:10080000F9D0114A126842F400320F4B1A6000BF4F
:100810000D4A526802F40032002AF9D0094A52689F
:1008200022F00302074B5A601A46526842F0020255
:100830005A6000BF034A526802F00802002AF9D049
:10084000704700000010024000700040FFFFC3B777
:100850000000340810B5FFF773FF10BD7C080008D6
:100860000000002024000000C8030008A0080008C1
:100870002400002004040000D80300080206000041
:1008800000080140000100000606000000180140B9
:100890004000000007060000001C0140400000006E
:0400000508000131BD
:00000001FF
