:020000040800F2
:100000008863002045010008B9120008110F00089C
:10001000B512000899090008B91F00080000000087
:100020000000000000000000000000007919000836
:10003000A50900080000000019130008AD19000808
:100040005F0100085F0100085F0100085F01000810
:100050005F0100085F0100085F0100085F01000800
:100060005F0100085F0100085F0100085F010008F0
:100070005F0100085F0100085F0100085F010008E0
:100080005F0100085F0100085F0100085F010008D0
:100090005F0100085F0100085F0100085F010008C0
:1000A0005F0100085F0100085F0100085F010008B0
:1000B0005F0100085F010008C51B00085F01000820
:1000C0005F0100085F0100085F0100085F01000890
:1000D0005F0100081D1F00085D1F00085F01000888
:1000E0005F0100085F0100085F0100085F01000870
:1000F0005F0100085F0100085F0100085F01000860
:100100005F0100085F010008FD1B00085F01000897
:100110005F0100085F0100085F0100085F0100083F
:100120005F0100085F0100085F0100085F0100082F
:10013000DFF80CD000F018FC00480047BD5700085D
:10014000886300200648804706480047FEE7FEE730
:10015000FEE7FEE7FEE7FEE7FEE7FEE7FEE7FEE777
:10016000D5190008310100082DE9F05F054600208F
:1001700092469B4688460646814640241BE0284618
:1001800041464746224600F0F2FA53465A46C01A04
:10019000914110D311461846224600F0D9FA2D1A83
:1001A00067EB01084F4622460120002100F0D0FAFB
:1001B00017EB00094E41201EA4F10104DFDC484684
:1001C00031462A464346BDE8F09F2DE9FE43994655
:1001D00015468846074601AC022942D3002D40D07F
:1001E00000200290A8F101004FF0FF36009022E0BD
:1001F00000FB057201FB057011464A469047002836
:1002000005DC54F82600304444F8260013E060680A
:100210002A4600FB057154F8040C00FB057007E04A
:100220000B7890F800C001F801CB00F8013B521E9A
:10023000002AF5D1764254F8040C61688842D7DC74
:100240004B462A463846FFF7C0FF54F8040C4B468D
:10025000A8EB0001401C00FB05702A46491EFFF771
:10026000B4FFBDE8FE8340EA01039B0703D009E029
:1002700008C9121F08C0042AFAD203E011F8013B92
:1002800000F8013B521EF9D27047D2B201E000F8EB
:10029000012B491EFBD270470022F6E710B513462A
:1002A0000A4604461946FFF7F0FF204610BD421CDF
:1002B00010F8011B0029FBD1801A7047CBB203E074
:1002C0000178994203D0401C521EF9D20020704799
:1002D00030B504460020034600E05B1C934203D285
:1002E000E05CCD5C401BF8D030BD2DE9FE4F804670
:1002F00081EA0300C00F0C46009021F0004123F07A
:100300000045B8EB0200A94105D24046214690467F
:100310001C460B46024623F00040104347D0270DF1
:10032000C7F30A00C3F30A510290401A0190402813
:100330006BDAC3F3130040F4801B0098924620B19F
:100340000023D2EB030A63EB0B0B01985946C0F173
:100350004002504600F0FCF906460D46504659460C
:10036000019A00F014FA10EB08006141002487EABA
:10037000115284EAE7731A4340D0009A62B3019A9B
:10038000012A4FEA075215DC001B61EB02014FF016
:10039000004202EA0752CDE90042001C41F58011FB
:1003A00032462B4600F061FA03B0BDE8F08F4046BC
:1003B0002146F9E7001B61EB0201001C41F58013A7
:1003C00000185B412018A2F5001747EB030140EA33
:1003D000D570B6196D4111E06D084FEA360645EA51
:1003E000C0754FEA0752001B61EB0201001C41F58A
:1003F000801149084FEA30000019514132462B461E
:1004000003B0BDE8F04F00F021BA0098012240008F
:100410000023D0EB020263EBE073009821464FEA21
:10042000E074B8EB000061EB0401E9E783F00043FE
:100430005BE781F0004158E72DE9FE4F81EA0304B4
:1004400004F0004421F0004100944FF0000B23F031
:10045000004350EA01045ED052EA03045BD0C3F3C8
:100460000A54C1F30A552C44A4F2F3340194A0FBBE
:100470000254C1F3130141F48011C3F3130343F495
:10048000801301FB024400FB034E840A970A44EAEE
:10049000815447EA8357A4FB076802958D0A05FB40
:1004A00007854FEA932C04FB0C542705029D4FEA65
:1004B000065847EA1637B5EB08056EEB070C870EB2
:1004C000920E47EA811742EA8312A7FB0201B6EBBC
:1004D0000B0164EB00042B0D43EA0C335E1844EB74
:1004E0001C50DA465146E7FB0201C5F313044FEAFC
:1004F0000B3343EA14534FEA0432019C43EA0603E8
:10050000A4F10C040294009CCDE900B400F0ADF914
:1005100003B0BDE8F08F00200146F9E72DE9F04D6A
:1005200081EA030404F0004B21F0004514464FF02B
:10053000000A23F0004150EA050220D054EA0102EB
:100540001DD0C5F30A570246C5F31303C1F31300C8
:10055000C1F30A5640F4801543F48013A7EB060854
:10056000101BD64608F2FD3873EB050002D308F1E4
:10057000010801E092185B41B8F1000F03DA002096
:100580000146BDE8F08D00204FF4801106468446F8
:100590000EE0171B73EB050705D3121B63EB050376
:1005A00006434CEA010C49084FEA300092185B41BF
:1005B00050EA0107EDD152EA030012D082EA0400AA
:1005C00083EA0501084305D0101BAB4106D2012286
:1005D000002306E000224FF0004302E06FF001022A
:1005E00053101AEB06004CEB085110EB0A0041EBDC
:1005F0000B01BDE8F04D00F029B930B5041E71F1D2
:10060000000404DB4FF00044404264EB0101141E7F
:1006100073F1000405DB1C464FF00043524263EBCC
:100620000403101A8B4101D2012030BD002030BDDF
:1006300030B5041E71F1000404DB4FF00044404269
:1006400064EB0101141E73F1000405DB1C464FF03E
:100650000043524263EB0403101A8B4101D3012083
:1006600030BD002030BD30B5041E71F1000404DB44
:100670004FF00044404264EB0101141E73F100048A
:1006800005DB1C464FF00043524263EB040342403B
:100690004B401A4301D0002030BD012030BD0EB5C3
:1006A000C10F80EAE0700844CA07002140F23343DA
:1006B0008DE80E000A460B4600F0D7F803B000BDE7
:1006C00070B5C1F30A5201F000450024C1F31301D3
:1006D00040F2FF3341F480119A4201DA002070BDEC
:1006E00040F233439A42A2F2334203DC524200F01A
:1006F0003EF800E090402C43F1D0404270BD00F045
:10070000004230F000400AD0C10D01F56071C0F325
:10071000160042EA0151C208400711437047002009
:100720000146704730B50B460146002020220124C7
:1007300009E021FA02F59D4205D303FA02F5491BAF
:1007400004FA02F52844151EA2F10102F1DC30BDC5
:10075000202A04DB203A00FA02F100207047914081
:10076000C2F1200320FA03F3194390407047202A76
:1007700004DB203A21FA02F00021704721FA02F34B
:10078000D040C2F120029140084319467047202A08
:1007900006DBCB17203A41FA02F043EAE07306E0A9
:1007A00041FA02F3D040C2F12002914008431946B9
:1007B00070470000014900F003B800004800002025
:1007C00010B500683C22B0FBF2F302FB1303B0FB50
:1007D000F2F00B60B0FBF2F302FB1303B0FBF2F09C
:1007E00018224B60B0FBF2F302FB1303B0FBF2F0F4
:1007F000021D8B600723B2FBF3F403FB142280007D
:1008000040F2B55300F66C308A61B0FBF3F2B0FBF6
:10081000F3F403FB1400443280084A61C8613B28AA
:1008200002D3920700D0401C0022074C13460A61F5
:10083000E25C824203D8801A5B1C0B61F8E7401C23
:10084000C860084610BD0000626E000810B5141E96
:1008500073F1000408DA401C41F1000192185B4179
:100860001A4301D120F0010010BD2DE9F04D924650
:100870009B4611B1B1FA81F202E0B0FA80F2203267
:100880009046FFF765FF04460F4640EA0A0041EA3A
:100890000B0153465A46084313D0114653EA010050
:1008A00019D0C8F140025046FFF761FF05460E46D9
:1008B000504659464246FFF74BFF084305D00120FA
:1008C00004E020463946BDE8F08D0020054346EAA5
:1008D000E0762C4337430A986305E40AA0EB08004E
:1008E0000022FD0A44EA47540A3002D5002001469E
:1008F000E9E7010510196941DDE908450019694179
:10090000BDE8F04DA2E7C1F30A52C1F3130140F272
:10091000FF3341F480119A4202DA00200146704709
:1009200040F233439A42A2F2334202DC5242FFF7D2
:100930001EBFFFF70DBF000030B5041E71F10004AB
:1009400004DB4FF00044404264EB0101141E73F1DC
:10095000000405DB1C464FF00043524263EB0403E6
:10096000994208BF904230BD1CB509480090094823
:1009700001900546009C06E0E06840F0010394E821
:10098000070098471034AC42F6D3FFF7D5FB0000C0
:100990006076000880760008FEE70000008809887D
:1009A000401A70477047000070B541F20405CEF25E
:1009B00000052E680446012005F02CFA4DF68361EF
:1009C000C4F21B31A0FB0101880C60432968891B1C
:1009D0008142FBD370BD00004EF6FC50CEF2000009
:1009E000016821F080710160016841F0807101604F
:1009F00041F20000CEF20000016821F00101016027
:100A0000016841F001010160002141607047000070
:100A1000F0B581B040F60045C4F2010505F540642B
:100A20002046042104F058FE0626002719E000BFE6
:100A300028464FF4004104F04FFE28464FF4005181
:100A4000760004F04BFE28464FF4804104F0AAFEE5
:100A500028464FF4005104F03FFE072F07F101072D
:100A600009D270B2B0F1FF3FE2DC28464FF40041FA
:100A700004F034FEE1E72046042101B0BDE8F04077
:100A800004F02CBE2DE9F04140F600450446C4F2C6
:100A90000105FFF7BDFF05F540684046042104F05D
:100AA0001BFE2027002618E028464FF4004104F0E2
:100AB00013FE28464FF400517F0004F00FFE284635
:100AC0004FF4804104F06EFE28464FF4005104F0CC
:100AD00003FE072E06F1010609D278B2B0F1FF3FFE
:100AE000E2DC28464FF4004104F0F8FDE1E7270C72
:100AF000002618E028464FF4004104F0EDFD28469A
:100B00004FF400517F0004F0E9FD28464FF4804186
:100B100004F048FE28464FF4005104F0DDFD072E96
:100B200006F1010609D278B2B0F1FF3FE2DC2846B7
:100B30004FF4004104F0D2FDE1E7270A002618E057
:100B400028464FF4004104F0C7FD28464FF40051F9
:100B50007F0004F0C3FD28464FF4804104F022FEDC
:100B600028464FF4005104F0B7FD072E06F10106A8
:100B700009D278B2B0F1FF3FE2DC28464FF40041E1
:100B800004F0ACFDE1E7002619E000BF28464FF471
:100B9000004104F0A1FD28464FF40051640004F028
:100BA0009DFD28464FF4804104F0FCFD28464FF49B
:100BB000005104F091FD072E06F1010609D260B242
:100BC000B0F1FF3FE2DC28464FF4004104F086FD1F
:100BD000E1E74046042104F081FDBDE8F04101F069
:100BE0002FBA000070B504466FF31F30C0F5805671
:100BF00020460D46FFF746FFB54298BF70BDA81BC3
:100C0000050B2806344407D02046013DFFF73AFF84
:100C1000280604F58054F7D12046BDE87040FFF760
:100C200031BF000070B5ADF5805D40F2902047F215
:100C30007C21C2F20000C0F60001012202F022FE77
:100C400004460D280AD147F27C20C0F600006A460F
:100C500000214FF4805302F099FA78B11CB112A030
:100C6000214605F085FCB4FA84F041F2C821400920
:100C7000C2F2000108700DF5805D70BD47F27C2462
:100C8000C0F6000400202146012202F0FBFD40F2E4
:100C90009020C2F200002146012202F0F3FD04463A
:100CA000002CDCD1DFE700BFB3F5CABCBBAFCAA7DD
:100CB000B0DCA3ACB4EDCEF3C2EBA3BA25642E0A2C
:100CC000000000002DE9F0438BB041F2C820C2F2D1
:100CD00000000078012859D141F2183047F27F21F5
:100CE000C2F20000C0F60001322202F01DFE68B11F
:100CF000024647F2442047F27F21C0F60000C0F6CA
:100D000000010BB0BDE8F04305F032BC09A800F0CB
:100D1000C3F807A800F0DCF80898BDF824809DF817
:100D200026909DF827609DF828709DF829409DF831
:100D30002A50FFF7E4FC41EC100B9DF81C0047F231
:100D4000F411069041F21830C2F20000C0F6000122
:100D500042464B468DED040BCDE9006702940395A6
:100D600002F036FFB0F1FF3F02DC0AA005F000FC04
:100D700041F21830C2F2000002F0B6F930B101467B
:100D800047F26120C0F6000005F0F2FB0BB0BDE8B1
:100D9000F08300BFD0B4B2D9D7F7CAA7B0DCA3A103
:100DA000A3A1A3A10000000041F2C920C2F20000EB
:100DB000007870472DE9F04F81B046F60470C0F618
:100DC0000000041D41F2D020C2F2000000F108052D
:100DD00000264FF0010940F2E93B4FF0030A0027DB
:100DE0004FF0000817E000F083F8D5E90023801ADF
:100DF0009941B0EB0B0071F1000028BF05F808AC79
:100E00000020010644D101370C3408F10108042FF9
:100E100005F110053CD0D4E9000104F0C3FC15F83D
:100E2000081C0329ECD8DFE801F0020B131B002893
:100E3000E6D105F8089C00F05BF8C5E90001DFE7A2
:100E4000C0B1002005F8080C0106DCD020E000BF8E
:100E50000028C8D005F8086C781C0106D3D017E02C
:100E600000281ABF05F8086CA8F17F0000200106D1
:100E7000C9D00DE000F03CF8D5E90023801A994173
:100E80000B3871F1000024BF022005F8080CB7E709
:100E9000C0B201B0BDE8F08F10B582B0044605F0D5
:100EA00009F900F5E140019001A8FFF783FC818A70
:100EB000027C01F26C712180511CA170D0E90012FA
:100EC000D0E902036271E3702071A17102B010BD1C
:100ED000002808BF704710B5044600F011F884EDF3
:100EE000010AFFF761FF2070BDE810407047000065
:100EF00042F24830C2F20000D0E900017047000021
:100F000042F25030C2F2000090ED000A704700003B
:100F1000FEE7000080B588B00020CDE90600FFF7AD
:100F200049FF411E032908D98138032822D8DFE868
:100F300000F00253292300204FE0DFE801F00225F2
:100F4000393F002000F0DAFF06A8FFF7A5FF9DF863
:100F50001C009DF81DC0BDF818109DF81A209DF8C2
:100F60001B309DF81EE0CDE9000C29A0CDF808E06B
:100F700005F0FEFA08B080BD002000F0AFFF0120B0
:100F800000F0ACFF022028E0012000F0B7FF04A829
:100F9000FFF79EFF0598FFF7B2FB9DF810C00246D1
:100FA00010A00B46CDF800C005F0E2FA08B080BDF5
:100FB000022008B0BDE8804000F0A0BF002000F093
:100FC0009DFF012000F09AFF022000F097FF08B07B
:100FD000BDE8804000F0A2B9012008B0BDE8804023
:100FE00000F07CBF74656D70657261747572652008
:100FF0003D20252E316620A1E62C2068756D6964A0
:10100000697479203D20256425252E0A0000000002
:1010100025642D253032642D253032642025303270
:10102000643A253032643A253032640A0000000008
:1010300070B584B040F2046005F002F842F6000496
:10104000C4F20104A4F5C05000210122102300269F
:1010500004F04CFB40F2036004F0F2FFA4F5E0550D
:10106000284610210122012304F040FB28461021CC
:101070000122022304F03AFB28460121012204F058
:101080002FFB28460221002204F02AFB40F20A60CE
:1010900004F0D6FF022004F06FFE204601F0AAF80B
:1010A0002046002101F07AF9002001F00DF92046D8
:1010B0000221002201F08CF92046002101F090F875
:1010C00020460121012201F06DF8204600210E2268
:1010D000062301F025F9204601214FF4602201F09A
:1010E000D7F820460121012201F0B2F8204601F094
:1010F000A5F81420FFF758FC204601F043F840F211
:10110000037004F09DFFA4F58E34204605F074F8BA
:101110006D46284605F046F97720009040F2E7300A
:10112000029020462946ADF8046005F0CDF820462F
:10113000012105F023F932200021002204F020FDD6
:10114000204605F0BBF804B070BD00002DE9F04169
:101150008AB00DF1040805463C2840464FF02401B2
:1011600028BF3C25FFF798F834206843020A02EBB9
:101170008200281AC0B218B347F2200302EBC20261
:10118000C0F6000303EB820246F26765A8F1020194
:1011900022321223C6F2666532F8024F013B32F862
:1011A000246CA4EB060400FB04F454FB05F44FEAA2
:1011B000540707EBD477374421F8027FECD10BE0DA
:1011C00047F2200102EBC200C0F6000101EB8001F2
:1011D00001A82422FFF747F840F28C20C2F2000059
:1011E000008811220021002357B25EB2BF1B07EB1B
:1011F000D77703EB57077EB238F81660864238BFC0
:101200007B1C28BF7A1E5BB252B2864228BF394689
:101210009342E9DD0A0610D049B24A1E38F812306E
:1012200038F81110C01A00EB8000C91A90FBF1F0D9
:1012300002EB820108440A3000E00A2041F2C92191
:10124000C2F2000108700AB0BDE8F08170B546F640
:1012500004756FF00B04C0F6000500BF2E19B089AD
:1012600004F0EEFED6E904030421022204F03EFA63
:101270000C34242CF2D170BDF0B581B046F6347731
:101280006FF00B06C0F60007BC19A08904F0D8FE69
:10129000D4E904451021204602222B4604F026FA08
:1012A0002046294604F018FA0C36182EECD101B06D
:1012B000F0BD0000FEE7000070470000B0B540F24E
:1012C000066004F0BDFE40F60044C4F2010404F5DB
:1012D0004065284610210122042304F007FA40F259
:1012E000036004F0ADFE2046102101224FF420439C
:1012F00004F0FCF92046482101224FF4804304F019
:10130000F5F92846042104F0E9F920464FF400518C
:10131000BDE8B04004F0E0B97047000070B59AB085
:1013200041F2C820C2F200000078012853D141F2F6
:10133000183047F27F21C2F20000C0F600010122FE
:1013400002F0F2FA68B1024647F2442047F27F21E8
:10135000C0F60000C0F600011AB0BDE8704005F00C
:1013600007B901AC20466421FEF796FF41F218321E
:10137000C2F200022046642101F0D6FEA8B141F27B
:10138000183616A401ADC2F2000600BF2046294659
:1013900005F0EEF828466421FEF77EFF284664211A
:1013A000324601F0C1FE0028F0D141F21830C2F2FD
:1013B000000001F099FE014638B947F27F20C0F6DF
:1013C000000003F095FC014628B147F26120C0F609
:1013D000000005F0CDF81AB070BD00BF2573000005
:1013E0002DE9F04740F60046924689460746C4F28A
:1013F0000106FFF70DFB06F540684046042104F0A6
:101400006BF90225002418E030464FF4004104F047
:1014100063F930464FF400516D0004F05FF9304637
:101420004FF4804104F0BEF930464FF4005104F00F
:1014300053F9072C04F1010409D268B2B0F1FF3F5F
:10144000E2DC30464FF4004104F048F9E1E73D0C9E
:10145000002418E030464FF4004104F03DF93046D6
:101460004FF400516D0004F039F930464FF48041DB
:1014700004F098F930464FF4005104F02DF9072C90
:1014800004F1010409D268B2B0F1FF3FE2DC30465A
:101490004FF4004104F022F9E1E73D0A002418E08E
:1014A00030464FF4004104F017F930464FF4005134
:1014B0006D0004F013F930464FF4804104F072F9E6
:1014C00030464FF4005104F007F9072C04F10104F1
:1014D00009D268B2B0F1FF3FE2DC30464FF4004180
:1014E00004F0FCF8E1E7002419E000BF30464FF4B7
:1014F000004104F0F1F830464FF400517F0004F051
:10150000EDF830464FF4804104F04CF930464FF48A
:10151000005104F0E1F8072C04F1010409D278B27B
:10152000B0F1FF3FE2DC30464FF4004104F0D6F862
:10153000E1E7B9F1000F2ED0002704E001374F4555
:101540000AF1010A27D09AF80040002519E000BFEF
:1015500030464FF4004104F0BFF830464FF40051DC
:10156000640004F0BBF830464FF4804104F01AF9EF
:1015700030464FF4005104F0AFF8072D05F1010596
:10158000DCD260B2B0F1FF3FE2DC30464FF4004104
:1015900004F0A4F8E1E74046042104F09FF8BDE818
:1015A000F04700F04DBD00002DE9F04F81B040F64E
:1015B0000047C4F2010707F540688A4606464046E0
:1015C0000421914604F088F80324002519E000BFA7
:1015D00038464FF4004104F07FF838464FF400518C
:1015E000640004F07BF838464FF4804104F0DAF8E8
:1015F00038464FF4005104F06FF8072D05F101054E
:1016000009D260B2B0F1FF3FE2DC38464FF400414E
:1016100004F064F8E1E7340C002518E038464FF494
:10162000004104F059F838464FF40051640004F0CA
:1016300055F838464FF4804104F0B4F838464FF47A
:10164000005104F049F8072D05F1010509D260B2F7
:10165000B0F1FF3FE2DC38464FF4004104F03EF8C1
:10166000E1E7340A002518E038464FF4004104F061
:1016700033F838464FF40051640004F02FF8384630
:101680004FF4804104F08EF838464FF4005104F0D6
:1016900023F8072D05F1010509D260B2B0F1FF3F33
:1016A000E2DC38464FF4004104F018F8E1E700248A
:1016B00019E000BF38464FF4004104F00DF83846F9
:1016C0004FF40051760004F009F838464FF4804199
:1016D00004F068F838464FF4005103F0FDFF072C82
:1016E00004F1010409D270B2B0F1FF3FE2DC3846E8
:1016F0004FF4004103F0F2FFE1E7BAF1000F32D0FE
:101700004FF0000B06E000BF09F80B600BF1010B76
:10171000D34528D0FF2400251BE000BF38464FF4F6
:10172000004103F0D9FF38464FF40051640003F044
:10173000D5FF38464FF4804104F034F840EA4606BD
:1017400038464FF4005103F0C7FF072D05F101059E
:10175000DAD260B2B0F1FF3FE0DC38464FF400412E
:1017600003F0BCFFDFE74046042101B0BDE8F04FC5
:1017700003F0B4BF2DE9F04740F60046C4F201067D
:1017800006F540688A4681464046042103F0A4FFDE
:101790009F24002519E000BF30464FF4004103F0BC
:1017A0009BFF30464FF40051640003F097FF304632
:1017B0004FF4804103F0F6FF30464FF4005103F040
:1017C0008BFF072D05F1010509D260B2B0F1FF3F93
:1017D000E2DC30464FF4004103F080FFE1E7FF25F3
:1017E00000271AE030464FF4004103F075FF304601
:1017F0004FF400516D0003F071FF30464FF480410B
:1018000003F0D0FF40EA440430464FF4005103F0A7
:1018100063FF072F07F1010709D268B2B0F1FF3F5C
:10182000E0DC30464FF4004103F058FFDFE7FF27CC
:10183000002589F800401AE030464FF4004103F0DB
:101840004BFF30464FF400517F0003F047FF304616
:101850004FF4804103F0A6FF40EA440430464FF4C1
:10186000005103F039FF072D05F1010509D278B2C7
:10187000B0F1FF3FE0DC30464FF4004103F02EFFB3
:10188000DFE72002FF270025AAF800001BE000BFC9
:1018900030464FF4004103F01FFF30464FF4005133
:1018A0007F0003F01BFF30464FF4804103F07AFFC6
:1018B00040EA440430464FF4005103F00DFF072D79
:1018C00005F1010509D278B2B0F1FF3FE0DC304606
:1018D0004FF4004103F002FFDFE7BAF80000E1B285
:1018E00040EA010240460421AAF80020BDE8F04782
:1018F00003F0F4BE10B5012000F0A0FD044640F254
:101900001C7004F09DFB40F21B7004F099FB04F086
:1019100089F945F65A20844205D104F001FCBDE85E
:10192000104004F0E3BB00F081FD4FF4006004F0D0
:10193000D9FA4FF4006004F0E5FA4FF4807004F037
:10194000AFFB40F60F0004F07BFB04F0E9FB04F072
:10195000CDFB47F6FF7004F0D1FB04F0C7FB42F665
:10196000D840C6F2216004F0AFFB012045F65A21B1
:10197000BDE8104000F07CBD7047000000F008B8E2
:1019800080B500F0B7F9BDE88040FFF751BB00001B
:1019900080B500F007FAFFF7B3FABDEEC00A10EE0B
:1019A000100ABDE88040FFF7D1BB000042F248308A
:1019B000C2F20000D0E90012013142F10002C0E998
:1019C000001241F21430C2F200000068002808BF83
:1019D0007047004781B04EF68851CEF200010A6888
:1019E00041F2040C42F47002C4F2020C0A605CF88A
:1019F000041C41F001014CF8041C00BF5CF8041CFD
:101A00008907FBD5DCF8001041F08001CCF800100C
:101A100000210091009A4F2A06D800BF009A013297
:101A20000092009A502AF9D3DCF8002042F090028C
:101A3000CCF80020009100994F2905D80099013178
:101A4000009100995029F9D3DCF800104FF6FF728D
:101A500021F00301CCF800105CF8041CCFF6F6620C
:101A600011404CF8041C4FF41F01CCF804105CF832
:101A7000041C21F480214CF8041C0021CCF8001037
:101A8000CCF828105CF8042C42F480324CF8042C7A
:101A90004FF6FE725CF8040C013A41F1000380033A
:101AA00001D4002BF6D15CF8040C800301D400BFF4
:101AB000FEE7DCF8180047F2000140F08050C4F265
:101AC0000001CCF8180008684FF6FF7240F440405F
:101AD0000860DCF80000CBF2C372CCF80000DCF840
:101AE0000000CCF80000DCF8000040F48060CCF886
:101AF0000000DCF8000020F44030CCF80000DCF8F6
:101B0000000040F44030CCF80000DCF80000104049
:101B1000CCF80000DCF8000040F0006040F4501009
:101B2000CCF800005CF8040C40F080704CF8040C19
:101B30005CF8040C8001FBD5086840F48030086034
:101B40004868C003FCD5086840F40030086000BF56
:101B500048688003FCD5DCF8000020F00300CCF8D6
:101B60000000DCF8000040F00200CCF8000000BFEC
:101B7000DCF800000007FBD501B0704780B50120FC
:101B800004F048F944F6D351C1F26201A0FB01010F
:101B90004FF0FF3000EB9110B0F1807F10D24EF289
:101BA0001001CEF2000148604EF62350CEF2000044
:101BB000F0220270002088600720086080BD00BF0E
:101BC000FEE7000010B540F60004C4F20004204611
:101BD000012104F0DBFB002808BF10BD20460121D5
:101BE00004F0D0FB2046002104F004FB42F28430D4
:101BF000C2F200000068BDE810400047B0B540F6F2
:101C00000044C4F20104A4F580352846012104F003
:101C1000BDFB00284BD02846012104F0B3FB40F265
:101C20008825C2F2000528880130C107288015D117
:101C30002046012103F0BCFDB0FA80F042092046A5
:101C4000012103F04DFD2046022103F0B1FDB0FA61
:101C500080F042092046022103F042FD288845F623
:101C600029410138CCF28F2148434DF20A714FEAE5
:101C70003010C0F2A301884288BFB0BD04F5E05423
:101C80002046012100F096FB2046022100F016FBC1
:101C90000028F9D0204600F07DFB054620460221B1
:101CA00000F008FB40F28C20C2F200000580B0BDBD
:101CB00080B540F2200E0020C2F2000E4FF0010C61
:101CC00004E000BF0C30242808BF80BD0EEB0003E9
:101CD0005A88002AF6D0013A11045A80F2D1998824
:101CE0000EF800C05980EDE741F21431C2F2000154
:101CF0000860704710B540F2046004F0A1F942F2A8
:101D00000044C4F20104A4F5A050002101220823DC
:101D100003F0ECFC40F2096004F092F9022004F0B8
:101D20002BF8204600F066FA2046002100F036FB32
:101D3000002000F0C9FA20460221012200F048FBF1
:101D40002046002100F04CFA20460121012200F03B
:101D500029FA204600210D22072300F0E1FA20464F
:101D600001214FF4602200F093FA20460121012264
:101D700000F06EFA2046002180220C2300F0B0FA19
:101D8000204600F0C5FA204600F058FA1420FEF76D
:101D90000BFE204600F0F6F920460121BDE8104078
:101DA00000F008BBB0B542F20045C4F2010500BF27
:101DB0002846022100F082FA0028F9D0284600F0D7
:101DC000E9FA04462846022100F074FA46F6587CE7
:101DD00063220021C0F6000C002300BF55B258B2A8
:101DE000281A00EBD07003EB500045B23CF81550B8
:101DF000A54288BF431C98BF421E5BB252B2A542A7
:101E000098BF01469342E9DD080612D048B2411E50
:101E10003CF811203CF81000131B03EB83035B001C
:101E2000101A93FBF0F001EB810100EB410001B2CD
:101E300000E0002140F28622C2F20002137842F252
:101E40005430C2F2000040F82310591CCBB2CD250B
:101E50006B43DB0A03EB8303A1EB430340F28A21CC
:101E6000C2F200010D7813706B1CDAB2022A0B70FB
:101E700001D8006823E00B2A24BF0A2008700D78DF
:101E800042F25434C2F2000440F69D13C0F600033F
:101E9000204629460422FEF798F9A81E01060AD01A
:101EA000221FC3B2002100BF9568013B294402F103
:101EB0000402F9D100E00021C0B291FBF0F000EE85
:101EC000100AB8EEC00AB2EE041A80EE010A42F21D
:101ED0005030C2F2000080ED000AB0BD032888BF78
:101EE000704746F6347100EB4000C0F6000101EB8C
:101EF0008000D0E9010103F0EFBB0000032888BF98
:101F0000704746F6347100EB4000C0F6000101EB6B
:101F10008000D0E9010103F0E1BB0000B0B540F260
:101F20000405C2F2000540F205342868C0F2050439
:101F3000214604F0DFFA002808BFB0BD286821461A
:101F400004F0CEFA286804F06BFA41F21031C2F2C4
:101F500000010968C0B2BDE8B040084770B540F262
:101F6000053544F20044C0F20505C4F2000405F151
:101F700001162046314604F0BDFA48B120463146EC
:101F800004F0AEFA42F28030C2F2000000688047EE
:101F90002046294604F0AEFA002808BF70BD20464E
:101FA000294604F09DFA42F27C30C2F2000000683B
:101FB000BDE8704000470000FEE7000010B540F2A9
:101FC0000404C2F20004A08904F03AF8A06823696E
:101FD0001821012203F08AFBA068636948210122CD
:101FE00003F084FBA08804F02BF8206804F020FAAA
:101FF0002068002104F0B4FA2068002104F08CFA73
:102000002068002104F09AFA20684FF4E13104F0CE
:10201000D1F92068082104F099FA2068042104F01D
:1020200083FA206840F2053104F04EFA207E002148
:10203000002203F0A5FD2068BDE8104004F036BA88
:102040002DE9F04381B040F60045C4F2010505F5E5
:1020500040684046042103F03FFB0526002418E0B9
:1020600028464FF4004103F037FB28464FF4005157
:10207000760003F033FB28464FF4804103F092FBD7
:1020800028464FF4005103F027FB072C04F101040C
:1020900009D270B2B0F1FF3FE2DC28464FF40041B4
:1020A00003F01CFBE1E748F2A069C0F2010904E07B
:1020B000F00718BFB9F1010926D0FF24002719E065
:1020C00028464FF4004103F007FB28464FF4005127
:1020D000640003F003FB28464FF4804103F062FBE9
:1020E000064628464FF4005103F0F6FA072F07F191
:1020F0000107DDD260B2B0F1FF3FE1DC28464FF4CA
:10210000004103F0EBFAE0E74046042101B0BDE8EE
:10211000F04303F0E3BA00002DE9F04381B05FFA29
:1021200080F9C9F5807788460546B942144620D91A
:10213000284639462246FFF753F9A8EB07013C44ED
:102140000E0A3D4413D0C84421F0FF0728464FF43F
:1021500080712246013EFFF743F905F58075002E98
:1021600004F58074F2D1A8EB0700A0F58071284631
:1021700001E028464146224601B0BDE8F043FFF7A2
:102180002FB90000816841F008018160816809076A
:10219000FCD4816841F00401816000BF8168490777
:1021A000FCD4704780B5012908D0022918BF80BD32
:1021B0004FF4401E6FF4401C382304E04FF4700EBF
:1021C0006FF4700C2C23195801EA0C0119500EEB16
:1021D00002511A5801EA0E011143195080BD000046
:1021E0008268002922F4006218BF02F50062826052
:1021F0007047000010B542F20041C4F2010188426C
:102200000FD043F60041C4F2010188420CD042F6DF
:102210000001C4F20101884218BF10BD40F20A3427
:1022200004E040F2093401E040F20F34204603F0AC
:1022300027FF2046BDE8104003F012BF8168C907A0
:1022400018BF7047816841F001018160704700004C
:1022500022B1CA0710D1890714D47047CA0703D026
:10226000826822F480128260890758BF70478168B3
:1022700021F4004181607047826842F480128260DC
:102280008907EAD5816841F4004181607047000008
:10229000012905D0022918BF70476FF4E04101E021
:1022A0006FF4602183681940816081681143816007
:1022B00070470000C9430160704700000068084093
:1022C00018BF01207047000042F20441C4F201012E
:1022D0000A6822F470220A600A6810430860704796
:1022E000D0F880C0B1F5007F2CF4007C08BF0CF55D
:1022F000007CC0F880C0D0F880101A4321F4FE7131
:10230000C0F88010D0F880101143C0F880107047DA
:10231000D0F8801041F00101C0F880107047000033
:1023200010B5052904D800F1340C01EB810E10E042
:102330000B2906D801EB810100F1300CA1F11E0E32
:1023400007E00F2910D801EB810100F12C0CA1F15D
:102350003C0EDCF800101F2404FA0EF4A14302FA2C
:102360000EF42143CCF80010092A03D8103002EBF8
:10237000420106E0112A88BF10BD02EB42010C3079
:102380001E39026807248C40A24303FA01F111436D
:10239000016010BDC06C80B270470000D0F8802092
:1023A00022F44052C0F88020D0F880201143C0F8B9
:1023B00080107047CA0703D0826842F480028260AE
:1023C000890758BF7047816841F4001181607047E8
:1023D00032B1CA0518D44A051CD4890720D47047E5
:1023E000CA0503D5426822F4807242604A0503D5CB
:1023F000426822F480624260890758BF7047816852
:1024000021F0020181607047426842F480724260AC
:102410004A05E2D5426842F4806242608907DED50F
:10242000816841F0020181607047000080B503F0CF
:10243000E7FCBDE8804003F0D9BC0000A0F10B012F
:102440001F2908D846F60041C4F2000141EA800085
:10245000143000887047411E092984BF002070474E
:1024600046F60041C4F2000141EA8000008870474E
:10247000A0F10B021F2A08D846F60042C4F200025F
:1024800042EA8000143001807047421E092A88BF4A
:10249000704746F60042C4F2000242EA8000018022
:1024A0007047000070B50446002020714FF0FF30E7
:1024B0006063204603F01EFB00281CBF042070BD93
:1024C00094F83800B4F83652E83803284AF655260E
:1024D00045D8022843D0B54206D104F18A0022A192
:1024E0000822FDF7F5FEC0B3B4F84300411E0140D9
:1024F000090434D1A0F5007080B2B0F5606F2ED819
:1025000094F8450058B3552101EA5001401A33218F
:1025100001EA900100F03300084400EB101000F0D5
:102520000F0001281BD8B4F84600C0B194F8480049
:102530000138012813D8B4F8490080B1B4F84B0031
:102540007F2807D894F85A0094F85B10000450EAEA
:10255000016004D0B4F84E0008B1002070BD032023
:10256000B54208BF022070BD4641543332202020BE
:10257000000000002DE9F04381B0D0F800808946CA
:10258000064639B13046494603F008F802280AD217
:1025900001247AE0D8F8145075B1D8F81C008542AF
:1025A00028BF012509E0044601303DD0D8F81C00C1
:1025B0004D46844201D268E00125D8F81800002871
:1025C00062D04D4518D1D8F81C006F1C874228BF37
:1025D00002273046394602F0E1FF0446013054D06C
:1025E000B4B3012C51D0D8F81400022804D3D8F881
:1025F0001C10884238BF0546002464B3404621467B
:102600004FF0FF3203F018FBB9F1000F05D020B9ED
:1026100040464946224603F00FFB40B10124012801
:1026200008BF4FF0FF3430E04FF0FF342DE0D8E921
:102630000601C8F81440023988429CBF0138C8F826
:10264000180098F8050040F0010088F805001CE02B
:102650003C46002CD2D12F46D8F81C0001378742C7
:1026600028BF022701D3022D0ED33046394602F08F
:1026700095FF0446013008D05CB1012C05D0AF4273
:102680004FF00004E8D100E00024204601B0BDE88E
:10269000F0833C46B2E700002DE9F04F87B01746C3
:1026A0008A4606AA01211D460646012400F0C8FC00
:1026B000002840F0B380DDF818B008244FF63F4002
:1026C00001960597E1B2BBFBF1F1814203D36400AF
:1026D0002106F7D1FF2428464FF480510295FDF7DB
:1026E000DBFDBBF1400FC0F08B8048F21F50C5F2FC
:1026F000EB10ABFB00014809029E0490E0B23F22C0
:102700004FF00008039000BF5AF828505C46642D33
:10271000049818BF05FB00F4652D28BF2C46A518AA
:10272000ABEB020928BF4C465D4588BF4C46002CE8
:1027300066D044F2051CC0F2104CA2FB0C50130CE6
:10274000170E111A86F8C831230A00EB510086F8DB
:10275000C97186F8CB31230C039F400986F8CC3130
:10276000230E150A86F8CD31B0FBF7F386F8C75172
:10277000059DA0EB801103FB170086F8C6211144CC
:10278000224486F8C251C025B2F1010E01F10101C7
:1027900086F8BF0105EA9300D946D346AEFB0CCAC2
:1027A00040EA010086F8C001AEEB0A000AEB5000D7
:1027B0004FEA5010B0FBF7F186F8C1314FF000033B
:1027C00086F8CA4143F1000401FB1703A0EB801017
:1027D0007044013086F8C33105EA91031843B8F11B
:1027E000020F86F8C40186F8C51109D844B1DA464B
:1027F000CB4608F101084A4506F11006FFF484AF04
:1028000002994AF65520A1F8FE0101980022012301
:1028100000F056FC0446002818BF0124204607B0EB
:10282000BDE8F08FF0B581B0044600790D46D0B117
:102830006078626B04F1380631460123012700F00D
:102840003FFCB0BBA36A616B226ACB1A00209342A3
:10285000207108D2E078022805D160780A44314618
:10286000012300F02DFCE169A81E0239884204D240
:10287000216B628900FB021600E0002604F1380596
:1028800028464FF480516663FDF706FD60890027F6
:1028900058B100BF6078F2192946012300F010FCFE
:1028A00018B9608901378742F4D360893F1A18BF8D
:1028B0000127384601B0F0BD2DE9F04F83B0D0F8C4
:1028C00000B00021044600F047FB064618B1304630
:1028D00003B0BDE8F08F4FF0FF3504F120094FF051
:1028E000FF084FF00D0AFF20E5620290A1695846EB
:1028F00003F000F906460028E9D1E7693878002896
:1029000000F0A480FA7AE52802F03F01A17103D01B
:1029100012070BD50F2909D0E5624FF0FF082046BA
:10292000002100F097F80028E0D091E00F2918D19D
:1029300094F82B104906F2D4410606D5797B00F0B5
:10294000BF00029121698046E1625FFA88F1884206
:10295000E3D1787B02998142DFD1788B10B30120DB
:102960006DE05FEA086011D100214FF0FF3000BF39
:102970003A18C9B24B08527843EAC11101300A280B
:102980001144F5D1C8B202998142A0D094F82B002D
:10299000C007C1D1384649460B22FDF799FC0028F3
:1029A000BAD194E73878DBF8101000F03F0000FB54
:1029B0000AF0CDF80090A0F10D094FF0000A0120B7
:1029C000019108E04FF6FF718E4220D10AF1010A11
:1029D000BAF10D0F21D046F6EE61C0F6000111F8F4
:1029E0000A1000287E5AEDD0B9F1FF0F0FD83046FB
:1029F00002F07CFB0199054631F81910084602F0F7
:102A000075FB854203D109F101093046DEE7DDF8A7
:102A1000009001204FF0FF350FE039784A46DDF88D
:102A2000009049064FF0FF3506D528B1019830F8DF
:102A3000120008B1012000E000204FF00D0AA8F1BB
:102A40000108002818BF4FF0FF3868E704263EE76A
:102A500006463CE72DE9F041044600690E4600F1C8
:102A60002007B7F5001F24BF0020A061A06958B35C
:102A70002568A98989B2B7FBF1F202FB117161B136
:102A8000A8892761B7FBF0F101FB107028443830AA
:102A9000E0610020C0B2BDE8F08161690130A06151
:102AA00061B1688901381042EAD1204602F076FD12
:102AB00002280DD20220C0B2BDE8F0812889B0EB17
:102AC000571FDDD80020A0610420C0B2BDE8F0810E
:102AD0008046013031D0E86980450CD2E969A8F11F
:102AE000020002398842C4F814801DD2296B6A8919
:102AF00000FB021019E0002EE4D061692046FFF7C8
:102B000039FD80460130032811D24FF6F871C0F22A
:102B1000FF0101EAC00040F20171C0F2020121FA96
:102B200000F0C0B2BDE8F0810020A061A8E728460F
:102B30004146FFF777FE0028D0D00120C0B2BDE8A3
:102B4000F08100002DE9F04F81B082690446002A2F
:102B500071D0266846F6EE6988464FF0FF0BC0F646
:102B600000094FF6FF7AFF273046114602F0C2FFF8
:102B7000002861D1E1690A78002A5CD0CD7A2E2A3A
:102B800005F03F03A37123D0E52A21D005F01F05EE
:102B9000083DB5FA85F56D09454519D10F2B52D180
:102BA000500606D591F80DB0206902F0BF02174615
:102BB000E062F8B282420BD1487B834508D1488B52
:102BC00080B10121013F002918BF4FF0FF3700E01D
:102BD000FF2720460021FFF73DFF68BBA269002ABE
:102BE000C2D129E008780D2200F0BF00D6F810C04D
:102BF0005043A0F10D020023012504E05045E0D12F
:102C000001330D2B0BD019F80300002D085AF5D015
:102C1000FF2AD6D82CF8120001320546F0E70878D2
:102C200000214006CED5002DCCD0FF2A94BF2CF831
:102C300012100121C6E7042000281CBF0021A16159
:102C400001B0BDE8F08F3A060FD100234FF0FF32FC
:102C50008F18DBB25E087F7846EAC31301320A2A76
:102C60003B44F5D1D9B28B45E6D04FF0FF31E1625C
:102C7000E2E700002DE9F04F87B0814690F82B0085
:102C800010F0A00F03D0062007B0BDE8F08FD9F8F0
:102C9000002009F1200A10694FF00B08023800BF2C
:102CA00030F8021F08F101080029F9D1DAF807000D
:102CB00099F82B300192DAE90012CDF80F00D8070D
:102CC0000392029178D041F2210740204FF0010B8E
:102CD000C0F2010705AD009389F82B000198DDF8DB
:102CE0000F2001690298039BCAF80000BBF1050F91
:102CF0005846CAF80720CAF8043014D90A8858463A
:102D00008AB100BF102300BF02F00104060444EAA8
:102D100040004FEA520248BF7840013BF4D131F8FD
:102D2000022F002AEED1002100F00F0202F1300341
:102D3000392B88BF02F137036A18D3714B1E102854
:102D400001F1060203D30009002A1946ECD1E91863
:102D5000D81D4FF07E03CB714FF0000108D000BFAB
:102D60001AF80130202B03D001318A42F8D10146F4
:102D7000072809EB010301F101019ABF2A5C013028
:102D80002022082983F82020F2D14846FFF794FD3D
:102D900030B90BF1010BBBF1640F9FD14FF0640B05
:102DA000BBF1640F03D1072007B0BDE8F08F042802
:102DB0001ED1009B89F82B304EF64F40C4F6C460FC
:102DC000A8FB0001012000EB91059807D9F80060ED
:102DD00048464FF0000158BF012500F0BDF850B142
:102DE000042808BF072010B3019C002800F0898048
:102DF00007B0BDE8F08F002709E000BF0137AF4200
:102E0000EED048460121FFF725FE0028E8D1D9F889
:102E10001810304602F06EFE0028E1D1D9F81C10DF
:102E20000978E529EAD00029E8D00027E9E7019CE4
:102E3000013DDAD0D9F81000A0EB4511484600F06A
:102E40008BF80028D1D14FF0000B1F2009EB0001B7
:102E50005FFA8BF25308497843EAC21201302A28FC
:102E600002EB010BF2D146F6EE684FF6FF77C0F6A3
:102E7000000800BFD9F81810204602F03BFE0028D9
:102E8000B3D1D9F81C000F222169A0F80B20EAB2B7
:102E90000D2672430023AC460D3A002580F80DB094
:102EA000438300BFBD421CBF31F81250013218F8F5
:102EB0000340002D03F1010300EB040605554FEA22
:102EC000152408BF3D460D2B7470EBD1BD426546FD
:102ED00002D145F0400106E031F8121000292946E0
:102EE00008BF45F04001019C017001202071484657
:102EF0000021FFF7AFFD00287FF477AF013DB9D186
:102F000073E7D9F81810204602F0F4FD00287FF48A
:102F10006FAFD9F81C100022CA618A614A610A6148
:102F2000CA608A604A600A60D9F81C10DAF800208A
:102F3000DAF80730DAF80470C1F807304F600A6039
:102F400099F82B10D9F81C2001F0180111730121F8
:102F5000217107B0BDE8F08FF0B581B00C461F219C
:102F6000CFF6E0710C4202D0022001B0F0BD8168C2
:102F700006680546046101B331B37089B28902FB6A
:102F800000F7A7420AD9F269881E023A904222D27B
:102F9000326B738900FB03201EE000BF284602F05D
:102FA000FDFA0146013029D00229DDD3F0698142C2
:102FB000DAD2E41BBC42F1D2E5E7307803282CBF1B
:102FC000F16A00210029D8D13089B0EB541FCBD948
:102FD000F06A002100E000200028C5E90510C3D0F8
:102FE000B18989B2B4FBF1F202FB114110443144C2
:102FF0003831C5E90601002001B0F0BD012001B063
:10300000F0BD0000C8B980B582B0FEF757F90DF1E8
:10301000070001A9FEF7AEFB9DF80700BDF80410FC
:1030200041EA004044F21801C0F2C801884202B0EF
:10303000BDE8804004BF00207047012070470000B9
:1030400008B1042070470846002908BF70470228CD
:1030500006D00128F5D14FF4805010600020704751
:103060004FF48050108000207047000000281CBFE3
:103070000420704780B58C46100319036246FEF7A2
:1030800093FA002080BD0000B8B980B582B00DF180
:10309000070001A9FEF76EFB9DF80700BDF80410BC
:1030A00041EA004044F21801C0F2C801884202B06F
:1030B000BDE8804004BF0020704701207047000039
:1030C00000281CBF0420704770B515031E030C4672
:1030D00028463146FDF786FD284631462246FFF751
:1030E0001BF8002070BD000010B5044601F09CFDE7
:1030F000002818BF10BD84B1206870B1017861B19B
:10310000A188C288914208D14078FFF7BDFF00F046
:103110000100404200F0090000E00920002804BF3F
:103120000021216010BD00002DE9F04782B0074664
:10313000924601200129D8BF01464D1E00260DF1FF
:103140000408E9463C4600BFB54212D0504641460D
:1031500001224B4601F064FC009801280BD19DF838
:1031600004000134B8550A2806F10106ECD1012605
:1031700002E02E4600E0BC190021002E08BF3746B1
:103180003846217002B0BDE8F08700002DE9F04F0D
:1031900095B01F4692460E46E8B10023C25C591C0A
:1031A000202A02D33A2A0B46F8D13A2A5DD1007878
:1031B0000229A0F130024FF0040008BF104604239A
:1031C0000A2A28BF18460428A8BF4FF0FF3000285D
:1031D00005D50B2650E04FF0FF300028F9D440F21F
:1031E0007401C2F2000151F82010C5B2284600292E
:1031F0001CBF00220A70FFF705FFC10739D1400745
:1032000039D40FF24864002E18BF3446606813901A
:1032100020B913AA28460321FFF712FF13980022B2
:10322000411EB2EBD13F15D14FF0553101EA5001AB
:10323000401A4FF0333101EA900120F0CC300844BD
:1032400000EB101020F0F0304FF001314843000E39
:10325000022801D3012013900DF1520228460221C9
:10326000FFF7EEFE60B1012606E000200028B6D58B
:10327000AFE7032600E00A26304615B0BDE8F08F20
:10328000BDF852800126A8F5007080B2B0F5606FDD
:10329000F2D845F2555000EA5800A8EB000043F27E
:1032A000333101EA90020840104400EB101000F4A2
:1032B000706100F00F0000EB11200128DCD894F8B9
:1032C0000190A168A9F101000228A1F101024FF0CB
:1032D000000628BF4FF00109B6EBD23F4FF4007053
:1032E00008D14FEA5812B1FBF2F303FB1212002A85
:1032F00008BF0846E1684FF0000B4A1E114208BFA4
:103300008B46B1F1807F88BFB346BAF1000F4FF012
:103310001106B1D0B8450D90AED800202478129097
:1033200012AA284601210126FFF78AFE0028A3D110
:1033300004F00F02072A4FF0000105D81298402828
:1033400022BF3F3812903F21129E802E01D20E26BE
:1033500092E702F003000228089104D012F0010164
:1033600001D1132688E7BBFBF8F4B7FBF8F102277D
:1033700002280392029108BF0327802C28BF8024D3
:1033800002F08CF9DDF848E03044BDF852100190AD
:103390004FEA1E300690481E05900D98139A400182
:1033A000531E5242CDE90912B0FBF1F008994FEAE1
:1033B0005E4C0B930490CDF830E002E01746BFF46A
:1033C0005BAFF8B20328264625D147F2A223B346C5
:1033D000C0F600035EB94FF0010B002033F8102057
:1033E000624504D8013006284FEA4B0BF6D1BEFBEC
:1033F000FBF00A22CFF2000200230244CFF20103C5
:103400009A42A4D3099A002302EB80000730B0FB54
:10341000F2FE20242CE0069B47F29424B346C0F62B
:1034200000045EB94FF0010B002034F810209342E5
:1034300004D3013006284FEA4B0BF6D1BEFBFBF05C
:10344000032300EB4002013203EB520240F6F57316
:1034500098424FF0040388BF03EB40024FF0010491
:1034600098BF27460598049B1044099AB0FBF2FECA
:103470003A4667180EFB09700797C7180B980E930A
:103480000A9B38441840D3B2032BA0EB07080DD099
:10349000B8FBF9F000FB1980002818BF0120A8EB49
:1034A0000001B1FBF9F180468E440899CDF83CE06B
:1034B000C1EB0B10DDF830E038448645FFF447AF30
:1034C0000E9808EB04070F9C384404FB0900032BFB
:1034D000AEEB0000B0FBFBF410D14FF6F570844268
:1034E0000CD8002E4FF00E067FF4C6AE4FEA5B04F8
:1034F000BBF1020F1746BFF464AFBDE6022B34D117
:103500004FF6F670844223D3B6FA86F041094FEAAB
:103510004B000024412838BF012411EA0408344636
:103520004FF0030718BF4FEA4B0418BF1746039923
:10353000890708993FF545AFB8F1000F7FF441AF17
:10354000002E4FF00E067FF497AE8128044635E733
:1035500040F6F570844208D8002E4FF00E067FF436
:103560008BAE4FEA4B04812C28E7012B04D140F6A7
:10357000F57084423FF6EBAEBDF852600AF10B00E5
:10358000A6F10B010C2E38BF00210B93FCF784FE33
:1035900043F25350C3F22E00CAF8070044F25340DE
:1035A000C5F24F30CAF804004FF6EB60C4F69050F5
:1035B000CAF80000300A8AF80C00380A8AF80F00AE
:1035C0000B980C9A03388AF80B608AF80DB08AF8C9
:1035D0000E708AF810900D9918BF08468AF81100ED
:1035E000000A8AF81200110C4FEA122009D08AF85A
:1035F0002100100E8AF820208AF822108AF8230071
:1036000003E08AF813208AF81400F8208AF81500DD
:103610003F20C0F2FF00CAF818000898019E8AF8FF
:103620001C000020AAF81D008AF81F000B980F9FAD
:10363000330A320C310E03284FEA172023D18AF8BF
:103640002500380C8AF82600380E8AF82700022058
:10365000CAF82C000120C0F20600CAF83000802011
:103660008AF8400029208AF843608AF844308AF8B2
:1036700045208AF846108AF824708AF842000AF138
:1036800047007BA114E08AF8170080208AF8240004
:1036900029208AF82A108AF826000AF12B006FA147
:1036A0008AF827608AF828308AF829208AF8167064
:1036B0001322FCF7D8FD4AF65520089AAAF8FE0115
:1036C0002846514601230126FFF7FAFC00287FF423
:1036D000D3AD0B9803280798804436D1089E28461E
:1036E000B21D51460123FFF7EBFCBDF852105046C6
:1036F000FCF7D2FD45F25220C4F26110CAF8000076
:1037000047F27220C6F24110CAF8E401601E010AB5
:103710008AF8E8018AF8E911010C000E8AF8EB0139
:103720000220CAF8EC014AF655208AF8EA11AAF8F4
:10373000FE01F21D284651460123FFF7C1FC721C11
:10374000284651460123FFF7BBFCBDF85200029901
:1037500041435046FCF7A0FDB9F1000F3BD00B9858
:103760000024411E18BF4FF0FF310D910AF10101F5
:103770000C9103284FF0F8008AF8000009D10C984A
:103780004FF0FF310181416001600F208AF80B008A
:1037900006E04FF6FF70AAF801000D988AF80300C2
:1037A0000F9F029E2846B74238BF3E4651464246CA
:1037B0003346FFF785FC00287FF455ADBDF8521065
:1037C0005046FCF769FDBF1BB044EAD101340B98A9
:1037D0004C45CED100E00B980E9C032808BF5C46F8
:1037E000029E2846B44238BF2646514642463346DA
:1037F000FFF766FC00287FF436ADA41BB044EFD180
:103800000398072818D80B9B12980122022B08BF97
:1038100004220021B1EB104F18BF0622032B08BF72
:103820000C22CDE9100110A928465346FEF734FFBB
:10383000064600287FF420AD284600210022FFF72D
:10384000FFFB0646002818BF012615E5070000000B
:103850000000000000000000000000004E4F204E5D
:10386000414D45202020204641542020202020008A
:103870004E4F204E414D45202020204641543332AA
:103880002020200080B582B00190009119B3002360
:1038900011F803E003F1010CBEF1200F03D3BEF1D8
:1038A0003A0F6346F4D1BEF13A0F1BD10978BCF14F
:1038B000020FA1F130034FF0040108BF19464FF089
:1038C000040E0A2B28BF71460429A8BF4FF0FF3110
:1038D00000290AD503E04FF0FF31002905D50B2060
:1038E00002B080BD00210029F9D440F2740CC2F26C
:1038F000000C5CF82130002B1EBF4FF0000E4CF87E
:1039000021E083F800E020B10023417003704CF8FF
:10391000210032B1684601A9002201F07FFF02B008
:1039200080BD002002B080BD2DE9F04F8FB00E9118
:1039300050B302F03F0A80460EA801A9524601F09A
:103940006DFF0646002840F03781DDF804900E999F
:1039500002A8CDF8089001F04BFC9DF93310064603
:10396000B1F1FF3FD8BF0626002818BF06461AF05F
:103970001C0F0BD0D6B1042E03D102A8FFF77AF9A1
:1039800006464AF0080A1CE009261AE1002E40F01B
:103990008A809DF80E00C10673D4C007304618BF58
:1039A00007205FEA8A7148BF06467CE09DF80E005A
:1039B00010F0110F01D0072603E05FEA4A7048BFFC
:1039C0000826002E6FD11AF008006CD001F066FEB8
:1039D0000999020A030C070E8873CA730B744F749B
:1039E0008875CA750B764F7699F800004C8B0328C2
:1039F00005D1487D0A7D000640EA024004442020AB
:103A0000C8720020488399F80020032A08BF8882E2
:103A1000C8610120002C89F8040044D0D9F8341082
:103A2000012C2BD0DDF808B0DBF81C00A04225D912
:103A300002AF2646009102E085422E4623D2384648
:103A4000314601F0ABFD054601301ED0DDB1012D40
:103A50001DD058463146002202F0EEF8C8B9DBE925
:103A60000610821E9142E7D29BF805200131CBF867
:103A7000181042F001018BF80510DDE7022696B917
:103A80000AE004260FE0002604E0012602E00226F8
:103A900000E00646009936B9484602F02BF8064683
:103AA000601EC9F814001EB1002E40F085800AE0A7
:103AB0000AF00800D9F83410099A4AEAC00AC8E99D
:103AC0000812002E78D1099899F80010458B032927
:103AD00005D1417D027D090641EA02410D44C8F845
:103AE0000850C7690020C8F80C70C8F82800C8F84A
:103AF0000090B9F8061008F12C0BA8F8041088F80B
:103B00001100C8F81C00C8F8140058464FF4805142
:103B100088F810A0FCF7C0FB5FEA8A604CD5002F44
:103B20004AD0B6FA86F04FEA5010C8F81470D6B9E9
:103B3000B9F80A10B9F80C2002FB01F4A74212D917
:103B40004046294601F02AFD0228054638BF0226D4
:103B5000013008BF0126F0B2B0FA80F13F1B002807
:103B60004FEA5110EAD0C8F8185028B3B9F80C0041
:103B700081B2B7FBF1F000FB1171E9B1D9F81C205B
:103B8000A91E023A914206D2D9F83020B9F80A307B
:103B900001FB032100E0002169B14218C8F81C2094
:103BA00099F80100594601230124FFF75FFA002824
:103BB00018BF264600E0022630061CBF0020C8F8C9
:103BC0000000F0B20FB0BDE8F08F00000000000070
:103BD00082B02DE9F04F81B02DED108BB4B00446CA
:103BE00000200DF17C0911918DF87B0048464C2195
:103BF000CDE94E23FCF750FB4EA80DF15B0132904E
:103C0000481C089009F10C009FEDA98B9FEDAA9B21
:103C10009FEDABAB9FEDACBB9FEDADCB9FEDAEDBB6
:103C20000F90481E1F940A9004E000BF701C20945F
:103C30002190119511990D4615F8010B252819D0E1
:103C4000002800F0C686209B0F99002BF1D4219EFE
:103C50005C1C09EB03023B2B1073E7DB1F98224629
:103C600033AB01F0EBF83398041B18BF4FF0FF346F
:103C7000DCE700BF91F801A00027BAF1300F05D0B2
:103C8000BAF12D0F11D14FF0200A0227CDF848A02C
:103C900091F802A0C81CBAF12A0F0CD132990A1D62
:103CA00032920B6810F801AB16E0881C20211291AB
:103CB000BAF12A0FF2D0AAF13001002309290BD85A
:103CC00003EB83010AEB410110F801ABA1F13003D2
:103CD000AAF130020A2AF3D3BAF12E0F12D101460B
:103CE00011F801ABBAF12A0F13D132990A1D3292A1
:103CF000D1F800B090F801A00230BAF16C0F20D0DA
:103D000005E000BF4FF0FF3BBAF16C0F19D0014640
:103D100023E0AAF130004FF0000B092800F21C82CA
:103D2000084600BF0BEB8B010AEB410110F801AB19
:103D3000A1F1300BAAF130020A2AF3D3BAF16C0FC9
:103D4000E5D1014611F801ABBAF16C0F04D190F83E
:103D500001A00C37811C00E00437AAF1450033288C
:103D6000119100F23E834FF002081393DFE810F048
:103D700034003D033D033D033D033D033D033D034F
:103D80003D033D033D033D033D033D033D033D0333
:103D90003D033D033D0325013D033D033D033D033D
:103DA0003D033D033D033D033D033601060234015F
:103DB000340034003D033D033D033D033D033D031B
:103DC0003D033D0319023D033D033D031F023D0337
:103DD00034013D033D03250132980B97073020F055
:103DE000070292ED000B002557EC100B27F0004462
:103DF0002146002818BF41F00101C7F6F075A9421D
:103E000002F10801329100F2AD818DED140B9DF8A5
:103E1000571056EC185B81F080018DF85710DDE9E2
:103E2000149839462A463346BBF1000F48BF4FF07D
:103E3000060B0990FCF7E1FB00284FF02B0018BFA0
:103E40002D200790099839462A46334606963E4665
:103E5000FCF7D3FB002840F20000099AC7F6F07087
:103E600004BF9146B84648EC1E9B60401043059540
:103E700040F0E18100200B9CDDF818800E904FF09F
:103E800000090FF69831002800F00F851046059ABA
:103E900031464346FCF7CCFB00280DF15B0003D113
:103EA00007988DF85B000898CBF1000110913DE078
:103EB0000000000000000000000000000000F03FD3
:103EC000000000000000E03F00000000000024406F
:103ED000F168E388B5F8E43E00000000006AF840AD
:103EE00058EC1E6B55EC104B3046414622462B4693
:103EF000FCF714FBFCF7E4FB0746FCF7D0FB22467B
:103F00002B46FCF799FA02460B4630464146FCF731
:103F10008DFA41EC1E0B07F13001584600F8011BE9
:103F200010998945A9F1010940F3508219F1010165
:103F3000B0EE490A04BF2E2100F8011B83460FF69C
:103F4000C825B9F1010F4C46F0EE690A1ADBB0EE54
:103F5000490AF0EE690A4C462846042CC8BF0830CE
:103F600090ED001B4FF0FF30C8BF6FF00400044419
:103F700053EC112B51EC100BFCF75EFA41EC100BDB
:103F8000002CE9DCB4F1FF3FAADC00BF284614F1A5
:103F9000040FB8BF083090ED001B4FF00100B8BF10
:103FA0000520044453EC112B51EC100BFCF7B6FA2E
:103FB00041EC100B002CE9D492E74FF010083807C1
:103FC0000ED53298BB46073020F007010A4652F85A
:103FD000080B496832920EE04FF00A083807F0D417
:103FE0003298BB46011D329100687907BAF1640F1F
:103FF00014BF0021C117AAF16402B2FA82F2520979
:1040000000294FF000034FF0000548BF012302EAEA
:104010000309474265EB0104B9F1000F04BF0C46E8
:104020000746BAF1780F4FF0070A08BF4FF0270A8A
:104030003846214642460023FCF796F800FB1872EA
:104040006E1C092A88BF5244B7EB080374F10003C1
:1040500002F130020DF15B035A5504D31F2D354692
:1040600007460C46E4D3B9F1000F04D00DF15B0014
:104070002D2181550136DDF83CA0139B0DF17C0903
:104080005FEA8B78354624D49E42354621D200BF64
:104090002098002816D4219F441C09EB00013B28DE
:1040A000129808730BDB1F985146224633AB00F081
:1040B000C5FE3398139B041B18BF4FF0FF34781CC8
:1040C00020942190B8F1000F05F1010501D49D4223
:1040D000DED3DDF8288004E0781C20942190013E96
:1040E00018D020980028FAD418F80610219F441CF4
:1040F00009EB00023B281173EEDB1F985146224664
:1041000033AB00F09BFE3398139B041B18BF4FF09A
:10411000FF34E1E7AB427FF68DAD5D1B202705E064
:10412000701C20942190013D3FF484AD209800281C
:10413000F9D4219E441C09EB00013B280F73EFDBEF
:104140001F985146224633AB00F078FE3398041B8B
:1041500018BF4FF0FF34E3E70846BAF16C0F3FF4A5
:10416000F0ADD4E5DDF83C800B9C00220FF6A801F1
:104170000DF15B00002940F0A083ADE3329B209855
:104180000F991A1D002832923FF554AD1B68219DEE
:10419000441C09EB00023B281373C0F23D811F98B9
:1041A00031E14FF0080838077FF51AAF09E7329878
:1041B000011D329106680DF17B00002E08BF0646F6
:1041C000002000BF315C01300029FBD10138584587
:1041D000054688BF5D46BBF1FF3FD8BF05465FEA95
:1041E000877800F1F682DDF83CA09D4280F0F382F2
:1041F0002098002816D4219F441C09EB00013B287D
:10420000129808730BDB1F985146224633AB00F01F
:1042100015FE3398139B041B18BF4FF0FF34781C16
:1042200020942190B8F1000F05F1010500F1D3822F
:104230009D42DDD3CFE2BAF1660FCDE9039840F09D
:10424000F080B0EE4A0ADDF80C80BBF1010FF0EE11
:104250006A0A0FF2B47521DBB0EE490ACBF1000413
:10426000F0EE690A284614F1040FB8BF083090ED4B
:10427000001B4FF00100B8BF0520044453EC112B84
:1042800051EC100BFCF74AF941EC100B002CE9D46F
:1042900053EC1A2BFCF7D0F841EC100B049953ECBB
:1042A000102B4046FCF721F855EC1B4B22462B46C1
:1042B00041EC1E0BFCF7A1F9B0EE4EFACDE9016B13
:1042C0004FF0000BF0EE6EFA90BB26462F4610948E
:1042D0000E9500BF59EC1F5B54EC1D8B28464946D8
:1042E00042462346FCF789F90028234642462846E1
:1042F00049461CBF3B463246FCF710F906460F46BE
:1043000041EC1F0B2846494642462346FCF775F907
:1043100000284FF0050018BF012083443046109E4E
:1043200039460E9F32463B46FCF767F90028D1D04C
:1043300051EC1F0B53EC192B10920E93FCF778F9EC
:1043400080BB00BF58EC1C9B57EC1F6B30463946B6
:104350004A464346FCF751F900280FF2AC6018BFFB
:10436000083090ED000B304653EC102B3946FCF72B
:1043700063F805460C4641EC1F0B304639464A4669
:104380004346FCF73AF900284FF0FF3018BF6FF0B2
:104390000400109A0E9B834428462146FCF72DF911
:1043A0000028CFD12BEAEB79DDF808B0002109EB2A
:1043B0000B000E9147F290211D284FF00000C0F62F
:1043C0000001B8BF0120B8BF002166E2BAF1660F54
:1043D00040F0D981DDF83C800B9C00210DF17C0977
:1043E00069E2BAF1000F00F0F482209800283FF54E
:1043F00021AC219D441C09EB00013B2881F80CA055
:104400000ADB1F980F99224633AB00F017FD339853
:10441000041B18BF4FF0FF34681C20942190FFF755
:1044200009BC2F46039D049CDDF8188028462146D0
:104430003A464346FCF717F9002840F01D8259EC34
:104440001B8B2846214642464B46FCF7D6F8CDF852
:1044500040904FF00009CDF83080CDE9016B70BB82
:1044600054EC1E7B56EC1D5B384621462A463346EB
:10447000FCF7C3F80028334610982A461CBF0346B1
:10448000424638462146FCF749F880468B4641ECC7
:104490001E0B384621462A463346FCF7AEF8002864
:1044A0004FF0050018BF012081444046DDF8308000
:1044B000109B59464246FCF7A0F80028D0D051EC9A
:1044C0001E0B53EC192BCDE90D32FCF7B1F878BB7C
:1044D0005BEC1C8B56EC1E7B3846314642465B46F5
:1044E000FCF78BF800280FF2205018BF083090ED31
:1044F000000B384653EC102B3146FBF79DFF054669
:104500000C4641EC1E0B3846314642465B46FCF7F2
:1045100074F800284FF0FF3018BF6FF00400DDE999
:104520000D32814428462146FCF767F80028CFD198
:104530000298B0EE490AA9EB0004F0EE690A0FF206
:10454000C845012CC0F23C82039EDDF83080109FEC
:104550002846042CC8BF083090ED001B4FF0FF30F8
:10456000C8BF6FF00400044453EC112B51EC100B46
:10457000FBF762FF41EC100B002CE9DCB4F1FF3FCC
:1045800016DC00BF284614F1040FB8BF083090EDC8
:10459000001B4FF00100B8BF0520044453EC112B61
:1045A00051EC100BFBF7BAFF41EC100B002CE9D4D7
:1045B00051EC100B53EC1A2BFBF73EFF0B46049902
:1045C00002463046FBF791FE42463B4604460D4606
:1045D00041EC1E0BFCF711F8B0EE4EFA4FF000095B
:1045E000F0EE6EFACDE9035478BB00BF55EC1F4BDB
:1045F00057EC1D6B2046294632463B46FBF7FDFF34
:1046000000283B46109832461CBF034642462046CF
:104610002946FBF783FF80468B4641EC1F0B204663
:10462000294632463B46FBF7E8FF00284FF00500DD
:1046300018BF012081444046DDF83080109B594668
:104640004246FBF7DAFF0028D0D0DDE90D3251EC0D
:104650001F0BFBF7EDFF70BB58EC1CBB57EC1F6B3F
:10466000304639465A464346FBF7C7FF0028E6A0C6
:1046700018BF083090ED000B304653EC102B394634
:10468000FBF7DAFE05460C4641EC1F0B3046394677
:104690005A464346FBF7B1FF00284FF0FF3018BFE2
:1046A0006FF00400DDE90D32814428462146FBF716
:1046B000A4FF0028D0D1DDF808B0CDF83890BBF1C8
:1046C000180F4FF0000900F3E3800E9E632E00F3F5
:1046D000DF8016F1630FB0EE490AD8BF6FF06206B3
:1046E000012E3446F0EE690AC7A51BDBB0EE490A7D
:1046F000F0EE690A344600BF2846042CC8BF0830D3
:1047000090ED001B4FF0FF30C8BF6FF00400044471
:1047100053EC112B51EC100BFBF78EFE41EC100B00
:10472000002CE9DC0E96019E099FDDF81880B4F19B
:10473000FF3F15DC284614F1040FB8BF083090ED98
:10474000001B4FF00100B8BF0520044453EC112BAF
:1047500051EC100BFBF7E2FE41EC100B002CE9D4FE
:10476000DDE9031053EC102BFBF7D8FE41EC1E0BD8
:104770000B9C4FF00009012000213A46002800F070
:104780009480FFF783BB0E9B4CF6CD412B20CCF6DB
:10479000CC418BF801A0002B48BF2D200B9C48BFBB
:1047A0005B42A3FB01128BF80200D008302100EB22
:1047B000800001EBD201A3EB40008BF8031040F026
:1047C00030010DF17C090BF105008BF8041000217C
:1047D0006FE0DDF83CA03078002818BFBBF1000F77
:1047E00022D1AB427FF626AA5D1B202706E000BF40
:1047F000701C20942190013D3FF41CAA20980028B1
:10480000F9D4219E441C09EB00013B280F73EFDB18
:104810001F985146224633AB00F010FB3398041B1F
:1048200018BF4FF0FF34E3E70136ABF1010700BFDB
:104830002099002917D4DDF884804C1C09EB010273
:104840003B2910730BDB1F985146224633AB00F017
:10485000F5FA3398139B041B18BF4FF0FF3408F18F
:1048600001002094219016F8010B0028B9D0002FE8
:10487000A7F10107DCD1B4E700200B9C099A0E9048
:1048800001204FF00009002100287FF4FFAA0CE06E
:1048900047F290210020C0F600010B9C019E099A6E
:1048A000DDF8188000287FF4F1AA0DF15B000DF10E
:1048B0007C09DDF83C80079A71B1002A18BF00F826
:1048C000012B0139013800BF11F8012F00F8012F29
:1048D0004A78002AF8D10130002101700DF15B0007
:1048E000FBF7E5FCA507064623D4139B07E000BFB2
:1048F000781C20942190002D06F101061AD49E42C6
:1049000018D220980028F6D4219F441C09EB0001FE
:104910003B2812980873EBDB1F984146224633ABC5
:1049200000F08CFA3398139B041B18BF4FF0FF3430
:10493000DEE7139B9DF85B00089D60B9B3427FF6EC
:1049400079A99D1B24E000BF781C2094219015F8C4
:10495000010B0028F2D020990029F8D4219F4C1C8B
:1049600009EB01023B291073EEDB1F9841462246FA
:1049700033AB00F063FA3398139B041B18BF4FF05E
:10498000FF34E1E7701C20942190013D3FF452A9CF
:1049900020980028F9D4219E441C09EB00013B28F3
:1049A0004FF020000873EDDB1F984146224633ABE1
:1049B00000F044FA3398041B18BF4FF0FF34E1E7CE
:1049C000039EDDF83080109FB4F1FF3F3FF7F0AD5C
:1049D000D8E5209A002A05D41F980F9933AB00F030
:1049E0002DFA10B14FF0FF3006E02098339988423D
:1049F0000CBF21984FF0FF3034B0BDEC108B01B0EC
:104A0000BDE8F04F02B070470000000000002440F5
:104A100000000000006AF8404E614E00494E46001A
:104A20002DE9F04F81B00446994616460F46002006
:104A30001860ACB1206880B1017871B1A188C288DA
:104A400091420AD14078FEF71FFB00F0010041427D
:104A500080F0010001F0090503E00925002000E0D5
:104A60000925002814BFD4F800B04FF0000B002D2A
:104A700040F0D680657C002D40F0D280207CC007BD
:104A800001D10725CCE0E0686169401AB04238BF27
:104A90000646002E00F0BE8004F12C08CDF8008000
:104AA0002AE09BF801004146524601230125FEF70A
:104AB000DDFA002840F0B380C4F81CA0BBF80C005D
:104AC0006169B1FBF0F202FB1011451AB54228BF33
:104AD0003546414438462A46FBF7C5FBD9F8000065
:104AE000761B2844C9F8000060692F4428444FF021
:104AF0000005606100F09480BBF80C00616982B22F
:104B0000B1FBF2F000FB1212002AD7D1BBF80A2049
:104B1000013A12EA000824D1A9B1A26AAAB15068E8
:104B200078B1236808329D895B89B1FBF5F1B1FB4F
:104B3000F3F100BF81420DD3091A506808320028F2
:104B4000F8D1002008E0A06806E0A169204600F046
:104B500025FD01E01068084402285DD3411C5DD0AA
:104B6000A061A069DBF81C1002380239884206D225
:104B7000DBF83010BBF80A2000FB021000E0002038
:104B8000002849D0BBF80C1000EB080A8E4218D25E
:104B9000E269DDF8008052453FF48EAF94F91000D1
:104BA000B0F1FF3F3FF77DAF9BF801004146012385
:104BB0000125FEF785FA90BB207C00F07F00207471
:104BC0006FE7B6FBF1F5BBF80A1005EB0800884269
:104BD0009BF8010088BFA1EB0805394652462B46D9
:104BE000FEF744FAD0B994F91000DDF80080B0F176
:104BF000FF3F0BDCE069A0EB0A00A84206D2BBF83D
:104C00000C20414600FB0270FBF72DFBBBF80C00AB
:104C1000454363E7002503E0022500E001256574B4
:104C2000284601B0BDE8F08FF0B581B0044690B1E0
:104C3000206880B1017871B1A188C28891420AD1FF
:104C40004078FEF721FA00F00100414280F00100B7
:104C500001F0090601E009260020002814BF25689C
:104C60000025EEBB207C41063AD540B2B0F1FF3FB3
:104C70002DDD00F013FD216A0746284600F03AFFBB
:104C8000064668BB606AC17A41F02001C172A16822
:104C9000226841831278032A03D10A0C090E027597
:104CA0004175E1688775C161390AC175390C0176B2
:104CB000390E41760021418201202871284601F0F9
:104CC0003BFA217C01F0BF01217401B0F0BD68788E
:104CD000E26904F12C0101230126FEF7F1F910B17C
:104CE000304601B0F0BD207C00F07F002074C0E7AA
:104CF0002DE9F0479AB0199019A818A9022200F0DE
:104D00008DFD002840F08D80DDE918410CA80C9441
:104D100000F06EFA002840F084809DF836109DF96E
:104D20005B20CB0718BF0720B2F1FF3FD8BF06209A
:104D300008B100271EE0139A2378578B032B05D167
:104D4000537D127D1B0643EA02421744C90611D562
:104D50006846002100940297FEF7FEF850B96846B5
:104D60000021FDF7EFFE0146002808BF0721081FBC
:104D700018BF0846002854D117990C9E109D481C56
:104D800004D00CA8FEF7E8F8F0B901E00020D8B98B
:104D90004FF0E5094FF0010A0DF130081299304645
:104DA00000F0A8FE68B9109A1399AA4281F8009001
:104DB00086F804A005D240460021FDF74BFE0028EE
:104DC000ECD0042808BF022050BB4FB3022F26D3DB
:104DD0000C9EF069B84222D90DF1300803E00020A2
:104DE0008D422F461CD24046394600F0D7FB05467F
:104DF00001301FD005B3012D11D0304639460022B5
:104E000000F01AFF60B9D6E906018A1E9042E6D288
:104E100072790130B06142F001007071DFE7022069
:104E200010B11AB0BDE8F08720461AB0BDE8F047CF
:104E300001F082B90120F3E70020F1E72DE9F04FFE
:104E400081B0994616460F4604460021196090B17C
:104E5000206880B1017881B1A188C28891420CD1CB
:104E60004078FEF711F900F00100424280F00101A4
:104E700002F0090003E0092001E0092000210029D7
:104E800014BFD4F800B04FF0000B10B101B0BDE872
:104E9000F08F607C0028F9D1207C800703D40720A4
:104EA00001B0BDE8F08F6069C043B04238BF06462C
:104EB000002E00F0D78004F12C0828E0C4F81CA0D4
:104EC000BBF80C006169B1FBF0F202FB1011451A4E
:104ED000B54228BF354608EB010039462A46FBF7A4
:104EE000C2F9207C40F080002074D9F80000761BC5
:104EF0002844C9F800006069E168284488422F44CA
:104F0000606188BF0146002EE16000F0AB80BBF815
:104F10000C00616982B2B1FBF2F000FB1212002AB0
:104F2000CED1BBF80A20013A12EA000C2ED1B9B159
:104F3000A26AD2B1506878B1236808329D895B8932
:104F4000B1FBF5F1B1FBF3F18142C0F08480091AA5
:104F5000506808320028F7D10020411C0DD17FE0B5
:104F6000A06840B92046002101E0A16920466546BD
:104F7000FDF700FBAC46411C72D0002872D001281E
:104F800078D0A168A061002908BFA06094F9100042
:104F9000B0F1FF3F0EDC9BF80100E26941460123BE
:104FA0006546FEF78DF800285AD1207CAC4600F00B
:104FB0007F002074A069DBF81C1002380239884297
:104FC00006D2DBF83010BBF80A2000FB021000E02C
:104FD000002000284ED0BBF80C1000EB0C0A8E42CB
:104FE00013D2E06950453FF469AFE06861698142DE
:104FF000BFF464AF9BF80100414652460123FEF71F
:1050000035F800283FF45AAF2AE0B6FBF1F5BBF8BB
:105010000A1005EB0C0088429BF8010088BFA1EB49
:105020000C05394652462B46FEF74AF8C0B9E069EE
:10503000A0EB0A00A8420AD2BBF80C2000FB0271C8
:105040004046FBF710F9207C00F07F002074BBF88D
:105050000C00454349E710680844411C7FF48DAFBC
:10506000012008E0207C40F040002074002001B0C6
:10507000BDE8F08F0220607401B0BDE8F08F000041
:105080008028024610D3FF284FF000020CD840F2CF
:10509000B513994208D147F25E51C0F6000101EB09
:1050A00040006FF0FF01425A104670477F289CBFB6
:1050B00080B270470022B2EB104F15D140F2B51309
:1050C000994211D147F25E520021C0F6000200BFA2
:1050D00032F81130834204D07F2901F10101F7D366
:1050E000802101F18000C2B2104670470021B1EB6F
:1050F000104F18BF704780B547F2B0231FFA80FCED
:1051000047F26C31C0F60003C0F60001BCF5805FC9
:1051100038BF0B46B3F800E0BEF1000F16D0F445DF
:1051200014D300BF598804335EFA81F2944511D339
:105130000022B1F5807F38BFCAB233F812E0BEF169
:10514000000F03D0F44503EB4203EBD280B2BDE87D
:1051500080407047090A0829F8D8DFE801F0050AFD
:1051600010121416181A1C00ACEB0E0033F81000C5
:10517000ECE7A0EB0E0101F00101401AE6E7103860
:10518000E4E72038E2E73038E0E71A38DEE70830B5
:10519000DCE75038DAE7A0F5E350D7E770B584B024
:1051A00000210446FDF77EF902281ED16D46281F16
:1051B000002100BF6218D2F8FE211031402940F8CA
:1051C000042FF7D1002600BF55F8261031B1204634
:1051D000FDF768F9022E04D907E000BF0320022E74
:1051E00003D8012806F10106EED804B070BD000016
:1051F0002DE9F04F89B0D0F800A083460D4600E0BD
:10520000013528785C28FBD02F28F9D00020CBF876
:1052100008002878202809D28022584600218BF8DF
:105220002B2009B0BDE8F04FFDF796BE0BF1200032
:1052300006900AF13800CDE907A001E0CBF808009C
:10524000DBF800000027D0F81080A9462C4605E0C6
:10525000FE2F43D828F817600137A14614F8016BD8
:1052600056B1304640F2B511FFF70AFF0646002856
:1052700004BF4FF0FF364C46701C2FD0B6F5803F70
:10528000B1B222BF300C28F81700013720292BD3E8
:105290005C2911D02F290FD07F29D9D8B1A009229C
:1052A000FBF70CF80146062000294FF0000161D100
:1052B000FE2FCFD95EE000BF254600E001352878FB
:1052C0005C28FBD02F28F9D020284FF0000038BFF1
:1052D00001204FEA800A5FB946E000BF06200021A6
:1052E00000294AD136E100BF4FF0040A2546DFB35A
:1052F000B7FA87F04209784208EB470309E000BF9C
:10530000411C4FF0000747F10002023B8142084672
:105310002AD333F8021C2E29F2D02029F0D0002104
:10532000D207198023D14142A8F102004FF0FF3982
:10533000024600BF32F8023F09F10109202BF9D0E3
:105340004AF003022E2B08BF9246B9F1000F18BF96
:10535000924600BF0A46B9B330F812102E29A2F1C6
:105360000101F7D1481C30E0002128F81710DDF8C2
:105370001CA00620002900F0ED805846FDF79CFA9D
:105380009BF82B10002840F0E080490700F1E280F4
:105390009BF80600C00640F1E080DBF81000BAF888
:1053A0000C10B0FBF1F202FB110008999AF80020F2
:1053B0000144488B032A7FF441AF4A7D097D1206E0
:1053C00042EA0141084439E70020009006984FF076
:1053D0002031C0F80710C0E90011541E082701222F
:1053E0000023002000210191A7F1010E0592CDE9D3
:1053F00003E7844648464AF0030101E001308A464B
:1054000038F81060202EF9D02E2E03D18442F5D129
:1054100002E000BF002E6DD0BC4500F1010955D25D
:10542000844253D0802E18D3304640F2B511CDF8C7
:1054300008C01F464AF0020AFFF738FE064600067B
:1054400006D546F66E6106F07F00C0F600010E5CE0
:105450003B46DDE90472DDE902CEB6F5807F05D377
:10546000F44515D34AF0030ABC46C3E766B140A031
:105470003146072202936746FAF720FFBC46DDE972
:105480000472DDE9023E88B14AF0030A5F2606E0B5
:10549000300A0BEB0C010CF1010C81F820000BEB36
:1054A0000C010CF1010081F82060A2E7A6F1410097
:1054B00080B21A28A6F1610038BF43F0020380B21F
:1054C00019289CBF43F00103203EE8E70199C90772
:1054D0004AF003010DD1844218BF8A4600988145E5
:1054E00008D8814601209B000B270022019008204C
:1054F0007AE78A4606980078E52802D106980521C1
:105500000170D00718BF9B0003F0030103F00C00EB
:1055100003294AF0020208BF92460C284FF0080007
:1055200008BF924600EA430063F304105FEA8A7101
:1055300058BF4AEA000A8BF82BA0DDF81CA0002017
:10554000012100297FF419AF04E0042802D14907A2
:1055500058BF052009B0BDE8F08F052009B0BDE8AF
:10556000F08F00BF2A3A3C3E7C223F7F00000000C3
:105570002B2C3B3D5B5D0000B0B540F20405C2F250
:10558000000504462868E1B200F04EFF28680721B4
:1055900000F092FF0028F9D02046B0BD02293CBFA0
:1055A00001207047F0B581B005680C46E869884273
:1055B00036D92878032836D0022856D001282FD192
:1055C000A88904EB5406A96AB6FBF0F0014428460A
:1055D00000F090FA002852D1A889AA6AB6FBF0F12F
:1055E00001FB10610136B6FBF0F0294491F83870E8
:1055F0008118284600F07EFA002840D1A889E207E9
:10560000B6FBF0F101FB1060284490F8380047EA3F
:10561000002108466FF31F3018BF080901B0F0BD24
:10562000012001B0F0BDA889A96A8008B4FBF0F0A0
:105630000144284600F05EFA08BBA889A100B1FB2E
:10564000F0F14843C0EB8400291891F83A3091F802
:10565000380091F8392091F83B101B0243EA0141D0
:10566000114461F31B2001B0F0BDA889A96A40086C
:10567000B4FBF0F00144284600F03CFA18B14FF0BA
:10568000FF3001B0F0BDA8896100B1FBF0F14843E3
:10569000C0EB44002844008F01B0F0BD80B582B05B
:1056A0006846FBF7F9FBBDF800004FF0084101EB3D
:1056B000406C9DF802109DF803209DF804304CEAE0
:1056C00041519DF8060041EA024141EAC32141EA05
:1056D000500002B080BD0000416170470161704719
:1056E0001023002A08BF1423195070472DE9F047F2
:1056F000CF0601F00F0C09D5042A05D1C26B4CF07E
:10570000030C1A43C26301E04CEA020C00F1100ED4
:1057100000F1140A00244FF001094FF00F08002790
:105720000EE000BF166008FA04F225EA02020CFA45
:1057300004F52A4302600137082F04F104040CD059
:1057400009FA07F212EA0306F5D00568282952463D
:10575000E8D04829E7D17246E4E7082400254FF055
:1057600001094FF00F080FE0176008FA05F226EA6A
:1057700002020CFA05F6324342600134102C05F1A6
:10578000040508BFBDE8F08709FA04F212EA03072E
:10579000F3D0466828295246E6D04829E5D172461A
:1057A000E2E700008068084018BF01207047000051
:1057B000C068084018BF012070470000FBF70CF9D3
:1057C000FCF7DCF9FCF7FAFBFCF7DAF8FBF754FD21
:1057D000FBF73CFDFCF78EF8FBF770FDFBF722FAB8
:1057E00041F6B140C0F60000FCF77EFA40F2200519
:1057F0000024C2F20005002604E000BF701CC61E93
:1058000018BF064606EB460015F820100029F5D013
:1058100005EB8000816804708847EFE72DE9F04FC1
:1058200081B000230B6003681546FBB1002700BF61
:10583000DA5D7E1C202A02D33A2A3746F8D13A2A6A
:1058400034D11A78022EA2F130074FF0040208BFBB
:105850003A4604240A2F28BF2246032ADABF3344DB
:1058600003604FF0FF32002A04D522E04FF0FF32F0
:10587000002A1ED440F27400C2F2000050F8224008
:10588000A4B320780C60C0B16078FDF7FDFB014641
:10589000C00712D115F0FE004FEA41714FF00A0225
:1058A00018BF02EAE17001B0BDE8F08F0022002AC3
:1058B000E0D50B2001B0BDE8F08F607800212170A9
:1058C000FDF7A0FBC10715D115F0FE0F18BF10F0B2
:1058D000040013D1607804F10C0502212A46FDF77B
:1058E000AFFB78B1012001B0BDE8F08F0C2001B012
:1058F000BDE8F08F032001B0BDE8F08F0A2001B0B1
:10590000BDE8F08F2988A1F5007080B2B0F5606F16
:105910004FF0010000F2EA8045F2555202EA5102CE
:10592000891A43F2333202EA91031140194401EB20
:10593000111101F4706201F00F0101EB1221012934
:1059400000F2D4802046FFF729FC0428CAD00128A1
:105950002BD8B4F84300A189884226D1B4F84E2050
:10596000002A08BFE26D94F84850D4F834B0681E9D
:1059700001282262E57018D894F84560701E304006
:10598000B6FA86F318BF01205B09184366810CD173
:10599000B4F8493048091FFA83FC87B2BCFBF7F71B
:1059A000238107FB1030000403D00D2001B0BDE8B7
:1059B000F08FB4F84B00002808BFA06DB4F846A0E3
:1059C000BAF1000FF1D002FB05F909EB0A053D44DD
:1059D000A842EAD3401BB042E7D3B0FBF6F64FF63D
:1059E000F670C0F6FF704FF0000886424FF6F67072
:1059F00038BF4FF00308864240F6F57038BF4FF0CD
:105A00000208864298BF4FF00108B8F1000FCCD0D1
:105A100006F1020E0BEB0A005D44B8F1030FC4F867
:105A20001CE0C4E909B0256309D1B4F8620050EA6A
:105A30000C00BAD1606EE0624FEA8E0010E01B04E9
:105A4000B3D0A6F6F67348441B0B0E2BE06291BF51
:105A50004FEA4E000EEB4E0006F0010303EB500040
:105A600008440138B0FBF1F082429ED34FF0FF3082
:105A7000C4E905008020B8F1030F607126D1B4F8A5
:105A80006800012822D10BF10101204600F032F814
:105A9000E0B9B4F836124AF65522002091426071FE
:105AA00014D1A06B45F25221C4F2611188420DD18C
:105AB000D4F81C0247F27221C6F24111884205D186
:105AC000D4F82002D4F82412C4E9051040F284006E
:105AD000C2F20000018884F800800131018040F2A8
:105AE0008600C2F2000020610020E18001B0BDE824
:105AF000F08F00002DE9F041426B8A4204BF002084
:105B0000BDE8F081044600790D4618B3607804F1D1
:105B10003808414601230126FDF7D2FA4FF000076D
:105B200018B1DFB93046BDE8F081A06A616B226A26
:105B3000081A904227710DD2E07802280AD16078C5
:105B40000A44414601230127FDF7BAFA0026002F37
:105B5000E8D003E000260127002FE3D0607804F1AD
:105B600038012A4601230127FDF780FA00281CBFCF
:105B70004FF0FF353E4665633046BDE8F0810000DA
:105B80004EF60C5CCEF2000CDCF8003003F4E0635F
:105B9000B3F5E06F01D1042328E0DCF8003003F412
:105BA000E063B3F5C06F01D103231FE0DCF80030E0
:105BB00003F4E063B3F5A06F17D0DCF8003003F412
:105BC000E063B3F5806F01D101230FE0DCF8003012
:105BD00003F4E063B3F5407F01D1002306E040F217
:105BE0000053C0F2FA53CCF80030022301FA03FC50
:105BF000C3F104030F21D94011404EF2001241EAD3
:105C00000C01CEF20002090140EA020383F80013FE
:105C100000F01F01012303FA01F11C2303EAD00065
:105C20008150704747F20000C4F20000016841F45F
:105C3000807101607047000002293CBF022070475C
:105C40002DE9F04381B00546C0690E46884221D94E
:105C500028781446032821D0022846D0012819D1DB
:105C6000A88906EB5607A96AB7FBF0F0014428465D
:105C7000FFF740FF002865D1A88905F13809B7FB77
:105C8000F0F15FEAC67801FB107107F1010745D119
:105C9000E2B249E0022001B0BDE8F083A889A96A18
:105CA0008008B6FBF0F001442846FFF723FF0028E8
:105CB00048D1A989B200B2FBF1F204F070635143FC
:105CC000C1EB8601294491F83B2081F8384002F06D
:105CD000F00243EA0262230A81F83930230C120EE3
:105CE00081F83A3081F83B2012E0A889A96A40087F
:105CF000B6FBF0F001442846FFF7FCFE10BBA98973
:105D00007200B2FBF1F25143C1EB460129440C870A
:105D10002E1D0121317001B0BDE8F08319F801207A
:105D200002F00F0264F30B1209F80120AA6AB7FB14
:105D3000F0F001212E4606F8041F81182846FFF7CF
:105D4000D9FE10B101B0BDE8F083A989B8F1000F08
:105D5000B7FBF1F202FB117109D119F80120C4F36C
:105D6000032302F0F0021A4409F80120D1E7C4F33A
:105D7000071209F80120CCE710B541F2040CC4F277
:105D8000020CDCF8001043F6FF72CEF6FF720A40F8
:105D9000DCF828100B2821F0005E21D80123834075
:105DA0001C070CD113F4706F0CD04CF20003CFF62B
:105DB000FC7303EA8030024341F0005E10E042EAE7
:105DC00080320DE00121814011F0A00F08D04CF28B
:105DD0000001CEF6FE7101EA8030104340F080529F
:105DE000CCF80020CCF828E010BD000041F22000E3
:105DF000C4F20200016821F48031016070470000A4
:105E000041F22000C4F20200016841F480310160D7
:105E10007047000010B541F20404C4F20204216886
:105E200001F00C01082941F20021C0F27A012BD1C6
:105E30002368DB0304D440F6001CC0F23D0C0DE0E7
:105E4000A36AD4F800C05B0046F60043C0F2DC232E
:105E500058BF0B46CCF3404123FA01FC236821686C
:105E6000C3F3834E102303EAD15123688E442021CB
:105E700001EA536171440B463F2918BF01330F29D2
:105E800038BF8B1C03FB0CF1236812A2C3F303136E
:105E9000D35C226846F6FB6CC2F30222C0F6000C0B
:105EA0001CF802E02268032807D821FA03F3DFE890
:105EB00000F00F020609184610BD002010BD23FA9D
:105EC0000EF010BDC2F3C2201CF8000023FA00F14E
:105ED000084610BD0000000000000000010203049D
:105EE0000607080941F2000300F01F018009C4F20F
:105EF00002034FF0010CC2580CFA01F11143C150DA
:105F0000704700000146B0F5006F4FF000001DDA49
:105F1000E1B310294ED0182940F0918041F2000CD5
:105F20004FF6FE71C4F2020CC0F20F01002200BF56
:105F3000DCF80000013942F10003800101D4002B9C
:105F4000F6D1DCF80000C0F34060704748D0B1F5EE
:105F5000106F5DD043F21002914218BF704741F2BA
:105F6000000C4FF6FE71C4F2020CC0F20F010022C9
:105F7000DCF8C000013942F10003800301D4002B9A
:105F8000F6D1DCF8C000C0F34040704741F2000C8D
:105F900040F2FF40C4F2020C002200BFDCF8001007
:105FA000013842F10003890701D4002BF6D1DCF857
:105FB000000042E041F2000C4FF6FE70C4F2020C09
:105FC000002200BFDCF80010013842F10003890311
:105FD00001D4002BF6D1DCF80000C0F3404070473C
:105FE0004FF6FE7141F2000CC0F20F01C4F2020C38
:105FF00001F17C71002200BFDCF82000013942F180
:106000000003800701D4002BF6D1DCF8200014E057
:1060100041F2000C4FF6FE71C4F2020CC0F20F0107
:10602000002200BFDCF82400013942F100038007A0
:1060300001D4002BF6D1DCF82400C0F340007047F7
:1060400041F2000300F01F018009C4F202034FF087
:10605000010CC2580CFA01F11143C1507047000005
:1060600041F2000300F01F018009C4F202034FF067
:10607000010CC2580CFA01F122EA0101C15070472B
:1060800041F2000300F01F018009C4F202034FF047
:10609000010CC2580CFA01F11143C15070470000C5
:1060A00041F22001C4F202010A6822F44072104356
:1060B0000860704742F61800C4F2000041680068AA
:1060C00041EA00407047000042F60401C4F20001BA
:1060D0000A6842F010020A60020C80B24A618861CC
:1060E000086820F0100008607047000042F60400C5
:1060F000C4F2000001688906FCD5704742F604012D
:10610000C4F200010A6842F010020A60C0F30342C0
:1061100080B24A608860086820F01000086070470C
:1061200042F60400C4F20000016821F00801016099
:1061300001680907FCD57047F0B581B004460079C5
:10614000F0B16078626B04F1380631460123012515
:10615000FCF7B6FF4FF00007A0B9A06A616B226A96
:10616000081A904227710BD2E078022808D1607893
:106170000A44314601230127FCF7A2FF002501E074
:10618000002501279FB32078032828D160790128B2
:1061900025D104F1380630464FF48051FAF77CF8E7
:1061A0004AF65520A4F8360245F25220C4F2611096
:1061B000A06347F27220C6F24110D4E90521C4F869
:1061C0001C02606AC4F82422421C6078C4F82012C1
:1061D000314601236263FCF773FF00206071607831
:1061E00000210022FCF72CFF002818BF01252846BB
:1061F00001B0F0BD4162704710B540F6FF71C4F2C6
:106200000001884211DC40F2FF71C4F200018842B3
:1062100021DCB0F1804F3CD040F20041C4F20001DB
:10622000884249D140F201443EE042F6FF31C4F2D7
:10623000010188421EDC41F20001C4F200018842E3
:106240002AD041F20041C4F20001884218BF10BDBB
:1062500040F2054428E040F60001C4F20001884203
:106260001DD040F60041C4F20001884224D140F222
:10627000034419E042F60041C4F20101884211D002
:1062800043F20041C4F20101884215D140F20D34BD
:106290000AE04FF4806407E040F2044404E040F276
:1062A000024401E040F20B342046FFF7E9FE2046AD
:1062B000BDE81040FFF7D4BE10BD0000016841F0FA
:1062C00001010160704700000A8843F2004C8262BD
:1062D00040F6FF32C4F200029042C4F2010C0FDC1F
:1062E000B0F1804F1AD040F20043C4F2000398424C
:1062F00014D040F60003C4F2000398420ED019E017
:1063000040F60043C4F20003984207D0604505D030
:1063100042F60043C4F2010398420BD1036823F014
:10632000700303604B8802681A4302608A8803681E
:106330001A43026080B541F20002D1F808E020F46F
:106340008063C4F200029342C0F82CE007D00268D8
:1063500022F440720260CA8803681A4302606045F2
:1063600005D042F60042C4F20102904201D1097BFD
:106370000163416941F00101416180BDC26811437F
:10638000C1607047C943016170470000C26800697D
:106390000A40084018BF0120002A18BF01221040FF
:1063A0007047000000214FF6FF72C0E900118260C3
:1063B00001737047B0B5044644F6FF30C4F20000E4
:1063C0000D4684424FF0000013DD44F60041C4F254
:1063D00000018C4219D045F20001C4F200018C4248
:1063E00013D043F60001C4F201018C4210D1032006
:1063F0000CE044F20041C4F200018C4205D044F6A6
:106400000001C4F200018C4202D10220FFF702FD1C
:1064100000EB5500B0FBF5F080B2A060B0BD00000D
:1064200040686FF35F2070476FF35F2141607047F2
:1064300010B544F6FF31C4F20001884215DD44F680
:106440000041C4F2000188421ED045F20001C4F2AE
:10645000000188421BD043F60001C4F201018842CA
:1064600018BF10BD40F20E3416E044F20041C4F2F1
:10647000000188420ED044F60001C4F200018842B7
:1064800012D140F2124407E040F2134404E040F21B
:10649000144401E040F211442046FFF7F1FD20468C
:1064A000BDE81040FFF7DCBD10BD0000C16841F43D
:1064B0000051C160704700008A09105801F01F01A7
:1064C000C84000F00100704701F01F0289094FF039
:1064D000010C0B580CFA02F21A430A5070470000E4
:1064E000C1F30442012303FA02F2D243890D0A5098
:1064F00070470000C1F3891252F800C08A0D10588D
:1065000001F01F03C1F30441C8402CFA03F1084015
:1065100000F0010070470000C26822F4C062C2604F
:10652000C2681143C1607047C26801F0040122F0E3
:106530000402C260C2681143C1607047026922F45C
:10654000405202610269114301617047C26801F063
:10655000080122F00802C260C2681143C16070479E
:10656000C26822F48052C260C2681143C1607047A1
:106570000FB4054B10B503A9044A029800F0DAF8ED
:1065800010BC5DF814FB00007955000800000020E5
:1065900002E008C8121F08C1002AFAD170477047EC
:1065A000002001E001C1121F002AFBD1704700004A
:1065B0002DE9FF5F82B00021DDE90430020DDDF836
:1065C00040B0034318D044F61050A2F2FF324243C9
:1065D0001514119801281FD0A5EB0B00401C5FEA91
:1065E000000A4FF000064E4FDFF83891B046504693
:1065F00015D5CAF1000413E0119801244AA301281B
:1066000001D16FEA0B010298119AC0E90031C0E98B
:10661000024206B0BDE8F09FCBF10000DFE7044680
:106620000021404A491842EB0450CDE9001012E025
:10663000E00707D032463B4640464946F9F7FCFEA4
:106640008046894632463B4610461946F9F7F4FE25
:1066500006460F466410002CEAD1DDE90401DDE9AD
:106660000023BAF1000F06DAF9F7E6FE42464B4680
:10667000F9F7E2FE05E0F9F751FF42464B46F9F71C
:106680004DFF04460E460022284BFAF755F903D871
:106690004FF0FF30014607E00022254B20463146EF
:1066A000F9F723FEFAF72FF9102409E0002C0ADB92
:1066B0000A220023F9F758FD039B30321A55641E55
:1066C00050EA0102F2D1641C039AC4F1110314448C
:1066D000119A012A03D0012208430DD10AE0084390
:1066E00004D000204FF0110B119072E7A3EB0B05C3
:1066F0006D1E0DE05B4504DD4FF0000205F1010564
:1067000004E003DA4FF00002A5F10105002AECD005
:1067100002981199C0E90231C0E9004579E700000B
:10672000000014400000F03F300000000000F04383
:106730000000E03F2DE9FF4F95B09B468946064695
:1067400000250FE2252877D100242746F84A0121A9
:10675000059400E0044316F8013F203B01FA03F0E2
:106760001042F7D130782A2811D06FF02F033078FB
:10677000A0F13002092A16D8059A44F0020402EB6F
:10678000820203EB42021044761C0590EFE759F8B1
:10679000042B0592002A03DA504244F40054059079
:1067A00044F00204761C30782E2816D116F8010F1A
:1067B00044F004042A280DD06FF02F023078A0F1A5
:1067C0003003092B09D807EB870302EB4303C718F3
:1067D000761CF3E759F8047B761C30786C280FD0D0
:1067E00006DC4C2817D068280DD06A2814D104E0A4
:1067F000742810D07A280FD10DE044F400140AE078
:1068000044F4801401E044F440147278824202D1CE
:1068100004F58014761C761C307866280BD013DCC7
:10682000582877D009DC002875D04528F6D04628AE
:10683000F4D047281AD19DE118E0632835D06428A8
:1068400079D0652812D195E1702873D008DC6728CB
:10685000F1D069286FD06E280DD06F2806D1B5E031
:1068600073282CD0752875D0782874D05A4617997B
:1068700090476D1C75E1C4F30250022809D003282B
:106880000DD0D9F8001004280DD00D6009F10409CD
:1068900067E1D9F80010EA17C1E90052F6E7D9F824
:1068A00000100D80F2E70D70F0E719F8041B8DF869
:1068B000001000208DF80100EA46012003E059F89D
:1068C00004AB4FF0FF3061074FF0000102D40DE040
:1068D00008F101018846B9420FDA8045F8DB1AF861
:1068E00008100029F4D108E008F10101884681422E
:1068F000FADB1AF808100029F6D105985B46A0EBE0
:10690000080721463846179A00F094FA284400EB0D
:10691000080507E04DE029E10DE01AF8010B5A46A1
:1069200017999047B8F10108F7D25B4621463846DF
:10693000179A13E142E00A220092C4F302524FF088
:10694000000A022A08D059F804CB032A4FEAEC7156
:106950000AD00DE029E02AE009F1070121F0070241
:10696000F2E802C1914609E00FFA8CFC4FEAEC71A3
:10697000042A03D14FFA8CFC4FEAEC71002907DAA4
:106980000A460021DCF1000C61EB02012D2202E03D
:10699000220504D52B228DF80420012203E0E20712
:1069A00001D02022F7E7904659E00A2102E01022A8
:1069B0000DE010214FF0000A00910BE010224FF083
:1069C000000A44F004040827009203E008224FF074
:1069D000000A0092C4F30252022A05D059F804CBEF
:1069E0000021032A08D009E009F1070121F007027C
:1069F000F2E802C1914605E01FFA8CFC042A01D19D
:106A00000CF0FF0C4FF00008220728D5702806D0A4
:106A1000009B83F0100353EA0A0305D00EE04022E6
:106A20008DF80420012208E05CEA010206D0302241
:106A30008DF804208DF8050002229046009B83F01B
:106A4000080353EA0A030AD15CEA010201D1620792
:106A500005D530228DF804204FF001087F1E5828FC
:106A600004D034A003900EA802900DE036A0F9E700
:106A700053466046009AF9F777FB84460398825C98
:106A80000298401E029002705CEA0100F0D1029868
:106A900006A9081A00F1200A600702D524F4803400
:106AA00000E00127574502DDA7EB0A0000E00020C7
:106AB00000EB0A01009005984144401A0590E0035C
:106AC00006D45B462146179A059800F0B3F90544B1
:106AD000002706E001A85A46C05D179990476D1C33
:106AE0007F1C4745F6DBE0030CD55B462146179A31
:106AF000059800F09FF9054404E030205A461799A4
:106B000090476D1C0099481E00900029F5DC08E0B4
:106B1000029802995A460078491C029117999047A9
:106B20006D1CBAF10001AAF1010AF1DC65E1000077
:106B30000928010030313233343536373839616253
:106B40006364656600000000303132333435363717
:106B500038394142434445460000000000F058F9EE
:106B60000544761C307800287FF4ECAD19B0284637
:106B7000BDE8F08F620700D4062709F1070222F072
:106B8000070CFCE80223E14603F000485FEA080C2A
:106B900002D00FF2702C0DE05FEA045C02D50FF218
:106BA000682C07E05FEAC47C02D00FF2602C01E0A1
:106BB000AFF2700C4FF0FF3823F00043CDF850C017
:106BC00065280CD006DC452809D046281DD047286A
:106BD0003DD13DE0662818D067287ED138E00021FD
:106BE000112F01DB112000E0781CCDE9000106A97E
:106BF0000EA8FFF7DDFCDDE90F010E9A03910021DD
:106C0000009207F1010A04914DE04FF00040009717
:106C1000CDE9011006A90EA8FFF7CAFCDDE90F02B5
:106C200003920E9B11990022DDF80CA000930492B0
:106C300011B9791C00EB010AB7EB0A0004D4C0F1CA
:106C4000FF3007F1010A0490AAEB0700019044E02D
:106C5000012F00DA01270021112F01DD112000E0B2
:106C60003846CDE9000106A90EA8FFF7A1FCDDE931
:106C70000F010E9A0391002104910092BA46210758
:106C80000CD40399514500DA8A46BAF1010F05DDAB
:106C9000009AAAF10101515C302908D0B84202DA09
:106CA00010F1040F06DA0121CDE9011015E0AAF177
:106CB0000101E9E7002805DC049901440491AAEBED
:106CC000000102E0411C514500DD8A460499401A4A
:106CD000401C01904FF000400290200704D401981E
:106CE000504501DBCDF8048000208DF84F0002985C
:106CF0000DF14F07B0F1004F25D02B200E900298D8
:106D00004FF0020800280CDA404202902D200E902D
:106D100007E00A210298F9F705FD3031029007F8E3
:106D2000011DB8F10001A8F10108F2DC0298002869
:106D3000EFD1791E0E980870307800F0200040F0F6
:106D4000450007F8020D12A8C01B00F107081498AF
:106D5000007800B1012000EB0A01019801EBE0711D
:106D600005984144401A401E0590E00306D45B4656
:106D70002146179A059800F05DF8054414980078AC
:106D800018B15A46179990476D1CE00324D55B460D
:106D90002146179A059800F04DF805441CE0049828
:106DA000002807DBDDE90301884203DD0098405C31
:106DB000179901E0179930205A469047049805F139
:106DC0000105401C04900198401E019004D12E2022
:106DD0005A46179990476D1CBAF10001AAF1010AB1
:106DE000DDDC05E017F8010B5A46179990476D1C3A
:106DF000B8F10001A8F10108F4DC5B462146179ABE
:106E00000598ABE62D0000002B00000020000000DC
:106E10002DE9F041044600251E461746880404D497
:106E200005E039462020B0476D1C641EF9D5284680
:106E3000BDE8F0812DE9F041044600251E4690464C
:106E4000C80301D5302700E02027880404D505E0D9
:106E500041463846B0476D1C641EF9D52846BDE84A
:106E6000F0811F1D1F1E1F1E1F1F1E1F1E1F809A29
:106E700045418E418F804545454949498E8F9092C5
:106E8000924F994F555559999A9B9C9D9E9F414968
:106E90004F55A5A5A6A7A8A9AAABACADAEAFB0B1FA
:106EA000B2B3B4B5B6B7B8B9BABBBCBDBEBFC0C14A
:106EB000C2C3C4C5C6C7C8C9CACBCCCDCECFD0D13A
:106EC000D2D3D4D5D6D7D8D9DADBDCDDDEDFE0E12A
:106ED000E2E3E4E5E6E7E8E9EAEBECEDEEEFF0F11A
:106EE000F2F3F4F5F6F7F8F9FAFBFCFDFEFF010307
:106EF0000507090E10121416181C1E0000000001D0
:106F00000203040002060000000801400100000026
:106F100008060000002001400020000008060000D4
:106F20000020014000400000080600000020014051
:106F3000008000000206000000080140000100007F
:106F4000060600000018014040000000070600008F
:106F5000001C014040000000330C110CEB0BC50B72
:106F60009D0B750B4D0B240BFA0ACF0AA00A790A68
:106F70004D0A210AF409C7099A096C093F09110948
:106F8000E308B60888085A082D080008D207A607A3
:106F900079074D072107F606CB06A10677064E06B0
:106FA0002506FD05D605AF05890564053F051B05CA
:106FB000F804D504B304920472045204390415048D
:106FC000F803DB03BF03A40389036F0356033D03E8
:106FD00026030E03F802E202CC02B802A3029002DA
:106FE0007D026A0258024702360226021602060293
:106FF000F701E901DB01CD01C001B301A6019A014E
:107000008E01830178016D01630159014F01460131
:107010003C0134012B0122011B0112010B01030170
:107020009B009D009F00A500B100CC000101620102
:1070300004022303A40461063408130A670B840CBA
:107040006A0D150E9C009D00A100A800BA00DF008B
:107050002801AD018A02D9037F0552071909EB0AFD
:10706000280C1B0DF20D7B0E9C009F00A400AF00AE
:10707000C700FA005501FC010703810461064E08B0
:10708000EC09810BA30C800D220E9E0E9D00A10029
:10709000A800B700D9001C019A016B02AD03E206FB
:1070A0002B071909BD0A280C290DE20D5C0EC90E2B
:1070B0009F00A500B000C500EC004001DD01EE021C
:1070C000610444061B08EC09670BA30C710D1A0E32
:1070D000970EF40EA100A800B700D20008017701B6
:1070E0004302850339053E07FA08A60AEE0B0E0D8A
:1070F000D30D5C0EC30E130FA300AD00BF00E6005E
:107100002C01C301B802250400061B08C6094D0B5B
:10711000840C620D0A0E860EDE0E260FA600B2004B
:10712000CA00FA005801FC012303CA04BF06BD08C7
:10713000900AEE0BE50CAC0D430EA90EF90E3A0FBA
:10714000A900B800D6001C018D016B02D90395057A
:1071500090077E09030B460C290DDA0D640EC30E51
:107160000C0F470FAF00C400EC003B01DD01EE0245
:10717000810444063408EC09810BA30C710D120E36
:107180008F0EE70E1E0F540FB300CC00FD006201FE
:107190002102610330052B07FA08A60AEE0B000D49
:1071A000BC0D4B0EB10E020F360F640FBA00D900A2
:1071B000160191017A02AD03F305EA07C6091B0B1C
:1071C000650C460DEA0D6C0ECC0E150F440F6E0FBC
:1071D000BF00E5002C01C901E2020A04AF06A008C5
:1071E000650AB60BCA0C800D1A0E8F0EDE0E1E0F2E
:1071F0004E0F750F25642D25642D25642025303212
:10720000643A253032643A253032642C2074686543
:107210002074656D70657261747572652069732084
:10722000252E316620A1E62C20616E6420746865ED
:107230002068756D696469747920697320256425F7
:10724000252E0A00B4F2BFAA2573CEC4BCFECAA77D
:10725000B0DCA3ACB4EDCEF3C2EBA3BA25642E0A26
:1072600000B9D8B1D5CEC4BCFECAA7B0DCA3ACB4BB
:10727000EDCEF3C2EBA3BA25642E0A00303A0030FB
:107280003ACEC2B6C8B4ABB8D0C6F72E7478740084
:107290004F560000010004001000400000010002F1
:1072A000000001000200040008001000200000009F
:1072B0007D1D0100632C001E9601A01E5A01001FB7
:1072C0000806101F0606201F0806301F0806401F6C
:1072D0000606511F0700591F521F5B1F541F5D1FD9
:1072E000561F5F1F601F0806701F0E00BA1FBB1FCE
:1072F000C81FC91FCA1FCB1FDA1FDB1FF81FF91FCA
:10730000EA1FEB1FFA1FFB1F801F0806901F0806CD
:10731000A01F0806B01F0400B81FB91FB21FBC1F72
:10732000CC1F0100C31FD01F0206E01F0206E51F8D
:107330000100EC1FF31F0100FC1F4E210100322150
:1073400070211002842101008321D0241A05302CE1
:107350002F04602C0201672C0601752C0201802C81
:107360006401002D260841FF1A03000061001A0382
:10737000E0001703F8000703FF0001007801000197
:10738000300132010601390110014A012E01790153
:10739000060180014D0043028101820182018401C6
:1073A000840186018701870189018A018B018B0194
:1073B0008D018E018F019001910191019301940142
:1073C000F60196019701980198013D029B019C01ED
:1073D0009D0120029F01A001A001A201A201A40120
:1073E000A401A601A701A701A901AA01AB01AC0153
:1073F000AC01AE01AF01AF01B101B201B301B30104
:10740000B501B501B701B801B801BA01BB01BC01B2
:10741000BC01BE01F701C001C101C201C301C40129
:10742000C501C401C701C801C701CA01CB01CA0116
:10743000CD011001DD0101008E01DE011201F30119
:107440000300F101F401F401F80128012202120104
:107450003A020900652C3B023B023D02662C3F02CA
:1074600040024102410246020A01530240008101EA
:107470008601550289018A0158028F015A02900142
:107480005C025D025E025F0293016102620294018E
:107490006402650266026702970196016A02622C25
:1074A0006C026D026E029C01700271029D017302FA
:1074B00074029F0176027702780279027A027B02D7
:1074C0007C02642C7E027F02A60181028202A90155
:1074D0008402850286028702AE014402B101B20134
:1074E00045028D028E028F0290029102B7017B034A
:1074F0000300FD03FE03FF03AC03040086038803BF
:1075000089038A03B1031103C2030200A303A30387
:10751000C4030803CC0303008C038E038F03D8033A
:107520001801F2030A00F903F303F403F503F60369
:10753000F703F703F903FA03FA03300420035004B6
:107540001007600422018A043601C1040E01CF0431
:107550000100C004D0044401610526040000C700F6
:10756000FC00E900E200E400E000E500E700EA00DA
:10757000EB00E800EF00EE00EC00C400C500C9001D
:10758000E600C600F400F600F200FB00F900FF0080
:10759000D600DC00A200A300A500A7209201E10014
:1075A000ED00F300FA00F100D100AA00BA00BF001C
:1075B0001023AC00BD00BC00A100AB00BB009125B6
:1075C00092259325022524256125622556255525DA
:1075D0006325512557255D255C255B251025142540
:1075E00034252C251C2500253C255E255F255A25A4
:1075F000542569256625602550256C256725682555
:107600006425652559255825522553256B256A255E
:1076100018250C25882584258C2590258025B103E7
:10762000DF009303C003A303C303B500C403A60391
:107630009803A903B4031E22C603B50329226122BD
:10764000B1006522642220232123F7004822B000E4
:107650001922B7001A227F20B200A025A000000046
:1076600080760008000000204800000090650008B7
:10767000C87600084800002040630000A0650008AC
:1076800000000000003801400E0600000008014024
:1076900002060000000200000004000025000000B7
:1076A0000000050005000000150F00080000E803B9
:1076B000E80300007D1900080000102710270000D3
:0876C000C50C000800000000E9
:0400000508000131BD
:00000001FF
