Component: ARM Compiler 5.06 update 7 (build 960) Tool: armlink [4d3601]

==============================================================================

Section Cross References

    hmi_app.o(i.HmiTask) refers to sensor_drv.o(i.GetSensorData) for GetSensorData
    hmi_app.o(i.HmiTask) refers to f2d.o(.text) for __aeabi_f2d
    hmi_app.o(i.HmiTask) refers to printfa.o(i.__0printf) for __2printf
    main.o(i.AppInit) refers to modbus_app.o(i.ModbusAppInit) for ModbusAppInit
    main.o(i.AppInit) refers to systick.o(i.TaskScheduleCbReg) for TaskScheduleCbReg
    main.o(i.AppInit) refers to main.o(i.TaskSchedule) for TaskSchedule
    main.o(i.DriverInit) refers to delay.o(i.DwtDelayInit) for DwtDelayInit
    main.o(i.DriverInit) refers to systick.o(i.SystickInit) for SystickInit
    main.o(i.DriverInit) refers to usb2com_drv.o(i.Usb2ComDrvInit) for Usb2ComDrvInit
    main.o(i.DriverInit) refers to sensor_drv.o(i.SensorDrvInit) for SensorDrvInit
    main.o(i.DriverInit) refers to led_drv.o(i.LedDrvInit) for LedDrvInit
    main.o(i.TaskHandler) refers to main.o(.data) for g_taskComps
    main.o(i.TaskSchedule) refers to main.o(.data) for g_taskComps
    main.o(i.main) refers to main.o(i.DriverInit) for DriverInit
    main.o(i.main) refers to main.o(i.AppInit) for AppInit
    main.o(i.main) refers to inflash.o(i.InflashTest) for InflashTest
    main.o(.data) refers to hmi_app.o(i.HmiTask) for HmiTask
    main.o(.data) refers to sensor_app.o(i.SensorAppTask) for SensorAppTask
==============================================================================

Removing Unused input sections from the image.

    Removing main.o(i.TaskHandler), (56 bytes).
    Removing mb.o(i.eMBClose), (40 bytes).
    Removing mb.o(i.eMBDisable), (52 bytes).
    Removing mb.o(i.eMBRegisterCB), (128 bytes).
    Removing mbutils.o(i.xMBUtilGetBits), (42 bytes).
    Removing mbutils.o(i.xMBUtilSetBits), (160 bytes).
    Removing delay.o(.rev16_text), (4 bytes).
    Removing delay.o(.revsh_text), (4 bytes).
    Removing delay.o(i.DelayNms), (24 bytes).
    Removing led_drv.o(.rev16_text), (4 bytes).
    Removing led_drv.o(.revsh_text), (4 bytes).
    Removing led_drv.o(i.ToggleLed), (84 bytes).
    Removing queue.o(i.QueueCount), (30 bytes).
    Removing queue.o(i.QueueInit), (12 bytes).
    Removing queue.o(i.QueuePop), (44 bytes).
    Removing queue.o(i.QueuePopArray), (40 bytes).
    Removing queue.o(i.QueuePush), (40 bytes).
    Removing queue.o(i.QueuePushArray), (40 bytes).
==============================================================================

Image Symbol Table

    Local Symbols

    Symbol Name                              Value     Ov Type        Size  Object(Section)

    ../clib/../cmprslib/zerorunl2.c          0x00000000   Number         0  __dczerorl2.o ABSOLUTE
    ../clib/microlib/division.c              0x00000000   Number         0  uldiv.o ABSOLUTE
    ../clib/microlib/division.c              0x00000000   Number         0  uidiv.o ABSOLUTE
    ../clib/microlib/init/entry.s            0x00000000   Number         0  entry8b.o ABSOLUTE
    ../clib/microlib/init/entry.s            0x00000000   Number         0  entry9a.o ABSOLUTE
    ../clib/microlib/init/entry.s            0x00000000   Number         0  entry11a.o ABSOLUTE
    ../clib/microlib/init/entry.s            0x00000000   Number         0  entry9b.o ABSOLUTE
    ../clib/microlib/init/entry.s            0x00000000   Number         0  entry10a.o ABSOLUTE
    ../clib/microlib/init/entry.s            0x00000000   Number         0  entry12b.o ABSOLUTE
    ../clib/microlib/init/entry.s            0x00000000   Number         0  entry12a.o ABSOLUTE
    ../clib/microlib/init/entry.s            0x00000000   Number         0  entry11b.o ABSOLUTE
    ../clib/microlib/init/entry.s            0x00000000   Number         0  entry10b.o ABSOLUTE
    ../clib/microlib/init/entry.s            0x00000000   Number         0  entry2.o ABSOLUTE
    ../clib/microlib/init/entry.s            0x00000000   Number         0  entry5.o ABSOLUTE
    ../clib/microlib/init/entry.s            0x00000000   Number         0  entry7a.o ABSOLUTE
    ../clib/microlib/init/entry.s            0x00000000   Number         0  entry7b.o ABSOLUTE
    ../clib/microlib/init/entry.s            0x00000000   Number         0  entry8a.o ABSOLUTE
    ../clib/microlib/init/entry.s            0x00000000   Number         0  entry.o ABSOLUTE
    ../clib/microlib/longlong.c              0x00000000   Number         0  llshl.o ABSOLUTE
    ../clib/microlib/longlong.c              0x00000000   Number         0  llushr.o ABSOLUTE
    ../clib/microlib/longlong.c              0x00000000   Number         0  llsshr.o ABSOLUTE
    ../clib/microlib/malloc/malloc.c         0x00000000   Number         0  mallocr.o ABSOLUTE
    ../clib/microlib/malloc/malloc.c         0x00000000   Number         0  malloc.o ABSOLUTE
    ../clib/microlib/malloc/malloc.c         0x00000000   Number         0  mallocra.o ABSOLUTE
    ../clib/microlib/malloc/malloc.c         0x00000000   Number         0  malloca.o ABSOLUTE
    ../clib/microlib/malloc/mvars.c          0x00000000   Number         0  mvars.o ABSOLUTE
    ../clib/microlib/printf/printf.c         0x00000000   Number         0  printf3.o ABSOLUTE
    ../clib/microlib/printf/printf.c         0x00000000   Number         0  printfb.o ABSOLUTE
    ../clib/microlib/printf/printf.c         0x00000000   Number         0  printfa.o ABSOLUTE
    ../clib/microlib/printf/printf.c         0x00000000   Number         0  printf2.o ABSOLUTE
    ../clib/microlib/printf/printf.c         0x00000000   Number         0  printf8.o ABSOLUTE
    ../clib/microlib/printf/printf.c         0x00000000   Number         0  printf1.o ABSOLUTE
    ../clib/microlib/printf/printf.c         0x00000000   Number         0  printf0.o ABSOLUTE
    ../clib/microlib/printf/printf.c         0x00000000   Number         0  printf4.o ABSOLUTE
    ../clib/microlib/printf/printf.c         0x00000000   Number         0  printf6.o ABSOLUTE
    ../clib/microlib/printf/printf.c         0x00000000   Number         0  printf7.o ABSOLUTE
    ../clib/microlib/printf/printf.c         0x00000000   Number         0  printf5.o ABSOLUTE
    ../clib/microlib/printf/stubs.s          0x00000000   Number         0  stubs.o ABSOLUTE
    ../clib/microlib/stdio/fputs.c           0x00000000   Number         0  fputs_e.o ABSOLUTE
    ../clib/microlib/stdio/fputs.c           0x00000000   Number         0  fputs.o ABSOLUTE
    ../clib/microlib/stdio/streams.c         0x00000000   Number         0  stdout.o ABSOLUTE
    ../clib/microlib/stdio/streams.c         0x00000000   Number         0  stderr.o ABSOLUTE
    ../clib/microlib/stdlib/qsort.c          0x00000000   Number         0  qsort.o ABSOLUTE
    ../clib/microlib/string/memcpy.c         0x00000000   Number         0  memcpyb.o ABSOLUTE
    ../clib/microlib/string/memcpy.c         0x00000000   Number         0  memcpya.o ABSOLUTE
    ../clib/microlib/string/memset.c         0x00000000   Number         0  memseta.o ABSOLUTE
    ../clib/microlib/stubs.s                 0x00000000   Number         0  iusefp.o ABSOLUTE
    ../fplib/microlib/f2d.c                  0x00000000   Number         0  f2d.o ABSOLUTE
    ../fplib/microlib/fpadd.c                0x00000000   Number         0  dadd.o ABSOLUTE
    ../fplib/microlib/fpdiv.c                0x00000000   Number         0  ddiv.o ABSOLUTE
    ../fplib/microlib/fpepilogue.c           0x00000000   Number         0  depilogue.o ABSOLUTE
    ../fplib/microlib/fpfix.c                0x00000000   Number         0  dfixul.o ABSOLUTE
    ../fplib/microlib/fpmul.c                0x00000000   Number         0  dmul.o ABSOLUTE
    App_Common\hmi_app.c                     0x00000000   Number         0  hmi_app.o ABSOLUTE
    App_Common\main.c                        0x00000000   Number         0  main.o ABSOLUTE
    App_Common\sensor_app.c                  0x00000000   Number         0  sensor_app.o ABSOLUTE
    App_Modbus\modbus_app.c                  0x00000000   Number         0  modbus_app.o ABSOLUTE
    Arm\\system_gd32f30x.c                   0x00000000   Number         0  system_gd32f30x.o ABSOLUTE
    Arm\startup_gd32f30x_hd.s                0x00000000   Number         0  startup_gd32f30x_hd.o ABSOLUTE
    Arm\system_gd32f30x.c                    0x00000000   Number         0  system_gd32f30x.o ABSOLUTE
    D:/ProfessionalTools/ARM/Packs/Keil/ARM_Compiler/1.7.2/Source/retarget_io.c 0x00000000   Number         0  retarget_io.o ABSOLUTE
    Driver_Common\\delay.c                   0x00000000   Number         0  delay.o ABSOLUTE
    Driver_Common\\inflash.c                 0x00000000   Number         0  inflash.o ABSOLUTE
    Driver_Common\\led_drv.c                 0x00000000   Number         0  led_drv.o ABSOLUTE
    Driver_Common\\ntc_drv.c                 0x00000000   Number         0  ntc_drv.o ABSOLUTE
    Driver_Common\\rh_drv.c                  0x00000000   Number         0  rh_drv.o ABSOLUTE
    Driver_Common\\systick.c                 0x00000000   Number         0  systick.o ABSOLUTE
    Driver_Common\\usb2com_drv.c             0x00000000   Number         0  usb2com_drv.o ABSOLUTE
    Driver_Common\delay.c                    0x00000000   Number         0  delay.o ABSOLUTE
    Driver_Common\inflash.c                  0x00000000   Number         0  inflash.o ABSOLUTE
    Driver_Common\led_drv.c                  0x00000000   Number         0  led_drv.o ABSOLUTE
    Driver_Common\ntc_drv.c                  0x00000000   Number         0  ntc_drv.o ABSOLUTE
    Driver_Common\queue.c                    0x00000000   Number         0  queue.o ABSOLUTE
    Driver_Common\rh_drv.c                   0x00000000   Number         0  rh_drv.o ABSOLUTE
    Driver_Common\sensor_drv.c               0x00000000   Number         0  sensor_drv.o ABSOLUTE
    Driver_Common\systick.c                  0x00000000   Number         0  systick.o ABSOLUTE
    Driver_Common\usb2com_drv.c              0x00000000   Number         0  usb2com_drv.o ABSOLUTE
    Driver_Modbus\\portserial.c              0x00000000   Number         0  portserial.o ABSOLUTE
    Driver_Modbus\\porttimer.c               0x00000000   Number         0  porttimer.o ABSOLUTE
    Driver_Modbus\portevent.c                0x00000000   Number         0  portevent.o ABSOLUTE
    Driver_Modbus\portserial.c               0x00000000   Number         0  portserial.o ABSOLUTE
    Driver_Modbus\porttimer.c                0x00000000   Number         0  porttimer.o ABSOLUTE
    GD32_Hal\Source\gd32f30x_adc.c           0x00000000   Number         0  gd32f30x_adc.o ABSOLUTE
    GD32_Hal\Source\gd32f30x_fmc.c           0x00000000   Number         0  gd32f30x_fmc.o ABSOLUTE
    GD32_Hal\Source\gd32f30x_gpio.c          0x00000000   Number         0  gd32f30x_gpio.o ABSOLUTE
    GD32_Hal\Source\gd32f30x_misc.c          0x00000000   Number         0  gd32f30x_misc.o ABSOLUTE
    GD32_Hal\Source\gd32f30x_pmu.c           0x00000000   Number         0  gd32f30x_pmu.o ABSOLUTE
    GD32_Hal\Source\gd32f30x_rcu.c           0x00000000   Number         0  gd32f30x_rcu.o ABSOLUTE
    GD32_Hal\Source\gd32f30x_timer.c         0x00000000   Number         0  gd32f30x_timer.o ABSOLUTE
    GD32_Hal\Source\gd32f30x_usart.c         0x00000000   Number         0  gd32f30x_usart.o ABSOLUTE
    GD32_Hal\\Source\\gd32f30x_adc.c         0x00000000   Number         0  gd32f30x_adc.o ABSOLUTE
    GD32_Hal\\Source\\gd32f30x_fmc.c         0x00000000   Number         0  gd32f30x_fmc.o ABSOLUTE
    GD32_Hal\\Source\\gd32f30x_gpio.c        0x00000000   Number         0  gd32f30x_gpio.o ABSOLUTE
    GD32_Hal\\Source\\gd32f30x_misc.c        0x00000000   Number         0  gd32f30x_misc.o ABSOLUTE
    GD32_Hal\\Source\\gd32f30x_pmu.c         0x00000000   Number         0  gd32f30x_pmu.o ABSOLUTE
    GD32_Hal\\Source\\gd32f30x_rcu.c         0x00000000   Number         0  gd32f30x_rcu.o ABSOLUTE
    GD32_Hal\\Source\\gd32f30x_timer.c       0x00000000   Number         0  gd32f30x_timer.o ABSOLUTE
    GD32_Hal\\Source\\gd32f30x_usart.c       0x00000000   Number         0  gd32f30x_usart.o ABSOLUTE
    Middleware_Modbus\functions\mbfuncholding.c 0x00000000   Number         0  mbfuncholding.o ABSOLUTE
    Middleware_Modbus\functions\mbutils.c    0x00000000   Number         0  mbutils.o ABSOLUTE
    Middleware_Modbus\mb.c                   0x00000000   Number         0  mb.o ABSOLUTE
    Middleware_Modbus\modbus_slave.c         0x00000000   Number         0  modbus_slave.o ABSOLUTE
    Middleware_Modbus\rtu\mbcrc.c            0x00000000   Number         0  mbcrc.o ABSOLUTE
    Middleware_Modbus\rtu\mbrtu.c            0x00000000   Number         0  mbrtu.o ABSOLUTE
    cdrcmple.s                               0x00000000   Number         0  cdrcmple.o ABSOLUTE
    dc.s                                     0x00000000   Number         0  dc.o ABSOLUTE
    handlers.s                               0x00000000   Number         0  handlers.o ABSOLUTE
    init.s                                   0x00000000   Number         0  init.o ABSOLUTE
    RESET                                    0x08000000   Section      304  startup_gd32f30x_hd.o(RESET)
    .ARM.Collect$$$$00000000                 0x08000130   Section        0  entry.o(.ARM.Collect$$$$00000000)
    .ARM.Collect$$$$00000001                 0x08000130   Section        4  entry2.o(.ARM.Collect$$$$00000001)
    .ARM.Collect$$$$00000004                 0x08000134   Section        4  entry5.o(.ARM.Collect$$$$00000004)
    .ARM.Collect$$$$00000008                 0x08000138   Section        0  entry7b.o(.ARM.Collect$$$$00000008)
    .ARM.Collect$$$$0000000A                 0x08000138   Section        0  entry8b.o(.ARM.Collect$$$$0000000A)
    .ARM.Collect$$$$0000000B                 0x08000138   Section        8  entry9a.o(.ARM.Collect$$$$0000000B)
    .ARM.Collect$$$$0000000E                 0x08000140   Section        4  entry12b.o(.ARM.Collect$$$$0000000E)
    .ARM.Collect$$$$0000000F                 0x08000144   Section        0  entry10a.o(.ARM.Collect$$$$0000000F)
    .ARM.Collect$$$$00000011                 0x08000144   Section        0  entry11a.o(.ARM.Collect$$$$00000011)
    .ARM.Collect$$$$00002712                 0x08000144   Section        4  entry2.o(.ARM.Collect$$$$00002712)
    __lit__00000000                          0x08000144   Data           4  entry2.o(.ARM.Collect$$$$00002712)
    .text                                    0x08000148   Section       36  startup_gd32f30x_hd.o(.text)
    $v0                                      0x08000148   Number         0  startup_gd32f30x_hd.o(.text)
    .text                                    0x0800016c   Section        0  qsort.o(.text)
    .text                                    0x08000208   Section        0  memcpya.o(.text)
    .text                                    0x0800022c   Section        0  memseta.o(.text)
    .text                                    0x08000250   Section        0  f2d.o(.text)
    .text                                    0x08000276   Section        0  uidiv.o(.text)
    .text                                    0x080002a2   Section        0  uldiv.o(.text)
    .text                                    0x08000304   Section        0  dadd.o(.text)
    .text                                    0x08000304   Section        0  iusefp.o(.text)
    .text                                    0x08000452   Section        0  dmul.o(.text)
    .text                                    0x08000536   Section        0  ddiv.o(.text)
    .text                                    0x08000614   Section        0  dfixul.o(.text)
    .text                                    0x08000644   Section       48  cdrcmple.o(.text)
    .text                                    0x08000674   Section       36  init.o(.text)
    .text                                    0x08000698   Section        0  llshl.o(.text)
    .text                                    0x080006b6   Section        0  llushr.o(.text)
    .text                                    0x080006d6   Section        0  llsshr.o(.text)
    .text                                    0x080006fa   Section        0  depilogue.o(.text)
    .text                                    0x080007b4   Section        0  __dczerorl2.o(.text)
    i.Adc2Humi                               0x0800080a   Section        0  rh_drv.o(i.Adc2Humi)
    Adc2Humi                                 0x0800080b   Thumb Code    72  rh_drv.o(i.Adc2Humi)
    i.Adc2Temp10Mul                          0x08000854   Section        0  ntc_drv.o(i.Adc2Temp10Mul)
    Adc2Temp10Mul                            0x08000855   Thumb Code    70  ntc_drv.o(i.Adc2Temp10Mul)
    i.AdcInit                                0x080008a0   Section        0  rh_drv.o(i.AdcInit)
    AdcInit                                  0x080008a1   Thumb Code   118  rh_drv.o(i.AdcInit)
    i.AdcInit                                0x0800091c   Section        0  ntc_drv.o(i.AdcInit)
    AdcInit                                  0x0800091d   Thumb Code   144  ntc_drv.o(i.AdcInit)
    i.AppInit                                0x080009b0   Section        0  main.o(i.AppInit)
    AppInit                                  0x080009b1   Thumb Code    14  main.o(i.AppInit)
    i.AscBinaryNear                          0x080009c4   Section        0  rh_drv.o(i.AscBinaryNear)
    AscBinaryNear                            0x080009c5   Thumb Code    60  rh_drv.o(i.AscBinaryNear)
    i.Compare                                0x08000a00   Section        0  ntc_drv.o(i.Compare)
    Compare                                  0x08000a01   Thumb Code    10  ntc_drv.o(i.Compare)
    i.DelayNus                               0x08000a0c   Section        0  delay.o(i.DelayNus)
    i.DesBinaryNear                          0x08000a38   Section        0  ntc_drv.o(i.DesBinaryNear)
    i.DriverInit                             0x08000a74   Section        0  main.o(i.DriverInit)
    DriverInit                               0x08000a75   Thumb Code    24  main.o(i.DriverInit)
    i.DwtDelayInit                           0x08000a8c   Section        0  delay.o(i.DwtDelayInit)
    i.EraseInflashForWrite                   0x08000ac8   Section        0  inflash.o(i.EraseInflashForWrite)
    i.ExchgeAcPower                          0x08000b88   Section        0  rh_drv.o(i.ExchgeAcPower)
    i.FindAdcBufByTemp                       0x08000bc8   Section        0  rh_drv.o(i.FindAdcBufByTemp)
    FindAdcBufByTemp                         0x08000bc9   Thumb Code   136  rh_drv.o(i.FindAdcBufByTemp)
    i.GetAdcVal                              0x08000c54   Section        0  rh_drv.o(i.GetAdcVal)
    GetAdcVal                                0x08000c55   Thumb Code    36  rh_drv.o(i.GetAdcVal)
    i.GetAdcVal                              0x08000c7c   Section        0  ntc_drv.o(i.GetAdcVal)
    GetAdcVal                                0x08000c7d   Thumb Code    36  ntc_drv.o(i.GetAdcVal)
    i.GetHumiData                            0x08000ca4   Section        0  rh_drv.o(i.GetHumiData)
    i.GetSensorData                          0x08000cb0   Section        0  sensor_drv.o(i.GetSensorData)
    i.GetTempData                            0x08000ccc   Section        0  ntc_drv.o(i.GetTempData)
    i.GpioInit                               0x08000cd8   Section        0  rh_drv.o(i.GpioInit)
    GpioInit                                 0x08000cd9   Thumb Code    76  rh_drv.o(i.GpioInit)
    i.GpioInit                               0x08000d2c   Section        0  ntc_drv.o(i.GpioInit)
    GpioInit                                 0x08000d2d   Thumb Code    24  ntc_drv.o(i.GpioInit)
    i.GpioInit                               0x08000d48   Section        0  portserial.o(i.GpioInit)
    GpioInit                                 0x08000d49   Thumb Code    40  portserial.o(i.GpioInit)
    i.HmiTask                                0x08000d74   Section        0  hmi_app.o(i.HmiTask)
    i.HumiDrvInit                            0x08000dd8   Section        0  rh_drv.o(i.HumiDrvInit)
    i.HumiSensorProc                         0x08000dec   Section        0  rh_drv.o(i.HumiSensorProc)
    i.InflashTest                            0x08000e24   Section        0  inflash.o(i.InflashTest)
    i.LedDrvInit                             0x08000fac   Section        0  led_drv.o(i.LedDrvInit)
    i.MeanValueFilter                        0x08001008   Section        0  ntc_drv.o(i.MeanValueFilter)
    MeanValueFilter                          0x08001009   Thumb Code    30  ntc_drv.o(i.MeanValueFilter)
    i.MidianMeanFilter                       0x08001028   Section        0  ntc_drv.o(i.MidianMeanFilter)
    MidianMeanFilter                         0x08001029   Thumb Code    30  ntc_drv.o(i.MidianMeanFilter)
    i.ModbusAppInit                          0x0800104c   Section        0  modbus_app.o(i.ModbusAppInit)
    i.ModbusAppTask                          0x08001064   Section        0  modbus_app.o(i.ModbusAppTask)
    i.ModbusGetHumi                          0x0800106c   Section        0  modbus_app.o(i.ModbusGetHumi)
    ModbusGetHumi                            0x0800106d   Thumb Code    38  modbus_app.o(i.ModbusGetHumi)
    i.ModbusGetTemp                          0x08001092   Section        0  modbus_app.o(i.ModbusGetTemp)
    ModbusGetTemp                            0x08001093   Thumb Code    34  modbus_app.o(i.ModbusGetTemp)
    i.ModbusSetLed1                          0x080010b4   Section        0  modbus_app.o(i.ModbusSetLed1)
    ModbusSetLed1                            0x080010b5   Thumb Code    22  modbus_app.o(i.ModbusSetLed1)
    i.ModbusSetLed2                          0x080010ca   Section        0  modbus_app.o(i.ModbusSetLed2)
    ModbusSetLed2                            0x080010cb   Thumb Code    22  modbus_app.o(i.ModbusSetLed2)
    i.ModbusSetLed3                          0x080010e0   Section        0  modbus_app.o(i.ModbusSetLed3)
    ModbusSetLed3                            0x080010e1   Thumb Code    22  modbus_app.o(i.ModbusSetLed3)
    i.ModbusSlaveInit                        0x080010f8   Section        0  modbus_slave.o(i.ModbusSlaveInit)
    i.PushTemp10MulToBuf                     0x0800111c   Section        0  ntc_drv.o(i.PushTemp10MulToBuf)
    PushTemp10MulToBuf                       0x0800111d   Thumb Code    40  ntc_drv.o(i.PushTemp10MulToBuf)
    i.ReadHoldingRegistersCb                 0x0800114c   Section        0  modbus_app.o(i.ReadHoldingRegistersCb)
    ReadHoldingRegistersCb                   0x0800114d   Thumb Code   130  modbus_app.o(i.ReadHoldingRegistersCb)
    i.ReadInflashData                        0x080011d4   Section        0  inflash.o(i.ReadInflashData)
    i.SensorAppTask                          0x08001200   Section        0  sensor_app.o(i.SensorAppTask)
    i.SensorDrvInit                          0x08001208   Section        0  sensor_drv.o(i.SensorDrvInit)
    i.SensorDrvProc                          0x08001214   Section        0  sensor_drv.o(i.SensorDrvProc)
    i.SwitchInit                             0x08001230   Section        0  portserial.o(i.SwitchInit)
    SwitchInit                               0x08001231   Thumb Code    26  portserial.o(i.SwitchInit)
    i.SysTick_Handler                        0x08001250   Section        0  systick.o(i.SysTick_Handler)
    i.SystemInit                             0x08001280   Section        0  system_gd32f30x.o(i.SystemInit)
    i.SystickInit                            0x08001328   Section        0  systick.o(i.SystickInit)
    i.TIMER3_IRQHandler                      0x0800138c   Section        0  porttimer.o(i.TIMER3_IRQHandler)
    i.TIMER4_IRQHandler                      0x080013b8   Section        0  rh_drv.o(i.TIMER4_IRQHandler)
    i.TaskSchedule                           0x08001420   Section        0  main.o(i.TaskSchedule)
    TaskSchedule                             0x08001421   Thumb Code    98  main.o(i.TaskSchedule)
    i.TaskScheduleCbReg                      0x08001488   Section        0  systick.o(i.TaskScheduleCbReg)
    i.TempDrvInit                            0x08001494   Section        0  ntc_drv.o(i.TempDrvInit)
    i.TempSensorProc                         0x080014a0   Section        0  ntc_drv.o(i.TempSensorProc)
    i.TimerInit                              0x08001520   Section        0  rh_drv.o(i.TimerInit)
    TimerInit                                0x08001521   Thumb Code    78  rh_drv.o(i.TimerInit)
    i.TimerInit                              0x08001574   Section        0  porttimer.o(i.TimerInit)
    TimerInit                                0x08001575   Thumb Code    82  porttimer.o(i.TimerInit)
    i.TurnOffLed                             0x080015cc   Section        0  led_drv.o(i.TurnOffLed)
    i.TurnOnLed                              0x080015f8   Section        0  led_drv.o(i.TurnOnLed)
    i.USART0_IRQHandler                      0x08001624   Section        0  usb2com_drv.o(i.USART0_IRQHandler)
    i.USART1_IRQHandler                      0x08001660   Section        0  portserial.o(i.USART1_IRQHandler)
    i.UartInit                               0x080016a4   Section        0  portserial.o(i.UartInit)
    UartInit                                 0x080016a5   Thumb Code   112  portserial.o(i.UartInit)
    i.Usb2ComDrvInit                         0x08001718   Section        0  usb2com_drv.o(i.Usb2ComDrvInit)
    i.Usb2ComGpioInit                        0x08001728   Section        0  usb2com_drv.o(i.Usb2ComGpioInit)
    Usb2ComGpioInit                          0x08001729   Thumb Code    40  usb2com_drv.o(i.Usb2ComGpioInit)
    i.Usb2ComUartInit                        0x08001754   Section        0  usb2com_drv.o(i.Usb2ComUartInit)
    Usb2ComUartInit                          0x08001755   Thumb Code   114  usb2com_drv.o(i.Usb2ComUartInit)
    i.WriteHoldingRegistersCb                0x080017cc   Section        0  modbus_app.o(i.WriteHoldingRegistersCb)
    WriteHoldingRegistersCb                  0x080017cd   Thumb Code   140  modbus_app.o(i.WriteHoldingRegistersCb)
    i.WriteInflashData                       0x0800185c   Section        0  inflash.o(i.WriteInflashData)
    i.__0printf                              0x080018e8   Section        0  printfa.o(i.__0printf)
    i.__aeabi_assert                         0x08001908   Section        0  retarget_io.o(i.__aeabi_assert)
    i.__scatterload_copy                     0x080019a4   Section       14  handlers.o(i.__scatterload_copy)
    i.__scatterload_null                     0x080019b2   Section        2  handlers.o(i.__scatterload_null)
    i.__scatterload_zeroinit                 0x080019b4   Section       14  handlers.o(i.__scatterload_zeroinit)
    i._fp_digits                             0x080019c4   Section        0  printfa.o(i._fp_digits)
    _fp_digits                               0x080019c5   Thumb Code   366  printfa.o(i._fp_digits)
    i._printf_core                           0x08001b48   Section        0  printfa.o(i._printf_core)
    _printf_core                             0x08001b49   Thumb Code  1704  printfa.o(i._printf_core)
    i._printf_post_padding                   0x080021fc   Section        0  printfa.o(i._printf_post_padding)
    _printf_post_padding                     0x080021fd   Thumb Code    36  printfa.o(i._printf_post_padding)
    i._printf_pre_padding                    0x08002220   Section        0  printfa.o(i._printf_pre_padding)
    _printf_pre_padding                      0x08002221   Thumb Code    46  printfa.o(i._printf_pre_padding)
    i.abort                                  0x0800224e   Section        0  retarget_io.o(i.abort)
    i.adc_calibration_enable                 0x08002252   Section        0  gd32f30x_adc.o(i.adc_calibration_enable)
    i.adc_channel_length_config              0x0800227c   Section        0  gd32f30x_adc.o(i.adc_channel_length_config)
    i.adc_data_alignment_config              0x080022c2   Section        0  gd32f30x_adc.o(i.adc_data_alignment_config)
    i.adc_deinit                             0x080022d8   Section        0  gd32f30x_adc.o(i.adc_deinit)
    i.adc_enable                             0x08002330   Section        0  gd32f30x_adc.o(i.adc_enable)
    i.adc_external_trigger_config            0x08002342   Section        0  gd32f30x_adc.o(i.adc_external_trigger_config)
    i.adc_external_trigger_source_config     0x08002380   Section        0  gd32f30x_adc.o(i.adc_external_trigger_source_config)
    i.adc_flag_clear                         0x080023b0   Section        0  gd32f30x_adc.o(i.adc_flag_clear)
    i.adc_flag_get                           0x080023b6   Section        0  gd32f30x_adc.o(i.adc_flag_get)
    i.adc_mode_config                        0x080023c4   Section        0  gd32f30x_adc.o(i.adc_mode_config)
    i.adc_oversample_mode_config             0x080023e0   Section        0  gd32f30x_adc.o(i.adc_oversample_mode_config)
    i.adc_oversample_mode_enable             0x0800241a   Section        0  gd32f30x_adc.o(i.adc_oversample_mode_enable)
    i.adc_regular_channel_config             0x08002428   Section        0  gd32f30x_adc.o(i.adc_regular_channel_config)
    i.adc_regular_data_read                  0x080024d4   Section        0  gd32f30x_adc.o(i.adc_regular_data_read)
    i.adc_resolution_config                  0x080024dc   Section        0  gd32f30x_adc.o(i.adc_resolution_config)
    i.adc_software_trigger_enable            0x080024f0   Section        0  gd32f30x_adc.o(i.adc_software_trigger_enable)
    i.adc_special_function_config            0x0800250e   Section        0  gd32f30x_adc.o(i.adc_special_function_config)
    i.eMBEnable                              0x08002568   Section        0  mb.o(i.eMBEnable)
    i.eMBFuncReadHoldingRegister             0x08002590   Section        0  mbfuncholding.o(i.eMBFuncReadHoldingRegister)
    i.eMBFuncWriteHoldingRegister            0x08002616   Section        0  mbfuncholding.o(i.eMBFuncWriteHoldingRegister)
    i.eMBFuncWriteMultipleHoldingRegister    0x08002654   Section        0  mbfuncholding.o(i.eMBFuncWriteMultipleHoldingRegister)
    i.eMBInit                                0x080026c0   Section        0  mb.o(i.eMBInit)
    i.eMBPoll                                0x080027a0   Section        0  mb.o(i.eMBPoll)
    i.eMBRTUInit                             0x080028d8   Section        0  mbrtu.o(i.eMBRTUInit)
    i.eMBRTUReceive                          0x08002928   Section        0  mbrtu.o(i.eMBRTUReceive)
    i.eMBRTUSend                             0x080029cc   Section        0  mbrtu.o(i.eMBRTUSend)
    i.eMBRTUStart                            0x08002a74   Section        0  mbrtu.o(i.eMBRTUStart)
    i.eMBRTUStop                             0x08002a90   Section        0  mbrtu.o(i.eMBRTUStop)
    i.eMBRegHoldingCB                        0x08002aa0   Section        0  modbus_slave.o(i.eMBRegHoldingCB)
    i.fmc_bank0_ready_wait                   0x08002ad8   Section        0  gd32f30x_fmc.o(i.fmc_bank0_ready_wait)
    i.fmc_bank0_state_get                    0x08002afc   Section        0  gd32f30x_fmc.o(i.fmc_bank0_state_get)
    i.fmc_bank1_ready_wait                   0x08002b2c   Section        0  gd32f30x_fmc.o(i.fmc_bank1_ready_wait)
    i.fmc_bank1_state_get                    0x08002b50   Section        0  gd32f30x_fmc.o(i.fmc_bank1_state_get)
    i.fmc_flag_clear                         0x08002b80   Section        0  gd32f30x_fmc.o(i.fmc_flag_clear)
    i.fmc_halfword_program                   0x08002ba0   Section        0  gd32f30x_fmc.o(i.fmc_halfword_program)
    i.fmc_lock                               0x08002c58   Section        0  gd32f30x_fmc.o(i.fmc_lock)
    i.fmc_page_erase                         0x08002c84   Section        0  gd32f30x_fmc.o(i.fmc_page_erase)
    i.fmc_unlock                             0x08002d68   Section        0  gd32f30x_fmc.o(i.fmc_unlock)
    i.fputc                                  0x08002dac   Section        0  usb2com_drv.o(i.fputc)
    i.fputs                                  0x08002dd4   Section        0  fputs.o(i.fputs)
    i.free                                   0x08002dec   Section        0  malloc.o(i.free)
    i.gpio_bit_reset                         0x08002e3c   Section        0  gd32f30x_gpio.o(i.gpio_bit_reset)
    i.gpio_bit_set                           0x08002e40   Section        0  gd32f30x_gpio.o(i.gpio_bit_set)
    i.gpio_bit_write                         0x08002e44   Section        0  gd32f30x_gpio.o(i.gpio_bit_write)
    i.gpio_init                              0x08002e4e   Section        0  gd32f30x_gpio.o(i.gpio_init)
    i.gpio_output_bit_get                    0x08002f0a   Section        0  gd32f30x_gpio.o(i.gpio_output_bit_get)
    i.main                                   0x08002f1a   Section        0  main.o(i.main)
    i.malloc                                 0x08002f2c   Section        0  malloc.o(i.malloc)
    i.nvic_irq_enable                        0x08002f98   Section        0  gd32f30x_misc.o(i.nvic_irq_enable)
    i.nvic_priority_group_set                0x0800305c   Section        0  gd32f30x_misc.o(i.nvic_priority_group_set)
    i.prveMBError2Exception                  0x08003070   Section        0  mbutils.o(i.prveMBError2Exception)
    i.prvvTIMERExpiredISR                    0x08003094   Section        0  porttimer.o(i.prvvTIMERExpiredISR)
    prvvTIMERExpiredISR                      0x08003095   Thumb Code    10  porttimer.o(i.prvvTIMERExpiredISR)
    i.prvvUARTRxISR                          0x080030a4   Section        0  portserial.o(i.prvvUARTRxISR)
    prvvUARTRxISR                            0x080030a5   Thumb Code    10  portserial.o(i.prvvUARTRxISR)
    i.prvvUARTTxReadyISR                     0x080030b4   Section        0  portserial.o(i.prvvUARTTxReadyISR)
    prvvUARTTxReadyISR                       0x080030b5   Thumb Code    10  portserial.o(i.prvvUARTTxReadyISR)
    i.rcu_adc_clock_config                   0x080030c4   Section        0  gd32f30x_rcu.o(i.rcu_adc_clock_config)
    i.rcu_clock_freq_get                     0x08003130   Section        0  gd32f30x_rcu.o(i.rcu_clock_freq_get)
    i.rcu_periph_clock_enable                0x08003288   Section        0  gd32f30x_rcu.o(i.rcu_periph_clock_enable)
    i.rcu_periph_reset_disable               0x080032a8   Section        0  gd32f30x_rcu.o(i.rcu_periph_reset_disable)
    i.rcu_periph_reset_enable                0x080032c8   Section        0  gd32f30x_rcu.o(i.rcu_periph_reset_enable)
    i.system_clock_120m_hxtal                0x080032e8   Section        0  system_gd32f30x.o(i.system_clock_120m_hxtal)
    system_clock_120m_hxtal                  0x080032e9   Thumb Code   258  system_gd32f30x.o(i.system_clock_120m_hxtal)
    i.system_clock_config                    0x080033fc   Section        0  system_gd32f30x.o(i.system_clock_config)
    system_clock_config                      0x080033fd   Thumb Code     8  system_gd32f30x.o(i.system_clock_config)
    i.timer_counter_value_config             0x08003404   Section        0  gd32f30x_timer.o(i.timer_counter_value_config)
    i.timer_deinit                           0x08003408   Section        0  gd32f30x_timer.o(i.timer_deinit)
    i.timer_disable                          0x080034e4   Section        0  gd32f30x_timer.o(i.timer_disable)
    i.timer_enable                           0x080034ee   Section        0  gd32f30x_timer.o(i.timer_enable)
    i.timer_init                             0x080034f8   Section        0  gd32f30x_timer.o(i.timer_init)
    i.timer_interrupt_disable                0x08003590   Section        0  gd32f30x_timer.o(i.timer_interrupt_disable)
    i.timer_interrupt_enable                 0x08003598   Section        0  gd32f30x_timer.o(i.timer_interrupt_enable)
    i.timer_interrupt_flag_clear             0x080035a0   Section        0  gd32f30x_timer.o(i.timer_interrupt_flag_clear)
    i.timer_interrupt_flag_get               0x080035a6   Section        0  gd32f30x_timer.o(i.timer_interrupt_flag_get)
    i.timer_struct_para_init                 0x080035be   Section        0  gd32f30x_timer.o(i.timer_struct_para_init)
    i.usMBCRC16                              0x080035d4   Section        0  mbcrc.o(i.usMBCRC16)
    i.usart_baudrate_set                     0x0800360c   Section        0  gd32f30x_usart.o(i.usart_baudrate_set)
    i.usart_data_first_config                0x0800369c   Section        0  gd32f30x_usart.o(i.usart_data_first_config)
    i.usart_data_receive                     0x080036b0   Section        0  gd32f30x_usart.o(i.usart_data_receive)
    i.usart_data_transmit                    0x080036ba   Section        0  gd32f30x_usart.o(i.usart_data_transmit)
    i.usart_deinit                           0x080036c4   Section        0  gd32f30x_usart.o(i.usart_deinit)
    i.usart_enable                           0x08003754   Section        0  gd32f30x_usart.o(i.usart_enable)
    i.usart_flag_get                         0x0800375e   Section        0  gd32f30x_usart.o(i.usart_flag_get)
    i.usart_interrupt_disable                0x0800377c   Section        0  gd32f30x_usart.o(i.usart_interrupt_disable)
    i.usart_interrupt_enable                 0x08003796   Section        0  gd32f30x_usart.o(i.usart_interrupt_enable)
    i.usart_interrupt_flag_clear             0x080037b0   Section        0  gd32f30x_usart.o(i.usart_interrupt_flag_clear)
    i.usart_interrupt_flag_get               0x080037c2   Section        0  gd32f30x_usart.o(i.usart_interrupt_flag_get)
    i.usart_parity_config                    0x080037fa   Section        0  gd32f30x_usart.o(i.usart_parity_config)
    i.usart_receive_config                   0x0800380a   Section        0  gd32f30x_usart.o(i.usart_receive_config)
    i.usart_stop_bit_set                     0x0800381e   Section        0  gd32f30x_usart.o(i.usart_stop_bit_set)
    i.usart_transmit_config                  0x0800382e   Section        0  gd32f30x_usart.o(i.usart_transmit_config)
    i.usart_word_length_set                  0x08003842   Section        0  gd32f30x_usart.o(i.usart_word_length_set)
    i.vMBPortSerialEnable                    0x08003854   Section        0  portserial.o(i.vMBPortSerialEnable)
    i.vMBPortTimersDisable                   0x080038c0   Section        0  porttimer.o(i.vMBPortTimersDisable)
    i.vMBPortTimersEnable                    0x080038f0   Section        0  porttimer.o(i.vMBPortTimersEnable)
    i.xMBPortEventGet                        0x08003920   Section        0  portevent.o(i.xMBPortEventGet)
    i.xMBPortEventInit                       0x08003944   Section        0  portevent.o(i.xMBPortEventInit)
    i.xMBPortEventPost                       0x08003954   Section        0  portevent.o(i.xMBPortEventPost)
    i.xMBPortSerialGetByte                   0x0800396c   Section        0  portserial.o(i.xMBPortSerialGetByte)
    i.xMBPortSerialInit                      0x08003984   Section        0  portserial.o(i.xMBPortSerialInit)
    i.xMBPortSerialPutByte                   0x080039a4   Section        0  portserial.o(i.xMBPortSerialPutByte)
    i.xMBPortTimersInit                      0x080039bc   Section        0  porttimer.o(i.xMBPortTimersInit)
    i.xMBRTUReceiveFSM                       0x080039cc   Section        0  mbrtu.o(i.xMBRTUReceiveFSM)
    i.xMBRTUTimerT35Expired                  0x08003aa4   Section        0  mbrtu.o(i.xMBRTUTimerT35Expired)
    i.xMBRTUTransmitFSM                      0x08003b2c   Section        0  mbrtu.o(i.xMBRTUTransmitFSM)
    .constdata                               0x08003bec   Section       16  modbus_app.o(.constdata)
    .constdata                               0x08003bfc   Section      512  mbcrc.o(.constdata)
    aucCRCHi                                 0x08003bfc   Data         256  mbcrc.o(.constdata)
    aucCRCLo                                 0x08003cfc   Data         256  mbcrc.o(.constdata)
    .constdata                               0x08003dfc   Section      468  rh_drv.o(.constdata)
    g_rhAdcTable                             0x08003dfc   Data         468  rh_drv.o(.constdata)
    .constdata                               0x08003fd0   Section      200  ntc_drv.o(.constdata)
    g_ntcAdcTable                            0x08003fd0   Data         200  ntc_drv.o(.constdata)
    .conststring                             0x08004098   Section       93  mbrtu.o(.conststring)
    .data                                    0x20000000   Section       36  main.o(.data)
    g_taskComps                              0x20000000   Data          36  main.o(.data)
    .data                                    0x20000024   Section       80  modbus_app.o(.data)
    g_regInstanceTab                         0x20000024   Data          80  modbus_app.o(.data)
    .data                                    0x20000074   Section      181  mb.o(.data)
    ucMBAddress                              0x20000074   Data           1  mb.o(.data)
    eMBCurrentMode                           0x20000075   Data           1  mb.o(.data)
    eMBState                                 0x20000076   Data           1  mb.o(.data)
    peMBFrameSendCur                         0x20000078   Data           4  mb.o(.data)
    pvMBFrameStartCur                        0x2000007c   Data           4  mb.o(.data)
    pvMBFrameStopCur                         0x20000080   Data           4  mb.o(.data)
    peMBFrameReceiveCur                      0x20000084   Data           4  mb.o(.data)
    pvMBFrameCloseCur                        0x20000088   Data           4  mb.o(.data)
    xFuncHandlers                            0x200000a0   Data         128  mb.o(.data)
    ucMBFrame                                0x20000120   Data           4  mb.o(.data)
    ucRcvAddress                             0x20000124   Data           1  mb.o(.data)
    ucFunctionCode                           0x20000125   Data           1  mb.o(.data)
    usLength                                 0x20000126   Data           2  mb.o(.data)
    eException                               0x20000128   Data           1  mb.o(.data)
    .data                                    0x2000012c   Section        8  modbus_slave.o(.data)
    g_modbusFuncCb                           0x2000012c   Data           8  modbus_slave.o(.data)
    .data                                    0x20000134   Section       12  mbrtu.o(.data)
    eSndState                                0x20000134   Data           1  mbrtu.o(.data)
    eRcvState                                0x20000135   Data           1  mbrtu.o(.data)
    pucSndBufferCur                          0x20000138   Data           4  mbrtu.o(.data)
    usSndBufferCount                         0x2000013c   Data           2  mbrtu.o(.data)
    usRcvBufferPos                           0x2000013e   Data           2  mbrtu.o(.data)
    .data                                    0x20000140   Section       36  led_drv.o(.data)
    g_ledList                                0x20000140   Data          36  led_drv.o(.data)
    .data                                    0x20000164   Section        6  rh_drv.o(.data)
    g_humiData                               0x20000164   Data           1  rh_drv.o(.data)
    g_adcVal                                 0x20000166   Data           2  rh_drv.o(.data)
    s_timingNum                              0x20000168   Data           2  rh_drv.o(.data)
    .data                                    0x20000170   Section       16  systick.o(.data)
    g_pTaskScheduleFunc                      0x20000170   Data           4  systick.o(.data)
    g_systemRunTime                          0x20000178   Data           8  systick.o(.data)
    .data                                    0x20000180   Section       32  usb2com_drv.o(.data)
    g_pProcUartData                          0x2000019c   Data           4  usb2com_drv.o(.data)
    .data                                    0x200001a0   Section        6  ntc_drv.o(.data)
    g_temp                                   0x200001a0   Data           4  ntc_drv.o(.data)
    s_index                                  0x200001a4   Data           1  ntc_drv.o(.data)
    s_convertNum                             0x200001a5   Data           1  ntc_drv.o(.data)
    .data                                    0x200001a6   Section        2  portevent.o(.data)
    eQueuedEvent                             0x200001a6   Data           1  portevent.o(.data)
    xEventInQueue                            0x200001a7   Data           1  portevent.o(.data)
    .data                                    0x200001a8   Section       36  portserial.o(.data)
    g_uartHwInfo                             0x200001a8   Data          36  portserial.o(.data)
    .data                                    0x200001cc   Section        8  porttimer.o(.data)
    g_timerInfo                              0x200001cc   Data           8  porttimer.o(.data)
    .data                                    0x200001d4   Section        4  stderr.o(.data)
    .data                                    0x200001d8   Section        4  stdout.o(.data)
    .data                                    0x200001dc   Section        4  mvars.o(.data)
    .data                                    0x200001e0   Section        4  mvars.o(.data)
    .bss                                     0x200001e4   Section      256  mbrtu.o(.bss)
    .bss                                     0x200002e4   Section       40  ntc_drv.o(.bss)
    g_temp10MulBuf                           0x200002e4   Data          40  ntc_drv.o(.bss)
    HEAP                                     0x20000310   Section     1024  startup_gd32f30x_hd.o(HEAP)
    STACK                                    0x20000710   Section    16384  startup_gd32f30x_hd.o(STACK)

    Global Symbols

    Symbol Name                              Value     Ov Type        Size  Object(Section)

    BuildAttributes$$THM_ISAv4$E$P$D$K$B$S$7EM$VFPi3$EXTD16$VFPS$VFMA$PE$A:L22UL41UL21$X:L11$S22US41US21$IEEE1$IW$USESV6$~STKCKD$USESV7$~SHL$OSPACE$ROPI$EBA8$MICROLIB$REQ8$PRES8$EABIv2 0x00000000   Number         0  anon$$obj.o ABSOLUTE
    __ARM_use_no_argv                        0x00000000   Number         0  main.o ABSOLUTE
    _printf_a                                0x00000000   Number         0  stubs.o ABSOLUTE
    _printf_c                                0x00000000   Number         0  stubs.o ABSOLUTE
    _printf_charcount                        0x00000000   Number         0  stubs.o ABSOLUTE
    _printf_d                                0x00000000   Number         0  stubs.o ABSOLUTE
    _printf_e                                0x00000000   Number         0  stubs.o ABSOLUTE
    _printf_f                                0x00000000   Number         0  stubs.o ABSOLUTE
    _printf_flags                            0x00000000   Number         0  stubs.o ABSOLUTE
    _printf_fp_dec                           0x00000000   Number         0  stubs.o ABSOLUTE
    _printf_fp_hex                           0x00000000   Number         0  stubs.o ABSOLUTE
    _printf_g                                0x00000000   Number         0  stubs.o ABSOLUTE
    _printf_i                                0x00000000   Number         0  stubs.o ABSOLUTE
    _printf_int_dec                          0x00000000   Number         0  stubs.o ABSOLUTE
    _printf_l                                0x00000000   Number         0  stubs.o ABSOLUTE
    _printf_lc                               0x00000000   Number         0  stubs.o ABSOLUTE
    _printf_ll                               0x00000000   Number         0  stubs.o ABSOLUTE
    _printf_lld                              0x00000000   Number         0  stubs.o ABSOLUTE
    _printf_lli                              0x00000000   Number         0  stubs.o ABSOLUTE
    _printf_llo                              0x00000000   Number         0  stubs.o ABSOLUTE
    _printf_llu                              0x00000000   Number         0  stubs.o ABSOLUTE
    _printf_llx                              0x00000000   Number         0  stubs.o ABSOLUTE
    _printf_longlong_dec                     0x00000000   Number         0  stubs.o ABSOLUTE
    _printf_longlong_hex                     0x00000000   Number         0  stubs.o ABSOLUTE
    _printf_longlong_oct                     0x00000000   Number         0  stubs.o ABSOLUTE
    _printf_ls                               0x00000000   Number         0  stubs.o ABSOLUTE
    _printf_mbtowc                           0x00000000   Number         0  stubs.o ABSOLUTE
    _printf_n                                0x00000000   Number         0  stubs.o ABSOLUTE
    _printf_o                                0x00000000   Number         0  stubs.o ABSOLUTE
    _printf_p                                0x00000000   Number         0  stubs.o ABSOLUTE
    _printf_percent                          0x00000000   Number         0  stubs.o ABSOLUTE
    _printf_pre_padding                      0x00000000   Number         0  stubs.o ABSOLUTE
    _printf_return_value                     0x00000000   Number         0  stubs.o ABSOLUTE
    _printf_s                                0x00000000   Number         0  stubs.o ABSOLUTE
    _printf_sizespec                         0x00000000   Number         0  stubs.o ABSOLUTE
    _printf_str                              0x00000000   Number         0  stubs.o ABSOLUTE
    _printf_truncate_signed                  0x00000000   Number         0  stubs.o ABSOLUTE
    _printf_truncate_unsigned                0x00000000   Number         0  stubs.o ABSOLUTE
    _printf_u                                0x00000000   Number         0  stubs.o ABSOLUTE
    _printf_wc                               0x00000000   Number         0  stubs.o ABSOLUTE
    _printf_wctomb                           0x00000000   Number         0  stubs.o ABSOLUTE
    _printf_widthprec                        0x00000000   Number         0  stubs.o ABSOLUTE
    _printf_x                                0x00000000   Number         0  stubs.o ABSOLUTE
    __arm_fini_                               - Undefined Weak Reference
    __cpp_initialize__aeabi_                  - Undefined Weak Reference
    __cxa_finalize                            - Undefined Weak Reference
    _clock_init                               - Undefined Weak Reference
    _microlib_exit                            - Undefined Weak Reference
    __Vectors_Size                           0x00000130   Number         0  startup_gd32f30x_hd.o ABSOLUTE
    __Vectors                                0x08000000   Data           4  startup_gd32f30x_hd.o(RESET)
    __Vectors_End                            0x08000130   Data           0  startup_gd32f30x_hd.o(RESET)
    __main                                   0x08000131   Thumb Code     0  entry.o(.ARM.Collect$$$$00000000)
    _main_stk                                0x08000131   Thumb Code     0  entry2.o(.ARM.Collect$$$$00000001)
    _main_scatterload                        0x08000135   Thumb Code     0  entry5.o(.ARM.Collect$$$$00000004)
    __main_after_scatterload                 0x08000139   Thumb Code     0  entry5.o(.ARM.Collect$$$$00000004)
    _main_clock                              0x08000139   Thumb Code     0  entry7b.o(.ARM.Collect$$$$00000008)
    _main_cpp_init                           0x08000139   Thumb Code     0  entry8b.o(.ARM.Collect$$$$0000000A)
    _main_init                               0x08000139   Thumb Code     0  entry9a.o(.ARM.Collect$$$$0000000B)
    __rt_lib_shutdown_fini                   0x08000141   Thumb Code     0  entry12b.o(.ARM.Collect$$$$0000000E)
    __rt_final_cpp                           0x08000145   Thumb Code     0  entry10a.o(.ARM.Collect$$$$0000000F)
    __rt_final_exit                          0x08000145   Thumb Code     0  entry11a.o(.ARM.Collect$$$$00000011)
    Reset_Handler                            0x08000149   Thumb Code     8  startup_gd32f30x_hd.o(.text)
    NMI_Handler                              0x08000151   Thumb Code     2  startup_gd32f30x_hd.o(.text)
    HardFault_Handler                        0x08000153   Thumb Code     2  startup_gd32f30x_hd.o(.text)
    MemManage_Handler                        0x08000155   Thumb Code     2  startup_gd32f30x_hd.o(.text)
    BusFault_Handler                         0x08000157   Thumb Code     2  startup_gd32f30x_hd.o(.text)
    UsageFault_Handler                       0x08000159   Thumb Code     2  startup_gd32f30x_hd.o(.text)
    SVC_Handler                              0x0800015b   Thumb Code     2  startup_gd32f30x_hd.o(.text)
    DebugMon_Handler                         0x0800015d   Thumb Code     2  startup_gd32f30x_hd.o(.text)
    PendSV_Handler                           0x0800015f   Thumb Code     2  startup_gd32f30x_hd.o(.text)
    ADC0_1_IRQHandler                        0x08000163   Thumb Code     0  startup_gd32f30x_hd.o(.text)
    ADC2_IRQHandler                          0x08000163   Thumb Code     0  startup_gd32f30x_hd.o(.text)
    CAN0_EWMC_IRQHandler                     0x08000163   Thumb Code     0  startup_gd32f30x_hd.o(.text)
    CAN0_RX1_IRQHandler                      0x08000163   Thumb Code     0  startup_gd32f30x_hd.o(.text)
    DMA0_Channel0_IRQHandler                 0x08000163   Thumb Code     0  startup_gd32f30x_hd.o(.text)
    DMA0_Channel1_IRQHandler                 0x08000163   Thumb Code     0  startup_gd32f30x_hd.o(.text)
    DMA0_Channel2_IRQHandler                 0x08000163   Thumb Code     0  startup_gd32f30x_hd.o(.text)
    DMA0_Channel3_IRQHandler                 0x08000163   Thumb Code     0  startup_gd32f30x_hd.o(.text)
    DMA0_Channel4_IRQHandler                 0x08000163   Thumb Code     0  startup_gd32f30x_hd.o(.text)
    DMA0_Channel5_IRQHandler                 0x08000163   Thumb Code     0  startup_gd32f30x_hd.o(.text)
    DMA0_Channel6_IRQHandler                 0x08000163   Thumb Code     0  startup_gd32f30x_hd.o(.text)
    DMA1_Channel0_IRQHandler                 0x08000163   Thumb Code     0  startup_gd32f30x_hd.o(.text)
    DMA1_Channel1_IRQHandler                 0x08000163   Thumb Code     0  startup_gd32f30x_hd.o(.text)
    DMA1_Channel2_IRQHandler                 0x08000163   Thumb Code     0  startup_gd32f30x_hd.o(.text)
    DMA1_Channel3_4_IRQHandler               0x08000163   Thumb Code     0  startup_gd32f30x_hd.o(.text)
    EXMC_IRQHandler                          0x08000163   Thumb Code     0  startup_gd32f30x_hd.o(.text)
    EXTI0_IRQHandler                         0x08000163   Thumb Code     0  startup_gd32f30x_hd.o(.text)
    EXTI10_15_IRQHandler                     0x08000163   Thumb Code     0  startup_gd32f30x_hd.o(.text)
    EXTI1_IRQHandler                         0x08000163   Thumb Code     0  startup_gd32f30x_hd.o(.text)
    EXTI2_IRQHandler                         0x08000163   Thumb Code     0  startup_gd32f30x_hd.o(.text)
    EXTI3_IRQHandler                         0x08000163   Thumb Code     0  startup_gd32f30x_hd.o(.text)
    EXTI4_IRQHandler                         0x08000163   Thumb Code     0  startup_gd32f30x_hd.o(.text)
    EXTI5_9_IRQHandler                       0x08000163   Thumb Code     0  startup_gd32f30x_hd.o(.text)
    FMC_IRQHandler                           0x08000163   Thumb Code     0  startup_gd32f30x_hd.o(.text)
    I2C0_ER_IRQHandler                       0x08000163   Thumb Code     0  startup_gd32f30x_hd.o(.text)
    I2C0_EV_IRQHandler                       0x08000163   Thumb Code     0  startup_gd32f30x_hd.o(.text)
    I2C1_ER_IRQHandler                       0x08000163   Thumb Code     0  startup_gd32f30x_hd.o(.text)
    I2C1_EV_IRQHandler                       0x08000163   Thumb Code     0  startup_gd32f30x_hd.o(.text)
    LVD_IRQHandler                           0x08000163   Thumb Code     0  startup_gd32f30x_hd.o(.text)
    RCU_CTC_IRQHandler                       0x08000163   Thumb Code     0  startup_gd32f30x_hd.o(.text)
    RTC_Alarm_IRQHandler                     0x08000163   Thumb Code     0  startup_gd32f30x_hd.o(.text)
    RTC_IRQHandler                           0x08000163   Thumb Code     0  startup_gd32f30x_hd.o(.text)
    SDIO_IRQHandler                          0x08000163   Thumb Code     0  startup_gd32f30x_hd.o(.text)
    SPI0_IRQHandler                          0x08000163   Thumb Code     0  startup_gd32f30x_hd.o(.text)
    SPI1_IRQHandler                          0x08000163   Thumb Code     0  startup_gd32f30x_hd.o(.text)
    SPI2_IRQHandler                          0x08000163   Thumb Code     0  startup_gd32f30x_hd.o(.text)
    TAMPER_IRQHandler                        0x08000163   Thumb Code     0  startup_gd32f30x_hd.o(.text)
    TIMER0_BRK_IRQHandler                    0x08000163   Thumb Code     0  startup_gd32f30x_hd.o(.text)
    TIMER0_Channel_IRQHandler                0x08000163   Thumb Code     0  startup_gd32f30x_hd.o(.text)
    TIMER0_TRG_CMT_IRQHandler                0x08000163   Thumb Code     0  startup_gd32f30x_hd.o(.text)
    TIMER0_UP_IRQHandler                     0x08000163   Thumb Code     0  startup_gd32f30x_hd.o(.text)
    TIMER1_IRQHandler                        0x08000163   Thumb Code     0  startup_gd32f30x_hd.o(.text)
    TIMER2_IRQHandler                        0x08000163   Thumb Code     0  startup_gd32f30x_hd.o(.text)
    TIMER5_IRQHandler                        0x08000163   Thumb Code     0  startup_gd32f30x_hd.o(.text)
    TIMER6_IRQHandler                        0x08000163   Thumb Code     0  startup_gd32f30x_hd.o(.text)
    TIMER7_BRK_IRQHandler                    0x08000163   Thumb Code     0  startup_gd32f30x_hd.o(.text)
    TIMER7_Channel_IRQHandler                0x08000163   Thumb Code     0  startup_gd32f30x_hd.o(.text)
    TIMER7_TRG_CMT_IRQHandler                0x08000163   Thumb Code     0  startup_gd32f30x_hd.o(.text)
    TIMER7_UP_IRQHandler                     0x08000163   Thumb Code     0  startup_gd32f30x_hd.o(.text)
    UART3_IRQHandler                         0x08000163   Thumb Code     0  startup_gd32f30x_hd.o(.text)
    UART4_IRQHandler                         0x08000163   Thumb Code     0  startup_gd32f30x_hd.o(.text)
    USART2_IRQHandler                        0x08000163   Thumb Code     0  startup_gd32f30x_hd.o(.text)
    USBD_HP_CAN0_TX_IRQHandler               0x08000163   Thumb Code     0  startup_gd32f30x_hd.o(.text)
    USBD_LP_CAN0_RX0_IRQHandler              0x08000163   Thumb Code     0  startup_gd32f30x_hd.o(.text)
    USBD_WKUP_IRQHandler                     0x08000163   Thumb Code     0  startup_gd32f30x_hd.o(.text)
    WWDGT_IRQHandler                         0x08000163   Thumb Code     0  startup_gd32f30x_hd.o(.text)
    qsort                                    0x0800016d   Thumb Code   156  qsort.o(.text)
    __aeabi_memcpy                           0x08000209   Thumb Code    36  memcpya.o(.text)
    __aeabi_memcpy4                          0x08000209   Thumb Code     0  memcpya.o(.text)
    __aeabi_memcpy8                          0x08000209   Thumb Code     0  memcpya.o(.text)
    __aeabi_memset                           0x0800022d   Thumb Code    14  memseta.o(.text)
    __aeabi_memset4                          0x0800022d   Thumb Code     0  memseta.o(.text)
    __aeabi_memset8                          0x0800022d   Thumb Code     0  memseta.o(.text)
    __aeabi_memclr                           0x0800023b   Thumb Code     4  memseta.o(.text)
    __aeabi_memclr4                          0x0800023b   Thumb Code     0  memseta.o(.text)
    __aeabi_memclr8                          0x0800023b   Thumb Code     0  memseta.o(.text)
    _memset$wrapper                          0x0800023f   Thumb Code    18  memseta.o(.text)
    __aeabi_f2d                              0x08000251   Thumb Code    38  f2d.o(.text)
    __aeabi_uidiv                            0x08000277   Thumb Code     0  uidiv.o(.text)
    __aeabi_uidivmod                         0x08000277   Thumb Code    44  uidiv.o(.text)
    __aeabi_uldivmod                         0x080002a3   Thumb Code    98  uldiv.o(.text)
    __I$use$fp                               0x08000305   Thumb Code     0  iusefp.o(.text)
    __aeabi_dadd                             0x08000305   Thumb Code   322  dadd.o(.text)
    __aeabi_dsub                             0x08000447   Thumb Code     6  dadd.o(.text)
    __aeabi_drsub                            0x0800044d   Thumb Code     6  dadd.o(.text)
    __aeabi_dmul                             0x08000453   Thumb Code   228  dmul.o(.text)
    __aeabi_ddiv                             0x08000537   Thumb Code   222  ddiv.o(.text)
    __aeabi_d2ulz                            0x08000615   Thumb Code    48  dfixul.o(.text)
    __aeabi_cdrcmple                         0x08000645   Thumb Code    48  cdrcmple.o(.text)
    __scatterload                            0x08000675   Thumb Code    28  init.o(.text)
    __scatterload_rt2                        0x08000675   Thumb Code     0  init.o(.text)
    __aeabi_llsl                             0x08000699   Thumb Code    30  llshl.o(.text)
    _ll_shift_l                              0x08000699   Thumb Code     0  llshl.o(.text)
    __aeabi_llsr                             0x080006b7   Thumb Code    32  llushr.o(.text)
    _ll_ushift_r                             0x080006b7   Thumb Code     0  llushr.o(.text)
    __aeabi_lasr                             0x080006d7   Thumb Code    36  llsshr.o(.text)
    _ll_sshift_r                             0x080006d7   Thumb Code     0  llsshr.o(.text)
    _double_round                            0x080006fb   Thumb Code    30  depilogue.o(.text)
    _double_epilogue                         0x08000719   Thumb Code   156  depilogue.o(.text)
    __decompress                             0x080007b5   Thumb Code     0  __dczerorl2.o(.text)
    __decompress1                            0x080007b5   Thumb Code    86  __dczerorl2.o(.text)
    DelayNus                                 0x08000a0d   Thumb Code    36  delay.o(i.DelayNus)
    DesBinaryNear                            0x08000a39   Thumb Code    60  ntc_drv.o(i.DesBinaryNear)
    DwtDelayInit                             0x08000a8d   Thumb Code    50  delay.o(i.DwtDelayInit)
    EraseInflashForWrite                     0x08000ac9   Thumb Code   188  inflash.o(i.EraseInflashForWrite)
    ExchgeAcPower                            0x08000b89   Thumb Code    60  rh_drv.o(i.ExchgeAcPower)
    GetHumiData                              0x08000ca5   Thumb Code     6  rh_drv.o(i.GetHumiData)
    GetSensorData                            0x08000cb1   Thumb Code    26  sensor_drv.o(i.GetSensorData)
    GetTempData                              0x08000ccd   Thumb Code     8  ntc_drv.o(i.GetTempData)
    HmiTask                                  0x08000d75   Thumb Code    56  hmi_app.o(i.HmiTask)
    HumiDrvInit                              0x08000dd9   Thumb Code    20  rh_drv.o(i.HumiDrvInit)
    HumiSensorProc                           0x08000ded   Thumb Code    46  rh_drv.o(i.HumiSensorProc)
    InflashTest                              0x08000e25   Thumb Code   194  inflash.o(i.InflashTest)
    LedDrvInit                               0x08000fad   Thumb Code    86  led_drv.o(i.LedDrvInit)
    ModbusAppInit                            0x0800104d   Thumb Code    18  modbus_app.o(i.ModbusAppInit)
    ModbusAppTask                            0x08001065   Thumb Code     8  modbus_app.o(i.ModbusAppTask)
    ModbusSlaveInit                          0x080010f9   Thumb Code    32  modbus_slave.o(i.ModbusSlaveInit)
    ReadInflashData                          0x080011d5   Thumb Code    40  inflash.o(i.ReadInflashData)
    SensorAppTask                            0x08001201   Thumb Code     8  sensor_app.o(i.SensorAppTask)
    SensorDrvInit                            0x08001209   Thumb Code    12  sensor_drv.o(i.SensorDrvInit)
    SensorDrvProc                            0x08001215   Thumb Code    28  sensor_drv.o(i.SensorDrvProc)
    SysTick_Handler                          0x08001251   Thumb Code    38  systick.o(i.SysTick_Handler)
    SystemInit                               0x08001281   Thumb Code   156  system_gd32f30x.o(i.SystemInit)
    SystickInit                              0x08001329   Thumb Code    92  systick.o(i.SystickInit)
    TIMER3_IRQHandler                        0x0800138d   Thumb Code    40  porttimer.o(i.TIMER3_IRQHandler)
    TIMER4_IRQHandler                        0x080013b9   Thumb Code    86  rh_drv.o(i.TIMER4_IRQHandler)
    TaskScheduleCbReg                        0x08001489   Thumb Code     6  systick.o(i.TaskScheduleCbReg)
    TempDrvInit                              0x08001495   Thumb Code    12  ntc_drv.o(i.TempDrvInit)
    TempSensorProc                           0x080014a1   Thumb Code   116  ntc_drv.o(i.TempSensorProc)
    TurnOffLed                               0x080015cd   Thumb Code    40  led_drv.o(i.TurnOffLed)
    TurnOnLed                                0x080015f9   Thumb Code    40  led_drv.o(i.TurnOnLed)
    USART0_IRQHandler                        0x08001625   Thumb Code    46  usb2com_drv.o(i.USART0_IRQHandler)
    USART1_IRQHandler                        0x08001661   Thumb Code    56  portserial.o(i.USART1_IRQHandler)
    Usb2ComDrvInit                           0x08001719   Thumb Code    16  usb2com_drv.o(i.Usb2ComDrvInit)
    WriteInflashData                         0x0800185d   Thumb Code   136  inflash.o(i.WriteInflashData)
    __0printf                                0x080018e9   Thumb Code    22  printfa.o(i.__0printf)
    __1printf                                0x080018e9   Thumb Code     0  printfa.o(i.__0printf)
    __2printf                                0x080018e9   Thumb Code     0  printfa.o(i.__0printf)
    __c89printf                              0x080018e9   Thumb Code     0  printfa.o(i.__0printf)
    printf                                   0x080018e9   Thumb Code     0  printfa.o(i.__0printf)
    __aeabi_assert                           0x08001909   Thumb Code   110  retarget_io.o(i.__aeabi_assert)
    __scatterload_copy                       0x080019a5   Thumb Code    14  handlers.o(i.__scatterload_copy)
    __scatterload_null                       0x080019b3   Thumb Code     2  handlers.o(i.__scatterload_null)
    __scatterload_zeroinit                   0x080019b5   Thumb Code    14  handlers.o(i.__scatterload_zeroinit)
    abort                                    0x0800224f   Thumb Code     4  retarget_io.o(i.abort)
    adc_calibration_enable                   0x08002253   Thumb Code    42  gd32f30x_adc.o(i.adc_calibration_enable)
    adc_channel_length_config                0x0800227d   Thumb Code    70  gd32f30x_adc.o(i.adc_channel_length_config)
    adc_data_alignment_config                0x080022c3   Thumb Code    22  gd32f30x_adc.o(i.adc_data_alignment_config)
    adc_deinit                               0x080022d9   Thumb Code    84  gd32f30x_adc.o(i.adc_deinit)
    adc_enable                               0x08002331   Thumb Code    18  gd32f30x_adc.o(i.adc_enable)
    adc_external_trigger_config              0x08002343   Thumb Code    62  gd32f30x_adc.o(i.adc_external_trigger_config)
    adc_external_trigger_source_config       0x08002381   Thumb Code    48  gd32f30x_adc.o(i.adc_external_trigger_source_config)
    adc_flag_clear                           0x080023b1   Thumb Code     6  gd32f30x_adc.o(i.adc_flag_clear)
    adc_flag_get                             0x080023b7   Thumb Code    14  gd32f30x_adc.o(i.adc_flag_get)
    adc_mode_config                          0x080023c5   Thumb Code    22  gd32f30x_adc.o(i.adc_mode_config)
    adc_oversample_mode_config               0x080023e1   Thumb Code    58  gd32f30x_adc.o(i.adc_oversample_mode_config)
    adc_oversample_mode_enable               0x0800241b   Thumb Code    14  gd32f30x_adc.o(i.adc_oversample_mode_enable)
    adc_regular_channel_config               0x08002429   Thumb Code   172  gd32f30x_adc.o(i.adc_regular_channel_config)
    adc_regular_data_read                    0x080024d5   Thumb Code     8  gd32f30x_adc.o(i.adc_regular_data_read)
    adc_resolution_config                    0x080024dd   Thumb Code    20  gd32f30x_adc.o(i.adc_resolution_config)
    adc_software_trigger_enable              0x080024f1   Thumb Code    30  gd32f30x_adc.o(i.adc_software_trigger_enable)
    adc_special_function_config              0x0800250f   Thumb Code    90  gd32f30x_adc.o(i.adc_special_function_config)
    eMBEnable                                0x08002569   Thumb Code    32  mb.o(i.eMBEnable)
    eMBFuncReadHoldingRegister               0x08002591   Thumb Code   134  mbfuncholding.o(i.eMBFuncReadHoldingRegister)
    eMBFuncWriteHoldingRegister              0x08002617   Thumb Code    62  mbfuncholding.o(i.eMBFuncWriteHoldingRegister)
    eMBFuncWriteMultipleHoldingRegister      0x08002655   Thumb Code   106  mbfuncholding.o(i.eMBFuncWriteMultipleHoldingRegister)
    eMBInit                                  0x080026c1   Thumb Code   150  mb.o(i.eMBInit)
    eMBPoll                                  0x080027a1   Thumb Code   268  mb.o(i.eMBPoll)
    eMBRTUInit                               0x080028d9   Thumb Code    76  mbrtu.o(i.eMBRTUInit)
    eMBRTUReceive                            0x08002929   Thumb Code    82  mbrtu.o(i.eMBRTUReceive)
    eMBRTUSend                               0x080029cd   Thumb Code   146  mbrtu.o(i.eMBRTUSend)
    eMBRTUStart                              0x08002a75   Thumb Code    22  mbrtu.o(i.eMBRTUStart)
    eMBRTUStop                               0x08002a91   Thumb Code    16  mbrtu.o(i.eMBRTUStop)
    eMBRegHoldingCB                          0x08002aa1   Thumb Code    52  modbus_slave.o(i.eMBRegHoldingCB)
    fmc_bank0_ready_wait                     0x08002ad9   Thumb Code    34  gd32f30x_fmc.o(i.fmc_bank0_ready_wait)
    fmc_bank0_state_get                      0x08002afd   Thumb Code    44  gd32f30x_fmc.o(i.fmc_bank0_state_get)
    fmc_bank1_ready_wait                     0x08002b2d   Thumb Code    34  gd32f30x_fmc.o(i.fmc_bank1_ready_wait)
    fmc_bank1_state_get                      0x08002b51   Thumb Code    44  gd32f30x_fmc.o(i.fmc_bank1_state_get)
    fmc_flag_clear                           0x08002b81   Thumb Code    28  gd32f30x_fmc.o(i.fmc_flag_clear)
    fmc_halfword_program                     0x08002ba1   Thumb Code   166  gd32f30x_fmc.o(i.fmc_halfword_program)
    fmc_lock                                 0x08002c59   Thumb Code    34  gd32f30x_fmc.o(i.fmc_lock)
    fmc_page_erase                           0x08002c85   Thumb Code   210  gd32f30x_fmc.o(i.fmc_page_erase)
    fmc_unlock                               0x08002d69   Thumb Code    52  gd32f30x_fmc.o(i.fmc_unlock)
    fputc                                    0x08002dad   Thumb Code    36  usb2com_drv.o(i.fputc)
    fputs                                    0x08002dd5   Thumb Code    24  fputs.o(i.fputs)
    free                                     0x08002ded   Thumb Code    76  malloc.o(i.free)
    gpio_bit_reset                           0x08002e3d   Thumb Code     4  gd32f30x_gpio.o(i.gpio_bit_reset)
    gpio_bit_set                             0x08002e41   Thumb Code     4  gd32f30x_gpio.o(i.gpio_bit_set)
    gpio_bit_write                           0x08002e45   Thumb Code    10  gd32f30x_gpio.o(i.gpio_bit_write)
    gpio_init                                0x08002e4f   Thumb Code   188  gd32f30x_gpio.o(i.gpio_init)
    gpio_output_bit_get                      0x08002f0b   Thumb Code    16  gd32f30x_gpio.o(i.gpio_output_bit_get)
    main                                     0x08002f1b   Thumb Code    16  main.o(i.main)
    malloc                                   0x08002f2d   Thumb Code    92  malloc.o(i.malloc)
    nvic_irq_enable                          0x08002f99   Thumb Code   186  gd32f30x_misc.o(i.nvic_irq_enable)
    nvic_priority_group_set                  0x0800305d   Thumb Code    10  gd32f30x_misc.o(i.nvic_priority_group_set)
    prveMBError2Exception                    0x08003071   Thumb Code    34  mbutils.o(i.prveMBError2Exception)
    rcu_adc_clock_config                     0x080030c5   Thumb Code    98  gd32f30x_rcu.o(i.rcu_adc_clock_config)
    rcu_clock_freq_get                       0x08003131   Thumb Code   310  gd32f30x_rcu.o(i.rcu_clock_freq_get)
    rcu_periph_clock_enable                  0x08003289   Thumb Code    28  gd32f30x_rcu.o(i.rcu_periph_clock_enable)
    rcu_periph_reset_disable                 0x080032a9   Thumb Code    28  gd32f30x_rcu.o(i.rcu_periph_reset_disable)
    rcu_periph_reset_enable                  0x080032c9   Thumb Code    28  gd32f30x_rcu.o(i.rcu_periph_reset_enable)
    timer_counter_value_config               0x08003405   Thumb Code     4  gd32f30x_timer.o(i.timer_counter_value_config)
    timer_deinit                             0x08003409   Thumb Code   210  gd32f30x_timer.o(i.timer_deinit)
    timer_disable                            0x080034e5   Thumb Code    10  gd32f30x_timer.o(i.timer_disable)
    timer_enable                             0x080034ef   Thumb Code    10  gd32f30x_timer.o(i.timer_enable)
    timer_init                               0x080034f9   Thumb Code   122  gd32f30x_timer.o(i.timer_init)
    timer_interrupt_disable                  0x08003591   Thumb Code     8  gd32f30x_timer.o(i.timer_interrupt_disable)
    timer_interrupt_enable                   0x08003599   Thumb Code     8  gd32f30x_timer.o(i.timer_interrupt_enable)
    timer_interrupt_flag_clear               0x080035a1   Thumb Code     6  gd32f30x_timer.o(i.timer_interrupt_flag_clear)
    timer_interrupt_flag_get                 0x080035a7   Thumb Code    24  gd32f30x_timer.o(i.timer_interrupt_flag_get)
    timer_struct_para_init                   0x080035bf   Thumb Code    22  gd32f30x_timer.o(i.timer_struct_para_init)
    usMBCRC16                                0x080035d5   Thumb Code    48  mbcrc.o(i.usMBCRC16)
    usart_baudrate_set                       0x0800360d   Thumb Code   136  gd32f30x_usart.o(i.usart_baudrate_set)
    usart_data_first_config                  0x0800369d   Thumb Code    20  gd32f30x_usart.o(i.usart_data_first_config)
    usart_data_receive                       0x080036b1   Thumb Code    10  gd32f30x_usart.o(i.usart_data_receive)
    usart_data_transmit                      0x080036bb   Thumb Code     8  gd32f30x_usart.o(i.usart_data_transmit)
    usart_deinit                             0x080036c5   Thumb Code   136  gd32f30x_usart.o(i.usart_deinit)
    usart_enable                             0x08003755   Thumb Code    10  gd32f30x_usart.o(i.usart_enable)
    usart_flag_get                           0x0800375f   Thumb Code    30  gd32f30x_usart.o(i.usart_flag_get)
    usart_interrupt_disable                  0x0800377d   Thumb Code    26  gd32f30x_usart.o(i.usart_interrupt_disable)
    usart_interrupt_enable                   0x08003797   Thumb Code    26  gd32f30x_usart.o(i.usart_interrupt_enable)
    usart_interrupt_flag_clear               0x080037b1   Thumb Code    18  gd32f30x_usart.o(i.usart_interrupt_flag_clear)
    usart_interrupt_flag_get                 0x080037c3   Thumb Code    56  gd32f30x_usart.o(i.usart_interrupt_flag_get)
    usart_parity_config                      0x080037fb   Thumb Code    16  gd32f30x_usart.o(i.usart_parity_config)
    usart_receive_config                     0x0800380b   Thumb Code    20  gd32f30x_usart.o(i.usart_receive_config)
    usart_stop_bit_set                       0x0800381f   Thumb Code    16  gd32f30x_usart.o(i.usart_stop_bit_set)
    usart_transmit_config                    0x0800382f   Thumb Code    20  gd32f30x_usart.o(i.usart_transmit_config)
    usart_word_length_set                    0x08003843   Thumb Code    16  gd32f30x_usart.o(i.usart_word_length_set)
    vMBPortSerialEnable                      0x08003855   Thumb Code   104  portserial.o(i.vMBPortSerialEnable)
    vMBPortTimersDisable                     0x080038c1   Thumb Code    42  porttimer.o(i.vMBPortTimersDisable)
    vMBPortTimersEnable                      0x080038f1   Thumb Code    42  porttimer.o(i.vMBPortTimersEnable)
    xMBPortEventGet                          0x08003921   Thumb Code    26  portevent.o(i.xMBPortEventGet)
    xMBPortEventInit                         0x08003945   Thumb Code    10  portevent.o(i.xMBPortEventInit)
    xMBPortEventPost                         0x08003955   Thumb Code    16  portevent.o(i.xMBPortEventPost)
    xMBPortSerialGetByte                     0x0800396d   Thumb Code    18  portserial.o(i.xMBPortSerialGetByte)
    xMBPortSerialInit                        0x08003985   Thumb Code    32  portserial.o(i.xMBPortSerialInit)
    xMBPortSerialPutByte                     0x080039a5   Thumb Code    18  portserial.o(i.xMBPortSerialPutByte)
    xMBPortTimersInit                        0x080039bd   Thumb Code    14  porttimer.o(i.xMBPortTimersInit)
    xMBRTUReceiveFSM                         0x080039cd   Thumb Code   140  mbrtu.o(i.xMBRTUReceiveFSM)
    xMBRTUTimerT35Expired                    0x08003aa5   Thumb Code    96  mbrtu.o(i.xMBRTUTimerT35Expired)
    xMBRTUTransmitFSM                        0x08003b2d   Thumb Code   116  mbrtu.o(i.xMBRTUTransmitFSM)
    Region$$Table$$Base                      0x080040f8   Number         0  anon$$obj.o(Region$$Table)
    Region$$Table$$Limit                     0x08004118   Number         0  anon$$obj.o(Region$$Table)
    pxMBFrameCBByteReceived                  0x2000008c   Data           4  mb.o(.data)
    pxMBFrameCBTransmitterEmpty              0x20000090   Data           4  mb.o(.data)
    pxMBPortCBTimerExpired                   0x20000094   Data           4  mb.o(.data)
    pxMBFrameCBReceiveFSMCur                 0x20000098   Data           4  mb.o(.data)
    pxMBFrameCBTransmitFSMCur                0x2000009c   Data           4  mb.o(.data)
    g_Usb2ComInfo                            0x20000180   Data          28  usb2com_drv.o(.data)
    __stderr                                 0x200001d4   Data           4  stderr.o(.data)
    __stdout                                 0x200001d8   Data           4  stdout.o(.data)
    __microlib_freelist                      0x200001dc   Data           4  mvars.o(.data)
    __microlib_freelist_initialised          0x200001e0   Data           4  mvars.o(.data)
    ucRTUBuf                                 0x200001e4   Data         256  mbrtu.o(.bss)
    __heap_base                              0x20000310   Data           0  startup_gd32f30x_hd.o(HEAP)
    __heap_limit                             0x20000710   Data           0  startup_gd32f30x_hd.o(HEAP)
    __initial_sp                             0x20004710   Data           0  startup_gd32f30x_hd.o(STACK)



==============================================================================

Memory Map of the image

  Image Entry point : 0x08000131

  Load Region LR_IROM1 (Base: 0x08000000, Size: 0x000042fc, Max: 0x00080000, ABSOLUTE, COMPRESSED[0x000041b8])

    Execution Region ER_IROM1 (Exec base: 0x08000000, Load base: 0x08000000, Size: 0x00004118, Max: 0x00080000, ABSOLUTE)

    Exec Addr    Load Addr    Size         Type   Attr      Idx    E Section Name        Object

    0x08000000   0x08000000   0x00000130   Data   RO         2907    RESET               startup_gd32f30x_hd.o
    0x08000130   0x08000130   0x00000000   Code   RO         3037  * .ARM.Collect$$$$00000000  mc_w.l(entry.o)
    0x08000130   0x08000130   0x00000004   Code   RO         3344    .ARM.Collect$$$$00000001  mc_w.l(entry2.o)
    0x08000134   0x08000134   0x00000004   Code   RO         3347    .ARM.Collect$$$$00000004  mc_w.l(entry5.o)
    0x08000138   0x08000138   0x00000000   Code   RO         3349    .ARM.Collect$$$$00000008  mc_w.l(entry7b.o)
    0x08000138   0x08000138   0x00000000   Code   RO         3351    .ARM.Collect$$$$0000000A  mc_w.l(entry8b.o)
    0x08000138   0x08000138   0x00000008   Code   RO         3352    .ARM.Collect$$$$0000000B  mc_w.l(entry9a.o)
    0x08000140   0x08000140   0x00000004   Code   RO         3359    .ARM.Collect$$$$0000000E  mc_w.l(entry12b.o)
    0x08000144   0x08000144   0x00000000   Code   RO         3354    .ARM.Collect$$$$0000000F  mc_w.l(entry10a.o)
    0x08000144   0x08000144   0x00000000   Code   RO         3356    .ARM.Collect$$$$00000011  mc_w.l(entry11a.o)
    0x08000144   0x08000144   0x00000004   Code   RO         3345    .ARM.Collect$$$$00002712  mc_w.l(entry2.o)
    0x08000148   0x08000148   0x00000024   Code   RO         2908    .text               startup_gd32f30x_hd.o
    0x0800016c   0x0800016c   0x0000009c   Code   RO         3045    .text               mc_w.l(qsort.o)
    0x08000208   0x08000208   0x00000024   Code   RO         3047    .text               mc_w.l(memcpya.o)
    0x0800022c   0x0800022c   0x00000024   Code   RO         3049    .text               mc_w.l(memseta.o)
    0x08000250   0x08000250   0x00000026   Code   RO         3342    .text               mf_w.l(f2d.o)
    0x08000276   0x08000276   0x0000002c   Code   RO         3361    .text               mc_w.l(uidiv.o)
    0x080002a2   0x080002a2   0x00000062   Code   RO         3363    .text               mc_w.l(uldiv.o)
    0x08000304   0x08000304   0x00000000   Code   RO         3367    .text               mc_w.l(iusefp.o)
    0x08000304   0x08000304   0x0000014e   Code   RO         3368    .text               mf_w.l(dadd.o)
    0x08000452   0x08000452   0x000000e4   Code   RO         3370    .text               mf_w.l(dmul.o)
    0x08000536   0x08000536   0x000000de   Code   RO         3372    .text               mf_w.l(ddiv.o)
    0x08000614   0x08000614   0x00000030   Code   RO         3374    .text               mf_w.l(dfixul.o)
    0x08000644   0x08000644   0x00000030   Code   RO         3376    .text               mf_w.l(cdrcmple.o)
    0x08000674   0x08000674   0x00000024   Code   RO         3378    .text               mc_w.l(init.o)
    0x08000698   0x08000698   0x0000001e   Code   RO         3380    .text               mc_w.l(llshl.o)
    0x080006b6   0x080006b6   0x00000020   Code   RO         3382    .text               mc_w.l(llushr.o)
    0x080006d6   0x080006d6   0x00000024   Code   RO         3384    .text               mc_w.l(llsshr.o)
    0x080006fa   0x080006fa   0x000000ba   Code   RO         3386    .text               mf_w.l(depilogue.o)
    0x080007b4   0x080007b4   0x00000056   Code   RO         3396    .text               mc_w.l(__dczerorl2.o)
    0x0800080a   0x0800080a   0x00000048   Code   RO          569    i.Adc2Humi          rh_drv.o
    0x08000852   0x08000852   0x00000002   PAD
    0x08000854   0x08000854   0x0000004c   Code   RO          790    i.Adc2Temp10Mul     ntc_drv.o
    0x080008a0   0x080008a0   0x0000007c   Code   RO          570    i.AdcInit           rh_drv.o
    0x0800091c   0x0800091c   0x00000094   Code   RO          791    i.AdcInit           ntc_drv.o
    0x080009b0   0x080009b0   0x00000014   Code   RO           28    i.AppInit           main.o
    0x080009c4   0x080009c4   0x0000003c   Code   RO          571    i.AscBinaryNear     rh_drv.o
    0x08000a00   0x08000a00   0x0000000a   Code   RO          794    i.Compare           ntc_drv.o
    0x08000a0a   0x08000a0a   0x00000002   PAD
    0x08000a0c   0x08000a0c   0x0000002c   Code   RO          402    i.DelayNus          delay.o
    0x08000a38   0x08000a38   0x0000003c   Code   RO          795    i.DesBinaryNear     ntc_drv.o
    0x08000a74   0x08000a74   0x00000018   Code   RO           29    i.DriverInit        main.o
    0x08000a8c   0x08000a8c   0x0000003c   Code   RO          403    i.DwtDelayInit      delay.o
    0x08000ac8   0x08000ac8   0x000000c0   Code   RO          894    i.EraseInflashForWrite  inflash.o
    0x08000b88   0x08000b88   0x00000040   Code   RO          572    i.ExchgeAcPower     rh_drv.o
    0x08000bc8   0x08000bc8   0x0000008c   Code   RO          573    i.FindAdcBufByTemp  rh_drv.o
    0x08000c54   0x08000c54   0x00000028   Code   RO          574    i.GetAdcVal         rh_drv.o
    0x08000c7c   0x08000c7c   0x00000028   Code   RO          797    i.GetAdcVal         ntc_drv.o
    0x08000ca4   0x08000ca4   0x0000000c   Code   RO          575    i.GetHumiData       rh_drv.o
    0x08000cb0   0x08000cb0   0x0000001a   Code   RO          656    i.GetSensorData     sensor_drv.o
    0x08000cca   0x08000cca   0x00000002   PAD
    0x08000ccc   0x08000ccc   0x0000000c   Code   RO          798    i.GetTempData       ntc_drv.o
    0x08000cd8   0x08000cd8   0x00000054   Code   RO          576    i.GpioInit          rh_drv.o
    0x08000d2c   0x08000d2c   0x0000001c   Code   RO          799    i.GpioInit          ntc_drv.o
    0x08000d48   0x08000d48   0x0000002c   Code   RO          962    i.GpioInit          portserial.o
    0x08000d74   0x08000d74   0x00000064   Code   RO            1    i.HmiTask           hmi_app.o
    0x08000dd8   0x08000dd8   0x00000014   Code   RO          577    i.HumiDrvInit       rh_drv.o
    0x08000dec   0x08000dec   0x00000038   Code   RO          578    i.HumiSensorProc    rh_drv.o
    0x08000e24   0x08000e24   0x00000188   Code   RO          895    i.InflashTest       inflash.o
    0x08000fac   0x08000fac   0x0000005c   Code   RO          481    i.LedDrvInit        led_drv.o
    0x08001008   0x08001008   0x0000001e   Code   RO          800    i.MeanValueFilter   ntc_drv.o
    0x08001026   0x08001026   0x00000002   PAD
    0x08001028   0x08001028   0x00000024   Code   RO          801    i.MidianMeanFilter  ntc_drv.o
    0x0800104c   0x0800104c   0x00000018   Code   RO          105    i.ModbusAppInit     modbus_app.o
    0x08001064   0x08001064   0x00000008   Code   RO          106    i.ModbusAppTask     modbus_app.o
    0x0800106c   0x0800106c   0x00000026   Code   RO          107    i.ModbusGetHumi     modbus_app.o
    0x08001092   0x08001092   0x00000022   Code   RO          108    i.ModbusGetTemp     modbus_app.o
    0x080010b4   0x080010b4   0x00000016   Code   RO          109    i.ModbusSetLed1     modbus_app.o
    0x080010ca   0x080010ca   0x00000016   Code   RO          110    i.ModbusSetLed2     modbus_app.o
    0x080010e0   0x080010e0   0x00000016   Code   RO          111    i.ModbusSetLed3     modbus_app.o
    0x080010f6   0x080010f6   0x00000002   PAD
    0x080010f8   0x080010f8   0x00000024   Code   RO          246    i.ModbusSlaveInit   modbus_slave.o
    0x0800111c   0x0800111c   0x00000030   Code   RO          802    i.PushTemp10MulToBuf  ntc_drv.o
    0x0800114c   0x0800114c   0x00000088   Code   RO          112    i.ReadHoldingRegistersCb  modbus_app.o
    0x080011d4   0x080011d4   0x0000002c   Code   RO          896    i.ReadInflashData   inflash.o
    0x08001200   0x08001200   0x00000008   Code   RO           93    i.SensorAppTask     sensor_app.o
    0x08001208   0x08001208   0x0000000c   Code   RO          657    i.SensorDrvInit     sensor_drv.o
    0x08001214   0x08001214   0x0000001c   Code   RO          658    i.SensorDrvProc     sensor_drv.o
    0x08001230   0x08001230   0x00000020   Code   RO          963    i.SwitchInit        portserial.o
    0x08001250   0x08001250   0x00000030   Code   RO          692    i.SysTick_Handler   systick.o
    0x08001280   0x08001280   0x000000a8   Code   RO         2915    i.SystemInit        system_gd32f30x.o
    0x08001328   0x08001328   0x00000064   Code   RO          693    i.SystickInit       systick.o
    0x0800138c   0x0800138c   0x0000002c   Code   RO         1043    i.TIMER3_IRQHandler  porttimer.o
    0x080013b8   0x080013b8   0x00000068   Code   RO          579    i.TIMER4_IRQHandler  rh_drv.o
    0x08001420   0x08001420   0x00000068   Code   RO           31    i.TaskSchedule      main.o
    0x08001488   0x08001488   0x0000000c   Code   RO          694    i.TaskScheduleCbReg  systick.o
    0x08001494   0x08001494   0x0000000c   Code   RO          803    i.TempDrvInit       ntc_drv.o
    0x080014a0   0x080014a0   0x00000080   Code   RO          804    i.TempSensorProc    ntc_drv.o
    0x08001520   0x08001520   0x00000054   Code   RO          580    i.TimerInit         rh_drv.o
    0x08001574   0x08001574   0x00000058   Code   RO         1044    i.TimerInit         porttimer.o
    0x080015cc   0x080015cc   0x0000002c   Code   RO          483    i.TurnOffLed        led_drv.o
    0x080015f8   0x080015f8   0x0000002c   Code   RO          484    i.TurnOnLed         led_drv.o
    0x08001624   0x08001624   0x0000003c   Code   RO          736    i.USART0_IRQHandler  usb2com_drv.o
    0x08001660   0x08001660   0x00000044   Code   RO          964    i.USART1_IRQHandler  portserial.o
    0x080016a4   0x080016a4   0x00000074   Code   RO          965    i.UartInit          portserial.o
    0x08001718   0x08001718   0x00000010   Code   RO          737    i.Usb2ComDrvInit    usb2com_drv.o
    0x08001728   0x08001728   0x0000002c   Code   RO          738    i.Usb2ComGpioInit   usb2com_drv.o
    0x08001754   0x08001754   0x00000078   Code   RO          739    i.Usb2ComUartInit   usb2com_drv.o
    0x080017cc   0x080017cc   0x00000090   Code   RO          113    i.WriteHoldingRegistersCb  modbus_app.o
    0x0800185c   0x0800185c   0x0000008c   Code   RO          897    i.WriteInflashData  inflash.o
    0x080018e8   0x080018e8   0x00000020   Code   RO         3286    i.__0printf         mc_w.l(printfa.o)
    0x08001908   0x08001908   0x0000009c   Code   RO         2966    i.__aeabi_assert    retarget_io.o
    0x080019a4   0x080019a4   0x0000000e   Code   RO         3390    i.__scatterload_copy  mc_w.l(handlers.o)
    0x080019b2   0x080019b2   0x00000002   Code   RO         3391    i.__scatterload_null  mc_w.l(handlers.o)
    0x080019b4   0x080019b4   0x0000000e   Code   RO         3392    i.__scatterload_zeroinit  mc_w.l(handlers.o)
    0x080019c2   0x080019c2   0x00000002   PAD
    0x080019c4   0x080019c4   0x00000184   Code   RO         3293    i._fp_digits        mc_w.l(printfa.o)
    0x08001b48   0x08001b48   0x000006b4   Code   RO         3294    i._printf_core      mc_w.l(printfa.o)
    0x080021fc   0x080021fc   0x00000024   Code   RO         3295    i._printf_post_padding  mc_w.l(printfa.o)
    0x08002220   0x08002220   0x0000002e   Code   RO         3296    i._printf_pre_padding  mc_w.l(printfa.o)
    0x0800224e   0x0800224e   0x00000004   Code   RO         2968    i.abort             retarget_io.o
    0x08002252   0x08002252   0x0000002a   Code   RO         1093    i.adc_calibration_enable  gd32f30x_adc.o
    0x0800227c   0x0800227c   0x00000046   Code   RO         1094    i.adc_channel_length_config  gd32f30x_adc.o
    0x080022c2   0x080022c2   0x00000016   Code   RO         1095    i.adc_data_alignment_config  gd32f30x_adc.o
    0x080022d8   0x080022d8   0x00000058   Code   RO         1096    i.adc_deinit        gd32f30x_adc.o
    0x08002330   0x08002330   0x00000012   Code   RO         1101    i.adc_enable        gd32f30x_adc.o
    0x08002342   0x08002342   0x0000003e   Code   RO         1102    i.adc_external_trigger_config  gd32f30x_adc.o
    0x08002380   0x08002380   0x00000030   Code   RO         1103    i.adc_external_trigger_source_config  gd32f30x_adc.o
    0x080023b0   0x080023b0   0x00000006   Code   RO         1104    i.adc_flag_clear    gd32f30x_adc.o
    0x080023b6   0x080023b6   0x0000000e   Code   RO         1105    i.adc_flag_get      gd32f30x_adc.o
    0x080023c4   0x080023c4   0x0000001c   Code   RO         1113    i.adc_mode_config   gd32f30x_adc.o
    0x080023e0   0x080023e0   0x0000003a   Code   RO         1114    i.adc_oversample_mode_config  gd32f30x_adc.o
    0x0800241a   0x0800241a   0x0000000e   Code   RO         1116    i.adc_oversample_mode_enable  gd32f30x_adc.o
    0x08002428   0x08002428   0x000000ac   Code   RO         1117    i.adc_regular_channel_config  gd32f30x_adc.o
    0x080024d4   0x080024d4   0x00000008   Code   RO         1118    i.adc_regular_data_read  gd32f30x_adc.o
    0x080024dc   0x080024dc   0x00000014   Code   RO         1119    i.adc_resolution_config  gd32f30x_adc.o
    0x080024f0   0x080024f0   0x0000001e   Code   RO         1120    i.adc_software_trigger_enable  gd32f30x_adc.o
    0x0800250e   0x0800250e   0x0000005a   Code   RO         1121    i.adc_special_function_config  gd32f30x_adc.o
    0x08002568   0x08002568   0x00000028   Code   RO          185    i.eMBEnable         mb.o
    0x08002590   0x08002590   0x00000086   Code   RO          351    i.eMBFuncReadHoldingRegister  mbfuncholding.o
    0x08002616   0x08002616   0x0000003e   Code   RO          352    i.eMBFuncWriteHoldingRegister  mbfuncholding.o
    0x08002654   0x08002654   0x0000006a   Code   RO          353    i.eMBFuncWriteMultipleHoldingRegister  mbfuncholding.o
    0x080026be   0x080026be   0x00000002   PAD
    0x080026c0   0x080026c0   0x000000e0   Code   RO          186    i.eMBInit           mb.o
    0x080027a0   0x080027a0   0x00000138   Code   RO          187    i.eMBPoll           mb.o
    0x080028d8   0x080028d8   0x00000050   Code   RO          286    i.eMBRTUInit        mbrtu.o
    0x08002928   0x08002928   0x000000a4   Code   RO          287    i.eMBRTUReceive     mbrtu.o
    0x080029cc   0x080029cc   0x000000a8   Code   RO          288    i.eMBRTUSend        mbrtu.o
    0x08002a74   0x08002a74   0x0000001c   Code   RO          289    i.eMBRTUStart       mbrtu.o
    0x08002a90   0x08002a90   0x00000010   Code   RO          290    i.eMBRTUStop        mbrtu.o
    0x08002aa0   0x08002aa0   0x00000038   Code   RO          247    i.eMBRegHoldingCB   modbus_slave.o
    0x08002ad8   0x08002ad8   0x00000022   Code   RO         2682    i.fmc_bank0_ready_wait  gd32f30x_fmc.o
    0x08002afa   0x08002afa   0x00000002   PAD
    0x08002afc   0x08002afc   0x00000030   Code   RO         2683    i.fmc_bank0_state_get  gd32f30x_fmc.o
    0x08002b2c   0x08002b2c   0x00000022   Code   RO         2687    i.fmc_bank1_ready_wait  gd32f30x_fmc.o
    0x08002b4e   0x08002b4e   0x00000002   PAD
    0x08002b50   0x08002b50   0x00000030   Code   RO         2688    i.fmc_bank1_state_get  gd32f30x_fmc.o
    0x08002b80   0x08002b80   0x00000020   Code   RO         2690    i.fmc_flag_clear    gd32f30x_fmc.o
    0x08002ba0   0x08002ba0   0x000000b8   Code   RO         2692    i.fmc_halfword_program  gd32f30x_fmc.o
    0x08002c58   0x08002c58   0x0000002c   Code   RO         2697    i.fmc_lock          gd32f30x_fmc.o
    0x08002c84   0x08002c84   0x000000e4   Code   RO         2699    i.fmc_page_erase    gd32f30x_fmc.o
    0x08002d68   0x08002d68   0x00000044   Code   RO         2700    i.fmc_unlock        gd32f30x_fmc.o
    0x08002dac   0x08002dac   0x00000028   Code   RO          740    i.fputc             usb2com_drv.o
    0x08002dd4   0x08002dd4   0x00000018   Code   RO         3040    i.fputs             mc_w.l(fputs.o)
    0x08002dec   0x08002dec   0x00000050   Code   RO         3314    i.free              mc_w.l(malloc.o)
    0x08002e3c   0x08002e3c   0x00000004   Code   RO         1345    i.gpio_bit_reset    gd32f30x_gpio.o
    0x08002e40   0x08002e40   0x00000004   Code   RO         1346    i.gpio_bit_set      gd32f30x_gpio.o
    0x08002e44   0x08002e44   0x0000000a   Code   RO         1347    i.gpio_bit_write    gd32f30x_gpio.o
    0x08002e4e   0x08002e4e   0x000000bc   Code   RO         1355    i.gpio_init         gd32f30x_gpio.o
    0x08002f0a   0x08002f0a   0x00000010   Code   RO         1358    i.gpio_output_bit_get  gd32f30x_gpio.o
    0x08002f1a   0x08002f1a   0x00000010   Code   RO           32    i.main              main.o
    0x08002f2a   0x08002f2a   0x00000002   PAD
    0x08002f2c   0x08002f2c   0x0000006c   Code   RO         3315    i.malloc            mc_w.l(malloc.o)
    0x08002f98   0x08002f98   0x000000c4   Code   RO         1479    i.nvic_irq_enable   gd32f30x_misc.o
    0x0800305c   0x0800305c   0x00000014   Code   RO         1480    i.nvic_priority_group_set  gd32f30x_misc.o
    0x08003070   0x08003070   0x00000022   Code   RO          375    i.prveMBError2Exception  mbutils.o
    0x08003092   0x08003092   0x00000002   PAD
    0x08003094   0x08003094   0x00000010   Code   RO         1045    i.prvvTIMERExpiredISR  porttimer.o
    0x080030a4   0x080030a4   0x00000010   Code   RO          966    i.prvvUARTRxISR     portserial.o
    0x080030b4   0x080030b4   0x00000010   Code   RO          967    i.prvvUARTTxReadyISR  portserial.o
    0x080030c4   0x080030c4   0x0000006c   Code   RO         1669    i.rcu_adc_clock_config  gd32f30x_rcu.o
    0x08003130   0x08003130   0x00000158   Code   RO         1678    i.rcu_clock_freq_get  gd32f30x_rcu.o
    0x08003288   0x08003288   0x00000020   Code   RO         1696    i.rcu_periph_clock_enable  gd32f30x_rcu.o
    0x080032a8   0x080032a8   0x00000020   Code   RO         1699    i.rcu_periph_reset_disable  gd32f30x_rcu.o
    0x080032c8   0x080032c8   0x00000020   Code   RO         1700    i.rcu_periph_reset_enable  gd32f30x_rcu.o
    0x080032e8   0x080032e8   0x00000114   Code   RO         2916    i.system_clock_120m_hxtal  system_gd32f30x.o
    0x080033fc   0x080033fc   0x00000008   Code   RO         2917    i.system_clock_config  system_gd32f30x.o
    0x08003404   0x08003404   0x00000004   Code   RO         1950    i.timer_counter_value_config  gd32f30x_timer.o
    0x08003408   0x08003408   0x000000dc   Code   RO         1951    i.timer_deinit      gd32f30x_timer.o
    0x080034e4   0x080034e4   0x0000000a   Code   RO         1952    i.timer_disable     gd32f30x_timer.o
    0x080034ee   0x080034ee   0x0000000a   Code   RO         1956    i.timer_enable      gd32f30x_timer.o
    0x080034f8   0x080034f8   0x00000098   Code   RO         1966    i.timer_init        gd32f30x_timer.o
    0x08003590   0x08003590   0x00000008   Code   RO         1972    i.timer_interrupt_disable  gd32f30x_timer.o
    0x08003598   0x08003598   0x00000008   Code   RO         1973    i.timer_interrupt_enable  gd32f30x_timer.o
    0x080035a0   0x080035a0   0x00000006   Code   RO         1974    i.timer_interrupt_flag_clear  gd32f30x_timer.o
    0x080035a6   0x080035a6   0x00000018   Code   RO         1975    i.timer_interrupt_flag_get  gd32f30x_timer.o
    0x080035be   0x080035be   0x00000016   Code   RO         1986    i.timer_struct_para_init  gd32f30x_timer.o
    0x080035d4   0x080035d4   0x00000038   Code   RO          272    i.usMBCRC16         mbcrc.o
    0x0800360c   0x0800360c   0x00000090   Code   RO         2364    i.usart_baudrate_set  gd32f30x_usart.o
    0x0800369c   0x0800369c   0x00000014   Code   RO         2366    i.usart_data_first_config  gd32f30x_usart.o
    0x080036b0   0x080036b0   0x0000000a   Code   RO         2367    i.usart_data_receive  gd32f30x_usart.o
    0x080036ba   0x080036ba   0x00000008   Code   RO         2368    i.usart_data_transmit  gd32f30x_usart.o
    0x080036c2   0x080036c2   0x00000002   PAD
    0x080036c4   0x080036c4   0x00000090   Code   RO         2369    i.usart_deinit      gd32f30x_usart.o
    0x08003754   0x08003754   0x0000000a   Code   RO         2373    i.usart_enable      gd32f30x_usart.o
    0x0800375e   0x0800375e   0x0000001e   Code   RO         2375    i.usart_flag_get    gd32f30x_usart.o
    0x0800377c   0x0800377c   0x0000001a   Code   RO         2381    i.usart_interrupt_disable  gd32f30x_usart.o
    0x08003796   0x08003796   0x0000001a   Code   RO         2382    i.usart_interrupt_enable  gd32f30x_usart.o
    0x080037b0   0x080037b0   0x00000012   Code   RO         2383    i.usart_interrupt_flag_clear  gd32f30x_usart.o
    0x080037c2   0x080037c2   0x00000038   Code   RO         2384    i.usart_interrupt_flag_get  gd32f30x_usart.o
    0x080037fa   0x080037fa   0x00000010   Code   RO         2395    i.usart_parity_config  gd32f30x_usart.o
    0x0800380a   0x0800380a   0x00000014   Code   RO         2397    i.usart_receive_config  gd32f30x_usart.o
    0x0800381e   0x0800381e   0x00000010   Code   RO         2407    i.usart_stop_bit_set  gd32f30x_usart.o
    0x0800382e   0x0800382e   0x00000014   Code   RO         2411    i.usart_transmit_config  gd32f30x_usart.o
    0x08003842   0x08003842   0x00000010   Code   RO         2412    i.usart_word_length_set  gd32f30x_usart.o
    0x08003852   0x08003852   0x00000002   PAD
    0x08003854   0x08003854   0x0000006c   Code   RO          968    i.vMBPortSerialEnable  portserial.o
    0x080038c0   0x080038c0   0x00000030   Code   RO         1082    i.vMBPortTimersDisable  porttimer.o
    0x080038f0   0x080038f0   0x00000030   Code   RO         1076    i.vMBPortTimersEnable  porttimer.o
    0x08003920   0x08003920   0x00000024   Code   RO          934    i.xMBPortEventGet   portevent.o
    0x08003944   0x08003944   0x00000010   Code   RO          935    i.xMBPortEventInit  portevent.o
    0x08003954   0x08003954   0x00000018   Code   RO          936    i.xMBPortEventPost  portevent.o
    0x0800396c   0x0800396c   0x00000018   Code   RO          969    i.xMBPortSerialGetByte  portserial.o
    0x08003984   0x08003984   0x00000020   Code   RO          970    i.xMBPortSerialInit  portserial.o
    0x080039a4   0x080039a4   0x00000018   Code   RO          971    i.xMBPortSerialPutByte  portserial.o
    0x080039bc   0x080039bc   0x0000000e   Code   RO         1046    i.xMBPortTimersInit  porttimer.o
    0x080039ca   0x080039ca   0x00000002   PAD
    0x080039cc   0x080039cc   0x000000d8   Code   RO          291    i.xMBRTUReceiveFSM  mbrtu.o
    0x08003aa4   0x08003aa4   0x00000088   Code   RO          292    i.xMBRTUTimerT35Expired  mbrtu.o
    0x08003b2c   0x08003b2c   0x000000c0   Code   RO          293    i.xMBRTUTransmitFSM  mbrtu.o
    0x08003bec   0x08003bec   0x00000010   Data   RO          114    .constdata          modbus_app.o
    0x08003bfc   0x08003bfc   0x00000200   Data   RO          273    .constdata          mbcrc.o
    0x08003dfc   0x08003dfc   0x000001d4   Data   RO          581    .constdata          rh_drv.o
    0x08003fd0   0x08003fd0   0x000000c8   Data   RO          806    .constdata          ntc_drv.o
    0x08004098   0x08004098   0x0000005d   Data   RO          295    .conststring        mbrtu.o
    0x080040f5   0x080040f5   0x00000003   PAD
    0x080040f8   0x080040f8   0x00000020   Data   RO         3388    Region$$Table       anon$$obj.o


    Execution Region RW_IRAM1 (Exec base: 0x20000000, Load base: 0x08004118, Size: 0x00004710, Max: 0x00010000, ABSOLUTE, COMPRESSED[0x000000a0])

    Exec Addr    Load Addr    Size         Type   Attr      Idx    E Section Name        Object

    0x20000000   COMPRESSED   0x00000024   Data   RW           33    .data               main.o
    0x20000024   COMPRESSED   0x00000050   Data   RW          115    .data               modbus_app.o
    0x20000074   COMPRESSED   0x000000b5   Data   RW          189    .data               mb.o
    0x20000129   COMPRESSED   0x00000003   PAD
    0x2000012c   COMPRESSED   0x00000008   Data   RW          248    .data               modbus_slave.o
    0x20000134   COMPRESSED   0x0000000c   Data   RW          296    .data               mbrtu.o
    0x20000140   COMPRESSED   0x00000024   Data   RW          485    .data               led_drv.o
    0x20000164   COMPRESSED   0x00000006   Data   RW          582    .data               rh_drv.o
    0x2000016a   COMPRESSED   0x00000006   PAD
    0x20000170   COMPRESSED   0x00000010   Data   RW          695    .data               systick.o
    0x20000180   COMPRESSED   0x00000020   Data   RW          741    .data               usb2com_drv.o
    0x200001a0   COMPRESSED   0x00000006   Data   RW          807    .data               ntc_drv.o
    0x200001a6   COMPRESSED   0x00000002   Data   RW          937    .data               portevent.o
    0x200001a8   COMPRESSED   0x00000024   Data   RW          972    .data               portserial.o
    0x200001cc   COMPRESSED   0x00000008   Data   RW         1047    .data               porttimer.o
    0x200001d4   COMPRESSED   0x00000004   Data   RW         3044    .data               mc_w.l(stderr.o)
    0x200001d8   COMPRESSED   0x00000004   Data   RW         3360    .data               mc_w.l(stdout.o)
    0x200001dc   COMPRESSED   0x00000004   Data   RW         3365    .data               mc_w.l(mvars.o)
    0x200001e0   COMPRESSED   0x00000004   Data   RW         3366    .data               mc_w.l(mvars.o)
    0x200001e4        -       0x00000100   Zero   RW          294    .bss                mbrtu.o
    0x200002e4        -       0x00000028   Zero   RW          805    .bss                ntc_drv.o
    0x2000030c   COMPRESSED   0x00000004   PAD
    0x20000310        -       0x00000400   Zero   RW         2906    HEAP                startup_gd32f30x_hd.o
    0x20000710        -       0x00004000   Zero   RW         2905    STACK               startup_gd32f30x_hd.o


==============================================================================

Image component sizes


      Code (inc. data)   RO Data    RW Data    ZI Data      Debug   Object Name

       104         18          0          0          0      43034   delay.o
       790         10          0          0          0      10835   gd32f30x_adc.o
       720         74          0          0          0      11147   gd32f30x_fmc.o
       222          0          0          0          0      15331   gd32f30x_gpio.o
       216         20          0          0          0       1416   gd32f30x_misc.o
       548         68          0          0          0      20567   gd32f30x_rcu.o
       464         40          0          0          0      21780   gd32f30x_timer.o
       580         16          0          0          0      16602   gd32f30x_usart.o
       100         44          0          0          0       5538   hmi_app.o
       768        210          0          0          0       4134   inflash.o
       180         14          0         36          0       2526   led_drv.o
       164         12          0         36          0       2963   main.o
       576        126          0        181          0       5016   mb.o
        56          8        512          0          0       1404   mbcrc.o
       302          0          0          0          0       4249   mbfuncholding.o
      1000        306         93         12        256       6739   mbrtu.o
        34          0          0          0          0        636   mbutils.o
       450         16         16         80          0      10609   modbus_app.o
        92          8          0          8          0       2804   modbus_slave.o
       628         48        200          6         40       7913   ntc_drv.o
        76         24          0          2          0       2356   portevent.o
       480         54          0         36          0       7853   portserial.o
       258         28          0          8          0       4041   porttimer.o
       160         46          0          0          0       1285   retarget_io.o
       860         66        468          6          0       7889   rh_drv.o
         8          0          0          0          0        500   sensor_app.o
        66          0          0          0          0       2552   sensor_drv.o
        36          8        304          0      17408        836   startup_gd32f30x_hd.o
       452         30          0          0          0       2461   system_gd32f30x.o
       160         24          0         16          0      28923   systick.o
       280         28          0         32          0       4949   usb2com_drv.o

    ----------------------------------------------------------------------
     10856       1346       1628        468      17708     258888   Object Totals
         0          0         32          0          0          0   (incl. Generated)
        26          0          3          9          4          0   (incl. Padding)

    ----------------------------------------------------------------------

      Code (inc. data)   RO Data    RW Data    ZI Data      Debug   Library Member Name

        86          0          0          0          0          0   __dczerorl2.o
         0          0          0          0          0          0   entry.o
         0          0          0          0          0          0   entry10a.o
         0          0          0          0          0          0   entry11a.o
         4          0          0          0          0          0   entry12b.o
         8          4          0          0          0          0   entry2.o
         4          0          0          0          0          0   entry5.o
         0          0          0          0          0          0   entry7b.o
         0          0          0          0          0          0   entry8b.o
         8          4          0          0          0          0   entry9a.o
        24          0          0          0          0         80   fputs.o
        30          0          0          0          0          0   handlers.o
        36          8          0          0          0         68   init.o
         0          0          0          0          0          0   iusefp.o
        30          0          0          0          0         68   llshl.o
        36          0          0          0          0         68   llsshr.o
        32          0          0          0          0         68   llushr.o
       188         20          0          0          0        160   malloc.o
        36          0          0          0          0         68   memcpya.o
        36          0          0          0          0        108   memseta.o
         0          0          0          8          0          0   mvars.o
      2218         90          0          0          0        464   printfa.o
       156          0          0          0          0         88   qsort.o
         0          0          0          4          0          0   stderr.o
         0          0          0          4          0          0   stdout.o
        44          0          0          0          0         80   uidiv.o
        98          0          0          0          0         92   uldiv.o
        48          0          0          0          0         68   cdrcmple.o
       334          0          0          0          0        148   dadd.o
       222          0          0          0          0        100   ddiv.o
       186          0          0          0          0        176   depilogue.o
        48          0          0          0          0         68   dfixul.o
       228          0          0          0          0         96   dmul.o
        38          0          0          0          0         68   f2d.o

    ----------------------------------------------------------------------
      4180        126          0         16          0       2136   Library Totals
         2          0          0          0          0          0   (incl. Padding)

    ----------------------------------------------------------------------

      Code (inc. data)   RO Data    RW Data    ZI Data      Debug   Library Name

      3074        126          0         16          0       1412   mc_w.l
      1104          0          0          0          0        724   mf_w.l

    ----------------------------------------------------------------------
      4180        126          0         16          0       2136   Library Totals

    ----------------------------------------------------------------------

==============================================================================


      Code (inc. data)   RO Data    RW Data    ZI Data      Debug   

     15036       1472       1628        484      17708     244316   Grand Totals
     15036       1472       1628        160      17708     244316   ELF Image Totals (compressed)
     15036       1472       1628        160          0          0   ROM Totals

==============================================================================

    Total RO  Size (Code + RO Data)                16664 (  16.27kB)
    Total RW  Size (RW Data + ZI Data)             18192 (  17.77kB)
    Total ROM Size (Code + RO Data + RW Data)      16824 (  16.43kB)

==============================================================================

