Component: Arm Compiler for Embedded 6.21 Tool: armlink [5ec1fa00]

==============================================================================

Section Cross References

    main.o(.text.main) refers to delay.o(.text.DwtDelayInit) for DwtDelayInit
    main.o(.text.main) refers to systick.o(.text.SystickInit) for SystickInit
    main.o(.text.main) refers to usb2com_drv.o(.text.Usb2ComDrvInit) for Usb2ComDrvInit
    main.o(.text.main) refers to eeprom_drv.o(.text.EepromDrvInit) for EepromDrvInit
    main.o(.text.main) refers to main.o(.text.TaskSchedule) for TaskSchedule
    main.o(.text.main) refers to systick.o(.text.TaskScheduleCbReg) for TaskScheduleCbReg
    main.o(.text.main) refers to eeprom_drv.o(.text.EepromDrvTest) for EepromDrvTest
    main.o(.text.main) refers to main.o(.data.g_taskComps) for g_taskComps
    main.o(.ARM.exidx.text.main) refers to main.o(.text.main) for [Anonymous Symbol]
    main.o(.text.TaskSchedule) refers to main.o(.data.g_taskComps) for g_taskComps
    main.o(.ARM.exidx.text.TaskSchedule) refers to main.o(.text.TaskSchedule) for [Anonymous Symbol]
    main.o(.data.g_taskComps) refers to hmi_app.o(.text.HmiTask) for HmiTask
    main.o(.data.g_taskComps) refers to sensor_app.o(.text.SensorAppTask) for SensorAppTask
    hmi_app.o(.ARM.exidx.text.HmiTask) refers to hmi_app.o(.text.HmiTask) for [Anonymous Symbol]
    sensor_app.o(.ARM.exidx.text.SensorAppTask) refers to sensor_app.o(.text.SensorAppTask) for [Anonymous Symbol]
    delay.o(.ARM.exidx.text.DwtDelayInit) refers to delay.o(.text.DwtDelayInit) for [Anonymous Symbol]
    delay.o(.text.DelayNus) refers to gd32f30x_rcu.o(.text.rcu_clock_freq_get) for rcu_clock_freq_get
    delay.o(.ARM.exidx.text.DelayNus) refers to delay.o(.text.DelayNus) for [Anonymous Symbol]
==============================================================================

Removing Unused input sections from the image.

    Removing main.o(.text), (0 bytes).
    Removing main.o(.ARM.exidx.text.main), (8 bytes).
    Removing main.o(.ARM.exidx.text.TaskSchedule), (8 bytes).
    Removing main.o(.ARM.use_no_argv), (4 bytes).
    Removing hmi_app.o(.text), (0 bytes).
    Removing hmi_app.o(.ARM.exidx.text.HmiTask), (8 bytes).
    Removing sensor_app.o(.text), (0 bytes).
    Removing sensor_app.o(.ARM.exidx.text.SensorAppTask), (8 bytes).
    Removing delay.o(.text), (0 bytes).
    Removing delay.o(.ARM.exidx.text.DwtDelayInit), (8 bytes).
    Removing delay.o(.ARM.exidx.text.DelayNus), (8 bytes).
    Removing delay.o(.text.DelayNms), (78 bytes).
    Removing delay.o(.ARM.exidx.text.DelayNms), (8 bytes).
    Removing queue.o(.text), (0 bytes).
    Removing queue.o(.text.QueueInit), (12 bytes).
    Removing queue.o(.ARM.exidx.text.QueueInit), (8 bytes).
    Removing queue.o(.text.QueuePush), (40 bytes).
    Removing queue.o(.ARM.exidx.text.QueuePush), (8 bytes).
==============================================================================

Image Symbol Table

    Local Symbols

    Symbol Name                              Value     Ov Type        Size  Object(Section)

    ../clib/division.s                       0x00000000   Number         0  aeabi_sdiv.o ABSOLUTE
    ../clib/microlib/division.c              0x00000000   Number         0  uidiv.o ABSOLUTE
    ../clib/microlib/division.c              0x00000000   Number         0  uldiv.o ABSOLUTE
    ../clib/microlib/init/entry.s            0x00000000   Number         0  entry.o ABSOLUTE
    ../clib/microlib/init/entry.s            0x00000000   Number         0  entry2.o ABSOLUTE
    ../clib/microlib/init/entry.s            0x00000000   Number         0  entry5.o ABSOLUTE
    ../clib/microlib/init/entry.s            0x00000000   Number         0  entry7a.o ABSOLUTE
    ../clib/microlib/init/entry.s            0x00000000   Number         0  entry7b.o ABSOLUTE
    ../clib/microlib/init/entry.s            0x00000000   Number         0  entry8a.o ABSOLUTE
    ../clib/microlib/init/entry.s            0x00000000   Number         0  entry8b.o ABSOLUTE
    ../clib/microlib/init/entry.s            0x00000000   Number         0  entry9a.o ABSOLUTE
    ../clib/microlib/init/entry.s            0x00000000   Number         0  entry9b.o ABSOLUTE
    ../clib/microlib/init/entry.s            0x00000000   Number         0  entry10a.o ABSOLUTE
    ../clib/microlib/init/entry.s            0x00000000   Number         0  entry10b.o ABSOLUTE
    ../clib/microlib/init/entry.s            0x00000000   Number         0  entry11a.o ABSOLUTE
    ../clib/microlib/init/entry.s            0x00000000   Number         0  entry11b.o ABSOLUTE
    ../clib/microlib/longlong.c              0x00000000   Number         0  llshl.o ABSOLUTE
    ../clib/microlib/longlong.c              0x00000000   Number         0  llushr.o ABSOLUTE
    ../clib/microlib/longlong.c              0x00000000   Number         0  llsshr.o ABSOLUTE
    ../clib/microlib/printf/printf.c         0x00000000   Number         0  printfb.o ABSOLUTE
    ../clib/microlib/printf/printf.c         0x00000000   Number         0  printf0.o ABSOLUTE
    ../clib/microlib/printf/printf.c         0x00000000   Number         0  printf1.o ABSOLUTE
    ../clib/microlib/printf/printf.c         0x00000000   Number         0  printf2.o ABSOLUTE
    ../clib/microlib/printf/printf.c         0x00000000   Number         0  printf3.o ABSOLUTE
    ../clib/microlib/printf/printf.c         0x00000000   Number         0  printf4.o ABSOLUTE
    ../clib/microlib/printf/printf.c         0x00000000   Number         0  printf5.o ABSOLUTE
    ../clib/microlib/printf/printf.c         0x00000000   Number         0  printf6.o ABSOLUTE
    ../clib/microlib/printf/printf.c         0x00000000   Number         0  printf7.o ABSOLUTE
    ../clib/microlib/printf/printf.c         0x00000000   Number         0  printf8.o ABSOLUTE
    ../clib/microlib/printf/printf.c         0x00000000   Number         0  printfa.o ABSOLUTE
    ../clib/microlib/printf/stubs.s          0x00000000   Number         0  printfstubs.o ABSOLUTE
    ../clib/microlib/stdio/puts.c            0x00000000   Number         0  puts.o ABSOLUTE
    ../clib/microlib/stdio/puts.c            0x00000000   Number         0  puts_e.o ABSOLUTE
    ../clib/microlib/stdio/streams.c         0x00000000   Number         0  stdout.o ABSOLUTE
    ../clib/microlib/stubs.s                 0x00000000   Number         0  iusefp.o ABSOLUTE
    ../fplib/microlib/fpadd.c                0x00000000   Number         0  dadd.o ABSOLUTE
    ../fplib/microlib/fpdiv.c                0x00000000   Number         0  ddiv.o ABSOLUTE
    ../fplib/microlib/fpepilogue.c           0x00000000   Number         0  depilogue.o ABSOLUTE
    ../fplib/microlib/fpfix.c                0x00000000   Number         0  dfixul.o ABSOLUTE
    ../fplib/microlib/fpmul.c                0x00000000   Number         0  dmul.o ABSOLUTE
    Arm/startup_gd32f30x_hd.s                0x00000000   Number         0  startup_gd32f30x_hd.o ABSOLUTE
    cdrcmple.s                               0x00000000   Number         0  cdrcmple.o ABSOLUTE
    dc.s                                     0x00000000   Number         0  dc.o ABSOLUTE
    delay.c                                  0x00000000   Number         0  delay.o ABSOLUTE
    eeprom_drv.c                             0x00000000   Number         0  eeprom_drv.o ABSOLUTE
    gd32f30x_gpio.c                          0x00000000   Number         0  gd32f30x_gpio.o ABSOLUTE
    gd32f30x_misc.c                          0x00000000   Number         0  gd32f30x_misc.o ABSOLUTE
    gd32f30x_pmu.c                           0x00000000   Number         0  gd32f30x_pmu.o ABSOLUTE
    gd32f30x_rcu.c                           0x00000000   Number         0  gd32f30x_rcu.o ABSOLUTE
    gd32f30x_usart.c                         0x00000000   Number         0  gd32f30x_usart.o ABSOLUTE
    handlers.s                               0x00000000   Number         0  handlers.o ABSOLUTE
    hmi_app.c                                0x00000000   Number         0  hmi_app.o ABSOLUTE
    init.s                                   0x00000000   Number         0  init.o ABSOLUTE
    main.c                                   0x00000000   Number         0  main.o ABSOLUTE
    queue.c                                  0x00000000   Number         0  queue.o ABSOLUTE
    sensor_app.c                             0x00000000   Number         0  sensor_app.o ABSOLUTE
    system_gd32f30x.c                        0x00000000   Number         0  system_gd32f30x.o ABSOLUTE
    systick.c                                0x00000000   Number         0  systick.o ABSOLUTE
    usb2com_drv.c                            0x00000000   Number         0  usb2com_drv.o ABSOLUTE
    RESET                                    0x08000000   Section      304  startup_gd32f30x_hd.o(RESET)
    .ARM.Collect$$$$00000000                 0x08000130   Section        0  entry.o(.ARM.Collect$$$$00000000)
    .ARM.Collect$$$$00000001                 0x08000130   Section        4  entry2.o(.ARM.Collect$$$$00000001)
    .ARM.Collect$$$$00000004                 0x08000134   Section        4  entry5.o(.ARM.Collect$$$$00000004)
    .ARM.Collect$$$$00000008                 0x08000138   Section        0  entry7b.o(.ARM.Collect$$$$00000008)
    .ARM.Collect$$$$0000000A                 0x08000138   Section        0  entry8b.o(.ARM.Collect$$$$0000000A)
    .ARM.Collect$$$$0000000B                 0x08000138   Section        8  entry9a.o(.ARM.Collect$$$$0000000B)
    __lit__00000000                          0x08000140   Data           4  entry2.o(.ARM.Collect$$$$00002712)
    .ARM.Collect$$$$0000000D                 0x08000140   Section        0  entry10a.o(.ARM.Collect$$$$0000000D)
    .ARM.Collect$$$$0000000F                 0x08000140   Section        0  entry11a.o(.ARM.Collect$$$$0000000F)
    .ARM.Collect$$$$00002712                 0x08000140   Section        4  entry2.o(.ARM.Collect$$$$00002712)
    $v0                                      0x08000144   Number         0  startup_gd32f30x_hd.o(.text)
    .text                                    0x08000144   Section       36  startup_gd32f30x_hd.o(.text)
    .text                                    0x08000168   Section        0  uldiv.o(.text)
    .text                                    0x080001cc   Section       48  init.o(.text)
    .text                                    0x080001fc   Section        0  llshl.o(.text)
    .text                                    0x0800021a   Section        0  llushr.o(.text)
    [Anonymous Symbol]                       0x0800023c   Section        0  delay.o(.text.DelayNus)
    [Anonymous Symbol]                       0x0800026c   Section        0  delay.o(.text.DwtDelayInit)
    [Anonymous Symbol]                       0x080002a4   Section        0  eeprom_drv.o(.text.EepromDrvInit)
    [Anonymous Symbol]                       0x080002c4   Section        0  eeprom_drv.o(.text.EepromDrvTest)
    [Anonymous Symbol]                       0x08000404   Section        0  hmi_app.o(.text.HmiTask)
    I2CReadByte                              0x08000409   Thumb Code    80  eeprom_drv.o(.text.I2CReadByte)
    [Anonymous Symbol]                       0x08000408   Section        0  eeprom_drv.o(.text.I2CReadByte)
    I2CWaitAck                               0x08000459   Thumb Code   136  eeprom_drv.o(.text.I2CWaitAck)
    [Anonymous Symbol]                       0x08000458   Section        0  eeprom_drv.o(.text.I2CWaitAck)
    I2CWriteByte                             0x080004e1   Thumb Code    88  eeprom_drv.o(.text.I2CWriteByte)
    [Anonymous Symbol]                       0x080004e0   Section        0  eeprom_drv.o(.text.I2CWriteByte)
    [Anonymous Symbol]                       0x08000538   Section        0  eeprom_drv.o(.text.ReadEepromData)
    [Anonymous Symbol]                       0x08000698   Section        0  sensor_app.o(.text.SensorAppTask)
    [Anonymous Symbol]                       0x0800069c   Section        0  systick.o(.text.SysTick_Handler)
    [Anonymous Symbol]                       0x080006c4   Section        0  system_gd32f30x.o(.text.SystemInit)
    [Anonymous Symbol]                       0x0800086c   Section        0  systick.o(.text.SystickInit)
    TaskSchedule                             0x080008b5   Thumb Code    56  main.o(.text.TaskSchedule)
    [Anonymous Symbol]                       0x080008b4   Section        0  main.o(.text.TaskSchedule)
    [Anonymous Symbol]                       0x080008ec   Section        0  systick.o(.text.TaskScheduleCbReg)
    [Anonymous Symbol]                       0x080008f8   Section        0  usb2com_drv.o(.text.USART0_IRQHandler)
    [Anonymous Symbol]                       0x08000938   Section        0  usb2com_drv.o(.text.Usb2ComDrvInit)
    [Anonymous Symbol]                       0x080009bc   Section        0  eeprom_drv.o(.text.WriteEepromData)
    [Anonymous Symbol]                       0x08000acc   Section        0  usb2com_drv.o(.text.fputc)
    [Anonymous Symbol]                       0x08000af0   Section        0  gd32f30x_gpio.o(.text.gpio_bit_reset)
    [Anonymous Symbol]                       0x08000af4   Section        0  gd32f30x_gpio.o(.text.gpio_bit_set)
    [Anonymous Symbol]                       0x08000af8   Section        0  gd32f30x_gpio.o(.text.gpio_init)
    [Anonymous Symbol]                       0x08000bb0   Section        0  gd32f30x_gpio.o(.text.gpio_input_bit_get)
    [Anonymous Symbol]                       0x08000bbc   Section        0  main.o(.text.main)
    [Anonymous Symbol]                       0x08000c0c   Section        0  gd32f30x_misc.o(.text.nvic_irq_enable)
    [Anonymous Symbol]                       0x08000cb0   Section        0  gd32f30x_rcu.o(.text.rcu_clock_freq_get)
    [Anonymous Symbol]                       0x08000d80   Section        0  gd32f30x_rcu.o(.text.rcu_periph_clock_enable)
    [Anonymous Symbol]                       0x08000da0   Section        0  gd32f30x_rcu.o(.text.rcu_periph_reset_disable)
    [Anonymous Symbol]                       0x08000dc0   Section        0  gd32f30x_rcu.o(.text.rcu_periph_reset_enable)
    [Anonymous Symbol]                       0x08000de0   Section        0  gd32f30x_usart.o(.text.usart_baudrate_set)
    [Anonymous Symbol]                       0x08000e4c   Section        0  gd32f30x_usart.o(.text.usart_data_receive)
    [Anonymous Symbol]                       0x08000e54   Section        0  gd32f30x_usart.o(.text.usart_data_transmit)
    [Anonymous Symbol]                       0x08000e5c   Section        0  gd32f30x_usart.o(.text.usart_deinit)
    [Anonymous Symbol]                       0x08000ed8   Section        0  gd32f30x_usart.o(.text.usart_enable)
    [Anonymous Symbol]                       0x08000ee4   Section        0  gd32f30x_usart.o(.text.usart_flag_get)
    [Anonymous Symbol]                       0x08000ef4   Section        0  gd32f30x_usart.o(.text.usart_interrupt_enable)
    [Anonymous Symbol]                       0x08000f0c   Section        0  gd32f30x_usart.o(.text.usart_interrupt_flag_clear)
    [Anonymous Symbol]                       0x08000f20   Section        0  gd32f30x_usart.o(.text.usart_interrupt_flag_get)
    [Anonymous Symbol]                       0x08000f44   Section        0  gd32f30x_usart.o(.text.usart_parity_config)
    [Anonymous Symbol]                       0x08000f54   Section        0  gd32f30x_usart.o(.text.usart_receive_config)
    [Anonymous Symbol]                       0x08000f68   Section        0  gd32f30x_usart.o(.text.usart_stop_bit_set)
    [Anonymous Symbol]                       0x08000f78   Section        0  gd32f30x_usart.o(.text.usart_transmit_config)
    [Anonymous Symbol]                       0x08000f8c   Section        0  gd32f30x_usart.o(.text.usart_word_length_set)
    i.__0printf$8                            0x08000f9c   Section        0  printf8.o(i.__0printf$8)
    i.__scatterload_copy                     0x08000fbc   Section       14  handlers.o(i.__scatterload_copy)
    i.__scatterload_null                     0x08000fca   Section        2  handlers.o(i.__scatterload_null)
    i.__scatterload_zeroinit                 0x08000fcc   Section       14  handlers.o(i.__scatterload_zeroinit)
    _printf_core                             0x08000fdd   Thumb Code   996  printf8.o(i._printf_core)
    i._printf_core                           0x08000fdc   Section        0  printf8.o(i._printf_core)
    _printf_post_padding                     0x080013ed   Thumb Code    36  printf8.o(i._printf_post_padding)
    i._printf_post_padding                   0x080013ec   Section        0  printf8.o(i._printf_post_padding)
    _printf_pre_padding                      0x08001411   Thumb Code    46  printf8.o(i._printf_pre_padding)
    i._printf_pre_padding                    0x08001410   Section        0  printf8.o(i._printf_pre_padding)
    i.puts                                   0x08001440   Section        0  puts.o(i.puts)
    .L__const.rcu_clock_freq_get.apb2_exp    0x08001464   Data           8  gd32f30x_rcu.o(.rodata.cst8)
    .L.str.1                                 0x0800146c   Data           8  eeprom_drv.o(.rodata.str1.1)
    [Anonymous Symbol]                       0x0800146c   Section        0  eeprom_drv.o(.rodata.str1.1)
    .Lstr.13                                 0x08001474   Data          17  eeprom_drv.o(.rodata.str1.1)
    .data                                    0x20000000   Section        4  stdout.o(.data)
    g_taskComps                              0x20000020   Data          24  main.o(.data.g_taskComps)
    [Anonymous Symbol]                       0x20000020   Section        0  main.o(.data.g_taskComps)
    I2CWaitAck.errTimes                      0x20000038   Data           1  eeprom_drv.o(.bss.I2CWaitAck.errTimes)
    [Anonymous Symbol]                       0x20000038   Section        0  eeprom_drv.o(.bss.I2CWaitAck.errTimes)
    g_pTaskScheduleFunc                      0x2000003c   Data           4  systick.o(.bss.g_pTaskScheduleFunc)
    [Anonymous Symbol]                       0x2000003c   Section        0  systick.o(.bss.g_pTaskScheduleFunc)
    g_systemRunTime                          0x20000040   Data           8  systick.o(.bss.g_systemRunTime)
    [Anonymous Symbol]                       0x20000040   Section        0  systick.o(.bss.g_systemRunTime)
    pProcUartData                            0x20000048   Data           4  usb2com_drv.o(.bss.pProcUartData)
    [Anonymous Symbol]                       0x20000048   Section        0  usb2com_drv.o(.bss.pProcUartData)
    STACK                                    0x20000050   Section     1024  startup_gd32f30x_hd.o(STACK)

    Global Symbols

    Symbol Name                              Value     Ov Type        Size  Object(Section)

    BuildAttributes$$THM_ISAv4$E$P$D$K$B$S$7EM$VFPi3$EXTD16$VFPS$VFMA$PE$A:L22UL41UL21$X:L11$S22US41US21$IEEE1$IW$~IW$USESV6$~STKCKD$USESV7$~SHL$OTIME$ROPI$EBA8$MICROLIB$REQ8$PRES8$EABIv2 0x00000000   Number         0  anon$$obj.o ABSOLUTE
    _printf_a                                0x00000000   Number         0  printfstubs.o ABSOLUTE
    _printf_c                                0x00000000   Number         0  printfstubs.o ABSOLUTE
    _printf_charcount                        0x00000000   Number         0  printfstubs.o ABSOLUTE
    _printf_d                                0x00000000   Number         0  printfstubs.o ABSOLUTE
    _printf_e                                0x00000000   Number         0  printfstubs.o ABSOLUTE
    _printf_f                                0x00000000   Number         0  printfstubs.o ABSOLUTE
    _printf_flags                            0x00000000   Number         0  printfstubs.o ABSOLUTE
    _printf_fp_dec                           0x00000000   Number         0  printfstubs.o ABSOLUTE
    _printf_fp_hex                           0x00000000   Number         0  printfstubs.o ABSOLUTE
    _printf_g                                0x00000000   Number         0  printfstubs.o ABSOLUTE
    _printf_i                                0x00000000   Number         0  printfstubs.o ABSOLUTE
    _printf_int_dec                          0x00000000   Number         0  printfstubs.o ABSOLUTE
    _printf_l                                0x00000000   Number         0  printfstubs.o ABSOLUTE
    _printf_lc                               0x00000000   Number         0  printfstubs.o ABSOLUTE
    _printf_ll                               0x00000000   Number         0  printfstubs.o ABSOLUTE
    _printf_lld                              0x00000000   Number         0  printfstubs.o ABSOLUTE
    _printf_lli                              0x00000000   Number         0  printfstubs.o ABSOLUTE
    _printf_llo                              0x00000000   Number         0  printfstubs.o ABSOLUTE
    _printf_llu                              0x00000000   Number         0  printfstubs.o ABSOLUTE
    _printf_llx                              0x00000000   Number         0  printfstubs.o ABSOLUTE
    _printf_longlong_dec                     0x00000000   Number         0  printfstubs.o ABSOLUTE
    _printf_longlong_hex                     0x00000000   Number         0  printfstubs.o ABSOLUTE
    _printf_longlong_oct                     0x00000000   Number         0  printfstubs.o ABSOLUTE
    _printf_ls                               0x00000000   Number         0  printfstubs.o ABSOLUTE
    _printf_mbtowc                           0x00000000   Number         0  printfstubs.o ABSOLUTE
    _printf_n                                0x00000000   Number         0  printfstubs.o ABSOLUTE
    _printf_o                                0x00000000   Number         0  printfstubs.o ABSOLUTE
    _printf_p                                0x00000000   Number         0  printfstubs.o ABSOLUTE
    _printf_percent                          0x00000000   Number         0  printfstubs.o ABSOLUTE
    _printf_pre_padding                      0x00000000   Number         0  printfstubs.o ABSOLUTE
    _printf_return_value                     0x00000000   Number         0  printfstubs.o ABSOLUTE
    _printf_s                                0x00000000   Number         0  printfstubs.o ABSOLUTE
    _printf_sizespec                         0x00000000   Number         0  printfstubs.o ABSOLUTE
    _printf_str                              0x00000000   Number         0  printfstubs.o ABSOLUTE
    _printf_truncate_signed                  0x00000000   Number         0  printfstubs.o ABSOLUTE
    _printf_truncate_unsigned                0x00000000   Number         0  printfstubs.o ABSOLUTE
    _printf_u                                0x00000000   Number         0  printfstubs.o ABSOLUTE
    _printf_wc                               0x00000000   Number         0  printfstubs.o ABSOLUTE
    _printf_wctomb                           0x00000000   Number         0  printfstubs.o ABSOLUTE
    _printf_widthprec                        0x00000000   Number         0  printfstubs.o ABSOLUTE
    _printf_x                                0x00000000   Number         0  printfstubs.o ABSOLUTE
    __cpp_initialize__aeabi_                  - Undefined Weak Reference
    __cxa_finalize                            - Undefined Weak Reference
    __decompress                              - Undefined Weak Reference
    _clock_init                               - Undefined Weak Reference
    _microlib_exit                            - Undefined Weak Reference
    __Vectors_Size                           0x00000130   Number         0  startup_gd32f30x_hd.o ABSOLUTE
    __Vectors                                0x08000000   Data           4  startup_gd32f30x_hd.o(RESET)
    __Vectors_End                            0x08000130   Data           0  startup_gd32f30x_hd.o(RESET)
    __main                                   0x08000131   Thumb Code     0  entry.o(.ARM.Collect$$$$00000000)
    _main_stk                                0x08000131   Thumb Code     0  entry2.o(.ARM.Collect$$$$00000001)
    _main_scatterload                        0x08000135   Thumb Code     0  entry5.o(.ARM.Collect$$$$00000004)
    __main_after_scatterload                 0x08000139   Thumb Code     0  entry5.o(.ARM.Collect$$$$00000004)
    _main_clock                              0x08000139   Thumb Code     0  entry7b.o(.ARM.Collect$$$$00000008)
    _main_cpp_init                           0x08000139   Thumb Code     0  entry8b.o(.ARM.Collect$$$$0000000A)
    _main_init                               0x08000139   Thumb Code     0  entry9a.o(.ARM.Collect$$$$0000000B)
    __rt_final_cpp                           0x08000141   Thumb Code     0  entry10a.o(.ARM.Collect$$$$0000000D)
    __rt_final_exit                          0x08000141   Thumb Code     0  entry11a.o(.ARM.Collect$$$$0000000F)
    Reset_Handler                            0x08000145   Thumb Code     8  startup_gd32f30x_hd.o(.text)
    NMI_Handler                              0x0800014d   Thumb Code     2  startup_gd32f30x_hd.o(.text)
    HardFault_Handler                        0x0800014f   Thumb Code     2  startup_gd32f30x_hd.o(.text)
    MemManage_Handler                        0x08000151   Thumb Code     2  startup_gd32f30x_hd.o(.text)
    BusFault_Handler                         0x08000153   Thumb Code     2  startup_gd32f30x_hd.o(.text)
    UsageFault_Handler                       0x08000155   Thumb Code     2  startup_gd32f30x_hd.o(.text)
    SVC_Handler                              0x08000157   Thumb Code     2  startup_gd32f30x_hd.o(.text)
    DebugMon_Handler                         0x08000159   Thumb Code     2  startup_gd32f30x_hd.o(.text)
    PendSV_Handler                           0x0800015b   Thumb Code     2  startup_gd32f30x_hd.o(.text)
    ADC0_1_IRQHandler                        0x0800015f   Thumb Code     0  startup_gd32f30x_hd.o(.text)
    ADC2_IRQHandler                          0x0800015f   Thumb Code     0  startup_gd32f30x_hd.o(.text)
    CAN0_EWMC_IRQHandler                     0x0800015f   Thumb Code     0  startup_gd32f30x_hd.o(.text)
    CAN0_RX1_IRQHandler                      0x0800015f   Thumb Code     0  startup_gd32f30x_hd.o(.text)
    DMA0_Channel0_IRQHandler                 0x0800015f   Thumb Code     0  startup_gd32f30x_hd.o(.text)
    DMA0_Channel1_IRQHandler                 0x0800015f   Thumb Code     0  startup_gd32f30x_hd.o(.text)
    DMA0_Channel2_IRQHandler                 0x0800015f   Thumb Code     0  startup_gd32f30x_hd.o(.text)
    DMA0_Channel3_IRQHandler                 0x0800015f   Thumb Code     0  startup_gd32f30x_hd.o(.text)
    DMA0_Channel4_IRQHandler                 0x0800015f   Thumb Code     0  startup_gd32f30x_hd.o(.text)
    DMA0_Channel5_IRQHandler                 0x0800015f   Thumb Code     0  startup_gd32f30x_hd.o(.text)
    DMA0_Channel6_IRQHandler                 0x0800015f   Thumb Code     0  startup_gd32f30x_hd.o(.text)
    DMA1_Channel0_IRQHandler                 0x0800015f   Thumb Code     0  startup_gd32f30x_hd.o(.text)
    DMA1_Channel1_IRQHandler                 0x0800015f   Thumb Code     0  startup_gd32f30x_hd.o(.text)
    DMA1_Channel2_IRQHandler                 0x0800015f   Thumb Code     0  startup_gd32f30x_hd.o(.text)
    DMA1_Channel3_4_IRQHandler               0x0800015f   Thumb Code     0  startup_gd32f30x_hd.o(.text)
    EXMC_IRQHandler                          0x0800015f   Thumb Code     0  startup_gd32f30x_hd.o(.text)
    EXTI0_IRQHandler                         0x0800015f   Thumb Code     0  startup_gd32f30x_hd.o(.text)
    EXTI10_15_IRQHandler                     0x0800015f   Thumb Code     0  startup_gd32f30x_hd.o(.text)
    EXTI1_IRQHandler                         0x0800015f   Thumb Code     0  startup_gd32f30x_hd.o(.text)
    EXTI2_IRQHandler                         0x0800015f   Thumb Code     0  startup_gd32f30x_hd.o(.text)
    EXTI3_IRQHandler                         0x0800015f   Thumb Code     0  startup_gd32f30x_hd.o(.text)
    EXTI4_IRQHandler                         0x0800015f   Thumb Code     0  startup_gd32f30x_hd.o(.text)
    EXTI5_9_IRQHandler                       0x0800015f   Thumb Code     0  startup_gd32f30x_hd.o(.text)
    FMC_IRQHandler                           0x0800015f   Thumb Code     0  startup_gd32f30x_hd.o(.text)
    I2C0_ER_IRQHandler                       0x0800015f   Thumb Code     0  startup_gd32f30x_hd.o(.text)
    I2C0_EV_IRQHandler                       0x0800015f   Thumb Code     0  startup_gd32f30x_hd.o(.text)
    I2C1_ER_IRQHandler                       0x0800015f   Thumb Code     0  startup_gd32f30x_hd.o(.text)
    I2C1_EV_IRQHandler                       0x0800015f   Thumb Code     0  startup_gd32f30x_hd.o(.text)
    LVD_IRQHandler                           0x0800015f   Thumb Code     0  startup_gd32f30x_hd.o(.text)
    RCU_CTC_IRQHandler                       0x0800015f   Thumb Code     0  startup_gd32f30x_hd.o(.text)
    RTC_Alarm_IRQHandler                     0x0800015f   Thumb Code     0  startup_gd32f30x_hd.o(.text)
    RTC_IRQHandler                           0x0800015f   Thumb Code     0  startup_gd32f30x_hd.o(.text)
    SDIO_IRQHandler                          0x0800015f   Thumb Code     0  startup_gd32f30x_hd.o(.text)
    SPI0_IRQHandler                          0x0800015f   Thumb Code     0  startup_gd32f30x_hd.o(.text)
    SPI1_IRQHandler                          0x0800015f   Thumb Code     0  startup_gd32f30x_hd.o(.text)
    SPI2_IRQHandler                          0x0800015f   Thumb Code     0  startup_gd32f30x_hd.o(.text)
    TAMPER_IRQHandler                        0x0800015f   Thumb Code     0  startup_gd32f30x_hd.o(.text)
    TIMER0_BRK_IRQHandler                    0x0800015f   Thumb Code     0  startup_gd32f30x_hd.o(.text)
    TIMER0_Channel_IRQHandler                0x0800015f   Thumb Code     0  startup_gd32f30x_hd.o(.text)
    TIMER0_TRG_CMT_IRQHandler                0x0800015f   Thumb Code     0  startup_gd32f30x_hd.o(.text)
    TIMER0_UP_IRQHandler                     0x0800015f   Thumb Code     0  startup_gd32f30x_hd.o(.text)
    TIMER1_IRQHandler                        0x0800015f   Thumb Code     0  startup_gd32f30x_hd.o(.text)
    TIMER2_IRQHandler                        0x0800015f   Thumb Code     0  startup_gd32f30x_hd.o(.text)
    TIMER3_IRQHandler                        0x0800015f   Thumb Code     0  startup_gd32f30x_hd.o(.text)
    TIMER4_IRQHandler                        0x0800015f   Thumb Code     0  startup_gd32f30x_hd.o(.text)
    TIMER5_IRQHandler                        0x0800015f   Thumb Code     0  startup_gd32f30x_hd.o(.text)
    TIMER6_IRQHandler                        0x0800015f   Thumb Code     0  startup_gd32f30x_hd.o(.text)
    TIMER7_BRK_IRQHandler                    0x0800015f   Thumb Code     0  startup_gd32f30x_hd.o(.text)
    TIMER7_Channel_IRQHandler                0x0800015f   Thumb Code     0  startup_gd32f30x_hd.o(.text)
    TIMER7_TRG_CMT_IRQHandler                0x0800015f   Thumb Code     0  startup_gd32f30x_hd.o(.text)
    TIMER7_UP_IRQHandler                     0x0800015f   Thumb Code     0  startup_gd32f30x_hd.o(.text)
    UART3_IRQHandler                         0x0800015f   Thumb Code     0  startup_gd32f30x_hd.o(.text)
    UART4_IRQHandler                         0x0800015f   Thumb Code     0  startup_gd32f30x_hd.o(.text)
    USART1_IRQHandler                        0x0800015f   Thumb Code     0  startup_gd32f30x_hd.o(.text)
    USART2_IRQHandler                        0x0800015f   Thumb Code     0  startup_gd32f30x_hd.o(.text)
    USBD_HP_CAN0_TX_IRQHandler               0x0800015f   Thumb Code     0  startup_gd32f30x_hd.o(.text)
    USBD_LP_CAN0_RX0_IRQHandler              0x0800015f   Thumb Code     0  startup_gd32f30x_hd.o(.text)
    USBD_WKUP_IRQHandler                     0x0800015f   Thumb Code     0  startup_gd32f30x_hd.o(.text)
    WWDGT_IRQHandler                         0x0800015f   Thumb Code     0  startup_gd32f30x_hd.o(.text)
    __aeabi_uldivmod                         0x08000169   Thumb Code    98  uldiv.o(.text)
    __scatterload                            0x080001cd   Thumb Code    38  init.o(.text)
    __scatterload_rt2                        0x080001cd   Thumb Code     0  init.o(.text)
    __aeabi_llsl                             0x080001fd   Thumb Code    30  llshl.o(.text)
    _ll_shift_l                              0x080001fd   Thumb Code     0  llshl.o(.text)
    __aeabi_llsr                             0x0800021b   Thumb Code    32  llushr.o(.text)
    _ll_ushift_r                             0x0800021b   Thumb Code     0  llushr.o(.text)
    DelayNus                                 0x0800023d   Thumb Code    46  delay.o(.text.DelayNus)
    DwtDelayInit                             0x0800026d   Thumb Code    54  delay.o(.text.DwtDelayInit)
    EepromDrvInit                            0x080002a5   Thumb Code    32  eeprom_drv.o(.text.EepromDrvInit)
    EepromDrvTest                            0x080002c5   Thumb Code   180  eeprom_drv.o(.text.EepromDrvTest)
    HmiTask                                  0x08000405   Thumb Code     2  hmi_app.o(.text.HmiTask)
    ReadEepromData                           0x08000539   Thumb Code   350  eeprom_drv.o(.text.ReadEepromData)
    SensorAppTask                            0x08000699   Thumb Code     2  sensor_app.o(.text.SensorAppTask)
    SysTick_Handler                          0x0800069d   Thumb Code    40  systick.o(.text.SysTick_Handler)
    SystemInit                               0x080006c5   Thumb Code   424  system_gd32f30x.o(.text.SystemInit)
    SystickInit                              0x0800086d   Thumb Code    70  systick.o(.text.SystickInit)
    TaskScheduleCbReg                        0x080008ed   Thumb Code    12  systick.o(.text.TaskScheduleCbReg)
    USART0_IRQHandler                        0x080008f9   Thumb Code    64  usb2com_drv.o(.text.USART0_IRQHandler)
    Usb2ComDrvInit                           0x08000939   Thumb Code   132  usb2com_drv.o(.text.Usb2ComDrvInit)
    WriteEepromData                          0x080009bd   Thumb Code   272  eeprom_drv.o(.text.WriteEepromData)
    fputc                                    0x08000acd   Thumb Code    36  usb2com_drv.o(.text.fputc)
    gpio_bit_reset                           0x08000af1   Thumb Code     4  gd32f30x_gpio.o(.text.gpio_bit_reset)
    gpio_bit_set                             0x08000af5   Thumb Code     4  gd32f30x_gpio.o(.text.gpio_bit_set)
    gpio_init                                0x08000af9   Thumb Code   182  gd32f30x_gpio.o(.text.gpio_init)
    gpio_input_bit_get                       0x08000bb1   Thumb Code    10  gd32f30x_gpio.o(.text.gpio_input_bit_get)
    main                                     0x08000bbd   Thumb Code    80  main.o(.text.main)
    nvic_irq_enable                          0x08000c0d   Thumb Code   164  gd32f30x_misc.o(.text.nvic_irq_enable)
    rcu_clock_freq_get                       0x08000cb1   Thumb Code   192  gd32f30x_rcu.o(.text.rcu_clock_freq_get)
    rcu_periph_clock_enable                  0x08000d81   Thumb Code    30  gd32f30x_rcu.o(.text.rcu_periph_clock_enable)
    rcu_periph_reset_disable                 0x08000da1   Thumb Code    32  gd32f30x_rcu.o(.text.rcu_periph_reset_disable)
    rcu_periph_reset_enable                  0x08000dc1   Thumb Code    30  gd32f30x_rcu.o(.text.rcu_periph_reset_enable)
    usart_baudrate_set                       0x08000de1   Thumb Code   106  gd32f30x_usart.o(.text.usart_baudrate_set)
    usart_data_receive                       0x08000e4d   Thumb Code     8  gd32f30x_usart.o(.text.usart_data_receive)
    usart_data_transmit                      0x08000e55   Thumb Code     8  gd32f30x_usart.o(.text.usart_data_transmit)
    usart_deinit                             0x08000e5d   Thumb Code   122  gd32f30x_usart.o(.text.usart_deinit)
    usart_enable                             0x08000ed9   Thumb Code    10  gd32f30x_usart.o(.text.usart_enable)
    usart_flag_get                           0x08000ee5   Thumb Code    16  gd32f30x_usart.o(.text.usart_flag_get)
    usart_interrupt_enable                   0x08000ef5   Thumb Code    22  gd32f30x_usart.o(.text.usart_interrupt_enable)
    usart_interrupt_flag_clear               0x08000f0d   Thumb Code    18  gd32f30x_usart.o(.text.usart_interrupt_flag_clear)
    usart_interrupt_flag_get                 0x08000f21   Thumb Code    34  gd32f30x_usart.o(.text.usart_interrupt_flag_get)
    usart_parity_config                      0x08000f45   Thumb Code    16  gd32f30x_usart.o(.text.usart_parity_config)
    usart_receive_config                     0x08000f55   Thumb Code    20  gd32f30x_usart.o(.text.usart_receive_config)
    usart_stop_bit_set                       0x08000f69   Thumb Code    16  gd32f30x_usart.o(.text.usart_stop_bit_set)
    usart_transmit_config                    0x08000f79   Thumb Code    20  gd32f30x_usart.o(.text.usart_transmit_config)
    usart_word_length_set                    0x08000f8d   Thumb Code    16  gd32f30x_usart.o(.text.usart_word_length_set)
    __0printf$8                              0x08000f9d   Thumb Code    22  printf8.o(i.__0printf$8)
    __1printf$8                              0x08000f9d   Thumb Code     0  printf8.o(i.__0printf$8)
    __2printf                                0x08000f9d   Thumb Code     0  printf8.o(i.__0printf$8)
    __scatterload_copy                       0x08000fbd   Thumb Code    14  handlers.o(i.__scatterload_copy)
    __scatterload_null                       0x08000fcb   Thumb Code     2  handlers.o(i.__scatterload_null)
    __scatterload_zeroinit                   0x08000fcd   Thumb Code    14  handlers.o(i.__scatterload_zeroinit)
    puts                                     0x08001441   Thumb Code    30  puts.o(i.puts)
    Region$$Table$$Base                      0x08001488   Number         0  anon$$obj.o(Region$$Table)
    Region$$Table$$Limit                     0x080014a8   Number         0  anon$$obj.o(Region$$Table)
    __stdout                                 0x20000000   Data           4  stdout.o(.data)
    g_Usb2ComInfo                            0x20000004   Data          28  usb2com_drv.o(.data.g_Usb2ComInfo)
    __initial_sp                             0x20000450   Data           0  startup_gd32f30x_hd.o(STACK)



==============================================================================

Memory Map of the image

  Image Entry point : 0x08000131

  Load Region LR_IROM1 (Base: 0x08000000, Size: 0x000014e0, Max: 0x00080000, ABSOLUTE)

    Execution Region ER_IROM1 (Exec base: 0x08000000, Load base: 0x08000000, Size: 0x000014a8, Max: 0x00080000, ABSOLUTE)

    Exec Addr    Load Addr    Size         Type   Attr      Idx    E Section Name        Object

    0x08000000   0x08000000   0x00000130   Data   RO          441    RESET               startup_gd32f30x_hd.o
    0x08000130   0x08000130   0x00000000   Code   RO          461  * .ARM.Collect$$$$00000000  mc_w.l(entry.o)
    0x08000130   0x08000130   0x00000004   Code   RO          729    .ARM.Collect$$$$00000001  mc_w.l(entry2.o)
    0x08000134   0x08000134   0x00000004   Code   RO          732    .ARM.Collect$$$$00000004  mc_w.l(entry5.o)
    0x08000138   0x08000138   0x00000000   Code   RO          734    .ARM.Collect$$$$00000008  mc_w.l(entry7b.o)
    0x08000138   0x08000138   0x00000000   Code   RO          736    .ARM.Collect$$$$0000000A  mc_w.l(entry8b.o)
    0x08000138   0x08000138   0x00000008   Code   RO          737    .ARM.Collect$$$$0000000B  mc_w.l(entry9a.o)
    0x08000140   0x08000140   0x00000000   Code   RO          739    .ARM.Collect$$$$0000000D  mc_w.l(entry10a.o)
    0x08000140   0x08000140   0x00000000   Code   RO          741    .ARM.Collect$$$$0000000F  mc_w.l(entry11a.o)
    0x08000140   0x08000140   0x00000004   Code   RO          730    .ARM.Collect$$$$00002712  mc_w.l(entry2.o)
    0x08000144   0x08000144   0x00000024   Code   RO          442    .text               startup_gd32f30x_hd.o
    0x08000168   0x08000168   0x00000062   Code   RO          755    .text               mc_w.l(uldiv.o)
    0x080001ca   0x080001ca   0x00000002   PAD
    0x080001cc   0x080001cc   0x00000030   Code   RO          768    .text               mc_w.l(init.o)
    0x080001fc   0x080001fc   0x0000001e   Code   RO          770    .text               mc_w.l(llshl.o)
    0x0800021a   0x0800021a   0x00000020   Code   RO          772    .text               mc_w.l(llushr.o)
    0x0800023a   0x0800023a   0x00000002   PAD
    0x0800023c   0x0800023c   0x0000002e   Code   RO           34    .text.DelayNus      delay.o
    0x0800026a   0x0800026a   0x00000002   PAD
    0x0800026c   0x0800026c   0x00000036   Code   RO           32    .text.DwtDelayInit  delay.o
    0x080002a2   0x080002a2   0x00000002   PAD
    0x080002a4   0x080002a4   0x00000020   Code   RO          101    .text.EepromDrvInit  eeprom_drv.o
    0x080002c4   0x080002c4   0x00000140   Code   RO          113    .text.EepromDrvTest  eeprom_drv.o
    0x08000404   0x08000404   0x00000002   Code   RO           16    .text.HmiTask       hmi_app.o
    0x08000406   0x08000406   0x00000002   PAD
    0x08000408   0x08000408   0x00000050   Code   RO          111    .text.I2CReadByte   eeprom_drv.o
    0x08000458   0x08000458   0x00000088   Code   RO          107    .text.I2CWaitAck    eeprom_drv.o
    0x080004e0   0x080004e0   0x00000058   Code   RO          105    .text.I2CWriteByte  eeprom_drv.o
    0x08000538   0x08000538   0x0000015e   Code   RO          109    .text.ReadEepromData  eeprom_drv.o
    0x08000696   0x08000696   0x00000002   PAD
    0x08000698   0x08000698   0x00000002   Code   RO           24    .text.SensorAppTask  sensor_app.o
    0x0800069a   0x0800069a   0x00000002   PAD
    0x0800069c   0x0800069c   0x00000028   Code   RO           70    .text.SysTick_Handler  systick.o
    0x080006c4   0x080006c4   0x000001a8   Code   RO          449    .text.SystemInit    system_gd32f30x.o
    0x0800086c   0x0800086c   0x00000046   Code   RO           68    .text.SystickInit   systick.o
    0x080008b2   0x080008b2   0x00000002   PAD
    0x080008b4   0x080008b4   0x00000038   Code   RO            4    .text.TaskSchedule  main.o
    0x080008ec   0x080008ec   0x0000000c   Code   RO           66    .text.TaskScheduleCbReg  systick.o
    0x080008f8   0x080008f8   0x00000040   Code   RO           89    .text.USART0_IRQHandler  usb2com_drv.o
    0x08000938   0x08000938   0x00000084   Code   RO           83    .text.Usb2ComDrvInit  usb2com_drv.o
    0x080009bc   0x080009bc   0x00000110   Code   RO          103    .text.WriteEepromData  eeprom_drv.o
    0x08000acc   0x08000acc   0x00000024   Code   RO           85    .text.fputc         usb2com_drv.o
    0x08000af0   0x08000af0   0x00000004   Code   RO          133    .text.gpio_bit_reset  gd32f30x_gpio.o
    0x08000af4   0x08000af4   0x00000004   Code   RO          131    .text.gpio_bit_set  gd32f30x_gpio.o
    0x08000af8   0x08000af8   0x000000b6   Code   RO          129    .text.gpio_init     gd32f30x_gpio.o
    0x08000bae   0x08000bae   0x00000002   PAD
    0x08000bb0   0x08000bb0   0x0000000a   Code   RO          139    .text.gpio_input_bit_get  gd32f30x_gpio.o
    0x08000bba   0x08000bba   0x00000002   PAD
    0x08000bbc   0x08000bbc   0x00000050   Code   RO            2    .text.main          main.o
    0x08000c0c   0x08000c0c   0x000000a4   Code   RO          173    .text.nvic_irq_enable  gd32f30x_misc.o
    0x08000cb0   0x08000cb0   0x000000d0   Code   RO          311    .text.rcu_clock_freq_get  gd32f30x_rcu.o
    0x08000d80   0x08000d80   0x0000001e   Code   RO          249    .text.rcu_periph_clock_enable  gd32f30x_rcu.o
    0x08000d9e   0x08000d9e   0x00000002   PAD
    0x08000da0   0x08000da0   0x00000020   Code   RO          259    .text.rcu_periph_reset_disable  gd32f30x_rcu.o
    0x08000dc0   0x08000dc0   0x0000001e   Code   RO          257    .text.rcu_periph_reset_enable  gd32f30x_rcu.o
    0x08000dde   0x08000dde   0x00000002   PAD
    0x08000de0   0x08000de0   0x0000006a   Code   RO          334    .text.usart_baudrate_set  gd32f30x_usart.o
    0x08000e4a   0x08000e4a   0x00000002   PAD
    0x08000e4c   0x08000e4c   0x00000008   Code   RO          362    .text.usart_data_receive  gd32f30x_usart.o
    0x08000e54   0x08000e54   0x00000008   Code   RO          360    .text.usart_data_transmit  gd32f30x_usart.o
    0x08000e5c   0x08000e5c   0x0000007a   Code   RO          332    .text.usart_deinit  gd32f30x_usart.o
    0x08000ed6   0x08000ed6   0x00000002   PAD
    0x08000ed8   0x08000ed8   0x0000000a   Code   RO          342    .text.usart_enable  gd32f30x_usart.o
    0x08000ee2   0x08000ee2   0x00000002   PAD
    0x08000ee4   0x08000ee4   0x00000010   Code   RO          420    .text.usart_flag_get  gd32f30x_usart.o
    0x08000ef4   0x08000ef4   0x00000016   Code   RO          424    .text.usart_interrupt_enable  gd32f30x_usart.o
    0x08000f0a   0x08000f0a   0x00000002   PAD
    0x08000f0c   0x08000f0c   0x00000012   Code   RO          430    .text.usart_interrupt_flag_clear  gd32f30x_usart.o
    0x08000f1e   0x08000f1e   0x00000002   PAD
    0x08000f20   0x08000f20   0x00000022   Code   RO          428    .text.usart_interrupt_flag_get  gd32f30x_usart.o
    0x08000f42   0x08000f42   0x00000002   PAD
    0x08000f44   0x08000f44   0x00000010   Code   RO          336    .text.usart_parity_config  gd32f30x_usart.o
    0x08000f54   0x08000f54   0x00000014   Code   RO          348    .text.usart_receive_config  gd32f30x_usart.o
    0x08000f68   0x08000f68   0x00000010   Code   RO          340    .text.usart_stop_bit_set  gd32f30x_usart.o
    0x08000f78   0x08000f78   0x00000014   Code   RO          346    .text.usart_transmit_config  gd32f30x_usart.o
    0x08000f8c   0x08000f8c   0x00000010   Code   RO          338    .text.usart_word_length_set  gd32f30x_usart.o
    0x08000f9c   0x08000f9c   0x00000020   Code   RO          675    i.__0printf$8       mc_w.l(printf8.o)
    0x08000fbc   0x08000fbc   0x0000000e   Code   RO          780    i.__scatterload_copy  mc_w.l(handlers.o)
    0x08000fca   0x08000fca   0x00000002   Code   RO          781    i.__scatterload_null  mc_w.l(handlers.o)
    0x08000fcc   0x08000fcc   0x0000000e   Code   RO          782    i.__scatterload_zeroinit  mc_w.l(handlers.o)
    0x08000fda   0x08000fda   0x00000002   PAD
    0x08000fdc   0x08000fdc   0x00000410   Code   RO          682    i._printf_core      mc_w.l(printf8.o)
    0x080013ec   0x080013ec   0x00000024   Code   RO          683    i._printf_post_padding  mc_w.l(printf8.o)
    0x08001410   0x08001410   0x0000002e   Code   RO          684    i._printf_pre_padding  mc_w.l(printf8.o)
    0x0800143e   0x0800143e   0x00000002   PAD
    0x08001440   0x08001440   0x00000024   Code   RO          464    i.puts              mc_w.l(puts.o)
    0x08001464   0x08001464   0x00000008   Data   RO          323    .rodata.cst8        gd32f30x_rcu.o
    0x0800146c   0x0800146c   0x00000019   Data   RO          115    .rodata.str1.1      eeprom_drv.o
    0x08001485   0x08001485   0x00000003   PAD
    0x08001488   0x08001488   0x00000020   Data   RO          779    Region$$Table       anon$$obj.o


    Execution Region RW_IRAM1 (Exec base: 0x20000000, Load base: 0x080014a8, Size: 0x00000450, Max: 0x00010000, ABSOLUTE)

    Exec Addr    Load Addr    Size         Type   Attr      Idx    E Section Name        Object

    0x20000000   0x080014a8   0x00000004   Data   RW          743    .data               mc_w.l(stdout.o)
    0x20000004   0x080014ac   0x0000001c   Data   RW           91    .data.g_Usb2ComInfo  usb2com_drv.o
    0x20000020   0x080014c8   0x00000018   Data   RW            6    .data.g_taskComps   main.o
    0x20000038        -       0x00000001   Zero   RW          116    .bss.I2CWaitAck.errTimes  eeprom_drv.o
    0x20000039   0x080014e0   0x00000003   PAD
    0x2000003c        -       0x00000004   Zero   RW           74    .bss.g_pTaskScheduleFunc  systick.o
    0x20000040        -       0x00000008   Zero   RW           75    .bss.g_systemRunTime  systick.o
    0x20000048        -       0x00000004   Zero   RW           92    .bss.pProcUartData  usb2com_drv.o
    0x2000004c   0x080014e0   0x00000004   PAD
    0x20000050        -       0x00000400   Zero   RW          439    STACK               startup_gd32f30x_hd.o


==============================================================================

Image component sizes


      Code (inc. data)   RO Data    RW Data    ZI Data      Debug   Object Name

       100          0          0          0          0       2262   delay.o
      1278        140         25          0          1       4546   eeprom_drv.o
       200          0          0          0          0       5782   gd32f30x_gpio.o
       164          0          0          0          0       3546   gd32f30x_misc.o
       300         20          8          0          0      13868   gd32f30x_rcu.o
       432          0          0          0          0      11445   gd32f30x_usart.o
         2          0          0          0          0        357   hmi_app.o
       136          0          0         24          0       1434   main.o
         2          0          0          0          0        367   sensor_app.o
        36          8        304          0       1024        864   startup_gd32f30x_hd.o
       424          0          0          0          0       2508   system_gd32f30x.o
       122          0          0          0         12       4098   systick.o
       232          0          0         28          4       3967   usb2com_drv.o

    ----------------------------------------------------------------------
      3460        168        372         52       1048      55044   Object Totals
         0          0         32          0          0          0   (incl. Generated)
        32          0          3          0          7          0   (incl. Padding)

    ----------------------------------------------------------------------

      Code (inc. data)   RO Data    RW Data    ZI Data      Debug   Library Member Name

         0          0          0          0          0          0   entry.o
         0          0          0          0          0          0   entry10a.o
         0          0          0          0          0          0   entry11a.o
         8          4          0          0          0          0   entry2.o
         4          0          0          0          0          0   entry5.o
         0          0          0          0          0          0   entry7b.o
         0          0          0          0          0          0   entry8b.o
         8          4          0          0          0          0   entry9a.o
        30          0          0          0          0          0   handlers.o
        48         10          0          0          0         68   init.o
        30          0          0          0          0         68   llshl.o
        32          0          0          0          0         68   llushr.o
      1154         54          0          0          0        352   printf8.o
        36          6          0          0          0         80   puts.o
         0          0          0          4          0          0   stdout.o
        98          0          0          0          0         92   uldiv.o

    ----------------------------------------------------------------------
      1456         78          0          4          0        728   Library Totals
         8          0          0          0          0          0   (incl. Padding)

    ----------------------------------------------------------------------

      Code (inc. data)   RO Data    RW Data    ZI Data      Debug   Library Name

      1448         78          0          4          0        728   mc_w.l

    ----------------------------------------------------------------------
      1456         78          0          4          0        728   Library Totals

    ----------------------------------------------------------------------

==============================================================================


      Code (inc. data)   RO Data    RW Data    ZI Data      Debug   

      4916        246        372         56       1048      55444   Grand Totals
      4916        246        372         56       1048      55444   ELF Image Totals
      4916        246        372         56          0          0   ROM Totals

==============================================================================

    Total RO  Size (Code + RO Data)                 5288 (   5.16kB)
    Total RW  Size (RW Data + ZI Data)              1104 (   1.08kB)
    Total ROM Size (Code + RO Data + RW Data)       5344 (   5.22kB)

==============================================================================

