:020000040800F2
:1000000058400020450100084D0100084F0100083C
:1000100051010008530100085501000800000000CC
:100020000000000000000000000000005701000870
:1000300059010008000000005B0100085509000894
:100040005F0100085F0100085F0100085F01000810
:100050005F0100085F0100085F0100085F01000800
:100060005F0100085F0100085F0100085F010008F0
:100070005F0100085F0100085F0100085F010008E0
:100080005F0100085F0100085F0100085F010008D0
:100090005F0100085F0100085F0100085F010008C0
:1000A0005F0100085F0100085F0100085F010008B0
:1000B0005F0100085F0100085F0100085F010008A0
:1000C0005F0100085F0100085F0100085F01000890
:1000D0005F010008B10B00085F0100085F01000824
:1000E0005F0100085F0100085F0100085F01000870
:1000F0005F0100085F0100085F0100085F01000860
:100100005F0100085F0100085F0100085F0100084F
:100110005F0100085F0100085F0100085F0100083F
:100120005F0100085F0100085F0100085F0100082F
:10013000DFF80CD000F04AF800480047FD0D000839
:10014000584000200648804706480047FEE7FEE783
:10015000FEE7FEE7FEE7FEE7FEE7FEE7FEE7FEE777
:100160007D090008310100082DE9F05F05460020F7
:1001700092469B4688460646814640241BE0284618
:1001800041464746224600F048F853465A46C01AB0
:10019000914110D311461846224600F02FF82D1A2F
:1001A00067EB01084F4622460120002100F026F8A7
:1001B00017EB00094E41201EA4F10104DFDC484684
:1001C00031462A464346BDE8F09F00001CB5094869
:1001D0000090094801900546009C06E0E06840F068
:1001E000010394E8070098471034AC42F6D3FFF7B8
:1001F000A3FF000084170008A4170008202A04DBCE
:10020000203A00FA02F1002070479140C2F1200329
:1002100020FA03F3194390407047202A04DB203A68
:1002200021FA02F00021704721FA02F3D040C2F116
:100230002002914008431946704700004EF6FC50DA
:10024000CEF20000016821F080710160016841F088
:100250008071016041F20000CEF20000016821F0DF
:1002600001010160016841F001010160002141606C
:100270007047000070B543F60005C4F2000505F5AF
:1002800060442046042100F059FD00BF28460221A9
:1002900000F0F6FE0028F9D02846062100F0CAFE3C
:1002A00040F20406C2F200062846012100F0E8FEF2
:1002B00040B9306801383060F6D148F2A060C0F231
:1002C00001003060284600F0B1FE20460421BDE860
:1002D000704000F035BD00002DE9F04143F6000408
:1002E0000646C4F20004FFF7C5FF04F56045284642
:1002F000042100F023FD00BF2046022100F0C0FED3
:100300000028F9D048F2A06820462021C0F2010858
:1003100000F090FE40F20407C2F2000720460121DF
:1003200000F0AEFE28B9386801383860F6D1C7F859
:100330000080204600F07AFE2046022100F0A0FE58
:100340000028F9D02046002100F074FE204601214B
:1003500000F096FE28B9386801383860F6D1C7F841
:100360000080204600F062FE2046022100F088FE58
:100370000028F9D0B0B2010A204600F05BFE00BFB1
:100380002046012100F07CFE28B938680138386029
:10039000F6D1C7F80080204600F048FE2046022132
:1003A00000F06EFE0028F9D0F1B2204600F042FEC7
:1003B0002046012100F064FE28B938680138386011
:1003C000F6D1C7F80080204600F030FE2846042110
:1003D00000F0B6FCBDE8F04100F04CBC70470000F6
:1003E00070B588B040F2066000F0EAFD43F6000503
:1003F000C4F2000505F560442046102101220423C3
:1004000000F0A0FC40F2036000F0DAFD05F5544670
:100410003046182103224FF4204300F093FC30466D
:10042000482101224FF4804300F08CFC40F20E7012
:1004300000F0C6FD284600F0FFFD01AE304600F09A
:100440003FFE4FF48270019000204FF40071CDE91F
:100450000200CDE90410CDE906002846314600F03F
:1004600015FE284600F0DCFD2046042100F068FC63
:1004700008B070BD2DE9F04FADF5075D83B041F2D6
:100480006875C0F6000543F600042846C4F200046F
:1004900001F050F9B9A001F04DF9284601F04AF9F0
:1004A00004F560484046042100F048FC2046022143
:1004B00000F0E6FD0028F9D048F2A06920469F210F
:1004C000C0F2010900F0B6FD40F20405C2F20005D9
:1004D0002046012100F0D4FD28B9286801382860A1
:1004E000F6D1C5F80090204600F0A0FD204602217C
:1004F00000F0C6FD0028F9D02046FF2100F09AFD4B
:100500002046012100F0BCFD28B928680138286088
:10051000F6D1C5F80090204600F088FD064600BFE1
:100520002046022100F0ACFD0028F9D02046FF2132
:1005300000F080FD2046012100F0A2FD28B92868C6
:1005400001382860F6D1C5F80090204600F06EFD15
:10055000074600BF2046022100F092FD0028F9D096
:100560002046FF213F0200F065FD00BF204601212B
:1005700000F086FD28B9286801382860F6D1C5F852
:100580000090204600F052FDC0B2074340460421CF
:1005900000F0D6FBF1B2BAB280A000F079FE0DF106
:1005A0000B0E41F260774FF0FF300EF5875AC0F620
:1005B000000700BF461C811C50444170C9B2384638
:1005C00000F066FEB6F5875F3046F3D17BA001F000
:1005D000B1F80220FFF780FE4FF48050FFF77CFE59
:1005E0000220FE21524600F005F94FF4807700BF4B
:1005F0000AEB0700821E38464FF4807100F0FAF8CB
:1006000007F58077B7F5805FF2D10AEB0700821E0D
:100610004FF48050E32100F0EDF86BA001F08AF870
:100620004046042100F08AFB2046022100F028FD0C
:100630000028F9D02046032100F0FCFC20460121CF
:1006400000F01EFD28B9286801382860F6D1C5F8E9
:100650000090204600F0EAFC2046022100F010FD48
:100660000028F9D02046002100F0E4FC20460121BA
:1006700000F006FD28B9286801382860F6D1C5F8D1
:100680000090204600F0D2FC2046022100F0F8FC49
:100690000028F9D02046002100F0CCFC20460121A2
:1006A00000F0EEFC28B9286801382860F6D1C5F8BA
:1006B0000090204600F0BAFC2046022100F0E0FC49
:1006C0000028F9D02046022100F0B4FC2046012188
:1006D00000F0D6FC28B9286801382860F6D1C5F8A2
:1006E0000090204600F0A2FC00270DF10A0641F21E
:1006F000E10B07E0204600F099FCF05501375F451B
:1007000017D000BF2046022100F0BAFC0028F9D023
:100710002046FF2100F08EFC2046012100F0B0FCB5
:100720000028E7D1286801382860F5D1C5F8009085
:10073000E0E74046042100F003FB41F2607B002427
:10074000C0F6000B0FF28C080FF29C09375D1AF807
:1007500004505846394600F09BFDAF4205D1B4F530
:10076000875F04F10104F1D3C84640460DF5075DEB
:1007700003B0BDE8F04F00F0DDBF00BF2A2A2A2AEF
:100780002A2A2A2A47443235517878B2E2CAD4BF9D
:10079000AACABC2A2A2A2A2A2A2A2A004E6F726644
:1007A0006C617368204D49443A202523582C20441D
:1007B00049443A202523580A000000000ABFAACA6B
:1007C000BCD0B4C8EB000000BFAACABCB6C1C8A167
:1007D0002E2E2E00B2E2CAD4B9CAD5CFA3ACC7EB35
:1007E000C5C5B2E9A3A100000AB2E2CAD4CDA8B936
:1007F000FDA3A1002DE9F04F81B043F6000693461A
:100800008A460746C4F20006FFF734FD06F5604845
:100810004046042100F092FA3046022100F030FCFC
:100820000028F9D048F2A06930460221C0F201093F
:1008300000F000FC40F20405C2F200053046012140
:1008400000F01EFC28B9286801382860F6D1C5F8E8
:100850000090304600F0EAFB3046022100F010FC28
:100860000028F9D0C7F30741304600F0E3FB00BF92
:100870003046012100F004FC28B9286801382860BE
:10088000F6D1C5F80090304600F0D0FB304602218A
:1008900000F0F6FB0028F9D0B8B2010A304600F0AB
:1008A000C9FB00BF3046012100F0EAFB28B92868E7
:1008B00001382860F6D1C5F80090304600F0B6FB4C
:1008C0003046022100F0DCFB0028F9D0F9B23046B6
:1008D00000F0B0FB3046012100F0D2FB28B92868B7
:1008E00001382860F6D1C5F80090304600F09EFB34
:1008F000BAF1000F23D0002406E000BF304600F01C
:1009000095FB013454451AD09BF800703046022103
:1009100000F0B6FB0028F9D0304639460BF1010B48
:1009200000F088FB3046012100F0AAFB0028E5D149
:10093000286801382860F5D1C5F80090DEE7404608
:10094000042100F0FDF901B0BDE8F04F00F092B9CC
:100950007047000040F24800C2F20000D0E90012E7
:10096000013142F10002C0E9001240F24000C2F23F
:1009700000000068002808BF7047004781B04EF6AD
:100980008851CEF200010A6841F2040C42F4700270
:10099000C4F2020C0A605CF8041C41F001014CF83E
:1009A000041C00BF5CF8041C8907FBD5DCF80010B0
:1009B00041F08001CCF8001000210091009A4F2AEC
:1009C00006D800BF009A01320092009A502AF9D34B
:1009D000DCF8002042F09002CCF800200091009951
:1009E0004F2905D800990131009100995029F9D378
:1009F000DCF800104FF6FF7221F00301CCF8001074
:100A00005CF8041CCFF6F66211404CF8041C4FF45D
:100A10001F01CCF804105CF8041C21F480214CF870
:100A2000041C0021CCF80010CCF828105CF8042C31
:100A300042F480324CF8042C4FF6FE725CF8040C41
:100A4000013A41F10003800301D4002BF6D15CF898
:100A5000040C800301D400BFFEE7DCF8180047F265
:100A6000000140F08050C4F20001CCF81800086882
:100A70004FF6FF7240F440400860DCF80000CBF213
:100A8000C372CCF80000DCF80000CCF80000DCF801
:100A9000000040F48060CCF80000DCF8000020F496
:100AA0004030CCF80000DCF8000040F44030CCF8D6
:100AB0000000DCF800001040CCF80000DCF800007A
:100AC00040F0006040F45010CCF800005CF8040CDA
:100AD00040F080704CF8040C5CF8040C8001FBD5ED
:100AE000086840F4803008604868C003FCD5086896
:100AF00040F40030086000BF48688003FCD5DCF893
:100B0000000020F00300CCF80000DCF8000040F00A
:100B10000200CCF8000000BFDCF800000007FBD5A5
:100B200001B0704780B5012000F0E2F944F6D351DE
:100B3000C1F26201A0FB01014FF0FF3000EB911008
:100B4000B0F1807F10D24EF21001CEF20001486069
:100B50004EF62350CEF20000F02202700020886092
:100B60000720086080BD00BFFEE7000080B540F2AE
:100B7000240E0020C2F2000E4FF0010C04E000BF72
:100B80000C30182808BF80BD0EEB00035A88002ADD
:100B9000F6D0013A11045A80F2D199880EF800C0BB
:100BA0005980EDE740F24001C2F200010860704751
:100BB000B0B540F20805C2F2000540F205342868DD
:100BC000C0F20504214600F025FB002808BFB0BD97
:100BD0002868214600F014FB286800F0B1FA40F2C2
:100BE0005001C2F200010968C0B2BDE8B040084738
:100BF00010B540F20804C2F20004A08900F0E0F948
:100C0000A06823691821012200F09CF8A06863699C
:100C10004821012200F096F8A08800F0D1F9206860
:100C200000F096FA2068002100F02AFB20680021DD
:100C300000F002FB2068002100F010FB20684FF458
:100C4000E13100F047FA2068082100F00FFB20682E
:100C5000042100F0F9FA206840F2053100F0C4FAEE
:100C6000207E0021002200F0F1F82068BDE810404D
:100C700000F0ACBA2DE9F04143F60005C4F20005DE
:100C800005F560484046042100F058F82846022146
:100C900000F0F6F90028F9D048F2A06428460521B2
:100CA000C0F2010400F0C6F940F20407C2F20007E6
:100CB0002846012100F0E4F920B93868013838608D
:100CC000F6D13C60284600F0B1F9264608E02846F7
:100CD00000F0ACF9C00718BFB6F1010616D000BF8E
:100CE0002846022100F0CCF90028F9D02846FF213F
:100CF00000F0A0F92846012100F0C2F90028E6D151
:100D0000386801383860F5D13C60E0E7404604219E
:100D1000BDE8F04100F014B8B0B540F20805C2F2E9
:100D2000000504462868E1B200F00EFA28680721A1
:100D300000F052FA0028F9D02046B0BD416170475A
:100D4000016170472DE9F047CF0601F00F0C09D57E
:100D5000042A05D1C26B4CF0030C1A43C26301E0B4
:100D60004CEA020C00F1100E00F1140A00244FF0BE
:100D700001094FF00F0800270EE000BF166008FAC7
:100D800004F225EA02020CFA04F52A430260013754
:100D9000082F04F104040CD009FA07F212EA030642
:100DA000F5D0056828295246E8D04829E7D172468F
:100DB000E4E7082400254FF001094FF00F080FE089
:100DC000176008FA05F226EA02020CFA05F6324329
:100DD00042600134102C05F1040508BFBDE8F0871E
:100DE00009FA04F212EA0307F3D0466828295246AA
:100DF000E6D04829E5D17246E2E70000FFF71EFA87
:100E0000FFF790FEFFF7F4FEFFF7EAFA40F66D30C9
:100E1000C0F60000FFF7C6FEFFF72CFB40F22405EA
:100E20000024C2F20005002604E000BF701C861EEC
:100E300018BF064606EB460015F820100029F5D02D
:100E400005EB8000816804708847EFE74EF60C5C84
:100E5000CEF2000CDCF8003003F4E063B3F5E06F91
:100E600001D1042328E0DCF8003003F4E063B3F59B
:100E7000C06F01D103231FE0DCF8003003F4E0630E
:100E8000B3F5A06F17D0DCF8003003F4E063B3F5DE
:100E9000806F01D101230FE0DCF8003003F4E06340
:100EA000B3F5407F01D1002306E040F20053C0F2C9
:100EB000FA53CCF80030022301FA03FCC3F1040317
:100EC0000F21D94011404EF2001241EA0C01CEF23E
:100ED0000002090140EA020383F8001300F01F0139
:100EE000012303FA01F11C2303EAD000815070476B
:100EF00010B541F20404C4F20204216801F00C01AF
:100F0000082941F20021C0F27A012BD12368DB03CA
:100F100004D440F6001CC0F23D0C0DE0A36AD4F8E6
:100F200000C05B0046F60043C0F2DC2358BF0B460E
:100F3000CCF3404123FA01FC23682168C3F3834EBC
:100F4000102303EAD15123688E44202101EA536122
:100F500071440B463F2918BF01330F2938BF8B1C42
:100F600003FB0CF1236812A2C3F30313D35C2268C2
:100F700041F2587CC2F30222C0F6000C1CF802E0D9
:100F80002268032807D821FA03F3DFE800F00F02F4
:100F90000609184610BD002010BD23FA0EF010BD42
:100FA000C2F3C2201CF8000023FA00F1084610BD6D
:100FB0000000000000000000010203040607080909
:100FC00041F2000300F01F018009C4F202034FF058
:100FD000010CC2580CFA01F11143C15070470000D6
:100FE00041F2000300F01F018009C4F202034FF038
:100FF000010CC2580CFA01F122EA0101C1507047FC
:1010000041F2000300F01F018009C4F202034FF017
:10101000010CC2580CFA01F11143C1507047000095
:10102000016841F04001016070470000C06880B273
:1010300070470000C160704710B543F20001C4F270
:10104000010188420FD043F60041C4F200018842FA
:101050000CD043F60001C4F20001884218BF10BD55
:1010600040F20E4404E04FF4437401E040F20F44B8
:101070002046FFF7C5FF2046BDE81040FFF7B0BF90
:101080008068084018BF01207047000070B50268F2
:10109000D1E902E402F4415CD1E90032D1E904561D
:1010A00043EA0C031A4342EA0E02224389692A43A7
:1010B000324311430160C16921F40061C16170BD17
:1010C0000021C0E90011C0E90211C0E904118161E9
:1010D00070470000B0B5044644F6FF30C4F200008B
:1010E0000D4684424FF0000013DD44F60041C4F287
:1010F00000018C4219D045F20001C4F200018C427B
:1011000013D043F60001C4F201018C4210D1032038
:101110000CE044F20041C4F200018C4205D044F6D8
:101120000001C4F200018C4202D10220FFF7E0FE70
:1011300000EB5500B0FBF5F080B2A060B0BD000040
:1011400040686FF35F2070476FF35F214160704725
:1011500010B544F6FF31C4F20001884215DD44F6B3
:101160000041C4F2000188421ED045F20001C4F2E1
:10117000000188421BD043F60001C4F201018842FD
:1011800018BF10BD40F20E3416E044F20041C4F224
:10119000000188420ED044F60001C4F200018842EA
:1011A00012D140F2124407E040F2134404E040F24E
:1011B000144401E040F211442046FFF721FF20468D
:1011C000BDE81040FFF70CBF10BD0000C16841F43E
:1011D0000051C160704700008A09105801F01F01DA
:1011E000C84000F00100704701F01F0289094FF06C
:1011F000010C0B580CFA02F21A430A507047000017
:10120000C1F30442012303FA02F2D243890D0A50CA
:1012100070470000C1F3891252F800C08A0D1058BF
:1012200001F01F03C1F30441C8402CFA03F1084048
:1012300000F0010070470000C26822F4C062C26082
:10124000C2681143C1607047C26801F0040122F016
:101250000402C260C2681143C1607047026922F48F
:10126000405202610269114301617047C26801F096
:10127000080122F00802C260C2681143C1607047D1
:10128000C26822F48052C260C2681143C1607047D4
:101290000FB4054B10B503A9044A029800F018F8E2
:1012A00010BC5DF814FB0000190D000800000020C0
:1012B00002E008C8121F08C1002AFAD1704770471F
:1012C000002001E001C1121F002AFBD1704700007D
:1012D0002DE9FF4F8DB00F460546002606E0252874
:1012E0000BD0DDE90F1290476D1C761C2878002882
:1012F000F5D111B03046BDE8F08F0024A246A146DA
:101300000122EC4900E0044315F8013F203B02FABA
:1013100003F00842F7D128782A2810D06FF02F0266
:101320002878A0F13001092914D80AEB8A0102EBD0
:10133000410144F0020400EB010A6D1CF0E701CF0B
:101340005FEA000A03D544F40054CAF1000A44F0ED
:1013500002046D1C28782E2817D115F8010F44F0CF
:1013600004042A280ED06FF02F022878A0F1300153
:1013700009290AD809EB890102EB410100EB0109B7
:101380006D1CF2E757F8049B6D1C28786C280FD071
:1013900006DC4C2817D068280DD06A2814D104E048
:1013A000742810D07A280FD10DE044F400140AE01C
:1013B00044F4801401E044F440146978814202D17D
:1013C00004F580146D1C6D1C2A786E2A1FD00CDC6D
:1013D000632A31D004DC002A8BD0582A11D1A3E033
:1013E000642A68D0692A0CD165E0732A2ED004DC07
:1013F0006F2A73D0702A04D19BE0752A6FD0782AA7
:101400006ED01046DDE90F129047761C50E1C4F310
:101410000250022806D0032809D0042801CF09D0A1
:10142000066045E101CFF117C0E9006140E101CF5D
:1014300006803DE106703BE117F8040B8DF80000D3
:1014400000208DF80100EB46012003E057F804BBB3
:101450004FF0FF3061074FF0000102D40DE008F1BA
:101460000101884649450FDA8045F8DB1BF8081072
:101470000029F4D108E008F1010188468142FADB35
:101480001BF808100029F6D1DDE90F23AAEB0800AC
:101490008146214600F036F9304400EB080604E0AE
:1014A000DDE90F121BF8010B9047B8F10108F7D2E4
:1014B00021464846F7E00A21C4F302534FF0000BDF
:1014C0000891022B04D001CFC117032B09D00AE0E9
:1014D000FF1D27F00707F7E8020108E032E01FE0F0
:1014E00020E000B2C117042B01D140B2C117031E86
:1014F00071F1000307DA4FF0000CD0EB0C006CEB3D
:1015000001012D2302E0230504D52B238DF824307F
:10151000012303E0E30701D02023F7E7984658E0D2
:101520000A2110E010210EE010204FF0000B08906F
:101530000CE010214FF0000B44F004044FF00809B8
:10154000089103E008214FF0000B0891C4F3025307
:10155000022B04D001CF0021032B06D006E0FF1D93
:1015600027F00707F7E8020103E080B2042B00D15F
:10157000C0B24FF0000823072BD5702A07D0DDF842
:1015800020C08CF0100C5CEA0B0C05D00EE0402360
:101590008DF82430012308E050EA010306D03023FF
:1015A0008DF824308DF8252002239846DDF820C0E0
:1015B0008CF0080C5CEA0B0C0BD150EA010301D152
:1015C000630706D530238DF824304FF00108A9F1C8
:1015D0000109582A04D038A20B9208AA0A920BE0FB
:1015E0003AA2F9E75B46089AFEF7BEFD0B9B9B5CAF
:1015F0000A9A521E0A92137050EA0102F2D10A9816
:10160000ADEB000000F1200B600702D524F480341C
:1016100001E04FF00109D94502DDA9EB0B0000E024
:10162000002000EB0B0141440890AAEB010AE00303
:1016300006D4DDE90F232146504600F063F8064446
:101640004FF0000908E009A911F80900DDE90F12BF
:10165000904709F10109761CC145F4DBE0030CD584
:10166000DDE90F232146504600F04CF8064404E023
:10167000DDE90F1230209047761C0899481E08902B
:101680000029F5DC08E00A980A990078491C0A91BB
:10169000DDE90F129047761CBBF10001ABF1010BA5
:1016A000F1DC21465046DDE90F2300F019F806442D
:1016B0006D1C1BE6092801003031323334353637D2
:1016C000383961626364656600000000303132338E
:1016D000343536373839414243444546000000002E
:1016E0002DE9F041044600251E461746880404D41F
:1016F00005E039462020B0476D1C641EF9D5284608
:10170000BDE8F0812DE9F041044600251E469046D3
:10171000C80301D5302700E02027880404D505E060
:1017200041463846B0476D1C641EF9D52846BDE8D1
:10173000F081000010B5044601E0FFF7EDFA14F85F
:10174000010B04490028F8D1BDE810400A20FFF73A
:10175000E3BA0000000000200000000001020304C2
:1017600030782530325820002A2A2A2A2A2A2A2A82
:101770002A2A2A2A2A2A2A2A2A2A2A2A2A2A2A2AC9
:101780002A2A2A00A81700080000002040000000B4
:10179000B0120008E81700084000002018400000C0
:1017A000C01200080000000000000000A086010038
:1017B000003801400E06000000080140020600004B
:1017C0000002000000040000250000000000F401F9
:1017D000F4010000DD0300080000E803E803000056
:0817E00051090008000000009F
:0400000508000131BD
:00000001FF
