Component: Arm Compiler for Embedded 6.21 Tool: armlink [5ec1fa00]

==============================================================================

Section Cross References

    fatfs_app.o(.text.FatFsInit) refers to fatfs_app.o(.bss.g_fatfs) for g_fatfs
    fatfs_app.o(.text.FatFsInit) refers to fatfs_app.o(.rodata.str1.1) for .L.str
    fatfs_app.o(.text.FatFsInit) refers to ff.o(.text.f_mount) for f_mount
    fatfs_app.o(.text.FatFsInit) refers to ff.o(.text.f_mkfs) for f_mkfs
    fatfs_app.o(.text.FatFsInit) refers to printfa.o(i.__0printf) for __2printf
    fatfs_app.o(.text.FatFsInit) refers to fatfs_app.o(.bss.g_fatfsInitFlag) for g_fatfsInitFlag
    fatfs_app.o(.ARM.exidx.text.FatFsInit) refers to fatfs_app.o(.text.FatFsInit) for [Anonymous Symbol]
    fatfs_app.o(.text.FatfsTask) refers to fatfs_app.o(.bss.g_fatfsInitFlag) for g_fatfsInitFlag
    fatfs_app.o(.text.FatfsTask) refers to fatfs_app.o(.bss.g_sensorFile) for g_sensorFile
    fatfs_app.o(.text.FatfsTask) refers to fatfs_app.o(.rodata.str1.1) for .L.str.2
    fatfs_app.o(.text.FatfsTask) refers to ff.o(.text.f_open) for f_open
    fatfs_app.o(.text.FatfsTask) refers to printfa.o(i.__0printf) for __2printf
    fatfs_app.o(.text.FatfsTask) refers to rtc_drv.o(.text.GetRtcTime) for GetRtcTime
    fatfs_app.o(.text.FatfsTask) refers to sensor_drv.o(.text.GetSensorData) for GetSensorData
    fatfs_app.o(.text.FatfsTask) refers to f2d.o(.text) for __aeabi_f2d
    fatfs_app.o(.text.FatfsTask) refers to ff.o(.text.f_printf) for f_printf
    fatfs_app.o(.text.FatfsTask) refers to ff.o(.text.f_close) for f_close
    fatfs_app.o(.ARM.exidx.text.FatfsTask) refers to fatfs_app.o(.text.FatfsTask) for [Anonymous Symbol]
==============================================================================

Removing Unused input sections from the image.

    Removing fatfs_app.o(.text), (0 bytes).
    Removing fatfs_app.o(.ARM.exidx.text.FatFsInit), (8 bytes).
    Removing fatfs_app.o(.ARM.exidx.text.FatfsTask), (8 bytes).
    Removing fatfs_app.o(.ARM.exidx.text.PrintFileData), (8 bytes).
    Removing hmi_app.o(.text), (0 bytes).
    Removing hmi_app.o(.ARM.exidx.text.HmiTask), (8 bytes).
    Removing main.o(.text), (0 bytes).
    Removing main.o(.ARM.exidx.text.main), (8 bytes).
    Removing main.o(.ARM.exidx.text.TaskSchedule), (8 bytes).
    Removing main.o(.ARM.use_no_argv), (4 bytes).
    Removing sensor_app.o(.text), (0 bytes).
    Removing sensor_app.o(.ARM.exidx.text.SensorAppTask), (8 bytes).
    Removing modbus_app.o(.text), (0 bytes).
    Removing modbus_app.o(.text.ModbusAppInit), (48 bytes).
    Removing modbus_app.o(.ARM.exidx.text.ModbusAppInit), (8 bytes).
    Removing modbus_app.o(.text.WriteHoldingRegistersCb), (234 bytes).
    Removing modbus_app.o(.ARM.exidx.text.WriteHoldingRegistersCb), (8 bytes).
    Removing modbus_app.o(.text.ReadHoldingRegistersCb), (190 bytes).
==============================================================================

Image Symbol Table

    Local Symbols

    Symbol Name                              Value     Ov Type        Size  Object(Section)

    ../clib/division.s                       0x00000000   Number         0  aeabi_sdiv.o ABSOLUTE
    ../clib/microlib/division.c              0x00000000   Number         0  uldiv.o ABSOLUTE
    ../clib/microlib/division.c              0x00000000   Number         0  uidiv.o ABSOLUTE
    ../clib/microlib/init/entry.s            0x00000000   Number         0  entry.o ABSOLUTE
    ../clib/microlib/init/entry.s            0x00000000   Number         0  entry2.o ABSOLUTE
    ../clib/microlib/init/entry.s            0x00000000   Number         0  entry5.o ABSOLUTE
    ../clib/microlib/init/entry.s            0x00000000   Number         0  entry7a.o ABSOLUTE
    ../clib/microlib/init/entry.s            0x00000000   Number         0  entry7b.o ABSOLUTE
    ../clib/microlib/init/entry.s            0x00000000   Number         0  entry8a.o ABSOLUTE
    ../clib/microlib/init/entry.s            0x00000000   Number         0  entry8b.o ABSOLUTE
    ../clib/microlib/init/entry.s            0x00000000   Number         0  entry9a.o ABSOLUTE
    ../clib/microlib/init/entry.s            0x00000000   Number         0  entry9b.o ABSOLUTE
    ../clib/microlib/init/entry.s            0x00000000   Number         0  entry10a.o ABSOLUTE
    ../clib/microlib/init/entry.s            0x00000000   Number         0  entry10b.o ABSOLUTE
    ../clib/microlib/init/entry.s            0x00000000   Number         0  entry11a.o ABSOLUTE
    ../clib/microlib/init/entry.s            0x00000000   Number         0  entry11b.o ABSOLUTE
    ../clib/microlib/longlong.c              0x00000000   Number         0  llshl.o ABSOLUTE
    ../clib/microlib/longlong.c              0x00000000   Number         0  llushr.o ABSOLUTE
    ../clib/microlib/longlong.c              0x00000000   Number         0  llsshr.o ABSOLUTE
    ../clib/microlib/malloc/malloc.c         0x00000000   Number         0  malloc.o ABSOLUTE
    ../clib/microlib/malloc/malloc.c         0x00000000   Number         0  mallocr.o ABSOLUTE
    ../clib/microlib/malloc/malloc.c         0x00000000   Number         0  malloca.o ABSOLUTE
    ../clib/microlib/malloc/malloc.c         0x00000000   Number         0  mallocra.o ABSOLUTE
    ../clib/microlib/malloc/mvars.c          0x00000000   Number         0  mvars.o ABSOLUTE
    ../clib/microlib/printf/printf.c         0x00000000   Number         0  printfb.o ABSOLUTE
    ../clib/microlib/printf/printf.c         0x00000000   Number         0  printf0.o ABSOLUTE
    ../clib/microlib/printf/printf.c         0x00000000   Number         0  printf1.o ABSOLUTE
    ../clib/microlib/printf/printf.c         0x00000000   Number         0  printf2.o ABSOLUTE
    ../clib/microlib/printf/printf.c         0x00000000   Number         0  printf3.o ABSOLUTE
    ../clib/microlib/printf/printf.c         0x00000000   Number         0  printf4.o ABSOLUTE
    ../clib/microlib/printf/printf.c         0x00000000   Number         0  printf5.o ABSOLUTE
    ../clib/microlib/printf/printf.c         0x00000000   Number         0  printf6.o ABSOLUTE
    ../clib/microlib/printf/printf.c         0x00000000   Number         0  printf7.o ABSOLUTE
    ../clib/microlib/printf/printf.c         0x00000000   Number         0  printf8.o ABSOLUTE
    ../clib/microlib/printf/printf.c         0x00000000   Number         0  printfa.o ABSOLUTE
    ../clib/microlib/printf/stubs.s          0x00000000   Number         0  printfstubs.o ABSOLUTE
    ../clib/microlib/stdio/fputs.c           0x00000000   Number         0  fputs.o ABSOLUTE
    ../clib/microlib/stdio/fputs.c           0x00000000   Number         0  fputs_e.o ABSOLUTE
    ../clib/microlib/stdio/fwrite.c          0x00000000   Number         0  fwrite.o ABSOLUTE
    ../clib/microlib/stdio/fwrite.c          0x00000000   Number         0  fwrite_e.o ABSOLUTE
    ../clib/microlib/stdio/puts.c            0x00000000   Number         0  puts.o ABSOLUTE
    ../clib/microlib/stdio/puts.c            0x00000000   Number         0  puts_e.o ABSOLUTE
    ../clib/microlib/stdio/streams.c         0x00000000   Number         0  stderr.o ABSOLUTE
    ../clib/microlib/stdio/streams.c         0x00000000   Number         0  stdout.o ABSOLUTE
    ../clib/microlib/stdlib/qsort.c          0x00000000   Number         0  qsort.o ABSOLUTE
    ../clib/microlib/string/memchr.c         0x00000000   Number         0  memchr.o ABSOLUTE
    ../clib/microlib/string/memcmp.c         0x00000000   Number         0  memcmp.o ABSOLUTE
    ../clib/microlib/string/memcpy.c         0x00000000   Number         0  memcpya.o ABSOLUTE
    ../clib/microlib/string/memcpy.c         0x00000000   Number         0  memcpyb.o ABSOLUTE
    ../clib/microlib/string/memset.c         0x00000000   Number         0  memseta.o ABSOLUTE
    ../clib/microlib/string/strlen.c         0x00000000   Number         0  strlen.o ABSOLUTE
    ../clib/microlib/stubs.s                 0x00000000   Number         0  iusefp.o ABSOLUTE
    ../clib/microlib/time/localtime.c        0x00000000   Number         0  localtime.o ABSOLUTE
    ../clib/microlib/time/localtime.c        0x00000000   Number         0  localtime_w.o ABSOLUTE
    ../clib/microlib/time/localtime.c        0x00000000   Number         0  localtime_i.o ABSOLUTE
    ../clib/microlib/time/mktime.c           0x00000000   Number         0  mktime.o ABSOLUTE
    ../fplib/microlib/f2d.c                  0x00000000   Number         0  f2d.o ABSOLUTE
    ../fplib/microlib/fpadd.c                0x00000000   Number         0  dadd.o ABSOLUTE
    ../fplib/microlib/fpcmp.c                0x00000000   Number         0  dcmplt.o ABSOLUTE
    ../fplib/microlib/fpcmp.c                0x00000000   Number         0  dcmpge.o ABSOLUTE
    ../fplib/microlib/fpcmp.c                0x00000000   Number         0  dcmpeq.o ABSOLUTE
    ../fplib/microlib/fpdiv.c                0x00000000   Number         0  ddiv.o ABSOLUTE
    ../fplib/microlib/fpepilogue.c           0x00000000   Number         0  depilogue.o ABSOLUTE
    ../fplib/microlib/fpfix.c                0x00000000   Number         0  dfixi.o ABSOLUTE
    ../fplib/microlib/fpfix.c                0x00000000   Number         0  dfixul.o ABSOLUTE
    ../fplib/microlib/fpflt.c                0x00000000   Number         0  dflti.o ABSOLUTE
    ../fplib/microlib/fpmul.c                0x00000000   Number         0  dmul.o ABSOLUTE
    Arm_Kernel/startup_gd32f30x_hd.s         0x00000000   Number         0  startup_gd32f30x_hd.o ABSOLUTE
    cdrcmple.s                               0x00000000   Number         0  cdrcmple.o ABSOLUTE
    dc.s                                     0x00000000   Number         0  dc.o ABSOLUTE
    delay.c                                  0x00000000   Number         0  delay.o ABSOLUTE
    diskio.c                                 0x00000000   Number         0  diskio.o ABSOLUTE
    fatfs_app.c                              0x00000000   Number         0  fatfs_app.o ABSOLUTE
    ff.c                                     0x00000000   Number         0  ff.o ABSOLUTE
    ffsystem.c                               0x00000000   Number         0  ffsystem.o ABSOLUTE
    ffunicode.c                              0x00000000   Number         0  ffunicode.o ABSOLUTE
    gd32f30x_adc.c                           0x00000000   Number         0  gd32f30x_adc.o ABSOLUTE
    gd32f30x_bkp.c                           0x00000000   Number         0  gd32f30x_bkp.o ABSOLUTE
    gd32f30x_dma.c                           0x00000000   Number         0  gd32f30x_dma.o ABSOLUTE
    gd32f30x_gpio.c                          0x00000000   Number         0  gd32f30x_gpio.o ABSOLUTE
    gd32f30x_it.c                            0x00000000   Number         0  gd32f30x_it.o ABSOLUTE
    gd32f30x_misc.c                          0x00000000   Number         0  gd32f30x_misc.o ABSOLUTE
    gd32f30x_pmu.c                           0x00000000   Number         0  gd32f30x_pmu.o ABSOLUTE
    gd32f30x_rcu.c                           0x00000000   Number         0  gd32f30x_rcu.o ABSOLUTE
    gd32f30x_rtc.c                           0x00000000   Number         0  gd32f30x_rtc.o ABSOLUTE
    gd32f30x_sdio.c                          0x00000000   Number         0  gd32f30x_sdio.o ABSOLUTE
    gd32f30x_timer.c                         0x00000000   Number         0  gd32f30x_timer.o ABSOLUTE
    gd32f30x_usart.c                         0x00000000   Number         0  gd32f30x_usart.o ABSOLUTE
    handlers.s                               0x00000000   Number         0  handlers.o ABSOLUTE
    hmi_app.c                                0x00000000   Number         0  hmi_app.o ABSOLUTE
    init.s                                   0x00000000   Number         0  init.o ABSOLUTE
    key_drv.c                                0x00000000   Number         0  key_drv.o ABSOLUTE
    led_drv.c                                0x00000000   Number         0  led_drv.o ABSOLUTE
    main.c                                   0x00000000   Number         0  main.o ABSOLUTE
    mb.c                                     0x00000000   Number         0  mb.o ABSOLUTE
    mbcrc.c                                  0x00000000   Number         0  mbcrc.o ABSOLUTE
    mbfuncholding.c                          0x00000000   Number         0  mbfuncholding.o ABSOLUTE
    mbrtu.c                                  0x00000000   Number         0  mbrtu.o ABSOLUTE
    mbutils.c                                0x00000000   Number         0  mbutils.o ABSOLUTE
    modbus_app.c                             0x00000000   Number         0  modbus_app.o ABSOLUTE
    modbus_slave.c                           0x00000000   Number         0  modbus_slave.o ABSOLUTE
    norflash_drv.c                           0x00000000   Number         0  norflash_drv.o ABSOLUTE
    ntc_drv.c                                0x00000000   Number         0  ntc_drv.o ABSOLUTE
    portevent.c                              0x00000000   Number         0  portevent.o ABSOLUTE
    portserial.c                             0x00000000   Number         0  portserial.o ABSOLUTE
    porttimer.c                              0x00000000   Number         0  porttimer.o ABSOLUTE
    queue.c                                  0x00000000   Number         0  queue.o ABSOLUTE
    retarget_io.c                            0x00000000   Number         0  retarget_io.o ABSOLUTE
    rh_drv.c                                 0x00000000   Number         0  rh_drv.o ABSOLUTE
    rtc_drv.c                                0x00000000   Number         0  rtc_drv.o ABSOLUTE
    sdcard.c                                 0x00000000   Number         0  sdcard.o ABSOLUTE
    sensor_app.c                             0x00000000   Number         0  sensor_app.o ABSOLUTE
    sensor_drv.c                             0x00000000   Number         0  sensor_drv.o ABSOLUTE
    system_gd32f30x.c                        0x00000000   Number         0  system_gd32f30x.o ABSOLUTE
    systick.c                                0x00000000   Number         0  systick.o ABSOLUTE
    usb2com_drv.c                            0x00000000   Number         0  usb2com_drv.o ABSOLUTE
    RESET                                    0x08000000   Section      304  startup_gd32f30x_hd.o(RESET)
    .ARM.Collect$$$$00000000                 0x08000130   Section        0  entry.o(.ARM.Collect$$$$00000000)
    .ARM.Collect$$$$00000001                 0x08000130   Section        4  entry2.o(.ARM.Collect$$$$00000001)
    .ARM.Collect$$$$00000004                 0x08000134   Section        4  entry5.o(.ARM.Collect$$$$00000004)
    .ARM.Collect$$$$00000008                 0x08000138   Section        0  entry7b.o(.ARM.Collect$$$$00000008)
    .ARM.Collect$$$$0000000A                 0x08000138   Section        0  entry8b.o(.ARM.Collect$$$$0000000A)
    .ARM.Collect$$$$0000000B                 0x08000138   Section        8  entry9a.o(.ARM.Collect$$$$0000000B)
    __lit__00000000                          0x08000140   Data           4  entry2.o(.ARM.Collect$$$$00002712)
    .ARM.Collect$$$$0000000D                 0x08000140   Section        0  entry10a.o(.ARM.Collect$$$$0000000D)
    .ARM.Collect$$$$0000000F                 0x08000140   Section        0  entry11a.o(.ARM.Collect$$$$0000000F)
    .ARM.Collect$$$$00002712                 0x08000140   Section        4  entry2.o(.ARM.Collect$$$$00002712)
    $v0                                      0x08000144   Number         0  startup_gd32f30x_hd.o(.text)
    .text                                    0x08000144   Section       36  startup_gd32f30x_hd.o(.text)
    .text                                    0x08000168   Section        0  uldiv.o(.text)
    .text                                    0x080001ca   Section        0  qsort.o(.text)
    .text                                    0x08000266   Section        0  memcpya.o(.text)
    .text                                    0x0800028a   Section        0  memseta.o(.text)
    .text                                    0x080002ae   Section        0  strlen.o(.text)
    .text                                    0x080002bc   Section        0  memchr.o(.text)
    .text                                    0x080002d0   Section        0  memcmp.o(.text)
    .text                                    0x080002ea   Section        0  dadd.o(.text)
    .text                                    0x08000438   Section        0  dmul.o(.text)
    .text                                    0x0800051c   Section        0  ddiv.o(.text)
    .text                                    0x080005fa   Section        0  dcmplt.o(.text)
    .text                                    0x08000630   Section        0  dcmpge.o(.text)
    .text                                    0x08000666   Section        0  dcmpeq.o(.text)
    .text                                    0x0800069e   Section        0  dflti.o(.text)
    .text                                    0x080006c0   Section        0  dfixi.o(.text)
    .text                                    0x080006fe   Section        0  f2d.o(.text)
    .text                                    0x08000724   Section        0  uidiv.o(.text)
    .text                                    0x08000750   Section        0  llshl.o(.text)
    .text                                    0x0800076e   Section        0  llushr.o(.text)
    .text                                    0x0800078e   Section        0  llsshr.o(.text)
    .text                                    0x080007b4   Section        0  localtime_w.o(.text)
    .text                                    0x080007c0   Section        0  localtime_i.o(.text)
    .text                                    0x0800084c   Section        0  iusefp.o(.text)
    .text                                    0x0800084c   Section        0  depilogue.o(.text)
    .text                                    0x08000906   Section        0  dfixul.o(.text)
    .text                                    0x08000938   Section       48  cdrcmple.o(.text)
    .text                                    0x08000968   Section       48  init.o(.text)
    [Anonymous Symbol]                       0x08000998   Section        0  gd32f30x_it.o(.text.BusFault_Handler)
    Compare                                  0x0800099d   Thumb Code     8  ntc_drv.o(.text.Compare)
    [Anonymous Symbol]                       0x0800099c   Section        0  ntc_drv.o(.text.Compare)
    [Anonymous Symbol]                       0x080009a4   Section        0  gd32f30x_it.o(.text.DebugMon_Handler)
    [Anonymous Symbol]                       0x080009a8   Section        0  delay.o(.text.DelayNus)
    [Anonymous Symbol]                       0x080009d8   Section        0  delay.o(.text.DwtDelayInit)
    EnableNorflashWrite                      0x08000a11   Thumb Code   116  norflash_drv.o(.text.EnableNorflashWrite)
    [Anonymous Symbol]                       0x08000a10   Section        0  norflash_drv.o(.text.EnableNorflashWrite)
    EraseNorflashSector                      0x08000a85   Thumb Code   350  norflash_drv.o(.text.EraseNorflashSector)
    [Anonymous Symbol]                       0x08000a84   Section        0  norflash_drv.o(.text.EraseNorflashSector)
    [Anonymous Symbol]                       0x08000be4   Section        0  norflash_drv.o(.text.EraseNorflashSectorForWrite)
    [Anonymous Symbol]                       0x08000c24   Section        0  fatfs_app.o(.text.FatFsInit)
    [Anonymous Symbol]                       0x08000cc4   Section        0  fatfs_app.o(.text.FatfsTask)
    [Anonymous Symbol]                       0x08000da8   Section        0  rh_drv.o(.text.GetHumiData)
    [Anonymous Symbol]                       0x08000db4   Section        0  key_drv.o(.text.GetKeyValue)
    [Anonymous Symbol]                       0x08000e98   Section        0  rtc_drv.o(.text.GetRtcTime)
    [Anonymous Symbol]                       0x08000ed0   Section        0  sensor_drv.o(.text.GetSensorData)
    [Anonymous Symbol]                       0x08000ef0   Section        0  systick.o(.text.GetSystemRunTime)
    [Anonymous Symbol]                       0x08000f00   Section        0  ntc_drv.o(.text.GetTempData)
    [Anonymous Symbol]                       0x08000f10   Section        0  gd32f30x_it.o(.text.HardFault_Handler)
    [Anonymous Symbol]                       0x08000f14   Section        0  hmi_app.o(.text.HmiTask)
    [Anonymous Symbol]                       0x08001030   Section        0  rh_drv.o(.text.HumiDrvInit)
    [Anonymous Symbol]                       0x0800114c   Section        0  rh_drv.o(.text.HumiSensorProc)
    [Anonymous Symbol]                       0x0800124c   Section        0  key_drv.o(.text.KeyDrvInit)
    [Anonymous Symbol]                       0x08001278   Section        0  led_drv.o(.text.LedDrvInit)
    [Anonymous Symbol]                       0x080012b4   Section        0  gd32f30x_it.o(.text.MemManage_Handler)
    [Anonymous Symbol]                       0x080012b8   Section        0  gd32f30x_it.o(.text.NMI_Handler)
    [Anonymous Symbol]                       0x080012bc   Section        0  norflash_drv.o(.text.NorflashDrvInit)
    [Anonymous Symbol]                       0x08001318   Section        0  gd32f30x_it.o(.text.PendSV_Handler)
    [Anonymous Symbol]                       0x0800131c   Section        0  fatfs_app.o(.text.PrintFileData)
    ProgramNorflashDataPage                  0x080013e1   Thumb Code   454  norflash_drv.o(.text.ProgramNorflashDataPage)
    [Anonymous Symbol]                       0x080013e0   Section        0  norflash_drv.o(.text.ProgramNorflashDataPage)
    [Anonymous Symbol]                       0x080015a8   Section        0  norflash_drv.o(.text.ReadNorflashData)
    [Anonymous Symbol]                       0x08001774   Section        0  norflash_drv.o(.text.ReadNorflashID)
    [Anonymous Symbol]                       0x080018f4   Section        0  rtc_drv.o(.text.RtcDrvInit)
    [Anonymous Symbol]                       0x08001978   Section        0  gd32f30x_it.o(.text.SVC_Handler)
    [Anonymous Symbol]                       0x0800197c   Section        0  sensor_app.o(.text.SensorAppTask)
    [Anonymous Symbol]                       0x08001980   Section        0  sensor_drv.o(.text.SensorDrvInit)
    [Anonymous Symbol]                       0x08001990   Section        0  sensor_drv.o(.text.SensorDrvProc)
    [Anonymous Symbol]                       0x080019ac   Section        0  systick.o(.text.SysTick_Handler)
    [Anonymous Symbol]                       0x080019d4   Section        0  system_gd32f30x.o(.text.SystemInit)
    [Anonymous Symbol]                       0x08001b7c   Section        0  systick.o(.text.SystickInit)
    [Anonymous Symbol]                       0x08001bc4   Section        0  porttimer.o(.text.TIMER3_IRQHandler)
    [Anonymous Symbol]                       0x08001bfc   Section        0  rh_drv.o(.text.TIMER4_IRQHandler)
    TaskSchedule                             0x08001cb1   Thumb Code    56  main.o(.text.TaskSchedule)
    [Anonymous Symbol]                       0x08001cb0   Section        0  main.o(.text.TaskSchedule)
    [Anonymous Symbol]                       0x08001ce8   Section        0  systick.o(.text.TaskScheduleCbReg)
    [Anonymous Symbol]                       0x08001cf4   Section        0  ntc_drv.o(.text.TempDrvInit)
    [Anonymous Symbol]                       0x08001da4   Section        0  ntc_drv.o(.text.TempSensorProc)
    [Anonymous Symbol]                       0x08001edc   Section        0  led_drv.o(.text.TurnOffLed)
    [Anonymous Symbol]                       0x08001efc   Section        0  led_drv.o(.text.TurnOnLed)
    [Anonymous Symbol]                       0x08001f1c   Section        0  usb2com_drv.o(.text.USART0_IRQHandler)
    [Anonymous Symbol]                       0x08001f5c   Section        0  portserial.o(.text.USART1_IRQHandler)
    [Anonymous Symbol]                       0x08001fb8   Section        0  gd32f30x_it.o(.text.UsageFault_Handler)
    [Anonymous Symbol]                       0x08001fbc   Section        0  usb2com_drv.o(.text.Usb2ComDrvInit)
    WaitNorflashWriteEnd                     0x08002041   Thumb Code   214  norflash_drv.o(.text.WaitNorflashWriteEnd)
    [Anonymous Symbol]                       0x08002040   Section        0  norflash_drv.o(.text.WaitNorflashWriteEnd)
    [Anonymous Symbol]                       0x08002118   Section        0  norflash_drv.o(.text.WriteNorflashData)
    [Anonymous Symbol]                       0x08002184   Section        0  gd32f30x_adc.o(.text.adc_calibration_enable)
    [Anonymous Symbol]                       0x080021a4   Section        0  gd32f30x_adc.o(.text.adc_channel_length_config)
    [Anonymous Symbol]                       0x080021e0   Section        0  gd32f30x_adc.o(.text.adc_data_alignment_config)
    [Anonymous Symbol]                       0x080021f4   Section        0  gd32f30x_adc.o(.text.adc_deinit)
    [Anonymous Symbol]                       0x0800223c   Section        0  gd32f30x_adc.o(.text.adc_enable)
    [Anonymous Symbol]                       0x08002250   Section        0  gd32f30x_adc.o(.text.adc_external_trigger_config)
    [Anonymous Symbol]                       0x08002290   Section        0  gd32f30x_adc.o(.text.adc_external_trigger_source_config)
    [Anonymous Symbol]                       0x080022b4   Section        0  gd32f30x_adc.o(.text.adc_flag_clear)
    [Anonymous Symbol]                       0x080022bc   Section        0  gd32f30x_adc.o(.text.adc_flag_get)
    [Anonymous Symbol]                       0x080022c8   Section        0  gd32f30x_adc.o(.text.adc_mode_config)
    [Anonymous Symbol]                       0x080022e0   Section        0  gd32f30x_adc.o(.text.adc_oversample_mode_config)
    [Anonymous Symbol]                       0x08002310   Section        0  gd32f30x_adc.o(.text.adc_oversample_mode_enable)
    [Anonymous Symbol]                       0x08002320   Section        0  gd32f30x_adc.o(.text.adc_regular_channel_config)
    [Anonymous Symbol]                       0x08002394   Section        0  gd32f30x_adc.o(.text.adc_regular_data_read)
    [Anonymous Symbol]                       0x0800239c   Section        0  gd32f30x_adc.o(.text.adc_resolution_config)
    [Anonymous Symbol]                       0x080023b4   Section        0  gd32f30x_adc.o(.text.adc_software_trigger_enable)
    [Anonymous Symbol]                       0x080023d0   Section        0  gd32f30x_adc.o(.text.adc_special_function_config)
    [Anonymous Symbol]                       0x0800242c   Section        0  gd32f30x_bkp.o(.text.bkp_deinit)
    [Anonymous Symbol]                       0x0800243c   Section        0  gd32f30x_bkp.o(.text.bkp_read_data)
    [Anonymous Symbol]                       0x08002470   Section        0  gd32f30x_bkp.o(.text.bkp_write_data)
    check_fs                                 0x080024a5   Thumb Code   196  ff.o(.text.check_fs)
    [Anonymous Symbol]                       0x080024a4   Section        0  ff.o(.text.check_fs)
    create_chain                             0x08002575   Thumb Code   290  ff.o(.text.create_chain)
    [Anonymous Symbol]                       0x08002574   Section        0  ff.o(.text.create_chain)
    create_partition                         0x08002699   Thumb Code   396  ff.o(.text.create_partition)
    [Anonymous Symbol]                       0x08002698   Section        0  ff.o(.text.create_partition)
    dir_clear                                0x08002825   Thumb Code   148  ff.o(.text.dir_clear)
    [Anonymous Symbol]                       0x08002824   Section        0  ff.o(.text.dir_clear)
    dir_find                                 0x080028b9   Thumb Code   412  ff.o(.text.dir_find)
    [Anonymous Symbol]                       0x080028b8   Section        0  ff.o(.text.dir_find)
    dir_next                                 0x08002a55   Thumb Code   238  ff.o(.text.dir_next)
    [Anonymous Symbol]                       0x08002a54   Section        0  ff.o(.text.dir_next)
    dir_read                                 0x08002b45   Thumb Code   302  ff.o(.text.dir_read)
    [Anonymous Symbol]                       0x08002b44   Section        0  ff.o(.text.dir_read)
    dir_register                             0x08002c75   Thumb Code   740  ff.o(.text.dir_register)
    [Anonymous Symbol]                       0x08002c74   Section        0  ff.o(.text.dir_register)
    dir_sdi                                  0x08002f59   Thumb Code   170  ff.o(.text.dir_sdi)
    [Anonymous Symbol]                       0x08002f58   Section        0  ff.o(.text.dir_sdi)
    [Anonymous Symbol]                       0x08003004   Section        0  diskio.o(.text.disk_initialize)
    [Anonymous Symbol]                       0x08003040   Section        0  diskio.o(.text.disk_ioctl)
    [Anonymous Symbol]                       0x0800306c   Section        0  diskio.o(.text.disk_read)
    [Anonymous Symbol]                       0x08003088   Section        0  diskio.o(.text.disk_status)
    [Anonymous Symbol]                       0x080030c0   Section        0  diskio.o(.text.disk_write)
    [Anonymous Symbol]                       0x080030e8   Section        0  ff.o(.text.f_close)
    [Anonymous Symbol]                       0x08003128   Section        0  ff.o(.text.f_gets)
    [Anonymous Symbol]                       0x0800318c   Section        0  ff.o(.text.f_mkfs)
    f_mkfs.defopt                            0x0800384c   Number         0  ff.o(.text.f_mkfs)
    [Anonymous Symbol]                       0x08003884   Section        0  ff.o(.text.f_mount)
    [Anonymous Symbol]                       0x08003928   Section        0  ff.o(.text.f_open)
    [Anonymous Symbol]                       0x08003bd0   Section        0  ff.o(.text.f_printf)
    [Anonymous Symbol]                       0x08004a20   Section        0  ff.o(.text.f_read)
    [Anonymous Symbol]                       0x08004c28   Section        0  ff.o(.text.f_sync)
    [Anonymous Symbol]                       0x08004cf0   Section        0  ff.o(.text.f_unlink)
    [Anonymous Symbol]                       0x08004e3c   Section        0  ff.o(.text.f_write)
    [Anonymous Symbol]                       0x08005080   Section        0  ffunicode.o(.text.ff_oem2uni)
    [Anonymous Symbol]                       0x080050ac   Section        0  ffunicode.o(.text.ff_uni2oem)
    [Anonymous Symbol]                       0x080050ec   Section        0  ffunicode.o(.text.ff_wtoupper)
    find_volume                              0x0800519d   Thumb Code    82  ff.o(.text.find_volume)
    [Anonymous Symbol]                       0x0800519c   Section        0  ff.o(.text.find_volume)
    follow_path                              0x080051f1   Thumb Code   884  ff.o(.text.follow_path)
    [Anonymous Symbol]                       0x080051f0   Section        0  ff.o(.text.follow_path)
    [Anonymous Symbol]                       0x08005578   Section        0  usb2com_drv.o(.text.fputc)
    get_fat                                  0x0800559d   Thumb Code   256  ff.o(.text.get_fat)
    [Anonymous Symbol]                       0x0800559c   Section        0  ff.o(.text.get_fat)
    [Anonymous Symbol]                       0x0800569c   Section        0  diskio.o(.text.get_fattime)
    [Anonymous Symbol]                       0x080056d8   Section        0  gd32f30x_gpio.o(.text.gpio_bit_reset)
    [Anonymous Symbol]                       0x080056dc   Section        0  gd32f30x_gpio.o(.text.gpio_bit_set)
    [Anonymous Symbol]                       0x080056e0   Section        0  gd32f30x_gpio.o(.text.gpio_bit_write)
    [Anonymous Symbol]                       0x080056ec   Section        0  gd32f30x_gpio.o(.text.gpio_init)
    [Anonymous Symbol]                       0x080057a4   Section        0  gd32f30x_gpio.o(.text.gpio_input_bit_get)
    [Anonymous Symbol]                       0x080057b0   Section        0  gd32f30x_gpio.o(.text.gpio_output_bit_get)
    [Anonymous Symbol]                       0x080057bc   Section        0  main.o(.text.main)
    mount_volume                             0x0800581d   Thumb Code   726  ff.o(.text.mount_volume)
    [Anonymous Symbol]                       0x0800581c   Section        0  ff.o(.text.mount_volume)
    move_window                              0x08005af5   Thumb Code   138  ff.o(.text.move_window)
    [Anonymous Symbol]                       0x08005af4   Section        0  ff.o(.text.move_window)
    [Anonymous Symbol]                       0x08005b80   Section        0  gd32f30x_misc.o(.text.nvic_irq_enable)
    [Anonymous Symbol]                       0x08005c24   Section        0  gd32f30x_pmu.o(.text.pmu_backup_write_enable)
    put_fat                                  0x08005c39   Thumb Code   320  ff.o(.text.put_fat)
    [Anonymous Symbol]                       0x08005c38   Section        0  ff.o(.text.put_fat)
    [Anonymous Symbol]                       0x08005d78   Section        0  gd32f30x_rcu.o(.text.rcu_adc_clock_config)
    [Anonymous Symbol]                       0x08005dec   Section        0  gd32f30x_rcu.o(.text.rcu_bkp_reset_disable)
    [Anonymous Symbol]                       0x08005e00   Section        0  gd32f30x_rcu.o(.text.rcu_bkp_reset_enable)
    [Anonymous Symbol]                       0x08005e14   Section        0  gd32f30x_rcu.o(.text.rcu_clock_freq_get)
    [Anonymous Symbol]                       0x08005ee4   Section        0  gd32f30x_rcu.o(.text.rcu_osci_on)
    [Anonymous Symbol]                       0x08005f04   Section        0  gd32f30x_rcu.o(.text.rcu_osci_stab_wait)
    [Anonymous Symbol]                       0x08006040   Section        0  gd32f30x_rcu.o(.text.rcu_periph_clock_enable)
    [Anonymous Symbol]                       0x08006060   Section        0  gd32f30x_rcu.o(.text.rcu_periph_reset_disable)
    [Anonymous Symbol]                       0x08006080   Section        0  gd32f30x_rcu.o(.text.rcu_periph_reset_enable)
    [Anonymous Symbol]                       0x080060a0   Section        0  gd32f30x_rcu.o(.text.rcu_rtc_clock_config)
    [Anonymous Symbol]                       0x080060b4   Section        0  gd32f30x_rtc.o(.text.rtc_counter_get)
    [Anonymous Symbol]                       0x080060c8   Section        0  gd32f30x_rtc.o(.text.rtc_counter_set)
    [Anonymous Symbol]                       0x080060ec   Section        0  gd32f30x_rtc.o(.text.rtc_lwoff_wait)
    [Anonymous Symbol]                       0x080060fc   Section        0  gd32f30x_rtc.o(.text.rtc_prescaler_set)
    [Anonymous Symbol]                       0x08006120   Section        0  gd32f30x_rtc.o(.text.rtc_register_sync_wait)
    sync_fs                                  0x08006139   Thumb Code   188  ff.o(.text.sync_fs)
    [Anonymous Symbol]                       0x08006138   Section        0  ff.o(.text.sync_fs)
    [Anonymous Symbol]                       0x080061f4   Section        0  gd32f30x_timer.o(.text.timer_counter_value_config)
    [Anonymous Symbol]                       0x080061f8   Section        0  gd32f30x_timer.o(.text.timer_deinit)
    [Anonymous Symbol]                       0x080062bc   Section        0  gd32f30x_timer.o(.text.timer_enable)
    [Anonymous Symbol]                       0x080062c8   Section        0  gd32f30x_timer.o(.text.timer_init)
    [Anonymous Symbol]                       0x0800637c   Section        0  gd32f30x_timer.o(.text.timer_interrupt_enable)
    [Anonymous Symbol]                       0x08006384   Section        0  gd32f30x_timer.o(.text.timer_interrupt_flag_clear)
    [Anonymous Symbol]                       0x0800638c   Section        0  gd32f30x_timer.o(.text.timer_interrupt_flag_get)
    [Anonymous Symbol]                       0x080063a4   Section        0  gd32f30x_timer.o(.text.timer_struct_para_init)
    [Anonymous Symbol]                       0x080063b4   Section        0  gd32f30x_usart.o(.text.usart_baudrate_set)
    [Anonymous Symbol]                       0x08006420   Section        0  gd32f30x_usart.o(.text.usart_data_receive)
    [Anonymous Symbol]                       0x08006428   Section        0  gd32f30x_usart.o(.text.usart_data_transmit)
    [Anonymous Symbol]                       0x08006430   Section        0  gd32f30x_usart.o(.text.usart_deinit)
    [Anonymous Symbol]                       0x080064ac   Section        0  gd32f30x_usart.o(.text.usart_enable)
    [Anonymous Symbol]                       0x080064b8   Section        0  gd32f30x_usart.o(.text.usart_flag_get)
    [Anonymous Symbol]                       0x080064c8   Section        0  gd32f30x_usart.o(.text.usart_interrupt_enable)
    [Anonymous Symbol]                       0x080064e0   Section        0  gd32f30x_usart.o(.text.usart_interrupt_flag_clear)
    [Anonymous Symbol]                       0x080064f4   Section        0  gd32f30x_usart.o(.text.usart_interrupt_flag_get)
    [Anonymous Symbol]                       0x08006518   Section        0  gd32f30x_usart.o(.text.usart_parity_config)
    [Anonymous Symbol]                       0x08006528   Section        0  gd32f30x_usart.o(.text.usart_receive_config)
    [Anonymous Symbol]                       0x0800653c   Section        0  gd32f30x_usart.o(.text.usart_stop_bit_set)
    [Anonymous Symbol]                       0x0800654c   Section        0  gd32f30x_usart.o(.text.usart_transmit_config)
    [Anonymous Symbol]                       0x08006560   Section        0  gd32f30x_usart.o(.text.usart_word_length_set)
    i.__0printf                              0x08006570   Section        0  printfa.o(i.__0printf)
    i.__scatterload_copy                     0x08006590   Section       14  handlers.o(i.__scatterload_copy)
    i.__scatterload_null                     0x0800659e   Section        2  handlers.o(i.__scatterload_null)
    i.__scatterload_zeroinit                 0x080065a0   Section       14  handlers.o(i.__scatterload_zeroinit)
    _fp_digits                               0x080065b1   Thumb Code   366  printfa.o(i._fp_digits)
    i._fp_digits                             0x080065b0   Section        0  printfa.o(i._fp_digits)
    _printf_core                             0x08006735   Thumb Code  1744  printfa.o(i._printf_core)
    i._printf_core                           0x08006734   Section        0  printfa.o(i._printf_core)
    _printf_post_padding                     0x08006e11   Thumb Code    36  printfa.o(i._printf_post_padding)
    i._printf_post_padding                   0x08006e10   Section        0  printfa.o(i._printf_post_padding)
    _printf_pre_padding                      0x08006e35   Thumb Code    46  printfa.o(i._printf_pre_padding)
    i._printf_pre_padding                    0x08006e34   Section        0  printfa.o(i._printf_pre_padding)
    monlen                                   0x08006e62   Data          12  localtime_i.o(.constdata)
    .constdata                               0x08006e62   Section       12  localtime_i.o(.constdata)
    ExCvt                                    0x08006e6e   Data         128  ff.o(.rodata.ExCvt)
    [Anonymous Symbol]                       0x08006e6e   Section        0  ff.o(.rodata.ExCvt)
    LfnOfs                                   0x08006eee   Data          13  ff.o(.rodata.LfnOfs)
    [Anonymous Symbol]                       0x08006eee   Section        0  ff.o(.rodata.LfnOfs)
    .L__const.rcu_clock_freq_get.apb2_exp    0x08006efb   Data           8  gd32f30x_rcu.o(.rodata.cst8)
    g_GpioList                               0x08006f04   Data          48  key_drv.o(.rodata.g_GpioList)
    [Anonymous Symbol]                       0x08006f04   Section        0  key_drv.o(.rodata.g_GpioList)
    g_ledList                                0x08006f34   Data          36  led_drv.o(.rodata.g_ledList)
    [Anonymous Symbol]                       0x08006f34   Section        0  led_drv.o(.rodata.g_ledList)
    g_ntcAdcTable                            0x08006f58   Data         200  ntc_drv.o(.rodata.g_ntcAdcTable)
    [Anonymous Symbol]                       0x08006f58   Section        0  ntc_drv.o(.rodata.g_ntcAdcTable)
    g_rhAdcTable                             0x08007020   Data         468  rh_drv.o(.rodata.g_rhAdcTable)
    [Anonymous Symbol]                       0x08007020   Section        0  rh_drv.o(.rodata.g_rhAdcTable)
    .L.str.4                                 0x080071f4   Data          80  fatfs_app.o(.rodata.str1.1)
    [Anonymous Symbol]                       0x080071f4   Section        0  fatfs_app.o(.rodata.str1.1)
    .L.str.3                                 0x08007244   Data          29  fatfs_app.o(.rodata.str1.1)
    .L.str.6                                 0x08007261   Data          27  fatfs_app.o(.rodata.str1.1)
    .L.str                                   0x0800727c   Data           3  fatfs_app.o(.rodata.str1.1)
    .L.str.2                                 0x0800727f   Data          17  fatfs_app.o(.rodata.str1.1)
    .L.str.8                                 0x08007290   Data           3  ff.o(.rodata.str1.1)
    [Anonymous Symbol]                       0x08007290   Section        0  ff.o(.rodata.str1.1)
    f_mkfs.cst                               0x08007294   Data          14  ff.o(.rodata.str2.2)
    [Anonymous Symbol]                       0x08007294   Section        0  ff.o(.rodata.str2.2)
    f_mkfs.cst32                             0x080072a2   Data          14  ff.o(.rodata.str2.2)
    ff_wtoupper.cvt2                         0x080072b0   Data         188  ffunicode.o(.rodata.str2.2)
    [Anonymous Symbol]                       0x080072b0   Section        0  ffunicode.o(.rodata.str2.2)
    ff_wtoupper.cvt1                         0x0800736c   Data         498  ffunicode.o(.rodata.str2.2)
    uc437                                    0x0800755e   Data         256  ffunicode.o(.rodata.uc437)
    [Anonymous Symbol]                       0x0800755e   Section        0  ffunicode.o(.rodata.uc437)
    .data                                    0x20000000   Section        4  stdout.o(.data)
    g_taskComps                              0x20000020   Data          36  main.o(.data.g_taskComps)
    [Anonymous Symbol]                       0x20000020   Section        0  main.o(.data.g_taskComps)
    _tms                                     0x20000048   Data          44  localtime_w.o(.bss)
    .bss                                     0x20000048   Section       44  localtime_w.o(.bss)
    FatFs                                    0x20000074   Data          16  ff.o(.bss.FatFs)
    [Anonymous Symbol]                       0x20000074   Section        0  ff.o(.bss.FatFs)
    Fsid                                     0x20000084   Data           2  ff.o(.bss.Fsid)
    [Anonymous Symbol]                       0x20000084   Section        0  ff.o(.bss.Fsid)
    LfnBuf                                   0x20000086   Data         512  ff.o(.bss.LfnBuf)
    [Anonymous Symbol]                       0x20000086   Section        0  ff.o(.bss.LfnBuf)
    PushTemp10MulToBuf.s_index               0x20000286   Data           1  ntc_drv.o(.bss.PushTemp10MulToBuf.s_index)
    [Anonymous Symbol]                       0x20000286   Section        0  ntc_drv.o(.bss.PushTemp10MulToBuf.s_index)
    TIMER4_IRQHandler.s_timingNum            0x20000288   Data           2  rh_drv.o(.bss.TIMER4_IRQHandler.s_timingNum)
    [Anonymous Symbol]                       0x20000288   Section        0  rh_drv.o(.bss.TIMER4_IRQHandler.s_timingNum)
    TempSensorProc.s_convertNum              0x2000028a   Data           1  ntc_drv.o(.bss.TempSensorProc.s_convertNum)
    [Anonymous Symbol]                       0x2000028a   Section        0  ntc_drv.o(.bss.TempSensorProc.s_convertNum)
    g_adcVal                                 0x2000028c   Data           2  rh_drv.o(.bss.g_adcVal)
    [Anonymous Symbol]                       0x2000028c   Section        0  rh_drv.o(.bss.g_adcVal)
    g_fatfs                                  0x20000290   Data        4152  fatfs_app.o(.bss.g_fatfs)
    [Anonymous Symbol]                       0x20000290   Section        0  fatfs_app.o(.bss.g_fatfs)
    g_fatfsInitFlag                          0x200012c8   Data           1  fatfs_app.o(.bss.g_fatfsInitFlag)
    [Anonymous Symbol]                       0x200012c8   Section        0  fatfs_app.o(.bss.g_fatfsInitFlag)
    g_humiData                               0x200012c9   Data           1  rh_drv.o(.bss.g_humiData)
    [Anonymous Symbol]                       0x200012c9   Section        0  rh_drv.o(.bss.g_humiData)
    g_keyInfoList                            0x200012d0   Data          64  key_drv.o(.bss.g_keyInfoList)
    [Anonymous Symbol]                       0x200012d0   Section        0  key_drv.o(.bss.g_keyInfoList)
    g_pProcUartData                          0x20001310   Data           4  usb2com_drv.o(.bss.g_pProcUartData)
    [Anonymous Symbol]                       0x20001310   Section        0  usb2com_drv.o(.bss.g_pProcUartData)
    g_pTaskScheduleFunc                      0x20001314   Data           4  systick.o(.bss.g_pTaskScheduleFunc)
    [Anonymous Symbol]                       0x20001314   Section        0  systick.o(.bss.g_pTaskScheduleFunc)
    g_sensorFile                             0x20001318   Data        4140  fatfs_app.o(.bss.g_sensorFile)
    [Anonymous Symbol]                       0x20001318   Section        0  fatfs_app.o(.bss.g_sensorFile)
    g_systemRunTime                          0x20002348   Data           8  systick.o(.bss.g_systemRunTime)
    [Anonymous Symbol]                       0x20002348   Section        0  systick.o(.bss.g_systemRunTime)
    g_temp                                   0x20002350   Data           4  ntc_drv.o(.bss.g_temp)
    [Anonymous Symbol]                       0x20002350   Section        0  ntc_drv.o(.bss.g_temp)
    g_temp10MulBuf                           0x20002354   Data          40  ntc_drv.o(.bss.g_temp10MulBuf)
    [Anonymous Symbol]                       0x20002354   Section        0  ntc_drv.o(.bss.g_temp10MulBuf)
    STACK                                    0x20002388   Section    16384  startup_gd32f30x_hd.o(STACK)

    Global Symbols

    Symbol Name                              Value     Ov Type        Size  Object(Section)

    BuildAttributes$$THM_ISAv4$E$P$D$K$B$S$7EM$VFPi3$EXTD16$VFPS$VFMA$PE$A:L22UL41UL21$X:L11$S22US41US21$IEEE1$IW$~IW$USESV6$~STKCKD$USESV7$~SHL$OTIME$ROPI$EBA8$MICROLIB$REQ8$PRES8$EABIv2 0x00000000   Number         0  anon$$obj.o ABSOLUTE
    _printf_a                                0x00000000   Number         0  printfstubs.o ABSOLUTE
    _printf_c                                0x00000000   Number         0  printfstubs.o ABSOLUTE
    _printf_charcount                        0x00000000   Number         0  printfstubs.o ABSOLUTE
    _printf_d                                0x00000000   Number         0  printfstubs.o ABSOLUTE
    _printf_e                                0x00000000   Number         0  printfstubs.o ABSOLUTE
    _printf_f                                0x00000000   Number         0  printfstubs.o ABSOLUTE
    _printf_flags                            0x00000000   Number         0  printfstubs.o ABSOLUTE
    _printf_fp_dec                           0x00000000   Number         0  printfstubs.o ABSOLUTE
    _printf_fp_hex                           0x00000000   Number         0  printfstubs.o ABSOLUTE
    _printf_g                                0x00000000   Number         0  printfstubs.o ABSOLUTE
    _printf_i                                0x00000000   Number         0  printfstubs.o ABSOLUTE
    _printf_int_dec                          0x00000000   Number         0  printfstubs.o ABSOLUTE
    _printf_l                                0x00000000   Number         0  printfstubs.o ABSOLUTE
    _printf_lc                               0x00000000   Number         0  printfstubs.o ABSOLUTE
    _printf_ll                               0x00000000   Number         0  printfstubs.o ABSOLUTE
    _printf_lld                              0x00000000   Number         0  printfstubs.o ABSOLUTE
    _printf_lli                              0x00000000   Number         0  printfstubs.o ABSOLUTE
    _printf_llo                              0x00000000   Number         0  printfstubs.o ABSOLUTE
    _printf_llu                              0x00000000   Number         0  printfstubs.o ABSOLUTE
    _printf_llx                              0x00000000   Number         0  printfstubs.o ABSOLUTE
    _printf_longlong_dec                     0x00000000   Number         0  printfstubs.o ABSOLUTE
    _printf_longlong_hex                     0x00000000   Number         0  printfstubs.o ABSOLUTE
    _printf_longlong_oct                     0x00000000   Number         0  printfstubs.o ABSOLUTE
    _printf_ls                               0x00000000   Number         0  printfstubs.o ABSOLUTE
    _printf_mbtowc                           0x00000000   Number         0  printfstubs.o ABSOLUTE
    _printf_n                                0x00000000   Number         0  printfstubs.o ABSOLUTE
    _printf_o                                0x00000000   Number         0  printfstubs.o ABSOLUTE
    _printf_p                                0x00000000   Number         0  printfstubs.o ABSOLUTE
    _printf_percent                          0x00000000   Number         0  printfstubs.o ABSOLUTE
    _printf_pre_padding                      0x00000000   Number         0  printfstubs.o ABSOLUTE
    _printf_return_value                     0x00000000   Number         0  printfstubs.o ABSOLUTE
    _printf_s                                0x00000000   Number         0  printfstubs.o ABSOLUTE
    _printf_sizespec                         0x00000000   Number         0  printfstubs.o ABSOLUTE
    _printf_str                              0x00000000   Number         0  printfstubs.o ABSOLUTE
    _printf_truncate_signed                  0x00000000   Number         0  printfstubs.o ABSOLUTE
    _printf_truncate_unsigned                0x00000000   Number         0  printfstubs.o ABSOLUTE
    _printf_u                                0x00000000   Number         0  printfstubs.o ABSOLUTE
    _printf_wc                               0x00000000   Number         0  printfstubs.o ABSOLUTE
    _printf_wctomb                           0x00000000   Number         0  printfstubs.o ABSOLUTE
    _printf_widthprec                        0x00000000   Number         0  printfstubs.o ABSOLUTE
    _printf_x                                0x00000000   Number         0  printfstubs.o ABSOLUTE
    __cpp_initialize__aeabi_                  - Undefined Weak Reference
    __cxa_finalize                            - Undefined Weak Reference
    __decompress                              - Undefined Weak Reference
    _clock_init                               - Undefined Weak Reference
    _microlib_exit                            - Undefined Weak Reference
    __Vectors_Size                           0x00000130   Number         0  startup_gd32f30x_hd.o ABSOLUTE
    __Vectors                                0x08000000   Data           4  startup_gd32f30x_hd.o(RESET)
    __Vectors_End                            0x08000130   Data           0  startup_gd32f30x_hd.o(RESET)
    __main                                   0x08000131   Thumb Code     0  entry.o(.ARM.Collect$$$$00000000)
    _main_stk                                0x08000131   Thumb Code     0  entry2.o(.ARM.Collect$$$$00000001)
    _main_scatterload                        0x08000135   Thumb Code     0  entry5.o(.ARM.Collect$$$$00000004)
    __main_after_scatterload                 0x08000139   Thumb Code     0  entry5.o(.ARM.Collect$$$$00000004)
    _main_clock                              0x08000139   Thumb Code     0  entry7b.o(.ARM.Collect$$$$00000008)
    _main_cpp_init                           0x08000139   Thumb Code     0  entry8b.o(.ARM.Collect$$$$0000000A)
    _main_init                               0x08000139   Thumb Code     0  entry9a.o(.ARM.Collect$$$$0000000B)
    __rt_final_cpp                           0x08000141   Thumb Code     0  entry10a.o(.ARM.Collect$$$$0000000D)
    __rt_final_exit                          0x08000141   Thumb Code     0  entry11a.o(.ARM.Collect$$$$0000000F)
    Reset_Handler                            0x08000145   Thumb Code     8  startup_gd32f30x_hd.o(.text)
    ADC0_1_IRQHandler                        0x0800015f   Thumb Code     0  startup_gd32f30x_hd.o(.text)
    ADC2_IRQHandler                          0x0800015f   Thumb Code     0  startup_gd32f30x_hd.o(.text)
    CAN0_EWMC_IRQHandler                     0x0800015f   Thumb Code     0  startup_gd32f30x_hd.o(.text)
    CAN0_RX1_IRQHandler                      0x0800015f   Thumb Code     0  startup_gd32f30x_hd.o(.text)
    DMA0_Channel0_IRQHandler                 0x0800015f   Thumb Code     0  startup_gd32f30x_hd.o(.text)
    DMA0_Channel1_IRQHandler                 0x0800015f   Thumb Code     0  startup_gd32f30x_hd.o(.text)
    DMA0_Channel2_IRQHandler                 0x0800015f   Thumb Code     0  startup_gd32f30x_hd.o(.text)
    DMA0_Channel3_IRQHandler                 0x0800015f   Thumb Code     0  startup_gd32f30x_hd.o(.text)
    DMA0_Channel4_IRQHandler                 0x0800015f   Thumb Code     0  startup_gd32f30x_hd.o(.text)
    DMA0_Channel5_IRQHandler                 0x0800015f   Thumb Code     0  startup_gd32f30x_hd.o(.text)
    DMA0_Channel6_IRQHandler                 0x0800015f   Thumb Code     0  startup_gd32f30x_hd.o(.text)
    DMA1_Channel0_IRQHandler                 0x0800015f   Thumb Code     0  startup_gd32f30x_hd.o(.text)
    DMA1_Channel1_IRQHandler                 0x0800015f   Thumb Code     0  startup_gd32f30x_hd.o(.text)
    DMA1_Channel2_IRQHandler                 0x0800015f   Thumb Code     0  startup_gd32f30x_hd.o(.text)
    DMA1_Channel3_4_IRQHandler               0x0800015f   Thumb Code     0  startup_gd32f30x_hd.o(.text)
    EXMC_IRQHandler                          0x0800015f   Thumb Code     0  startup_gd32f30x_hd.o(.text)
    EXTI0_IRQHandler                         0x0800015f   Thumb Code     0  startup_gd32f30x_hd.o(.text)
    EXTI10_15_IRQHandler                     0x0800015f   Thumb Code     0  startup_gd32f30x_hd.o(.text)
    EXTI1_IRQHandler                         0x0800015f   Thumb Code     0  startup_gd32f30x_hd.o(.text)
    EXTI2_IRQHandler                         0x0800015f   Thumb Code     0  startup_gd32f30x_hd.o(.text)
    EXTI3_IRQHandler                         0x0800015f   Thumb Code     0  startup_gd32f30x_hd.o(.text)
    EXTI4_IRQHandler                         0x0800015f   Thumb Code     0  startup_gd32f30x_hd.o(.text)
    EXTI5_9_IRQHandler                       0x0800015f   Thumb Code     0  startup_gd32f30x_hd.o(.text)
    FMC_IRQHandler                           0x0800015f   Thumb Code     0  startup_gd32f30x_hd.o(.text)
    I2C0_ER_IRQHandler                       0x0800015f   Thumb Code     0  startup_gd32f30x_hd.o(.text)
    I2C0_EV_IRQHandler                       0x0800015f   Thumb Code     0  startup_gd32f30x_hd.o(.text)
    I2C1_ER_IRQHandler                       0x0800015f   Thumb Code     0  startup_gd32f30x_hd.o(.text)
    I2C1_EV_IRQHandler                       0x0800015f   Thumb Code     0  startup_gd32f30x_hd.o(.text)
    LVD_IRQHandler                           0x0800015f   Thumb Code     0  startup_gd32f30x_hd.o(.text)
    RCU_CTC_IRQHandler                       0x0800015f   Thumb Code     0  startup_gd32f30x_hd.o(.text)
    RTC_Alarm_IRQHandler                     0x0800015f   Thumb Code     0  startup_gd32f30x_hd.o(.text)
    RTC_IRQHandler                           0x0800015f   Thumb Code     0  startup_gd32f30x_hd.o(.text)
    SDIO_IRQHandler                          0x0800015f   Thumb Code     0  startup_gd32f30x_hd.o(.text)
    SPI0_IRQHandler                          0x0800015f   Thumb Code     0  startup_gd32f30x_hd.o(.text)
    SPI1_IRQHandler                          0x0800015f   Thumb Code     0  startup_gd32f30x_hd.o(.text)
    SPI2_IRQHandler                          0x0800015f   Thumb Code     0  startup_gd32f30x_hd.o(.text)
    TAMPER_IRQHandler                        0x0800015f   Thumb Code     0  startup_gd32f30x_hd.o(.text)
    TIMER0_BRK_IRQHandler                    0x0800015f   Thumb Code     0  startup_gd32f30x_hd.o(.text)
    TIMER0_Channel_IRQHandler                0x0800015f   Thumb Code     0  startup_gd32f30x_hd.o(.text)
    TIMER0_TRG_CMT_IRQHandler                0x0800015f   Thumb Code     0  startup_gd32f30x_hd.o(.text)
    TIMER0_UP_IRQHandler                     0x0800015f   Thumb Code     0  startup_gd32f30x_hd.o(.text)
    TIMER1_IRQHandler                        0x0800015f   Thumb Code     0  startup_gd32f30x_hd.o(.text)
    TIMER2_IRQHandler                        0x0800015f   Thumb Code     0  startup_gd32f30x_hd.o(.text)
    TIMER5_IRQHandler                        0x0800015f   Thumb Code     0  startup_gd32f30x_hd.o(.text)
    TIMER6_IRQHandler                        0x0800015f   Thumb Code     0  startup_gd32f30x_hd.o(.text)
    TIMER7_BRK_IRQHandler                    0x0800015f   Thumb Code     0  startup_gd32f30x_hd.o(.text)
    TIMER7_Channel_IRQHandler                0x0800015f   Thumb Code     0  startup_gd32f30x_hd.o(.text)
    TIMER7_TRG_CMT_IRQHandler                0x0800015f   Thumb Code     0  startup_gd32f30x_hd.o(.text)
    TIMER7_UP_IRQHandler                     0x0800015f   Thumb Code     0  startup_gd32f30x_hd.o(.text)
    UART3_IRQHandler                         0x0800015f   Thumb Code     0  startup_gd32f30x_hd.o(.text)
    UART4_IRQHandler                         0x0800015f   Thumb Code     0  startup_gd32f30x_hd.o(.text)
    USART2_IRQHandler                        0x0800015f   Thumb Code     0  startup_gd32f30x_hd.o(.text)
    USBD_HP_CAN0_TX_IRQHandler               0x0800015f   Thumb Code     0  startup_gd32f30x_hd.o(.text)
    USBD_LP_CAN0_RX0_IRQHandler              0x0800015f   Thumb Code     0  startup_gd32f30x_hd.o(.text)
    USBD_WKUP_IRQHandler                     0x0800015f   Thumb Code     0  startup_gd32f30x_hd.o(.text)
    WWDGT_IRQHandler                         0x0800015f   Thumb Code     0  startup_gd32f30x_hd.o(.text)
    __aeabi_uldivmod                         0x08000169   Thumb Code    98  uldiv.o(.text)
    qsort                                    0x080001cb   Thumb Code   156  qsort.o(.text)
    __aeabi_memcpy                           0x08000267   Thumb Code    36  memcpya.o(.text)
    __aeabi_memcpy4                          0x08000267   Thumb Code     0  memcpya.o(.text)
    __aeabi_memcpy8                          0x08000267   Thumb Code     0  memcpya.o(.text)
    __aeabi_memset                           0x0800028b   Thumb Code    14  memseta.o(.text)
    __aeabi_memset4                          0x0800028b   Thumb Code     0  memseta.o(.text)
    __aeabi_memset8                          0x0800028b   Thumb Code     0  memseta.o(.text)
    __aeabi_memclr                           0x08000299   Thumb Code     4  memseta.o(.text)
    __aeabi_memclr4                          0x08000299   Thumb Code     0  memseta.o(.text)
    __aeabi_memclr8                          0x08000299   Thumb Code     0  memseta.o(.text)
    _memset$wrapper                          0x0800029d   Thumb Code    18  memseta.o(.text)
    strlen                                   0x080002af   Thumb Code    14  strlen.o(.text)
    memchr                                   0x080002bd   Thumb Code    20  memchr.o(.text)
    memcmp                                   0x080002d1   Thumb Code    26  memcmp.o(.text)
    __aeabi_dadd                             0x080002eb   Thumb Code   322  dadd.o(.text)
    __aeabi_dsub                             0x0800042d   Thumb Code     6  dadd.o(.text)
    __aeabi_drsub                            0x08000433   Thumb Code     6  dadd.o(.text)
    __aeabi_dmul                             0x08000439   Thumb Code   228  dmul.o(.text)
    __aeabi_ddiv                             0x0800051d   Thumb Code   222  ddiv.o(.text)
    __aeabi_dcmplt                           0x080005fb   Thumb Code    54  dcmplt.o(.text)
    __aeabi_dcmpge                           0x08000631   Thumb Code    54  dcmpge.o(.text)
    __aeabi_dcmpeq                           0x08000667   Thumb Code    56  dcmpeq.o(.text)
    __aeabi_i2d                              0x0800069f   Thumb Code    34  dflti.o(.text)
    __aeabi_d2iz                             0x080006c1   Thumb Code    62  dfixi.o(.text)
    __aeabi_f2d                              0x080006ff   Thumb Code    38  f2d.o(.text)
    __aeabi_uidiv                            0x08000725   Thumb Code     0  uidiv.o(.text)
    __aeabi_uidivmod                         0x08000725   Thumb Code    44  uidiv.o(.text)
    __aeabi_llsl                             0x08000751   Thumb Code    30  llshl.o(.text)
    _ll_shift_l                              0x08000751   Thumb Code     0  llshl.o(.text)
    __aeabi_llsr                             0x0800076f   Thumb Code    32  llushr.o(.text)
    _ll_ushift_r                             0x0800076f   Thumb Code     0  llushr.o(.text)
    __aeabi_lasr                             0x0800078f   Thumb Code    36  llsshr.o(.text)
    _ll_sshift_r                             0x0800078f   Thumb Code     0  llsshr.o(.text)
    localtime                                0x080007b5   Thumb Code     6  localtime_w.o(.text)
    _localtime                               0x080007c1   Thumb Code   134  localtime_i.o(.text)
    __I$use$fp                               0x0800084d   Thumb Code     0  iusefp.o(.text)
    _double_round                            0x0800084d   Thumb Code    30  depilogue.o(.text)
    _double_epilogue                         0x0800086b   Thumb Code   156  depilogue.o(.text)
    __aeabi_d2ulz                            0x08000907   Thumb Code    48  dfixul.o(.text)
    __aeabi_cdrcmple                         0x08000939   Thumb Code    48  cdrcmple.o(.text)
    __scatterload                            0x08000969   Thumb Code    38  init.o(.text)
    __scatterload_rt2                        0x08000969   Thumb Code     0  init.o(.text)
    BusFault_Handler                         0x08000999   Thumb Code     2  gd32f30x_it.o(.text.BusFault_Handler)
    DebugMon_Handler                         0x080009a5   Thumb Code     2  gd32f30x_it.o(.text.DebugMon_Handler)
    DelayNus                                 0x080009a9   Thumb Code    46  delay.o(.text.DelayNus)
    DwtDelayInit                             0x080009d9   Thumb Code    54  delay.o(.text.DwtDelayInit)
    EraseNorflashSectorForWrite              0x08000be5   Thumb Code    62  norflash_drv.o(.text.EraseNorflashSectorForWrite)
    FatFsInit                                0x08000c25   Thumb Code   132  fatfs_app.o(.text.FatFsInit)
    FatfsTask                                0x08000cc5   Thumb Code   208  fatfs_app.o(.text.FatfsTask)
    GetHumiData                              0x08000da9   Thumb Code    12  rh_drv.o(.text.GetHumiData)
    GetKeyValue                              0x08000db5   Thumb Code   228  key_drv.o(.text.GetKeyValue)
    GetRtcTime                               0x08000e99   Thumb Code    56  rtc_drv.o(.text.GetRtcTime)
    GetSensorData                            0x08000ed1   Thumb Code    30  sensor_drv.o(.text.GetSensorData)
    GetSystemRunTime                         0x08000ef1   Thumb Code    14  systick.o(.text.GetSystemRunTime)
    GetTempData                              0x08000f01   Thumb Code    14  ntc_drv.o(.text.GetTempData)
    HardFault_Handler                        0x08000f11   Thumb Code     2  gd32f30x_it.o(.text.HardFault_Handler)
    HmiTask                                  0x08000f15   Thumb Code   208  hmi_app.o(.text.HmiTask)
    HumiDrvInit                              0x08001031   Thumb Code   282  rh_drv.o(.text.HumiDrvInit)
    HumiSensorProc                           0x0800114d   Thumb Code   256  rh_drv.o(.text.HumiSensorProc)
    KeyDrvInit                               0x0800124d   Thumb Code    44  key_drv.o(.text.KeyDrvInit)
    LedDrvInit                               0x08001279   Thumb Code    58  led_drv.o(.text.LedDrvInit)
    MemManage_Handler                        0x080012b5   Thumb Code     2  gd32f30x_it.o(.text.MemManage_Handler)
    NMI_Handler                              0x080012b9   Thumb Code     2  gd32f30x_it.o(.text.NMI_Handler)
    NorflashDrvInit                          0x080012bd   Thumb Code    92  norflash_drv.o(.text.NorflashDrvInit)
    PendSV_Handler                           0x08001319   Thumb Code     2  gd32f30x_it.o(.text.PendSV_Handler)
    PrintFileData                            0x0800131d   Thumb Code   192  fatfs_app.o(.text.PrintFileData)
    ReadNorflashData                         0x080015a9   Thumb Code   460  norflash_drv.o(.text.ReadNorflashData)
    ReadNorflashID                           0x08001775   Thumb Code   384  norflash_drv.o(.text.ReadNorflashID)
    RtcDrvInit                               0x080018f5   Thumb Code   132  rtc_drv.o(.text.RtcDrvInit)
    SVC_Handler                              0x08001979   Thumb Code     2  gd32f30x_it.o(.text.SVC_Handler)
    SensorAppTask                            0x0800197d   Thumb Code     4  sensor_app.o(.text.SensorAppTask)
    SensorDrvInit                            0x08001981   Thumb Code    14  sensor_drv.o(.text.SensorDrvInit)
    SensorDrvProc                            0x08001991   Thumb Code    26  sensor_drv.o(.text.SensorDrvProc)
    SysTick_Handler                          0x080019ad   Thumb Code    40  systick.o(.text.SysTick_Handler)
    SystemInit                               0x080019d5   Thumb Code   424  system_gd32f30x.o(.text.SystemInit)
    SystickInit                              0x08001b7d   Thumb Code    70  systick.o(.text.SystickInit)
    TIMER3_IRQHandler                        0x08001bc5   Thumb Code    56  porttimer.o(.text.TIMER3_IRQHandler)
    TIMER4_IRQHandler                        0x08001bfd   Thumb Code   180  rh_drv.o(.text.TIMER4_IRQHandler)
    TaskScheduleCbReg                        0x08001ce9   Thumb Code    12  systick.o(.text.TaskScheduleCbReg)
    TempDrvInit                              0x08001cf5   Thumb Code   176  ntc_drv.o(.text.TempDrvInit)
    TempSensorProc                           0x08001da5   Thumb Code   312  ntc_drv.o(.text.TempSensorProc)
    TurnOffLed                               0x08001edd   Thumb Code    30  led_drv.o(.text.TurnOffLed)
    TurnOnLed                                0x08001efd   Thumb Code    30  led_drv.o(.text.TurnOnLed)
    USART0_IRQHandler                        0x08001f1d   Thumb Code    64  usb2com_drv.o(.text.USART0_IRQHandler)
    USART1_IRQHandler                        0x08001f5d   Thumb Code    90  portserial.o(.text.USART1_IRQHandler)
    UsageFault_Handler                       0x08001fb9   Thumb Code     2  gd32f30x_it.o(.text.UsageFault_Handler)
    Usb2ComDrvInit                           0x08001fbd   Thumb Code   132  usb2com_drv.o(.text.Usb2ComDrvInit)
    WriteNorflashData                        0x08002119   Thumb Code   106  norflash_drv.o(.text.WriteNorflashData)
    adc_calibration_enable                   0x08002185   Thumb Code    32  gd32f30x_adc.o(.text.adc_calibration_enable)
    adc_channel_length_config                0x080021a5   Thumb Code    58  gd32f30x_adc.o(.text.adc_channel_length_config)
    adc_data_alignment_config                0x080021e1   Thumb Code    18  gd32f30x_adc.o(.text.adc_data_alignment_config)
    adc_deinit                               0x080021f5   Thumb Code    72  gd32f30x_adc.o(.text.adc_deinit)
    adc_enable                               0x0800223d   Thumb Code    18  gd32f30x_adc.o(.text.adc_enable)
    adc_external_trigger_config              0x08002251   Thumb Code    62  gd32f30x_adc.o(.text.adc_external_trigger_config)
    adc_external_trigger_source_config       0x08002291   Thumb Code    34  gd32f30x_adc.o(.text.adc_external_trigger_source_config)
    adc_flag_clear                           0x080022b5   Thumb Code     6  gd32f30x_adc.o(.text.adc_flag_clear)
    adc_flag_get                             0x080022bd   Thumb Code    10  gd32f30x_adc.o(.text.adc_flag_get)
    adc_mode_config                          0x080022c9   Thumb Code    24  gd32f30x_adc.o(.text.adc_mode_config)
    adc_oversample_mode_config               0x080022e1   Thumb Code    48  gd32f30x_adc.o(.text.adc_oversample_mode_config)
    adc_oversample_mode_enable               0x08002311   Thumb Code    14  gd32f30x_adc.o(.text.adc_oversample_mode_enable)
    adc_regular_channel_config               0x08002321   Thumb Code   116  gd32f30x_adc.o(.text.adc_regular_channel_config)
    adc_regular_data_read                    0x08002395   Thumb Code     6  gd32f30x_adc.o(.text.adc_regular_data_read)
    adc_resolution_config                    0x0800239d   Thumb Code    24  gd32f30x_adc.o(.text.adc_resolution_config)
    adc_software_trigger_enable              0x080023b5   Thumb Code    28  gd32f30x_adc.o(.text.adc_software_trigger_enable)
    adc_special_function_config              0x080023d1   Thumb Code    90  gd32f30x_adc.o(.text.adc_special_function_config)
    bkp_deinit                               0x0800242d   Thumb Code    14  gd32f30x_bkp.o(.text.bkp_deinit)
    bkp_read_data                            0x0800243d   Thumb Code    52  gd32f30x_bkp.o(.text.bkp_read_data)
    bkp_write_data                           0x08002471   Thumb Code    50  gd32f30x_bkp.o(.text.bkp_write_data)
    disk_initialize                          0x08003005   Thumb Code    58  diskio.o(.text.disk_initialize)
    disk_ioctl                               0x08003041   Thumb Code    42  diskio.o(.text.disk_ioctl)
    disk_read                                0x0800306d   Thumb Code    26  diskio.o(.text.disk_read)
    disk_status                              0x08003089   Thumb Code    54  diskio.o(.text.disk_status)
    disk_write                               0x080030c1   Thumb Code    38  diskio.o(.text.disk_write)
    f_close                                  0x080030e9   Thumb Code    62  ff.o(.text.f_close)
    f_gets                                   0x08003129   Thumb Code    98  ff.o(.text.f_gets)
    f_mkfs                                   0x0800318d   Thumb Code  1728  ff.o(.text.f_mkfs)
    f_mount                                  0x08003885   Thumb Code   164  ff.o(.text.f_mount)
    f_open                                   0x08003929   Thumb Code   674  ff.o(.text.f_open)
    f_printf                                 0x08003bd1   Thumb Code  3640  ff.o(.text.f_printf)
    f_read                                   0x08004a21   Thumb Code   520  ff.o(.text.f_read)
    f_sync                                   0x08004c29   Thumb Code   200  ff.o(.text.f_sync)
    f_unlink                                 0x08004cf1   Thumb Code   332  ff.o(.text.f_unlink)
    f_write                                  0x08004e3d   Thumb Code   578  ff.o(.text.f_write)
    ff_oem2uni                               0x08005081   Thumb Code    44  ffunicode.o(.text.ff_oem2uni)
    ff_uni2oem                               0x080050ad   Thumb Code    64  ffunicode.o(.text.ff_uni2oem)
    ff_wtoupper                              0x080050ed   Thumb Code   176  ffunicode.o(.text.ff_wtoupper)
    fputc                                    0x08005579   Thumb Code    36  usb2com_drv.o(.text.fputc)
    get_fattime                              0x0800569d   Thumb Code    58  diskio.o(.text.get_fattime)
    gpio_bit_reset                           0x080056d9   Thumb Code     4  gd32f30x_gpio.o(.text.gpio_bit_reset)
    gpio_bit_set                             0x080056dd   Thumb Code     4  gd32f30x_gpio.o(.text.gpio_bit_set)
    gpio_bit_write                           0x080056e1   Thumb Code    12  gd32f30x_gpio.o(.text.gpio_bit_write)
    gpio_init                                0x080056ed   Thumb Code   182  gd32f30x_gpio.o(.text.gpio_init)
    gpio_input_bit_get                       0x080057a5   Thumb Code    10  gd32f30x_gpio.o(.text.gpio_input_bit_get)
    gpio_output_bit_get                      0x080057b1   Thumb Code    10  gd32f30x_gpio.o(.text.gpio_output_bit_get)
    main                                     0x080057bd   Thumb Code    96  main.o(.text.main)
    nvic_irq_enable                          0x08005b81   Thumb Code   164  gd32f30x_misc.o(.text.nvic_irq_enable)
    pmu_backup_write_enable                  0x08005c25   Thumb Code    18  gd32f30x_pmu.o(.text.pmu_backup_write_enable)
    rcu_adc_clock_config                     0x08005d79   Thumb Code   114  gd32f30x_rcu.o(.text.rcu_adc_clock_config)
    rcu_bkp_reset_disable                    0x08005ded   Thumb Code    18  gd32f30x_rcu.o(.text.rcu_bkp_reset_disable)
    rcu_bkp_reset_enable                     0x08005e01   Thumb Code    18  gd32f30x_rcu.o(.text.rcu_bkp_reset_enable)
    rcu_clock_freq_get                       0x08005e15   Thumb Code   192  gd32f30x_rcu.o(.text.rcu_clock_freq_get)
    rcu_osci_on                              0x08005ee5   Thumb Code    30  gd32f30x_rcu.o(.text.rcu_osci_on)
    rcu_osci_stab_wait                       0x08005f05   Thumb Code   316  gd32f30x_rcu.o(.text.rcu_osci_stab_wait)
    rcu_periph_clock_enable                  0x08006041   Thumb Code    30  gd32f30x_rcu.o(.text.rcu_periph_clock_enable)
    rcu_periph_reset_disable                 0x08006061   Thumb Code    32  gd32f30x_rcu.o(.text.rcu_periph_reset_disable)
    rcu_periph_reset_enable                  0x08006081   Thumb Code    30  gd32f30x_rcu.o(.text.rcu_periph_reset_enable)
    rcu_rtc_clock_config                     0x080060a1   Thumb Code    20  gd32f30x_rcu.o(.text.rcu_rtc_clock_config)
    rtc_counter_get                          0x080060b5   Thumb Code    18  gd32f30x_rtc.o(.text.rtc_counter_get)
    rtc_counter_set                          0x080060c9   Thumb Code    34  gd32f30x_rtc.o(.text.rtc_counter_set)
    rtc_lwoff_wait                           0x080060ed   Thumb Code    16  gd32f30x_rtc.o(.text.rtc_lwoff_wait)
    rtc_prescaler_set                        0x080060fd   Thumb Code    36  gd32f30x_rtc.o(.text.rtc_prescaler_set)
    rtc_register_sync_wait                   0x08006121   Thumb Code    24  gd32f30x_rtc.o(.text.rtc_register_sync_wait)
    timer_counter_value_config               0x080061f5   Thumb Code     4  gd32f30x_timer.o(.text.timer_counter_value_config)
    timer_deinit                             0x080061f9   Thumb Code   194  gd32f30x_timer.o(.text.timer_deinit)
    timer_enable                             0x080062bd   Thumb Code    10  gd32f30x_timer.o(.text.timer_enable)
    timer_init                               0x080062c9   Thumb Code   180  gd32f30x_timer.o(.text.timer_init)
    timer_interrupt_enable                   0x0800637d   Thumb Code     8  gd32f30x_timer.o(.text.timer_interrupt_enable)
    timer_interrupt_flag_clear               0x08006385   Thumb Code     6  gd32f30x_timer.o(.text.timer_interrupt_flag_clear)
    timer_interrupt_flag_get                 0x0800638d   Thumb Code    22  gd32f30x_timer.o(.text.timer_interrupt_flag_get)
    timer_struct_para_init                   0x080063a5   Thumb Code    16  gd32f30x_timer.o(.text.timer_struct_para_init)
    usart_baudrate_set                       0x080063b5   Thumb Code   106  gd32f30x_usart.o(.text.usart_baudrate_set)
    usart_data_receive                       0x08006421   Thumb Code     8  gd32f30x_usart.o(.text.usart_data_receive)
    usart_data_transmit                      0x08006429   Thumb Code     8  gd32f30x_usart.o(.text.usart_data_transmit)
    usart_deinit                             0x08006431   Thumb Code   122  gd32f30x_usart.o(.text.usart_deinit)
    usart_enable                             0x080064ad   Thumb Code    10  gd32f30x_usart.o(.text.usart_enable)
    usart_flag_get                           0x080064b9   Thumb Code    16  gd32f30x_usart.o(.text.usart_flag_get)
    usart_interrupt_enable                   0x080064c9   Thumb Code    22  gd32f30x_usart.o(.text.usart_interrupt_enable)
    usart_interrupt_flag_clear               0x080064e1   Thumb Code    18  gd32f30x_usart.o(.text.usart_interrupt_flag_clear)
    usart_interrupt_flag_get                 0x080064f5   Thumb Code    34  gd32f30x_usart.o(.text.usart_interrupt_flag_get)
    usart_parity_config                      0x08006519   Thumb Code    16  gd32f30x_usart.o(.text.usart_parity_config)
    usart_receive_config                     0x08006529   Thumb Code    20  gd32f30x_usart.o(.text.usart_receive_config)
    usart_stop_bit_set                       0x0800653d   Thumb Code    16  gd32f30x_usart.o(.text.usart_stop_bit_set)
    usart_transmit_config                    0x0800654d   Thumb Code    20  gd32f30x_usart.o(.text.usart_transmit_config)
    usart_word_length_set                    0x08006561   Thumb Code    16  gd32f30x_usart.o(.text.usart_word_length_set)
    __0printf                                0x08006571   Thumb Code    22  printfa.o(i.__0printf)
    __1printf                                0x08006571   Thumb Code     0  printfa.o(i.__0printf)
    __2printf                                0x08006571   Thumb Code     0  printfa.o(i.__0printf)
    __c89printf                              0x08006571   Thumb Code     0  printfa.o(i.__0printf)
    printf                                   0x08006571   Thumb Code     0  printfa.o(i.__0printf)
    __scatterload_copy                       0x08006591   Thumb Code    14  handlers.o(i.__scatterload_copy)
    __scatterload_null                       0x0800659f   Thumb Code     2  handlers.o(i.__scatterload_null)
    __scatterload_zeroinit                   0x080065a1   Thumb Code    14  handlers.o(i.__scatterload_zeroinit)
    Region$$Table$$Base                      0x08007660   Number         0  anon$$obj.o(Region$$Table)
    Region$$Table$$Limit                     0x08007680   Number         0  anon$$obj.o(Region$$Table)
    __stdout                                 0x20000000   Data           4  stdout.o(.data)
    g_Usb2ComInfo                            0x20000004   Data          28  usb2com_drv.o(.data.g_Usb2ComInfo)
    pxMBFrameCBByteReceived                  0x2000237c   Data           4  mb.o(.bss.pxMBFrameCBByteReceived)
    pxMBFrameCBTransmitterEmpty              0x20002380   Data           4  mb.o(.bss.pxMBFrameCBTransmitterEmpty)
    pxMBPortCBTimerExpired                   0x20002384   Data           4  mb.o(.bss.pxMBPortCBTimerExpired)
    __initial_sp                             0x20006388   Data           0  startup_gd32f30x_hd.o(STACK)



==============================================================================

Memory Map of the image

  Image Entry point : 0x08000131

  Load Region LR_IROM1 (Base: 0x08000000, Size: 0x000076c8, Max: 0x00080000, ABSOLUTE)

    Execution Region ER_IROM1 (Exec base: 0x08000000, Load base: 0x08000000, Size: 0x00007680, Max: 0x00080000, ABSOLUTE)

    Exec Addr    Load Addr    Size         Type   Attr      Idx    E Section Name        Object

    0x08000000   0x08000000   0x00000130   Data   RO         1481    RESET               startup_gd32f30x_hd.o
    0x08000130   0x08000130   0x00000000   Code   RO         1519  * .ARM.Collect$$$$00000000  mc_w.l(entry.o)
    0x08000130   0x08000130   0x00000004   Code   RO         1865    .ARM.Collect$$$$00000001  mc_w.l(entry2.o)
    0x08000134   0x08000134   0x00000004   Code   RO         1868    .ARM.Collect$$$$00000004  mc_w.l(entry5.o)
    0x08000138   0x08000138   0x00000000   Code   RO         1870    .ARM.Collect$$$$00000008  mc_w.l(entry7b.o)
    0x08000138   0x08000138   0x00000000   Code   RO         1872    .ARM.Collect$$$$0000000A  mc_w.l(entry8b.o)
    0x08000138   0x08000138   0x00000008   Code   RO         1873    .ARM.Collect$$$$0000000B  mc_w.l(entry9a.o)
    0x08000140   0x08000140   0x00000000   Code   RO         1875    .ARM.Collect$$$$0000000D  mc_w.l(entry10a.o)
    0x08000140   0x08000140   0x00000000   Code   RO         1877    .ARM.Collect$$$$0000000F  mc_w.l(entry11a.o)
    0x08000140   0x08000140   0x00000004   Code   RO         1866    .ARM.Collect$$$$00002712  mc_w.l(entry2.o)
    0x08000144   0x08000144   0x00000024   Code   RO         1482    .text               startup_gd32f30x_hd.o
    0x08000168   0x08000168   0x00000062   Code   RO         1535    .text               mc_w.l(uldiv.o)
    0x080001ca   0x080001ca   0x0000009c   Code   RO         1537    .text               mc_w.l(qsort.o)
    0x08000266   0x08000266   0x00000024   Code   RO         1546    .text               mc_w.l(memcpya.o)
    0x0800028a   0x0800028a   0x00000024   Code   RO         1548    .text               mc_w.l(memseta.o)
    0x080002ae   0x080002ae   0x0000000e   Code   RO         1550    .text               mc_w.l(strlen.o)
    0x080002bc   0x080002bc   0x00000014   Code   RO         1552    .text               mc_w.l(memchr.o)
    0x080002d0   0x080002d0   0x0000001a   Code   RO         1554    .text               mc_w.l(memcmp.o)
    0x080002ea   0x080002ea   0x0000014e   Code   RO         1847    .text               mf_w.l(dadd.o)
    0x08000438   0x08000438   0x000000e4   Code   RO         1849    .text               mf_w.l(dmul.o)
    0x0800051c   0x0800051c   0x000000de   Code   RO         1851    .text               mf_w.l(ddiv.o)
    0x080005fa   0x080005fa   0x00000036   Code   RO         1853    .text               mf_w.l(dcmplt.o)
    0x08000630   0x08000630   0x00000036   Code   RO         1855    .text               mf_w.l(dcmpge.o)
    0x08000666   0x08000666   0x00000038   Code   RO         1857    .text               mf_w.l(dcmpeq.o)
    0x0800069e   0x0800069e   0x00000022   Code   RO         1859    .text               mf_w.l(dflti.o)
    0x080006c0   0x080006c0   0x0000003e   Code   RO         1861    .text               mf_w.l(dfixi.o)
    0x080006fe   0x080006fe   0x00000026   Code   RO         1863    .text               mf_w.l(f2d.o)
    0x08000724   0x08000724   0x0000002c   Code   RO         1889    .text               mc_w.l(uidiv.o)
    0x08000750   0x08000750   0x0000001e   Code   RO         1891    .text               mc_w.l(llshl.o)
    0x0800076e   0x0800076e   0x00000020   Code   RO         1893    .text               mc_w.l(llushr.o)
    0x0800078e   0x0800078e   0x00000024   Code   RO         1895    .text               mc_w.l(llsshr.o)
    0x080007b2   0x080007b2   0x00000002   PAD
    0x080007b4   0x080007b4   0x0000000c   Code   RO         1897    .text               mc_w.l(localtime_w.o)
    0x080007c0   0x080007c0   0x0000008c   Code   RO         1900    .text               mc_w.l(localtime_i.o)
    0x0800084c   0x0800084c   0x00000000   Code   RO         1905    .text               mc_w.l(iusefp.o)
    0x0800084c   0x0800084c   0x000000ba   Code   RO         1906    .text               mf_w.l(depilogue.o)
    0x08000906   0x08000906   0x00000030   Code   RO         1908    .text               mf_w.l(dfixul.o)
    0x08000936   0x08000936   0x00000002   PAD
    0x08000938   0x08000938   0x00000030   Code   RO         1910    .text               mf_w.l(cdrcmple.o)
    0x08000968   0x08000968   0x00000030   Code   RO         1912    .text               mc_w.l(init.o)
    0x08000998   0x08000998   0x00000002   Code   RO          353    .text.BusFault_Handler  gd32f30x_it.o
    0x0800099a   0x0800099a   0x00000002   PAD
    0x0800099c   0x0800099c   0x00000008   Code   RO          415    .text.Compare       ntc_drv.o
    0x080009a4   0x080009a4   0x00000002   Code   RO          359    .text.DebugMon_Handler  gd32f30x_it.o
    0x080009a6   0x080009a6   0x00000002   PAD
    0x080009a8   0x080009a8   0x0000002e   Code   RO          335    .text.DelayNus      delay.o
    0x080009d6   0x080009d6   0x00000002   PAD
    0x080009d8   0x080009d8   0x00000036   Code   RO          333    .text.DwtDelayInit  delay.o
    0x08000a0e   0x08000a0e   0x00000002   PAD
    0x08000a10   0x08000a10   0x00000074   Code   RO          628    .text.EnableNorflashWrite  norflash_drv.o
    0x08000a84   0x08000a84   0x0000015e   Code   RO          624    .text.EraseNorflashSector  norflash_drv.o
    0x08000be2   0x08000be2   0x00000002   PAD
    0x08000be4   0x08000be4   0x0000003e   Code   RO          622    .text.EraseNorflashSectorForWrite  norflash_drv.o
    0x08000c22   0x08000c22   0x00000002   PAD
    0x08000c24   0x08000c24   0x000000a0   Code   RO            2    .text.FatFsInit     fatfs_app.o
    0x08000cc4   0x08000cc4   0x000000e4   Code   RO            4    .text.FatfsTask     fatfs_app.o
    0x08000da8   0x08000da8   0x0000000c   Code   RO          458    .text.GetHumiData   rh_drv.o
    0x08000db4   0x08000db4   0x000000e4   Code   RO          372    .text.GetKeyValue   key_drv.o
    0x08000e98   0x08000e98   0x00000038   Code   RO          476    .text.GetRtcTime    rtc_drv.o
    0x08000ed0   0x08000ed0   0x0000001e   Code   RO          561    .text.GetSensorData  sensor_drv.o
    0x08000eee   0x08000eee   0x00000002   PAD
    0x08000ef0   0x08000ef0   0x0000000e   Code   RO          581    .text.GetSystemRunTime  systick.o
    0x08000efe   0x08000efe   0x00000002   PAD
    0x08000f00   0x08000f00   0x0000000e   Code   RO          413    .text.GetTempData   ntc_drv.o
    0x08000f0e   0x08000f0e   0x00000002   PAD
    0x08000f10   0x08000f10   0x00000002   Code   RO          349    .text.HardFault_Handler  gd32f30x_it.o
    0x08000f12   0x08000f12   0x00000002   PAD
    0x08000f14   0x08000f14   0x0000011c   Code   RO           20    .text.HmiTask       hmi_app.o
    0x08001030   0x08001030   0x0000011a   Code   RO          450    .text.HumiDrvInit   rh_drv.o
    0x0800114a   0x0800114a   0x00000002   PAD
    0x0800114c   0x0800114c   0x00000100   Code   RO          456    .text.HumiSensorProc  rh_drv.o
    0x0800124c   0x0800124c   0x0000002c   Code   RO          370    .text.KeyDrvInit    key_drv.o
    0x08001278   0x08001278   0x0000003a   Code   RO          384    .text.LedDrvInit    led_drv.o
    0x080012b2   0x080012b2   0x00000002   PAD
    0x080012b4   0x080012b4   0x00000002   Code   RO          351    .text.MemManage_Handler  gd32f30x_it.o
    0x080012b6   0x080012b6   0x00000002   PAD
    0x080012b8   0x080012b8   0x00000002   Code   RO          347    .text.NMI_Handler   gd32f30x_it.o
    0x080012ba   0x080012ba   0x00000002   PAD
    0x080012bc   0x080012bc   0x0000005c   Code   RO          612    .text.NorflashDrvInit  norflash_drv.o
    0x08001318   0x08001318   0x00000002   Code   RO          361    .text.PendSV_Handler  gd32f30x_it.o
    0x0800131a   0x0800131a   0x00000002   PAD
    0x0800131c   0x0800131c   0x000000c4   Code   RO            6    .text.PrintFileData  fatfs_app.o
    0x080013e0   0x080013e0   0x000001c6   Code   RO          620    .text.ProgramNorflashDataPage  norflash_drv.o
    0x080015a6   0x080015a6   0x00000002   PAD
    0x080015a8   0x080015a8   0x000001cc   Code   RO          616    .text.ReadNorflashData  norflash_drv.o
    0x08001774   0x08001774   0x00000180   Code   RO          614    .text.ReadNorflashID  norflash_drv.o
    0x080018f4   0x080018f4   0x00000084   Code   RO          472    .text.RtcDrvInit    rtc_drv.o
    0x08001978   0x08001978   0x00000002   Code   RO          357    .text.SVC_Handler   gd32f30x_it.o
    0x0800197a   0x0800197a   0x00000002   PAD
    0x0800197c   0x0800197c   0x00000004   Code   RO           42    .text.SensorAppTask  sensor_app.o
    0x08001980   0x08001980   0x0000000e   Code   RO          563    .text.SensorDrvInit  sensor_drv.o
    0x0800198e   0x0800198e   0x00000002   PAD
    0x08001990   0x08001990   0x0000001a   Code   RO          565    .text.SensorDrvProc  sensor_drv.o
    0x080019aa   0x080019aa   0x00000002   PAD
    0x080019ac   0x080019ac   0x00000028   Code   RO          579    .text.SysTick_Handler  systick.o
    0x080019d4   0x080019d4   0x000001a8   Code   RO         1489    .text.SystemInit    system_gd32f30x.o
    0x08001b7c   0x08001b7c   0x00000046   Code   RO          577    .text.SystickInit   systick.o
    0x08001bc2   0x08001bc2   0x00000002   PAD
    0x08001bc4   0x08001bc4   0x00000038   Code   RO          681    .text.TIMER3_IRQHandler  porttimer.o
    0x08001bfc   0x08001bfc   0x000000b4   Code   RO          454    .text.TIMER4_IRQHandler  rh_drv.o
    0x08001cb0   0x08001cb0   0x00000038   Code   RO           30    .text.TaskSchedule  main.o
    0x08001ce8   0x08001ce8   0x0000000c   Code   RO          575    .text.TaskScheduleCbReg  systick.o
    0x08001cf4   0x08001cf4   0x000000b0   Code   RO          401    .text.TempDrvInit   ntc_drv.o
    0x08001da4   0x08001da4   0x00000138   Code   RO          411    .text.TempSensorProc  ntc_drv.o
    0x08001edc   0x08001edc   0x0000001e   Code   RO          388    .text.TurnOffLed    led_drv.o
    0x08001efa   0x08001efa   0x00000002   PAD
    0x08001efc   0x08001efc   0x0000001e   Code   RO          386    .text.TurnOnLed     led_drv.o
    0x08001f1a   0x08001f1a   0x00000002   PAD
    0x08001f1c   0x08001f1c   0x00000040   Code   RO          598    .text.USART0_IRQHandler  usb2com_drv.o
    0x08001f5c   0x08001f5c   0x0000005a   Code   RO          665    .text.USART1_IRQHandler  portserial.o
    0x08001fb6   0x08001fb6   0x00000002   PAD
    0x08001fb8   0x08001fb8   0x00000002   Code   RO          355    .text.UsageFault_Handler  gd32f30x_it.o
    0x08001fba   0x08001fba   0x00000002   PAD
    0x08001fbc   0x08001fbc   0x00000084   Code   RO          592    .text.Usb2ComDrvInit  usb2com_drv.o
    0x08002040   0x08002040   0x000000d6   Code   RO          630    .text.WaitNorflashWriteEnd  norflash_drv.o
    0x08002116   0x08002116   0x00000002   PAD
    0x08002118   0x08002118   0x0000006a   Code   RO          618    .text.WriteNorflashData  norflash_drv.o
    0x08002182   0x08002182   0x00000002   PAD
    0x08002184   0x08002184   0x00000020   Code   RO          697    .text.adc_calibration_enable  gd32f30x_adc.o
    0x080021a4   0x080021a4   0x0000003a   Code   RO          717    .text.adc_channel_length_config  gd32f30x_adc.o
    0x080021de   0x080021de   0x00000002   PAD
    0x080021e0   0x080021e0   0x00000012   Code   RO          715    .text.adc_data_alignment_config  gd32f30x_adc.o
    0x080021f2   0x080021f2   0x00000002   PAD
    0x080021f4   0x080021f4   0x00000048   Code   RO          691    .text.adc_deinit    gd32f30x_adc.o
    0x0800223c   0x0800223c   0x00000012   Code   RO          693    .text.adc_enable    gd32f30x_adc.o
    0x0800224e   0x0800224e   0x00000002   PAD
    0x08002250   0x08002250   0x0000003e   Code   RO          725    .text.adc_external_trigger_config  gd32f30x_adc.o
    0x0800228e   0x0800228e   0x00000002   PAD
    0x08002290   0x08002290   0x00000022   Code   RO          727    .text.adc_external_trigger_source_config  gd32f30x_adc.o
    0x080022b2   0x080022b2   0x00000002   PAD
    0x080022b4   0x080022b4   0x00000006   Code   RO          739    .text.adc_flag_clear  gd32f30x_adc.o
    0x080022ba   0x080022ba   0x00000002   PAD
    0x080022bc   0x080022bc   0x0000000a   Code   RO          737    .text.adc_flag_get  gd32f30x_adc.o
    0x080022c6   0x080022c6   0x00000002   PAD
    0x080022c8   0x080022c8   0x00000018   Code   RO          711    .text.adc_mode_config  gd32f30x_adc.o
    0x080022e0   0x080022e0   0x00000030   Code   RO          757    .text.adc_oversample_mode_config  gd32f30x_adc.o
    0x08002310   0x08002310   0x0000000e   Code   RO          759    .text.adc_oversample_mode_enable  gd32f30x_adc.o
    0x0800231e   0x0800231e   0x00000002   PAD
    0x08002320   0x08002320   0x00000074   Code   RO          719    .text.adc_regular_channel_config  gd32f30x_adc.o
    0x08002394   0x08002394   0x00000006   Code   RO          731    .text.adc_regular_data_read  gd32f30x_adc.o
    0x0800239a   0x0800239a   0x00000002   PAD
    0x0800239c   0x0800239c   0x00000018   Code   RO          707    .text.adc_resolution_config  gd32f30x_adc.o
    0x080023b4   0x080023b4   0x0000001c   Code   RO          729    .text.adc_software_trigger_enable  gd32f30x_adc.o
    0x080023d0   0x080023d0   0x0000005a   Code   RO          713    .text.adc_special_function_config  gd32f30x_adc.o
    0x0800242a   0x0800242a   0x00000002   PAD
    0x0800242c   0x0800242c   0x0000000e   Code   RO          771    .text.bkp_deinit    gd32f30x_bkp.o
    0x0800243a   0x0800243a   0x00000002   PAD
    0x0800243c   0x0800243c   0x00000034   Code   RO          775    .text.bkp_read_data  gd32f30x_bkp.o
    0x08002470   0x08002470   0x00000032   Code   RO          773    .text.bkp_write_data  gd32f30x_bkp.o
    0x080024a2   0x080024a2   0x00000002   PAD
    0x080024a4   0x080024a4   0x000000d0   Code   RO          293    .text.check_fs      ff.o
    0x08002574   0x08002574   0x00000122   Code   RO          235    .text.create_chain  ff.o
    0x08002696   0x08002696   0x00000002   PAD
    0x08002698   0x08002698   0x0000018c   Code   RO          281    .text.create_partition  ff.o
    0x08002824   0x08002824   0x00000094   Code   RO          269    .text.dir_clear     ff.o
    0x080028b8   0x080028b8   0x0000019c   Code   RO          295    .text.dir_find      ff.o
    0x08002a54   0x08002a54   0x000000ee   Code   RO          257    .text.dir_next      ff.o
    0x08002b42   0x08002b42   0x00000002   PAD
    0x08002b44   0x08002b44   0x0000012e   Code   RO          253    .text.dir_read      ff.o
    0x08002c72   0x08002c72   0x00000002   PAD
    0x08002c74   0x08002c74   0x000002e4   Code   RO          223    .text.dir_register  ff.o
    0x08002f58   0x08002f58   0x000000aa   Code   RO          247    .text.dir_sdi       ff.o
    0x08003002   0x08003002   0x00000002   PAD
    0x08003004   0x08003004   0x0000003a   Code   RO          197    .text.disk_initialize  diskio.o
    0x0800303e   0x0800303e   0x00000002   PAD
    0x08003040   0x08003040   0x0000002a   Code   RO          203    .text.disk_ioctl    diskio.o
    0x0800306a   0x0800306a   0x00000002   PAD
    0x0800306c   0x0800306c   0x0000001a   Code   RO          199    .text.disk_read     diskio.o
    0x08003086   0x08003086   0x00000002   PAD
    0x08003088   0x08003088   0x00000036   Code   RO          195    .text.disk_status   diskio.o
    0x080030be   0x080030be   0x00000002   PAD
    0x080030c0   0x080030c0   0x00000026   Code   RO          201    .text.disk_write    diskio.o
    0x080030e6   0x080030e6   0x00000002   PAD
    0x080030e8   0x080030e8   0x0000003e   Code   RO          241    .text.f_close       ff.o
    0x08003126   0x08003126   0x00000002   PAD
    0x08003128   0x08003128   0x00000062   Code   RO          283    .text.f_gets        ff.o
    0x0800318a   0x0800318a   0x00000002   PAD
    0x0800318c   0x0800318c   0x000006f8   Code   RO          279    .text.f_mkfs        ff.o
    0x08003884   0x08003884   0x000000a4   Code   RO          215    .text.f_mount       ff.o
    0x08003928   0x08003928   0x000002a2   Code   RO          219    .text.f_open        ff.o
    0x08003bca   0x08003bca   0x00000006   PAD
    0x08003bd0   0x08003bd0   0x00000e50   Code   RO          289    .text.f_printf      ff.o
    0x08004a20   0x08004a20   0x00000208   Code   RO          231    .text.f_read        ff.o
    0x08004c28   0x08004c28   0x000000c8   Code   RO          237    .text.f_sync        ff.o
    0x08004cf0   0x08004cf0   0x0000014c   Code   RO          265    .text.f_unlink      ff.o
    0x08004e3c   0x08004e3c   0x00000242   Code   RO          233    .text.f_write       ff.o
    0x0800507e   0x0800507e   0x00000002   PAD
    0x08005080   0x08005080   0x0000002c   Code   RO          319    .text.ff_oem2uni    ffunicode.o
    0x080050ac   0x080050ac   0x00000040   Code   RO          317    .text.ff_uni2oem    ffunicode.o
    0x080050ec   0x080050ec   0x000000b0   Code   RO          321    .text.ff_wtoupper   ffunicode.o
    0x0800519c   0x0800519c   0x00000052   Code   RO          291    .text.find_volume   ff.o
    0x080051ee   0x080051ee   0x00000002   PAD
    0x080051f0   0x080051f0   0x00000388   Code   RO          221    .text.follow_path   ff.o
    0x08005578   0x08005578   0x00000024   Code   RO          594    .text.fputc         usb2com_drv.o
    0x0800559c   0x0800559c   0x00000100   Code   RO          229    .text.get_fat       ff.o
    0x0800569c   0x0800569c   0x0000003a   Code   RO          205    .text.get_fattime   diskio.o
    0x080056d6   0x080056d6   0x00000002   PAD
    0x080056d8   0x080056d8   0x00000004   Code   RO          827    .text.gpio_bit_reset  gd32f30x_gpio.o
    0x080056dc   0x080056dc   0x00000004   Code   RO          825    .text.gpio_bit_set  gd32f30x_gpio.o
    0x080056e0   0x080056e0   0x0000000c   Code   RO          829    .text.gpio_bit_write  gd32f30x_gpio.o
    0x080056ec   0x080056ec   0x000000b6   Code   RO          823    .text.gpio_init     gd32f30x_gpio.o
    0x080057a2   0x080057a2   0x00000002   PAD
    0x080057a4   0x080057a4   0x0000000a   Code   RO          833    .text.gpio_input_bit_get  gd32f30x_gpio.o
    0x080057ae   0x080057ae   0x00000002   PAD
    0x080057b0   0x080057b0   0x0000000a   Code   RO          837    .text.gpio_output_bit_get  gd32f30x_gpio.o
    0x080057ba   0x080057ba   0x00000002   PAD
    0x080057bc   0x080057bc   0x00000060   Code   RO           28    .text.main          main.o
    0x0800581c   0x0800581c   0x000002d6   Code   RO          217    .text.mount_volume  ff.o
    0x08005af2   0x08005af2   0x00000002   PAD
    0x08005af4   0x08005af4   0x0000008a   Code   RO          227    .text.move_window   ff.o
    0x08005b7e   0x08005b7e   0x00000002   PAD
    0x08005b80   0x08005b80   0x000000a4   Code   RO          867    .text.nvic_irq_enable  gd32f30x_misc.o
    0x08005c24   0x08005c24   0x00000012   Code   RO          917    .text.pmu_backup_write_enable  gd32f30x_pmu.o
    0x08005c36   0x08005c36   0x00000002   PAD
    0x08005c38   0x08005c38   0x00000140   Code   RO          297    .text.put_fat       ff.o
    0x08005d78   0x08005d78   0x00000072   Code   RO          977    .text.rcu_adc_clock_config  gd32f30x_rcu.o
    0x08005dea   0x08005dea   0x00000002   PAD
    0x08005dec   0x08005dec   0x00000012   Code   RO          957    .text.rcu_bkp_reset_disable  gd32f30x_rcu.o
    0x08005dfe   0x08005dfe   0x00000002   PAD
    0x08005e00   0x08005e00   0x00000012   Code   RO          955    .text.rcu_bkp_reset_enable  gd32f30x_rcu.o
    0x08005e12   0x08005e12   0x00000002   PAD
    0x08005e14   0x08005e14   0x000000d0   Code   RO         1005    .text.rcu_clock_freq_get  gd32f30x_rcu.o
    0x08005ee4   0x08005ee4   0x0000001e   Code   RO          989    .text.rcu_osci_on   gd32f30x_rcu.o
    0x08005f02   0x08005f02   0x00000002   PAD
    0x08005f04   0x08005f04   0x0000013c   Code   RO          941    .text.rcu_osci_stab_wait  gd32f30x_rcu.o
    0x08006040   0x08006040   0x0000001e   Code   RO          943    .text.rcu_periph_clock_enable  gd32f30x_rcu.o
    0x0800605e   0x0800605e   0x00000002   PAD
    0x08006060   0x08006060   0x00000020   Code   RO          953    .text.rcu_periph_reset_disable  gd32f30x_rcu.o
    0x08006080   0x08006080   0x0000001e   Code   RO          951    .text.rcu_periph_reset_enable  gd32f30x_rcu.o
    0x0800609e   0x0800609e   0x00000002   PAD
    0x080060a0   0x080060a0   0x00000014   Code   RO          981    .text.rcu_rtc_clock_config  gd32f30x_rcu.o
    0x080060b4   0x080060b4   0x00000012   Code   RO         1038    .text.rtc_counter_get  gd32f30x_rtc.o
    0x080060c6   0x080060c6   0x00000002   PAD
    0x080060c8   0x080060c8   0x00000022   Code   RO         1040    .text.rtc_counter_set  gd32f30x_rtc.o
    0x080060ea   0x080060ea   0x00000002   PAD
    0x080060ec   0x080060ec   0x00000010   Code   RO         1034    .text.rtc_lwoff_wait  gd32f30x_rtc.o
    0x080060fc   0x080060fc   0x00000024   Code   RO         1042    .text.rtc_prescaler_set  gd32f30x_rtc.o
    0x08006120   0x08006120   0x00000018   Code   RO         1036    .text.rtc_register_sync_wait  gd32f30x_rtc.o
    0x08006138   0x08006138   0x000000bc   Code   RO          239    .text.sync_fs       ff.o
    0x080061f4   0x080061f4   0x00000004   Code   RO         1190    .text.timer_counter_value_config  gd32f30x_timer.o
    0x080061f8   0x080061f8   0x000000c2   Code   RO         1160    .text.timer_deinit  gd32f30x_timer.o
    0x080062ba   0x080062ba   0x00000002   PAD
    0x080062bc   0x080062bc   0x0000000a   Code   RO         1166    .text.timer_enable  gd32f30x_timer.o
    0x080062c6   0x080062c6   0x00000002   PAD
    0x080062c8   0x080062c8   0x000000b4   Code   RO         1164    .text.timer_init    gd32f30x_timer.o
    0x0800637c   0x0800637c   0x00000008   Code   RO         1200    .text.timer_interrupt_enable  gd32f30x_timer.o
    0x08006384   0x08006384   0x00000006   Code   RO         1206    .text.timer_interrupt_flag_clear  gd32f30x_timer.o
    0x0800638a   0x0800638a   0x00000002   PAD
    0x0800638c   0x0800638c   0x00000016   Code   RO         1204    .text.timer_interrupt_flag_get  gd32f30x_timer.o
    0x080063a2   0x080063a2   0x00000002   PAD
    0x080063a4   0x080063a4   0x00000010   Code   RO         1162    .text.timer_struct_para_init  gd32f30x_timer.o
    0x080063b4   0x080063b4   0x0000006a   Code   RO         1312    .text.usart_baudrate_set  gd32f30x_usart.o
    0x0800641e   0x0800641e   0x00000002   PAD
    0x08006420   0x08006420   0x00000008   Code   RO         1340    .text.usart_data_receive  gd32f30x_usart.o
    0x08006428   0x08006428   0x00000008   Code   RO         1338    .text.usart_data_transmit  gd32f30x_usart.o
    0x08006430   0x08006430   0x0000007a   Code   RO         1310    .text.usart_deinit  gd32f30x_usart.o
    0x080064aa   0x080064aa   0x00000002   PAD
    0x080064ac   0x080064ac   0x0000000a   Code   RO         1320    .text.usart_enable  gd32f30x_usart.o
    0x080064b6   0x080064b6   0x00000002   PAD
    0x080064b8   0x080064b8   0x00000010   Code   RO         1398    .text.usart_flag_get  gd32f30x_usart.o
    0x080064c8   0x080064c8   0x00000016   Code   RO         1402    .text.usart_interrupt_enable  gd32f30x_usart.o
    0x080064de   0x080064de   0x00000002   PAD
    0x080064e0   0x080064e0   0x00000012   Code   RO         1408    .text.usart_interrupt_flag_clear  gd32f30x_usart.o
    0x080064f2   0x080064f2   0x00000002   PAD
    0x080064f4   0x080064f4   0x00000022   Code   RO         1406    .text.usart_interrupt_flag_get  gd32f30x_usart.o
    0x08006516   0x08006516   0x00000002   PAD
    0x08006518   0x08006518   0x00000010   Code   RO         1314    .text.usart_parity_config  gd32f30x_usart.o
    0x08006528   0x08006528   0x00000014   Code   RO         1326    .text.usart_receive_config  gd32f30x_usart.o
    0x0800653c   0x0800653c   0x00000010   Code   RO         1318    .text.usart_stop_bit_set  gd32f30x_usart.o
    0x0800654c   0x0800654c   0x00000014   Code   RO         1324    .text.usart_transmit_config  gd32f30x_usart.o
    0x08006560   0x08006560   0x00000010   Code   RO         1316    .text.usart_word_length_set  gd32f30x_usart.o
    0x08006570   0x08006570   0x00000020   Code   RO         1791    i.__0printf         mc_w.l(printfa.o)
    0x08006590   0x08006590   0x0000000e   Code   RO         1916    i.__scatterload_copy  mc_w.l(handlers.o)
    0x0800659e   0x0800659e   0x00000002   Code   RO         1917    i.__scatterload_null  mc_w.l(handlers.o)
    0x080065a0   0x080065a0   0x0000000e   Code   RO         1918    i.__scatterload_zeroinit  mc_w.l(handlers.o)
    0x080065ae   0x080065ae   0x00000002   PAD
    0x080065b0   0x080065b0   0x00000184   Code   RO         1798    i._fp_digits        mc_w.l(printfa.o)
    0x08006734   0x08006734   0x000006dc   Code   RO         1799    i._printf_core      mc_w.l(printfa.o)
    0x08006e10   0x08006e10   0x00000024   Code   RO         1800    i._printf_post_padding  mc_w.l(printfa.o)
    0x08006e34   0x08006e34   0x0000002e   Code   RO         1801    i._printf_pre_padding  mc_w.l(printfa.o)
    0x08006e62   0x08006e62   0x0000000c   Data   RO         1901    .constdata          mc_w.l(localtime_i.o)
    0x08006e6e   0x08006e6e   0x00000080   Data   RO          305    .rodata.ExCvt       ff.o
    0x08006eee   0x08006eee   0x0000000d   Data   RO          306    .rodata.LfnOfs      ff.o
    0x08006efb   0x08006efb   0x00000008   Data   RO         1017    .rodata.cst8        gd32f30x_rcu.o
    0x08006f03   0x08006f03   0x00000001   PAD
    0x08006f04   0x08006f04   0x00000030   Data   RO          374    .rodata.g_GpioList  key_drv.o
    0x08006f34   0x08006f34   0x00000024   Data   RO          392    .rodata.g_ledList   led_drv.o
    0x08006f58   0x08006f58   0x000000c8   Data   RO          420    .rodata.g_ntcAdcTable  ntc_drv.o
    0x08007020   0x08007020   0x000001d4   Data   RO          463    .rodata.g_rhAdcTable  rh_drv.o
    0x080071f4   0x080071f4   0x0000009c   Data   RO            9    .rodata.str1.1      fatfs_app.o
    0x08007290   0x08007290   0x00000003   Data   RO          307    .rodata.str1.1      ff.o
    0x08007293   0x08007293   0x00000001   PAD
    0x08007294   0x08007294   0x0000001c   Data   RO          301    .rodata.str2.2      ff.o
    0x080072b0   0x080072b0   0x000002ae   Data   RO          324    .rodata.str2.2      ffunicode.o
    0x0800755e   0x0800755e   0x00000100   Data   RO          323    .rodata.uc437       ffunicode.o
    0x0800765e   0x0800765e   0x00000002   PAD
    0x08007660   0x08007660   0x00000020   Data   RO         1915    Region$$Table       anon$$obj.o


    Execution Region RW_IRAM1 (Exec base: 0x20000000, Load base: 0x08007680, Size: 0x00006388, Max: 0x00010000, ABSOLUTE)

    Exec Addr    Load Addr    Size         Type   Attr      Idx    E Section Name        Object

    0x20000000   0x08007680   0x00000004   Data   RW         1879    .data               mc_w.l(stdout.o)
    0x20000004   0x08007684   0x0000001c   Data   RW          602    .data.g_Usb2ComInfo  usb2com_drv.o
    0x20000020   0x080076a0   0x00000024   Data   RW           32    .data.g_taskComps   main.o
    0x20000044   0x080076c4   0x00000004   PAD
    0x20000048        -       0x0000002c   Zero   RW         1898    .bss                mc_w.l(localtime_w.o)
    0x20000074        -       0x00000010   Zero   RW          299    .bss.FatFs          ff.o
    0x20000084        -       0x00000002   Zero   RW          303    .bss.Fsid           ff.o
    0x20000086        -       0x00000200   Zero   RW          304    .bss.LfnBuf         ff.o
    0x20000286        -       0x00000001   Zero   RW          421    .bss.PushTemp10MulToBuf.s_index  ntc_drv.o
    0x20000287   0x080076c4   0x00000001   PAD
    0x20000288        -       0x00000002   Zero   RW          460    .bss.TIMER4_IRQHandler.s_timingNum  rh_drv.o
    0x2000028a        -       0x00000001   Zero   RW          417    .bss.TempSensorProc.s_convertNum  ntc_drv.o
    0x2000028b   0x080076c4   0x00000001   PAD
    0x2000028c        -       0x00000002   Zero   RW          461    .bss.g_adcVal       rh_drv.o
    0x2000028e   0x080076c4   0x00000002   PAD
    0x20000290        -       0x00001038   Zero   RW            8    .bss.g_fatfs        fatfs_app.o
    0x200012c8        -       0x00000001   Zero   RW           10    .bss.g_fatfsInitFlag  fatfs_app.o
    0x200012c9        -       0x00000001   Zero   RW          462    .bss.g_humiData     rh_drv.o
    0x200012ca   0x080076c4   0x00000006   PAD
    0x200012d0        -       0x00000040   Zero   RW          375    .bss.g_keyInfoList  key_drv.o
    0x20001310        -       0x00000004   Zero   RW          603    .bss.g_pProcUartData  usb2com_drv.o
    0x20001314        -       0x00000004   Zero   RW          583    .bss.g_pTaskScheduleFunc  systick.o
    0x20001318        -       0x0000102c   Zero   RW           11    .bss.g_sensorFile   fatfs_app.o
    0x20002344   0x080076c4   0x00000004   PAD
    0x20002348        -       0x00000008   Zero   RW          584    .bss.g_systemRunTime  systick.o
    0x20002350        -       0x00000004   Zero   RW          419    .bss.g_temp         ntc_drv.o
    0x20002354        -       0x00000028   Zero   RW          418    .bss.g_temp10MulBuf  ntc_drv.o
    0x2000237c        -       0x00000004   Zero   RW           92    .bss.pxMBFrameCBByteReceived  mb.o
    0x20002380        -       0x00000004   Zero   RW           93    .bss.pxMBFrameCBTransmitterEmpty  mb.o
    0x20002384        -       0x00000004   Zero   RW           94    .bss.pxMBPortCBTimerExpired  mb.o
    0x20002388        -       0x00004000   Zero   RW         1479    STACK               startup_gd32f30x_hd.o


==============================================================================

Image component sizes


      Code (inc. data)   RO Data    RW Data    ZI Data      Debug   Object Name

       100          0          0          0          0       2282   delay.o
       276          0          0          0          0       2641   diskio.o
       584         52        156          0       8293       3554   fatfs_app.o
     13594        264        172          0        530      69151   ff.o
       284         10        942          0          0       2285   ffunicode.o
       660          0          0          0          0       9350   gd32f30x_adc.o
       116          0          0          0          0       4904   gd32f30x_bkp.o
       222          0          0          0          0       5788   gd32f30x_gpio.o
        16          0          0          0          0        939   gd32f30x_it.o
       164          0          0          0          0       3552   gd32f30x_misc.o
        18          0          0          0          0       5388   gd32f30x_pmu.o
       816         20          8          0          0      13874   gd32f30x_rcu.o
       128          0          0          0          0       2652   gd32f30x_rtc.o
       440          0          0          0          0      20497   gd32f30x_timer.o
       432          0          0          0          0      11451   gd32f30x_usart.o
       284         84          0          0          0       1379   hmi_app.o
       272          4         48          0         64       3128   key_drv.o
       118          0         36          0          0       2570   led_drv.o
       152          0          0         36          0       1451   main.o
         0          0          0          0         12       4808   mb.o
      2238          0          0          0          0       8497   norflash_drv.o
       510          0        200          0         46       6215   ntc_drv.o
        90          0          0          0          0       4228   portserial.o
        56          0          0          0          0       2767   porttimer.o
       730          0        468          0          5       5686   rh_drv.o
       188          0          0          0          0       3969   rtc_drv.o
         4          0          0          0          0        474   sensor_app.o
        70          0          0          0          0       1119   sensor_drv.o
        36          8        304          0      16384        872   startup_gd32f30x_hd.o
       424          0          0          0          0       2521   system_gd32f30x.o
       136          0          0          0         12       4118   systick.o
       232          0          0         28          4       4261   usb2com_drv.o

    ----------------------------------------------------------------------
     23548        442       2370         64      25368     216371   Object Totals
         0          0         32          0          0          0   (incl. Generated)
       158          0          4          0         18          0   (incl. Padding)

    ----------------------------------------------------------------------

      Code (inc. data)   RO Data    RW Data    ZI Data      Debug   Library Member Name

         0          0          0          0          0          0   entry.o
         0          0          0          0          0          0   entry10a.o
         0          0          0          0          0          0   entry11a.o
         8          4          0          0          0          0   entry2.o
         4          0          0          0          0          0   entry5.o
         0          0          0          0          0          0   entry7b.o
         0          0          0          0          0          0   entry8b.o
         8          4          0          0          0          0   entry9a.o
        30          0          0          0          0          0   handlers.o
        48         10          0          0          0         68   init.o
         0          0          0          0          0          0   iusefp.o
        30          0          0          0          0         68   llshl.o
        36          0          0          0          0         68   llsshr.o
        32          0          0          0          0         68   llushr.o
       140          6         12          0          0         76   localtime_i.o
        12          6          0          0         44         68   localtime_w.o
        20          0          0          0          0         68   memchr.o
        26          0          0          0          0         80   memcmp.o
        36          0          0          0          0         68   memcpya.o
        36          0          0          0          0        108   memseta.o
      2258         90          0          0          0        452   printfa.o
       156          0          0          0          0         88   qsort.o
         0          0          0          4          0          0   stdout.o
        14          0          0          0          0         68   strlen.o
        44          0          0          0          0         80   uidiv.o
        98          0          0          0          0         92   uldiv.o
        48          0          0          0          0         68   cdrcmple.o
       334          0          0          0          0        148   dadd.o
        56          0          0          0          0         80   dcmpeq.o
        54          0          0          0          0         80   dcmpge.o
        54          0          0          0          0         80   dcmplt.o
       222          0          0          0          0        100   ddiv.o
       186          0          0          0          0        176   depilogue.o
        62          0          0          0          0         80   dfixi.o
        48          0          0          0          0         68   dfixul.o
        34          0          0          0          0         76   dflti.o
       228          0          0          0          0         96   dmul.o
        38          0          0          0          0         68   f2d.o

    ----------------------------------------------------------------------
      4406        120         12          4         44       2640   Library Totals
         6          0          0          0          0          0   (incl. Padding)

    ----------------------------------------------------------------------

      Code (inc. data)   RO Data    RW Data    ZI Data      Debug   Library Name

      3036        120         12          4         44       1520   mc_w.l
      1364          0          0          0          0       1120   mf_w.l

    ----------------------------------------------------------------------
      4406        120         12          4         44       2640   Library Totals

    ----------------------------------------------------------------------

==============================================================================


      Code (inc. data)   RO Data    RW Data    ZI Data      Debug   

     27954        562       2382         68      25412     217179   Grand Totals
     27954        562       2382         68      25412     217179   ELF Image Totals
     27954        562       2382         68          0          0   ROM Totals

==============================================================================

    Total RO  Size (Code + RO Data)                30336 (  29.62kB)
    Total RW  Size (RW Data + ZI Data)             25480 (  24.88kB)
    Total ROM Size (Code + RO Data + RW Data)      30404 (  29.69kB)

==============================================================================

