:020000040800F2
:1000000030100020450100084D0100084F01000894
:1000100051010008530100085501000800000000CC
:100020000000000000000000000000005701000870
:1000300059010008000000005B01000819050008D4
:100040005F0100085F0100085F0100085F01000810
:100050005F0100085F0100085F0100085F01000800
:100060005F0100085F0100085F0100085F010008F0
:100070005F0100085F0100085F0100085F010008E0
:100080005F0100085F0100085F0100085F010008D0
:100090005F0100085F0100085F0100085F010008C0
:1000A0005F0100085F0100085F0100085F010008B0
:1000B0005F0100085F0100085F0100085F010008A0
:1000C0005F0100085F0100085F0100085F01000890
:1000D0005F010008310700085F0100085F010008A8
:1000E0005F0100085F0100085F0100085F01000870
:1000F0005F0100085F0100085F0100085F01000860
:100100005F0100085F0100085F0100085F0100084F
:100110005F0100085F0100085F0100085F0100083F
:100120005F0100085F0100085F0100085F0100082F
:10013000DFF80CD000F04AF8004800476D0A0008CC
:10014000301000200648804706480047FEE7FEE7DB
:10015000FEE7FEE7FEE7FEE7FEE7FEE7FEE7FEE777
:1001600041050008310100082DE9F05F0546002037
:1001700092469B4688460646814640241BE0284618
:1001800041464746224600F048F853465A46C01AB0
:10019000914110D311461846224600F02FF82D1A2F
:1001A00067EB01084F4622460120002100F026F8A7
:1001B00017EB00094E41201EA4F10104DFDC484684
:1001C00031462A464346BDE8F09F00001CB5094869
:1001D0000090094801900546009C06E0E06840F068
:1001E000010394E8070098471034AC42F6D3FFF7B8
:1001F000A3FF00007C130008AC130008202A04DBD6
:10020000203A00FA02F1002070479140C2F1200329
:1002100020FA03F3194390407047202A04DB203A68
:1002200021FA02F00021704721FA02F3D040C2F116
:100230002002914008431946704700004EF6FC50DA
:10024000CEF20000016821F080710160016841F088
:100250008071016041F20000CEF20000016821F0DF
:1002600001010160016841F001010160002141606C
:10027000704700002DE9F04141F2EF24C0F6000480
:10028000204601F019F83BA001F016F8204601F0D5
:1002900013F842A001F010F840F2000741F2E72500
:1002A00041F2E4260024C6F60047C0F60005C0F679
:1002B000000602E00134FF2C0AD0284621463C55B6
:1002C00000F0A8FD2007F5D1304600F0A3FDF1E7CE
:1002D0003BA000F0F1FF397851B141F2E720C0F6C0
:1002E000000000F097FD41F25D34C0F600043BE0F1
:1002F00041F2E72441F2E4280025C0F60004C0F6EC
:1003000000080026204600F085FD280702D140465F
:1003100000F080FD0136FF2E13D0B95D01358E420D
:10032000F0D041F2E720C0F6000000F073FD41F28A
:100330005D30C0F6000000F0BFFFFF2E18BFBDE823
:10034000F08141F21330C0F6000000F0B5FF41F239
:10035000EF24C0F60004204600F0AEFF41F2383032
:10036000C0F6000000F0A8FF2046BDE8F04100F014
:10037000A3BF00BF2A2A2A2A2A2A2A2ACDE2B2BFEC
:100380005352414DB2E2CAD4B3CCD0F2BFAACABCD8
:100390002A2A2A2A2A2A2A2A000000002A2A2A2A65
:1003A0002A2A2A45786D63205372616D2069732073
:1003B0007772697474696E672A2A2A2A2A2A2A009F
:1003C0000A2A2A2A2A2A2A2A45786D63205372612A
:1003D0006D2069732072656164696E672A2A2A2A12
:1003E0002A2A2A00F0B597B040F2036000F004FC1E
:1003F00040F2056000F000FC40F2066000F0FCFBFB
:1004000040F2076000F0F8FB4FF4C16000F0F4FB2D
:1004100041F20044C4F2010404F5006528461821A5
:1004200003223F23032700F0C5FA284618210322A0
:100430004FF4704300F0BEFA04F5406528461821D9
:1004400003223F2300F0B6FA2046182103224FF47E
:10045000605300F0AFFA2046182103224CF2030348
:1004600000F0A8FA04F580663046182103224FF602
:10047000807300F09FFA2046182103224FF4E063B6
:1004800000F098FA204618210322802300F092FA07
:100490002846182103224FF4B05300F08BFA30465F
:1004A00018210322032300F085FA20461821032295
:1004B0001023102500F07EFA204618210322202365
:1004C00000F078FA4FF4A16000F096FB032000F0F2
:1004D00091F9042114910221002011910121109021
:1004E000CDE91500CDE91200CDE90170CDE9030099
:1004F0000590CDE90610CDE90800CDE90A05CDE962
:100500000C0010A80E9001A800F096F9032000F04E
:1005100089F917B0F0BD000040F22800C2F20000D7
:10052000D0E90012013142F10002C0E9001240F2AC
:100530002400C2F200000068002808BF704700478E
:1005400081B04EF68851CEF200010A6841F2040CE7
:1005500042F47002C4F2020C0A605CF8041C41F020
:1005600001014CF8041C00BF5CF8041C8907FBD592
:10057000DCF8001041F08001CCF80010002100915F
:10058000009A4F2A06D800BF009A01320092009AC2
:10059000502AF9D3DCF8002042F09002CCF8002079
:1005A000009100994F2905D80099013100910099D7
:1005B0005029F9D3DCF800104FF6FF7221F0030147
:1005C000CCF800105CF8041CCFF6F66211404CF831
:1005D000041C4FF41F01CCF804105CF8041C21F437
:1005E00080214CF8041C0021CCF80010CCF8281015
:1005F0005CF8042C42F480324CF8042C4FF6FE7266
:100600005CF8040C013A41F10003800301D4002B93
:10061000F6D15CF8040C800301D400BFFEE7DCF8DF
:10062000180047F2000140F08050C4F20001CCF8FD
:10063000180008684FF6FF7240F440400860DCF88C
:100640000000CBF2C372CCF80000DCF80000CCF85C
:100650000000DCF8000040F48060CCF80000DCF81A
:10066000000020F44030CCF80000DCF8000040F43A
:100670004030CCF80000DCF800001040CCF800005E
:10068000DCF8000040F0006040F45010CCF80000AE
:100690005CF8040C40F080704CF8040C5CF8040C1E
:1006A0008001FBD5086840F4803008604868C003CA
:1006B000FCD5086840F40030086000BF486880033B
:1006C000FCD5DCF8000020F00300CCF80000DCF8DA
:1006D000000040F00200CCF8000000BFDCF8000091
:1006E0000007FBD501B0704780B5012000F01CFA6F
:1006F00044F6D351C1F26201A0FB01014FF0FF307B
:1007000000EB9110B0F1807F10D24EF21001CEF2CA
:10071000000148604EF62350CEF20000F022027035
:10072000002088600720086080BD00BFFEE7000051
:10073000B0B540F20405C2F2000540F20534286865
:10074000C0F20504214600F027FB002808BFB0BD19
:100750002868214600F016FB286800F0B3FA40F242
:100760002001C2F200010968C0B2BDE8B0400847EC
:1007700010B540F20404C2F20004A08900F03CFA73
:10078000A06823691821012200F014F9A0686369A8
:100790004821012200F00EF9A08800F02DFA20680F
:1007A00000F098FA2068002100F02CFB206800215E
:1007B00000F004FB2068002100F012FB20684FF4D9
:1007C000E13100F049FA2068082100F011FB2068AF
:1007D000042100F0FBFA206840F2053100F0C6FA6F
:1007E000207E0021002200F04DF92068BDE8104075
:1007F00000F0AEBA4FF02041002819BF43F2D202F8
:1008000041F8302043F2DB020A600421CAF2000101
:1008100001EBC0026FF0704341F83030C2F8003194
:10082000704700004FF0204151F8302042F00102A3
:1008300041F83020704700002DE9F04F8FB0C168BB
:1008400090E8080A0E910169446B0B914169BBF174
:10085000010F0A9181690991C1690891016A0791A3
:10086000416A0691816A0591D0E90B8104914FF0AC
:10087000204151F833A0616994E84050D4E903570E
:100880000C91A1690D9127D1846B0395E1687546A0
:10089000D4E9052ECDE9011323692468AEF10101E5
:1008A000AE46F025009405EB0215019C01F00F0106
:1008B000EDB24FF4702229444FF47F4502EB04421D
:1008C000009C05EB0325ADB22143029B02F470228C
:1008D0002943039D114301E06FF070418122CFF65F
:1008E000F772049C02EA0A0242EA4402059CB8F14B
:1008F000080F42EA0402069C42EA0422079C42EAEC
:100900000402089C42EA8422099C42EA04020A9CEE
:1009100042EA04320B9C42EA44320E9C42EA8B3299
:1009200042EAC43242EA090242EA08024FF0204495
:1009300008BF42F0400244F833200C9BF02202EB47
:1009400003120D9BD2B2013B03F00F031A444FF484
:100950007F4303EB07234FF4702742EA0E029BB25A
:1009600007EB05471A4342EA0C0207F470231A43C7
:10097000036804273243CAF2000747F833200068AF
:1009800007EBC000C0F800110FB0BDE8F08F000009
:10099000B0B540F20405C2F2000504462868E1B291
:1009A00000F094F92868072100F0D8F90028F9D060
:1009B0002046B0BD2DE9F047CF0601F00F0C09D558
:1009C000042A05D1C26B4CF0030C1A43C26301E048
:1009D0004CEA020C00F1100E00F1140A00244FF052
:1009E00001094FF00F0800270EE000BF166008FA5B
:1009F00004F225EA02020CFA04F52A4302600137E8
:100A0000082F04F104040CD009FA07F212EA0306D5
:100A1000F5D0056828295246E8D04829E7D1724622
:100A2000E4E7082400254FF001094FF00F080FE01C
:100A3000176008FA05F226EA02020CFA05F63243BC
:100A400042600134102C05F1040508BFBDE8F087B1
:100A500009FA04F212EA0307F3D04668282952463D
:100A6000E6D04829E5D17246E2E70000FFF7E6FB51
:100A7000FFF73AFEFFF77CFEFFF7B4FCFFF7FAFB47
:100A8000FEE700004EF60C5CCEF2000CDCF8003005
:100A900003F4E063B3F5E06F01D1042328E0DCF850
:100AA000003003F4E063B3F5C06F01D103231FE00E
:100AB000DCF8003003F4E063B3F5A06F17D0DCF886
:100AC000003003F4E063B3F5806F01D101230FE040
:100AD000DCF8003003F4E063B3F5407F01D100237C
:100AE00006E040F20053C0F2FA53CCF80030022383
:100AF00001FA03FCC3F104030F21D94011404EF267
:100B0000001241EA0C01CEF20002090140EA0203A0
:100B100083F8001300F01F01012303FA01F11C23E5
:100B200003EAD0008150704710B541F20404C4F2CA
:100B30000204216801F00C01082941F20021C0F2F1
:100B40007A012BD12368DB0304D440F6001CC0F2E9
:100B50003D0C0DE0A36AD4F800C05B0046F60043EC
:100B6000C0F2DC2358BF0B46CCF3404123FA01FC12
:100B700023682168C3F3834E102303EAD15123680D
:100B80008E44202101EA536171440B463F2918BF6E
:100B900001330F2938BF8B1C03FB0CF1236812A211
:100BA000C3F30313D35C226841F2DC2CC2F30222AC
:100BB000C0F6000C1CF802E02268032807D821FACE
:100BC00003F3DFE800F00F020609184610BD00200D
:100BD00010BD23FA0EF010BDC2F3C2201CF80000B5
:100BE00023FA00F1084610BD0000000000000000DC
:100BF000010203040607080941F2000300F01F0187
:100C00008009C4F202034FF0010CC2580CFA01F142
:100C10001143C1507047000041F2000300F01F0172
:100C20008009C4F202034FF0010CC2580CFA01F122
:100C300022EA0101C150704741F2000300F01F0198
:100C40008009C4F202034FF0010CC2580CFA01F102
:100C50001143C15070470000B0B5044644F6FF3060
:100C6000C4F200000D4684424FF0000013DD44F64C
:100C70000041C4F200018C4219D045F20001C4F2D7
:100C800000018C4213D043F60001C4F201018C42F2
:100C900010D103200CE044F20041C4F200018C4268
:100CA00005D044F60001C4F200018C4202D10220BA
:100CB000FFF73AFF00EB5500B0FBF5F080B2A06003
:100CC000B0BD000040686FF35F2070476FF35F2195
:100CD0004160704710B544F6FF31C4F2000188420C
:100CE00015DD44F60041C4F2000188421ED045F2F1
:100CF0000001C4F2000188421BD043F60001C4F297
:100D00000101884218BF10BD40F20E3416E044F2D3
:100D10000041C4F2000188420ED044F60001C4F242
:100D20000001884212D140F2124407E040F213441D
:100D300004E040F2144401E040F211442046FFF781
:100D40007BFF2046BDE81040FFF766BF10BD0000E6
:100D5000C16841F40051C160704700008A09105811
:100D600001F01F01C84000F00100704701F01F02B0
:100D700089094FF0010C0B580CFA02F21A430A5081
:100D800070470000C1F30442012303FA02F2D24388
:100D9000890D0A5070470000C1F3891252F800C053
:100DA0008A0D105801F01F03C1F30441C8402CFA0A
:100DB00003F1084000F0010070470000C26822F40F
:100DC000C062C260C2681143C1607047C26801F06E
:100DD000040122F00402C260C2681143C16070477E
:100DE000026922F4405202610269114301617047B5
:100DF000C26801F0080122F00802C260C268114313
:100E0000C1607047C26822F48052C260C268114358
:100E1000C16070470FB4054B10B503A9044A02988E
:100E200000F018F810BC5DF814FB000091090008F0
:100E30000000002002E008C8121F08C1002AFAD1F1
:100E400070477047002001E001C1121F002AFBD14A
:100E5000704700002DE9FF4F8DB00F460546002674
:100E600006E025280BD0DDE90F1290476D1C761C9B
:100E700028780028F5D111B03046BDE8F08F002465
:100E8000A246A1460122EC4900E0044315F8013FC7
:100E9000203B02FA03F00842F7D128782A2810D024
:100EA0006FF02F022878A0F13001092914D80AEB3D
:100EB0008A0102EB410144F0020400EB010A6D1CBF
:100EC000F0E701CF5FEA000A03D544F40054CAF109
:100ED000000A44F002046D1C28782E2817D115F85A
:100EE000010F44F004042A280ED06FF02F02287856
:100EF000A0F1300109290AD809EB890102EB41016F
:100F000000EB01096D1CF2E757F8049B6D1C287873
:100F10006C280FD006DC4C2817D068280DD06A2822
:100F200014D104E0742810D07A280FD10DE044F4D5
:100F300000140AE044F4801401E044F44014697899
:100F4000814202D104F580146D1C6D1C2A786E2A32
:100F50001FD00CDC632A31D004DC002A8BD0582A45
:100F600011D1A3E0642A68D0692A0CD165E0732A04
:100F70002ED004DC6F2A73D0702A04D19BE0752A2E
:100F80006FD0782A6ED01046DDE90F129047761C9C
:100F900050E1C4F30250022806D0032809D00428E7
:100FA00001CF09D0066045E101CFF117C0E900612A
:100FB00040E101CF06803DE106703BE117F8040BEC
:100FC0008DF8000000208DF80100EB46012003E0C1
:100FD00057F804BB4FF0FF3061074FF0000102D417
:100FE0000DE008F10101884649450FDA8045F8DB3C
:100FF0001BF808100029F4D108E008F10101884627
:101000008142FADB1BF808100029F6D1DDE90F2335
:10101000AAEB08008146214600F036F9304400EB87
:10102000080604E0DDE90F121BF8010B9047B8F148
:101030000108F7D221464846F7E00A21C4F30253DB
:101040004FF0000B0891022B04D001CFC117032BE6
:1010500009D00AE0FF1D27F00707F7E8020108E0C2
:1010600032E01FE020E000B2C117042B01D140B2F2
:10107000C117031E71F1000307DA4FF0000CD0EB2B
:101080000C006CEB01012D2302E0230504D52B237A
:101090008DF82430012303E0E30701D02023F7E794
:1010A000984658E00A2110E010210EE010204FF081
:1010B000000B08900CE010214FF0000B44F00404EA
:1010C0004FF00809089103E008214FF0000B089148
:1010D000C4F30253022B04D001CF0021032B06D00E
:1010E00006E0FF1D27F00707F7E8020103E080B2E2
:1010F000042B00D1C0B24FF0000823072BD5702A73
:1011000007D0DDF820C08CF0100C5CEA0B0C05D089
:101110000EE040238DF82430012308E050EA01035B
:1011200006D030238DF824308DF8252002239846F0
:10113000DDF820C08CF0080C5CEA0B0C0BD150EAF7
:10114000010301D1630706D530238DF824304FF019
:101150000108A9F10109582A04D038A20B9208AA63
:101160000A920BE03AA2F9E75B46089AFEF7FCFF09
:101170000B9B9B5C0A9A521E0A92137050EA010262
:10118000F2D10A98ADEB000000F1200B600702D508
:1011900024F4803401E04FF00109D94502DDA9EBC8
:1011A0000B0000E0002000EB0B0141440890AAEB8B
:1011B000010AE00306D4DDE90F232146504600F082
:1011C00063F806444FF0000908E009A911F8090086
:1011D000DDE90F12904709F10109761CC145F4DBE6
:1011E000E0030CD5DDE90F232146504600F04CF812
:1011F000064404E0DDE90F1230209047761C089980
:10120000481E08900029F5DC08E00A980A99007841
:10121000491C0A91DDE90F129047761CBBF10001D1
:10122000ABF1010BF1DC21465046DDE90F2300F064
:1012300019F806446D1C1BE60928010030313233D1
:101240003435363738396162636465660000000002
:1012500030313233343536373839414243444546EC
:10126000000000002DE9F041044600251E46174607
:10127000880404D405E039462020B0476D1C641E64
:10128000F9D52846BDE8F0812DE9F0410446002556
:101290001E469046C80301D5302700E02027880469
:1012A00004D505E041463846B0476D1C641EF9D5AB
:1012B0002846BDE8F081000010B5044601E0FFF7C4
:1012C00067FB14F8010B04490028F8D1BDE8104071
:1012D0000A20FFF75DBB00000000002000000000B6
:1012E000010203040A0D0030782530327820002AEC
:1012F0002A2A2A2A2A2A2A2A2A2A2A2A2A2A2A2A4E
:101300002A2A2A2A2A2A2A2A2A2A2A2A2A2A2A2A3D
:101310002A2A000A2A2A2A2A2A2A2A2A2A2A2A2A77
:101320002A2AB2E2CAD4B3C9B9A62A2A2A2A2A2A60
:101330002A2A2A2A2A2A2A002A2A2A2A2A2A2A2A37
:10134000CDE2B2BF5352414DB2E2CAD4B3CCD0F2D7
:10135000BDE1CAF82A2A2A2A2A2A2A2A000A2A2A7F
:101360002A2A2A2A2ACDE2B2BF5352414DB6C1B42D
:10137000EDCEF32A2A2A2A2A2A2A0000B0130008CE
:101380000000002020000000340E0008D0130008E8
:101390002000002010100000440E0008D0130008A8
:1013A0000000006C00010000440E00080000000076
:1013B00000000000003801400E0600000008014057
:1013C00002060000000200000004000025000000EA
:0400000508000131BD
:00000001FF
