Component: ARM Compiler 5.06 update 7 (build 960) Tool: armlink [4d3601]

==============================================================================

Section Cross References

    main.o(i.AppInit) refers to usb2com_app.o(i.Usb2ComAppInit) for Usb2ComAppInit
    main.o(i.DriverInit) refers to led_drv.o(i.LedDrvInit) for LedDrvInit
    main.o(i.DriverInit) refers to usb2com_drv.o(i.Usb2ComDrvInit) for Usb2ComDrvInit
    main.o(i.DriverInit) refers to delay.o(i.DwtDelayInit) for DwtDelayInit
    main.o(i.main) refers to main.o(i.DriverInit) for DriverInit
    main.o(i.main) refers to main.o(i.AppInit) for AppInit
    main.o(i.main) refers to usb2com_app.o(i.Usb2ComTask) for Usb2ComTask
    main.o(i.main) refers to delay.o(i.DelayNms) for DelayNms
    usb2com_app.o(i.CtrlLed) refers to led_drv.o(i.TurnOnLed) for TurnOnLed
    usb2com_app.o(i.CtrlLed) refers to led_drv.o(i.TurnOffLed) for TurnOffLed
    usb2com_app.o(i.ProcUartData) refers to queue.o(i.QueuePush) for QueuePush
    usb2com_app.o(i.ProcUartData) refers to usb2com_app.o(.bss) for g_rcvQueue
    usb2com_app.o(i.Usb2ComAppInit) refers to usb2com_drv.o(i.RegUsb2ComCb) for RegUsb2ComCb
    usb2com_app.o(i.Usb2ComAppInit) refers to queue.o(i.QueueInit) for QueueInit
    usb2com_app.o(i.Usb2ComAppInit) refers to usb2com_app.o(i.ProcUartData) for ProcUartData
    usb2com_app.o(i.Usb2ComAppInit) refers to usb2com_app.o(.bss) for g_rcvUartDataBuf
    usb2com_app.o(i.Usb2ComTask) refers to queue.o(i.QueuePop) for QueuePop
    usb2com_app.o(i.Usb2ComTask) refers to queue.o(i.QueuePopArray) for QueuePopArray
==============================================================================

Removing Unused input sections from the image.

    Removing delay.o(.rev16_text), (4 bytes).
    Removing delay.o(.revsh_text), (4 bytes).
    Removing key_drv.o(.rev16_text), (4 bytes).
    Removing key_drv.o(.revsh_text), (4 bytes).
    Removing key_drv.o(i.GetKeyValue), (34 bytes).
    Removing key_drv.o(i.KeyDrvInit), (64 bytes).
    Removing key_drv.o(i.KeyScan), (256 bytes).
    Removing key_drv.o(.bss), (64 bytes).
    Removing key_drv.o(.data), (48 bytes).
    Removing led_drv.o(.rev16_text), (4 bytes).
    Removing led_drv.o(.revsh_text), (4 bytes).
    Removing led_drv.o(i.ToggleLed), (84 bytes).
    Removing systick.o(.rev16_text), (4 bytes).
    Removing systick.o(.revsh_text), (4 bytes).
    Removing systick.o(i.GetSystemRunTime), (12 bytes).
    Removing systick.o(i.SystickInit), (100 bytes).
    Removing usb2com_drv.o(.rev16_text), (4 bytes).
    Removing usb2com_drv.o(.revsh_text), (4 bytes).
==============================================================================

Image Symbol Table

    Local Symbols

    Symbol Name                              Value     Ov Type        Size  Object(Section)

    ../clib/microlib/division.c              0x00000000   Number         0  uidiv.o ABSOLUTE
    ../clib/microlib/division.c              0x00000000   Number         0  uldiv.o ABSOLUTE
    ../clib/microlib/init/entry.s            0x00000000   Number         0  entry12b.o ABSOLUTE
    ../clib/microlib/init/entry.s            0x00000000   Number         0  entry10a.o ABSOLUTE
    ../clib/microlib/init/entry.s            0x00000000   Number         0  entry9b.o ABSOLUTE
    ../clib/microlib/init/entry.s            0x00000000   Number         0  entry7b.o ABSOLUTE
    ../clib/microlib/init/entry.s            0x00000000   Number         0  entry.o ABSOLUTE
    ../clib/microlib/init/entry.s            0x00000000   Number         0  entry2.o ABSOLUTE
    ../clib/microlib/init/entry.s            0x00000000   Number         0  entry9a.o ABSOLUTE
    ../clib/microlib/init/entry.s            0x00000000   Number         0  entry5.o ABSOLUTE
    ../clib/microlib/init/entry.s            0x00000000   Number         0  entry8b.o ABSOLUTE
    ../clib/microlib/init/entry.s            0x00000000   Number         0  entry8a.o ABSOLUTE
    ../clib/microlib/init/entry.s            0x00000000   Number         0  entry7a.o ABSOLUTE
    ../clib/microlib/init/entry.s            0x00000000   Number         0  entry12a.o ABSOLUTE
    ../clib/microlib/init/entry.s            0x00000000   Number         0  entry11b.o ABSOLUTE
    ../clib/microlib/init/entry.s            0x00000000   Number         0  entry11a.o ABSOLUTE
    ../clib/microlib/init/entry.s            0x00000000   Number         0  entry10b.o ABSOLUTE
    ../clib/microlib/longlong.c              0x00000000   Number         0  llsshr.o ABSOLUTE
    ../clib/microlib/longlong.c              0x00000000   Number         0  llushr.o ABSOLUTE
    ../clib/microlib/longlong.c              0x00000000   Number         0  llshl.o ABSOLUTE
    ../clib/microlib/printf/printf.c         0x00000000   Number         0  printf8.o ABSOLUTE
    ../clib/microlib/printf/printf.c         0x00000000   Number         0  printfa.o ABSOLUTE
    ../clib/microlib/printf/printf.c         0x00000000   Number         0  printf3.o ABSOLUTE
    ../clib/microlib/printf/printf.c         0x00000000   Number         0  printf4.o ABSOLUTE
    ../clib/microlib/printf/printf.c         0x00000000   Number         0  printf5.o ABSOLUTE
    ../clib/microlib/printf/printf.c         0x00000000   Number         0  printfb.o ABSOLUTE
    ../clib/microlib/printf/printf.c         0x00000000   Number         0  printf2.o ABSOLUTE
    ../clib/microlib/printf/printf.c         0x00000000   Number         0  printf0.o ABSOLUTE
    ../clib/microlib/printf/printf.c         0x00000000   Number         0  printf1.o ABSOLUTE
    ../clib/microlib/printf/printf.c         0x00000000   Number         0  printf6.o ABSOLUTE
    ../clib/microlib/printf/printf.c         0x00000000   Number         0  printf7.o ABSOLUTE
    ../clib/microlib/printf/stubs.s          0x00000000   Number         0  stubs.o ABSOLUTE
    ../clib/microlib/stdio/streams.c         0x00000000   Number         0  stdout.o ABSOLUTE
    ../clib/microlib/stubs.s                 0x00000000   Number         0  iusefp.o ABSOLUTE
    ../fplib/microlib/fpadd.c                0x00000000   Number         0  dadd.o ABSOLUTE
    ../fplib/microlib/fpdiv.c                0x00000000   Number         0  ddiv.o ABSOLUTE
    ../fplib/microlib/fpepilogue.c           0x00000000   Number         0  depilogue.o ABSOLUTE
    ../fplib/microlib/fpfix.c                0x00000000   Number         0  dfixul.o ABSOLUTE
    ../fplib/microlib/fpmul.c                0x00000000   Number         0  dmul.o ABSOLUTE
    App\main.c                               0x00000000   Number         0  main.o ABSOLUTE
    App\usb2com_app.c                        0x00000000   Number         0  usb2com_app.o ABSOLUTE
    Arm\\system_gd32f30x.c                   0x00000000   Number         0  system_gd32f30x.o ABSOLUTE
    Arm\startup_gd32f30x_hd.s                0x00000000   Number         0  startup_gd32f30x_hd.o ABSOLUTE
    Arm\system_gd32f30x.c                    0x00000000   Number         0  system_gd32f30x.o ABSOLUTE
    Driver\\delay.c                          0x00000000   Number         0  delay.o ABSOLUTE
    Driver\\key_drv.c                        0x00000000   Number         0  key_drv.o ABSOLUTE
    Driver\\led_drv.c                        0x00000000   Number         0  led_drv.o ABSOLUTE
    Driver\\systick.c                        0x00000000   Number         0  systick.o ABSOLUTE
    Driver\\usb2com_drv.c                    0x00000000   Number         0  usb2com_drv.o ABSOLUTE
    Driver\delay.c                           0x00000000   Number         0  delay.o ABSOLUTE
    Driver\key_drv.c                         0x00000000   Number         0  key_drv.o ABSOLUTE
    Driver\led_drv.c                         0x00000000   Number         0  led_drv.o ABSOLUTE
    Driver\queue.c                           0x00000000   Number         0  queue.o ABSOLUTE
    Driver\systick.c                         0x00000000   Number         0  systick.o ABSOLUTE
    Driver\usb2com_drv.c                     0x00000000   Number         0  usb2com_drv.o ABSOLUTE
    GD32_Hal\Source\gd32f30x_gpio.c          0x00000000   Number         0  gd32f30x_gpio.o ABSOLUTE
    GD32_Hal\Source\gd32f30x_misc.c          0x00000000   Number         0  gd32f30x_misc.o ABSOLUTE
    GD32_Hal\Source\gd32f30x_rcu.c           0x00000000   Number         0  gd32f30x_rcu.o ABSOLUTE
    GD32_Hal\Source\gd32f30x_usart.c         0x00000000   Number         0  gd32f30x_usart.o ABSOLUTE
    GD32_Hal\\Source\\gd32f30x_gpio.c        0x00000000   Number         0  gd32f30x_gpio.o ABSOLUTE
    GD32_Hal\\Source\\gd32f30x_misc.c        0x00000000   Number         0  gd32f30x_misc.o ABSOLUTE
    GD32_Hal\\Source\\gd32f30x_rcu.c         0x00000000   Number         0  gd32f30x_rcu.o ABSOLUTE
    GD32_Hal\\Source\\gd32f30x_usart.c       0x00000000   Number         0  gd32f30x_usart.o ABSOLUTE
    cdrcmple.s                               0x00000000   Number         0  cdrcmple.o ABSOLUTE
    dc.s                                     0x00000000   Number         0  dc.o ABSOLUTE
    handlers.s                               0x00000000   Number         0  handlers.o ABSOLUTE
    init.s                                   0x00000000   Number         0  init.o ABSOLUTE
    RESET                                    0x08000000   Section      304  startup_gd32f30x_hd.o(RESET)
    .ARM.Collect$$$$00000000                 0x08000130   Section        0  entry.o(.ARM.Collect$$$$00000000)
    .ARM.Collect$$$$00000001                 0x08000130   Section        4  entry2.o(.ARM.Collect$$$$00000001)
    .ARM.Collect$$$$00000004                 0x08000134   Section        4  entry5.o(.ARM.Collect$$$$00000004)
    .ARM.Collect$$$$00000008                 0x08000138   Section        0  entry7b.o(.ARM.Collect$$$$00000008)
    .ARM.Collect$$$$0000000A                 0x08000138   Section        0  entry8b.o(.ARM.Collect$$$$0000000A)
    .ARM.Collect$$$$0000000B                 0x08000138   Section        8  entry9a.o(.ARM.Collect$$$$0000000B)
    .ARM.Collect$$$$0000000E                 0x08000140   Section        4  entry12b.o(.ARM.Collect$$$$0000000E)
    .ARM.Collect$$$$0000000F                 0x08000144   Section        0  entry10a.o(.ARM.Collect$$$$0000000F)
    .ARM.Collect$$$$00000011                 0x08000144   Section        0  entry11a.o(.ARM.Collect$$$$00000011)
    .ARM.Collect$$$$00002712                 0x08000144   Section        4  entry2.o(.ARM.Collect$$$$00002712)
    __lit__00000000                          0x08000144   Data           4  entry2.o(.ARM.Collect$$$$00002712)
    .text                                    0x08000148   Section       36  startup_gd32f30x_hd.o(.text)
    $v0                                      0x08000148   Number         0  startup_gd32f30x_hd.o(.text)
    .text                                    0x0800016c   Section        0  uldiv.o(.text)
    .text                                    0x080001d0   Section       36  init.o(.text)
    .text                                    0x080001f4   Section        0  llshl.o(.text)
    .text                                    0x08000212   Section        0  llushr.o(.text)
    i.AppInit                                0x08000232   Section        0  main.o(i.AppInit)
    AppInit                                  0x08000233   Thumb Code     8  main.o(i.AppInit)
    i.CalXorSum                              0x0800023a   Section        0  usb2com_app.o(i.CalXorSum)
    CalXorSum                                0x0800023b   Thumb Code    26  usb2com_app.o(i.CalXorSum)
    i.CtrlLed                                0x08000254   Section        0  usb2com_app.o(i.CtrlLed)
    CtrlLed                                  0x08000255   Thumb Code    24  usb2com_app.o(i.CtrlLed)
    i.DelayNms                               0x0800026c   Section        0  delay.o(i.DelayNms)
    i.DelayNus                               0x08000284   Section        0  delay.o(i.DelayNus)
    i.DriverInit                             0x080002b0   Section        0  main.o(i.DriverInit)
    DriverInit                               0x080002b1   Thumb Code    16  main.o(i.DriverInit)
    i.DwtDelayInit                           0x080002c0   Section        0  delay.o(i.DwtDelayInit)
    i.LedDrvInit                             0x080002fc   Section        0  led_drv.o(i.LedDrvInit)
    i.ProcUartData                           0x08000358   Section        0  usb2com_app.o(i.ProcUartData)
    ProcUartData                             0x08000359   Thumb Code    14  usb2com_app.o(i.ProcUartData)
    i.QueueInit                              0x0800036c   Section        0  queue.o(i.QueueInit)
    i.QueuePop                               0x08000378   Section        0  queue.o(i.QueuePop)
    i.QueuePopArray                          0x080003a4   Section        0  queue.o(i.QueuePopArray)
    i.QueuePush                              0x080003cc   Section        0  queue.o(i.QueuePush)
    i.RegUsb2ComCb                           0x080003f4   Section        0  usb2com_drv.o(i.RegUsb2ComCb)
    i.SysTick_Handler                        0x08000400   Section        0  systick.o(i.SysTick_Handler)
    i.SystemInit                             0x08000418   Section        0  system_gd32f30x.o(i.SystemInit)
    i.TurnOffLed                             0x080004c0   Section        0  led_drv.o(i.TurnOffLed)
    i.TurnOnLed                              0x080004ec   Section        0  led_drv.o(i.TurnOnLed)
    i.USART0_IRQHandler                      0x08000518   Section        0  usb2com_drv.o(i.USART0_IRQHandler)
    i.Usb2ComAppInit                         0x08000554   Section        0  usb2com_app.o(i.Usb2ComAppInit)
    i.Usb2ComDrvInit                         0x08000574   Section        0  usb2com_drv.o(i.Usb2ComDrvInit)
    i.Usb2ComGpioInit                        0x08000584   Section        0  usb2com_drv.o(i.Usb2ComGpioInit)
    Usb2ComGpioInit                          0x08000585   Thumb Code    40  usb2com_drv.o(i.Usb2ComGpioInit)
    i.Usb2ComTask                            0x080005b0   Section        0  usb2com_app.o(i.Usb2ComTask)
    i.Usb2ComUartInit                        0x0800067c   Section        0  usb2com_drv.o(i.Usb2ComUartInit)
    Usb2ComUartInit                          0x0800067d   Thumb Code   114  usb2com_drv.o(i.Usb2ComUartInit)
    i.__0printf$8                            0x080006f4   Section        0  printf8.o(i.__0printf$8)
    i.__scatterload_copy                     0x08000714   Section       14  handlers.o(i.__scatterload_copy)
    i.__scatterload_null                     0x08000722   Section        2  handlers.o(i.__scatterload_null)
    i.__scatterload_zeroinit                 0x08000724   Section       14  handlers.o(i.__scatterload_zeroinit)
    i._printf_core                           0x08000734   Section        0  printf8.o(i._printf_core)
    _printf_core                             0x08000735   Thumb Code   984  printf8.o(i._printf_core)
    i._printf_post_padding                   0x08000b38   Section        0  printf8.o(i._printf_post_padding)
    _printf_post_padding                     0x08000b39   Thumb Code    36  printf8.o(i._printf_post_padding)
    i._printf_pre_padding                    0x08000b5c   Section        0  printf8.o(i._printf_pre_padding)
    _printf_pre_padding                      0x08000b5d   Thumb Code    46  printf8.o(i._printf_pre_padding)
    i.fputc                                  0x08000b8c   Section        0  usb2com_drv.o(i.fputc)
    i.gpio_bit_reset                         0x08000bb4   Section        0  gd32f30x_gpio.o(i.gpio_bit_reset)
    i.gpio_bit_set                           0x08000bb8   Section        0  gd32f30x_gpio.o(i.gpio_bit_set)
    i.gpio_init                              0x08000bbc   Section        0  gd32f30x_gpio.o(i.gpio_init)
    i.main                                   0x08000c78   Section        0  main.o(i.main)
    i.nvic_irq_enable                        0x08000c90   Section        0  gd32f30x_misc.o(i.nvic_irq_enable)
    i.nvic_priority_group_set                0x08000d54   Section        0  gd32f30x_misc.o(i.nvic_priority_group_set)
    i.rcu_clock_freq_get                     0x08000d68   Section        0  gd32f30x_rcu.o(i.rcu_clock_freq_get)
    i.rcu_periph_clock_enable                0x08000ec0   Section        0  gd32f30x_rcu.o(i.rcu_periph_clock_enable)
    i.rcu_periph_reset_disable               0x08000ee0   Section        0  gd32f30x_rcu.o(i.rcu_periph_reset_disable)
    i.rcu_periph_reset_enable                0x08000f00   Section        0  gd32f30x_rcu.o(i.rcu_periph_reset_enable)
    i.system_clock_120m_hxtal                0x08000f20   Section        0  system_gd32f30x.o(i.system_clock_120m_hxtal)
    system_clock_120m_hxtal                  0x08000f21   Thumb Code   258  system_gd32f30x.o(i.system_clock_120m_hxtal)
    i.system_clock_config                    0x08001034   Section        0  system_gd32f30x.o(i.system_clock_config)
    system_clock_config                      0x08001035   Thumb Code     8  system_gd32f30x.o(i.system_clock_config)
    i.usart_baudrate_set                     0x0800103c   Section        0  gd32f30x_usart.o(i.usart_baudrate_set)
    i.usart_data_receive                     0x080010cc   Section        0  gd32f30x_usart.o(i.usart_data_receive)
    i.usart_data_transmit                    0x080010d6   Section        0  gd32f30x_usart.o(i.usart_data_transmit)
    i.usart_deinit                           0x080010e0   Section        0  gd32f30x_usart.o(i.usart_deinit)
    i.usart_enable                           0x08001170   Section        0  gd32f30x_usart.o(i.usart_enable)
    i.usart_flag_get                         0x0800117a   Section        0  gd32f30x_usart.o(i.usart_flag_get)
    i.usart_interrupt_enable                 0x08001198   Section        0  gd32f30x_usart.o(i.usart_interrupt_enable)
    i.usart_interrupt_flag_clear             0x080011b2   Section        0  gd32f30x_usart.o(i.usart_interrupt_flag_clear)
    i.usart_interrupt_flag_get               0x080011c4   Section        0  gd32f30x_usart.o(i.usart_interrupt_flag_get)
    i.usart_parity_config                    0x080011fc   Section        0  gd32f30x_usart.o(i.usart_parity_config)
    i.usart_receive_config                   0x0800120c   Section        0  gd32f30x_usart.o(i.usart_receive_config)
    i.usart_stop_bit_set                     0x08001220   Section        0  gd32f30x_usart.o(i.usart_stop_bit_set)
    i.usart_transmit_config                  0x08001230   Section        0  gd32f30x_usart.o(i.usart_transmit_config)
    i.usart_word_length_set                  0x08001244   Section        0  gd32f30x_usart.o(i.usart_word_length_set)
    .data                                    0x20000000   Section       36  led_drv.o(.data)
    g_ledList                                0x20000000   Data          36  led_drv.o(.data)
    .data                                    0x20000028   Section        8  systick.o(.data)
    g_systemRunTime                          0x20000028   Data           8  systick.o(.data)
    .data                                    0x20000030   Section       32  usb2com_drv.o(.data)
    pProcUartData                            0x2000004c   Data           4  usb2com_drv.o(.data)
    .data                                    0x20000050   Section        4  stdout.o(.data)
    .bss                                     0x20000054   Section       96  usb2com_app.o(.bss)
    g_rcvUartDataBuf                         0x20000054   Data          77  usb2com_app.o(.bss)
    g_rcvQueue                               0x200000a4   Data          16  usb2com_app.o(.bss)
    STACK                                    0x200000b8   Section     1024  startup_gd32f30x_hd.o(STACK)

    Global Symbols

    Symbol Name                              Value     Ov Type        Size  Object(Section)

    BuildAttributes$$THM_ISAv4$E$P$D$K$B$S$7EM$VFPi3$EXTD16$VFPS$VFMA$PE$A:L22UL41UL21$X:L11$S22US41US21$IEEE1$IW$USESV6$~STKCKD$USESV7$~SHL$OSPACE$ROPI$EBA8$MICROLIB$REQ8$PRES8$EABIv2 0x00000000   Number         0  anon$$obj.o ABSOLUTE
    __ARM_use_no_argv                        0x00000000   Number         0  main.o ABSOLUTE
    _printf_a                                0x00000000   Number         0  stubs.o ABSOLUTE
    _printf_c                                0x00000000   Number         0  stubs.o ABSOLUTE
    _printf_charcount                        0x00000000   Number         0  stubs.o ABSOLUTE
    _printf_d                                0x00000000   Number         0  stubs.o ABSOLUTE
    _printf_e                                0x00000000   Number         0  stubs.o ABSOLUTE
    _printf_f                                0x00000000   Number         0  stubs.o ABSOLUTE
    _printf_flags                            0x00000000   Number         0  stubs.o ABSOLUTE
    _printf_fp_dec                           0x00000000   Number         0  stubs.o ABSOLUTE
    _printf_fp_hex                           0x00000000   Number         0  stubs.o ABSOLUTE
    _printf_g                                0x00000000   Number         0  stubs.o ABSOLUTE
    _printf_i                                0x00000000   Number         0  stubs.o ABSOLUTE
    _printf_int_dec                          0x00000000   Number         0  stubs.o ABSOLUTE
    _printf_l                                0x00000000   Number         0  stubs.o ABSOLUTE
    _printf_lc                               0x00000000   Number         0  stubs.o ABSOLUTE
    _printf_ll                               0x00000000   Number         0  stubs.o ABSOLUTE
    _printf_lld                              0x00000000   Number         0  stubs.o ABSOLUTE
    _printf_lli                              0x00000000   Number         0  stubs.o ABSOLUTE
    _printf_llo                              0x00000000   Number         0  stubs.o ABSOLUTE
    _printf_llu                              0x00000000   Number         0  stubs.o ABSOLUTE
    _printf_llx                              0x00000000   Number         0  stubs.o ABSOLUTE
    _printf_longlong_dec                     0x00000000   Number         0  stubs.o ABSOLUTE
    _printf_longlong_hex                     0x00000000   Number         0  stubs.o ABSOLUTE
    _printf_longlong_oct                     0x00000000   Number         0  stubs.o ABSOLUTE
    _printf_ls                               0x00000000   Number         0  stubs.o ABSOLUTE
    _printf_mbtowc                           0x00000000   Number         0  stubs.o ABSOLUTE
    _printf_n                                0x00000000   Number         0  stubs.o ABSOLUTE
    _printf_o                                0x00000000   Number         0  stubs.o ABSOLUTE
    _printf_p                                0x00000000   Number         0  stubs.o ABSOLUTE
    _printf_percent                          0x00000000   Number         0  stubs.o ABSOLUTE
    _printf_pre_padding                      0x00000000   Number         0  stubs.o ABSOLUTE
    _printf_return_value                     0x00000000   Number         0  stubs.o ABSOLUTE
    _printf_s                                0x00000000   Number         0  stubs.o ABSOLUTE
    _printf_sizespec                         0x00000000   Number         0  stubs.o ABSOLUTE
    _printf_str                              0x00000000   Number         0  stubs.o ABSOLUTE
    _printf_truncate_signed                  0x00000000   Number         0  stubs.o ABSOLUTE
    _printf_truncate_unsigned                0x00000000   Number         0  stubs.o ABSOLUTE
    _printf_u                                0x00000000   Number         0  stubs.o ABSOLUTE
    _printf_wc                               0x00000000   Number         0  stubs.o ABSOLUTE
    _printf_wctomb                           0x00000000   Number         0  stubs.o ABSOLUTE
    _printf_widthprec                        0x00000000   Number         0  stubs.o ABSOLUTE
    _printf_x                                0x00000000   Number         0  stubs.o ABSOLUTE
    __arm_fini_                               - Undefined Weak Reference
    __cpp_initialize__aeabi_                  - Undefined Weak Reference
    __cxa_finalize                            - Undefined Weak Reference
    __decompress                              - Undefined Weak Reference
    _clock_init                               - Undefined Weak Reference
    _microlib_exit                            - Undefined Weak Reference
    __Vectors_Size                           0x00000130   Number         0  startup_gd32f30x_hd.o ABSOLUTE
    __Vectors                                0x08000000   Data           4  startup_gd32f30x_hd.o(RESET)
    __Vectors_End                            0x08000130   Data           0  startup_gd32f30x_hd.o(RESET)
    __main                                   0x08000131   Thumb Code     0  entry.o(.ARM.Collect$$$$00000000)
    _main_stk                                0x08000131   Thumb Code     0  entry2.o(.ARM.Collect$$$$00000001)
    _main_scatterload                        0x08000135   Thumb Code     0  entry5.o(.ARM.Collect$$$$00000004)
    __main_after_scatterload                 0x08000139   Thumb Code     0  entry5.o(.ARM.Collect$$$$00000004)
    _main_clock                              0x08000139   Thumb Code     0  entry7b.o(.ARM.Collect$$$$00000008)
    _main_cpp_init                           0x08000139   Thumb Code     0  entry8b.o(.ARM.Collect$$$$0000000A)
    _main_init                               0x08000139   Thumb Code     0  entry9a.o(.ARM.Collect$$$$0000000B)
    __rt_lib_shutdown_fini                   0x08000141   Thumb Code     0  entry12b.o(.ARM.Collect$$$$0000000E)
    __rt_final_cpp                           0x08000145   Thumb Code     0  entry10a.o(.ARM.Collect$$$$0000000F)
    __rt_final_exit                          0x08000145   Thumb Code     0  entry11a.o(.ARM.Collect$$$$00000011)
    Reset_Handler                            0x08000149   Thumb Code     8  startup_gd32f30x_hd.o(.text)
    NMI_Handler                              0x08000151   Thumb Code     2  startup_gd32f30x_hd.o(.text)
    HardFault_Handler                        0x08000153   Thumb Code     2  startup_gd32f30x_hd.o(.text)
    MemManage_Handler                        0x08000155   Thumb Code     2  startup_gd32f30x_hd.o(.text)
    BusFault_Handler                         0x08000157   Thumb Code     2  startup_gd32f30x_hd.o(.text)
    UsageFault_Handler                       0x08000159   Thumb Code     2  startup_gd32f30x_hd.o(.text)
    SVC_Handler                              0x0800015b   Thumb Code     2  startup_gd32f30x_hd.o(.text)
    DebugMon_Handler                         0x0800015d   Thumb Code     2  startup_gd32f30x_hd.o(.text)
    PendSV_Handler                           0x0800015f   Thumb Code     2  startup_gd32f30x_hd.o(.text)
    ADC0_1_IRQHandler                        0x08000163   Thumb Code     0  startup_gd32f30x_hd.o(.text)
    ADC2_IRQHandler                          0x08000163   Thumb Code     0  startup_gd32f30x_hd.o(.text)
    CAN0_EWMC_IRQHandler                     0x08000163   Thumb Code     0  startup_gd32f30x_hd.o(.text)
    CAN0_RX1_IRQHandler                      0x08000163   Thumb Code     0  startup_gd32f30x_hd.o(.text)
    DMA0_Channel0_IRQHandler                 0x08000163   Thumb Code     0  startup_gd32f30x_hd.o(.text)
    DMA0_Channel1_IRQHandler                 0x08000163   Thumb Code     0  startup_gd32f30x_hd.o(.text)
    DMA0_Channel2_IRQHandler                 0x08000163   Thumb Code     0  startup_gd32f30x_hd.o(.text)
    DMA0_Channel3_IRQHandler                 0x08000163   Thumb Code     0  startup_gd32f30x_hd.o(.text)
    DMA0_Channel4_IRQHandler                 0x08000163   Thumb Code     0  startup_gd32f30x_hd.o(.text)
    DMA0_Channel5_IRQHandler                 0x08000163   Thumb Code     0  startup_gd32f30x_hd.o(.text)
    DMA0_Channel6_IRQHandler                 0x08000163   Thumb Code     0  startup_gd32f30x_hd.o(.text)
    DMA1_Channel0_IRQHandler                 0x08000163   Thumb Code     0  startup_gd32f30x_hd.o(.text)
    DMA1_Channel1_IRQHandler                 0x08000163   Thumb Code     0  startup_gd32f30x_hd.o(.text)
    DMA1_Channel2_IRQHandler                 0x08000163   Thumb Code     0  startup_gd32f30x_hd.o(.text)
    DMA1_Channel3_4_IRQHandler               0x08000163   Thumb Code     0  startup_gd32f30x_hd.o(.text)
    EXMC_IRQHandler                          0x08000163   Thumb Code     0  startup_gd32f30x_hd.o(.text)
    EXTI0_IRQHandler                         0x08000163   Thumb Code     0  startup_gd32f30x_hd.o(.text)
    EXTI10_15_IRQHandler                     0x08000163   Thumb Code     0  startup_gd32f30x_hd.o(.text)
    EXTI1_IRQHandler                         0x08000163   Thumb Code     0  startup_gd32f30x_hd.o(.text)
    EXTI2_IRQHandler                         0x08000163   Thumb Code     0  startup_gd32f30x_hd.o(.text)
    EXTI3_IRQHandler                         0x08000163   Thumb Code     0  startup_gd32f30x_hd.o(.text)
    EXTI4_IRQHandler                         0x08000163   Thumb Code     0  startup_gd32f30x_hd.o(.text)
    EXTI5_9_IRQHandler                       0x08000163   Thumb Code     0  startup_gd32f30x_hd.o(.text)
    FMC_IRQHandler                           0x08000163   Thumb Code     0  startup_gd32f30x_hd.o(.text)
    I2C0_ER_IRQHandler                       0x08000163   Thumb Code     0  startup_gd32f30x_hd.o(.text)
    I2C0_EV_IRQHandler                       0x08000163   Thumb Code     0  startup_gd32f30x_hd.o(.text)
    I2C1_ER_IRQHandler                       0x08000163   Thumb Code     0  startup_gd32f30x_hd.o(.text)
    I2C1_EV_IRQHandler                       0x08000163   Thumb Code     0  startup_gd32f30x_hd.o(.text)
    LVD_IRQHandler                           0x08000163   Thumb Code     0  startup_gd32f30x_hd.o(.text)
    RCU_CTC_IRQHandler                       0x08000163   Thumb Code     0  startup_gd32f30x_hd.o(.text)
    RTC_Alarm_IRQHandler                     0x08000163   Thumb Code     0  startup_gd32f30x_hd.o(.text)
    RTC_IRQHandler                           0x08000163   Thumb Code     0  startup_gd32f30x_hd.o(.text)
    SDIO_IRQHandler                          0x08000163   Thumb Code     0  startup_gd32f30x_hd.o(.text)
    SPI0_IRQHandler                          0x08000163   Thumb Code     0  startup_gd32f30x_hd.o(.text)
    SPI1_IRQHandler                          0x08000163   Thumb Code     0  startup_gd32f30x_hd.o(.text)
    SPI2_IRQHandler                          0x08000163   Thumb Code     0  startup_gd32f30x_hd.o(.text)
    TAMPER_IRQHandler                        0x08000163   Thumb Code     0  startup_gd32f30x_hd.o(.text)
    TIMER0_BRK_IRQHandler                    0x08000163   Thumb Code     0  startup_gd32f30x_hd.o(.text)
    TIMER0_Channel_IRQHandler                0x08000163   Thumb Code     0  startup_gd32f30x_hd.o(.text)
    TIMER0_TRG_CMT_IRQHandler                0x08000163   Thumb Code     0  startup_gd32f30x_hd.o(.text)
    TIMER0_UP_IRQHandler                     0x08000163   Thumb Code     0  startup_gd32f30x_hd.o(.text)
    TIMER1_IRQHandler                        0x08000163   Thumb Code     0  startup_gd32f30x_hd.o(.text)
    TIMER2_IRQHandler                        0x08000163   Thumb Code     0  startup_gd32f30x_hd.o(.text)
    TIMER3_IRQHandler                        0x08000163   Thumb Code     0  startup_gd32f30x_hd.o(.text)
    TIMER4_IRQHandler                        0x08000163   Thumb Code     0  startup_gd32f30x_hd.o(.text)
    TIMER5_IRQHandler                        0x08000163   Thumb Code     0  startup_gd32f30x_hd.o(.text)
    TIMER6_IRQHandler                        0x08000163   Thumb Code     0  startup_gd32f30x_hd.o(.text)
    TIMER7_BRK_IRQHandler                    0x08000163   Thumb Code     0  startup_gd32f30x_hd.o(.text)
    TIMER7_Channel_IRQHandler                0x08000163   Thumb Code     0  startup_gd32f30x_hd.o(.text)
    TIMER7_TRG_CMT_IRQHandler                0x08000163   Thumb Code     0  startup_gd32f30x_hd.o(.text)
    TIMER7_UP_IRQHandler                     0x08000163   Thumb Code     0  startup_gd32f30x_hd.o(.text)
    UART3_IRQHandler                         0x08000163   Thumb Code     0  startup_gd32f30x_hd.o(.text)
    UART4_IRQHandler                         0x08000163   Thumb Code     0  startup_gd32f30x_hd.o(.text)
    USART1_IRQHandler                        0x08000163   Thumb Code     0  startup_gd32f30x_hd.o(.text)
    USART2_IRQHandler                        0x08000163   Thumb Code     0  startup_gd32f30x_hd.o(.text)
    USBD_HP_CAN0_TX_IRQHandler               0x08000163   Thumb Code     0  startup_gd32f30x_hd.o(.text)
    USBD_LP_CAN0_RX0_IRQHandler              0x08000163   Thumb Code     0  startup_gd32f30x_hd.o(.text)
    USBD_WKUP_IRQHandler                     0x08000163   Thumb Code     0  startup_gd32f30x_hd.o(.text)
    WWDGT_IRQHandler                         0x08000163   Thumb Code     0  startup_gd32f30x_hd.o(.text)
    __aeabi_uldivmod                         0x0800016d   Thumb Code    98  uldiv.o(.text)
    __scatterload                            0x080001d1   Thumb Code    28  init.o(.text)
    __scatterload_rt2                        0x080001d1   Thumb Code     0  init.o(.text)
    __aeabi_llsl                             0x080001f5   Thumb Code    30  llshl.o(.text)
    _ll_shift_l                              0x080001f5   Thumb Code     0  llshl.o(.text)
    __aeabi_llsr                             0x08000213   Thumb Code    32  llushr.o(.text)
    _ll_ushift_r                             0x08000213   Thumb Code     0  llushr.o(.text)
    DelayNms                                 0x0800026d   Thumb Code    24  delay.o(i.DelayNms)
    DelayNus                                 0x08000285   Thumb Code    36  delay.o(i.DelayNus)
    DwtDelayInit                             0x080002c1   Thumb Code    50  delay.o(i.DwtDelayInit)
    LedDrvInit                               0x080002fd   Thumb Code    86  led_drv.o(i.LedDrvInit)
    QueueInit                                0x0800036d   Thumb Code    12  queue.o(i.QueueInit)
    QueuePop                                 0x08000379   Thumb Code    44  queue.o(i.QueuePop)
    QueuePopArray                            0x080003a5   Thumb Code    40  queue.o(i.QueuePopArray)
    QueuePush                                0x080003cd   Thumb Code    40  queue.o(i.QueuePush)
    RegUsb2ComCb                             0x080003f5   Thumb Code     6  usb2com_drv.o(i.RegUsb2ComCb)
    SysTick_Handler                          0x08000401   Thumb Code    20  systick.o(i.SysTick_Handler)
    SystemInit                               0x08000419   Thumb Code   156  system_gd32f30x.o(i.SystemInit)
    TurnOffLed                               0x080004c1   Thumb Code    40  led_drv.o(i.TurnOffLed)
    TurnOnLed                                0x080004ed   Thumb Code    40  led_drv.o(i.TurnOnLed)
    USART0_IRQHandler                        0x08000519   Thumb Code    46  usb2com_drv.o(i.USART0_IRQHandler)
    Usb2ComAppInit                           0x08000555   Thumb Code    20  usb2com_app.o(i.Usb2ComAppInit)
    Usb2ComDrvInit                           0x08000575   Thumb Code    16  usb2com_drv.o(i.Usb2ComDrvInit)
    Usb2ComTask                              0x080005b1   Thumb Code   188  usb2com_app.o(i.Usb2ComTask)
    __0printf$8                              0x080006f5   Thumb Code    22  printf8.o(i.__0printf$8)
    __1printf$8                              0x080006f5   Thumb Code     0  printf8.o(i.__0printf$8)
    __2printf                                0x080006f5   Thumb Code     0  printf8.o(i.__0printf$8)
    __scatterload_copy                       0x08000715   Thumb Code    14  handlers.o(i.__scatterload_copy)
    __scatterload_null                       0x08000723   Thumb Code     2  handlers.o(i.__scatterload_null)
    __scatterload_zeroinit                   0x08000725   Thumb Code    14  handlers.o(i.__scatterload_zeroinit)
    fputc                                    0x08000b8d   Thumb Code    36  usb2com_drv.o(i.fputc)
    gpio_bit_reset                           0x08000bb5   Thumb Code     4  gd32f30x_gpio.o(i.gpio_bit_reset)
    gpio_bit_set                             0x08000bb9   Thumb Code     4  gd32f30x_gpio.o(i.gpio_bit_set)
    gpio_init                                0x08000bbd   Thumb Code   188  gd32f30x_gpio.o(i.gpio_init)
    main                                     0x08000c79   Thumb Code    24  main.o(i.main)
    nvic_irq_enable                          0x08000c91   Thumb Code   186  gd32f30x_misc.o(i.nvic_irq_enable)
    nvic_priority_group_set                  0x08000d55   Thumb Code    10  gd32f30x_misc.o(i.nvic_priority_group_set)
    rcu_clock_freq_get                       0x08000d69   Thumb Code   310  gd32f30x_rcu.o(i.rcu_clock_freq_get)
    rcu_periph_clock_enable                  0x08000ec1   Thumb Code    28  gd32f30x_rcu.o(i.rcu_periph_clock_enable)
    rcu_periph_reset_disable                 0x08000ee1   Thumb Code    28  gd32f30x_rcu.o(i.rcu_periph_reset_disable)
    rcu_periph_reset_enable                  0x08000f01   Thumb Code    28  gd32f30x_rcu.o(i.rcu_periph_reset_enable)
    usart_baudrate_set                       0x0800103d   Thumb Code   136  gd32f30x_usart.o(i.usart_baudrate_set)
    usart_data_receive                       0x080010cd   Thumb Code    10  gd32f30x_usart.o(i.usart_data_receive)
    usart_data_transmit                      0x080010d7   Thumb Code     8  gd32f30x_usart.o(i.usart_data_transmit)
    usart_deinit                             0x080010e1   Thumb Code   136  gd32f30x_usart.o(i.usart_deinit)
    usart_enable                             0x08001171   Thumb Code    10  gd32f30x_usart.o(i.usart_enable)
    usart_flag_get                           0x0800117b   Thumb Code    30  gd32f30x_usart.o(i.usart_flag_get)
    usart_interrupt_enable                   0x08001199   Thumb Code    26  gd32f30x_usart.o(i.usart_interrupt_enable)
    usart_interrupt_flag_clear               0x080011b3   Thumb Code    18  gd32f30x_usart.o(i.usart_interrupt_flag_clear)
    usart_interrupt_flag_get                 0x080011c5   Thumb Code    56  gd32f30x_usart.o(i.usart_interrupt_flag_get)
    usart_parity_config                      0x080011fd   Thumb Code    16  gd32f30x_usart.o(i.usart_parity_config)
    usart_receive_config                     0x0800120d   Thumb Code    20  gd32f30x_usart.o(i.usart_receive_config)
    usart_stop_bit_set                       0x08001221   Thumb Code    16  gd32f30x_usart.o(i.usart_stop_bit_set)
    usart_transmit_config                    0x08001231   Thumb Code    20  gd32f30x_usart.o(i.usart_transmit_config)
    usart_word_length_set                    0x08001245   Thumb Code    16  gd32f30x_usart.o(i.usart_word_length_set)
    Region$$Table$$Base                      0x08001254   Number         0  anon$$obj.o(Region$$Table)
    Region$$Table$$Limit                     0x08001274   Number         0  anon$$obj.o(Region$$Table)
    g_Usb2ComInfo                            0x20000030   Data          28  usb2com_drv.o(.data)
    __stdout                                 0x20000050   Data           4  stdout.o(.data)
    __initial_sp                             0x200004b8   Data           0  startup_gd32f30x_hd.o(STACK)



==============================================================================

Memory Map of the image

  Image Entry point : 0x08000131

  Load Region LR_IROM1 (Base: 0x08000000, Size: 0x000012c8, Max: 0x00080000, ABSOLUTE)

    Execution Region ER_IROM1 (Exec base: 0x08000000, Load base: 0x08000000, Size: 0x00001274, Max: 0x00080000, ABSOLUTE)

    Exec Addr    Load Addr    Size         Type   Attr      Idx    E Section Name        Object

    0x08000000   0x08000000   0x00000130   Data   RO         1143    RESET               startup_gd32f30x_hd.o
    0x08000130   0x08000130   0x00000000   Code   RO         1200  * .ARM.Collect$$$$00000000  mc_w.l(entry.o)
    0x08000130   0x08000130   0x00000004   Code   RO         1464    .ARM.Collect$$$$00000001  mc_w.l(entry2.o)
    0x08000134   0x08000134   0x00000004   Code   RO         1467    .ARM.Collect$$$$00000004  mc_w.l(entry5.o)
    0x08000138   0x08000138   0x00000000   Code   RO         1469    .ARM.Collect$$$$00000008  mc_w.l(entry7b.o)
    0x08000138   0x08000138   0x00000000   Code   RO         1471    .ARM.Collect$$$$0000000A  mc_w.l(entry8b.o)
    0x08000138   0x08000138   0x00000008   Code   RO         1472    .ARM.Collect$$$$0000000B  mc_w.l(entry9a.o)
    0x08000140   0x08000140   0x00000004   Code   RO         1479    .ARM.Collect$$$$0000000E  mc_w.l(entry12b.o)
    0x08000144   0x08000144   0x00000000   Code   RO         1474    .ARM.Collect$$$$0000000F  mc_w.l(entry10a.o)
    0x08000144   0x08000144   0x00000000   Code   RO         1476    .ARM.Collect$$$$00000011  mc_w.l(entry11a.o)
    0x08000144   0x08000144   0x00000004   Code   RO         1465    .ARM.Collect$$$$00002712  mc_w.l(entry2.o)
    0x08000148   0x08000148   0x00000024   Code   RO         1144    .text               startup_gd32f30x_hd.o
    0x0800016c   0x0800016c   0x00000062   Code   RO         1483    .text               mc_w.l(uldiv.o)
    0x080001ce   0x080001ce   0x00000002   PAD
    0x080001d0   0x080001d0   0x00000024   Code   RO         1496    .text               mc_w.l(init.o)
    0x080001f4   0x080001f4   0x0000001e   Code   RO         1498    .text               mc_w.l(llshl.o)
    0x08000212   0x08000212   0x00000020   Code   RO         1500    .text               mc_w.l(llushr.o)
    0x08000232   0x08000232   0x00000008   Code   RO            1    i.AppInit           main.o
    0x0800023a   0x0800023a   0x0000001a   Code   RO           40    i.CalXorSum         usb2com_app.o
    0x08000254   0x08000254   0x00000018   Code   RO           41    i.CtrlLed           usb2com_app.o
    0x0800026c   0x0800026c   0x00000018   Code   RO           84    i.DelayNms          delay.o
    0x08000284   0x08000284   0x0000002c   Code   RO           85    i.DelayNus          delay.o
    0x080002b0   0x080002b0   0x00000010   Code   RO            2    i.DriverInit        main.o
    0x080002c0   0x080002c0   0x0000003c   Code   RO           86    i.DwtDelayInit      delay.o
    0x080002fc   0x080002fc   0x0000005c   Code   RO          192    i.LedDrvInit        led_drv.o
    0x08000358   0x08000358   0x00000014   Code   RO           42    i.ProcUartData      usb2com_app.o
    0x0800036c   0x0800036c   0x0000000c   Code   RO          327    i.QueueInit         queue.o
    0x08000378   0x08000378   0x0000002c   Code   RO          328    i.QueuePop          queue.o
    0x080003a4   0x080003a4   0x00000028   Code   RO          329    i.QueuePopArray     queue.o
    0x080003cc   0x080003cc   0x00000028   Code   RO          330    i.QueuePush         queue.o
    0x080003f4   0x080003f4   0x0000000c   Code   RO          273    i.RegUsb2ComCb      usb2com_drv.o
    0x08000400   0x08000400   0x00000018   Code   RO          236    i.SysTick_Handler   systick.o
    0x08000418   0x08000418   0x000000a8   Code   RO         1151    i.SystemInit        system_gd32f30x.o
    0x080004c0   0x080004c0   0x0000002c   Code   RO          194    i.TurnOffLed        led_drv.o
    0x080004ec   0x080004ec   0x0000002c   Code   RO          195    i.TurnOnLed         led_drv.o
    0x08000518   0x08000518   0x0000003c   Code   RO          274    i.USART0_IRQHandler  usb2com_drv.o
    0x08000554   0x08000554   0x00000020   Code   RO           43    i.Usb2ComAppInit    usb2com_app.o
    0x08000574   0x08000574   0x00000010   Code   RO          275    i.Usb2ComDrvInit    usb2com_drv.o
    0x08000584   0x08000584   0x0000002c   Code   RO          276    i.Usb2ComGpioInit   usb2com_drv.o
    0x080005b0   0x080005b0   0x000000cc   Code   RO           44    i.Usb2ComTask       usb2com_app.o
    0x0800067c   0x0800067c   0x00000078   Code   RO          277    i.Usb2ComUartInit   usb2com_drv.o
    0x080006f4   0x080006f4   0x00000020   Code   RO         1410    i.__0printf$8       mc_w.l(printf8.o)
    0x08000714   0x08000714   0x0000000e   Code   RO         1508    i.__scatterload_copy  mc_w.l(handlers.o)
    0x08000722   0x08000722   0x00000002   Code   RO         1509    i.__scatterload_null  mc_w.l(handlers.o)
    0x08000724   0x08000724   0x0000000e   Code   RO         1510    i.__scatterload_zeroinit  mc_w.l(handlers.o)
    0x08000732   0x08000732   0x00000002   PAD
    0x08000734   0x08000734   0x00000404   Code   RO         1417    i._printf_core      mc_w.l(printf8.o)
    0x08000b38   0x08000b38   0x00000024   Code   RO         1418    i._printf_post_padding  mc_w.l(printf8.o)
    0x08000b5c   0x08000b5c   0x0000002e   Code   RO         1419    i._printf_pre_padding  mc_w.l(printf8.o)
    0x08000b8a   0x08000b8a   0x00000002   PAD
    0x08000b8c   0x08000b8c   0x00000028   Code   RO          278    i.fputc             usb2com_drv.o
    0x08000bb4   0x08000bb4   0x00000004   Code   RO          374    i.gpio_bit_reset    gd32f30x_gpio.o
    0x08000bb8   0x08000bb8   0x00000004   Code   RO          375    i.gpio_bit_set      gd32f30x_gpio.o
    0x08000bbc   0x08000bbc   0x000000bc   Code   RO          384    i.gpio_init         gd32f30x_gpio.o
    0x08000c78   0x08000c78   0x00000018   Code   RO            3    i.main              main.o
    0x08000c90   0x08000c90   0x000000c4   Code   RO         1088    i.nvic_irq_enable   gd32f30x_misc.o
    0x08000d54   0x08000d54   0x00000014   Code   RO         1089    i.nvic_priority_group_set  gd32f30x_misc.o
    0x08000d68   0x08000d68   0x00000158   Code   RO          525    i.rcu_clock_freq_get  gd32f30x_rcu.o
    0x08000ec0   0x08000ec0   0x00000020   Code   RO          543    i.rcu_periph_clock_enable  gd32f30x_rcu.o
    0x08000ee0   0x08000ee0   0x00000020   Code   RO          546    i.rcu_periph_reset_disable  gd32f30x_rcu.o
    0x08000f00   0x08000f00   0x00000020   Code   RO          547    i.rcu_periph_reset_enable  gd32f30x_rcu.o
    0x08000f20   0x08000f20   0x00000114   Code   RO         1152    i.system_clock_120m_hxtal  system_gd32f30x.o
    0x08001034   0x08001034   0x00000008   Code   RO         1153    i.system_clock_config  system_gd32f30x.o
    0x0800103c   0x0800103c   0x00000090   Code   RO          771    i.usart_baudrate_set  gd32f30x_usart.o
    0x080010cc   0x080010cc   0x0000000a   Code   RO          774    i.usart_data_receive  gd32f30x_usart.o
    0x080010d6   0x080010d6   0x00000008   Code   RO          775    i.usart_data_transmit  gd32f30x_usart.o
    0x080010de   0x080010de   0x00000002   PAD
    0x080010e0   0x080010e0   0x00000090   Code   RO          776    i.usart_deinit      gd32f30x_usart.o
    0x08001170   0x08001170   0x0000000a   Code   RO          780    i.usart_enable      gd32f30x_usart.o
    0x0800117a   0x0800117a   0x0000001e   Code   RO          782    i.usart_flag_get    gd32f30x_usart.o
    0x08001198   0x08001198   0x0000001a   Code   RO          789    i.usart_interrupt_enable  gd32f30x_usart.o
    0x080011b2   0x080011b2   0x00000012   Code   RO          790    i.usart_interrupt_flag_clear  gd32f30x_usart.o
    0x080011c4   0x080011c4   0x00000038   Code   RO          791    i.usart_interrupt_flag_get  gd32f30x_usart.o
    0x080011fc   0x080011fc   0x00000010   Code   RO          802    i.usart_parity_config  gd32f30x_usart.o
    0x0800120c   0x0800120c   0x00000014   Code   RO          804    i.usart_receive_config  gd32f30x_usart.o
    0x08001220   0x08001220   0x00000010   Code   RO          814    i.usart_stop_bit_set  gd32f30x_usart.o
    0x08001230   0x08001230   0x00000014   Code   RO          818    i.usart_transmit_config  gd32f30x_usart.o
    0x08001244   0x08001244   0x00000010   Code   RO          819    i.usart_word_length_set  gd32f30x_usart.o
    0x08001254   0x08001254   0x00000020   Data   RO         1506    Region$$Table       anon$$obj.o


    Execution Region RW_IRAM1 (Exec base: 0x20000000, Load base: 0x08001274, Size: 0x000004b8, Max: 0x00010000, ABSOLUTE)

    Exec Addr    Load Addr    Size         Type   Attr      Idx    E Section Name        Object

    0x20000000   0x08001274   0x00000024   Data   RW          196    .data               led_drv.o
    0x20000024   0x08001298   0x00000004   PAD
    0x20000028   0x0800129c   0x00000008   Data   RW          238    .data               systick.o
    0x20000030   0x080012a4   0x00000020   Data   RW          279    .data               usb2com_drv.o
    0x20000050   0x080012c4   0x00000004   Data   RW         1480    .data               mc_w.l(stdout.o)
    0x20000054        -       0x00000060   Zero   RW           45    .bss                usb2com_app.o
    0x200000b4   0x080012c8   0x00000004   PAD
    0x200000b8        -       0x00000400   Zero   RW         1141    STACK               startup_gd32f30x_hd.o


==============================================================================

Image component sizes


      Code (inc. data)   RO Data    RW Data    ZI Data      Debug   Object Name

       128         18          0          0          0      22897   delay.o
       196          0          0          0          0       2052   gd32f30x_gpio.o
       216         20          0          0          0       1436   gd32f30x_misc.o
       440         46          0          0          0      19968   gd32f30x_rcu.o
       534         16          0          0          0      15514   gd32f30x_usart.o
       180         14          0         36          0       2510   led_drv.o
        48          0          0          0          0       5943   main.o
       136          0          0          0          0       3495   queue.o
        36          8        304          0       1024        848   startup_gd32f30x_hd.o
       452         30          0          0          0       2501   system_gd32f30x.o
        24          4          0          8          0       1094   systick.o
       306         34          0          0         96       4347   usb2com_app.o
       292         34          0         32          0       5460   usb2com_drv.o

    ----------------------------------------------------------------------
      2990        224        336         80       1124      88065   Object Totals
         0          0         32          0          0          0   (incl. Generated)
         2          0          0          4          4          0   (incl. Padding)

    ----------------------------------------------------------------------

      Code (inc. data)   RO Data    RW Data    ZI Data      Debug   Library Member Name

         0          0          0          0          0          0   entry.o
         0          0          0          0          0          0   entry10a.o
         0          0          0          0          0          0   entry11a.o
         4          0          0          0          0          0   entry12b.o
         8          4          0          0          0          0   entry2.o
         4          0          0          0          0          0   entry5.o
         0          0          0          0          0          0   entry7b.o
         0          0          0          0          0          0   entry8b.o
         8          4          0          0          0          0   entry9a.o
        30          0          0          0          0          0   handlers.o
        36          8          0          0          0         68   init.o
        30          0          0          0          0         68   llshl.o
        32          0          0          0          0         68   llushr.o
      1142         54          0          0          0        352   printf8.o
         0          0          0          4          0          0   stdout.o
        98          0          0          0          0         92   uldiv.o

    ----------------------------------------------------------------------
      1398         70          0          4          0        648   Library Totals
         6          0          0          0          0          0   (incl. Padding)

    ----------------------------------------------------------------------

      Code (inc. data)   RO Data    RW Data    ZI Data      Debug   Library Name

      1392         70          0          4          0        648   mc_w.l

    ----------------------------------------------------------------------
      1398         70          0          4          0        648   Library Totals

    ----------------------------------------------------------------------

==============================================================================


      Code (inc. data)   RO Data    RW Data    ZI Data      Debug   

      4388        294        336         84       1124      83957   Grand Totals
      4388        294        336         84       1124      83957   ELF Image Totals
      4388        294        336         84          0          0   ROM Totals

==============================================================================

    Total RO  Size (Code + RO Data)                 4724 (   4.61kB)
    Total RW  Size (RW Data + ZI Data)              1208 (   1.18kB)
    Total ROM Size (Code + RO Data + RW Data)       4808 (   4.70kB)

==============================================================================

