:020000040800F2
:100000005005002049010008510100085301000873
:1000100055010008570100085901000800000000C0
:100020000000000000000000000000005B0100086C
:100030005D010008000000005F0100088D05000858
:100040006301000863010008630100086301000800
:1000500063010008630100086301000863010008F0
:1000600063010008630100086301000863010008E0
:1000700063010008630100086301000863010008D0
:1000800063010008630100086301000863010008C0
:1000900063010008630100086301000863010008B0
:1000A00063010008630100086301000863010008A0
:1000B0006301000863010008630100086301000890
:1000C0006301000863010008630100086301000880
:1000D00063010008A9070008630100086301000824
:1000E0006301000863010008630100086301000860
:1000F0006301000863010008630100086301000850
:10010000630100086301000863010008630100083F
:10011000630100086301000863010008630100082F
:10012000630100086301000863010008630100081F
:10013000DFF810D000F04CF800480047190F000815
:10014000AFF300805005002006488047064800476E
:10015000FEE7FEE7FEE7FEE7FEE7FEE7FEE7FEE777
:10016000FEE7FEE7B1050008310100082DE9F05F68
:100170000546002092469B46884606468146402416
:100180001BE0284641464746224600F042F85346C7
:100190005A46C01A914110D311461846224600F023
:1001A00029F82D1A67EB01084F462246012000214D
:1001B00000F020F817EB00094E41201EA4F10104C5
:1001C000DFDC484631462A464346BDE8F09F000042
:1001D000064C074D06E0E06840F0010394E8070094
:1001E00098471034AC42F6D3FFF7A6FFEC14000892
:1001F0000C150008202A04DB203A00FA02F1002046
:1002000070479140C2F1200320FA03F31943904054
:100210007047202A04DB203A21FA02F000217047BF
:1002200021FA02F3D040C2F120029140084319465E
:100230007047000010B500F0D5FA024800F082FACD
:1002400010BD0000F106000810B502460023002092
:1002500003E0145C6340441CE0B28842F9DB1846BA
:1002600010BD10B50446607818B1207800F086FA09
:1002700002E0207800F06CFA10BD10B500F0ECF947
:1002800000F002F900F060F800F0BCFA10BD70B5A3
:100290000025002407E0204600F076F8054605B169
:1002A00003E0601CC4B2042CF5D300BF284670BD27
:1002B00001490868496870478000002010B5FFF7C1
:1002C000E6FF0446812C14D008DC012C0DD0022C52
:1002D00013D0032C19D0042C33D11EE0822C10D063
:1002E000832C16D0842C2CD121E0002000F046FA7B
:1002F00028E0002000F02CFA24E0012000F03EFA73
:1003000020E0012000F024FA1CE0022000F036FA80
:1003100018E0022000F01CFA14E0002000F02EFA91
:10032000012000F02BFA022000F028FA0AE0002059
:1003300000F00EFA012000F00BFA022000F008FA9B
:1003400000E000BF00BF10BD10B5002417E004EBB3
:1003500044010C4A32F8210000F0FEFE04EB440197
:10036000084A02EB81018B6804EB440102EB810136
:1003700002224868042100F069FD601CC4B2042C0C
:10038000E5D310BD200000202DE9F041044600BF58
:1003900004EB44023A4B03EB8202916804EB440203
:1003A00003EB8202506800F0AFFD0746354800EBD2
:1003B0000410007830B1012812D002282ED0032872
:1003C0005AD14EE05FB901202E4901EB04110870AB
:1003D000FFF76EFF2B4A02EB0412C2E902014CE068
:1003E000B7B9FFF765FF05460E46264800EB041037
:1003F000D0E9022CAB1A66EB0C010020D3F10A0203
:1004000088410AD202201F4901EB0411087004E060
:1004100000201C4901EB041108702EE0BFB9FFF762
:1004200047FF05460E46174800EB0410D0E90223AB
:10043000AA1A66EB03014FF47A7300209A1A8841D6
:100440000ED203200F4901EB0411087008E00020D0
:100450000C4901EB04110870601CC0B2BDE8F081CA
:100460000BE047B10020074901EB0411087004F1CB
:100470008100C0B2F2E700E000BF00BF0020EDE75E
:10048000200000201001002010B5002424E004EB1F
:100490004401134A32F8210000F05EFE04EB4401EF
:1004A0000F4A02EB81018B6804EB440102EB8101EE
:1004B00002224868102100F0C9FC04EB4402084BFA
:1004C00003EB8202916804EB440203EB8202506862
:1004D00000F0B8FC601CC4B2032CD8D310BD0000DF
:1004E0005000002010B504462146024800F034F8C0
:1004F00010BD0000FC000020C1608260002303608A
:100500004360704710B50246D2E90003984201D11A
:10051000032010BD1368D068C05C08701068401CD0
:100520009368B0FBF3F403FB140010600020F0E7C5
:10053000F0B507460D461646002400BF07E029190E
:100540003846FFF7DFFF032800D102E0641CB44205
:10055000F5D300BF2046F0BD30B502465068401CC0
:100560009468B0FBF4F504FB15031068984201D1C0
:10057000022030BD5468D068015553600020F8E770
:100580000149086070470000A400002010B506482B
:10059000036840685A1C40F1000003490A60486043
:1005A00002480068804710BD8000002078000020CD
:1005B00008B52648006840F47000244908602448C3
:1005C000006840F001002249086000BF2048006830
:1005D00000F002000028F9D000BF1D48406840F03C
:1005E00080001B4948600020009002E00098401CF9
:1005F000009000985028F9D31548406840F09000CA
:10060000134948600020009002E00098401C0090D0
:1006100000985028F9D300BF0D48406820F003002F
:100620000B494860084600680A49084008490860C4
:100630004FF41F0088600846006820F4802008609E
:1006400000204860C86200F041FE08BD88ED00E06F
:1006500000100240FFFFF6FE70B5012000F0D0FC54
:100660004FF47A71B0FBF1F4601EB0F1807F01D3DA
:1006700001201BE0601E4FF0E021486148170F2168
:10068000002807DA0A07150E0A4A00F00F031B1F9D
:10069000D55403E00A07130E074A135400BF002085
:1006A0004FF0E021886107200861002008B100BFF9
:1006B000FEE770BD18ED00E000E400E010B5002496
:1006C00010E00A4800EB0410007848B10020074908
:1006D00001EB04110870054901EB0411C86880475B
:1006E000601CC4B2022CECD310BD0000000000203E
:1006F000002021E0124901EB00114968D1B11049F5
:1007000001EB00114968491E0D4A02EB00125160CD
:100710000B4901EB0011496861B90121084A02EB5C
:1007200000121170064901EB00118968044A02EBBE
:1007300000125160411CC8B20228DBD37047000090
:100740000000002001490860704700007800002088
:1007500010B50446032C00D910BD04EB4402064B2F
:1007600003EB8202916804EB440203EB82025068BF
:1007700000F068FB00BFEFE75000002010B5044612
:10078000032C00D910BD04EB4402064B03EB82029C
:10079000916804EB440203EB8202506800F054FBC2
:1007A00000BFEFE75000002010B50B4908680B4967
:1007B00000F054FE70B108490868084900F045FE91
:1007C0000549086800F0CEFDC4B220460449096816
:1007D000884700BF10BD0000880000200503050009
:1007E000A400002010B50448FFF7CAFE4D220349BB
:1007F0000348FFF781FE10BDE5040008AC000020AF
:10080000FC00002010B500F005F84FF4E13000F0D6
:100810007DF810BD10B50949888900F09DFC074995
:100820000B6901228868182100F010FB03494B690D
:1008300001228868482100F009FB10BD88000020D3
:100840003EB5002000900190029050E09DF800001D
:10085000552800D04BE00DF101012848FFF752FE6A
:1008600018B99DF80100AA2800D040E00DF102015E
:100870002248FFF747FE18B99DF802000B2800DD5B
:1008800035E09DF80200401CC2B20DF103011B4887
:10089000FFF74EFE9DF80210491C884200D026E06A
:1008A0009DF80200C01CC1B26846FFF7CDFC9DF860
:1008B0000210C91C1DF80110884200D017E09DF8F5
:1008C0000300062802D101A8FFF7CBFC002405E0B5
:1008D0001DF804100AA000F055F8641C9DF80200F1
:1008E000001DA042F4D808A000F04CF800BF6946F3
:1008F0000248FFF707FE0028A8D03EBDFC000020FC
:1009000025303278200000000A00000010B50446AF
:100910001B49888800F020FC1949086800F02CFD6C
:1009200017490868002100F0D9FD15490868002121
:1009300000F0B0FD12490868002100F0BDFD10492B
:100940000868214600F0C6FC0D490868082100F03F
:10095000BBFD0B490868042100F0A4FD08490868A4
:1009600040F2053100F064FD0549087E0022114681
:1009700000F0DAFA0249086800F046FD10BD0000F8
:10098000880000200FB4054B10B503A9044A029853
:1009900000F018F810BC5DF814FB00001D0E0008F4
:1009A000A800002002E008C8121F08C1002AFAD1DE
:1009B00070477047002001E001C1121F002AFBD1DF
:1009C000704700002DE9FF4F8DB00F460546002609
:1009D00006E025280BD0DDE90F1290476D1C761C30
:1009E00028780028F5D111B03046BDE8F08F0024FA
:1009F000A246A1460122E94900E0044315F8013F5F
:100A0000203B02FA03F00842F7D128782A2810D0B8
:100A10006FF02F022878A0F13001092914D80AEBD1
:100A20008A0102EB410144F0020400EB010A6D1C53
:100A3000F0E701CF5FEA000A03D544F40054CAF19D
:100A4000000A44F002046D1C28782E2817D115F8EE
:100A5000010F44F004042A280ED06FF02F022878EA
:100A6000A0F1300109290AD809EB890102EB410103
:100A700000EB01096D1CF2E757F8049B6D1C287808
:100A80006C280FD006DC4C2817D068280DD06A28B7
:100A900014D104E0742810D07A280FD10DE044F46A
:100AA00000140AE044F4801401E044F4401469782E
:100AB000814202D104F580146D1C6D1C28786E28CB
:100AC0001ED00CDC632830D004DC00288BD05828E2
:100AD00011D19FE0642867D069280CD164E07328A5
:100AE0002DD004DC6F2872D0702804D194E07528D2
:100AF0006ED078286DD0DDE90F129047761C4BE15F
:100B0000C4F30250022806D0032809D0042801CFDC
:100B100009D0066040E101CFF117C0E900613BE177
:100B200001CF068038E1067036E117F8040B8DF826
:100B3000000000208DF80100EB46012003E057F88B
:100B400004BB4FF0FF3061074FF0000102D40DE00D
:100B500008F10101884649450FDA8045F8DB1BF8AA
:100B600008100029F4D108E008F10101884681420B
:100B7000FADB1BF808100029F6D1DDE90F23AAEBF8
:100B800008008146214600F031F9304400EB0806A8
:100B900004E0DDE90F121BF8010B9047B8F10108E2
:100BA000F7D221464846F2E00A21C4F302524FF040
:100BB000000B0891022A04D001CFC117032A09D0E3
:100BC0000AE0FF1D27F00707F7E8020108E02CE024
:100BD0001EE01FE000B2C117042A01D140B2C117C4
:100BE000021E71F1000206DA0023D0EB030063EB72
:100BF00001012D2202E0220504D52B228DF82420AC
:100C0000012203E0E20701D02022F7E7904653E0FB
:100C10000A210BE0102109E010214FF0000B44F0F5
:100C200004044FF00809089103E008214FF0000B7D
:100C30000891C4F30252022A04D001CF0021032AF2
:100C400006D006E0FF1D27F00707F7E8020103E0E2
:100C500080B2042A00D1C0B24FF0000822072BD581
:100C60002A78702A07D0DDF820C08CF0100C5CEADE
:100C70000B0C05D00EE040228DF82420012208E064
:100C800050EA010306D030238DF824308DF825205A
:100C900002229046089B83F0080353EA0B030BD112
:100CA00050EA010201D1620706D530228DF82420D6
:100CB0004FF00108A9F101092A78582A04D038A276
:100CC0000B9208AA0A920BE03AA2F9E75B46089A4F
:100CD000FFF74CFA0B9B9B5C0A9A521E0A92137008
:100CE00050EA0102F2D10A98ADEB000000F1200BAE
:100CF000600702D524F4803401E04FF00109D945A2
:100D000002DDA9EB0B0000E0002000EB0B014144E9
:100D10000890AAEB010AE00306D4DDE90F2321467F
:100D2000504600F063F806444FF0000908E009A9B6
:100D300011F80900DDE90F12904709F10109761C4D
:100D4000C145F4DBE0030CD5DDE90F232146504615
:100D500000F04CF8064404E0DDE90F123020904723
:100D6000761C0899481E08900029F5DC08E00A98CE
:100D70000A990078491C0A91DDE90F129047761C08
:100D8000BBF10001ABF1010BF1DC21465046DDE97E
:100D90000F2300F019F806446D1C21E60928010014
:100DA00030313233343536373839616263646566E1
:100DB00000000000303132333435363738394142A3
:100DC00043444546000000002DE9F041044600255B
:100DD0001E461746880404D405E039462020B04753
:100DE0006D1C641EF9D52846BDE8F0812DE9F0415F
:100DF000044600251E469046C80301D5302700E072
:100E00002027880404D505E041463846B0476D1CCC
:100E1000641EF9D52846BDE8F081000070B504468F
:100E20000D46E1B2064A106800F0A1FA00BF04497D
:100E30000868072100F0EDFA0028F8D0204670BDC0
:100E4000880000204161704701617047F0B5044699
:100E500016460025002201F00F0501F0100747B1EA
:100E6000042E05D145F00305E76B1F43E76300E05F
:100E7000354300201EE0012787401F40C7B122688C
:100E80004FEA800C0F2707FA0CF7BA43870005FAE0
:100E900007F73A43282904D1012787401F4067619B
:100EA00005E0482903D1012787401F4027612260C0
:100EB000471CB8B20828DED3082022E0012787406B
:100EC0001F40E7B16268A0F108074FEA870C0F27BF
:100ED00007FA0CF7BA43A0F10807BF0005FA07F7B5
:100EE0003A43282904D1012787401F40676105E064
:100EF000482903D1012787401F4027616260471CB2
:100F0000B8B21028DAD3F0BD02469068084008B1A4
:100F1000012070470020FCE7FFF7AFF9FFF78AF9DF
:100F200001E0FFF7CBFBFCE72DE9F04103460D465E
:100F3000164600240027A0462A48006800F4E06016
:100F4000B0F5E06F03D100BF4FF0040830E0254852
:100F5000006800F4E060B0F5C06F03D101274FF0E6
:100F6000030825E01F48006800F4E060B0F5A06FBA
:100F700002D10227B8461BE01A48006800F4E0607E
:100F8000B0F5806F03D103274FF0010810E015483A
:100F9000006800F4E060B0F5407F03D104274FF013
:100FA000000805E04FF4A06000F020F80227B846E2
:100FB000C7F1040005FA00F4C8F104010F20C8408D
:100FC0003040044324010848C45403F01F010120A9
:100FD00088405911890001F1E021C1F80001BDE804
:100FE000F08100000CED00E000E400E00249014364
:100FF000024A1160704700000000FA050CED00E0A5
:101000002DE9F04F8CB0074600200A904AA090E8E6
:10101000004CC068CDE905BECDF810A007900FF2D6
:101020001C1ADAE9000ACDE9020A0FF2101ADAE90D
:10103000000ACDE9000A44484068C0F381000B90E3
:101040000B9820B1012804D002283FD103E03F4A89
:101050003EE03E4A3CE03C48406800F4803CBCF541
:10106000803F12D13848C06A00F08048B8F1000FC4
:1010700001D1364B00E0364B3348406800F400396C
:10108000B9F5003F02D15B0800E0324B2E484068C2
:10109000C0F383412C48406800F0006008B141F083
:1010A00010012948406800F0804008B141F020015B
:1010B0000F2901D2891C06E00F2903D33E2901D84C
:1010C000491C00E03F2103FB01F201E01F4A00BF81
:1010D00000BF1D484068C0F3031504A8465D22FA0E
:1010E00006F419484068C0F3022502A8465D24FAB8
:1010F00006F0099014484068C0F3C2251DF8056049
:1011000024FA06F0089037B1012F06D0022F06D03E
:10111000032F0AD106E00A9208E00A9406E0099833
:101120000A9003E008980A9000E000BF00BF0A9808
:101130000CB0BDE8F08F00000000000000000000CF
:1011400001020304060708090010024000127A0099
:10115000006CDC0200093D00064A02EB90110968B0
:1011600000F01F0301229A401143024B03EB90123F
:101170001160704700100240064A02EB90110968A6
:1011800000F01F0301229A409143024B03EB90129F
:101190001160704700100240064A02EB9011096886
:1011A00000F01F0301229A401143024B03EB9012FF
:1011B0001160704700100240002000213F4A126871
:1011C00042F480323D4B1A6000BF401C3B4A12681B
:1011D00002F4003119B94FF6FF729042F5D1374A47
:1011E000126802F400320AB900BFFEE7334AD2693E
:1011F00042F08052314BDA61314A126842F4404287
:101200002F4B1A602D4A52682C4B5A601A4652686E
:101210005A601A46526842F480625A601A4652680E
:1012200022F440325A601A46526842F440325A6000
:101230001A465268234B1A40204B5A601A4652688D
:10124000214B1A431D4B5A601A46126842F08072B5
:101250001A6000BF194A126802F00072002AF9D021
:10126000174A126842F48032154B1A6000BF144AC4
:10127000526802F48032002AF9D0114A126842F40E
:1012800000320F4B1A6000BF0D4A526802F4003260
:10129000002AF9D0094A526822F00302074B5A602B
:1012A0001A46526842F002025A6000BF034A52686E
:1012B00002F00802002AF9D0704700000010024036
:1012C00000700040FFFFC3B70000340810B5FFF7FF
:1012D00073FF10BD2DE9F04704460D460027B846C0
:1012E000B94600261D49601A8C421CD006DC1C48F9
:1012F000204470B1B0F5806F1FD10FE0B0F5806F62
:1013000016D0B0F56C4F18D10320FFF779FE0746D1
:1013100014E00220FFF774FE07460FE00220FFF7FB
:101320006FFE07460AE00220FFF76AFE074605E067
:101330000220FFF765FE074600E000BF00BF07EB95
:101340005500B0FBF5F64FF6F07006EA000806F01F
:101350000F0948EA0900A060BDE8F087004C004092
:1013600000BCFFBF01464868C0F308007047C1F3E6
:10137000080242607047000010B504462049601A18
:101380008C4228D006DC1F48204490B1B0F5806F15
:1013900033D117E0B0F5806F26D0B0F56C4F2CD16B
:1013A00040F20E30FFF7F8FE40F20E30FFF7E4FE99
:1013B00024E040F21140FFF7EFFE40F21140FFF74A
:1013C000DBFE1BE040F21240FFF7E6FE40F2124067
:1013D000FFF7D2FE12E040F21340FFF7DDFE40F2CD
:1013E0001340FFF7C9FE09E040F21440FFF7D4FEB6
:1013F00040F21440FFF7C0FE00E000BF00BF10BD88
:10140000004C004000BCFFBFC16841F40051C16006
:10141000704710B5024602EB9110006801F01F04FE
:101420000123A340184008B1012010BD0020FCE7B3
:1014300010B500EB9112126801F01F040123A340C4
:101440001A4300EB91131A6010BDC1F3044301224B
:101450009A40D24300EB91531A60704770B5024630
:1014600000230024C1F38910105801F01F06012544
:10147000B54000EA050302EB91500068C1F3044651
:101480000125B54000EA050414B10BB1012070BD7F
:101490000020FCE7C26822F4C062C260C2680A434E
:1014A000C2607047C26822F00402C260C26801F0E4
:1014B00004031A43C2607047026922F44052026179
:1014C00002690A4302617047C26822F00802C260E2
:1014D000C26801F008031A43C2607047C26822F470
:1014E0008052C260C2680A43C26070470C1500088F
:1014F00000000020AC000000A4090008B815000896
:10150000AC000020A4040000B409000800000000A2
:101510000500000005000000BD02000800000000FA
:10152000F4010000F4010000410800080206000078
:1015300000080140010000000806000000200140F2
:1015400000200000080600000020014000400000CC
:101550000806000000200140008000000206000094
:1015600000080140000100000606000000180140CC
:101570004000000007060000001C01404000000081
:10158000000000000000000000000000000000005B
:1015900000000000003801400E0600000008014075
:1015A0000206000000020000000400002500000008
:0815B000000000000000000033
:0400000508000131BD
:00000001FF
