Component: Arm Compiler for Embedded 6.21 Tool: armlink [5ec1fa00]

==============================================================================

Section Cross References

    main.o(.ARM.exidx.text.Delay) refers to main.o(.text.Delay) for [Anonymous Symbol]
    main.o(.text.main) refers to gd32f30x_rcu.o(.text.rcu_periph_clock_enable) for rcu_periph_clock_enable
    main.o(.text.main) refers to gd32f30x_gpio.o(.text.gpio_init) for gpio_init
    main.o(.text.main) refers to gd32f30x_gpio.o(.text.gpio_input_bit_get) for gpio_input_bit_get
    main.o(.text.main) refers to gd32f30x_gpio.o(.text.gpio_bit_set) for gpio_bit_set
    main.o(.text.main) refers to gd32f30x_gpio.o(.text.gpio_bit_reset) for gpio_bit_reset
    main.o(.ARM.exidx.text.main) refers to main.o(.text.main) for [Anonymous Symbol]
    gd32f30x_gpio.o(.text.gpio_deinit) refers to gd32f30x_rcu.o(.text.rcu_periph_reset_enable) for rcu_periph_reset_enable
    gd32f30x_gpio.o(.text.gpio_deinit) refers to gd32f30x_rcu.o(.text.rcu_periph_reset_disable) for rcu_periph_reset_disable
    gd32f30x_gpio.o(.ARM.exidx.text.gpio_deinit) refers to gd32f30x_gpio.o(.text.gpio_deinit) for [Anonymous Symbol]
    gd32f30x_gpio.o(.text.gpio_afio_deinit) refers to gd32f30x_rcu.o(.text.rcu_periph_reset_enable) for rcu_periph_reset_enable
    gd32f30x_gpio.o(.text.gpio_afio_deinit) refers to gd32f30x_rcu.o(.text.rcu_periph_reset_disable) for rcu_periph_reset_disable
    gd32f30x_gpio.o(.ARM.exidx.text.gpio_afio_deinit) refers to gd32f30x_gpio.o(.text.gpio_afio_deinit) for [Anonymous Symbol]
    gd32f30x_gpio.o(.ARM.exidx.text.gpio_init) refers to gd32f30x_gpio.o(.text.gpio_init) for [Anonymous Symbol]
    gd32f30x_gpio.o(.ARM.exidx.text.gpio_bit_set) refers to gd32f30x_gpio.o(.text.gpio_bit_set) for [Anonymous Symbol]
    gd32f30x_gpio.o(.ARM.exidx.text.gpio_bit_reset) refers to gd32f30x_gpio.o(.text.gpio_bit_reset) for [Anonymous Symbol]
    gd32f30x_gpio.o(.ARM.exidx.text.gpio_bit_write) refers to gd32f30x_gpio.o(.text.gpio_bit_write) for [Anonymous Symbol]
    gd32f30x_gpio.o(.ARM.exidx.text.gpio_port_write) refers to gd32f30x_gpio.o(.text.gpio_port_write) for [Anonymous Symbol]
==============================================================================

Removing Unused input sections from the image.

    Removing main.o(.text), (0 bytes).
    Removing main.o(.text.Delay), (22 bytes).
    Removing main.o(.ARM.exidx.text.Delay), (8 bytes).
    Removing main.o(.ARM.exidx.text.main), (8 bytes).
    Removing main.o(.ARM.use_no_argv), (4 bytes).
    Removing gd32f30x_gpio.o(.text), (0 bytes).
    Removing gd32f30x_gpio.o(.text.gpio_deinit), (252 bytes).
    Removing gd32f30x_gpio.o(.ARM.exidx.text.gpio_deinit), (8 bytes).
    Removing gd32f30x_gpio.o(.text.gpio_afio_deinit), (24 bytes).
    Removing gd32f30x_gpio.o(.ARM.exidx.text.gpio_afio_deinit), (8 bytes).
    Removing gd32f30x_gpio.o(.ARM.exidx.text.gpio_init), (8 bytes).
    Removing gd32f30x_gpio.o(.ARM.exidx.text.gpio_bit_set), (8 bytes).
    Removing gd32f30x_gpio.o(.ARM.exidx.text.gpio_bit_reset), (8 bytes).
    Removing gd32f30x_gpio.o(.text.gpio_bit_write), (38 bytes).
    Removing gd32f30x_gpio.o(.ARM.exidx.text.gpio_bit_write), (8 bytes).
    Removing gd32f30x_gpio.o(.text.gpio_port_write), (20 bytes).
    Removing gd32f30x_gpio.o(.ARM.exidx.text.gpio_port_write), (8 bytes).
    Removing gd32f30x_gpio.o(.ARM.exidx.text.gpio_input_bit_get), (8 bytes).
==============================================================================

Image Symbol Table

    Local Symbols

    Symbol Name                              Value     Ov Type        Size  Object(Section)

    ../clib/microlib/init/entry.s            0x00000000   Number         0  entry.o ABSOLUTE
    ../clib/microlib/init/entry.s            0x00000000   Number         0  entry2.o ABSOLUTE
    ../clib/microlib/init/entry.s            0x00000000   Number         0  entry5.o ABSOLUTE
    ../clib/microlib/init/entry.s            0x00000000   Number         0  entry7a.o ABSOLUTE
    ../clib/microlib/init/entry.s            0x00000000   Number         0  entry7b.o ABSOLUTE
    ../clib/microlib/init/entry.s            0x00000000   Number         0  entry8a.o ABSOLUTE
    ../clib/microlib/init/entry.s            0x00000000   Number         0  entry8b.o ABSOLUTE
    ../clib/microlib/init/entry.s            0x00000000   Number         0  entry9a.o ABSOLUTE
    ../clib/microlib/init/entry.s            0x00000000   Number         0  entry9b.o ABSOLUTE
    ../clib/microlib/init/entry.s            0x00000000   Number         0  entry10a.o ABSOLUTE
    ../clib/microlib/init/entry.s            0x00000000   Number         0  entry10b.o ABSOLUTE
    ../clib/microlib/init/entry.s            0x00000000   Number         0  entry11a.o ABSOLUTE
    ../clib/microlib/init/entry.s            0x00000000   Number         0  entry11b.o ABSOLUTE
    RTE/Device/GD32F303ZE/startup_gd32f30x_hd.s 0x00000000   Number         0  startup_gd32f30x_hd_1.o ABSOLUTE
    dc.s                                     0x00000000   Number         0  dc.o ABSOLUTE
    gd32f30x_gpio.c                          0x00000000   Number         0  gd32f30x_gpio.o ABSOLUTE
    gd32f30x_misc.c                          0x00000000   Number         0  gd32f30x_misc.o ABSOLUTE
    gd32f30x_pmu.c                           0x00000000   Number         0  gd32f30x_pmu.o ABSOLUTE
    gd32f30x_rcu.c                           0x00000000   Number         0  gd32f30x_rcu.o ABSOLUTE
    handlers.s                               0x00000000   Number         0  handlers.o ABSOLUTE
    init.s                                   0x00000000   Number         0  init.o ABSOLUTE
    main.c                                   0x00000000   Number         0  main.o ABSOLUTE
    system_gd32f30x.c                        0x00000000   Number         0  system_gd32f30x.o ABSOLUTE
    RESET                                    0x08000000   Section      304  startup_gd32f30x_hd_1.o(RESET)
    .ARM.Collect$$$$00000000                 0x08000130   Section        0  entry.o(.ARM.Collect$$$$00000000)
    .ARM.Collect$$$$00000001                 0x08000130   Section        4  entry2.o(.ARM.Collect$$$$00000001)
    .ARM.Collect$$$$00000004                 0x08000134   Section        4  entry5.o(.ARM.Collect$$$$00000004)
    .ARM.Collect$$$$00000008                 0x08000138   Section        0  entry7b.o(.ARM.Collect$$$$00000008)
    .ARM.Collect$$$$0000000A                 0x08000138   Section        0  entry8b.o(.ARM.Collect$$$$0000000A)
    .ARM.Collect$$$$0000000B                 0x08000138   Section        8  entry9a.o(.ARM.Collect$$$$0000000B)
    __lit__00000000                          0x08000140   Data           4  entry2.o(.ARM.Collect$$$$00002712)
    .ARM.Collect$$$$0000000D                 0x08000140   Section        0  entry10a.o(.ARM.Collect$$$$0000000D)
    .ARM.Collect$$$$0000000F                 0x08000140   Section        0  entry11a.o(.ARM.Collect$$$$0000000F)
    .ARM.Collect$$$$00002712                 0x08000140   Section        4  entry2.o(.ARM.Collect$$$$00002712)
    $v0                                      0x08000144   Number         0  startup_gd32f30x_hd_1.o(.text)
    .text                                    0x08000144   Section       28  startup_gd32f30x_hd_1.o(.text)
    .text                                    0x08000160   Section       48  init.o(.text)
    [Anonymous Symbol]                       0x08000190   Section        0  gd32f30x_gpio.o(.text.gpio_bit_reset)
    [Anonymous Symbol]                       0x080001a0   Section        0  gd32f30x_gpio.o(.text.gpio_bit_set)
    [Anonymous Symbol]                       0x080001b0   Section        0  gd32f30x_gpio.o(.text.gpio_init)
    [Anonymous Symbol]                       0x08000334   Section        0  gd32f30x_gpio.o(.text.gpio_input_bit_get)
    [Anonymous Symbol]                       0x08000360   Section        0  main.o(.text.main)
    [Anonymous Symbol]                       0x080003d0   Section        0  gd32f30x_rcu.o(.text.rcu_periph_clock_enable)
    i.__scatterload_copy                     0x080003f8   Section       14  handlers.o(i.__scatterload_copy)
    i.__scatterload_null                     0x08000406   Section        2  handlers.o(i.__scatterload_null)
    i.__scatterload_zeroinit                 0x08000408   Section       14  handlers.o(i.__scatterload_zeroinit)
    STACK                                    0x20000000   Section     1024  startup_gd32f30x_hd_1.o(STACK)

    Global Symbols

    Symbol Name                              Value     Ov Type        Size  Object(Section)

    BuildAttributes$$THM_ISAv4$E$P$D$K$B$S$7EM$VFPi3$EXTD16$VFPS$VFMA$PE$A:L22UL41UL21$X:L11$S22US41US21$IEEE1$IW$~IW$USESV6$~STKCKD$USESV7$~SHL$OSPACE$EBA8$MICROLIB$REQ8$PRES8$EABIv2 0x00000000   Number         0  anon$$obj.o ABSOLUTE
    __cpp_initialize__aeabi_                  - Undefined Weak Reference
    __cxa_finalize                            - Undefined Weak Reference
    __decompress                              - Undefined Weak Reference
    _clock_init                               - Undefined Weak Reference
    _microlib_exit                            - Undefined Weak Reference
    __Vectors_Size                           0x00000130   Number         0  startup_gd32f30x_hd_1.o ABSOLUTE
    __Vectors                                0x08000000   Data           4  startup_gd32f30x_hd_1.o(RESET)
    __Vectors_End                            0x08000130   Data           0  startup_gd32f30x_hd_1.o(RESET)
    __main                                   0x08000131   Thumb Code     0  entry.o(.ARM.Collect$$$$00000000)
    _main_stk                                0x08000131   Thumb Code     0  entry2.o(.ARM.Collect$$$$00000001)
    _main_scatterload                        0x08000135   Thumb Code     0  entry5.o(.ARM.Collect$$$$00000004)
    __main_after_scatterload                 0x08000139   Thumb Code     0  entry5.o(.ARM.Collect$$$$00000004)
    _main_clock                              0x08000139   Thumb Code     0  entry7b.o(.ARM.Collect$$$$00000008)
    _main_cpp_init                           0x08000139   Thumb Code     0  entry8b.o(.ARM.Collect$$$$0000000A)
    _main_init                               0x08000139   Thumb Code     0  entry9a.o(.ARM.Collect$$$$0000000B)
    __rt_final_cpp                           0x08000141   Thumb Code     0  entry10a.o(.ARM.Collect$$$$0000000D)
    __rt_final_exit                          0x08000141   Thumb Code     0  entry11a.o(.ARM.Collect$$$$0000000F)
    Reset_Handler                            0x08000145   Thumb Code     4  startup_gd32f30x_hd_1.o(.text)
    NMI_Handler                              0x08000149   Thumb Code     2  startup_gd32f30x_hd_1.o(.text)
    HardFault_Handler                        0x0800014b   Thumb Code     2  startup_gd32f30x_hd_1.o(.text)
    MemManage_Handler                        0x0800014d   Thumb Code     2  startup_gd32f30x_hd_1.o(.text)
    BusFault_Handler                         0x0800014f   Thumb Code     2  startup_gd32f30x_hd_1.o(.text)
    UsageFault_Handler                       0x08000151   Thumb Code     2  startup_gd32f30x_hd_1.o(.text)
    SVC_Handler                              0x08000153   Thumb Code     2  startup_gd32f30x_hd_1.o(.text)
    DebugMon_Handler                         0x08000155   Thumb Code     2  startup_gd32f30x_hd_1.o(.text)
    PendSV_Handler                           0x08000157   Thumb Code     2  startup_gd32f30x_hd_1.o(.text)
    SysTick_Handler                          0x08000159   Thumb Code     2  startup_gd32f30x_hd_1.o(.text)
    ADC0_1_IRQHandler                        0x0800015b   Thumb Code     0  startup_gd32f30x_hd_1.o(.text)
    ADC2_IRQHandler                          0x0800015b   Thumb Code     0  startup_gd32f30x_hd_1.o(.text)
    CAN0_EWMC_IRQHandler                     0x0800015b   Thumb Code     0  startup_gd32f30x_hd_1.o(.text)
    CAN0_RX1_IRQHandler                      0x0800015b   Thumb Code     0  startup_gd32f30x_hd_1.o(.text)
    DMA0_Channel0_IRQHandler                 0x0800015b   Thumb Code     0  startup_gd32f30x_hd_1.o(.text)
    DMA0_Channel1_IRQHandler                 0x0800015b   Thumb Code     0  startup_gd32f30x_hd_1.o(.text)
    DMA0_Channel2_IRQHandler                 0x0800015b   Thumb Code     0  startup_gd32f30x_hd_1.o(.text)
    DMA0_Channel3_IRQHandler                 0x0800015b   Thumb Code     0  startup_gd32f30x_hd_1.o(.text)
    DMA0_Channel4_IRQHandler                 0x0800015b   Thumb Code     0  startup_gd32f30x_hd_1.o(.text)
    DMA0_Channel5_IRQHandler                 0x0800015b   Thumb Code     0  startup_gd32f30x_hd_1.o(.text)
    DMA0_Channel6_IRQHandler                 0x0800015b   Thumb Code     0  startup_gd32f30x_hd_1.o(.text)
    DMA1_Channel0_IRQHandler                 0x0800015b   Thumb Code     0  startup_gd32f30x_hd_1.o(.text)
    DMA1_Channel1_IRQHandler                 0x0800015b   Thumb Code     0  startup_gd32f30x_hd_1.o(.text)
    DMA1_Channel2_IRQHandler                 0x0800015b   Thumb Code     0  startup_gd32f30x_hd_1.o(.text)
    DMA1_Channel3_4_IRQHandler               0x0800015b   Thumb Code     0  startup_gd32f30x_hd_1.o(.text)
    EXMC_IRQHandler                          0x0800015b   Thumb Code     0  startup_gd32f30x_hd_1.o(.text)
    EXTI0_IRQHandler                         0x0800015b   Thumb Code     0  startup_gd32f30x_hd_1.o(.text)
    EXTI10_15_IRQHandler                     0x0800015b   Thumb Code     0  startup_gd32f30x_hd_1.o(.text)
    EXTI1_IRQHandler                         0x0800015b   Thumb Code     0  startup_gd32f30x_hd_1.o(.text)
    EXTI2_IRQHandler                         0x0800015b   Thumb Code     0  startup_gd32f30x_hd_1.o(.text)
    EXTI3_IRQHandler                         0x0800015b   Thumb Code     0  startup_gd32f30x_hd_1.o(.text)
    EXTI4_IRQHandler                         0x0800015b   Thumb Code     0  startup_gd32f30x_hd_1.o(.text)
    EXTI5_9_IRQHandler                       0x0800015b   Thumb Code     0  startup_gd32f30x_hd_1.o(.text)
    FMC_IRQHandler                           0x0800015b   Thumb Code     0  startup_gd32f30x_hd_1.o(.text)
    I2C0_ER_IRQHandler                       0x0800015b   Thumb Code     0  startup_gd32f30x_hd_1.o(.text)
    I2C0_EV_IRQHandler                       0x0800015b   Thumb Code     0  startup_gd32f30x_hd_1.o(.text)
    I2C1_ER_IRQHandler                       0x0800015b   Thumb Code     0  startup_gd32f30x_hd_1.o(.text)
    I2C1_EV_IRQHandler                       0x0800015b   Thumb Code     0  startup_gd32f30x_hd_1.o(.text)
    LVD_IRQHandler                           0x0800015b   Thumb Code     0  startup_gd32f30x_hd_1.o(.text)
    RCU_CTC_IRQHandler                       0x0800015b   Thumb Code     0  startup_gd32f30x_hd_1.o(.text)
    RTC_Alarm_IRQHandler                     0x0800015b   Thumb Code     0  startup_gd32f30x_hd_1.o(.text)
    RTC_IRQHandler                           0x0800015b   Thumb Code     0  startup_gd32f30x_hd_1.o(.text)
    SDIO_IRQHandler                          0x0800015b   Thumb Code     0  startup_gd32f30x_hd_1.o(.text)
    SPI0_IRQHandler                          0x0800015b   Thumb Code     0  startup_gd32f30x_hd_1.o(.text)
    SPI1_IRQHandler                          0x0800015b   Thumb Code     0  startup_gd32f30x_hd_1.o(.text)
    SPI2_IRQHandler                          0x0800015b   Thumb Code     0  startup_gd32f30x_hd_1.o(.text)
    TAMPER_IRQHandler                        0x0800015b   Thumb Code     0  startup_gd32f30x_hd_1.o(.text)
    TIMER0_BRK_IRQHandler                    0x0800015b   Thumb Code     0  startup_gd32f30x_hd_1.o(.text)
    TIMER0_Channel_IRQHandler                0x0800015b   Thumb Code     0  startup_gd32f30x_hd_1.o(.text)
    TIMER0_TRG_CMT_IRQHandler                0x0800015b   Thumb Code     0  startup_gd32f30x_hd_1.o(.text)
    TIMER0_UP_IRQHandler                     0x0800015b   Thumb Code     0  startup_gd32f30x_hd_1.o(.text)
    TIMER1_IRQHandler                        0x0800015b   Thumb Code     0  startup_gd32f30x_hd_1.o(.text)
    TIMER2_IRQHandler                        0x0800015b   Thumb Code     0  startup_gd32f30x_hd_1.o(.text)
    TIMER3_IRQHandler                        0x0800015b   Thumb Code     0  startup_gd32f30x_hd_1.o(.text)
    TIMER4_IRQHandler                        0x0800015b   Thumb Code     0  startup_gd32f30x_hd_1.o(.text)
    TIMER5_IRQHandler                        0x0800015b   Thumb Code     0  startup_gd32f30x_hd_1.o(.text)
    TIMER6_IRQHandler                        0x0800015b   Thumb Code     0  startup_gd32f30x_hd_1.o(.text)
    TIMER7_BRK_IRQHandler                    0x0800015b   Thumb Code     0  startup_gd32f30x_hd_1.o(.text)
    TIMER7_Channel_IRQHandler                0x0800015b   Thumb Code     0  startup_gd32f30x_hd_1.o(.text)
    TIMER7_TRG_CMT_IRQHandler                0x0800015b   Thumb Code     0  startup_gd32f30x_hd_1.o(.text)
    TIMER7_UP_IRQHandler                     0x0800015b   Thumb Code     0  startup_gd32f30x_hd_1.o(.text)
    UART3_IRQHandler                         0x0800015b   Thumb Code     0  startup_gd32f30x_hd_1.o(.text)
    UART4_IRQHandler                         0x0800015b   Thumb Code     0  startup_gd32f30x_hd_1.o(.text)
    USART0_IRQHandler                        0x0800015b   Thumb Code     0  startup_gd32f30x_hd_1.o(.text)
    USART1_IRQHandler                        0x0800015b   Thumb Code     0  startup_gd32f30x_hd_1.o(.text)
    USART2_IRQHandler                        0x0800015b   Thumb Code     0  startup_gd32f30x_hd_1.o(.text)
    USBD_HP_CAN0_TX_IRQHandler               0x0800015b   Thumb Code     0  startup_gd32f30x_hd_1.o(.text)
    USBD_LP_CAN0_RX0_IRQHandler              0x0800015b   Thumb Code     0  startup_gd32f30x_hd_1.o(.text)
    USBD_WKUP_IRQHandler                     0x0800015b   Thumb Code     0  startup_gd32f30x_hd_1.o(.text)
    WWDGT_IRQHandler                         0x0800015b   Thumb Code     0  startup_gd32f30x_hd_1.o(.text)
    __scatterload                            0x08000161   Thumb Code    38  init.o(.text)
    __scatterload_rt2                        0x08000161   Thumb Code     0  init.o(.text)
    gpio_bit_reset                           0x08000191   Thumb Code    16  gd32f30x_gpio.o(.text.gpio_bit_reset)
    gpio_bit_set                             0x080001a1   Thumb Code    16  gd32f30x_gpio.o(.text.gpio_bit_set)
    gpio_init                                0x080001b1   Thumb Code   388  gd32f30x_gpio.o(.text.gpio_init)
    gpio_input_bit_get                       0x08000335   Thumb Code    42  gd32f30x_gpio.o(.text.gpio_input_bit_get)
    main                                     0x08000361   Thumb Code   110  main.o(.text.main)
    rcu_periph_clock_enable                  0x080003d1   Thumb Code    40  gd32f30x_rcu.o(.text.rcu_periph_clock_enable)
    __scatterload_copy                       0x080003f9   Thumb Code    14  handlers.o(i.__scatterload_copy)
    __scatterload_null                       0x08000407   Thumb Code     2  handlers.o(i.__scatterload_null)
    __scatterload_zeroinit                   0x08000409   Thumb Code    14  handlers.o(i.__scatterload_zeroinit)
    Region$$Table$$Base                      0x08000418   Number         0  anon$$obj.o(Region$$Table)
    Region$$Table$$Limit                     0x08000428   Number         0  anon$$obj.o(Region$$Table)
    __initial_sp                             0x20000400   Data           0  startup_gd32f30x_hd_1.o(STACK)



==============================================================================

Memory Map of the image

  Image Entry point : 0x08000131

  Load Region LR_IROM1 (Base: 0x08000000, Size: 0x00000428, Max: 0x00080000, ABSOLUTE)

    Execution Region ER_IROM1 (Exec base: 0x08000000, Load base: 0x08000000, Size: 0x00000428, Max: 0x00080000, ABSOLUTE)

    Exec Addr    Load Addr    Size         Type   Attr      Idx    E Section Name        Object

    0x08000000   0x08000000   0x00000130   Data   RO          216    RESET               startup_gd32f30x_hd_1.o
    0x08000130   0x08000130   0x00000000   Code   RO          240  * .ARM.Collect$$$$00000000  mc_w.l(entry.o)
    0x08000130   0x08000130   0x00000004   Code   RO          243    .ARM.Collect$$$$00000001  mc_w.l(entry2.o)
    0x08000134   0x08000134   0x00000004   Code   RO          246    .ARM.Collect$$$$00000004  mc_w.l(entry5.o)
    0x08000138   0x08000138   0x00000000   Code   RO          248    .ARM.Collect$$$$00000008  mc_w.l(entry7b.o)
    0x08000138   0x08000138   0x00000000   Code   RO          250    .ARM.Collect$$$$0000000A  mc_w.l(entry8b.o)
    0x08000138   0x08000138   0x00000008   Code   RO          251    .ARM.Collect$$$$0000000B  mc_w.l(entry9a.o)
    0x08000140   0x08000140   0x00000000   Code   RO          253    .ARM.Collect$$$$0000000D  mc_w.l(entry10a.o)
    0x08000140   0x08000140   0x00000000   Code   RO          255    .ARM.Collect$$$$0000000F  mc_w.l(entry11a.o)
    0x08000140   0x08000140   0x00000004   Code   RO          244    .ARM.Collect$$$$00002712  mc_w.l(entry2.o)
    0x08000144   0x08000144   0x0000001c   Code   RO          217    .text               startup_gd32f30x_hd_1.o
    0x08000160   0x08000160   0x00000030   Code   RO          257    .text               mc_w.l(init.o)
    0x08000190   0x08000190   0x00000010   Code   RO           22    .text.gpio_bit_reset  gd32f30x_gpio.o
    0x080001a0   0x080001a0   0x00000010   Code   RO           20    .text.gpio_bit_set  gd32f30x_gpio.o
    0x080001b0   0x080001b0   0x00000184   Code   RO           18    .text.gpio_init     gd32f30x_gpio.o
    0x08000334   0x08000334   0x0000002a   Code   RO           28    .text.gpio_input_bit_get  gd32f30x_gpio.o
    0x0800035e   0x0800035e   0x00000002   PAD
    0x08000360   0x08000360   0x0000006e   Code   RO            4    .text.main          main.o
    0x080003ce   0x080003ce   0x00000002   PAD
    0x080003d0   0x080003d0   0x00000028   Code   RO          132    .text.rcu_periph_clock_enable  gd32f30x_rcu.o
    0x080003f8   0x080003f8   0x0000000e   Code   RO          261    i.__scatterload_copy  mc_w.l(handlers.o)
    0x08000406   0x08000406   0x00000002   Code   RO          262    i.__scatterload_null  mc_w.l(handlers.o)
    0x08000408   0x08000408   0x0000000e   Code   RO          263    i.__scatterload_zeroinit  mc_w.l(handlers.o)
    0x08000416   0x08000416   0x00000002   PAD
    0x08000418   0x08000418   0x00000010   Data   RO          260    Region$$Table       anon$$obj.o


    Execution Region RW_IRAM1 (Exec base: 0x20000000, Load base: 0x08000428, Size: 0x00000400, Max: 0x00010000, ABSOLUTE)

    Exec Addr    Load Addr    Size         Type   Attr      Idx    E Section Name        Object

    0x20000000        -       0x00000400   Zero   RW          214    STACK               startup_gd32f30x_hd_1.o


==============================================================================

Image component sizes


      Code (inc. data)   RO Data    RW Data    ZI Data      Debug   Object Name

       462          0          0          0          0       5484   gd32f30x_gpio.o
        40          0          0          0          0      10877   gd32f30x_rcu.o
       110          0          0          0          0       1727   main.o
        28          4        304          0       1024        892   startup_gd32f30x_hd_1.o

    ----------------------------------------------------------------------
       644          4        320          0       1024      18980   Object Totals
         0          0         16          0          0          0   (incl. Generated)
         4          0          0          0          0          0   (incl. Padding)

    ----------------------------------------------------------------------

      Code (inc. data)   RO Data    RW Data    ZI Data      Debug   Library Member Name

         0          0          0          0          0          0   entry.o
         0          0          0          0          0          0   entry10a.o
         0          0          0          0          0          0   entry11a.o
         8          4          0          0          0          0   entry2.o
         4          0          0          0          0          0   entry5.o
         0          0          0          0          0          0   entry7b.o
         0          0          0          0          0          0   entry8b.o
         8          4          0          0          0          0   entry9a.o
        30          0          0          0          0          0   handlers.o
        48         10          0          0          0         68   init.o

    ----------------------------------------------------------------------
       100         18          0          0          0         68   Library Totals
         2          0          0          0          0          0   (incl. Padding)

    ----------------------------------------------------------------------

      Code (inc. data)   RO Data    RW Data    ZI Data      Debug   Library Name

        98         18          0          0          0         68   mc_w.l

    ----------------------------------------------------------------------
       100         18          0          0          0         68   Library Totals

    ----------------------------------------------------------------------

==============================================================================


      Code (inc. data)   RO Data    RW Data    ZI Data      Debug   

       744         22        320          0       1024      19212   Grand Totals
       744         22        320          0       1024      19212   ELF Image Totals
       744         22        320          0          0          0   ROM Totals

==============================================================================

    Total RO  Size (Code + RO Data)                 1064 (   1.04kB)
    Total RW  Size (RW Data + ZI Data)              1024 (   1.00kB)
    Total ROM Size (Code + RO Data + RW Data)       1064 (   1.04kB)

==============================================================================

