:020000040800F2
:1000000028040020450100084D0100084F010008A8
:1000100051010008530100085501000800000000CC
:100020000000000000000000000000005701000870
:1000300059010008000000005B0100085D01000894
:100040005F0100085F0100085F0100085F01000810
:100050005F0100085F0100085F0100085F01000800
:100060005F0100085F0100085F0100085F010008F0
:100070005F0100085F0100085F0100085F010008E0
:100080005F0100085F0100085F0100085F010008D0
:100090005F0100085F0100085F0100085F010008C0
:1000A0005F0100085F0100085F0100085F010008B0
:1000B0005F0100085F0100085F0100085F010008A0
:1000C0005F0100085F0100085F0100085F01000890
:1000D0005F0100085F0100085F0100085F01000880
:1000E0005F0100085F0100085F0100085F01000870
:1000F0005F0100085F0100085F0100085F01000860
:100100005F0100085F0100085F0100085F0100084F
:100110005F0100085F0100085F0100085F0100083F
:100120005F0100085F0100085F0100085F0100082F
:10013000DFF80CD000F018F80048004799050008D7
:10014000280400200648804706480047FEE7FEE7EF
:10015000FEE7FEE7FEE7FEE7FEE7FEE7FEE7FEE777
:10016000C5020008310100081CB509480090094883
:1001700001900546009C06E0E06840F0010394E829
:10018000070098471034AC42F6D3FFF7D5FF0000C4
:10019000B4090008D409000880B582B0019000209D
:1001A0000090FFE700980199884209D2FFE74FF4D9
:1001B0007A7000F007F8FFE7009801300090F1E74F
:1001C00002B080BD80B582B0019041F20400CEF251
:1001D000000000680090012000F012FA4DF68361E3
:1001E000C4F21B31A0FB0110810C0198484301901F
:1001F000FFE741F20400CEF2000000680099401AC7
:100200000199884201D2FFE7F3E702B080BD000008
:100210004EF6FC51CEF20001086820F080700860B4
:10022000086840F08070086041F20001CEF20001E1
:10023000086820F001000860086840F001000860CC
:1002400041F20401CEF20001002008607047000076
:1002500080B582B000208DF80700FFE79DF8070009
:1002600002282CD8FFE79DF8070000EB400140F280
:100270000000C2F20000009030F8210000F0B8FA4F
:1002800000989DF8071001EB410100EB81014868DF
:100290008B681021022200F0BDF800989DF807102D
:1002A00001EB410100EB81014868896800F0A2F888
:1002B000FFE79DF8070001308DF80700CEE702B098
:1002C00080BD000080B582B04EF68851CEF20001AC
:1002D000086840F47000086041F20001C4F20201B5
:1002E000086840F001000860FFE741F20000C4F236
:1002F000020000688007002801D4FFE7F5E7FFE768
:1003000041F20401C4F20201086840F08000086074
:1003100000200190FFE701984F2805D8FFE7FFE78D
:10032000019801300190F6E741F20401C4F20201A4
:10033000086840F09000086000200190FFE70198F5
:100340004F2805D8FFE7FFE7019801300190F6E755
:10035000FFE741F20401C4F20201086820F0030043
:10036000086041F20002C4F2020210684FF6FF7307
:10037000CFF6F6631840106041F20803C4F202039E
:100380004FF41F001860106820F4802010600020D7
:10039000086041F22C01C4F20201086000F0F6FA94
:1003A00002B080BD80B582B08DF807009DF80700CF
:1003B00000EB400140F20000C2F2000000EB8101BE
:1003C0004868896800F016F802B080BD80B582B038
:1003D0008DF807009DF8070000EB400140F2000097
:1003E000C2F2000000EB81014868896800F00AF859
:1003F00002B080BD82B001900091009801994861DF
:1004000002B0704782B00190009100980199086194
:1004100002B0704787B006900591049203930020C4
:1004200001900090059800F00F0001909DF81400D5
:10043000C006002814D5FFE7049804280AD1FFE776
:10044000019840F003000190039A0699C86B10438D
:10045000C86304E00499019808430190FFE7FFE7AF
:100460000020ADF80A00FFE7BDF80A00072842D8CF
:10047000FFE7BDF80A100398C840C007A0B3FFE724
:10048000069800680090BDF80A0081000F2000FA6D
:1004900001F10098884300900198BDF80A10890086
:1004A00000FA01F10098084300900598282809D126
:1004B000FFE7BDF80A10012088400399084006991B
:1004C00048610DE00598482809D1FFE7BDF80A10FA
:1004D000012088400399084006990861FFE7FFE77B
:1004E000009806990860FFE7FFE7BDF80A000130B1
:1004F000ADF80A00B8E70820ADF80A00FFE7BDF83C
:100500000A000F2846D8FFE7BDF80A100398C84034
:10051000C007C0B3FFE7069840680090BDF80A0026
:100520006FF01F0101EB80020F2000FA02F2009829
:10053000904300900198BDF80A2001EB820100FA77
:1005400001F10098084300900598282809D1FFE799
:10055000BDF80A10012088400399084006994861B7
:100560000DE00598482809D1FFE7BDF80A100120E1
:1005700088400399084006990861FFE7FFE7009863
:1005800006994860FFE7FFE7BDF80A000130ADF8C3
:100590000A00B4E707B0704780B586B00020059028
:1005A000FFF736FEFFF754FEFFE701200390FFF749
:1005B000F9FE00200190FFF709FF4FF47A700490D4
:1005C000FFF7EAFD0198FFF7EDFE0398FFF7FEFE47
:1005D0000498FFF7E1FD0398FFF7E4FE0220029084
:1005E000FFF7F4FE0498FFF7D7FD0298FFF7DAFE55
:1005F0000398FFF7EBFE0498FFF7CEFDD5E7000068
:1006000098B08DF85F000020159040F20671C0F69A
:100610000811099140F20121C0F2034108910790AD
:100620000690059104900391029041F20400C4F2F7
:1006300002000068C0F3810016901698019040B146
:10064000FFE7019801280AD0FFE7019802280CD0A3
:1006500084E041F20020C0F27A00149084E041F27C
:100660000020C0F27A0014907EE041F20400C4F24F
:100670000200006800F4803010901098B0F5803FC0
:1006800029D1FFE741F22C00C4F20200006800F01B
:1006900080400F900F9830B9FFE741F20020C0F280
:1006A0007A000C9005E046F60040C0F2DC200C9089
:1006B000FFE741F20400C4F20200006800F40030D9
:1006C0000E900E98B0F5003F04D1FFE70C9840085B
:1006D0000C90FFE705E040F60010C0F23D000C90E2
:1006E000FFE741F20400C4F202000168C1F3834154
:1006F0000D9100680001002805D5FFE70D9840F036
:1007000010000D90FFE741F20400C4F202000068FF
:100710004000002805D5FFE70D9840F020000D901F
:10072000FFE70D980E2804D8FFE70D9802300D90D2
:100730000FE00D980F2808D3FFE70D983E2804D846
:10074000FFE70D9801300D9002E03F200D90FFE78C
:10075000FFE70C980D994843149005E041F2002002
:10076000C0F27A001490FFE741F20400C4F20200E4
:100770000168C9B209090B910B9A06A9895C0A9113
:1007800014990A9AD14013910168C1F302210B9187
:100790000B9A04A9895C0A9113990A9AD140129183
:1007A0000068C0F3C2200B900B9902A8405C0A902D
:1007B00013980A99C84011909DF85F000146009176
:1007C000032810D80099DFE801F00205080B1498FF
:1007D000159009E01398159006E01298159003E023
:1007E0001198159000E0FFE7159818B070470000C9
:1007F00081B0ADF80200BDF8020000F01F02012137
:1008000001FA02F3810941F20002C4F2020288589F
:100810001843885001B0704784B0002003900290C4
:1008200041F20001C4F20201086840F4803008601F
:10083000FFE703980130039041F20000C4F2020088
:10084000006800F400300290FFE702990020019058
:1008500041B9FFE703984FF6FF71401A18BF012016
:100860000190FFE70198C0070028E2D1FFE741F2BD
:100870000000C4F2020000688003002802D4FFE7F1
:10088000FFE7FEE741F21C01C4F20201086840F0F4
:100890008050086047F20001C4F20001086840F48B
:1008A0004040086041F20401C4F20201009108686E
:1008B000086008680860086840F48060086008689C
:1008C00020F440300860086840F440300860086850
:1008D0004FF6FF72CBF2C372104008600868002226
:1008E000C0F634021043086041F20001C4F2020174
:1008F000086840F080700860FFE741F20000C4F231
:10090000020000688001002801D4FFE7F5E747F204
:100910000001C4F20001086840F480300860FFE77D
:1009200047F20400C4F200000068C003002801D4AC
:10093000FFE7F5E747F20001C4F20001086840F460
:1009400000300860FFE747F20400C4F200000068CE
:100950008003002801D4FFE7F5E741F20401C4F267
:100960000201086820F003000860086840F00200F7
:100970000860FFE741F20400C4F2020000680007CB
:10098000002801D4FFE7F5E704B0704780B5FFF712
:1009900043FF80BD02E008C8121F08C1002AFAD137
:1009A00070477047002001E001C1121F002AFBD1EF
:1009B00070470000D809000800000020280000004F
:1009C00094090008000A0008280000200004000024
:1009D000A409000800000000020600000008014011
:1009E0000001000006060000001801404000000061
:1009F00007060000001C014040000000000000004D
:0400000508000131BD
:00000001FF
