:020000040800F2
:1000000000040020450100084D0100084F010008D0
:1000100051010008530100085501000800000000CC
:100020000000000000000000000000005701000870
:1000300059010008000000005B0100085D01000894
:100040005F0100085F0100085F0100085F01000810
:100050005F0100085F0100085F0100085F01000800
:100060005F0100085F0100085F0100085F010008F0
:100070005F0100085F0100085F0100085F010008E0
:100080005F0100085F0100085F0100085F010008D0
:100090005F0100085F0100085F0100085F010008C0
:1000A0005F0100085F0100085F0100085F010008B0
:1000B0005F0100085F0100085F0100085F010008A0
:1000C0005F0100085F0100085F0100085F01000890
:1000D0005F0100085F0100085F0100085F01000880
:1000E0005F0100085F0100085F0100085F01000870
:1000F0005F0100085F0100085F0100085F01000860
:100100005F0100085F0100085F0100085F0100084F
:100110005F0100085F0100085F0100085F0100083F
:100120005F0100085F0100085F0100085F0100082F
:10013000DFF80CD000F018F8004800474904000828
:10014000000400200648804706480047FEE7FEE717
:10015000FEE7FEE7FEE7FEE7FEE7FEE7FEE7FEE777
:1001600099010008310100081CB5094800900948B0
:1001700001900546009C06E0E06840F0010394E829
:10018000070098471034AC42F6D3FFF7D5FF0000C4
:100190007C0600088C06000880B582B04EF68851B7
:1001A000CEF20001086840F47000086041F20001DE
:1001B000C4F20201086840F001000860FFE741F264
:1001C0000000C4F2020000688007002801D4FFE7A5
:1001D000F5E7FFE741F20401C4F20201086840F0CC
:1001E0008000086000200190FFE701984F2805D8A3
:1001F000FFE7FFE7019801300190F6E741F20401C3
:10020000C4F20201086840F09000086000200190EC
:10021000FFE701984F2805D8FFE7FFE70198013075
:100220000190F6E7FFE741F20401C4F20201086819
:1002300020F00300086041F20002C4F202021068DC
:100240004FF6FF73CFF6F6631840106041F20803D3
:10025000C4F202034FF41F001860106820F48020DD
:1002600010600020086041F22C01C4F20201086015
:1002700000F0F0F902B080BD82B0019000910098CA
:100280000199486102B0704782B0019000910098D6
:100290000199086102B0704787B0069005910492F9
:1002A0000393002001900090059800F00F0001904A
:1002B0009DF81400C006002814D5FFE70498042810
:1002C0000AD1FFE7019840F003000190039A0699D4
:1002D000C86B1043C86304E0049901980843019077
:1002E000FFE7FFE70020ADF80A00FFE7BDF80A00CE
:1002F000072842D8FFE7BDF80A100398C840C00796
:10030000A0B3FFE7069800680090BDF80A008100DE
:100310000F2000FA01F10098884300900198BDF881
:100320000A10890000FA01F100980843009005982E
:10033000282809D1FFE7BDF80A1001208840039959
:100340000840069948610DE00598482809D1FFE763
:10035000BDF80A10012088400399084006990861F9
:10036000FFE7FFE7009806990860FFE7FFE7BDF8A1
:100370000A000130ADF80A00B8E70820ADF80A001D
:10038000FFE7BDF80A000F2846D8FFE7BDF80A10BE
:100390000398C840C007C0B3FFE7069840680090C4
:1003A000BDF80A006FF01F0101EB80020F2000FA78
:1003B00002F20098904300900198BDF80A2001EBEA
:1003C000820100FA01F1009808430090059828285E
:1003D00009D1FFE7BDF80A100120884003990840C1
:1003E000069948610DE00598482809D1FFE7BDF856
:1003F0000A10012088400399084006990861FFE728
:10040000FFE7009806994860FFE7FFE7BDF80A009C
:100410000130ADF80A00B4E707B0704783B001902F
:100420000091019880680099084204D0FFE70120FC
:100430008DF80B0003E000208DF80B00FFE79DF81E
:100440000B0003B07047000080B584B0002003901B
:1004500040F2026000F030F840F60000C4F2010003
:1004600001901021022202924FF48073FFF714FFD3
:100470000198029A04210123FFF70EFFFFE7FFE72F
:1004800040F60000C4F201000121FFF7C7FF48B9A0
:10049000FFE740F60000C4F201004FF48071FFF75F
:1004A000F3FEEDE740F60000C4F201004FF4807166
:1004B000FFF7E2FEE3E7000081B0ADF80200BDF80F
:1004C000020000F01F02012101FA02F3810941F24A
:1004D0000002C4F2020288581843885001B07047E5
:1004E00084B000200390029041F20001C4F20201A6
:1004F000086840F480300860FFE7039801300390FB
:1005000041F20000C4F20200006800F400300290E2
:10051000FFE702990020019041B9FFE703984FF6E9
:10052000FF71401A18BF01200190FFE70198C00732
:100530000028E2D1FFE741F20000C4F202000068A7
:100540008003002802D4FFE7FFE7FEE741F21C0129
:10055000C4F20201086840F08050086047F20001D0
:10056000C4F20001086840F44040086041F2040110
:10057000C4F2020100910868086008680860086811
:1005800040F480600860086820F440300860086823
:1005900040F44030086008684FF6FF72CBF2C37237
:1005A0001040086008680022C0F63402104308605A
:1005B00041F20001C4F20201086840F08070086056
:1005C000FFE741F20000C4F2020000688001002849
:1005D00001D4FFE7F5E747F20001C4F20001086823
:1005E00040F480300860FFE747F20400C4F20000E6
:1005F0000068C003002801D4FFE7F5E747F20001D7
:10060000C4F20001086840F400300860FFE747F2D8
:100610000400C4F2000000688003002801D4FFE752
:10062000F5E741F20401C4F20201086820F003007A
:100630000860086840F002000860FFE741F204002B
:10064000C4F2020000680007002801D4FFE7F5E7C4
:1006500004B0704780B5FFF743FF80BD02E008C8D3
:10066000121F08C1002AFAD170477047002001E02C
:1006700001C1121F002AFBD1704700008C06000840
:0C06800000000020000400006C060008D0
:0400000508000131BD
:00000001FF
