:020000040800F2
:1000000010050020490100085101000853010008B3
:1000100055010008570100085901000800000000C0
:100020000000000000000000000000005B0100086C
:100030005D010008000000005F01000821050008C4
:100040006301000863010008630100086301000800
:1000500063010008630100086301000863010008F0
:1000600063010008630100086301000863010008E0
:1000700063010008630100086301000863010008D0
:1000800063010008630100086301000863010008C0
:1000900063010008630100086301000863010008B0
:1000A00063010008FD050008630100086301000802
:1000B00025060008630100086301000863010008C9
:1000C0006301000863010008630100086301000880
:1000D00063010008050700086301000863010008C8
:1000E0006301000863010008630100086301000860
:1000F0006301000863010008630100086301000850
:10010000630100086301000863010008630100083F
:10011000630100086301000863010008630100082F
:10012000630100086301000863010008630100081F
:10013000DFF810D000F04CF8004800477F0D0008B1
:10014000AFF30080100500200648804706480047AE
:10015000FEE7FEE7FEE7FEE7FEE7FEE7FEE7FEE777
:10016000FEE7FEE739050008310100082DE9F05FE0
:100170000546002092469B46884606468146402416
:100180001BE0284641464746224600F042F85346C7
:100190005A46C01A914110D311461846224600F023
:1001A00029F82D1A67EB01084F462246012000214D
:1001B00000F020F817EB00094E41201EA4F10104C5
:1001C000DFDC484631462A464346BDE8F09F000042
:1001D000064C074D06E0E06840F0010394E8070094
:1001E00098471034AC42F6D3FFF7A6FF3C1800083E
:1001F0005C180008202A04DB203A00FA02F10020F3
:1002000070479140C2F1200320FA03F31943904054
:100210007047202A04DB203A21FA02F000217047BF
:1002200021FA02F3D040C2F120029140084319465E
:100230007047000010B500F081FABDE81040014899
:1002400000F040BA9106000810B500F027F8BDE8AC
:10025000104000F033B80000034842880188521C67
:10026000491C02A000F0CCBA880000205468652028
:10027000706572696F642069732025642075732C22
:1002800020616E64207468652070756C73652069E8
:10029000732025642075732E0A00000010B5064CEB
:1002A000208800F049FED4E901030122BDE8104096
:1002B000482100F00BBD00008C00002010B586B076
:1002C000144CA08900F038FE206901F033F802A830
:1002D00001F0B8F97720ADF8080040F2F31004906F
:1002E00002A9206901F09AF8684600F0EBFEA18AA5
:1002F0006A46206901F0DCF80221206901F085F9E5
:100300000022207E114600F041FD206901F080F8B6
:1003100006B010BD8C00002070B5054600244FF4D7
:100320007A7603E0304600F005F8641CAC42F9D35D
:1003300070BD000070B50646064C6568012000F0EF
:100340007DFD0549B0FBF1F171436068401B8842B7
:10035000FBD370BD001000E040420F0010B500F06C
:100360002DF900F025F800F0F9F900F043F8FFF757
:100370006BFFBDE8104000F001B800000A480168BA
:1003800021F080710160016841F0807101600748CF
:10039000016821F001010160016841F00101016083
:1003A0000021416070470000FCED00E0001000E01B
:1003B00070B500240B4E04EB440536F8250000F020
:1003C000BBFD06EB85050222D5E90103102100F0F3
:1003D0007DFCD5E9010100F071FC641CE4B2032C42
:1003E000E9D370BD180000200146014800F07EB836
:1003F000FC00002010B500F029F8BDE8104000F026
:1004000035B8000070B500240F4D2246A98A28692E
:1004100000F076FF002000F05BF93220FFF77CFF50
:100420000A34FA2CF1D3FA24A98A2246286900F06A
:1004300067FF002000F04CF93220FFF76DFF0A3C07
:10044000002CF1D170BD00007000002010B5064CEA
:10045000208800F071FDD4E901030122BDE81040BD
:10046000182100F033BC00007000002010B588B0E7
:100470001A4CA08900F060FD206900F05BFF04A821
:1004800001F0E0F87720ADF8100040F2F31006908C
:1004900004A9206900F0C2FF01A800F041FF01207B
:1004A000ADF804000020ADF80800A18A01AA206977
:1004B00000F010FEA18A6022206900F0F7FEA18AF8
:1004C00040F22B12206900F01BFF0121206901F08E
:1004D000ADF8206900F09CFF08B010BD700000204E
:1004E000C1608260002101604160704730B54268A0
:1004F00083681446521CB2FBF3F503FB1522036814
:10050000934201D1022030BDC368195542600020DA
:1005100030BD000001490860704700005000002015
:1005200004488168C268491C42F100028160C260CF
:10053000006800474000002082B01D48016841F477
:10054000700101601B48016841F001010160016810
:100550008907FCD5416841F0800141600022019289
:1005600002E00199491C019101995029F9D3416890
:1005700041F090014160019202E00199491C019112
:1005800001995029F9D3416821F0030141600168C4
:10059000094B194001604FF41F018160016821F48B
:1005A000802101604260C26202B000F04DBD0000D7
:1005B00088ED00E000100240FFFFF6FE10B50120BC
:1005C00000F03CFC4FF47A71B0FBF1F0401EB0F14A
:1005D000807F01D301200AE04FF0E0214861064A04
:1005E000F02010700020886107200861002000289A
:1005F00000D0FEE710BD000023ED00E010B5084C70
:100600000121204601F008F8012808D101212046E7
:1006100000F0FFFFBDE81040002000F059B810BD09
:10062000002C014070B50E4C0221206900F0F4FF4F
:10063000002814D00221206900F0EBFFA18A206974
:1006400000F004FD251F2880E18A206900F0FEFCEF
:1006500068802069BDE87040002100F069BE70BD6F
:100660008C00002070B50024084D002604EB4400E7
:1006700015F8201029B105F8206005EB800080688E
:100680008047641CE4B2022CF0D370BD000000204F
:1006900010B500200A4C00EB400304EB83014A88AC
:1006A00042B1521E92B24A8022B9012204F823209C
:1006B0008A884A80401CC0B20228ECD310BD0000DA
:1006C0000000002001490860704700004000002041
:1006D00010B5032812D800EB4001094800EB810453
:1006E000D4E9010100F044FB30B10022D4E901015A
:1006F000BDE8104000F0E4BA0122F7E710BD0000A9
:100700001800002070B50B4C0B4D2946206801F0F5
:1007100050F800280CD02946206801F041F82068E4
:1007200000F0D2FFC0B2211F0968BDE87040084741
:1007300070BD0000540000200503050010B50548F9
:10074000FFF7E8FE0449BDE810404D2201F15000DA
:10075000FFF7C6BEE9030008AC00002010B500F0AA
:1007600007F8BDE810404FF4E13000F017B8000082
:1007700010B5094CA08900F0DFFB01221821236984
:10078000A06800F0A3FA6369A0680122BDE81040E8
:10079000482100F09BBA00005400002070B50546C7
:1007A000164CA08800F0C8FB206800F095FF0021DF
:1007B000206801F03BF80021206801F013F80021C7
:1007C000206801F021F82946206800F045FF082143
:1007D000206801F021F80421206801F00BF840F2B4
:1007E0000531206800F0D2FF0022207E114600F083
:1007F000CDFA2068BDE8704000F0B6BF540000207C
:100800000FB4054B10B503A9044A029800F018F87C
:1008100010BC5DF814FB0000990C0008A800002033
:1008200002E008C8121F08C1002AFAD170477047B9
:10083000002001E001C1121F002AFBD17047000017
:100840002DE9FF4F8DB00F460546002606E025280E
:100850000BD0DDE90F1290476D1C761C287800281C
:10086000F5D111B03046BDE8F08F0024A246A14674
:100870000122E94900E0044315F8013F203B02FA58
:1008800003F00842F7D128782A2810D06FF02F0201
:100890002878A0F13001092914D80AEB8A0102EB6B
:1008A000410144F0020400EB010A6D1CF0E701CFA6
:1008B0005FEA000A03D544F40054CAF1000A44F088
:1008C00002046D1C28782E2817D115F8010F44F06A
:1008D00004042A280ED06FF02F022878A0F13001EE
:1008E00009290AD809EB890102EB410100EB010952
:1008F0006D1CF2E757F8049B6D1C28786C280FD00C
:1009000006DC4C2817D068280DD06A2814D104E0E2
:10091000742810D07A280FD10DE044F400140AE0B6
:1009200044F4801401E044F440146978814202D117
:1009300004F580146D1C6D1C28786E281ED00CDC0C
:10094000632830D004DC00288BD0582811D19FE0D8
:10095000642867D069280CD164E073282DD004DCAA
:100960006F2872D0702804D194E075286ED0782852
:100970006DD0DDE90F129047761C4BE1C4F30250B5
:10098000022806D0032809D0042801CF09D0066028
:1009900040E101CFF117C0E900613BE101CF0680E2
:1009A00038E1067036E117F8040B8DF800000020DE
:1009B0008DF80100EB46012003E057F804BB4FF02F
:1009C000FF3061074FF0000102D40DE008F1010192
:1009D000884649450FDA8045F8DB1BF808100029E6
:1009E000F4D108E008F1010188468142FADB1BF8E6
:1009F00008100029F6D1DDE90F23AAEB0800814693
:100A0000214600F031F9304400EB080604E0DDE94E
:100A10000F121BF8010B9047B8F10108F7D22146DD
:100A20004846F2E00A21C4F302524FF0000B08914D
:100A3000022A04D001CFC117032A09D00AE0FF1D02
:100A400027F00707F7E8020108E02CE01EE01FE0AE
:100A500000B2C117042A01D140B2C117021E71F1C0
:100A6000000206DA0023D0EB030063EB01012D2224
:100A700002E0220504D52B228DF82420012203E078
:100A8000E20701D02022F7E7904653E00A210BE06D
:100A9000102109E010214FF0000B44F004044FF046
:100AA0000809089103E008214FF0000B0891C4F3F6
:100AB0000252022A04D001CF0021032A06D006E008
:100AC000FF1D27F00707F7E8020103E080B2042AC0
:100AD00000D1C0B24FF0000822072BD52A78702A27
:100AE00007D0DDF820C08CF0100C5CEA0B0C05D0B0
:100AF0000EE040228DF82420012208E050EA010394
:100B000006D030238DF824308DF82520022290461F
:100B1000089B83F0080353EA0B030BD150EA010250
:100B200001D1620706D530228DF824204FF001084C
:100B3000A9F101092A78582A04D038A20B9208AAF0
:100B40000A920BE03AA2F9E75B46089AFFF70EFB20
:100B50000B9B9B5C0A9A521E0A92137050EA010288
:100B6000F2D10A98ADEB000000F1200B600702D52E
:100B700024F4803401E04FF00109D94502DDA9EBEE
:100B80000B0000E0002000EB0B0141440890AAEBB1
:100B9000010AE00306D4DDE90F232146504600F0A8
:100BA00063F806444FF0000908E009A911F80900AC
:100BB000DDE90F12904709F10109761CC145F4DB0C
:100BC000E0030CD5DDE90F232146504600F04CF838
:100BD000064404E0DDE90F1230209047761C0899A6
:100BE000481E08900029F5DC08E00A980A99007868
:100BF000491C0A91DDE90F129047761CBBF10001F8
:100C0000ABF1010BF1DC21465046DDE90F2300F08A
:100C100019F806446D1C21E60928010030313233F1
:100C20003435363738396162636465660000000028
:100C30003031323334353637383941424344454612
:100C4000000000002DE9F041044600251E4617462D
:100C5000880404D405E039462020B0476D1C641E8A
:100C6000F9D52846BDE8F0812DE9F041044600257C
:100C70001E469046C80301D5302700E0202788048F
:100C800004D505E041463846B0476D1C641EF9D5D1
:100C90002846BDE8F081000070B50546064CE9B273
:100CA000206800F015FD0721206800F062FD002893
:100CB000F9D0284670BD0000540000204161704703
:100CC000002A01D001617047416170472DE9F0436E
:100CD00001F00F04CD0602D5042A18D014430022D7
:100CE0004FF00F0C012707FA02F51D401AD0D0F87B
:100CF000009096000CFA06F829EA080904FA06F8AA
:100D000048EA0908282908D0482908D008E044F012
:100D10000304C26B1A43C263E1E7456100E0056169
:100D2000C0F80080521C92B2082ADCD3082207FACD
:100D300002F51D4016D0D0F80490A2F10806B600C6
:100D40000CFA06F829EA080904FA06F848EA09083C
:100D5000282902D0482902D002E0456100E005615F
:100D6000C0F80480521C92B2102AE0D3BDE8F08390
:100D70008068084201D00120704700207047FFF7CB
:100D8000EDFAFFF757FAFFF76DFCFCE770B5054683
:100D90000E460023002423480168C1F302210729DD
:100DA00032D00168C1F3022106292FD00168C1F3B6
:100DB000022105292DD00168C1F3022104292BD07D
:100DC0000068C0F30220032829D04FF4A06000F08F
:100DD0002BF802230224C3F104008640C4F104016D
:100DE0000F20C84010403043000105F1E02181F898
:100DF000000405F01F01012088406909890001F104
:100E0000E021C1F8000170BD0424E4E701230324BC
:100E1000E1E702230224DEE703230124DBE70423C6
:100E2000D9E700000CED00E00249084302490860E0
:100E3000704700000000FA050CED00E070B588B0C6
:100E40000346002035A104AE91E83400C96834C6D9
:100E5000079133A106C9CDE9021231A106C9CDE936
:100E60000012324C6168C1F38101314A002930D04F
:100E700001292ED002292CD1616801F48031B1F50D
:100E8000803F11D052106168C1F3834165682D0124
:100E900001D541F0100165686D0001D541F02001D8
:100EA0000F290ED2891C13E0E16A01F0804101B1E3
:100EB000204A616801F40031B1F5003FE3D15208E6
:100EC000E1E7A1F10F052F2D01D8491C00E03F21DA
:100ED0004A436168C1F3031104AD695C22FA01F170
:100EE0006568C5F3022502AE755D21FA05F56468F3
:100EF000C4F3C2241DF8044021FA04F443B1012BC9
:100F000008D0022B08D0032B00D1204608B070BDBA
:100F10001046FBE70846F9E72846F7E7000000001F
:100F20000000000001020304060708090010024047
:100F300000127A00006CDC02054901EB90110A688E
:100F400000F01F030120984002430A607047000030
:100F500000100240054901EB90110A6800F01F03E0
:100F60000120984082430A60704700000010024050
:100F7000054901EB90110A6800F01F030120984019
:100F800002430A60704700000010024000212A4816
:100F9000026842F4803202604FF6FF73491C026817
:100FA00002F400320AB99942F8D10168890300D4E9
:100FB000FEE7C16941F08051C16120490A6842F4ED
:100FC00040420A604268426042684260426842F4BD
:100FD00080624260426822F440324260426842F4D9
:100FE000403242604268164B1A4042604268154BDC
:100FF0001A434260026842F0807202600268920105
:10100000FCD50A6842F480320A604A68D203FCD5F3
:101010000A6842F400320A604A689203FCD54168CB
:1010200021F003014160416841F0020141604168E3
:101030000907FCD570470000001002400070004016
:10104000FFFFC3B700003408FFF7A0BF024600202F
:10105000002907D0012907D0022907D0032900D190
:10106000106C7047506B7047906B7047D06B704737
:1010700000290ED0012914D002291BD0032907D141
:10108000C16921F44061C161C16941EA0221C161C4
:101090007047816921F00C0181618169114381618F
:1010A0007047816921F440618161816941EA0221CF
:1010B00081617047C16921F00C01C161C1691143AF
:1010C000C161704700210180012242808180C1807E
:1010D0007047000030B5734B734C002929D00129AB
:1010E00060D002297ED0032922D1016A21F48051E7
:1010F0000162C16921F44071C161016A158841EA48
:1011000005310162016A21F400510162016A95888A
:1011100041EA05310162984201D0A04208D14168FC
:1011200021F4804141604168128941EA82114160A5
:1011300030BD016A21F001010162816921F00301E2
:101140008161016A158829430162016A21F0020167
:101150000162016A958829430162984201D0A04248
:10116000E6D1016A21F004010162016A5388194342
:101170000162016A21F008010162016AD388194302
:101180000162416821F4807141604168138919430B
:101190004160416821F40071416041685289114306
:1011A000416030BD016A21F010010162816921F4C2
:1011B00040718161016A158841EA05110162016A85
:1011C00021F020010162016A958841EA051101625E
:1011D000984201D0A042E4D1016A21F040010162AD
:1011E000016A00E01FE0538841EA03110162016ACD
:1011F00021F080010162016AD38841EA0311016292
:10120000416821F4806141604168138941EA8301AA
:101210004160416821F4006141604168528941EABE
:101220008201416030BD016A21F480710162C169AF
:1012300021F00301C161016A158841EA05210162BB
:10124000016A21F400710162016A958841EA052171
:101250000162984201D0A042E4D1016A21F4806188
:101260000162016A538841EA03210162016A21F4A3
:1012700000610162016AD38841EA03210162416889
:1012800021F4805141604168138941EA03114160B2
:10129000416821F4005141604168528941EA0211DC
:1012A000416030BD002C01400034014000290ED0C7
:1012B000012914D002291BD0032907D1C16921F4C7
:1012C000E041C161C16941EA0221C16170478169A0
:1012D00021F07001816181691143816170478169E9
:1012E00021F4E0418161816941EA02218161704715
:1012F000C16921F07001C161C1691143C1617047C9
:10130000002907D0012907D0022907D0032900D1DD
:10131000026470474263704782637047C2637047DC
:101320000021018041808180C1800181418170471D
:101330004162704710B5344A811A141590424DD05D
:1013400014DCB0F1804F2DD03049401832D0A0428B
:101350003AD0B0F5006F55D140F203442046FFF774
:1013600007FE2046BDE81040FFF7F4BDA1423FD084
:10137000B1F58E3F0CD0B1F5923F43D140F20D3420
:101380002046FFF7F5FD2046BDE81040FFF7E2BD1F
:1013900040F20B342046FFF7EBFD2046BDE810403D
:1013A000FFF7D8BD2046FFF7E3FD2046BDE810401B
:1013B000FFF7D0BD40F201442046FFF7D9FD20469B
:1013C000BDE81040FFF7C6BD40F202442046FFF7DB
:1013D000CFFD2046BDE81040FFF7BCBD40F20444FD
:1013E0002046FFF7C5FD2046BDE81040FFF7B2BD1F
:1013F00040F205442046FFF7BBFD2046BDE8104003
:10140000FFF7A8BD10BD00000010004000FCFFBFAA
:10141000016841F0010101607047000030B50A88A1
:1014200082621C4B1C4A98420DD0B0F1804F0AD00A
:101430001A4CA04207D01A4CA04204D0194CA0422A
:1014400001D090420BD1046824F070040460046859
:101450004D882C43046004688D882C4304608C689C
:10146000C462114CA0420AD0104CA04207D00468BC
:1014700024F4407404600468CD882C4304609842CE
:1014800001D0904201D1097B0163416941F0010122
:10149000416130BD002C0140003401400004004097
:1014A00000080040000C0040001000400014004004
:1014B00070B50346144600252088002800D1022577
:1014C0006088012851D00126F1B3186A20F010007D
:1014D0001862186A20F0A0001862186A218840EA91
:1014E00001101862986920F44070986198696188C9
:1014F00040EA01209861986920F4704098619869E9
:10150000E18840EA01309861186A40F010001862E2
:10151000A28801211846FFF7ABFD186A20F00100F0
:101520001862186A20F00A001862186A28431862C4
:10153000986920F003009861986930439861986930
:1015400020F0F000986100E011E09869E18840EA3D
:1015500001109861186A40F001001862A288BDE885
:10156000704000211846FFF783BD0226ACE7186AD9
:1015700020F001001862186A20F00A001862186A48
:10158000218808431862986920F0030098619869DF
:10159000618808439861986920F0F0009861986923
:1015A000E18840EA01109861186A40F00100186271
:1015B000A28800211846FFF75BFD186A20F0100092
:1015C0001862186A20F0A0001862186A40EA051034
:1015D0001862986920F440709861986940EA062082
:1015E0009861986920F4704098619869E18840EAB0
:1015F00001309861186A40F010001862A288BDE8B6
:10160000704001211846FFF733BDC2680A43C2602B
:101610007047C94301617047C2680A4000690842C7
:1016200002D00AB10120704700207047012904D080
:10163000416C21F4004141647047416C41F4004128
:101640004164704700210180418081804FF6FF7224
:101650008260C1800173704770B504460D4600205A
:10166000174BE21A1E159C4216D008DC1549621869
:101670000ED0B24217D10220FFF7E0FB13E0B242D6
:101680000ED0B2F56C4F0ED10320FFF7D7FB0AE066
:101690000220FFF7D3FB06E00220FFF7CFFB02E0BA
:1016A0000220FFF7CBFB00EB5500B0FBF5F04FF647
:1016B000F071014000F00F021143A16070BD000005
:1016C000004C004000BCFFBF4068C0F308007047FA
:1016D000C1F308014160704710B5214A811A131502
:1016E000904228D00EDC1F4940181AD0984236D1BB
:1016F00040F212442046FFF73BFC2046BDE8104074
:10170000FFF728BC994220D0B1F56C4F27D140F2A9
:101710000E342046FFF72CFC2046BDE81040FFF7B2
:1017200019BC40F211442046FFF722FC2046BDE8D8
:101730001040FFF70FBC40F213442046FFF718FC9F
:101740002046BDE81040FFF705BC40F21444204697
:10175000FFF70EFC2046BDE81040FFF7FBBB10BDB5
:10176000004C004000BCFFBFC16841F40051C160A3
:10177000704700EB9110006801F01F0201219140B9
:10178000084201D0012070470020704700EB911003
:10179000026801F01F03012199400A43026070476B
:1017A000C1F3044301229A4000EB9150D2430260FE
:1017B000704730B5C1F38912825801F01F0401252A
:1017C00005FA04F31A4000EB91500068C1F304419C
:1017D00005FA01F31840002802D00AB1012030BDFB
:1017E000002030BDC26822F4C062C260C2680A43F1
:1017F000C2607047C26822F00402C260C26801F091
:1018000004010A43C2607047026922F44052026137
:1018100002690A4302617047C26822F00802C2608E
:10182000C26801F008010A43C2607047C26822F42E
:101830008052C260C2680A43C26070475C180008E8
:1018400000000020AC000000200800080819000873
:10185000AC000020640400003008000800006400B0
:1018600064000000050400080000050005000000F9
:1018700059020008020600000008014000010000B3
:1018800006060000001801404000000007060000A6
:10189000001C0140400000000000000000000000AB
:1018A0000000000000000000000000000000000038
:1018B000003801400E06000000080140020600004A
:1018C00000020000000400002500000002060000E5
:1018D00000080140000100000B060000002C014040
:1018E00000001B000000000002060000000801408C
:1018F000010000000007000000000040000001009F
:081900001C00000000000000C3
:0400000508000131BD
:00000001FF
