Component: Arm Compiler for Embedded 6.21 Tool: armlink [5ec1fa00]

==============================================================================

Section Cross References

    main.o(.text.main) refers to delay.o(.text.DwtDelayInit) for DwtDelayInit
    main.o(.text.main) refers to systick.o(.text.SystickInit) for SystickInit
    main.o(.text.main) refers to usb2com_drv.o(.text.Usb2ComDrvInit) for Usb2ComDrvInit
    main.o(.text.main) refers to exsram_drv.o(.text.ExsramDrvInit) for ExsramDrvInit
    main.o(.text.main) refers to exsram_drv.o(.text.ExmcSramDrvTest) for ExmcSramDrvTest
    main.o(.ARM.exidx.text.main) refers to main.o(.text.main) for [Anonymous Symbol]
    delay.o(.ARM.exidx.text.DwtDelayInit) refers to delay.o(.text.DwtDelayInit) for [Anonymous Symbol]
    delay.o(.text.DelayNus) refers to gd32f30x_rcu.o(.text.rcu_clock_freq_get) for rcu_clock_freq_get
    delay.o(.ARM.exidx.text.DelayNus) refers to delay.o(.text.DelayNus) for [Anonymous Symbol]
    delay.o(.text.DelayNms) refers to gd32f30x_rcu.o(.text.rcu_clock_freq_get) for rcu_clock_freq_get
    delay.o(.ARM.exidx.text.DelayNms) refers to delay.o(.text.DelayNms) for [Anonymous Symbol]
    systick.o(.text.TaskScheduleCbReg) refers to systick.o(.bss.g_pTaskScheduleFunc) for g_pTaskScheduleFunc
    systick.o(.ARM.exidx.text.TaskScheduleCbReg) refers to systick.o(.text.TaskScheduleCbReg) for [Anonymous Symbol]
    systick.o(.text.SystickInit) refers to gd32f30x_rcu.o(.text.rcu_clock_freq_get) for rcu_clock_freq_get
    systick.o(.ARM.exidx.text.SystickInit) refers to systick.o(.text.SystickInit) for [Anonymous Symbol]
    systick.o(.text.SysTick_Handler) refers to systick.o(.bss.g_systemRunTime) for g_systemRunTime
    systick.o(.text.SysTick_Handler) refers to systick.o(.bss.g_pTaskScheduleFunc) for g_pTaskScheduleFunc
    systick.o(.ARM.exidx.text.SysTick_Handler) refers to systick.o(.text.SysTick_Handler) for [Anonymous Symbol]
==============================================================================

Removing Unused input sections from the image.

    Removing main.o(.text), (0 bytes).
    Removing main.o(.ARM.exidx.text.main), (8 bytes).
    Removing main.o(.ARM.use_no_argv), (4 bytes).
    Removing delay.o(.text), (0 bytes).
    Removing delay.o(.ARM.exidx.text.DwtDelayInit), (8 bytes).
    Removing delay.o(.text.DelayNus), (46 bytes).
    Removing delay.o(.ARM.exidx.text.DelayNus), (8 bytes).
    Removing delay.o(.text.DelayNms), (78 bytes).
    Removing delay.o(.ARM.exidx.text.DelayNms), (8 bytes).
    Removing systick.o(.text), (0 bytes).
    Removing systick.o(.text.TaskScheduleCbReg), (12 bytes).
    Removing systick.o(.ARM.exidx.text.TaskScheduleCbReg), (8 bytes).
    Removing systick.o(.ARM.exidx.text.SystickInit), (8 bytes).
    Removing systick.o(.ARM.exidx.text.SysTick_Handler), (8 bytes).
    Removing systick.o(.text.GetSystemRunTime), (14 bytes).
    Removing systick.o(.ARM.exidx.text.GetSystemRunTime), (8 bytes).
    Removing usb2com_drv.o(.text), (0 bytes).
    Removing usb2com_drv.o(.ARM.exidx.text.Usb2ComDrvInit), (8 bytes).
==============================================================================

Image Symbol Table

    Local Symbols

    Symbol Name                              Value     Ov Type        Size  Object(Section)

    ../clib/division.s                       0x00000000   Number         0  aeabi_sdiv.o ABSOLUTE
    ../clib/microlib/division.c              0x00000000   Number         0  uidiv.o ABSOLUTE
    ../clib/microlib/division.c              0x00000000   Number         0  uldiv.o ABSOLUTE
    ../clib/microlib/init/entry.s            0x00000000   Number         0  entry.o ABSOLUTE
    ../clib/microlib/init/entry.s            0x00000000   Number         0  entry2.o ABSOLUTE
    ../clib/microlib/init/entry.s            0x00000000   Number         0  entry5.o ABSOLUTE
    ../clib/microlib/init/entry.s            0x00000000   Number         0  entry7a.o ABSOLUTE
    ../clib/microlib/init/entry.s            0x00000000   Number         0  entry7b.o ABSOLUTE
    ../clib/microlib/init/entry.s            0x00000000   Number         0  entry8a.o ABSOLUTE
    ../clib/microlib/init/entry.s            0x00000000   Number         0  entry8b.o ABSOLUTE
    ../clib/microlib/init/entry.s            0x00000000   Number         0  entry9a.o ABSOLUTE
    ../clib/microlib/init/entry.s            0x00000000   Number         0  entry9b.o ABSOLUTE
    ../clib/microlib/init/entry.s            0x00000000   Number         0  entry10a.o ABSOLUTE
    ../clib/microlib/init/entry.s            0x00000000   Number         0  entry10b.o ABSOLUTE
    ../clib/microlib/init/entry.s            0x00000000   Number         0  entry11a.o ABSOLUTE
    ../clib/microlib/init/entry.s            0x00000000   Number         0  entry11b.o ABSOLUTE
    ../clib/microlib/longlong.c              0x00000000   Number         0  llshl.o ABSOLUTE
    ../clib/microlib/longlong.c              0x00000000   Number         0  llushr.o ABSOLUTE
    ../clib/microlib/longlong.c              0x00000000   Number         0  llsshr.o ABSOLUTE
    ../clib/microlib/printf/printf.c         0x00000000   Number         0  printfb.o ABSOLUTE
    ../clib/microlib/printf/printf.c         0x00000000   Number         0  printf0.o ABSOLUTE
    ../clib/microlib/printf/printf.c         0x00000000   Number         0  printf1.o ABSOLUTE
    ../clib/microlib/printf/printf.c         0x00000000   Number         0  printf2.o ABSOLUTE
    ../clib/microlib/printf/printf.c         0x00000000   Number         0  printf3.o ABSOLUTE
    ../clib/microlib/printf/printf.c         0x00000000   Number         0  printf4.o ABSOLUTE
    ../clib/microlib/printf/printf.c         0x00000000   Number         0  printf5.o ABSOLUTE
    ../clib/microlib/printf/printf.c         0x00000000   Number         0  printf6.o ABSOLUTE
    ../clib/microlib/printf/printf.c         0x00000000   Number         0  printf7.o ABSOLUTE
    ../clib/microlib/printf/printf.c         0x00000000   Number         0  printf8.o ABSOLUTE
    ../clib/microlib/printf/printf.c         0x00000000   Number         0  printfa.o ABSOLUTE
    ../clib/microlib/printf/stubs.s          0x00000000   Number         0  printfstubs.o ABSOLUTE
    ../clib/microlib/stdio/puts.c            0x00000000   Number         0  puts.o ABSOLUTE
    ../clib/microlib/stdio/puts.c            0x00000000   Number         0  puts_e.o ABSOLUTE
    ../clib/microlib/stdio/streams.c         0x00000000   Number         0  stdout.o ABSOLUTE
    ../clib/microlib/stubs.s                 0x00000000   Number         0  iusefp.o ABSOLUTE
    ../fplib/microlib/fpadd.c                0x00000000   Number         0  dadd.o ABSOLUTE
    ../fplib/microlib/fpdiv.c                0x00000000   Number         0  ddiv.o ABSOLUTE
    ../fplib/microlib/fpepilogue.c           0x00000000   Number         0  depilogue.o ABSOLUTE
    ../fplib/microlib/fpfix.c                0x00000000   Number         0  dfixul.o ABSOLUTE
    ../fplib/microlib/fpmul.c                0x00000000   Number         0  dmul.o ABSOLUTE
    Arm_Kernel/startup_gd32f30x_hd.s         0x00000000   Number         0  startup_gd32f30x_hd.o ABSOLUTE
    cdrcmple.s                               0x00000000   Number         0  cdrcmple.o ABSOLUTE
    dc.s                                     0x00000000   Number         0  dc.o ABSOLUTE
    delay.c                                  0x00000000   Number         0  delay.o ABSOLUTE
    exsram_drv.c                             0x00000000   Number         0  exsram_drv.o ABSOLUTE
    gd32f30x_exmc.c                          0x00000000   Number         0  gd32f30x_exmc.o ABSOLUTE
    gd32f30x_gpio.c                          0x00000000   Number         0  gd32f30x_gpio.o ABSOLUTE
    gd32f30x_misc.c                          0x00000000   Number         0  gd32f30x_misc.o ABSOLUTE
    gd32f30x_pmu.c                           0x00000000   Number         0  gd32f30x_pmu.o ABSOLUTE
    gd32f30x_rcu.c                           0x00000000   Number         0  gd32f30x_rcu.o ABSOLUTE
    gd32f30x_usart.c                         0x00000000   Number         0  gd32f30x_usart.o ABSOLUTE
    handlers.s                               0x00000000   Number         0  handlers.o ABSOLUTE
    init.s                                   0x00000000   Number         0  init.o ABSOLUTE
    main.c                                   0x00000000   Number         0  main.o ABSOLUTE
    system_gd32f30x.c                        0x00000000   Number         0  system_gd32f30x.o ABSOLUTE
    systick.c                                0x00000000   Number         0  systick.o ABSOLUTE
    usb2com_drv.c                            0x00000000   Number         0  usb2com_drv.o ABSOLUTE
    RESET                                    0x08000000   Section      304  startup_gd32f30x_hd.o(RESET)
    .ARM.Collect$$$$00000000                 0x08000130   Section        0  entry.o(.ARM.Collect$$$$00000000)
    .ARM.Collect$$$$00000001                 0x08000130   Section        4  entry2.o(.ARM.Collect$$$$00000001)
    .ARM.Collect$$$$00000004                 0x08000134   Section        4  entry5.o(.ARM.Collect$$$$00000004)
    .ARM.Collect$$$$00000008                 0x08000138   Section        0  entry7b.o(.ARM.Collect$$$$00000008)
    .ARM.Collect$$$$0000000A                 0x08000138   Section        0  entry8b.o(.ARM.Collect$$$$0000000A)
    .ARM.Collect$$$$0000000B                 0x08000138   Section        8  entry9a.o(.ARM.Collect$$$$0000000B)
    __lit__00000000                          0x08000140   Data           4  entry2.o(.ARM.Collect$$$$00002712)
    .ARM.Collect$$$$0000000D                 0x08000140   Section        0  entry10a.o(.ARM.Collect$$$$0000000D)
    .ARM.Collect$$$$0000000F                 0x08000140   Section        0  entry11a.o(.ARM.Collect$$$$0000000F)
    .ARM.Collect$$$$00002712                 0x08000140   Section        4  entry2.o(.ARM.Collect$$$$00002712)
    $v0                                      0x08000144   Number         0  startup_gd32f30x_hd.o(.text)
    .text                                    0x08000144   Section       36  startup_gd32f30x_hd.o(.text)
    .text                                    0x08000168   Section        0  uldiv.o(.text)
    .text                                    0x080001cc   Section       48  init.o(.text)
    .text                                    0x080001fc   Section        0  llshl.o(.text)
    .text                                    0x0800021a   Section        0  llushr.o(.text)
    [Anonymous Symbol]                       0x0800023c   Section        0  delay.o(.text.DwtDelayInit)
    [Anonymous Symbol]                       0x08000274   Section        0  exsram_drv.o(.text.ExmcSramDrvTest)
    [Anonymous Symbol]                       0x080003e4   Section        0  exsram_drv.o(.text.ExsramDrvInit)
    [Anonymous Symbol]                       0x08000518   Section        0  systick.o(.text.SysTick_Handler)
    [Anonymous Symbol]                       0x08000540   Section        0  system_gd32f30x.o(.text.SystemInit)
    [Anonymous Symbol]                       0x080006e8   Section        0  systick.o(.text.SystickInit)
    [Anonymous Symbol]                       0x08000730   Section        0  usb2com_drv.o(.text.USART0_IRQHandler)
    [Anonymous Symbol]                       0x08000770   Section        0  usb2com_drv.o(.text.Usb2ComDrvInit)
    [Anonymous Symbol]                       0x080007f4   Section        0  gd32f30x_exmc.o(.text.exmc_norsram_deinit)
    [Anonymous Symbol]                       0x08000824   Section        0  gd32f30x_exmc.o(.text.exmc_norsram_enable)
    [Anonymous Symbol]                       0x08000838   Section        0  gd32f30x_exmc.o(.text.exmc_norsram_init)
    [Anonymous Symbol]                       0x08000990   Section        0  usb2com_drv.o(.text.fputc)
    [Anonymous Symbol]                       0x080009b4   Section        0  gd32f30x_gpio.o(.text.gpio_init)
    [Anonymous Symbol]                       0x08000a6c   Section        0  main.o(.text.main)
    [Anonymous Symbol]                       0x08000a84   Section        0  gd32f30x_misc.o(.text.nvic_irq_enable)
    [Anonymous Symbol]                       0x08000b28   Section        0  gd32f30x_rcu.o(.text.rcu_clock_freq_get)
    [Anonymous Symbol]                       0x08000bf8   Section        0  gd32f30x_rcu.o(.text.rcu_periph_clock_enable)
    [Anonymous Symbol]                       0x08000c18   Section        0  gd32f30x_rcu.o(.text.rcu_periph_reset_disable)
    [Anonymous Symbol]                       0x08000c38   Section        0  gd32f30x_rcu.o(.text.rcu_periph_reset_enable)
    [Anonymous Symbol]                       0x08000c58   Section        0  gd32f30x_usart.o(.text.usart_baudrate_set)
    [Anonymous Symbol]                       0x08000cc4   Section        0  gd32f30x_usart.o(.text.usart_data_receive)
    [Anonymous Symbol]                       0x08000ccc   Section        0  gd32f30x_usart.o(.text.usart_data_transmit)
    [Anonymous Symbol]                       0x08000cd4   Section        0  gd32f30x_usart.o(.text.usart_deinit)
    [Anonymous Symbol]                       0x08000d50   Section        0  gd32f30x_usart.o(.text.usart_enable)
    [Anonymous Symbol]                       0x08000d5c   Section        0  gd32f30x_usart.o(.text.usart_flag_get)
    [Anonymous Symbol]                       0x08000d6c   Section        0  gd32f30x_usart.o(.text.usart_interrupt_enable)
    [Anonymous Symbol]                       0x08000d84   Section        0  gd32f30x_usart.o(.text.usart_interrupt_flag_clear)
    [Anonymous Symbol]                       0x08000d98   Section        0  gd32f30x_usart.o(.text.usart_interrupt_flag_get)
    [Anonymous Symbol]                       0x08000dbc   Section        0  gd32f30x_usart.o(.text.usart_parity_config)
    [Anonymous Symbol]                       0x08000dcc   Section        0  gd32f30x_usart.o(.text.usart_receive_config)
    [Anonymous Symbol]                       0x08000de0   Section        0  gd32f30x_usart.o(.text.usart_stop_bit_set)
    [Anonymous Symbol]                       0x08000df0   Section        0  gd32f30x_usart.o(.text.usart_transmit_config)
    [Anonymous Symbol]                       0x08000e04   Section        0  gd32f30x_usart.o(.text.usart_word_length_set)
    i.__0printf$8                            0x08000e14   Section        0  printf8.o(i.__0printf$8)
    i.__scatterload_copy                     0x08000e34   Section       14  handlers.o(i.__scatterload_copy)
    i.__scatterload_null                     0x08000e42   Section        2  handlers.o(i.__scatterload_null)
    i.__scatterload_zeroinit                 0x08000e44   Section       14  handlers.o(i.__scatterload_zeroinit)
    _printf_core                             0x08000e55   Thumb Code   996  printf8.o(i._printf_core)
    i._printf_core                           0x08000e54   Section        0  printf8.o(i._printf_core)
    _printf_post_padding                     0x08001265   Thumb Code    36  printf8.o(i._printf_post_padding)
    i._printf_post_padding                   0x08001264   Section        0  printf8.o(i._printf_post_padding)
    _printf_pre_padding                      0x08001289   Thumb Code    46  printf8.o(i._printf_pre_padding)
    i._printf_pre_padding                    0x08001288   Section        0  printf8.o(i._printf_pre_padding)
    i.puts                                   0x080012b8   Section        0  puts.o(i.puts)
    .L__const.rcu_clock_freq_get.apb2_exp    0x080012dc   Data           8  gd32f30x_rcu.o(.rodata.cst8)
    .L.str.4                                 0x080012e4   Data           3  exsram_drv.o(.rodata.str1.1)
    [Anonymous Symbol]                       0x080012e4   Section        0  exsram_drv.o(.rodata.str1.1)
    .L.str.3                                 0x080012e7   Data           8  exsram_drv.o(.rodata.str1.1)
    .Lstr.17                                 0x080012ef   Data          36  exsram_drv.o(.rodata.str1.1)
    .Lstr.14                                 0x08001313   Data          37  exsram_drv.o(.rodata.str1.1)
    .Lstr.16                                 0x08001338   Data          37  exsram_drv.o(.rodata.str1.1)
    .Lstr.13                                 0x0800135d   Data          30  exsram_drv.o(.rodata.str1.1)
    .data                                    0x20000000   Section        4  stdout.o(.data)
    g_pProcUartData                          0x20000020   Data           4  usb2com_drv.o(.bss.g_pProcUartData)
    [Anonymous Symbol]                       0x20000020   Section        0  usb2com_drv.o(.bss.g_pProcUartData)
    g_pTaskScheduleFunc                      0x20000024   Data           4  systick.o(.bss.g_pTaskScheduleFunc)
    [Anonymous Symbol]                       0x20000024   Section        0  systick.o(.bss.g_pTaskScheduleFunc)
    g_systemRunTime                          0x20000028   Data           8  systick.o(.bss.g_systemRunTime)
    [Anonymous Symbol]                       0x20000028   Section        0  systick.o(.bss.g_systemRunTime)
    STACK                                    0x20000030   Section     4096  startup_gd32f30x_hd.o(STACK)
    g_sramBuffer                             0x6c000000   Data         255  exsram_drv.o(.bss.g_sramBuffer)
    [Anonymous Symbol]                       0x6c000000   Section        0  exsram_drv.o(.bss.g_sramBuffer)

    Global Symbols

    Symbol Name                              Value     Ov Type        Size  Object(Section)

    BuildAttributes$$THM_ISAv4$E$P$D$K$B$S$7EM$VFPi3$EXTD16$VFPS$VFMA$PE$A:L22UL41UL21$X:L11$S22US41US21$IEEE1$IW$~IW$USESV6$~STKCKD$USESV7$~SHL$OTIME$ROPI$EBA8$MICROLIB$REQ8$PRES8$EABIv2 0x00000000   Number         0  anon$$obj.o ABSOLUTE
    _printf_a                                0x00000000   Number         0  printfstubs.o ABSOLUTE
    _printf_c                                0x00000000   Number         0  printfstubs.o ABSOLUTE
    _printf_charcount                        0x00000000   Number         0  printfstubs.o ABSOLUTE
    _printf_d                                0x00000000   Number         0  printfstubs.o ABSOLUTE
    _printf_e                                0x00000000   Number         0  printfstubs.o ABSOLUTE
    _printf_f                                0x00000000   Number         0  printfstubs.o ABSOLUTE
    _printf_flags                            0x00000000   Number         0  printfstubs.o ABSOLUTE
    _printf_fp_dec                           0x00000000   Number         0  printfstubs.o ABSOLUTE
    _printf_fp_hex                           0x00000000   Number         0  printfstubs.o ABSOLUTE
    _printf_g                                0x00000000   Number         0  printfstubs.o ABSOLUTE
    _printf_i                                0x00000000   Number         0  printfstubs.o ABSOLUTE
    _printf_int_dec                          0x00000000   Number         0  printfstubs.o ABSOLUTE
    _printf_l                                0x00000000   Number         0  printfstubs.o ABSOLUTE
    _printf_lc                               0x00000000   Number         0  printfstubs.o ABSOLUTE
    _printf_ll                               0x00000000   Number         0  printfstubs.o ABSOLUTE
    _printf_lld                              0x00000000   Number         0  printfstubs.o ABSOLUTE
    _printf_lli                              0x00000000   Number         0  printfstubs.o ABSOLUTE
    _printf_llo                              0x00000000   Number         0  printfstubs.o ABSOLUTE
    _printf_llu                              0x00000000   Number         0  printfstubs.o ABSOLUTE
    _printf_llx                              0x00000000   Number         0  printfstubs.o ABSOLUTE
    _printf_longlong_dec                     0x00000000   Number         0  printfstubs.o ABSOLUTE
    _printf_longlong_hex                     0x00000000   Number         0  printfstubs.o ABSOLUTE
    _printf_longlong_oct                     0x00000000   Number         0  printfstubs.o ABSOLUTE
    _printf_ls                               0x00000000   Number         0  printfstubs.o ABSOLUTE
    _printf_mbtowc                           0x00000000   Number         0  printfstubs.o ABSOLUTE
    _printf_n                                0x00000000   Number         0  printfstubs.o ABSOLUTE
    _printf_o                                0x00000000   Number         0  printfstubs.o ABSOLUTE
    _printf_p                                0x00000000   Number         0  printfstubs.o ABSOLUTE
    _printf_percent                          0x00000000   Number         0  printfstubs.o ABSOLUTE
    _printf_pre_padding                      0x00000000   Number         0  printfstubs.o ABSOLUTE
    _printf_return_value                     0x00000000   Number         0  printfstubs.o ABSOLUTE
    _printf_s                                0x00000000   Number         0  printfstubs.o ABSOLUTE
    _printf_sizespec                         0x00000000   Number         0  printfstubs.o ABSOLUTE
    _printf_str                              0x00000000   Number         0  printfstubs.o ABSOLUTE
    _printf_truncate_signed                  0x00000000   Number         0  printfstubs.o ABSOLUTE
    _printf_truncate_unsigned                0x00000000   Number         0  printfstubs.o ABSOLUTE
    _printf_u                                0x00000000   Number         0  printfstubs.o ABSOLUTE
    _printf_wc                               0x00000000   Number         0  printfstubs.o ABSOLUTE
    _printf_wctomb                           0x00000000   Number         0  printfstubs.o ABSOLUTE
    _printf_widthprec                        0x00000000   Number         0  printfstubs.o ABSOLUTE
    _printf_x                                0x00000000   Number         0  printfstubs.o ABSOLUTE
    __cpp_initialize__aeabi_                  - Undefined Weak Reference
    __cxa_finalize                            - Undefined Weak Reference
    __decompress                              - Undefined Weak Reference
    _clock_init                               - Undefined Weak Reference
    _microlib_exit                            - Undefined Weak Reference
    __Vectors_Size                           0x00000130   Number         0  startup_gd32f30x_hd.o ABSOLUTE
    __Vectors                                0x08000000   Data           4  startup_gd32f30x_hd.o(RESET)
    __Vectors_End                            0x08000130   Data           0  startup_gd32f30x_hd.o(RESET)
    __main                                   0x08000131   Thumb Code     0  entry.o(.ARM.Collect$$$$00000000)
    _main_stk                                0x08000131   Thumb Code     0  entry2.o(.ARM.Collect$$$$00000001)
    _main_scatterload                        0x08000135   Thumb Code     0  entry5.o(.ARM.Collect$$$$00000004)
    __main_after_scatterload                 0x08000139   Thumb Code     0  entry5.o(.ARM.Collect$$$$00000004)
    _main_clock                              0x08000139   Thumb Code     0  entry7b.o(.ARM.Collect$$$$00000008)
    _main_cpp_init                           0x08000139   Thumb Code     0  entry8b.o(.ARM.Collect$$$$0000000A)
    _main_init                               0x08000139   Thumb Code     0  entry9a.o(.ARM.Collect$$$$0000000B)
    __rt_final_cpp                           0x08000141   Thumb Code     0  entry10a.o(.ARM.Collect$$$$0000000D)
    __rt_final_exit                          0x08000141   Thumb Code     0  entry11a.o(.ARM.Collect$$$$0000000F)
    Reset_Handler                            0x08000145   Thumb Code     8  startup_gd32f30x_hd.o(.text)
    NMI_Handler                              0x0800014d   Thumb Code     2  startup_gd32f30x_hd.o(.text)
    HardFault_Handler                        0x0800014f   Thumb Code     2  startup_gd32f30x_hd.o(.text)
    MemManage_Handler                        0x08000151   Thumb Code     2  startup_gd32f30x_hd.o(.text)
    BusFault_Handler                         0x08000153   Thumb Code     2  startup_gd32f30x_hd.o(.text)
    UsageFault_Handler                       0x08000155   Thumb Code     2  startup_gd32f30x_hd.o(.text)
    SVC_Handler                              0x08000157   Thumb Code     2  startup_gd32f30x_hd.o(.text)
    DebugMon_Handler                         0x08000159   Thumb Code     2  startup_gd32f30x_hd.o(.text)
    PendSV_Handler                           0x0800015b   Thumb Code     2  startup_gd32f30x_hd.o(.text)
    ADC0_1_IRQHandler                        0x0800015f   Thumb Code     0  startup_gd32f30x_hd.o(.text)
    ADC2_IRQHandler                          0x0800015f   Thumb Code     0  startup_gd32f30x_hd.o(.text)
    CAN0_EWMC_IRQHandler                     0x0800015f   Thumb Code     0  startup_gd32f30x_hd.o(.text)
    CAN0_RX1_IRQHandler                      0x0800015f   Thumb Code     0  startup_gd32f30x_hd.o(.text)
    DMA0_Channel0_IRQHandler                 0x0800015f   Thumb Code     0  startup_gd32f30x_hd.o(.text)
    DMA0_Channel1_IRQHandler                 0x0800015f   Thumb Code     0  startup_gd32f30x_hd.o(.text)
    DMA0_Channel2_IRQHandler                 0x0800015f   Thumb Code     0  startup_gd32f30x_hd.o(.text)
    DMA0_Channel3_IRQHandler                 0x0800015f   Thumb Code     0  startup_gd32f30x_hd.o(.text)
    DMA0_Channel4_IRQHandler                 0x0800015f   Thumb Code     0  startup_gd32f30x_hd.o(.text)
    DMA0_Channel5_IRQHandler                 0x0800015f   Thumb Code     0  startup_gd32f30x_hd.o(.text)
    DMA0_Channel6_IRQHandler                 0x0800015f   Thumb Code     0  startup_gd32f30x_hd.o(.text)
    DMA1_Channel0_IRQHandler                 0x0800015f   Thumb Code     0  startup_gd32f30x_hd.o(.text)
    DMA1_Channel1_IRQHandler                 0x0800015f   Thumb Code     0  startup_gd32f30x_hd.o(.text)
    DMA1_Channel2_IRQHandler                 0x0800015f   Thumb Code     0  startup_gd32f30x_hd.o(.text)
    DMA1_Channel3_4_IRQHandler               0x0800015f   Thumb Code     0  startup_gd32f30x_hd.o(.text)
    EXMC_IRQHandler                          0x0800015f   Thumb Code     0  startup_gd32f30x_hd.o(.text)
    EXTI0_IRQHandler                         0x0800015f   Thumb Code     0  startup_gd32f30x_hd.o(.text)
    EXTI10_15_IRQHandler                     0x0800015f   Thumb Code     0  startup_gd32f30x_hd.o(.text)
    EXTI1_IRQHandler                         0x0800015f   Thumb Code     0  startup_gd32f30x_hd.o(.text)
    EXTI2_IRQHandler                         0x0800015f   Thumb Code     0  startup_gd32f30x_hd.o(.text)
    EXTI3_IRQHandler                         0x0800015f   Thumb Code     0  startup_gd32f30x_hd.o(.text)
    EXTI4_IRQHandler                         0x0800015f   Thumb Code     0  startup_gd32f30x_hd.o(.text)
    EXTI5_9_IRQHandler                       0x0800015f   Thumb Code     0  startup_gd32f30x_hd.o(.text)
    FMC_IRQHandler                           0x0800015f   Thumb Code     0  startup_gd32f30x_hd.o(.text)
    I2C0_ER_IRQHandler                       0x0800015f   Thumb Code     0  startup_gd32f30x_hd.o(.text)
    I2C0_EV_IRQHandler                       0x0800015f   Thumb Code     0  startup_gd32f30x_hd.o(.text)
    I2C1_ER_IRQHandler                       0x0800015f   Thumb Code     0  startup_gd32f30x_hd.o(.text)
    I2C1_EV_IRQHandler                       0x0800015f   Thumb Code     0  startup_gd32f30x_hd.o(.text)
    LVD_IRQHandler                           0x0800015f   Thumb Code     0  startup_gd32f30x_hd.o(.text)
    RCU_CTC_IRQHandler                       0x0800015f   Thumb Code     0  startup_gd32f30x_hd.o(.text)
    RTC_Alarm_IRQHandler                     0x0800015f   Thumb Code     0  startup_gd32f30x_hd.o(.text)
    RTC_IRQHandler                           0x0800015f   Thumb Code     0  startup_gd32f30x_hd.o(.text)
    SDIO_IRQHandler                          0x0800015f   Thumb Code     0  startup_gd32f30x_hd.o(.text)
    SPI0_IRQHandler                          0x0800015f   Thumb Code     0  startup_gd32f30x_hd.o(.text)
    SPI1_IRQHandler                          0x0800015f   Thumb Code     0  startup_gd32f30x_hd.o(.text)
    SPI2_IRQHandler                          0x0800015f   Thumb Code     0  startup_gd32f30x_hd.o(.text)
    TAMPER_IRQHandler                        0x0800015f   Thumb Code     0  startup_gd32f30x_hd.o(.text)
    TIMER0_BRK_IRQHandler                    0x0800015f   Thumb Code     0  startup_gd32f30x_hd.o(.text)
    TIMER0_Channel_IRQHandler                0x0800015f   Thumb Code     0  startup_gd32f30x_hd.o(.text)
    TIMER0_TRG_CMT_IRQHandler                0x0800015f   Thumb Code     0  startup_gd32f30x_hd.o(.text)
    TIMER0_UP_IRQHandler                     0x0800015f   Thumb Code     0  startup_gd32f30x_hd.o(.text)
    TIMER1_IRQHandler                        0x0800015f   Thumb Code     0  startup_gd32f30x_hd.o(.text)
    TIMER2_IRQHandler                        0x0800015f   Thumb Code     0  startup_gd32f30x_hd.o(.text)
    TIMER3_IRQHandler                        0x0800015f   Thumb Code     0  startup_gd32f30x_hd.o(.text)
    TIMER4_IRQHandler                        0x0800015f   Thumb Code     0  startup_gd32f30x_hd.o(.text)
    TIMER5_IRQHandler                        0x0800015f   Thumb Code     0  startup_gd32f30x_hd.o(.text)
    TIMER6_IRQHandler                        0x0800015f   Thumb Code     0  startup_gd32f30x_hd.o(.text)
    TIMER7_BRK_IRQHandler                    0x0800015f   Thumb Code     0  startup_gd32f30x_hd.o(.text)
    TIMER7_Channel_IRQHandler                0x0800015f   Thumb Code     0  startup_gd32f30x_hd.o(.text)
    TIMER7_TRG_CMT_IRQHandler                0x0800015f   Thumb Code     0  startup_gd32f30x_hd.o(.text)
    TIMER7_UP_IRQHandler                     0x0800015f   Thumb Code     0  startup_gd32f30x_hd.o(.text)
    UART3_IRQHandler                         0x0800015f   Thumb Code     0  startup_gd32f30x_hd.o(.text)
    UART4_IRQHandler                         0x0800015f   Thumb Code     0  startup_gd32f30x_hd.o(.text)
    USART1_IRQHandler                        0x0800015f   Thumb Code     0  startup_gd32f30x_hd.o(.text)
    USART2_IRQHandler                        0x0800015f   Thumb Code     0  startup_gd32f30x_hd.o(.text)
    USBD_HP_CAN0_TX_IRQHandler               0x0800015f   Thumb Code     0  startup_gd32f30x_hd.o(.text)
    USBD_LP_CAN0_RX0_IRQHandler              0x0800015f   Thumb Code     0  startup_gd32f30x_hd.o(.text)
    USBD_WKUP_IRQHandler                     0x0800015f   Thumb Code     0  startup_gd32f30x_hd.o(.text)
    WWDGT_IRQHandler                         0x0800015f   Thumb Code     0  startup_gd32f30x_hd.o(.text)
    __aeabi_uldivmod                         0x08000169   Thumb Code    98  uldiv.o(.text)
    __scatterload                            0x080001cd   Thumb Code    38  init.o(.text)
    __scatterload_rt2                        0x080001cd   Thumb Code     0  init.o(.text)
    __aeabi_llsl                             0x080001fd   Thumb Code    30  llshl.o(.text)
    _ll_shift_l                              0x080001fd   Thumb Code     0  llshl.o(.text)
    __aeabi_llsr                             0x0800021b   Thumb Code    32  llushr.o(.text)
    _ll_ushift_r                             0x0800021b   Thumb Code     0  llushr.o(.text)
    DwtDelayInit                             0x0800023d   Thumb Code    54  delay.o(.text.DwtDelayInit)
    ExmcSramDrvTest                          0x08000275   Thumb Code   256  exsram_drv.o(.text.ExmcSramDrvTest)
    ExsramDrvInit                            0x080003e5   Thumb Code   306  exsram_drv.o(.text.ExsramDrvInit)
    SysTick_Handler                          0x08000519   Thumb Code    40  systick.o(.text.SysTick_Handler)
    SystemInit                               0x08000541   Thumb Code   424  system_gd32f30x.o(.text.SystemInit)
    SystickInit                              0x080006e9   Thumb Code    70  systick.o(.text.SystickInit)
    USART0_IRQHandler                        0x08000731   Thumb Code    64  usb2com_drv.o(.text.USART0_IRQHandler)
    Usb2ComDrvInit                           0x08000771   Thumb Code   132  usb2com_drv.o(.text.Usb2ComDrvInit)
    exmc_norsram_deinit                      0x080007f5   Thumb Code    46  gd32f30x_exmc.o(.text.exmc_norsram_deinit)
    exmc_norsram_enable                      0x08000825   Thumb Code    18  gd32f30x_exmc.o(.text.exmc_norsram_enable)
    exmc_norsram_init                        0x08000839   Thumb Code   342  gd32f30x_exmc.o(.text.exmc_norsram_init)
    fputc                                    0x08000991   Thumb Code    36  usb2com_drv.o(.text.fputc)
    gpio_init                                0x080009b5   Thumb Code   182  gd32f30x_gpio.o(.text.gpio_init)
    main                                     0x08000a6d   Thumb Code    22  main.o(.text.main)
    nvic_irq_enable                          0x08000a85   Thumb Code   164  gd32f30x_misc.o(.text.nvic_irq_enable)
    rcu_clock_freq_get                       0x08000b29   Thumb Code   192  gd32f30x_rcu.o(.text.rcu_clock_freq_get)
    rcu_periph_clock_enable                  0x08000bf9   Thumb Code    30  gd32f30x_rcu.o(.text.rcu_periph_clock_enable)
    rcu_periph_reset_disable                 0x08000c19   Thumb Code    32  gd32f30x_rcu.o(.text.rcu_periph_reset_disable)
    rcu_periph_reset_enable                  0x08000c39   Thumb Code    30  gd32f30x_rcu.o(.text.rcu_periph_reset_enable)
    usart_baudrate_set                       0x08000c59   Thumb Code   106  gd32f30x_usart.o(.text.usart_baudrate_set)
    usart_data_receive                       0x08000cc5   Thumb Code     8  gd32f30x_usart.o(.text.usart_data_receive)
    usart_data_transmit                      0x08000ccd   Thumb Code     8  gd32f30x_usart.o(.text.usart_data_transmit)
    usart_deinit                             0x08000cd5   Thumb Code   122  gd32f30x_usart.o(.text.usart_deinit)
    usart_enable                             0x08000d51   Thumb Code    10  gd32f30x_usart.o(.text.usart_enable)
    usart_flag_get                           0x08000d5d   Thumb Code    16  gd32f30x_usart.o(.text.usart_flag_get)
    usart_interrupt_enable                   0x08000d6d   Thumb Code    22  gd32f30x_usart.o(.text.usart_interrupt_enable)
    usart_interrupt_flag_clear               0x08000d85   Thumb Code    18  gd32f30x_usart.o(.text.usart_interrupt_flag_clear)
    usart_interrupt_flag_get                 0x08000d99   Thumb Code    34  gd32f30x_usart.o(.text.usart_interrupt_flag_get)
    usart_parity_config                      0x08000dbd   Thumb Code    16  gd32f30x_usart.o(.text.usart_parity_config)
    usart_receive_config                     0x08000dcd   Thumb Code    20  gd32f30x_usart.o(.text.usart_receive_config)
    usart_stop_bit_set                       0x08000de1   Thumb Code    16  gd32f30x_usart.o(.text.usart_stop_bit_set)
    usart_transmit_config                    0x08000df1   Thumb Code    20  gd32f30x_usart.o(.text.usart_transmit_config)
    usart_word_length_set                    0x08000e05   Thumb Code    16  gd32f30x_usart.o(.text.usart_word_length_set)
    __0printf$8                              0x08000e15   Thumb Code    22  printf8.o(i.__0printf$8)
    __1printf$8                              0x08000e15   Thumb Code     0  printf8.o(i.__0printf$8)
    __2printf                                0x08000e15   Thumb Code     0  printf8.o(i.__0printf$8)
    __scatterload_copy                       0x08000e35   Thumb Code    14  handlers.o(i.__scatterload_copy)
    __scatterload_null                       0x08000e43   Thumb Code     2  handlers.o(i.__scatterload_null)
    __scatterload_zeroinit                   0x08000e45   Thumb Code    14  handlers.o(i.__scatterload_zeroinit)
    puts                                     0x080012b9   Thumb Code    30  puts.o(i.puts)
    Region$$Table$$Base                      0x0800137c   Number         0  anon$$obj.o(Region$$Table)
    Region$$Table$$Limit                     0x080013ac   Number         0  anon$$obj.o(Region$$Table)
    __stdout                                 0x20000000   Data           4  stdout.o(.data)
    g_Usb2ComInfo                            0x20000004   Data          28  usb2com_drv.o(.data.g_Usb2ComInfo)
    __initial_sp                             0x20001030   Data           0  startup_gd32f30x_hd.o(STACK)



==============================================================================

Memory Map of the image

  Image Entry point : 0x08000131

  Load Region LR_IROM1 (Base: 0x08000000, Size: 0x000013d0, Max: 0x00080000, ABSOLUTE)

    Execution Region ER_IROM1 (Exec base: 0x08000000, Load base: 0x08000000, Size: 0x000013ac, Max: 0x00080000, ABSOLUTE)

    Exec Addr    Load Addr    Size         Type   Attr      Idx    E Section Name        Object

    0x08000000   0x08000000   0x00000130   Data   RO          448    RESET               startup_gd32f30x_hd.o
    0x08000130   0x08000130   0x00000000   Code   RO          468  * .ARM.Collect$$$$00000000  mc_w.l(entry.o)
    0x08000130   0x08000130   0x00000004   Code   RO          736    .ARM.Collect$$$$00000001  mc_w.l(entry2.o)
    0x08000134   0x08000134   0x00000004   Code   RO          739    .ARM.Collect$$$$00000004  mc_w.l(entry5.o)
    0x08000138   0x08000138   0x00000000   Code   RO          741    .ARM.Collect$$$$00000008  mc_w.l(entry7b.o)
    0x08000138   0x08000138   0x00000000   Code   RO          743    .ARM.Collect$$$$0000000A  mc_w.l(entry8b.o)
    0x08000138   0x08000138   0x00000008   Code   RO          744    .ARM.Collect$$$$0000000B  mc_w.l(entry9a.o)
    0x08000140   0x08000140   0x00000000   Code   RO          746    .ARM.Collect$$$$0000000D  mc_w.l(entry10a.o)
    0x08000140   0x08000140   0x00000000   Code   RO          748    .ARM.Collect$$$$0000000F  mc_w.l(entry11a.o)
    0x08000140   0x08000140   0x00000004   Code   RO          737    .ARM.Collect$$$$00002712  mc_w.l(entry2.o)
    0x08000144   0x08000144   0x00000024   Code   RO          449    .text               startup_gd32f30x_hd.o
    0x08000168   0x08000168   0x00000062   Code   RO          762    .text               mc_w.l(uldiv.o)
    0x080001ca   0x080001ca   0x00000002   PAD
    0x080001cc   0x080001cc   0x00000030   Code   RO          775    .text               mc_w.l(init.o)
    0x080001fc   0x080001fc   0x0000001e   Code   RO          777    .text               mc_w.l(llshl.o)
    0x0800021a   0x0800021a   0x00000020   Code   RO          779    .text               mc_w.l(llushr.o)
    0x0800023a   0x0800023a   0x00000002   PAD
    0x0800023c   0x0800023c   0x00000036   Code   RO           11    .text.DwtDelayInit  delay.o
    0x08000272   0x08000272   0x00000002   PAD
    0x08000274   0x08000274   0x00000170   Code   RO           64    .text.ExmcSramDrvTest  exsram_drv.o
    0x080003e4   0x080003e4   0x00000132   Code   RO           62    .text.ExsramDrvInit  exsram_drv.o
    0x08000516   0x08000516   0x00000002   PAD
    0x08000518   0x08000518   0x00000028   Code   RO           29    .text.SysTick_Handler  systick.o
    0x08000540   0x08000540   0x000001a8   Code   RO          456    .text.SystemInit    system_gd32f30x.o
    0x080006e8   0x080006e8   0x00000046   Code   RO           27    .text.SystickInit   systick.o
    0x0800072e   0x0800072e   0x00000002   PAD
    0x08000730   0x08000730   0x00000040   Code   RO           48    .text.USART0_IRQHandler  usb2com_drv.o
    0x08000770   0x08000770   0x00000084   Code   RO           42    .text.Usb2ComDrvInit  usb2com_drv.o
    0x080007f4   0x080007f4   0x0000002e   Code   RO           76    .text.exmc_norsram_deinit  gd32f30x_exmc.o
    0x08000822   0x08000822   0x00000002   PAD
    0x08000824   0x08000824   0x00000012   Code   RO           82    .text.exmc_norsram_enable  gd32f30x_exmc.o
    0x08000836   0x08000836   0x00000002   PAD
    0x08000838   0x08000838   0x00000156   Code   RO           80    .text.exmc_norsram_init  gd32f30x_exmc.o
    0x0800098e   0x0800098e   0x00000002   PAD
    0x08000990   0x08000990   0x00000024   Code   RO           44    .text.fputc         usb2com_drv.o
    0x080009b4   0x080009b4   0x000000b6   Code   RO          136    .text.gpio_init     gd32f30x_gpio.o
    0x08000a6a   0x08000a6a   0x00000002   PAD
    0x08000a6c   0x08000a6c   0x00000016   Code   RO            2    .text.main          main.o
    0x08000a82   0x08000a82   0x00000002   PAD
    0x08000a84   0x08000a84   0x000000a4   Code   RO          427    .text.nvic_irq_enable  gd32f30x_misc.o
    0x08000b28   0x08000b28   0x000000d0   Code   RO          296    .text.rcu_clock_freq_get  gd32f30x_rcu.o
    0x08000bf8   0x08000bf8   0x0000001e   Code   RO          234    .text.rcu_periph_clock_enable  gd32f30x_rcu.o
    0x08000c16   0x08000c16   0x00000002   PAD
    0x08000c18   0x08000c18   0x00000020   Code   RO          244    .text.rcu_periph_reset_disable  gd32f30x_rcu.o
    0x08000c38   0x08000c38   0x0000001e   Code   RO          242    .text.rcu_periph_reset_enable  gd32f30x_rcu.o
    0x08000c56   0x08000c56   0x00000002   PAD
    0x08000c58   0x08000c58   0x0000006a   Code   RO          319    .text.usart_baudrate_set  gd32f30x_usart.o
    0x08000cc2   0x08000cc2   0x00000002   PAD
    0x08000cc4   0x08000cc4   0x00000008   Code   RO          347    .text.usart_data_receive  gd32f30x_usart.o
    0x08000ccc   0x08000ccc   0x00000008   Code   RO          345    .text.usart_data_transmit  gd32f30x_usart.o
    0x08000cd4   0x08000cd4   0x0000007a   Code   RO          317    .text.usart_deinit  gd32f30x_usart.o
    0x08000d4e   0x08000d4e   0x00000002   PAD
    0x08000d50   0x08000d50   0x0000000a   Code   RO          327    .text.usart_enable  gd32f30x_usart.o
    0x08000d5a   0x08000d5a   0x00000002   PAD
    0x08000d5c   0x08000d5c   0x00000010   Code   RO          405    .text.usart_flag_get  gd32f30x_usart.o
    0x08000d6c   0x08000d6c   0x00000016   Code   RO          409    .text.usart_interrupt_enable  gd32f30x_usart.o
    0x08000d82   0x08000d82   0x00000002   PAD
    0x08000d84   0x08000d84   0x00000012   Code   RO          415    .text.usart_interrupt_flag_clear  gd32f30x_usart.o
    0x08000d96   0x08000d96   0x00000002   PAD
    0x08000d98   0x08000d98   0x00000022   Code   RO          413    .text.usart_interrupt_flag_get  gd32f30x_usart.o
    0x08000dba   0x08000dba   0x00000002   PAD
    0x08000dbc   0x08000dbc   0x00000010   Code   RO          321    .text.usart_parity_config  gd32f30x_usart.o
    0x08000dcc   0x08000dcc   0x00000014   Code   RO          333    .text.usart_receive_config  gd32f30x_usart.o
    0x08000de0   0x08000de0   0x00000010   Code   RO          325    .text.usart_stop_bit_set  gd32f30x_usart.o
    0x08000df0   0x08000df0   0x00000014   Code   RO          331    .text.usart_transmit_config  gd32f30x_usart.o
    0x08000e04   0x08000e04   0x00000010   Code   RO          323    .text.usart_word_length_set  gd32f30x_usart.o
    0x08000e14   0x08000e14   0x00000020   Code   RO          682    i.__0printf$8       mc_w.l(printf8.o)
    0x08000e34   0x08000e34   0x0000000e   Code   RO          787    i.__scatterload_copy  mc_w.l(handlers.o)
    0x08000e42   0x08000e42   0x00000002   Code   RO          788    i.__scatterload_null  mc_w.l(handlers.o)
    0x08000e44   0x08000e44   0x0000000e   Code   RO          789    i.__scatterload_zeroinit  mc_w.l(handlers.o)
    0x08000e52   0x08000e52   0x00000002   PAD
    0x08000e54   0x08000e54   0x00000410   Code   RO          689    i._printf_core      mc_w.l(printf8.o)
    0x08001264   0x08001264   0x00000024   Code   RO          690    i._printf_post_padding  mc_w.l(printf8.o)
    0x08001288   0x08001288   0x0000002e   Code   RO          691    i._printf_pre_padding  mc_w.l(printf8.o)
    0x080012b6   0x080012b6   0x00000002   PAD
    0x080012b8   0x080012b8   0x00000024   Code   RO          471    i.puts              mc_w.l(puts.o)
    0x080012dc   0x080012dc   0x00000008   Data   RO          308    .rodata.cst8        gd32f30x_rcu.o
    0x080012e4   0x080012e4   0x00000097   Data   RO           67    .rodata.str1.1      exsram_drv.o
    0x0800137b   0x0800137b   0x00000001   PAD
    0x0800137c   0x0800137c   0x00000030   Data   RO          786    Region$$Table       anon$$obj.o


    Execution Region RW_IRAM1 (Exec base: 0x20000000, Load base: 0x080013b0, Size: 0x00001030, Max: 0x00010000, ABSOLUTE)

    Exec Addr    Load Addr    Size         Type   Attr      Idx    E Section Name        Object

    0x20000000   0x080013b0   0x00000004   Data   RW          750    .data               mc_w.l(stdout.o)
    0x20000004   0x080013b4   0x0000001c   Data   RW           52    .data.g_Usb2ComInfo  usb2com_drv.o
    0x20000020        -       0x00000004   Zero   RW           53    .bss.g_pProcUartData  usb2com_drv.o
    0x20000024        -       0x00000004   Zero   RW           33    .bss.g_pTaskScheduleFunc  systick.o
    0x20000028        -       0x00000008   Zero   RW           34    .bss.g_systemRunTime  systick.o
    0x20000030        -       0x00001000   Zero   RW          446    STACK               startup_gd32f30x_hd.o


    Execution Region RW_RAM1 (Exec base: 0x6c000000, Load base: 0x080013d0, Size: 0x00000100, Max: 0x00100000, ABSOLUTE)

    Exec Addr    Load Addr    Size         Type   Attr      Idx    E Section Name        Object

    0x6c000000        -       0x000000ff   Zero   RW           66    .bss.g_sramBuffer   exsram_drv.o


==============================================================================

Image component sizes


      Code (inc. data)   RO Data    RW Data    ZI Data      Debug   Object Name

        54          0          0          0          0       2284   delay.o
       674        112        151          0        255       3527   exsram_drv.o
       406          0          0          0          0       8027   gd32f30x_exmc.o
       182          0          0          0          0       5790   gd32f30x_gpio.o
       164          0          0          0          0       3554   gd32f30x_misc.o
       300         20          8          0          0      13876   gd32f30x_rcu.o
       432          0          0          0          0      11453   gd32f30x_usart.o
        22          0          0          0          0        467   main.o
        36          8        304          0       4096        876   startup_gd32f30x_hd.o
       424          0          0          0          0       2523   system_gd32f30x.o
       110          0          0          0         12       4120   systick.o
       232          0          0         28          4       4263   usb2com_drv.o

    ----------------------------------------------------------------------
      3068        140        512         28       4368      60760   Object Totals
         0          0         48          0          0          0   (incl. Generated)
        32          0          1          0          1          0   (incl. Padding)

    ----------------------------------------------------------------------

      Code (inc. data)   RO Data    RW Data    ZI Data      Debug   Library Member Name

         0          0          0          0          0          0   entry.o
         0          0          0          0          0          0   entry10a.o
         0          0          0          0          0          0   entry11a.o
         8          4          0          0          0          0   entry2.o
         4          0          0          0          0          0   entry5.o
         0          0          0          0          0          0   entry7b.o
         0          0          0          0          0          0   entry8b.o
         8          4          0          0          0          0   entry9a.o
        30          0          0          0          0          0   handlers.o
        48         10          0          0          0         68   init.o
        30          0          0          0          0         68   llshl.o
        32          0          0          0          0         68   llushr.o
      1154         54          0          0          0        352   printf8.o
        36          6          0          0          0         80   puts.o
         0          0          0          4          0          0   stdout.o
        98          0          0          0          0         92   uldiv.o

    ----------------------------------------------------------------------
      1456         78          0          4          0        728   Library Totals
         8          0          0          0          0          0   (incl. Padding)

    ----------------------------------------------------------------------

      Code (inc. data)   RO Data    RW Data    ZI Data      Debug   Library Name

      1448         78          0          4          0        728   mc_w.l

    ----------------------------------------------------------------------
      1456         78          0          4          0        728   Library Totals

    ----------------------------------------------------------------------

==============================================================================


      Code (inc. data)   RO Data    RW Data    ZI Data      Debug   

      4524        218        512         32       4368      61180   Grand Totals
      4524        218        512         32       4368      61180   ELF Image Totals
      4524        218        512         32          0          0   ROM Totals

==============================================================================

    Total RO  Size (Code + RO Data)                 5036 (   4.92kB)
    Total RW  Size (RW Data + ZI Data)              4400 (   4.30kB)
    Total ROM Size (Code + RO Data + RW Data)       5068 (   4.95kB)

==============================================================================

